:100000000C94EC010C94650C0C94960C0C94C70C9D
:100010000C94F80C0C94290D0C945A0D0C948B0D27
:100020000C94BC0D0C94ED0D0C941E0E0C944F0E04
:100030000C94800E0C94B10E0C94E20E0C94130FE1
:100040000C94440F0C94750F0C94A60F0C94D70FBE
:100050000C9408100C9439100C946A100C949B109A
:100060000C94CC100C94FD100C942E110C945F1178
:100070000C9490110C94C1110C94F2110C94231255
:100080000C9454120C9485120C94B6120C94E71232
:100090000C9418130C9449130C947A130C94AB130E
:1000A0000C94DC130C940D140C943E140C946F14EB
:1000B0000C94A0140C94D1140C9402150C943315C8
:1000C0000C9464150C9495150C94C6150C94F715A6
:1000D0000C9428160C9459160C948A160C94BB1682
:1000E0000C94EC160C941D170C944E170C947F175F
:1000F0000C94B0170C94E1170C9412180C9443183C
:100100000C9474180C94A5180C94D6180C94071918
:100110000C9438190C9469190C949A190C94CB19F5
:100120000C94FC190C942D1A0C945E1A0C941D025C
:100130000C941D020C948F1A0C94C01A0C94F11A92
:100140000C94221B0C94531B0C94841B0C94B51B15
:100150000C94E61B0C94171C0C94481C0C94791CF2
:100160000C94AA1C0C94DB1C0C940C1D0C943D1DCF
:100170000C946E1D0C949F1D0C941D020C941D027A
:100180000C941D020C941D020C941D020C941D0273
:100190000C941D020C941D020C941D020C941D0263
:1001A0000C94D01D0C94011E0C941D020C941D0285
:1001B0000C94321E0C94631E0C94941E0C94C51E59
:1001C0000C94F61E0C94271F0C941D020C941D0217
:1001D0000C941D020C941D020C941D020C94581FCB
:1001E0000C94891F0C94BA1F8A04C904C904C90459
:1001F000C904B904C904B104C904BD04C904B504DF
:10020000C904C904C904C904C904C904C904C90486
:10021000C904BD04C9048D04C9049104C904C904F6
:100220009904A9049D04A104A5049504AD04C50482
:10023000C904C104AD06B1067507A407D8070A08AA
:100240008D083108AC0808093109A9099009450948
:10025000C209FE09C709CC22CC22D422DC22E72223
:100260003F23462372237223712371230C94450983
:100270000C94710B0C94A9040C94C7090C94722370
:100280000C941F0B0C94EB1F0C9476210C94E12121
:100290000C949A0B0C9426210C94D4220C943B06BB
:1002A0000C94A9090C947D030C94C5040C94AD0422
:1002B0000C945D0B0C94B1060C946C0B0C94CD0457
:1002C0000C94A5040C94670B0C94BE210C94DC22B6
:1002D0000C9499040C94880B0C94B5040C9473043E
:1002E0000C949D040C94AC0B0C94AD060C94080972
:1002F0000C94DA230C941A220C9431090C94860382
:100300000C94C2090C94C1040C94FE090C94A10431
:100310000C9498030C9466030C948F030C947F2424
:100320000C9495040C9446230C948D080C94B904F9
:100330000C940A080C94470B0C9472040C94360627
:100340000C94FC210C94E7220C9431080C94540C6E
:100350000C9490090C94D8070C9460030C94A40797
:100360000C94560B0C94CC220C948A040C94752398
:100370000C94AC080C9475030C940B200C94EE1F99
:100380000C94C9040C9425030C943A0B0C94620B46
:100390000C94BE0B0C948D040C9457210C9475078F
:1003A0000C9471230C94760B0C94BD040C94B10442
:1003B0000C940B220C946E030C944F0B0C94D00BEA
:1003C0000C943F230C9463030C9491040C94A00AA6
:1003D0003606EE1F3B060B2011241FBECFEFCDBF0C
:1003E000DFE3DEBF00E00CBF11E2A0E0B0E2EEE729
:1003F000FCE400E00BBF02C007900D92A030B107F3
:10040000D9F723E2A0E0B1E201C01D92A239B20700
:10041000E1F711E0CAEED1E000E006C02197010942
:10042000802FFE010E94B524C83ED10780E0080756
:10043000A9F70E946B200C942D260C9400000895BF
:100440000895FC0162837383942F852F84839583A1
:10045000468357831082118208958F929F92AF92A4
:10046000BF92EF92FF920F931F93CF93DF93CDB77D
:10047000DEB72A97CDBFDEBF7C018AE5898380E5A0
:100480008A83852E9924AA24BB24B22FAA279927D0
:10049000882788299929AA29BB2949015A01882432
:1004A000AA24BB24BA2CA92C982C88248829992901
:1004B000AA29BB2949015A0188249924BB24892CE3
:1004C0009A2CAB2CBB2488299929AA29BB298B8378
:1004D0009C83AD83BE837627672776276F837887D3
:1004E00010270127102709871A872AE0AE014F5FDE
:1004F0005F4F66E5F701828193810E94F423F70143
:10050000828193810E9431242A96CDBFDEBFDF9184
:10051000CF911F910F91FF90EF90BF90AF909F9060
:100520008F9008958F929F92AF92BF92EF92FF9219
:100530000F931F93CF93DF93CDB7DEB72A97CDBF2D
:10054000DEBF7C018AE5898380EA8A83852E99242F
:10055000AA24BB24B22FAA2799278827882999295A
:10056000AA29BB2949015A018824AA24BB24BA2CF0
:10057000A92C982C882488299929AA29BB294901C2
:100580005A0188249924BB24892C9A2CAB2CBB2497
:1005900088299929AA29BB298B839C83AD83BE8393
:1005A0007627672776276F837887102701271027FC
:1005B00009871A872AE0AE014F5F5F4F66E5F701B2
:1005C000828193810E94F423F701828193810E94AA
:1005D00031242A96CDBFDEBFDF91CF911F910F91BD
:1005E000FF90EF90BF90AF909F908F9008950F93E2
:1005F0001F93CF93DF931F92CDB7DEB78C01198283
:1006000021E0AE014F5F5F4F66E5FC01828193817F
:100610000E94F423F801828193810E9431240F907B
:10062000DF91CF911F910F910895CF93DF93EC014C
:10063000BA0188819981009719F0A9010E941B26AF
:1006400018821982DF91CF9108950F93E0E6F6E0CA
:1006500088E0818384E08283128A138AE0EAF9E0E9
:1006600084E1838388E1848384818483413019F029
:10067000423019F004C080E203C080E301C080E092
:10068000222319F0213019F003C0877F01C0886050
:10069000011102C093E401C093E0892BE0EAF9E084
:1006A000858370E0DB01AA5DBF4D8C918683DB0101
:1006B000AA5FBF4D8C918295807F87830F910895AB
:1006C0008091A00908956093A00908958091A109DF
:1006D00086FB882780F991E0892708958091A109F8
:1006E0008095881F8827881F08958091A10985FB20
:1006F000882780F991E0892708956093AB22709351
:10070000AC224093B5215093B62108956093AF2257
:100710007093B0224093B9215093BA210895FB0100
:100720008BE6838380EA808789E08187128608953B
:10073000FB018CE6838380EA848789E085871686BF
:100740000895CF93DF93EC010E945E0C8BE590E25D
:1007500088839983DF91CF9108952BE530E2FC01E6
:10076000208331830E94640C089508950895E0E485
:10077000F6E09FEF918388EA808B818B828B838B5D
:10078000848B858B868B878B1482E0E8F6E088E08B
:100790008183138A1482E0EAF6E080EC808B818BFF
:1007A000828B838B848B858B868B878B1482918342
:1007B000E0E6F6E091E19183808B848B1482E0EA9D
:1007C000F0E0828181608283828182608283828183
:1007D000846082830895E0E5F0E08BEC8283808181
:1007E00088608083818183FFFDCFE0E5F0E0858133
:1007F00098ED94BF84EC8583808180618083E0E400
:10080000F0E0818194BF1182E0E5F0E0818184FF16
:10081000FDCFE0E4F0E08081887F846098ED94BFB4
:100820008083A0E5B0E08C91887F8C93828194BF17
:1008300081E08283E0EBF0E084818C7F8483089503
:1008400081E080936206089580E1809362060895B6
:1008500081E080936106089580E1809361060895A8
:10086000F89484E690E0E0E8F6E028E02583AFE93C
:10087000BFE01197F1F700C000002683AFE9BFE0A9
:100880001197F1F700C00000019781F7789408955F
:10089000F89445E050E064E630E0E0E8F6E028E077
:1008A0001CC02583AFE9BFE01197F1F700C000003D
:1008B0002683AFE9BFE01197F1F700C00000019770
:1008C00081F7BFEF73EC89E0B15070408040E1F7F1
:1008D00000C000004150510919F0862F932FE1CF3D
:1008E000789408950895DC01633029F4FA01818138
:1008F0001D968C931D971D964C911D9750E0463286
:10090000510508F046C0FA018827EC50FF4F8F4F81
:100910000C94B5241C961C92089581E01C968C932F
:10092000089583E01C968C93089585E01C968C9323
:10093000089584E01C968C93089586E01C968C9311
:10094000089588E01C968C93089587E01C968C93FC
:10095000089589E01C968C9308958AE01C968C93E8
:1009600008958CE01C968C9308958BE01C968C93D4
:1009700008958DE01C968C9308958EE01C968C93C0
:10098000089580E11C968C9308958FE01C968C93BB
:10099000089581E11C968C930895CF93DF93DA013B
:1009A000ED91FC91FE27EF27FE276830710509F4D1
:1009B00049C0EA01DC016930710598F462307105C3
:1009C00009F46EC038F46115710501F161307105EB
:1009D00031F164C06330710559F16730710569F117
:1009E0005DC06D30710509F454C048F46B30710579
:1009F00009F445C06C30710509F446C04FC0603140
:100A0000710569F16115714019F148C05496ED9373
:100A1000FC9355971E96ED93FC931F9741C05696F5
:100A2000ED93FC9357975096ED93FC93519738C0F4
:100A30005896ED93FC93599733C09496ED93FC939D
:100A400095972EC0DC019696ED93FC93979728C05E
:100A500060E071E087E393E20E94150321C02881E2
:100A60005A962C935A9729815B962C935B972A81EF
:100A70005C962C935C972B815D962C9311C05E96AF
:100A8000ED93FC935F970CC09096ED93FC93919738
:100A900007C09296ED93FC93939702C00E94300496
:100AA000DF91CF910895CF92DF92EF92FF920F9353
:100AB0001F93CF93DF937C018A0141155105B1F05B
:100AC0006B01C40ED51EEB01261B370BC9018C0F21
:100AD0009D1FB8010E948224FC0141E0E427EE0D35
:100AE000FF1D89918083CC15DD0581F7DF91CF91C2
:100AF0001F910F91FF90EF90DF90CF90089528E71E
:100B000030E2FC0120833183089528E730E2FC01C4
:100B1000208331830E940A2208950F931F93CF935D
:100B2000DF93CDB7DEB72897CDBFDEBF8C0180E065
:100B300091E08F83988722E0AE01495F5F4F63E0C9
:100B4000F80180A591A50E94F423F80180A591A544
:100B50000E943124A8014C5E5F4F22E030E060E04B
:100B600070E0F80180A591A50E940324F80180A5FA
:100B700091A50E943124A8014A5E5F4F22E030E037
:100B800061E070E0F80180A591A50E940324F801BE
:100B900080A591A50E943124A8014E5E5F4F22E0FE
:100BA00030E062E070E0F80180A591A50E94032486
:100BB000F80180A591A50E943124A801485E5F4FED
:100BC00022E030E063E070E0F80180A591A50E948A
:100BD0000324F80180A591A50E9431241D821E8264
:100BE0008BE090E08B839C8387E190E089839A83FC
:100BF00022E030E0AE014B5F5F4F64E070E0F8014F
:100C000080A591A50E940324F80180A591A50E94CA
:100C1000312422E030E0AE014D5F5F4F65E070E0CF
:100C2000F80180A591A50E940324F80180A591A553
:100C30000E94312422E030E0AE014F5F5F4F66E05A
:100C400070E0F80180A591A50E940324F80180A519
:100C500091A50E94312481E0F80184872896CDBFB8
:100C6000DEBFDF91CF911F910F91089582E091E255
:100C70000E94E20B089582E091E20E94EE0B08953B
:100C8000CF93DF93EC0168A779A746E060E082E0AC
:100C900091E20E941F0B68EA71E682E091E20E94F5
:100CA0005D0B21E0AE0160EA7AE082E091E20E9411
:100CB000760B1D8681E090E08C8B9D8B8EE190E021
:100CC0008E8B9F8B1A8A1B8A8C899D898E879F8722
:100CD0008E899F89888B998B188E198E1CA21DA2D4
:100CE0001EA21FA2DF91CF9108950F931F93CF9360
:100CF000DF93CDB7DEB72897CDBFDEBF8C0142E0D2
:100D000063E0FC0180A591A50E944224F80180A522
:100D100091A50E943124F80180A591A50E94DD23B0
:100D2000FFEF21EE84E0F15020408040E1F700C069
:100D300000001D821E821B821C8219821A82F80109
:100D4000848590E08131910508F058C3FC01882723
:100D5000E65EFE4F8F4F0C94B524C8010E948D05AE
:100D600066C342E060E070E0F80180A591A50E94B2
:100D70004824F80180A591A50E943124F80180A59E
:100D800091A50E94DD23FFEF21EE84E0F150204089
:100D90008040E1F700C0000042E061E070E0F8014F
:100DA00080A591A50E944824F80180A591A50E94E4
:100DB0003124F80180A591A50E94DD23FFEF21EEEB
:100DC00084E0F15020408040E1F700C0000042E0A4
:100DD00063E070E0F80180A591A50E944824F80125
:100DE00080A591A50E943124F80180A591A50E94BB
:100DF000DD23FFEF21EE84E0F15020408040E1F759
:100E000000C00000F801808D918D46E4489F90015C
:100E1000499F300D11243695279536952795ABE7D8
:100E2000B4E10E94BD24969587958093002190930C
:100E300001218731910518F037E120E002C0382FF9
:100E4000292F3D832E838631910558F09C01265130
:100E500031092931310510F029E130E02B833C8341
:100E600002C01B821C828E32910548F08E9786311B
:100E7000910510F086E190E089839A8302C019827F
:100E80001A8222E030E0AE014B5F5F4F64E070E019
:100E9000F80180A591A50E940324F80180A591A5E1
:100EA0000E94312422E030E0AE014D5F5F4F65E0EB
:100EB00070E0F80180A591A50E940324F80180A5A7
:100EC00091A50E94312422E030E0AE014F5F5F4FD8
:100ED00066E070E0F80180A591A50E940324F80166
:100EE00080A591A50E943124A2C2809147209091B3
:100EF000482001968A30910528F4809347209093EA
:100F0000482009C089E090E08093472090934820D2
:100F100083E0F801848780914720909148209827AA
:100F2000892798278F83988722E0AE01495F5F4F1A
:100F300063E0F80180A591A50E94F423F80180A543
:100F400091A50E94312473C2A801425F5F4F22E045
:100F500030E060E070E0F80180A591A50E940324D4
:100F6000F80180A591A50E943124A801405F5F4F40
:100F700022E030E061E070E0F80180A591A50E94D8
:100F80000324F80180A591A50E943124A8014E5E9A
:100F90005F4F22E030E062E070E0F80180A591A5AB
:100FA0000E940324F80180A591A50E9431243FC22C
:100FB00085E090E0809347209093482080E099E17D
:100FC0008F83988722E0AE01495F5F4F63E0F801AD
:100FD00080A591A50E94F423F80180A591A50E9407
:100FE0003124F8018489958986879787868997892E
:100FF000808B918B128A138A68EA71E682E091E213
:101000000E943A0B8AE693E20E94200483E0F801F2
:1010100084870DC285E090E080934720909348201C
:1010200080E099E18F83988722E0AE01495F5F4FAE
:1010300063E0F80180A591A50E94F423F80180A542
:1010400091A50E94312468EA71E682E091E20E9453
:101050003A0B8AE693E20E94200483E0F801848739
:10106000E6C180E097E18F83988722E0AE01495F77
:101070005F4F63E0F80180A591A50E94F423F80179
:1010800080A591A50E94312482E091E20E94470B45
:101090008AE693E20E942804A8014C5E5F4F22E09A
:1010A00030E060E070E0F80180A591A50E94032483
:1010B000F80180A591A50E943124A8014A5E5F4FE6
:1010C00022E030E061E070E0F80180A591A50E9487
:1010D0000324F80180A591A50E943124A8014E5E49
:1010E0005F4F22E030E062E070E0F80180A591A55A
:1010F0000E940324F80180A591A50E943124F801E3
:10110000848995898687978786899789808B918B33
:10111000128A138A81E084878AC180E09AE18F83F2
:10112000988722E0AE01495F5F4F63E0F80180A538
:1011300091A50E94F423F80180A591A50E94312475
:1011400082E091E20E94470B8AE693E20E94280423
:1011500083E0F80184876BC180E099E18F839887F1
:1011600022E0AE01495F5F4F63E0F80180A591A5E1
:101170000E94F423F80180A591A50E943124F80172
:10118000848995898687978786899789808B918BB3
:10119000128A138A82E091E20E94470B21E042E327
:1011A00050E068EE73E089E693E20E94C20A89E6A5
:1011B00093E20E94F60AFFEF21EE84E0F150204016
:1011C0008040E1F700C0000021E042E350E068EE1B
:1011D00073E089E693E20E94C20A89E693E20E94E4
:1011E000F60A9FEFE1EEF4E09150E040F040E1F7C5
:1011F00000C0000068EA71E682E091E20E943A0BCA
:101200008AE693E20E94200483E0F80184870FC1FC
:1012100080E097E18F83988722E0AE01495F5F4FBE
:1012200063E0F80180A591A50E94F423F80180A550
:1012300091A50E94312480914620882329F08AE6D6
:1012400093E20E94240404C08AE693E20E942C04E4
:101250008091462091E0892780934620F801948769
:10126000E6C080E097E18F83988722E0AE01495F76
:101270005F4F63E0F80180A591A50E94F423F80177
:1012800080A591A50E943124D2C042E067E070E0C1
:10129000F80180A591A50E944824F80180A591A598
:1012A0000E943124F80180A591A50E94DD23FFEF63
:1012B00021EE84E0F15020408040E1F700C00000C2
:1012C00042E068E070E0F80180A591A50E94482402
:1012D000F80180A591A50E943124F80180A591A56F
:1012E0000E94DD23FFEF21EE84E0F150204080409A
:1012F000E1F700C00000F80124A135A1322F222718
:10130000C901A0E0B0E09C01AD0140575F4F00E093
:101310001CE060E071E087E393E20E94920287C0E4
:10132000F80184A195A126A137A1280F391F322FDA
:101330002227C901A0E0B0E09C01AD0140575F4FFA
:1013400000E011E060E07DE087E393E20E9492021A
:101350006EC0F80184A195A126A137A1280F391FDD
:10136000322F2227C901A0E0B0E09C01AD01405717
:101370005F4F00E011E060E07DE087E393E20E94D0
:101380002D0255C087E393E20E94F70250C042E06D
:1013900060E170E0F80180A591A50E944824F80161
:1013A00080A591A50E943124F80180A591A50E94F5
:1013B000DD23FFEF21EE84E0F15020408040E1F793
:1013C00000C000006FE670E2C8014A960E94242621
:1013D000892B69F580E093E28F83988722E0AE0144
:1013E000495F5F4F63E0F80180A591A50E94F42357
:1013F000F80180A591A50E94312419C087E393E2EA
:101400000E94F702F801128E138E148E158EA80119
:10141000465E5F4F22E030E060E170E080A591A57C
:101420000E940324F80180A591A50E9431242896EA
:10143000CDBFDEBFDF91CF911F910F91089582E064
:1014400091E20E94470B8AE693E20E9428040895E5
:10145000CF93DF93EC018A899B89892BC9F5888911
:101460009989892BF1F48E859F85892B89F4CE018A
:101470000E941F0A20E048EE53E068EE73E089E620
:1014800093E20E94C20A89E693E20E94F60A55C0DE
:101490008CE390E0888B998B8E859F8501978E8752
:1014A0009F8784E690E08A8B9B8B88899989019736
:1014B000888B998B8E859F85892B81F48889998962
:1014C0000A97D0F00BC0888999890597D0F027C07A
:1014D0008A899B890A978A8B9B8B2FC022E049E1DE
:1014E00050E068EE73E089E693E20E94C20A89E662
:1014F00093E20E94F60AECCF8E859F85892B19F323
:101500000EC020E044E650E068EE73E089E693E226
:101510000E94C20A89E693E20E94F60AD9CF21E02E
:1015200042E350E068EE73E089E693E20E94C20A6B
:1015300089E693E20E94F60ACBCFDF91CF9108951E
:101540000E94280A089508950895E0E0FAE01082C4
:1015500087E88183138284E294EF86A397A382E1D4
:101560009AE786A797A7168217820895E0E4FAE023
:1015700010821182138284E294EF86A397A31682CD
:10158000178208950F931F93CF938A01C22F9B0157
:1015900040E050E064E274EF80E090E00E94962426
:1015A000B80176956795EEE3E09FC001E19F900D4D
:1015B0001124860F971FCF5FB90102C076956795FA
:1015C000CA95E2F7E0E0FAE066A777A726A337A37B
:1015D000A0E4BAE096968D939C93979786E08083DB
:1015E00087E08C93CF911F910F910895E0E4FAE08A
:1015F000848580FFFDCFE0E4FAE0848581708487F4
:10160000A0E0BAE01C92108210A211A290961D9246
:101610001C9291972FEF83EF91E0215080409040F2
:10162000E1F700C000000895CF93DF93EC010E9422
:10163000A50ACE010E94B60ADF91CF910895FC0160
:101640004283E0E0F8E08081807F8083138210A2F3
:1016500011A210A611A612A613A614A615A616A6C8
:1016600017A616A217A28181887F682B6183168234
:1016700017820895E0E0F8E066A377A32081207F39
:10168000DC0112969C91822F892B80830895E0E0E3
:10169000F8E08081807F808310A211A20895E0E0AD
:1016A000F8E081818F70682B61830895E0E0F8E0B5
:1016B0008181609568236183089560932608709303
:1016C0002708089560932808709329080895609367
:1016D0002A0870932B08089560932C0870932D08A6
:1016E000089560932E0870932F0808956115710571
:1016F00031F0E0E0F8E086818370282B2683609348
:10170000212170932221409317225093182208958B
:101710006115710531F0E0E0F8E086818C70282BCE
:1017200026836093232170932421409319225093A0
:101730001A2208956115710531F0E0E0F8E0878123
:101740008370282B27836093252170932621409353
:101750001B2250931C2208956115710531F0E0E0C1
:10176000F8E087818C70282B278360932721709362
:10177000282140931D2250931E2208956115710562
:1017800031F0E0E0F8E087818073282B27836093B5
:10179000292170932A2140931F22509320220895DB
:1017A0006115710531F0E0E0F8E08781807C282B3D
:1017B000278360932B2170932C21409321225093F7
:1017C00022220895CF93DF93EC010E94570C8EE8FC
:1017D00090E288839983DF91CF9108952EE830E2DB
:1017E000FC01208331830E945D0C089508950895C3
:1017F000EF920F931F93CF93DF93EC01E0E8F6E0B5
:1018000080EB818390E4928390EC948B958B968B04
:10181000978B8583611102C080E401C080E50111CE
:1018200002C030E001C030E8411102C090E001C0C8
:1018300090E2220F220FE22AE82AE32AE92A00ECAA
:101840001AE0F801E08280E091E00E94EE248883B3
:10185000998381E0F801818384E59CE0809377217E
:1018600090937821C0936D22D0936E22DF91CF9117
:101870001F910F91EF900895FC0182819381892B34
:1018800079F04081518122813381C901019782839E
:101890009383FA01E80FF91F80818093C30A0895AA
:1018A00080E18093850608950E943C0C089522EB08
:1018B00030E2FC01208331830895089526ED30E263
:1018C000FC0120833183089508951F920F920FB673
:1018D0000F9211240BB60F922F933F934F935F9368
:1018E0006F937F938F939F93AF93BF93EF93FF93E8
:1018F000E0910721F0910821309729F08091FD2196
:101900009091FE211995FF91EF91BF91AF919F9119
:101910008F917F916F915F914F913F912F910F9098
:101920000BBE0F900FBE0F901F9018951F920F9235
:101930000FB60F9211240BB60F922F933F934F9334
:101940005F936F937F938F939F93AF93BF93EF9327
:10195000FF93E0910921F0910A21309729F08091BD
:10196000FF21909100221995FF91EF91BF91AF91C6
:101970009F918F917F916F915F914F913F912F91A7
:101980000F900BBE0F900FBE0F901F9018951F92D7
:101990000F920FB60F9211240BB60F922F933F9315
:1019A0004F935F936F937F938F939F93AF93BF9367
:1019B000EF93FF93E0910B21F0910C21309729F0E8
:1019C00080910122909102221995FF91EF91BF9190
:1019D000AF919F918F917F916F915F914F913F91C7
:1019E0002F910F900BBE0F900FBE0F901F90189568
:1019F0001F920F920FB60F9211240BB60F922F93D6
:101A00003F934F935F936F937F938F939F93AF9386
:101A1000BF93EF93FF93E0910D21F0910E2130974A
:101A200029F080910322909104221995FF91EF9162
:101A3000BF91AF919F918F917F916F915F914F91E6
:101A40003F912F910F900BBE0F900FBE0F901F90E4
:101A500018951F920F920FB60F9211240BB60F928A
:101A60002F933F934F935F936F937F938F939F93A6
:101A7000AF93BF93EF93FF93E0910F21F09110216B
:101A8000309729F080910522909106221995FF91B7
:101A9000EF91BF91AF919F918F917F916F915F91E6
:101AA0004F913F912F910F900BBE0F900FBE0F9053
:101AB0001F9018951F920F920FB60F9211240BB61C
:101AC0000F922F933F934F935F936F937F938F93D7
:101AD0009F93AF93BF93EF93FF93E0911121F09108
:101AE0001221309729F080910722909108221995B0
:101AF000FF91EF91BF91AF919F918F917F916F91E6
:101B00005F914F913F912F910F900BBE0F900FBEA1
:101B10000F901F9018951F920F920FB60F921124DD
:101B20000BB60F922F933F934F935F936F937F93D7
:101B30008F939F93AF93BF93EF93FF93E091132104
:101B4000F0911421309729F08091092290910A2276
:101B50001995FF91EF91BF91AF919F918F917F91D7
:101B60006F915F914F913F912F910F900BBE0F900E
:101B70000FBE0F901F9018951F920F920FB60F92E5
:101B800011240BB60F922F933F934F935F936F9354
:101B90007F938F939F93AF93BF93EF93FF93E091C6
:101BA0001521F0911621309729F080910B22909108
:101BB0000C221995FF91EF91BF91AF919F918F9159
:101BC0007F916F915F914F913F912F910F900BBE3D
:101BD0000F900FBE0F901F9018951F920F920FB687
:101BE0000F9211240BB60F922F933F934F935F9355
:101BF0006F937F938F939F93AF93BF93EF93FF93D5
:101C0000E0911721F0911821309729F080910D2251
:101C100090910E221995FF91EF91BF91AF919F91F5
:101C20008F917F916F915F914F913F912F910F9085
:101C30000BBE0F900FBE0F901F9018951F920F9222
:101C40000FB60F9211240BB60F922F933F934F9321
:101C50005F936F937F938F939F93AF93BF93EF9314
:101C6000FF93E0911921F0911A21309729F080918A
:101C70000F22909110221995FF91EF91BF91AF9192
:101C80009F918F917F916F915F914F913F912F9194
:101C90000F900BBE0F900FBE0F901F9018951F92C4
:101CA0000F920FB60F9211240BB60F922F933F9302
:101CB0004F935F936F937F938F939F93AF93BF9354
:101CC000EF93FF93E0911B21F0911C21309729F0B5
:101CD00080911122909112221995FF91EF91BF915D
:101CE000AF919F918F917F916F915F914F913F91B4
:101CF0002F910F900BBE0F900FBE0F901F90189555
:101D00001F920F920FB60F9211240BB60F922F93C2
:101D10003F934F935F936F937F938F939F93AF9373
:101D2000BF93EF93FF93E0911D21F0911E21309717
:101D300029F080911322909114221995FF91EF912F
:101D4000BF91AF919F918F917F916F915F914F91D3
:101D50003F912F910F900BBE0F900FBE0F901F90D1
:101D600018951F920F920FB60F9211240BB60F9277
:101D70002F933F934F935F936F937F938F939F9393
:101D8000AF93BF93EF93FF93E0911F21F091202138
:101D9000309729F080911522909116221995FF9184
:101DA000EF91BF91AF919F918F917F916F915F91D3
:101DB0004F913F912F910F900BBE0F900FBE0F9040
:101DC0001F9018951F920F920FB60F9211240BB609
:101DD0000F922F933F934F935F936F937F938F93C4
:101DE0009F93AF93BF93EF93FF93E0912121F091E5
:101DF0002221309729F0809117229091182219956D
:101E0000FF91EF91BF91AF919F918F917F916F91D2
:101E10005F914F913F912F910F900BBE0F900FBE8E
:101E20000F901F9018951F920F920FB60F921124CA
:101E30000BB60F922F933F934F935F936F937F93C4
:101E40008F939F93AF93BF93EF93FF93E0912321E1
:101E5000F0912421309729F08091192290911A2233
:101E60001995FF91EF91BF91AF919F918F917F91C4
:101E70006F915F914F913F912F910F900BBE0F90FB
:101E80000FBE0F901F9018951F920F920FB60F92D2
:101E900011240BB60F922F933F934F935F936F9341
:101EA0007F938F939F93AF93BF93EF93FF93E091B3
:101EB0002521F0912621309729F080911B229091C5
:101EC0001C221995FF91EF91BF91AF919F918F9136
:101ED0007F916F915F914F913F912F910F900BBE2A
:101EE0000F900FBE0F901F9018951F920F920FB674
:101EF0000F9211240BB60F922F933F934F935F9342
:101F00006F937F938F939F93AF93BF93EF93FF93C1
:101F1000E0912721F0912821309729F080911D220E
:101F200090911E221995FF91EF91BF91AF919F91D2
:101F30008F917F916F915F914F913F912F910F9072
:101F40000BBE0F900FBE0F901F9018951F920F920F
:101F50000FB60F9211240BB60F922F933F934F930E
:101F60005F936F937F938F939F93AF93BF93EF9301
:101F7000FF93E0912921F0912A21309729F0809157
:101F80001F22909120221995FF91EF91BF91AF915F
:101F90009F918F917F916F915F914F913F912F9181
:101FA0000F900BBE0F900FBE0F901F9018951F92B1
:101FB0000F920FB60F9211240BB60F922F933F93EF
:101FC0004F935F936F937F938F939F93AF93BF9341
:101FD000EF93FF93E0912B21F0912C21309729F082
:101FE00080912122909122221995FF91EF91BF912A
:101FF000AF919F918F917F916F915F914F913F91A1
:102000002F910F900BBE0F900FBE0F901F90189541
:102010001F920F920FB60F9211240BB60F922F93AF
:102020003F934F935F936F937F938F939F93AF9360
:10203000BF93EF93FF93E0912D21F0912E213097E4
:1020400029F080912322909124221995FF91EF91FC
:10205000BF91AF919F918F917F916F915F914F91C0
:102060003F912F910F900BBE0F900FBE0F901F90BE
:1020700018951F920F920FB60F9211240BB60F9264
:102080002F933F934F935F936F937F938F939F9380
:10209000AF93BF93EF93FF93E0912F21F091302105
:1020A000309729F080912522909126221995FF9151
:1020B000EF91BF91AF919F918F917F916F915F91C0
:1020C0004F913F912F910F900BBE0F900FBE0F902D
:1020D0001F9018951F920F920FB60F9211240BB6F6
:1020E0000F922F933F934F935F936F937F938F93B1
:1020F0009F93AF93BF93EF93FF93E0913121F091C2
:102100003221309729F08091272290912822199529
:10211000FF91EF91BF91AF919F918F917F916F91BF
:102120005F914F913F912F910F900BBE0F900FBE7B
:102130000F901F9018951F920F920FB60F921124B7
:102140000BB60F922F933F934F935F936F937F93B1
:102150008F939F93AF93BF93EF93FF93E0913321BE
:10216000F0913421309729F08091292290912A22F0
:102170001995FF91EF91BF91AF919F918F917F91B1
:102180006F915F914F913F912F910F900BBE0F90E8
:102190000FBE0F901F9018951F920F920FB60F92BF
:1021A00011240BB60F922F933F934F935F936F932E
:1021B0007F938F939F93AF93BF93EF93FF93E091A0
:1021C0003521F0913621309729F080912B22909182
:1021D0002C221995FF91EF91BF91AF919F918F9113
:1021E0007F916F915F914F913F912F910F900BBE17
:1021F0000F900FBE0F901F9018951F920F920FB661
:102200000F9211240BB60F922F933F934F935F932E
:102210006F937F938F939F93AF93BF93EF93FF93AE
:10222000E0913721F0913821309729F080912D22CB
:1022300090912E221995FF91EF91BF91AF919F91AF
:102240008F917F916F915F914F913F912F910F905F
:102250000BBE0F900FBE0F901F9018951F920F92FC
:102260000FB60F9211240BB60F922F933F934F93FB
:102270005F936F937F938F939F93AF93BF93EF93EE
:10228000FF93E0913921F0913A21309729F0809124
:102290002F22909130221995FF91EF91BF91AF912C
:1022A0009F918F917F916F915F914F913F912F916E
:1022B0000F900BBE0F900FBE0F901F9018951F929E
:1022C0000F920FB60F9211240BB60F922F933F93DC
:1022D0004F935F936F937F938F939F93AF93BF932E
:1022E000EF93FF93E0913B21F0913C21309729F04F
:1022F00080913122909132221995FF91EF91BF91F7
:10230000AF919F918F917F916F915F914F913F918D
:102310002F910F900BBE0F900FBE0F901F9018952E
:102320001F920F920FB60F9211240BB60F922F939C
:102330003F934F935F936F937F938F939F93AF934D
:10234000BF93EF93FF93E0913D21F0913E213097B1
:1023500029F080913322909134221995FF91EF91C9
:10236000BF91AF919F918F917F916F915F914F91AD
:102370003F912F910F900BBE0F900FBE0F901F90AB
:1023800018951F920F920FB60F9211240BB60F9251
:102390002F933F934F935F936F937F938F939F936D
:1023A000AF93BF93EF93FF93E0913F21F0914021D2
:1023B000309729F080913522909136221995FF911E
:1023C000EF91BF91AF919F918F917F916F915F91AD
:1023D0004F913F912F910F900BBE0F900FBE0F901A
:1023E0001F9018951F920F920FB60F9211240BB6E3
:1023F0000F922F933F934F935F936F937F938F939E
:102400009F93AF93BF93EF93FF93E0914121F0919E
:102410004221309729F080913722909138221995E6
:10242000FF91EF91BF91AF919F918F917F916F91AC
:102430005F914F913F912F910F900BBE0F900FBE68
:102440000F901F9018951F920F920FB60F921124A4
:102450000BB60F922F933F934F935F936F937F939E
:102460008F939F93AF93BF93EF93FF93E09143219B
:10247000F0914421309729F08091392290913A22AD
:102480001995FF91EF91BF91AF919F918F917F919E
:102490006F915F914F913F912F910F900BBE0F90D5
:1024A0000FBE0F901F9018951F920F920FB60F92AC
:1024B00011240BB60F922F933F934F935F936F931B
:1024C0007F938F939F93AF93BF93EF93FF93E0918D
:1024D0004521F0914621309729F080913B2290913F
:1024E0003C221995FF91EF91BF91AF919F918F91F0
:1024F0007F916F915F914F913F912F910F900BBE04
:102500000F900FBE0F901F9018951F920F920FB64D
:102510000F9211240BB60F922F933F934F935F931B
:102520006F937F938F939F93AF93BF93EF93FF939B
:10253000E0914721F0914821309729F080913D2288
:1025400090913E221995FF91EF91BF91AF919F918C
:102550008F917F916F915F914F913F912F910F904C
:102560000BBE0F900FBE0F901F9018951F920F92E9
:102570000FB60F9211240BB60F922F933F934F93E8
:102580005F936F937F938F939F93AF93BF93EF93DB
:10259000FF93E0914921F0914A21309729F08091F1
:1025A0003F22909140221995FF91EF91BF91AF91F9
:1025B0009F918F917F916F915F914F913F912F915B
:1025C0000F900BBE0F900FBE0F901F9018951F928B
:1025D0000F920FB60F9211240BB60F922F933F93C9
:1025E0004F935F936F937F938F939F93AF93BF931B
:1025F000EF93FF93E0914B21F0914C21309729F01C
:1026000080914122909142221995FF91EF91BF91C3
:10261000AF919F918F917F916F915F914F913F917A
:102620002F910F900BBE0F900FBE0F901F9018951B
:102630001F920F920FB60F9211240BB60F922F9389
:102640003F934F935F936F937F938F939F93AF933A
:10265000BF93EF93FF93E0914D21F0914E2130977E
:1026600029F080914322909144221995FF91EF9196
:10267000BF91AF919F918F917F916F915F914F919A
:102680003F912F910F900BBE0F900FBE0F901F9098
:1026900018951F920F920FB60F9211240BB60F923E
:1026A0002F933F934F935F936F937F938F939F935A
:1026B000AF93BF93EF93FF93E0914F21F09150219F
:1026C000309729F080914522909146221995FF91EB
:1026D000EF91BF91AF919F918F917F916F915F919A
:1026E0004F913F912F910F900BBE0F900FBE0F9007
:1026F0001F9018951F920F920FB60F9211240BB6D0
:102700000F922F933F934F935F936F937F938F938A
:102710009F93AF93BF93EF93FF93E0915121F0917B
:102720005221309729F080914722909148221995A3
:10273000FF91EF91BF91AF919F918F917F916F9199
:102740005F914F913F912F910F900BBE0F900FBE55
:102750000F901F9018951F920F920FB60F92112491
:102760000BB60F922F933F934F935F936F937F938B
:102770008F939F93AF93BF93EF93FF93E091532178
:10278000F0915421309729F08091492290914A226A
:102790001995FF91EF91BF91AF919F918F917F918B
:1027A0006F915F914F913F912F910F900BBE0F90C2
:1027B0000FBE0F901F9018951F920F920FB60F9299
:1027C00011240BB60F922F933F934F935F936F9308
:1027D0007F938F939F93AF93BF93EF93FF93E0917A
:1027E0005521F0915621309729F080914B229091FC
:1027F0004C221995FF91EF91BF91AF919F918F91CD
:102800007F916F915F914F913F912F910F900BBEF0
:102810000F900FBE0F901F9018951F920F920FB63A
:102820000F9211240BB60F922F933F934F935F9308
:102830006F937F938F939F93AF93BF93EF93FF9388
:10284000E0915721F0915821309729F080914D2245
:1028500090914E221995FF91EF91BF91AF919F9169
:102860008F917F916F915F914F913F912F910F9039
:102870000BBE0F900FBE0F901F9018951F920F92D6
:102880000FB60F9211240BB60F922F933F934F93D5
:102890005F936F937F938F939F93AF93BF93EF93C8
:1028A000FF93E0915921F0915A21309729F08091BE
:1028B0004F22909150221995FF91EF91BF91AF91C6
:1028C0009F918F917F916F915F914F913F912F9148
:1028D0000F900BBE0F900FBE0F901F9018951F9278
:1028E0000F920FB60F9211240BB60F922F933F93B6
:1028F0004F935F936F937F938F939F93AF93BF9308
:10290000EF93FF93E0915B21F0915C21309729F0E8
:1029100080915122909152221995FF91EF91BF9190
:10292000AF919F918F917F916F915F914F913F9167
:102930002F910F900BBE0F900FBE0F901F90189508
:102940001F920F920FB60F9211240BB60F922F9376
:102950003F934F935F936F937F938F939F93AF9327
:10296000BF93EF93FF93E0915D21F0915E2130974B
:1029700029F080915322909154221995FF91EF9163
:10298000BF91AF919F918F917F916F915F914F9187
:102990003F912F910F900BBE0F900FBE0F901F9085
:1029A00018951F920F920FB60F9211240BB60F922B
:1029B0002F933F934F935F936F937F938F939F9347
:1029C000AF93BF93EF93FF93E0915F21F09160216C
:1029D000309729F080915522909156221995FF91B8
:1029E000EF91BF91AF919F918F917F916F915F9187
:1029F0004F913F912F910F900BBE0F900FBE0F90F4
:102A00001F9018951F920F920FB60F9211240BB6BC
:102A10000F922F933F934F935F936F937F938F9377
:102A20009F93AF93BF93EF93FF93E0916121F09158
:102A30006221309729F08091572290915822199560
:102A4000FF91EF91BF91AF919F918F917F916F9186
:102A50005F914F913F912F910F900BBE0F900FBE42
:102A60000F901F9018951F920F920FB60F9211247E
:102A70000BB60F922F933F934F935F936F937F9378
:102A80008F939F93AF93BF93EF93FF93E091632155
:102A9000F0916421309729F08091592290915A2227
:102AA0001995FF91EF91BF91AF919F918F917F9178
:102AB0006F915F914F913F912F910F900BBE0F90AF
:102AC0000FBE0F901F9018951F920F920FB60F9286
:102AD00011240BB60F922F933F934F935F936F93F5
:102AE0007F938F939F93AF93BF93EF93FF93E09167
:102AF0006521F0916621309729F080915B229091B9
:102B00005C221995FF91EF91BF91AF919F918F91A9
:102B10007F916F915F914F913F912F910F900BBEDD
:102B20000F900FBE0F901F9018951F920F920FB627
:102B30000F9211240BB60F922F933F934F935F93F5
:102B40006F937F938F939F93AF93BF93EF93FF9375
:102B5000E0916721F0916821309729F080915D2202
:102B600090915E221995FF91EF91BF91AF919F9146
:102B70008F917F916F915F914F913F912F910F9026
:102B80000BBE0F900FBE0F901F9018951F920F92C3
:102B90000FB60F9211240BB60F922F933F934F93C2
:102BA0005F936F937F938F939F93AF93BF93EF93B5
:102BB000FF93E0916921F0916A21309729F080918B
:102BC0005F22909160221995FF91EF91BF91AF9193
:102BD0009F918F917F916F915F914F913F912F9135
:102BE0000F900BBE0F900FBE0F901F9018951F9265
:102BF0000F920FB60F9211240BB60F922F933F93A3
:102C00004F935F936F937F938F939F93AF93BF93F4
:102C1000EF93FF93E0916B21F0916C21309729F0B5
:102C200080916122909162221995FF91EF91BF915D
:102C3000AF919F918F917F916F915F914F913F9154
:102C40002F910F900BBE0F900FBE0F901F901895F5
:102C50001F920F920FB60F9211240BB60F922F9363
:102C60003F934F935F936F937F938F939F93AF9314
:102C7000BF93EF93FF93E0916D21F0916E21309718
:102C800029F080916322909164221995FF91EF9130
:102C9000BF91AF919F918F917F916F915F914F9174
:102CA0003F912F910F900BBE0F900FBE0F901F9072
:102CB00018951F920F920FB60F9211240BB60F9218
:102CC0002F933F934F935F936F937F938F939F9334
:102CD000AF93BF93EF93FF93E0916F21F091702139
:102CE000309729F080916522909166221995FF9185
:102CF000EF91BF91AF919F918F917F916F915F9174
:102D00004F913F912F910F900BBE0F900FBE0F90E0
:102D10001F9018951F920F920FB60F9211240BB6A9
:102D20000F922F933F934F935F936F937F938F9364
:102D30009F93AF93BF93EF93FF93E0917121F09135
:102D40007221309729F0809167229091682219951D
:102D5000FF91EF91BF91AF919F918F917F916F9173
:102D60005F914F913F912F910F900BBE0F900FBE2F
:102D70000F901F9018951F920F920FB60F9211246B
:102D80000BB60F922F933F934F935F936F937F9365
:102D90008F939F93AF93BF93EF93FF93E091732132
:102DA000F0917421309729F08091692290916A22E4
:102DB0001995FF91EF91BF91AF919F918F917F9165
:102DC0006F915F914F913F912F910F900BBE0F909C
:102DD0000FBE0F901F9018951F920F920FB60F9273
:102DE00011240BB60F922F933F934F935F936F93E2
:102DF0007F938F939F93AF93BF93EF93FF93E09154
:102E00007521F0917621309729F080916B22909175
:102E10006C221995FF91EF91BF91AF919F918F9186
:102E20007F916F915F914F913F912F910F900BBECA
:102E30000F900FBE0F901F9018951F920F920FB614
:102E40000F9211240BB60F922F933F934F935F93E2
:102E50006F937F938F939F93AF93BF93EF93FF9362
:102E6000E0917721F0917821309729F080916D22BF
:102E700090916E221995FF91EF91BF91AF919F9123
:102E80008F917F916F915F914F913F912F910F9013
:102E90000BBE0F900FBE0F901F9018951F920F92B0
:102EA0000FB60F9211240BB60F922F933F934F93AF
:102EB0005F936F937F938F939F93AF93BF93EF93A2
:102EC000FF93E0917921F0917A21309729F0809158
:102ED0006F22909170221995FF91EF91BF91AF9160
:102EE0009F918F917F916F915F914F913F912F9122
:102EF0000F900BBE0F900FBE0F901F9018951F9252
:102F00000F920FB60F9211240BB60F922F933F938F
:102F10004F935F936F937F938F939F93AF93BF93E1
:102F2000EF93FF93E0917B21F0917C21309729F082
:102F300080917122909172221995FF91EF91BF912A
:102F4000AF919F918F917F916F915F914F913F9141
:102F50002F910F900BBE0F900FBE0F901F901895E2
:102F60001F920F920FB60F9211240BB60F922F9350
:102F70003F934F935F936F937F938F939F93AF9301
:102F8000BF93EF93FF93E0917D21F0917E213097E5
:102F900029F080917322909174221995FF91EF91FD
:102FA000BF91AF919F918F917F916F915F914F9161
:102FB0003F912F910F900BBE0F900FBE0F901F905F
:102FC00018951F920F920FB60F9211240BB60F9205
:102FD0002F933F934F935F936F937F938F939F9321
:102FE000AF93BF93EF93FF93E0917F21F091802106
:102FF000309729F080917522909176221995FF9152
:10300000EF91BF91AF919F918F917F916F915F9160
:103010004F913F912F910F900BBE0F900FBE0F90CD
:103020001F9018951F920F920FB60F9211240BB696
:103030000F922F933F934F935F936F937F938F9351
:103040009F93AF93BF93EF93FF93E0918121F09112
:103050008221309729F080917722909178221995DA
:10306000FF91EF91BF91AF919F918F917F916F9160
:103070005F914F913F912F910F900BBE0F900FBE1C
:103080000F901F9018951F920F920FB60F92112458
:103090000BB60F922F933F934F935F936F937F9352
:1030A0008F939F93AF93BF93EF93FF93E09183210F
:1030B000F0918421309729F08091792290917A22A1
:1030C0001995FF91EF91BF91AF919F918F917F9152
:1030D0006F915F914F913F912F910F900BBE0F9089
:1030E0000FBE0F901F9018951F920F920FB60F9260
:1030F00011240BB60F922F933F934F935F936F93CF
:103100007F938F939F93AF93BF93EF93FF93E09140
:103110008521F0918621309729F080917B22909132
:103120007C221995FF91EF91BF91AF919F918F9163
:103130007F916F915F914F913F912F910F900BBEB7
:103140000F900FBE0F901F9018951F920F920FB601
:103150000F9211240BB60F922F933F934F935F93CF
:103160006F937F938F939F93AF93BF93EF93FF934F
:10317000E0918721F0918821309729F080917D227C
:1031800090917E221995FF91EF91BF91AF919F9100
:103190008F917F916F915F914F913F912F910F9000
:1031A0000BBE0F900FBE0F901F9018951F920F929D
:1031B0000FB60F9211240BB60F922F933F934F939C
:1031C0005F936F937F938F939F93AF93BF93EF938F
:1031D000FF93E0918921F0918A21309729F0809125
:1031E0007F22909180221995FF91EF91BF91AF912D
:1031F0009F918F917F916F915F914F913F912F910F
:103200000F900BBE0F900FBE0F901F9018951F923E
:103210000F920FB60F9211240BB60F922F933F937C
:103220004F935F936F937F938F939F93AF93BF93CE
:10323000EF93FF93E0918B21F0918C21309729F04F
:1032400080918122909182221995FF91EF91BF91F7
:10325000AF919F918F917F916F915F914F913F912E
:103260002F910F900BBE0F900FBE0F901F901895CF
:103270001F920F920FB60F9211240BB60F922F933D
:103280003F934F935F936F937F938F939F93AF93EE
:10329000BF93EF93FF93E0918D21F0918E213097B2
:1032A00029F080918322909184221995FF91EF91CA
:1032B000BF91AF919F918F917F916F915F914F914E
:1032C0003F912F910F900BBE0F900FBE0F901F904C
:1032D00018951F920F920FB60F9211240BB60F92F2
:1032E0002F933F934F935F936F937F938F939F930E
:1032F000AF93BF93EF93FF93E0918F21F0919021D3
:10330000309729F080918522909186221995FF911E
:10331000EF91BF91AF919F918F917F916F915F914D
:103320004F913F912F910F900BBE0F900FBE0F90BA
:103330001F9018951F920F920FB60F9211240BB683
:103340000F922F933F934F935F936F937F938F933E
:103350009F93AF93BF93EF93FF93E0919121F091EF
:103360009221309729F08091872290918822199597
:10337000FF91EF91BF91AF919F918F917F916F914D
:103380005F914F913F912F910F900BBE0F900FBE09
:103390000F901F9018951F920F920FB60F92112445
:1033A0000BB60F922F933F934F935F936F937F933F
:1033B0008F939F93AF93BF93EF93FF93E0919321EC
:1033C000F0919421309729F08091892290918A225E
:1033D0001995FF91EF91BF91AF919F918F917F913F
:1033E0006F915F914F913F912F910F900BBE0F9076
:1033F0000FBE0F901F9018951F920F920FB60F924D
:1034000011240BB60F922F933F934F935F936F93BB
:103410007F938F939F93AF93BF93EF93FF93E0912D
:103420009521F0919621309729F080918B229091EF
:103430008C221995FF91EF91BF91AF919F918F9140
:103440007F916F915F914F913F912F910F900BBEA4
:103450000F900FBE0F901F9018951F920F920FB6EE
:103460000F9211240BB60F922F933F934F935F93BC
:103470006F937F938F939F93AF93BF93EF93FF933C
:10348000E0919721F0919821309729F080918D2239
:1034900090918E221995FF91EF91BF91AF919F91DD
:1034A0008F917F916F915F914F913F912F910F90ED
:1034B0000BBE0F900FBE0F901F9018951F920F928A
:1034C0000FB60F9211240BB60F922F933F934F9389
:1034D0005F936F937F938F939F93AF93BF93EF937C
:1034E000FF93E0919921F0919A21309729F08091F2
:1034F0008F22909190221995FF91EF91BF91AF91FA
:103500009F918F917F916F915F914F913F912F91FB
:103510000F900BBE0F900FBE0F901F9018951F922B
:103520000F920FB60F9211240BB60F922F933F9369
:103530004F935F936F937F938F939F93AF93BF93BB
:10354000EF93FF93E0919F21F091A021309729F014
:1035500080919522909196221995FF91EF91BF91BC
:10356000AF919F918F917F916F915F914F913F911B
:103570002F910F900BBE0F900FBE0F901F901895BC
:103580001F920F920FB60F9211240BB60F922F932A
:103590003F934F935F936F937F938F939F93AF93DB
:1035A000BF93EF93FF93E091A121F091A221309777
:1035B00029F080919722909198221995FF91EF918F
:1035C000BF91AF919F918F917F916F915F914F913B
:1035D0003F912F910F900BBE0F900FBE0F901F9039
:1035E00018951F920F920FB60F9211240BB60F92DF
:1035F0002F933F934F935F936F937F938F939F93FB
:10360000AF93BF93EF93FF93E091A321F091A42197
:10361000309729F08091992290919A221995FF91E3
:10362000EF91BF91AF919F918F917F916F915F913A
:103630004F913F912F910F900BBE0F900FBE0F90A7
:103640001F9018951F920F920FB60F9211240BB670
:103650000F922F933F934F935F936F937F938F932B
:103660009F93AF93BF93EF93FF93E091A521F091C8
:10367000A621309729F080919B2290919C22199548
:10368000FF91EF91BF91AF919F918F917F916F913A
:103690005F914F913F912F910F900BBE0F900FBEF6
:1036A0000F901F9018951F920F920FB60F92112432
:1036B0000BB60F922F933F934F935F936F937F932C
:1036C0008F939F93AF93BF93EF93FF93E091A721C5
:1036D000F091A821309729F080919D2290919E220F
:1036E0001995FF91EF91BF91AF919F918F917F912C
:1036F0006F915F914F913F912F910F900BBE0F9063
:103700000FBE0F901F9018951F920F920FB60F9239
:1037100011240BB60F922F933F934F935F936F93A8
:103720007F938F939F93AF93BF93EF93FF93E0911A
:10373000A921F091AA21309729F080919F229091A0
:10374000A0221995FF91EF91BF91AF919F918F9119
:103750007F916F915F914F913F912F910F900BBE91
:103760000F900FBE0F901F9018951F920F920FB6DB
:103770000F9211240BB60F922F933F934F935F93A9
:103780006F937F938F939F93AF93BF93EF93FF9329
:10379000E091AB21F091AC21309729F08091A122EA
:1037A0009091A2221995FF91EF91BF91AF919F91B6
:1037B0008F917F916F915F914F913F912F910F90DA
:1037C0000BBE0F900FBE0F901F9018951F920F9277
:1037D0000FB60F9211240BB60F922F933F934F9376
:1037E0005F936F937F938F939F93AF93BF93EF9369
:1037F000FF93E091AD21F091AE21309729F08091B7
:10380000A3229091A4221995FF91EF91BF91AF91BE
:103810009F918F917F916F915F914F913F912F91E8
:103820000F900BBE0F900FBE0F901F9018951F9218
:103830000F920FB60F9211240BB60F922F933F9356
:103840004F935F936F937F938F939F93AF93BF93A8
:10385000EF93FF93E091AF21F091B021309729F0E1
:103860008091A5229091A6221995FF91EF91BF9189
:10387000AF919F918F917F916F915F914F913F9108
:103880002F910F900BBE0F900FBE0F901F901895A9
:103890001F920F920FB60F9211240BB60F922F9317
:1038A0003F934F935F936F937F938F939F93AF93C8
:1038B000BF93EF93FF93E091B121F091B221309744
:1038C00029F08091A7229091A8221995FF91EF915C
:1038D000BF91AF919F918F917F916F915F914F9128
:1038E0003F912F910F900BBE0F900FBE0F901F9026
:1038F00018951F920F920FB60F9211240BB60F92CC
:103900002F933F934F935F936F937F938F939F93E7
:10391000AF93BF93EF93FF93E091B321F091B42164
:10392000309729F08091A9229091AA221995FF91B0
:10393000EF91BF91AF919F918F917F916F915F9127
:103940004F913F912F910F900BBE0F900FBE0F9094
:103950001F9018951F920F920FB60F9211240BB65D
:103960000F922F933F934F935F936F937F938F9318
:103970009F93AF93BF93EF93FF93E091B521F091A5
:10398000B621309729F08091AB229091AC22199505
:10399000FF91EF91BF91AF919F918F917F916F9127
:1039A0005F914F913F912F910F900BBE0F900FBEE3
:1039B0000F901F9018951F920F920FB60F9211241F
:1039C0000BB60F922F933F934F935F936F937F9319
:1039D0008F939F93AF93BF93EF93FF93E091B721A2
:1039E000F091B821309729F08091AD229091AE22CC
:1039F0001995FF91EF91BF91AF919F918F917F9119
:103A00006F915F914F913F912F910F900BBE0F904F
:103A10000FBE0F901F9018951F920F920FB60F9226
:103A200011240BB60F922F933F934F935F936F9395
:103A30007F938F939F93AF93BF93EF93FF93E09107
:103A4000B921F091BA21309729F08091AF2290915D
:103A5000B0221995FF91EF91BF91AF919F918F91F6
:103A60007F916F915F914F913F912F910F900BBE7E
:103A70000F900FBE0F901F9018951F920F920FB6C8
:103A80000F9211240BB60F922F933F934F935F9396
:103A90006F937F938F939F93AF93BF93EF93FF9316
:103AA000E091BB21F091BC21309729F08091B122A7
:103AB0009091B2221995FF91EF91BF91AF919F9193
:103AC0008F917F916F915F914F913F912F910F90C7
:103AD0000BBE0F900FBE0F901F9018951F920F9264
:103AE0000FB60F9211240BB60F922F933F934F9363
:103AF0005F936F937F938F939F93AF93BF93EF9356
:103B0000FF93E091BD21F091BE21309729F0809183
:103B1000B3229091B4221995FF91EF91BF91AF918B
:103B20009F918F917F916F915F914F913F912F91D5
:103B30000F900BBE0F900FBE0F901F9018951F9205
:103B40000F920FB60F9211240BB60F922F933F9343
:103B50004F935F936F937F938F939F93AF93BF9395
:103B6000EF93FF93E091BF21F091C021309729F0AE
:103B70008091B5229091B6221995FF91EF91BF9156
:103B8000AF919F918F917F916F915F914F913F91F5
:103B90002F910F900BBE0F900FBE0F901F90189596
:103BA0001F920F920FB60F9211240BB60F922F9304
:103BB0003F934F935F936F937F938F939F93AF93B5
:103BC000BF93EF93FF93E091D521F091D6213097E9
:103BD00029F08091CB229091CC221995FF91EF9101
:103BE000BF91AF919F918F917F916F915F914F9115
:103BF0003F912F910F900BBE0F900FBE0F901F9013
:103C000018951F920F920FB60F9211240BB60F92B8
:103C10002F933F934F935F936F937F938F939F93D4
:103C2000AF93BF93EF93FF93E091D721F091D82109
:103C3000309729F08091CD229091CE221995FF9155
:103C4000EF91BF91AF919F918F917F916F915F9114
:103C50004F913F912F910F900BBE0F900FBE0F9081
:103C60001F9018951F920F920FB60F9211240BB64A
:103C70000F922F933F934F935F936F937F938F9305
:103C80009F93AF93BF93EF93FF93E091DD21F0916A
:103C9000DE21309729F08091D3229091D42219957A
:103CA000FF91EF91BF91AF919F918F917F916F9114
:103CB0005F914F913F912F910F900BBE0F900FBED0
:103CC0000F901F9018951F920F920FB60F9211240C
:103CD0000BB60F922F933F934F935F936F937F9306
:103CE0008F939F93AF93BF93EF93FF93E091DF2167
:103CF000F091E021309729F08091D5229091D62241
:103D00001995FF91EF91BF91AF919F918F917F9105
:103D10006F915F914F913F912F910F900BBE0F903C
:103D20000FBE0F901F9018951F920F920FB60F9213
:103D300011240BB60F922F933F934F935F936F9382
:103D40007F938F939F93AF93BF93EF93FF93E091F4
:103D5000E121F091E221309729F08091D7229091D2
:103D6000D8221995FF91EF91BF91AF919F918F91BB
:103D70007F916F915F914F913F912F910F900BBE6B
:103D80000F900FBE0F901F9018951F920F920FB6B5
:103D90000F9211240BB60F922F933F934F935F9383
:103DA0006F937F938F939F93AF93BF93EF93FF9303
:103DB000E091E321F091E421309729F08091D9221C
:103DC0009091DA221995FF91EF91BF91AF919F9158
:103DD0008F917F916F915F914F913F912F910F90B4
:103DE0000BBE0F900FBE0F901F9018951F920F9251
:103DF0000FB60F9211240BB60F922F933F934F9350
:103E00005F936F937F938F939F93AF93BF93EF9342
:103E1000FF93E091E521F091E621309729F0809120
:103E2000DB229091DC221995FF91EF91BF91AF9128
:103E30009F918F917F916F915F914F913F912F91C2
:103E40000F900BBE0F900FBE0F901F9018951F92F2
:103E50000F920FB60F9211240BB60F922F933F9330
:103E60004F935F936F937F938F939F93AF93BF9382
:103E7000EF93FF93E091E721F091E821309729F04B
:103E80008091DD229091DE221995FF91EF91BF91F3
:103E9000AF919F918F917F916F915F914F913F91E2
:103EA0002F910F900BBE0F900FBE0F901F90189583
:103EB0001F920F920FB60F9211240BB60F922F93F1
:103EC0003F934F935F936F937F938F939F93AF93A2
:103ED000BF93EF93FF93E091F321F091F42130979A
:103EE00029F08091E9229091EA221995FF91EF91B2
:103EF000BF91AF919F918F917F916F915F914F9102
:103F00003F912F910F900BBE0F900FBE0F901F90FF
:103F100018951F920F920FB60F9211240BB60F92A5
:103F20002F933F934F935F936F937F938F939F93C1
:103F3000AF93BF93EF93FF93E091F521F091F621BA
:103F4000309729F08091EB229091EC221995FF9106
:103F5000EF91BF91AF919F918F917F916F915F9101
:103F60004F913F912F910F900BBE0F900FBE0F906E
:103F70001F9018951F920F920FB60F9211240BB637
:103F80000F922F933F934F935F936F937F938F93F2
:103F90009F93AF93BF93EF93FF93E091F721F0913D
:103FA000F821309729F08091ED229091EE22199519
:103FB000FF91EF91BF91AF919F918F917F916F9101
:103FC0005F914F913F912F910F900BBE0F900FBEBD
:103FD0000F901F9018950E944804FDCF86E893E249
:103FE0000E94F60B84E893E20E94A1038BE693E221
:103FF0000E9429228AE693E20E94B50389E693E2B1
:104000000E94A30A8FE393E20E947F0587E393E275
:104010000E941F02089587E393E20E9420028FE32B
:1040200093E20E94850589E693E20E94A40A8AE64B
:1040300093E20E94B6038BE693E20E947E2284E81C
:1040400093E20E94AD0386E893E20E94F70B089585
:10405000EF920F931F93F8948AE693E20E94B703BE
:1040600089E693E20E94140B0F2EF3E0EF2EF02D61
:1040700000E023E040E061E086E893E20E94F80B74
:1040800001E020E040E06DE084E893E20E94250337
:1040900000E011E020E031E04FE353E264E873E236
:1040A0008BE693E20E942F226BE673E28FE393E2AA
:1040B0000E9440068AE693E20E94EB0340E051E052
:1040C0006BE673E287E393E20E94210278941F91EA
:1040D0000F91EF900895CF93DF93CDB7DEB72E9772
:1040E000CDBFDEBF87E0E9E4F0E2DE011896019083
:1040F0000D928A95E1F787E0E0E5F0E2DE011196A6
:1041000001900D928A95E1F71092F3221092F42219
:1041100020E030E046E050E0BE01685F7F4F85EF71
:1041200092E20E94530520E030E046E050E0BE01FC
:104130006F5F7F4F85E193E20E9453051092352314
:10414000109236230E942820812C912C0F2E212C96
:10415000312CF0E94F2E512CF02D0F2EF3EFAF2E16
:10416000F2E2BF2EF02D6A2C7B2C00E010E4A201BD
:10417000910160E071E087E393E20E942D0220E468
:10418000320E411C511CC12CD12C7601C4018C0D66
:104190009D1DF50180839183FFEFCF1ADF0AEF0A9F
:1041A000FF0A7C2D662724E430E0462D572D8BE650
:1041B00093E20E94862220E4C216D104E104F104B5
:1041C00029F787E393E20E94F70280E4880E911CAE
:1041D0002114310494E94906510439F6EFEFFFE464
:1041E00023ECE150F0402040E1F700C000008FE3F5
:1041F00093E20E948D0518EC8FE39FE10197F1F7A0
:1042000000C000004091F1225091F222CA010196B3
:104210008093F1229093F2229A0136952795369554
:10422000279536952795ABE7B4E10E94BD24969576
:104230008795189F9001199F300D1124421753073D
:10424000D9F68FE393E20E947506D6CFCF93DF9322
:10425000EC01EC81FD818AEA8083EC81FD818CECAC
:104260008183EC81FD8182E0820F8283EC81FD817C
:1042700080E88383EC81FD81648385E0820F8987F8
:1042800030E02115310581F0DA01420F531F65E05E
:1042900070E09D91EC81FD81E60FF71F90836F5FC9
:1042A0007F4FA417B507A9F7DF91CF910895FC01BF
:1042B000A481B5818AEA8C93A481B5818CEC119696
:1042C0008C93A481B58183E012968C93A481B581EF
:1042D00081E813968C93A481B58114966C93A48184
:1042E000B58115964C9386E0818708950F931F93AF
:1042F000CF93DF93DC011496ED91FC911597AAEA18
:10430000A083EC01EC81FD81ACECA183EC81FD810B
:10431000A3E0A20FA283EC81FD81A2E8A383EC813C
:10432000FD817483EC81FD81658366E0620F69879E
:104330003695279521153105E1F0E42FF52F2D5FF6
:104340003F4F220F331F46E050E0EC01AC81BD81AE
:10435000A40FB51F61816C93AC81BD81A40FB51F03
:104360006081329611966C934E5F5F4F42175307F0
:1043700061F7DF91CF911F910F910895FC01A48106
:10438000B5818AEA8C93A481B5818CEC11968C93CB
:10439000A481B58184E012968C93A481B58183E8D1
:1043A00013968C93A481B58114967C93A481B581D6
:1043B00015966C93A481B58116964C9387E08187FE
:1043C00008950F931F93CF93DF93EC01CB018A01E4
:1043D0006F8378874A875B870E94EE248A839B835A
:1043E000C8010E94EE248C839D8319861E82DF9172
:1043F000CF911F910F910895CF93DF93EC018A81A4
:104400009B810E9483258C819D810E948325DF9161
:10441000CF9108950895DC0157968D919C915897FE
:10442000009739F0DC01ED91FC910280F381E02DE1
:1044300019950895DC0157968D919C915897009796
:1044400039F0DC01ED91FC910480F581E02D1995A6
:1044500008952EEE30E2FC01208331830895CF923F
:10446000DF92EF92FF920F931F93CF93DF93EC01B4
:104470007B016A01C9012F8338870A871B870E9445
:10448000EE248A839B83C8010E94EE248C839D8343
:104490001D8A19861F861E82188A198A1A8A1B8A03
:1044A00087E08E8782E08C8B1E8AEC86FD86D701A2
:1044B000ED91FC910484F585E02D45E753E2BE01C2
:1044C000C7011995D701ED91FC910684F785E02D80
:1044D0004AED53E2BE01C7011995C114D10419F088
:1044E000CF8AD88E02C0CF8BD88FDF91CF911F910A
:1044F0000F91FF90EF90DF90CF9008952EEE30E275
:10450000FC01208331830E940A2208950F931F9398
:10451000CF93DF93EC01E881F9810684F785E02DE4
:1045200019958985882311F100E010E08C859D851F
:10453000DC01ED91FC910284F385E02D1995811148
:10454000F5CF8C859D85DC01ED91FC91AC81BD8121
:10455000A00FB11F0480F581E02D6C9119950F5FBC
:104560001F4F898590E00817190700F3DF91CF915D
:104570001F910F910895CF93DF93EC01962F4E85F5
:1045800050E04B30510508F0ADC0FA018827E55DD9
:10459000FE4F8F4F0C94B5249A3A19F482E08E871F
:1045A000A1C081E08E879EC09C3C19F483E08E8779
:1045B00099C081E08E8796C09E831F861A8A1B8AC7
:1045C00010928C2310928D2384E08E878BC08F8570
:1045D000EA81FB81E80FF11D90832F8530E04F8148
:1045E00058854217530718F489E08E877BC02A89C3
:1045F0003B892927922F92959227092E9695969579
:104600009025092E969590259770022E232F96952A
:1046100007949795302D29270694979530252927BB
:104620002A8B3B8B8F858F5F8F8780918C23909116
:104630008D23019680938C2390938D234F858E81BB
:10464000481350C088E08E87E881F98150E06A8184
:104650007B810190F081E02DCE0119958F89988D95
:10466000009709F43FC0DC01ED91FC914E8150E0D0
:104670006A817B810190F081E02D199533C0692F0B
:1046800070E0688B798B86E08E872CC02889398909
:10469000A901592B488B598B2A893B89421753070B
:1046A000E9F488E08E87E881F9814E8150E06A81E3
:1046B0007B810190F081E02DCE0119958F89988D35
:1046C000009781F0DC01ED91FC914E8150E06A8110
:1046D0007B810190F081E02D199504C089E08E87DF
:1046E00001C01E8ADF91CF910895CF93DF93EC0133
:1046F0008C859D85DC01ED91FC910280F381E02D9C
:104700001995682FCE010E94BB22DF91CF910895A9
:10471000FC0117861682108A118A128A138A16865D
:104720000895CF93DF93EC018C89843038F4823084
:10473000B8F5882331F08130D1F039C0853081F16E
:1047400036C081E08C8B1D8A8C859D852D89DC018E
:10475000ED91FC91AC81BD81A20FB11D0480F5816A
:10476000E02D6C9119958D898F5F8D8B20C08C8584
:104770009D852D89DC01ED91FC91AC81BD81A20F5D
:10478000B11D0480F581E02D6C9119958D898F5FA5
:104790008D8B9D89898598130AC083E08C8B07C017
:1047A0008E89882319F0CE010E9488231E8ADF910A
:1047B000CF9108950E9491230895FC0106C086853B
:1047C000893041F086858A3039F086858830B9F79E
:1047D00081E0089582E0089583E00895FC01158A40
:1047E000148A0E9491230895CF93DF93EC01E8810E
:1047F000F9810284F385E02D1995CE010E94EE2304
:10480000DF91CF910895CF93DF93EC01E881F98197
:104810000684F785E02D1995CE010E94EE23DF91E5
:10482000CF910895CF93DF93EC01E881F98104845F
:10483000F585E02D1995CE010E94EE23DF91CF91F1
:104840000895CF93DF93EC01E881F98150E000886F
:10485000F189E02D1995CE010E94EE23DF91CF91D1
:104860000895FC0106C08489843041F08489853034
:1048700039F084898330B9F781E0089582E00895A2
:1048800083E0089521E0FC01268B0E941224089504
:1048900021E0FC01268B0E94212408950F931F9391
:1048A000CF93DF938C01EB019881913869F4D801A3
:1048B000ED91FC910480F581E02D2A81AB014D5FE3
:1048C0005F4F6981C80119959881933899F4D8018F
:1048D000ED91FC912B8130E0AE014C5F5F4F69811F
:1048E00070E0762F66278A81682B0280F381E02DA5
:1048F000C8011995DF91CF911F910F9108950E94E2
:104900004E240895AA1BBB1B51E107C0AA1FBB1F61
:10491000A617B70710F0A61BB70B881F991F5A954B
:10492000A9F780959095BC01CD010895052E97FBC0
:104930001EF400940E94AD2457FD07D00E94CC24A1
:1049400007FC03D04EF40C94AD245095409530955F
:1049500021953F4F4F4F5F4F0895909580957095EB
:1049600061957F4F8F4F9F4F0895EE0FFF1F881F58
:104970008BBF0790F691E02D1994A29FB001B39FD1
:10498000C001A39F700D811D1124911DB29F700D58
:10499000811D1124911D0895A1E21A2EAA1BBB1B93
:1049A000FD010DC0AA1FBB1FEE1FFF1FA217B307FB
:1049B000E407F50720F0A21BB30BE40BF50B661F11
:1049C000771F881F991F1A9469F7609570958095D5
:1049D00090959B01AC01BD01CF010895CF93DF936A
:1049E0008230910510F482E090E0E0919023F09104
:1049F000912320E030E0C0E0D0E0309711F1408119
:104A0000518148175907C0F04817590761F482814E
:104A10009381209719F08A839B832BC080939023E6
:104A20009093912326C02115310519F042175307A1
:104A300018F49A01BE01DF01EF010280F381E02D3D
:104A4000DCCF2115310509F1281B390B2430310544
:104A500090F412968D919C9113976115710521F038
:104A6000FB018283938304C08093902390939123CE
:104A7000FD01329644C0FD01E20FF31F8193919333
:104A8000225031092D933C933AC020918E233091CE
:104A90008F23232B41F42091022030910320209377
:104AA0008E2330938F2320910020309101202115F7
:104AB000310541F42DB73EB74091042050910520B7
:104AC000241B350BE0918E23F0918F23E217F3071F
:104AD000A0F42E1B3F0B2817390778F0AC014E5F6E
:104AE0005F4F2417350748F04E0F5F1F40938E230A
:104AF00050938F238193919302C0E0E0F0E0CF01C7
:104B0000DF91CF9108950F931F93CF93DF93009779
:104B100009F48CC0FC013297128213820091902319
:104B2000109191230115110581F420813181820FAB
:104B3000931F20918E2330918F232817390779F501
:104B4000E0938E23F0938F2371C0D80140E050E0B2
:104B5000AE17BF0750F412962D913C911397AD01FB
:104B60002115310509F1D901F3CF9D01DA01228325
:104B7000338360817181860F971F8217930769F4D1
:104B8000EC0128813981260F371F2E5F3F4F20838C
:104B900031838A819B8182839383452B29F4E0931F
:104BA0009023F093912342C01296ED93FC931397B8
:104BB000ED01499159919E01240F351FE217F3072A
:104BC00071F480819181840F951F02968D939C933F
:104BD00011978281938112968D939C931397E0E0B5
:104BE000F0E0D80112968D919C911397009719F0DF
:104BF000F8018C01F6CF8D919C9198012E5F3F4F6B
:104C0000820F931F20918E2330918F23281739070D
:104C100069F4309729F4109290231092912302C0E6
:104C20001282138200938E2310938F23DF91CF91F2
:104C30001F910F910895FB01DC0102C001900D92BC
:104C400041505040D8F70895FB01DC018D9101904F
:104C500080190110D9F3990B089511E0CAEED1E043
:104C600000E006C0802FFE010E94B5242196011DA0
:0E4C7000CC3ED10780E00807A9F7F894FFCFEB
:104C7E000000922320000706050301040200030131
:104C8E00FF0200FEFFFDFEFCFDFBFDFAFCFA00FE3E
:104C9E00FAFCF9FBF9000C0C0C228A0C228A0C226D
:104CAE00890C228721831F7B1B6B0F79134B01030A
:104CBE002F134D0B2B00010500456D70747900000C
:104CCE0030303A30300000000000002503600363EE
:104CDE000366036E0375037D0386038F039803310A
:104CEE0032333400000000007204CD047304E1215D
:104CFE00FC21262157217621BE21000000001F0B2A
:104D0E003A0B470B4F0B560B5D0B620B670B6C0B85
:104D1E00710B760B880B9A0BAC0BBE0BD00B0000F5
:104D2E000000EB1FEB1FEB1FEB1FEB1FEB1FEB1F2F
:104D3E00EB1FEB1FEB1FEB1FEB1FEB1FEB1FEB1F15
:104D4E00EB1F00000000EB1FEB1FEB1FEB1FEB1F19
:104D5E00EB1FEB1FEB1FEB1FEB1F000000007F2470
:104D6E000B221A22E121FC21262157217621BE2178
:00000001FF
