S01E00004154786D656761456C656374726F706F726174696F6E2E7372656325
S11300000C94EC010C94340C0C94650C0C94960C2C
S11300100C94C70C0C94F80C0C94290D0C945A0DE8
S11300200C948B0D0C94BC0D0C94ED0D0C941E0EC5
S11300300C944F0E0C94800E0C94B10E0C94E20EA2
S11300400C94130F0C94440F0C94750F0C94A60F7E
S11300500C94D70F0C9408100C9439100C946A105B
S11300600C949B100C94CC100C94FD100C942E1139
S11300700C945F110C9490110C94C1110C94F21116
S11300800C9423120C9454120C9485120C94B612F2
S11300900C94E7120C9418130C9449130C947A13CF
S11300A00C94AB130C94DC130C940D140C943E14AC
S11300B00C946F140C94A0140C94D1140C94021589
S11300C00C9433150C9464150C9495150C94C61566
S11300D00C94F7150C9428160C9459160C948A1643
S11300E00C94BB160C94EC160C941D170C944E1720
S11300F00C947F170C94B0170C94E1170C941218FD
S11301000C9443180C9474180C94A5180C94D618D9
S11301100C9407190C9438190C9469190C949A19B5
S11301200C94CB190C94FC190C942D1A0C941D02EC
S11301300C941D020C945E1A0C948F1A0C94C01A21
S11301400C94F11A0C94221B0C94531B0C94841BD6
S11301500C94B51B0C94E61B0C94171C0C94481CB3
S11301600C94791C0C94AA1C0C94DB1C0C940C1D90
S11301700C943D1D0C946E1D0C941D020C941D02D8
S11301800C941D020C941D020C941D020C941D026F
S11301900C941D020C941D020C941D020C941D025F
S11301A00C949F1D0C94D01D0C941D020C941D02E4
S11301B00C94011E0C94321E0C94631E0C94941E19
S11301C00C94C51E0C94F61E0C941D020C941D0276
S11301D00C941D020C941D020C941D020C94271FF8
S11301E00C94581F0C94891F8A04C904C904C904B7
S11301F0C904B904C904B104C904BD04C904B504DB
S1130200C904C904C904C904C904C904C904C90482
S1130210C904BD04C9048D04C9049104C904C904F2
S11302209904A9049D04A104A5049504AD04C5047E
S1130230C904C1048106850644077307A707D907C3
S11302405C0800087B08D708000978095F091409CD
S11302509109CD099609E521E521ED21F521002239
S113026058225F228B228B228A228A220C948106B6
S11302700C940F060C9459210C94ED210C945F22DC
S11302800C94450B0C94A9040C94EE0A0C94090BE1
S11302900C94CD090C94E5210C94F3220C94BD1F0D
S11302A00C942F210C9474200C948A220C947B0BB4
S11302B00C94C4200C947D030C94C5040C94AD04DC
S11302C00C94310B0C9468210C94400B0C94CD04C9
S11302D00C94A5040C9491090C943B0B0C944A21A6
S11302E00C94F5210C9400080C9499040C94690B5B
S11302F00C9458220C94B5040C9473040C949D042F
S11303000C9414090C948D0B0C947B080C948603A8
S11303100C94C1040C94A1040C9473070C949803DA
S11303200C9466030C94A7070C9485060C948F0315
S11303300C948E220C94A5200C9495040C94B9046E
S11303400C941E0B0C9472040C946F0A0C940A0601
S11303500C945C080C94D7080C9460030C94230C44
S11303600C94BA1F0C942C0B0C94D9070C948A048B
S11303700C9475030C94C9040C948B220C944407BC
S11303800C9425030C9478090C94160B0C94360BDE
S11303900C94DA1F0C949F0B0C948D040C940C2178
S11303A00C9498230C9400090C94570B0C94BD04E2
S11303B00C94B1040C9400220C946E030C94250B41
S11303C00C9463030C9496090C9491040C945F09A7
S11303D00A06BD1F0F06DA1F11241FBECFEFCDBFC3
S11303E0DFE3DEBF00E00CBF10E2A0E0B0E2E8E82B
S11303F0FAE400E00BBF02C007900D92A23FB107E0
S1130400D9F723E2A2EFB0E201C01D92A034B207F3
S1130410E1F711E0CAEED1E000E006C0219701093E
S1130420802FFE010E94BA23C83ED10780E008074E
S1130430A9F70E943A200C9432250C9400000895E8
S11304400895FC0162837383942F852F848395839D
S1130450468357831082118208958F929F92AF92A0
S1130460BF92EF92FF920F931F93CF93DF93CDB779
S1130470DEB72A97CDBFDEBF7C018AE5898380E59C
S11304808A83852E9924AA24BB24B22FAA279927CC
S1130490882788299929AA29BB2949015A0188242E
S11304A0AA24BB24BA2CA92C982C882488299929FD
S11304B0AA29BB2949015A0188249924BB24892CDF
S11304C09A2CAB2CBB2488299929AA29BB298B8374
S11304D09C83AD83BE837627672776276F837887CF
S11304E010270127102709871A872AE0AE014F5FDA
S11304F05F4F66E5F701828193810E940D23F70126
S1130500828193810E944A232A96CDBFDEBFDF9168
S1130510CF911F910F91FF90EF90BF90AF909F905C
S11305208F9008958F929F92AF92BF92EF92FF9215
S11305300F931F93CF93DF93CDB7DEB72A97CDBF29
S1130540DEBF7C018AE5898380EA8A83852E99242B
S1130550AA24BB24B22FAA27992788278829992956
S1130560AA29BB2949015A018824AA24BB24BA2CEC
S1130570A92C982C882488299929AA29BB294901BE
S11305805A0188249924BB24892C9A2CAB2CBB2493
S113059088299929AA29BB298B839C83AD83BE838F
S11305A07627672776276F837887102701271027F8
S11305B009871A872AE0AE014F5F5F4F66E5F701AE
S11305C0828193810E940D23F701828193810E948D
S11305D04A232A96CDBFDEBFDF91CF911F910F91A1
S11305E0FF90EF90BF90AF909F908F9008950F93DE
S11305F01F93CF93DF931F92CDB7DEB78C0119827F
S113060021E0AE014F5F5F4F66E5FC01828193817B
S11306100E940D23F801828193810E944A230F9046
S1130620DF91CF911F910F910895CF93DF93EC0148
S1130630BA0188819981009719F0A9010E942025A7
S113064018821982DF91CF9108950F93E0E6F6E0C6
S113065088E0818384E08283128A138AE0EAF9E0E5
S113066084E1838388E1848384818483413019F025
S1130670423019F004C080E203C080E301C080E08E
S1130680222319F0213019F003C0877F01C088604C
S1130690011102C093E401C093E0892BE0EAF9E080
S11306A0858370E0DB01AA5DBF4D8C918683DB01FD
S11306B0AA5FBF4D8C918295807F87830F910895A7
S11306C08091A00908956093A00908958091A109DB
S11306D086FB882780F991E0892708958091A109F4
S11306E08095881F8827881F08958091A10985FB1C
S11306F0882780F991E08927089560939D2270935B
S11307009E224093A7215093A82108956093A1228B
S11307107093A2224093AB215093AC210895FB0126
S11307208BE6838380EA808789E081871286089537
S1130730FB018CE6838380EA848789E085871686BB
S11307400895CF93DF93EC010E942D0C8DE490E289
S113075088839983DF91CF9108952DE430E2FC01E1
S1130760208331830E94330C089508950895E0E4B2
S1130770F6E09FEF918388EA808B818B828B838B59
S1130780848B858B868B878B1482E0E8F6E088E087
S11307908183138A1482E0EAF6E080EC808B818BFB
S11307A0828B838B848B858B868B878B148291833E
S11307B0E0E6F6E091E19183808B848B1482E0EA99
S11307C0F0E082818160828382818260828382817F
S11307D0846082830895E0E5F0E08BEC828380817D
S11307E088608083818183FFFDCFE0E5F0E085812F
S11307F098ED94BF84EC8583808180618083E0E4FC
S1130800F0E0818194BF1182E0E5F0E0818184FF12
S1130810FDCFE0E4F0E08081887F846098ED94BFB0
S11308208083A0E5B0E08C91887F8C93828194BF13
S113083081E08283E0EBF0E084818C7F84830895FF
S113084081E080936206089580E1809362060895B2
S113085081E080936106089580E1809361060895A4
S1130860F89484E690E0E0E8F6E028E02583AFE938
S1130870BFE01197F1F700C000002683AFE9BFE0A5
S11308801197F1F700C00000019781F7789408955B
S1130890F89445E050E064E630E0E0E8F6E028E073
S11308A01CC02583AFE9BFE01197F1F700C0000039
S11308B02683AFE9BFE01197F1F700C0000001976C
S11308C081F7BFEF73EC89E0B15070408040E1F7ED
S11308D000C000004150510919F0862F932FE1CF39
S11308E0789408950895DC01633029F4FA01818134
S11308F01D968C931D971D964C911D9750E0463282
S1130900510508F046C0FA018827EC50FF4F8F4F7D
S11309100C94BA231C961C92089581E01C968C9327
S1130920089583E01C968C93089585E01C968C931F
S1130930089584E01C968C93089586E01C968C930D
S1130940089588E01C968C93089587E01C968C93F8
S1130950089589E01C968C9308958AE01C968C93E4
S113096008958CE01C968C9308958BE01C968C93D0
S113097008958DE01C968C9308958EE01C968C93BC
S1130980089580E11C968C9308958FE01C968C93B7
S1130990089581E11C968C930895CF93DF93DA0137
S11309A0ED91FC91FE27EF27FE276830710509F4CD
S11309B049C0EA01DC016930710598F462307105BF
S11309C009F46EC038F46115710501F161307105E7
S11309D031F164C06330710559F16730710569F113
S11309E05DC06D30710509F454C048F46B30710575
S11309F009F445C06C30710509F446C04FC060313C
S1130A00710569F16115714019F148C05496ED936F
S1130A10FC9355971E96ED93FC931F9741C05696F1
S1130A20ED93FC9357975096ED93FC93519738C0F0
S1130A305896ED93FC93599733C09496ED93FC9399
S1130A4095972EC0DC019696ED93FC93979728C05A
S1130A5060E071E085EE92E20E94150321C02881D6
S1130A605A962C935A9729815B962C935B972A81EB
S1130A705C962C935C972B815D962C9311C05E96AB
S1130A80ED93FC935F970CC09096ED93FC93919734
S1130A9007C09296ED93FC93939702C00E94300492
S1130AA0DF91CF9108952AE630E2FC01208331835F
S1130AB008952AE630E2FC01208331830E94582104
S1130AC008950F931F93CF93DF93CDB7DEB7289785
S1130AD0CDBFDEBF8C0180E091E08F83988722E058
S1130AE0AE01495F5F4F63E0F80180A591A50E94C4
S1130AF00D23F80180A591A50E944A23A8014C5E0C
S1130B005F4F22E030E060E070E0F80180A591A53D
S1130B100E941C23F80180A591A50E944A23A801E4
S1130B204A5E5F4F22E030E061E070E0F80180A5AA
S1130B3091A50E941C23F80180A591A50E944A2337
S1130B40A8014E5E5F4F22E030E062E070E0F80101
S1130B5080A591A50E941C23F80180A591A50E945F
S1130B604A23A801485E5F4F22E030E063E070E072
S1130B70F80180A591A50E941C23F80180A591A5E8
S1130B800E944A231D821E828BE090E08B839C830B
S1130B9087E190E089839A8322E030E0AE014B5FE5
S1130BA05F4F64E070E0F80180A591A50E941C23CA
S1130BB0F80180A591A50E944A2322E030E0AE010D
S1130BC04D5F5F4F65E070E0F80180A591A50E943C
S1130BD01C23F80180A591A50E944A2322E030E05D
S1130BE0AE014F5F5F4F66E070E0F80180A591A50C
S1130BF00E941C23F80180A591A50E944A2381E04C
S1130C00F80184872896CDBFDEBFDF91CF911F9175
S1130C100F91089584EF90E20E94B10B089584EF40
S1130C2090E20E94BD0B0895CF93DF93EC0168A777
S1130C3079A746E060E084EF90E20E94EE0A68EA59
S1130C4071E684EF90E20E942C0B21E0AE016FE686
S1130C507AE084EF90E20E94450B1D8681E090E0EB
S1130C608C8B9D8B8EE190E08E8B9F8B1A8A1B8AD6
S1130C708C899D898E879F878E899F89888B998B84
S1130C80188E198E1CA21DA21EA21FA2DF91CF9145
S1130C9008950F931F93CF93DF93CDB7DEB72897B3
S1130CA0CDBFDEBF8C0142E063E0FC0180A591A5CD
S1130CB00E945B23F80180A591A50E944A23F801B4
S1130CC080A591A50E94F622FFEF21EE84E0F15069
S1130CD020408040E1F700C000001D821E821B827C
S1130CE01C8219821A82F801848590E08131910571
S1130CF008F053C3FC018827E65EFE4F8F4F0C9427
S1130D00BA23C8010E94610561C342E060E070E05B
S1130D10F80180A591A50E946123F80180A591A501
S1130D200E944A23F80180A591A50E94F622FFEFB4
S1130D3021EE84E0F15020408040E1F700C0000043
S1130D4042E061E070E0F80180A591A50E94612372
S1130D50F80180A591A50E944A23F80180A591A5D8
S1130D600E94F622FFEF21EE84E0F1502040804003
S1130D70E1F700C0000042E063E070E0F80180A504
S1130D8091A50E946123F80180A591A50E944A23A0
S1130D90F80180A591A50E94F622FFEF21EE84E0E0
S1130DA0F15020408040E1F700C00000F801808D40
S1130DB0918D42E2489F9001499F300D1124369550
S1130DC0279536952795ABE7B4E10E94C223969503
S1130DD087958093F2209093F3208C30910518F03E
S1130DE03CE020E002C0382F292F3D832E839C0154
S1130DF08B30910510F42BE030E02831310510F0F0
S1130E0028E130E02B833C838731910510F487E19E
S1130E1090E08232910510F082E290E089839A8317
S1130E2022E030E0AE014B5F5F4F64E070E0F80118
S1130E3080A591A50E941C23F80180A591A50E947C
S1130E404A2322E030E0AE014D5F5F4F65E070E081
S1130E50F80180A591A50E941C23F80180A591A505
S1130E600E944A2322E030E0AE014F5F5F4F66E00C
S1130E7070E0F80180A591A50E941C23F80180A5CB
S1130E8091A50E944A23A2C28091472090914820B4
S1130E9001968A30910528F4809347209093482046
S1130EA009C089E090E0809347209093482083E034
S1130EB0F8018487809147209091482098278927BA
S1130EC098278F83988722E0AE01495F5F4F63E0E4
S1130ED0F80180A591A50E940D23F80180A591A594
S1130EE00E944A2373C2A801425F5F4F22E030E0B0
S1130EF060E070E0F80180A591A50E941C23F80130
S1130F0080A591A50E944A23A801405F5F4F22E07B
S1130F1030E061E070E0F80180A591A50E941C23F7
S1130F20F80180A591A50E944A23A8014E5E5F4F57
S1130F3022E030E062E070E0F80180A591A50E9413
S1130F401C23F80180A591A50E944A233FC285E095
S1130F5090E0809347209093482080E099E18F832C
S1130F60988722E0AE01495F5F4F63E0F80180A5F6
S1130F7091A50E940D23F80180A591A50E944A2302
S1130F80F801848995898687978786899789808BD4
S1130F90918B128A138A68EA71E684EF90E20E94C8
S1130FA0090B88E193E20E94200483E0F80184871E
S1130FB00DC285E090E0809347209093482080E024
S1130FC099E18F83988722E0AE01495F5F4F63E028
S1130FD0F80180A591A50E940D23F80180A591A593
S1130FE00E944A2368EA71E684EF90E20E94090BAA
S1130FF088E193E20E94200483E0F8018487E6C13B
S113100080E097E18F83988722E0AE01495F5F4FCC
S113101063E0F80180A591A50E940D23F80180A545
S113102091A50E944A2384EF90E20E94160B88E166
S113103093E20E942804A8014C5E5F4F22E030E056
S113104060E070E0F80180A591A50E941C23F801DE
S113105080A591A50E944A23A8014A5E5F4F22E021
S113106030E061E070E0F80180A591A50E941C23A6
S1131070F80180A591A50E944A23A8014E5E5F4F06
S113108022E030E062E070E0F80180A591A50E94C2
S11310901C23F80180A591A50E944A23F8018489A4
S11310A095898687978786899789808B918B128A01
S11310B0138A81E084878AC180E09AE18F839887CC
S11310C022E0AE01495F5F4F63E0F80180A591A57E
S11310D00E940D23F80180A591A50E944A2384EF64
S11310E090E20E94160B88E193E20E94280483E0B8
S11310F0F80184876BC180E099E18F83988722E0AF
S1131100AE01495F5F4F63E0F80180A591A50E949D
S11311100D23F80180A591A50E944A23F801848932
S113112095898687978786899789808B918B128A80
S1131130138A84EF90E20E94160B21E042E350E010
S113114068EE73E087E193E20E94910A87E193E2FB
S11311500E94C50AFFEF21EE84E0F1502040804058
S1131160E1F700C0000021E042E350E068EE73E0E4
S113117087E193E20E94910A87E193E20E94C50A03
S11311809FEFE1EEF4E09150E040F040E1F700C061
S1131190000068EA71E684EF90E20E94090B88E19E
S11311A093E20E94200483E0F80184870FC180E069
S11311B097E18F83988722E0AE01495F5F4F63E038
S11311C0F80180A591A50E940D23F80180A591A5A1
S11311D00E944A2380914620882329F088E193E2E3
S11311E00E94240404C088E193E20E942C048091AC
S11311F0462091E0892780934620F8019487E6C031
S113120080E097E18F83988722E0AE01495F5F4FCA
S113121063E0F80180A591A50E940D23F80180A543
S113122091A50E944A23D2C042E067E070E0F80131
S113123080A591A50E946123F80180A591A50E9433
S11312404A23F80180A591A50E94F622FFEF21EE22
S113125084E0F15020408040E1F700C0000042E00B
S113126068E070E0F80180A591A50E946123F8016F
S113127080A591A50E944A23F80180A591A50E940A
S1131280F622FFEF21EE84E0F15020408040E1F7A8
S113129000C00000F80124A135A1322F2227C90182
S11312A0A0E0B0E09C01AD0140575F4F00E01CE0BE
S11312B060E071E085EE92E20E94920287C0F8013C
S11312C084A195A126A137A1280F391F322F2227E7
S11312D0C901A0E0B0E09C01AD0140575F4F00E0C0
S11312E011E060E07DE085EE92E20E9492026EC021
S11312F0F80184A195A126A137A1280F391F322F07
S11313002227C901A0E0B0E09C01AD0140575F4F26
S113131000E011E060E07DE085EE92E20E942D02A3
S113132055C085EE92E20E94F70250C042E060E1AF
S113133070E0F80180A591A50E946123F80180A5C1
S113134091A50E944A23F80180A591A50E94F62246
S1131350FFEF21EE84E0F15020408040E1F700C02F
S1131360000061E670E2C8014A960E942925892B93
S113137069F580E093E28F83988722E0AE01495FAC
S11313805F4F63E0F80180A591A50E940D23F80149
S113139080A591A50E944A2319C085EE92E20E947D
S11313A0F702F801128E138E148E158EA801465E74
S11313B05F4F22E030E060E170E080A591A50E94DB
S11313C01C23F80180A591A50E944A232896CDBF2D
S11313D0DEBFDF91CF911F910F91089584EF90E2CA
S11313E00E94160B88E193E20E9428040895CF938B
S11313F0DF93EC018A899B89892BC9F588899989AE
S1131400892BF1F48E859F85892B89F4CE010E9466
S1131410EE0920E048EE53E068EE73E087E193E2E2
S11314200E94910A87E193E20E94C50A55C08CE3A9
S113143090E0888B998B8E859F8501978E879F87F7
S113144084E690E08A8B9B8B888999890197888BA5
S1131450998B8E859F85892B81F4888999890A9730
S1131460D0F00BC0888999890597D0F027C08A8964
S11314709B890A978A8B9B8B2FC022E049E150E01D
S113148068EE73E087E193E20E94910A87E193E2B8
S11314900E94C50AECCF8E859F85892B19F30EC057
S11314A020E044E650E068EE73E087E193E20E94B6
S11314B0910A87E193E20E94C50AD9CF21E042E371
S11314C050E068EE73E087E193E20E94910A87E1BD
S11314D093E20E94C50ACBCFDF91CF9108950E9479
S11314E0F709089508950895E0E0FAE0108287E886
S11314F08183138284E294EF86A397A382E19AE71F
S113150086A797A7168217820895E0E4FAE010826E
S11315101182138284E294EF86A397A31682178222
S113152008950F931F93CF938A01C22F9B0140E02C
S113153050E064E274EF80E090E00E949B23B801E5
S113154076956795EEE3E09FC001E19F900D11242D
S1131550860F971FCF5FB90102C076956795CA952C
S1131560E2F7E0E0FAE066A777A726A337A3A0E4B2
S1131570BAE096968D939C93979786E0808387E054
S11315808C93CF911F910F910895E0E4FAE0848544
S113159080FFFDCFE0E4FAE0848581708487A0E0D9
S11315A0BAE01C92108210A211A290961D921C9275
S11315B091972FEF83EF91E0215080409040E1F725
S11315C000C000000895CF93DF93EC010E94740AD9
S11315D0CE010E94850ADF91CF910895FC014283D8
S11315E0E0E0F8E08081807F8083138210A211A262
S11315F010A611A612A613A614A615A616A617A61B
S113160016A217A28181887F682B618316821782B4
S11316100895E0E0F8E066A377A32081207FDC0151
S113162012969C91822F892B80830895E0E0F8E044
S11316308081807F808310A211A20895E0E0F8E009
S113164081818F70682B61830895E0E0F8E08181E7
S11316506095682361830895609326087093270832
S113166008956093280870932908089560932A08C0
S113167070932B08089560932C0870932D08089597
S113168060932E0870932F0808956115710531F049
S1131690E0E0F8E086818370282B26836093132191
S11316A0709314214093092250930A2208956115DE
S11316B0710531F0E0E0F8E086818C70282B2683F8
S11316C0609315217093162140930B2250930C22A2
S11316D008956115710531F0E0E0F8E087818370C9
S11316E0282B2783609317217093182140930D2290
S11316F050930E2208956115710531F0E0E0F8E091
S113170087818C70282B27836093192170931A2169
S113171040930F225093102208956115710531F002
S1131720E0E0F8E087818073282B278360931B21F6
S113173070931C2140931122509312220895611535
S1131740710531F0E0E0F8E08781807C282B278365
S113175060931D2170931E214093132250931422F1
S11317600895CF93DF93EC010E94260C80E890E269
S113177088839983DF91CF91089520E830E2FC01BA
S1131780208331830E942C0C089508950895EF92CC
S11317900F931F93CF93DF93EC01E0E8F6E080EB27
S11317A0818390E4928390EC948B958B968B978BAA
S11317B08583611102C080E401C080E5011102C08B
S11317C030E001C030E8411102C090E001C090E275
S11317D0220F220FE22AE82AE32AE92A00EC1AE07F
S11317E0F801E08280E091E00E94F32388839983EA
S11317F081E0F801818383E29CE0809369219093E6
S11318006A21C0935F22D0936022DF91CF911F9110
S11318100F91EF900895FC0182819381892B79F0D7
S11318204081518122813381C9010197828393834D
S1131830FA01E80FF91F80818093C30A089580E1BB
S11318408093850608950E940B0C089524EA30E2E3
S1131850FC01208331830895089528EC30E2FC01D3
S113186020833183089508951F920F920FB60F922B
S113187011240BB60F922F933F934F935F936F9363
S11318807F938F939F93AF93BF93EF93FF93E091D5
S1131890F920F091FA20309729F08091EF2190916E
S11318A0F0211995FF91EF91BF91AF919F918F9185
S11318B07F916F915F914F913F912F910F900BBE4C
S11318C00F900FBE0F901F9018951F920F920FB696
S11318D00F9211240BB60F922F933F934F935F9364
S11318E06F937F938F939F93AF93BF93EF93FF93E4
S11318F0E091FB20F091FC20309729F08091F121B8
S11319009091F2211995FF91EF91BF91AF919F9121
S11319108F917F916F915F914F913F912F910F9094
S11319200BBE0F900FBE0F901F9018951F920F9231
S11319300FB60F9211240BB60F922F933F934F9330
S11319405F936F937F938F939F93AF93BF93EF9323
S1131950FF93E091FD20F091FE20309729F08091D3
S1131960F3219091F4211995FF91EF91BF91AF91DB
S11319709F918F917F916F915F914F913F912F91A3
S11319800F900BBE0F900FBE0F901F9018951F92D3
S11319900F920FB60F9211240BB60F922F933F9311
S11319A04F935F936F937F938F939F93AF93BF9363
S11319B0EF93FF93E091FF20F0910021309729F0FD
S11319C08091F5219091F6211995FF91EF91BF91A6
S11319D0AF919F918F917F916F915F914F913F91C3
S11319E02F910F900BBE0F900FBE0F901F90189564
S11319F01F920F920FB60F9211240BB60F922F93D2
S1131A003F934F935F936F937F938F939F93AF9382
S1131A10BF93EF93FF93E0910121F091022130975E
S1131A2029F08091F7219091F8211995FF91EF9178
S1131A30BF91AF919F918F917F916F915F914F91E2
S1131A403F912F910F900BBE0F900FBE0F901F90E0
S1131A5018951F920F920FB60F9211240BB60F9286
S1131A602F933F934F935F936F937F938F939F93A2
S1131A70AF93BF93EF93FF93E0910321F09104217F
S1131A80309729F08091F9219091FA211995FF91CD
S1131A90EF91BF91AF919F918F917F916F915F91E2
S1131AA04F913F912F910F900BBE0F900FBE0F904F
S1131AB01F9018951F920F920FB60F9211240BB618
S1131AC00F922F933F934F935F936F937F938F93D3
S1131AD09F93AF93BF93EF93FF93E0910521F09110
S1131AE00621309729F08091FB219091FC211995D2
S1131AF0FF91EF91BF91AF919F918F917F916F91E2
S1131B005F914F913F912F910F900BBE0F900FBE9D
S1131B100F901F9018951F920F920FB60F921124D9
S1131B200BB60F922F933F934F935F936F937F93D3
S1131B308F939F93AF93BF93EF93FF93E09107210C
S1131B40F0910821309729F08091FD219091FE2198
S1131B501995FF91EF91BF91AF919F918F917F91D3
S1131B606F915F914F913F912F910F900BBE0F900A
S1131B700FBE0F901F9018951F920F920FB60F92E1
S1131B8011240BB60F922F933F934F935F936F9350
S1131B907F938F939F93AF93BF93EF93FF93E091C2
S1131BA00921F0910A21309729F08091FF21909129
S1131BB000221995FF91EF91BF91AF919F918F9161
S1131BC07F916F915F914F913F912F910F900BBE39
S1131BD00F900FBE0F901F9018951F920F920FB683
S1131BE00F9211240BB60F922F933F934F935F9351
S1131BF06F937F938F939F93AF93BF93EF93FF93D1
S1131C00E0910B21F0910C21309729F08091012271
S1131C10909102221995FF91EF91BF91AF919F91FD
S1131C208F917F916F915F914F913F912F910F9081
S1131C300BBE0F900FBE0F901F9018951F920F921E
S1131C400FB60F9211240BB60F922F933F934F931D
S1131C505F936F937F938F939F93AF93BF93EF9310
S1131C60FF93E0910D21F0910E21309729F080919E
S1131C700322909104221995FF91EF91BF91AF91A6
S1131C809F918F917F916F915F914F913F912F9190
S1131C900F900BBE0F900FBE0F901F9018951F92C0
S1131CA00F920FB60F9211240BB60F922F933F93FE
S1131CB04F935F936F937F938F939F93AF93BF9350
S1131CC0EF93FF93E0910F21F0911021309729F0C9
S1131CD080910522909106221995FF91EF91BF9171
S1131CE0AF919F918F917F916F915F914F913F91B0
S1131CF02F910F900BBE0F900FBE0F901F90189551
S1131D001F920F920FB60F9211240BB60F922F93BE
S1131D103F934F935F936F937F938F939F93AF936F
S1131D20BF93EF93FF93E0911121F091122130972B
S1131D3029F080910722909108221995FF91EF9143
S1131D40BF91AF919F918F917F916F915F914F91CF
S1131D503F912F910F900BBE0F900FBE0F901F90CD
S1131D6018951F920F920FB60F9211240BB60F9273
S1131D702F933F934F935F936F937F938F939F938F
S1131D80AF93BF93EF93FF93E0911321F09114214C
S1131D90309729F08091092290910A221995FF9198
S1131DA0EF91BF91AF919F918F917F916F915F91CF
S1131DB04F913F912F910F900BBE0F900FBE0F903C
S1131DC01F9018951F920F920FB60F9211240BB605
S1131DD00F922F933F934F935F936F937F938F93C0
S1131DE09F93AF93BF93EF93FF93E0911521F091ED
S1131DF01621309729F080910B2290910C2219958D
S1131E00FF91EF91BF91AF919F918F917F916F91CE
S1131E105F914F913F912F910F900BBE0F900FBE8A
S1131E200F901F9018951F920F920FB60F921124C6
S1131E300BB60F922F933F934F935F936F937F93C0
S1131E408F939F93AF93BF93EF93FF93E0911721E9
S1131E50F0911821309729F080910D2290910E2253
S1131E601995FF91EF91BF91AF919F918F917F91C0
S1131E706F915F914F913F912F910F900BBE0F90F7
S1131E800FBE0F901F9018951F920F920FB60F92CE
S1131E9011240BB60F922F933F934F935F936F933D
S1131EA07F938F939F93AF93BF93EF93FF93E091AF
S1131EB01921F0911A21309729F080910F229091E5
S1131EC010221995FF91EF91BF91AF919F918F913E
S1131ED07F916F915F914F913F912F910F900BBE26
S1131EE00F900FBE0F901F9018951F920F920FB670
S1131EF00F9211240BB60F922F933F934F935F933E
S1131F006F937F938F939F93AF93BF93EF93FF93BD
S1131F10E0911B21F0911C21309729F0809111222E
S1131F20909112221995FF91EF91BF91AF919F91DA
S1131F308F917F916F915F914F913F912F910F906E
S1131F400BBE0F900FBE0F901F9018951F920F920B
S1131F500FB60F9211240BB60F922F933F934F930A
S1131F605F936F937F938F939F93AF93BF93EF93FD
S1131F70FF93E0911D21F0911E21309729F080916B
S1131F801322909114221995FF91EF91BF91AF9173
S1131F909F918F917F916F915F914F913F912F917D
S1131FA00F900BBE0F900FBE0F901F9018951F92AD
S1131FB00F920FB60F9211240BB60F922F933F93EB
S1131FC04F935F936F937F938F939F93AF93BF933D
S1131FD0EF93FF93E0911F21F0912021309729F096
S1131FE080911522909116221995FF91EF91BF913E
S1131FF0AF919F918F917F916F915F914F913F919D
S11320002F910F900BBE0F900FBE0F901F9018953D
S11320101F920F920FB60F9211240BB60F922F93AB
S11320203F934F935F936F937F938F939F93AF935C
S1132030BF93EF93FF93E0912121F09122213097F8
S113204029F080911722909118221995FF91EF9110
S1132050BF91AF919F918F917F916F915F914F91BC
S11320603F912F910F900BBE0F900FBE0F901F90BA
S113207018951F920F920FB60F9211240BB60F9260
S11320802F933F934F935F936F937F938F939F937C
S1132090AF93BF93EF93FF93E0912321F091242119
S11320A0309729F08091192290911A221995FF9165
S11320B0EF91BF91AF919F918F917F916F915F91BC
S11320C04F913F912F910F900BBE0F900FBE0F9029
S11320D01F9018951F920F920FB60F9211240BB6F2
S11320E00F922F933F934F935F936F937F938F93AD
S11320F09F93AF93BF93EF93FF93E0912521F091CA
S11321002621309729F080911B2290911C22199549
S1132110FF91EF91BF91AF919F918F917F916F91BB
S11321205F914F913F912F910F900BBE0F900FBE77
S11321300F901F9018951F920F920FB60F921124B3
S11321400BB60F922F933F934F935F936F937F93AD
S11321508F939F93AF93BF93EF93FF93E0912721C6
S1132160F0912821309729F080911D2290911E2210
S11321701995FF91EF91BF91AF919F918F917F91AD
S11321806F915F914F913F912F910F900BBE0F90E4
S11321900FBE0F901F9018951F920F920FB60F92BB
S11321A011240BB60F922F933F934F935F936F932A
S11321B07F938F939F93AF93BF93EF93FF93E0919C
S11321C02921F0912A21309729F080911F229091A2
S11321D020221995FF91EF91BF91AF919F918F911B
S11321E07F916F915F914F913F912F910F900BBE13
S11321F00F900FBE0F901F9018951F920F920FB65D
S11322000F9211240BB60F922F933F934F935F932A
S11322106F937F938F939F93AF93BF93EF93FF93AA
S1132220E0912B21F0912C21309729F080912122EB
S1132230909122221995FF91EF91BF91AF919F91B7
S11322408F917F916F915F914F913F912F910F905B
S11322500BBE0F900FBE0F901F9018951F920F92F8
S11322600FB60F9211240BB60F922F933F934F93F7
S11322705F936F937F938F939F93AF93BF93EF93EA
S1132280FF93E0912D21F0912E21309729F0809138
S11322902322909124221995FF91EF91BF91AF9140
S11322A09F918F917F916F915F914F913F912F916A
S11322B00F900BBE0F900FBE0F901F9018951F929A
S11322C00F920FB60F9211240BB60F922F933F93D8
S11322D04F935F936F937F938F939F93AF93BF932A
S11322E0EF93FF93E0912F21F0913021309729F063
S11322F080912522909126221995FF91EF91BF910B
S1132300AF919F918F917F916F915F914F913F9189
S11323102F910F900BBE0F900FBE0F901F9018952A
S11323201F920F920FB60F9211240BB60F922F9398
S11323303F934F935F936F937F938F939F93AF9349
S1132340BF93EF93FF93E0913121F09132213097C5
S113235029F080912722909128221995FF91EF91DD
S1132360BF91AF919F918F917F916F915F914F91A9
S11323703F912F910F900BBE0F900FBE0F901F90A7
S113238018951F920F920FB60F9211240BB60F924D
S11323902F933F934F935F936F937F938F939F9369
S11323A0AF93BF93EF93FF93E0913321F0913421E6
S11323B0309729F08091292290912A221995FF9132
S11323C0EF91BF91AF919F918F917F916F915F91A9
S11323D04F913F912F910F900BBE0F900FBE0F9016
S11323E01F9018951F920F920FB60F9211240BB6DF
S11323F00F922F933F934F935F936F937F938F939A
S11324009F93AF93BF93EF93FF93E0913521F091A6
S11324103621309729F080912B2290912C22199506
S1132420FF91EF91BF91AF919F918F917F916F91A8
S11324305F914F913F912F910F900BBE0F900FBE64
S11324400F901F9018951F920F920FB60F921124A0
S11324500BB60F922F933F934F935F936F937F939A
S11324608F939F93AF93BF93EF93FF93E0913721A3
S1132470F0913821309729F080912D2290912E22CD
S11324801995FF91EF91BF91AF919F918F917F919A
S11324906F915F914F913F912F910F900BBE0F90D1
S11324A00FBE0F901F9018951F920F920FB60F92A8
S11324B011240BB60F922F933F934F935F936F9317
S11324C07F938F939F93AF93BF93EF93FF93E09189
S11324D03921F0913A21309729F080912F2290915F
S11324E030221995FF91EF91BF91AF919F918F91F8
S11324F07F916F915F914F913F912F910F900BBE00
S11325000F900FBE0F901F9018951F920F920FB649
S11325100F9211240BB60F922F933F934F935F9317
S11325206F937F938F939F93AF93BF93EF93FF9397
S1132530E0913B21F0913C21309729F080913122A8
S1132540909132221995FF91EF91BF91AF919F9194
S11325508F917F916F915F914F913F912F910F9048
S11325600BBE0F900FBE0F901F9018951F920F92E5
S11325700FB60F9211240BB60F922F933F934F93E4
S11325805F936F937F938F939F93AF93BF93EF93D7
S1132590FF93E0913D21F0913E21309729F0809105
S11325A03322909134221995FF91EF91BF91AF910D
S11325B09F918F917F916F915F914F913F912F9157
S11325C00F900BBE0F900FBE0F901F9018951F9287
S11325D00F920FB60F9211240BB60F922F933F93C5
S11325E04F935F936F937F938F939F93AF93BF9317
S11325F0EF93FF93E0913F21F0914021309729F030
S113260080913522909136221995FF91EF91BF91D7
S1132610AF919F918F917F916F915F914F913F9176
S11326202F910F900BBE0F900FBE0F901F90189517
S11326301F920F920FB60F9211240BB60F922F9385
S11326403F934F935F936F937F938F939F93AF9336
S1132650BF93EF93FF93E0914121F0914221309792
S113266029F080913722909138221995FF91EF91AA
S1132670BF91AF919F918F917F916F915F914F9196
S11326803F912F910F900BBE0F900FBE0F901F9094
S113269018951F920F920FB60F9211240BB60F923A
S11326A02F933F934F935F936F937F938F939F9356
S11326B0AF93BF93EF93FF93E0914321F0914421B3
S11326C0309729F08091392290913A221995FF91FF
S11326D0EF91BF91AF919F918F917F916F915F9196
S11326E04F913F912F910F900BBE0F900FBE0F9003
S11326F01F9018951F920F920FB60F9211240BB6CC
S11327000F922F933F934F935F936F937F938F9386
S11327109F93AF93BF93EF93FF93E0914521F09183
S11327204621309729F080913B2290913C221995C3
S1132730FF91EF91BF91AF919F918F917F916F9195
S11327405F914F913F912F910F900BBE0F900FBE51
S11327500F901F9018951F920F920FB60F9211248D
S11327600BB60F922F933F934F935F936F937F9387
S11327708F939F93AF93BF93EF93FF93E091472180
S1132780F0914821309729F080913D2290913E228A
S11327901995FF91EF91BF91AF919F918F917F9187
S11327A06F915F914F913F912F910F900BBE0F90BE
S11327B00FBE0F901F9018951F920F920FB60F9295
S11327C011240BB60F922F933F934F935F936F9304
S11327D07F938F939F93AF93BF93EF93FF93E09176
S11327E04921F0914A21309729F080913F2290911C
S11327F040221995FF91EF91BF91AF919F918F91D5
S11328007F916F915F914F913F912F910F900BBEEC
S11328100F900FBE0F901F9018951F920F920FB636
S11328200F9211240BB60F922F933F934F935F9304
S11328306F937F938F939F93AF93BF93EF93FF9384
S1132840E0914B21F0914C21309729F08091412265
S1132850909142221995FF91EF91BF91AF919F9171
S11328608F917F916F915F914F913F912F910F9035
S11328700BBE0F900FBE0F901F9018951F920F92D2
S11328800FB60F9211240BB60F922F933F934F93D1
S11328905F936F937F938F939F93AF93BF93EF93C4
S11328A0FF93E0914D21F0914E21309729F08091D2
S11328B04322909144221995FF91EF91BF91AF91DA
S11328C09F918F917F916F915F914F913F912F9144
S11328D00F900BBE0F900FBE0F901F9018951F9274
S11328E00F920FB60F9211240BB60F922F933F93B2
S11328F04F935F936F937F938F939F93AF93BF9304
S1132900EF93FF93E0914F21F0915021309729F0FC
S113291080914522909146221995FF91EF91BF91A4
S1132920AF919F918F917F916F915F914F913F9163
S11329302F910F900BBE0F900FBE0F901F90189504
S11329401F920F920FB60F9211240BB60F922F9372
S11329503F934F935F936F937F938F939F93AF9323
S1132960BF93EF93FF93E0915121F091522130975F
S113297029F080914722909148221995FF91EF9177
S1132980BF91AF919F918F917F916F915F914F9183
S11329903F912F910F900BBE0F900FBE0F901F9081
S11329A018951F920F920FB60F9211240BB60F9227
S11329B02F933F934F935F936F937F938F939F9343
S11329C0AF93BF93EF93FF93E0915321F091542180
S11329D0309729F08091492290914A221995FF91CC
S11329E0EF91BF91AF919F918F917F916F915F9183
S11329F04F913F912F910F900BBE0F900FBE0F90F0
S1132A001F9018951F920F920FB60F9211240BB6B8
S1132A100F922F933F934F935F936F937F938F9373
S1132A209F93AF93BF93EF93FF93E0915521F09160
S1132A305621309729F080914B2290914C22199580
S1132A40FF91EF91BF91AF919F918F917F916F9182
S1132A505F914F913F912F910F900BBE0F900FBE3E
S1132A600F901F9018951F920F920FB60F9211247A
S1132A700BB60F922F933F934F935F936F937F9374
S1132A808F939F93AF93BF93EF93FF93E09157215D
S1132A90F0915821309729F080914D2290914E2247
S1132AA01995FF91EF91BF91AF919F918F917F9174
S1132AB06F915F914F913F912F910F900BBE0F90AB
S1132AC00FBE0F901F9018951F920F920FB60F9282
S1132AD011240BB60F922F933F934F935F936F93F1
S1132AE07F938F939F93AF93BF93EF93FF93E09163
S1132AF05921F0915A21309729F080914F229091D9
S1132B0050221995FF91EF91BF91AF919F918F91B1
S1132B107F916F915F914F913F912F910F900BBED9
S1132B200F900FBE0F901F9018951F920F920FB623
S1132B300F9211240BB60F922F933F934F935F93F1
S1132B406F937F938F939F93AF93BF93EF93FF9371
S1132B50E0915B21F0915C21309729F08091512222
S1132B60909152221995FF91EF91BF91AF919F914E
S1132B708F917F916F915F914F913F912F910F9022
S1132B800BBE0F900FBE0F901F9018951F920F92BF
S1132B900FB60F9211240BB60F922F933F934F93BE
S1132BA05F936F937F938F939F93AF93BF93EF93B1
S1132BB0FF93E0915D21F0915E21309729F080919F
S1132BC05322909154221995FF91EF91BF91AF91A7
S1132BD09F918F917F916F915F914F913F912F9131
S1132BE00F900BBE0F900FBE0F901F9018951F9261
S1132BF00F920FB60F9211240BB60F922F933F939F
S1132C004F935F936F937F938F939F93AF93BF93F0
S1132C10EF93FF93E0915F21F0916021309729F0C9
S1132C2080915522909156221995FF91EF91BF9171
S1132C30AF919F918F917F916F915F914F913F9150
S1132C402F910F900BBE0F900FBE0F901F901895F1
S1132C501F920F920FB60F9211240BB60F922F935F
S1132C603F934F935F936F937F938F939F93AF9310
S1132C70BF93EF93FF93E0916121F091622130972C
S1132C8029F080915722909158221995FF91EF9144
S1132C90BF91AF919F918F917F916F915F914F9170
S1132CA03F912F910F900BBE0F900FBE0F901F906E
S1132CB018951F920F920FB60F9211240BB60F9214
S1132CC02F933F934F935F936F937F938F939F9330
S1132CD0AF93BF93EF93FF93E0916321F09164214D
S1132CE0309729F08091592290915A221995FF9199
S1132CF0EF91BF91AF919F918F917F916F915F9170
S1132D004F913F912F910F900BBE0F900FBE0F90DC
S1132D101F9018951F920F920FB60F9211240BB6A5
S1132D200F922F933F934F935F936F937F938F9360
S1132D309F93AF93BF93EF93FF93E0916521F0913D
S1132D406621309729F080915B2290915C2219953D
S1132D50FF91EF91BF91AF919F918F917F916F916F
S1132D605F914F913F912F910F900BBE0F900FBE2B
S1132D700F901F9018951F920F920FB60F92112467
S1132D800BB60F922F933F934F935F936F937F9361
S1132D908F939F93AF93BF93EF93FF93E09167213A
S1132DA0F0916821309729F080915D2290915E2204
S1132DB01995FF91EF91BF91AF919F918F917F9161
S1132DC06F915F914F913F912F910F900BBE0F9098
S1132DD00FBE0F901F9018951F920F920FB60F926F
S1132DE011240BB60F922F933F934F935F936F93DE
S1132DF07F938F939F93AF93BF93EF93FF93E09150
S1132E006921F0916A21309729F080915F22909195
S1132E1060221995FF91EF91BF91AF919F918F918E
S1132E207F916F915F914F913F912F910F900BBEC6
S1132E300F900FBE0F901F9018951F920F920FB610
S1132E400F9211240BB60F922F933F934F935F93DE
S1132E506F937F938F939F93AF93BF93EF93FF935E
S1132E60E0916B21F0916C21309729F080916122DF
S1132E70909162221995FF91EF91BF91AF919F912B
S1132E808F917F916F915F914F913F912F910F900F
S1132E900BBE0F900FBE0F901F9018951F920F92AC
S1132EA00FB60F9211240BB60F922F933F934F93AB
S1132EB05F936F937F938F939F93AF93BF93EF939E
S1132EC0FF93E0916D21F0916E21309729F080916C
S1132ED06322909164221995FF91EF91BF91AF9174
S1132EE09F918F917F916F915F914F913F912F911E
S1132EF00F900BBE0F900FBE0F901F9018951F924E
S1132F000F920FB60F9211240BB60F922F933F938B
S1132F104F935F936F937F938F939F93AF93BF93DD
S1132F20EF93FF93E0916F21F0917021309729F096
S1132F3080916522909166221995FF91EF91BF913E
S1132F40AF919F918F917F916F915F914F913F913D
S1132F502F910F900BBE0F900FBE0F901F901895DE
S1132F601F920F920FB60F9211240BB60F922F934C
S1132F703F934F935F936F937F938F939F93AF93FD
S1132F80BF93EF93FF93E0917121F09172213097F9
S1132F9029F080916722909168221995FF91EF9111
S1132FA0BF91AF919F918F917F916F915F914F915D
S1132FB03F912F910F900BBE0F900FBE0F901F905B
S1132FC018951F920F920FB60F9211240BB60F9201
S1132FD02F933F934F935F936F937F938F939F931D
S1132FE0AF93BF93EF93FF93E0917321F09174211A
S1132FF0309729F08091692290916A221995FF9166
S1133000EF91BF91AF919F918F917F916F915F915C
S11330104F913F912F910F900BBE0F900FBE0F90C9
S11330201F9018951F920F920FB60F9211240BB692
S11330300F922F933F934F935F936F937F938F934D
S11330409F93AF93BF93EF93FF93E0917521F0911A
S11330507621309729F080916B2290916C221995FA
S1133060FF91EF91BF91AF919F918F917F916F915C
S11330705F914F913F912F910F900BBE0F900FBE18
S11330800F901F9018951F920F920FB60F92112454
S11330900BB60F922F933F934F935F936F937F934E
S11330A08F939F93AF93BF93EF93FF93E091772117
S11330B0F0917821309729F080916D2290916E22C1
S11330C01995FF91EF91BF91AF919F918F917F914E
S11330D06F915F914F913F912F910F900BBE0F9085
S11330E00FBE0F901F9018951F920F920FB60F925C
S11330F011240BB60F922F933F934F935F936F93CB
S11331007F938F939F93AF93BF93EF93FF93E0913C
S11331107921F0917A21309729F080916F22909152
S113312070221995FF91EF91BF91AF919F918F916B
S11331307F916F915F914F913F912F910F900BBEB3
S11331400F900FBE0F901F9018951F920F920FB6FD
S11331500F9211240BB60F922F933F934F935F93CB
S11331606F937F938F939F93AF93BF93EF93FF934B
S1133170E0917B21F0917C21309729F0809171229C
S1133180909172221995FF91EF91BF91AF919F9108
S11331908F917F916F915F914F913F912F910F90FC
S11331A00BBE0F900FBE0F901F9018951F920F9299
S11331B00FB60F9211240BB60F922F933F934F9398
S11331C05F936F937F938F939F93AF93BF93EF938B
S11331D0FF93E0917D21F0917E21309729F0809139
S11331E07322909174221995FF91EF91BF91AF9141
S11331F09F918F917F916F915F914F913F912F910B
S11332000F900BBE0F900FBE0F901F9018951F923A
S11332100F920FB60F9211240BB60F922F933F9378
S11332204F935F936F937F938F939F93AF93BF93CA
S1133230EF93FF93E0917F21F0918021309729F063
S113324080917522909176221995FF91EF91BF910B
S1133250AF919F918F917F916F915F914F913F912A
S11332602F910F900BBE0F900FBE0F901F901895CB
S11332701F920F920FB60F9211240BB60F922F9339
S11332803F934F935F936F937F938F939F93AF93EA
S1133290BF93EF93FF93E0918121F09182213097C6
S11332A029F080917722909178221995FF91EF91DE
S11332B0BF91AF919F918F917F916F915F914F914A
S11332C03F912F910F900BBE0F900FBE0F901F9048
S11332D018951F920F920FB60F9211240BB60F92EE
S11332E02F933F934F935F936F937F938F939F930A
S11332F0AF93BF93EF93FF93E0918321F0918421E7
S1133300309729F08091792290917A221995FF9132
S1133310EF91BF91AF919F918F917F916F915F9149
S11333204F913F912F910F900BBE0F900FBE0F90B6
S11333301F9018951F920F920FB60F9211240BB67F
S11333400F922F933F934F935F936F937F938F933A
S11333509F93AF93BF93EF93FF93E0918521F091F7
S11333608621309729F080917B2290917C221995B7
S1133370FF91EF91BF91AF919F918F917F916F9149
S11333805F914F913F912F910F900BBE0F900FBE05
S11333900F901F9018951F920F920FB60F92112441
S11333A00BB60F922F933F934F935F936F937F933B
S11333B08F939F93AF93BF93EF93FF93E0918721F4
S11333C0F0918821309729F080917D2290917E227E
S11333D01995FF91EF91BF91AF919F918F917F913B
S11333E06F915F914F913F912F910F900BBE0F9072
S11333F00FBE0F901F9018951F920F920FB60F9249
S113340011240BB60F922F933F934F935F936F93B7
S11334107F938F939F93AF93BF93EF93FF93E09129
S11334208921F0918A21309729F080917F2290910F
S113343080221995FF91EF91BF91AF919F918F9148
S11334407F916F915F914F913F912F910F900BBEA0
S11334500F900FBE0F901F9018951F920F920FB6EA
S11334600F9211240BB60F922F933F934F935F93B8
S11334706F937F938F939F93AF93BF93EF93FF9338
S1133480E0918B21F0918C21309729F08091812259
S1133490909182221995FF91EF91BF91AF919F91E5
S11334A08F917F916F915F914F913F912F910F90E9
S11334B00BBE0F900FBE0F901F9018951F920F9286
S11334C00FB60F9211240BB60F922F933F934F9385
S11334D05F936F937F938F939F93AF93BF93EF9378
S11334E0FF93E0919121F0919221309729F08091FE
S11334F08722909188221995FF91EF91BF91AF9106
S11335009F918F917F916F915F914F913F912F91F7
S11335100F900BBE0F900FBE0F901F9018951F9227
S11335200F920FB60F9211240BB60F922F933F9365
S11335304F935F936F937F938F939F93AF93BF93B7
S1133540EF93FF93E0919321F0919421309729F028
S11335508091892290918A221995FF91EF91BF91D0
S1133560AF919F918F917F916F915F914F913F9117
S11335702F910F900BBE0F900FBE0F901F901895B8
S11335801F920F920FB60F9211240BB60F922F9326
S11335903F934F935F936F937F938F939F93AF93D7
S11335A0BF93EF93FF93E0919521F091962130978B
S11335B029F080918B2290918C221995FF91EF91A3
S11335C0BF91AF919F918F917F916F915F914F9137
S11335D03F912F910F900BBE0F900FBE0F901F9035
S11335E018951F920F920FB60F9211240BB60F92DB
S11335F02F933F934F935F936F937F938F939F93F7
S1133600AF93BF93EF93FF93E0919721F0919821AB
S1133610309729F080918D2290918E221995FF91F7
S1133620EF91BF91AF919F918F917F916F915F9136
S11336304F913F912F910F900BBE0F900FBE0F90A3
S11336401F9018951F920F920FB60F9211240BB66C
S11336500F922F933F934F935F936F937F938F9327
S11336609F93AF93BF93EF93FF93E0919921F091D0
S11336709A21309729F080918F2290919022199568
S1133680FF91EF91BF91AF919F918F917F916F9136
S11336905F914F913F912F910F900BBE0F900FBEF2
S11336A00F901F9018951F920F920FB60F9211242E
S11336B00BB60F922F933F934F935F936F937F9328
S11336C08F939F93AF93BF93EF93FF93E0919B21CD
S11336D0F0919C21309729F080919122909192222F
S11336E01995FF91EF91BF91AF919F918F917F9128
S11336F06F915F914F913F912F910F900BBE0F905F
S11337000FBE0F901F9018951F920F920FB60F9235
S113371011240BB60F922F933F934F935F936F93A4
S11337207F938F939F93AF93BF93EF93FF93E09116
S11337309D21F0919E21309729F0809193229091C0
S113374094221995FF91EF91BF91AF919F918F9121
S11337507F916F915F914F913F912F910F900BBE8D
S11337600F900FBE0F901F9018951F920F920FB6D7
S11337700F9211240BB60F922F933F934F935F93A5
S11337806F937F938F939F93AF93BF93EF93FF9325
S1133790E0919F21F091A021309729F0809195220A
S11337A0909196221995FF91EF91BF91AF919F91BE
S11337B08F917F916F915F914F913F912F910F90D6
S11337C00BBE0F900FBE0F901F9018951F920F9273
S11337D00FB60F9211240BB60F922F933F934F9372
S11337E05F936F937F938F939F93AF93BF93EF9365
S11337F0FF93E091A121F091A221309729F08091CB
S11338009722909198221995FF91EF91BF91AF91D2
S11338109F918F917F916F915F914F913F912F91E4
S11338200F900BBE0F900FBE0F901F9018951F9214
S11338300F920FB60F9211240BB60F922F933F9352
S11338404F935F936F937F938F939F93AF93BF93A4
S1133850EF93FF93E091A321F091A421309729F0F5
S11338608091992290919A221995FF91EF91BF919D
S1133870AF919F918F917F916F915F914F913F9104
S11338802F910F900BBE0F900FBE0F901F901895A5
S11338901F920F920FB60F9211240BB60F922F9313
S11338A03F934F935F936F937F938F939F93AF93C4
S11338B0BF93EF93FF93E091A521F091A621309758
S11338C029F080919B2290919C221995FF91EF9170
S11338D0BF91AF919F918F917F916F915F914F9124
S11338E03F912F910F900BBE0F900FBE0F901F9022
S11338F018951F920F920FB60F9211240BB60F92C8
S11339002F933F934F935F936F937F938F939F93E3
S1133910AF93BF93EF93FF93E091A721F091A82178
S1133920309729F080919D2290919E221995FF91C4
S1133930EF91BF91AF919F918F917F916F915F9123
S11339404F913F912F910F900BBE0F900FBE0F9090
S11339501F9018951F920F920FB60F9211240BB659
S11339600F922F933F934F935F936F937F938F9314
S11339709F93AF93BF93EF93FF93E091A921F091AD
S1133980AA21309729F080919F229091A022199525
S1133990FF91EF91BF91AF919F918F917F916F9123
S11339A05F914F913F912F910F900BBE0F900FBEDF
S11339B00F901F9018951F920F920FB60F9211241B
S11339C00BB60F922F933F934F935F936F937F9315
S11339D08F939F93AF93BF93EF93FF93E091AB21AA
S11339E0F091AC21309729F08091A1229091A222EC
S11339F01995FF91EF91BF91AF919F918F917F9115
S1133A006F915F914F913F912F910F900BBE0F904B
S1133A100FBE0F901F9018951F920F920FB60F9222
S1133A2011240BB60F922F933F934F935F936F9391
S1133A307F938F939F93AF93BF93EF93FF93E09103
S1133A40AD21F091AE21309729F08091A32290917D
S1133A50A4221995FF91EF91BF91AF919F918F91FE
S1133A607F916F915F914F913F912F910F900BBE7A
S1133A700F900FBE0F901F9018951F920F920FB6C4
S1133A800F9211240BB60F922F933F934F935F9392
S1133A906F937F938F939F93AF93BF93EF93FF9312
S1133AA0E091AF21F091B021309729F08091A522C7
S1133AB09091A6221995FF91EF91BF91AF919F919B
S1133AC08F917F916F915F914F913F912F910F90C3
S1133AD00BBE0F900FBE0F901F9018951F920F9260
S1133AE00FB60F9211240BB60F922F933F934F935F
S1133AF05F936F937F938F939F93AF93BF93EF9352
S1133B00FF93E091B121F091B221309729F0809197
S1133B10A7229091A8221995FF91EF91BF91AF919F
S1133B209F918F917F916F915F914F913F912F91D1
S1133B300F900BBE0F900FBE0F901F9018951F9201
S1133B400F920FB60F9211240BB60F922F933F933F
S1133B504F935F936F937F938F939F93AF93BF9391
S1133B60EF93FF93E091C721F091C821309729F09A
S1133B708091BD229091BE221995FF91EF91BF9142
S1133B80AF919F918F917F916F915F914F913F91F1
S1133B902F910F900BBE0F900FBE0F901F90189592
S1133BA01F920F920FB60F9211240BB60F922F9300
S1133BB03F934F935F936F937F938F939F93AF93B1
S1133BC0BF93EF93FF93E091C921F091CA213097FD
S1133BD029F08091BF229091C0221995FF91EF9115
S1133BE0BF91AF919F918F917F916F915F914F9111
S1133BF03F912F910F900BBE0F900FBE0F901F900F
S1133C0018951F920F920FB60F9211240BB60F92B4
S1133C102F933F934F935F936F937F938F939F93D0
S1133C20AF93BF93EF93FF93E091CF21F091D02115
S1133C30309729F08091C5229091C6221995FF9161
S1133C40EF91BF91AF919F918F917F916F915F9110
S1133C504F913F912F910F900BBE0F900FBE0F907D
S1133C601F9018951F920F920FB60F9211240BB646
S1133C700F922F933F934F935F936F937F938F9301
S1133C809F93AF93BF93EF93FF93E091D121F09172
S1133C90D221309729F08091C7229091C82219959A
S1133CA0FF91EF91BF91AF919F918F917F916F9110
S1133CB05F914F913F912F910F900BBE0F900FBECC
S1133CC00F901F9018951F920F920FB60F92112408
S1133CD00BB60F922F933F934F935F936F937F9302
S1133CE08F939F93AF93BF93EF93FF93E091D3216F
S1133CF0F091D421309729F08091C9229091CA2261
S1133D001995FF91EF91BF91AF919F918F917F9101
S1133D106F915F914F913F912F910F900BBE0F9038
S1133D200FBE0F901F9018951F920F920FB60F920F
S1133D3011240BB60F922F933F934F935F936F937E
S1133D407F938F939F93AF93BF93EF93FF93E091F0
S1133D50D521F091D621309729F08091CB229091F2
S1133D60CC221995FF91EF91BF91AF919F918F91C3
S1133D707F916F915F914F913F912F910F900BBE67
S1133D800F900FBE0F901F9018951F920F920FB6B1
S1133D900F9211240BB60F922F933F934F935F937F
S1133DA06F937F938F939F93AF93BF93EF93FF93FF
S1133DB0E091D721F091D821309729F08091CD223C
S1133DC09091CE221995FF91EF91BF91AF919F9160
S1133DD08F917F916F915F914F913F912F910F90B0
S1133DE00BBE0F900FBE0F901F9018951F920F924D
S1133DF00FB60F9211240BB60F922F933F934F934C
S1133E005F936F937F938F939F93AF93BF93EF933E
S1133E10FF93E091D921F091DA21309729F0809134
S1133E20CF229091D0221995FF91EF91BF91AF913C
S1133E309F918F917F916F915F914F913F912F91BE
S1133E400F900BBE0F900FBE0F901F9018951F92EE
S1133E500F920FB60F9211240BB60F922F933F932C
S1133E604F935F936F937F938F939F93AF93BF937E
S1133E70EF93FF93E091E521F091E621309729F04B
S1133E808091DB229091DC221995FF91EF91BF91F3
S1133E90AF919F918F917F916F915F914F913F91DE
S1133EA02F910F900BBE0F900FBE0F901F9018957F
S1133EB01F920F920FB60F9211240BB60F922F93ED
S1133EC03F934F935F936F937F938F939F93AF939E
S1133ED0BF93EF93FF93E091E721F091E8213097AE
S1133EE029F08091DD229091DE221995FF91EF91C6
S1133EF0BF91AF919F918F917F916F915F914F91FE
S1133F003F912F910F900BBE0F900FBE0F901F90FB
S1133F1018951F920F920FB60F9211240BB60F92A1
S1133F202F933F934F935F936F937F938F939F93BD
S1133F30AF93BF93EF93FF93E091E921F091EA21CE
S1133F40309729F08091DF229091E0221995FF911A
S1133F50EF91BF91AF919F918F917F916F915F91FD
S1133F604F913F912F910F900BBE0F900FBE0F906A
S1133F701F9018950E944804FDCF84E393E20E94A9
S1133F80C50B82E393E20E94A10389E193E20E94BC
S1133F90772188E193E20E94B50387E193E20E94CE
S1133FA0720A8DEE92E20E94530585EE92E20E941F
S1133FB01F02089585EE92E20E9420028DEE92E2A5
S1133FC00E94590587E193E20E94730A88E193E213
S1133FD00E94B60389E193E20E94CC2182E393E23A
S1133FE00E94AD0384E393E20E94C60B0895EF920E
S1133FF00F931F93F89488E193E20E94B70387E13B
S113400093E20E94E30A0F2EF3E0EF2EF02D00E07E
S113401023E040E061E084E393E20E94C70B01E007
S113402020E040E06DE082E393E20E94250300E09B
S113403011E020E031E04DEE52E262E373E289E107
S113404093E20E947D2169E173E28DEE92E20E9487
S1134050140688E193E20E94EB0340E051E069E139
S113406073E285EE92E20E94210278941F910F91EF
S1134070EF9008950E94F71F2FEF8FE493EC2150E7
S113408080409040E1F700C000008DEE92E20E9473
S11340906105C8EC8FE39FE10197F1F700C00000D0
S11340A04091E3225091E422CA0101968093E322D5
S11340B09093E4229A01369527953695279536955F
S11340C02795ABE7B4E10E94C22396958795C89FD4
S11340D09001C99F300D112442175307D9F68DEE74
S11340E092E20E944906D6CFCF93DF93EC01EC8194
S11340F0FD818AEA8083EC81FD818CEC8183EC81F3
S1134100FD8182E0820F8283EC81FD8180E88383DC
S1134110EC81FD81648385E0820F898730E021157D
S1134120310581F0DA01420F531F65E070E09D9183
S1134130EC81FD81E60FF71F90836F5F7F4FA4171B
S1134140B507A9F7DF91CF910895FC01A481B5814A
S11341508AEA8C93A481B5818CEC11968C93A4810A
S1134160B58183E012968C93A481B58181E813967E
S11341708C93A481B58114966C93A481B581159612
S11341804C9386E0818708950F931F93CF93DF9319
S1134190DC011496ED91FC911597AAEAA083EC0139
S11341A0EC81FD81ACECA183EC81FD81A3E0A20F45
S11341B0A283EC81FD81A2E8A383EC81FD81748359
S11341C0EC81FD81658366E0620F698736952795EA
S11341D021153105E1F0E42FF52F2D5F3F4F220F1C
S11341E0331F46E050E0EC01AC81BD81A40FB51F44
S11341F061816C93AC81BD81A40FB51F608132963F
S113420011966C934E5F5F4F4217530761F7DF912E
S1134210CF911F910F910895FC01A481B5818AEA81
S11342208C93A481B5818CEC11968C93A481B58177
S113423084E012968C93A481B58183E813968C93C1
S1134240A481B58114967C93A481B58115966C9351
S1134250A481B58116964C9387E0818708950F93C6
S11342601F93CF93DF93EC01CB018A016F8378878F
S11342704A875B870E94F3238A839B83C8010E9439
S1134280F3238C839D8319861E82DF91CF911F9126
S11342900F910895CF93DF93EC018A819B810E9453
S11342A088248C819D810E948824DF91CF91089578
S11342B00895DC0157968D919C915897009739F099
S11342C0DC01ED91FC910280F381E02D19950895B4
S11342D0DC0157968D919C915897009739F0DC0139
S11342E0ED91FC910480F581E02D1995089520EE5F
S11342F030E2FC01208331830895CF92DF92EF9264
S1134300FF920F931F93CF93DF93EC017B016A011C
S1134310C9012F8338870A871B870E94F3238A8366
S11343209B83C8010E94F3238C839D831D8A198675
S11343301F861E82188A198A1A8A1B8A87E08E872A
S113434082E08C8B1E8AEC86FD86D701ED91FC9170
S11343500484F585E02D4EE852E2BE01C7011995AB
S1134360D701ED91FC910684F785E02D43EF52E2ED
S1134370BE01C7011995C114D10419F0CF8AD88E92
S113438002C0CF8BD88FDF91CF911F910F91FF90F7
S1134390EF90DF90CF90089520EE30E2FC0120836F
S11343A031830E9458210895CF93DF93EC01962F17
S11343B04E8550E04B30510508F0ADC0FA01882716
S11343C0E55DFE4F8F4F0C94BA239A3A19F482E0BC
S11343D08E87A1C081E08E879EC09C3C19F483E047
S11343E08E8799C081E08E8796C09E831F861A8A25
S11343F01B8A10923A2310923B2384E08E878BC051
S11344008F85EA81FB81E80FF11D90832F8530E0D1
S11344104F8158854217530718F489E08E877BC073
S11344202A893B892927922F92959227092E9695BE
S113443096959025092E969590259770022E232FF8
S1134440969507949795302D2927069497953025AE
S113445029272A8B3B8B8F858F5F8F8780913A2307
S113446090913B23019680933A2390933B234F856D
S11344708E81481350C088E08E87E881F98150E02E
S11344806A817B810190F081E02DCE0119958F899D
S1134490988D009709F43FC0DC01ED91FC914E81A9
S11344A050E06A817B810190F081E02D199533C041
S11344B0692F70E0688B798B86E08E872CC0288901
S11344C03989A901592B488B598B2A893B89421771
S11344D05307E9F488E08E87E881F9814E8150E042
S11344E06A817B810190F081E02DCE0119958F893D
S11344F0988D009781F0DC01ED91FC914E8150E0A4
S11345006A817B810190F081E02D199504C089E0D6
S11345108E8701C01E8ADF91CF910895CF93DF93D8
S1134520EC018C859D85DC01ED91FC910280F38189
S1134530E02D1995682FCE010E94D421DF91CF91EF
S11345400895FC0117861682108A118A128A138A2A
S113455016860895CF93DF93EC018C89843038F468
S11345608230B8F5882331F08130D1F039C08530FC
S113457081F136C081E08C8B1D8A8C859D852D89C7
S1134580DC01ED91FC91AC81BD81A20FB11D0480D1
S1134590F581E02D6C9119958D898F5F8D8B20C0ED
S11345A08C859D852D89DC01ED91FC91AC81BD81CB
S11345B0A20FB11D0480F581E02D6C9119958D89B0
S11345C08F5F8D8B9D89898598130AC083E08C8BBE
S11345D007C08E89882319F0CE010E94A1221E8A69
S11345E0DF91CF9108950E94AA220895FC0106C08C
S11345F08685893041F086858A3039F08685883011
S1134600B9F781E0089582E0089583E00895FC01FC
S1134610158A148A0E94AA220895CF93DF93EC018D
S1134620E881F9810284F385E02D1995CE010E9479
S11346300723DF91CF910895CF93DF93EC01E881B5
S1134640F9810684F785E02D1995CE010E94072390
S1134650DF91CF910895CF93DF93EC01E881F98145
S11346600484F585E02D1995CE010E940723DF917E
S1134670CF910895CF93DF93EC01E881F98150E065
S11346800088F189E02D1995CE010E940723DF915E
S1134690CF910895FC0106C08489843041F0848957
S11346A0853039F084898330B9F781E0089582E058
S11346B0089583E0089521E0FC01268B0E942B23BA
S11346C0089521E0FC01268B0E943A2308950F935C
S11346D01F93CF93DF938C01EB019881913869F498
S11346E0D801ED91FC910480F581E02D2A81AB0184
S11346F04D5F5F4F6981C80119959881933899F48A
S1134700D801ED91FC912B8130E0AE014C5F5F4FFD
S1134710698170E0762F66278A81682B0280F38195
S1134720E02DC8011995DF91CF911F910F91089544
S11347300E9467230895052E97FB1EF400940E949F
S1134740B22357FD07D00E94D12307FC03D04EF4B7
S11347500C94B22350954095309521953F4F4F4F7F
S11347605F4F089590958095709561957F4F8F4F19
S11347709F4F0895EE0FFF1F881F8BBF0790F69180
S1134780E02D1994A29FB001B39FC001A39F700DA7
S1134790811D1124911DB29F700D811D1124911D45
S11347A00895A1E21A2EAA1BBB1BFD010DC0AA1F6E
S11347B0BB1FEE1FFF1FA217B307E407F50720F086
S11347C0A21BB30BE40BF50B661F771F881F991F01
S11347D01A9469F760957095809590959B01AC014A
S11347E0BD01CF010895CF93DF938230910510F47A
S11347F082E090E0E0913E23F0913F2320E030E01E
S1134800C0E0D0E0309711F1408151814817590739
S1134810C0F04817590761F482819381209719F0F9
S11348208A839B832BC080933E2390933F2326C08F
S11348302115310519F04217530718F49A01BE01E6
S1134840DF01EF010280F381E02DDCCF211531057A
S113485009F1281B390B2430310590F412968D91FF
S11348609C9113976115710521F0FB018283938359
S113487004C080933E2390933F23FD01329644C0AD
S1134880FD01E20FF31F81939193225031092D937F
S11348903C933AC020913C2330913D23232B41F497
S11348A0209102203091032020933C2330933D2318
S11348B020910020309101202115310541F42DB7BC
S11348C03EB74091042050910520241B350BE09104
S11348D03C23F0913D23E217F307A0F42E1B3F0B7A
S11348E02817390778F0AC014E5F5F4F241735075E
S11348F048F04E0F5F1F40933C2350933D23819318
S1134900919302C0E0E0F0E0CF01DF91CF910895F0
S11349100F931F93CF93DF93009709F48CC0FC018E
S113492032971282138200913E2310913F23011586
S1134930110581F420813181820F931F20913C2342
S113494030913D232817390779F5E0933C23F09300
S11349503D2371C0D80140E050E0AE17BF0750F4CA
S113496012962D913C911397AD012115310509F152
S1134970D901F3CF9D01DA012283338360817181F0
S1134980860F971F8217930769F4EC0128813981F8
S1134990260F371F2E5F3F4F208331838A819B81EF
S11349A082839383452B29F4E0933E23F0933F23A2
S11349B042C01296ED93FC931397ED0149915991DE
S11349C09E01240F351FE217F30771F48081918152
S11349D0840F951F02968D939C93119782819381E6
S11349E012968D939C931397E0E0F0E0D801129611
S11349F08D919C911397009719F0F8018C01F6CFD3
S1134A008D919C9198012E5F3F4F820F931F2091AF
S1134A103C2330913D232817390769F4309729F452
S1134A2010923E2310923F2302C0128213820093FD
S1134A303C2310933D23DF91CF911F910F91089553
S1134A40FB01DC0102C001900D9241505040D8F7A7
S1134A500895FB01DC018D91019080190110D9F3B7
S1134A60990B089511E0CAEED1E000E006C0802F52
S1134A70FE010E94BA232196011DCC3ED10780E09D
S10B4A800807A9F7F894FFCF21
S1134A880000402320000706050301040200030177
S1134A98FF0200FEFFFDFEFCFDFBFDFAFCFA00FE32
S1134AA8FAFCF9FBF9000C0C0C228A0C228A0C2261
S1134AB8890C228721831F7B1B6B0F79134B0103FE
S1134AC82F134D0B2B000105000000000025036087
S1134AD803630366036E0375037D0386038F0398DC
S1134AE8033132333400000000007204CD0473042F
S1134AF82F214A217420A520C4200C210000000085
S1134B08EE0A090B160B1E0B250B2C0B310B360B5F
S1134B183B0B400B450B570B690B7B0B8D0B9F0B0A
S1134B2800000000BA1FBA1FBA1FBA1FBA1FBA1F63
S1134B38BA1FBA1FBA1FBA1FBA1FBA1FBA1FBA1FA1
S1134B48BA1FBA1F00000000BA1FBA1FBA1FBA1F43
S1134B58BA1FBA1FBA1FBA1FBA1FBA1F0000000033
S1134B689823592168212F214A217420A520C42083
S1054B780C210A
S9030000FC
