S01E00004154786D656761456C656374726F706F726174696F6E2E7372656325
S11300000C94A5010C94F5080C9426090C9457093A
S11300100C9488090C94B9090C94EA090C941B0AF1
S11300200C944C0A0C947D0A0C94AE0A0C94DF0ACE
S11300300C94100B0C94410B0C94720B0C94A30BAA
S11300400C94D40B0C94050C0C94360C0C94670C87
S11300500C94980C0C94C90C0C94FA0C0C942B0D65
S11300600C945C0D0C948D0D0C94BE0D0C94EF0D42
S11300700C94200E0C94510E0C94820E0C94B30E1E
S11300800C94E40E0C94150F0C94460F0C94770FFB
S11300900C94A80F0C94D90F0C940A100C943B10D8
S11300A00C946C100C949D100C94CE100C94FF10B6
S11300B00C9430110C9461110C9492110C94C31192
S11300C00C94F4110C9425120C9456120C9487126F
S11300D00C94B8120C94E9120C941A130C944B134C
S11300E00C947C130C94AD130C94DE130C940F1429
S11300F00C9440140C9471140C94A2140C94D31406
S11301000C9404150C9435150C9466150C949715E1
S11301100C94C8150C94F9150C942A160C945B16BF
S11301200C948C160C94BD160C94EE160C94D601FB
S11301300C94D6010C941F170C9450170C9481172F
S11301400C94B2170C94E3170C9414180C944518DF
S11301500C9476180C94A7180C94D8180C940919BC
S11301600C943A190C946B190C949C190C94CD1999
S11301700C94FE190C942F1A0C94D6010C94D601ED
S11301800C94D6010C94D6010C94D6010C94D6018F
S11301900C94D6010C94D6010C94D6010C94D6017F
S11301A00C94601A0C94911A0C94D6010C94D601F8
S11301B00C94C21A0C94F31A0C94241B0C94551B23
S11301C00C94861B0C94B71B0C94D6010C94D6018A
S11301D00C94D6010C94D6010C94D6010C94E81B13
S11301E00C94191C0C944A1C3C033F03560347030C
S11301F05303560356035603560343034B034F035B
S11302009D04A104D80407053B056D05C905250611
S1130210931E931E9B1EA31EAA1EF91E001F2C1FB5
S11302202C1F2B1F2B1F0C9456030C942B1F0C9468
S113023036040C94941F0C944E080C94E4080C940B
S1130240D7070C942F1F0C9425060C9460080C946B
S113025057030C94ED070C944F030C94FC070C9477
S1130260DD1D0C9442020C94971C0C9430020C94E7
S113027007050C94AF070C94D8010C94E6070C9472
S1130280AA1E0C94A1040C949B1E0C94001F0C94A5
S113029031040C947B1C0C94F7070C94A31E0C944F
S11302A039020C9413020C9401080C94C9050C94A3
S11302B0161E0C94B91D0C942A080C9425030C9456
S11302C0F81D0C946D050C94D5060C9419020C942D
S11302D0701D0C943F030C9443030C94201D0C9448
S11302E0DF070C943B050C9406080C9439200C94FD
S11302F0511D0C944B020C9421020C9418080C947C
S1130300D8040C94F91E0C9447030C947E1C0C9492
S11303103C080C9426030C94CA070C94071E0C94F6
S11303204B030C942C1F0C94931E0C9453030C94A9
S113033028020C943C030C94F2070C949D040C9436
S1130340160231047E1C3604971C11241FBECFEF05
S1130350CDBFDFE3DEBF00E00CBF10E2A0E0B0E2FF
S1130360E6EAF3E400E00BBF02C007900D92AE3E54
S1130370B107D9F723E2AEEEB0E201C01D92A2327A
S1130380B207E1F711E0C3EAD1E000E006C021972B
S11303900109802FFE010E945B20C13AD10780E051
S11303A00807A9F70E94EB1C0C94C1210C940000CF
S11303B00F93E0E6F6E088E0818384E08283128A8A
S11303C0138AE0EAF9E084E1838388E18483848109
S11303D08483413019F0423019F004C080E203C034
S11303E080E301C080E0222319F0213019F003C01A
S11303F0877F01C08860011102C093E401C093E0CB
S1130400892BE0EAF9E0858370E0DB01AA5DBF4D4A
S11304108C918683DB01AA5FBF4D8C918295807F8E
S113042087830F9108958091A00908956093A0098E
S113043008958091A10986FB882780F991E0892796
S113044008958091A1098095881F8827881F0895A1
S11304508091A10985FB882780F991E08927089577
S113046060939722709398224093A1215093A221E4
S1130470089560939B2270939C224093A5215093EE
S1130480A6210895FB018BE6838380EA808789E0B7
S1130490818712860895FB018CE6838380EA848732
S11304A089E0858716860895CF93DF93EC010E9437
S11304B0EE088DE490E288839983DF91CF910895CB
S11304C02DE430E2FC01208331830E94F408089576
S11304D008950895E0E4F6E09FEF918388EA808B25
S11304E0818B828B838B848B858B868B878B148209
S11304F0E0E8F6E088E08183138A1482E0EAF6E01B
S113050080EC808B818B828B838B848B858B868B19
S1130510878B14829183E0E6F6E091E19183808BEE
S1130520848B1482E0EAF0E082818160828382819C
S1130530826082838281846082830895E0E5F0E0B2
S11305408BEC8283808188608083818183FFFDCFEF
S1130550E0E5F0E0858198ED94BF84EC85838081AB
S113056080618083E0E4F0E0818194BF1182E0E562
S1130570F0E0818184FFFDCFE0E4F0E08081887FBA
S1130580846098ED94BF8083A0E5B0E08C91887F6F
S11305908C93828194BF81E08283E0EBF0E08481DC
S11305A08C7F8483089581E080936206089580E1BE
S11305B080936206089581E080936106089580E146
S11305C0809361060895F89484E690E0E0E8F6E00C
S11305D028E02583AFE9BFE01197F1F700C00000E0
S11305E02683AFE9BFE01197F1F700C0000001973F
S11305F081F778940895F89445E050E064E630E09B
S1130600E0E8F6E028E01CC02583AFE9BFE01197DD
S1130610F1F700C000002683AFE9BFE01197F1F7BE
S113062000C00000019781F7BFEF73EC89E0B1507F
S113063070408040E1F700C000004150510919F0BA
S1130640862F932FE1CF789408950895DC016330C9
S113065029F4FA0181811D968C931D971D964C9166
S11306601D9750E04C30510508F5FA018827EC50ED
S1130670FF4F8F4F0C945B201C961C92089581E0D1
S11306801C968C93089583E01C968C93089584E0C3
S11306901C968C93089586E01C968C93089585E0AF
S11306A01C968C93089587E01C968C930895FA0108
S11306B0208131813227232732276031710589F067
S11306C018F4672B41F013C06032710591F0603368
S11306D0710579F00CC0FC01248B358B2687378794
S11306E00895FC01268B378B208B318B08950E9453
S11306F0E302089525E630E2FC0120833183089566
S113070025E630E2FC01208331830E94061E089511
S11307100F931F93CF93DF93CDB7DEB72897CDBF49
S1130720DEBF8C0180E091E08F83988722E0AE01E8
S1130730495F5F4F63E0F801828D938D0E94AE1F85
S1130740F801828D938D0E94EB1FA8014C5E5F4FD0
S113075022E030E060E070E0F801828D938D0E9429
S1130760BD1FF801828D938D0E94EB1FA8014A5E84
S11307705F4F22E030E060E170E0F801828D938DFC
S11307800E94BD1FF801828D938D0E94EB1FA8016A
S11307904E5E5F4F22E030E060E270E0F801828D4F
S11307A0938D0E94BD1FF801828D938D0E94EB1FD3
S11307B0A801485E5F4F22E030E060E370E0F8019A
S11307C0828D938D0E94BD1FF801828D938D0E94AE
S11307D0EB1F1D821E828BE090E08B839C8387E15C
S11307E090E089839A8322E030E0AE014B5F5F4F53
S11307F060E470E0F801828D938D0E94BD1FF801C2
S1130800828D938D0E94EB1F22E030E0AE014D5F9C
S11308105F4F60E570E0F801828D938D0E94BD1FEB
S1130820F801828D938D0E94EB1F22E030E0AE012F
S11308304F5F5F4F60E670E0F801828D938D0E94F8
S1130840BD1FF801828D938D0E94EB1F81E0F8019A
S113085084872896CDBFDEBFDF91CF911F910F9182
S113086008958EEE90E20E94720808958EEE90E252
S11308700E947E080895CF93DF93EC016A8F7B8FEB
S113088046E060E08EEE90E20E94AF0768EA71E60F
S11308908EEE90E20E94ED0721E0AE0165ED76E078
S11308A08EEE90E20E9406081D8681E090E08C8B1B
S11308B09D8B8EE190E08E8B9F8B1A8A1B8A8C898C
S11308C09D898E879F878E899F89888B998B188EA7
S11308D0198EDF91CF9108950F931F93CF93DF93D8
S11308E01F921F92CDB7DEB78C0142E063E0FC019A
S11308F0828D938D0E94FC1FF801828D938D0E943E
S1130900EB1FF801828D938D0E94971FFFEF21EE5C
S113091084E0F15020408040E1F700C00000F8017D
S1130920848590E08830910508F0B7C1FC018827E0
S1130930E050FF4F8F4F0C945B20C8010E94880346
S1130940ACC142E060E070E0F801828D938D0E94BA
S11309500220F801828D938D0E94EB1FF801828D95
S1130960938D0E94971FFFEF21EE84E0F150204009
S11309708040E1F700C0000042E060E170E0F8016F
S1130980828D938D0E940220F801828D938D0E94A6
S1130990EB1FF801828D938D0E94971FFFEF21EECC
S11309A084E0F15020408040E1F700C0000075C1B0
S11309B0809147209091482001968A30910528F42F
S11309C0809347209093482009C089E090E0809369
S11309D047209093482083E0F80184878091472042
S11309E09091482098278927982789839A8322E021
S11309F0AE014F5F5F4F63E0F801828D938D0E94DB
S1130A00AE1FF801828D938D0E94EB1F46C1A80191
S1130A10425F5F4F22E030E060E070E0F801828DD9
S1130A20938D0E94BD1FF801828D938D0E94EB1F50
S1130A30A801405F5F4F22E030E060E170E0F80120
S1130A40828D938D0E94BD1FF801828D938D0E942B
S1130A50EB1FA8014E5E5F4F22E030E060E270E0E1
S1130A60F801828D938D0E94BD1FF801828D938DB4
S1130A700E94EB1F12C185E090E080934720909381
S1130A80482080E099E089839A8322E0AE014F5F99
S1130A905F4F63E0F801828D938D0E94AE1FF801D1
S1130AA0828D938D0E94EB1FF80184899589868736
S1130AB0978786899789808B918B128A138A68EA33
S1130AC071E68EEE90E20E94CA078CEF92E20E94D9
S1130AD0D30283E0F8018487E0C080E091E0898359
S1130AE09A8322E0AE014F5F5F4F63E0F801828D8D
S1130AF0938D0E94AE1FF801828D938D0E94EB1F8F
S1130B008EEE90E20E94D7078CEF92E20E94DB0205
S1130B10A8014C5E5F4F22E030E060E070E0F80135
S1130B20828D938D0E94BD1FF801828D938D0E944A
S1130B30EB1FA8014A5E5F4F22E030E060E170E005
S1130B40F801828D938D0E94BD1FF801828D938DD3
S1130B500E94EB1FA8014E5E5F4F22E030E060E28E
S1130B6070E0F801828D938D0E94BD1FF801828D83
S1130B70938D0E94EB1FF801848995898687978756
S1130B8086899789808B918B128A138A81E0848766
S1130B9084C080E099E089839A8322E0AE014F5FAC
S1130BA05F4F63E0F801828D938D0E94AE1FF801C0
S1130BB0828D938D0E94EB1FF80184899589868725
S1130BC0978786899789808B918B128A138A8EEEF8
S1130BD090E20E94D70721E042E350E068EE73E020
S1130BE08BEF92E20E94F7068BEF92E20E942B07B2
S1130BF0FFEF21EE84E0F15020408040E1F700C097
S1130C00000021E042E350E068EE73E08BEF92E2F3
S1130C100E94F7068BEF92E20E942B079FEFE1EE12
S1130C20F4E09150E040F040E1F700C0000068EAD1
S1130C3071E68EEE90E20E94CA078CEF92E20E9467
S1130C40D30283E0F801848728C080E091E089839F
S1130C509A8322E0AE014F5F5F4F63E0F801828D1B
S1130C60938D0E94AE1FF801828D938D0E94EB1F1D
S1130C7080914620882329F08CEF92E20E94D702CB
S1130C8004C08CEF92E20E94DF028091462091E042
S1130C90892780934620F80194870F900F90DF9165
S1130CA0CF911F910F9108958EEE90E20E94D70785
S1130CB08CEF92E20E94DB020895CF93DF93EC0164
S1130CC08A899B89892BC9F588899989892BF1F4AB
S1130CD08E859F85892B89F4CE010E94540620E0DD
S1130CE048EE53E068EE73E08BEF92E20E94F70661
S1130CF08BEF92E20E942B0755C08CE390E0888B27
S1130D00998B8E859F8501978E879F8784E690E0D7
S1130D108A8B9B8B888999890197888B998B8E857F
S1130D209F85892B81F4888999890A97D0F00BC013
S1130D30888999890597D0F027C08A899B890A9761
S1130D408A8B9B8B2FC022E049E150E068EE73E070
S1130D508BEF92E20E94F7068BEF92E20E942B0740
S1130D60ECCF8E859F85892B19F30EC020E044E6D5
S1130D7050E068EE73E08BEF92E20E94F7068BEF8F
S1130D8092E20E942B07D9CF21E042E350E068EEC3
S1130D9073E08BEF92E20E94F7068BEF92E20E94DF
S1130DA02B07CBCFDF91CF9108950E945D06089564
S1130DB008950895E0E0FAE0108287E881831382C1
S1130DC084E294EF86A397A382E19AE786A797A784
S1130DD0168217820895E0E4FAE0108211821382E9
S1130DE084E294EF86A397A31682178208950F9343
S1130DF01F93CF938A01C22F9B0140E050E064E22D
S1130E0074EF80E090E00E943C20B80176956795ED
S1130E10EEE3E09FC001E19F900D1124860F971F20
S1130E20CF5FB90102C076956795CA95E2F7E0E015
S1130E30FAE066A777A726A337A3A0E4BAE09696BC
S1130E408D939C93979786E0808387E08C93CF91D2
S1130E501F910F910895E0E4FAE0848580FFFDCFAF
S1130E60E0E4FAE0848581708487A0E0BAE01C9213
S1130E70108210A211A290961D921C9291972FEFAE
S1130E8083EF91E0215080409040E1F700C00000E2
S1130E900895CF93DF93EC0123E00E94F706CE017F
S1130EA00E942B07DF91CF910895CF93DF93EC013C
S1130EB00E94DA06CE010E94EB06DF91CF910895DD
S1130EC0CF93DF93EC01F89444EF51E068EB71E0C9
S1130ED00E94490744EF51E068EB71E0CE010E94A3
S1130EE0490744EF51E068EB71E0CE010E944907E5
S1130EF04EE551E06DE571E0CE010E94490746E9F7
S1130F0050E06BE072E0CE010E94490744EF51E0EB
S1130F1068EB71E0CE010E9449074EE551E06DE5B2
S1130F2071E0CE010E94490746E950E06BE072E0AF
S1130F30CE010E9449074AE852E068EB71E0CE0115
S1130F400E9449072FEF85EA9EE02150804090409F
S1130F50E1F700C000007894DF91CF910895FC017F
S1130F604283E0E0F8E08081807F8083138210A2D6
S1130F7011A210A611A612A613A614A615A616A6AB
S1130F8017A616A217A28181887F682B6183168217
S1130F9017820895E0E0F8E066A377A32081207F1C
S1130FA0DC0112969C91822F892B80830895E0E0C6
S1130FB0F8E08081807F808310A211A20895E0E090
S1130FC0F8E081818F70682B61830895E0E0F8E098
S1130FD081816095682361830895609326087093E6
S1130FE0270808956093280870932908089560934A
S1130FF02A0870932B08089560932C0870932D0889
S1131000089560932E0870932F0808956115710553
S113101031F0E0E0F8E086818370282B268360932A
S11310200D2170930E2140930322509304220895BE
S11310306115710531F0E0E0F8E086818C70282BB1
S1131040268360930F2170931021409305225093BF
S1131050062208956115710531F0E0E0F8E087811A
S11310608370282B2783609311217093122140935E
S113107007225093082208956115710531F0E0E0CC
S1131080F8E087818C70282B278360931321709359
S113109014214093092250930A2208956115710581
S11310A031F0E0E0F8E087818073282B2783609398
S11310B015217093162140930B2250930C2208950E
S11310C06115710531F0E0E0F8E08781807C282B20
S11310D02783609317217093182140930D22509316
S11310E00E220895CF93DF93EC010E94E7088BE76B
S11310F090E288839983DF91CF9108952BE730E2C2
S1131100FC01208331830E94ED0808950895089519
S1131110EF920F931F93CF93DF93EC01E0E8F6E097
S113112080EB818390E4928390EC948B958B968BE7
S1131130978B8583611102C080E401C080E50111B1
S113114002C030E001C030E8411102C090E001C0AB
S113115090E2220F220FE22AE82AE32AE92A00EC8D
S11311601AE0F801E08280E091E00E9494208883F4
S1131170998381E0F801818384EE98E08093632170
S113118090936421C0935922D0935A22DF91CF9136
S11311901F910F91EF900895FC0182819381892B17
S11311A079F04081518122813381C9010197828381
S11311B09383FA01E80FF91F80818093C30A08958D
S11311C080E18093850608950E94CC0808952FE954
S11311D030E2FC01208331830895089523EC30E24A
S11311E0FC0120833183089508951F920F920FB656
S11311F00F9211240BB60F922F933F934F935F934B
S11312006F937F938F939F93AF93BF93EF93FF93CA
S1131210E091F320F091F420309729F08091E921B6
S11312209091EA211995FF91EF91BF91AF919F9110
S11312308F917F916F915F914F913F912F910F907B
S11312400BBE0F900FBE0F901F9018951F920F9218
S11312500FB60F9211240BB60F922F933F934F9317
S11312605F936F937F938F939F93AF93BF93EF930A
S1131270FF93E091F520F091F620309729F08091CA
S1131280EB219091EC211995FF91EF91BF91AF91D2
S11312909F918F917F916F915F914F913F912F918A
S11312A00F900BBE0F900FBE0F901F9018951F92BA
S11312B00F920FB60F9211240BB60F922F933F93F8
S11312C04F935F936F937F938F939F93AF93BF934A
S11312D0EF93FF93E091F720F091F820309729F0F5
S11312E08091ED219091EE211995FF91EF91BF919D
S11312F0AF919F918F917F916F915F914F913F91AA
S11313002F910F900BBE0F900FBE0F901F9018954A
S11313101F920F920FB60F9211240BB60F922F93B8
S11313203F934F935F936F937F938F939F93AF9369
S1131330BF93EF93FF93E091F920F091FA20309757
S113134029F08091EF219091F0211995FF91EF916F
S1131350BF91AF919F918F917F916F915F914F91C9
S11313603F912F910F900BBE0F900FBE0F901F90C7
S113137018951F920F920FB60F9211240BB60F926D
S11313802F933F934F935F936F937F938F939F9389
S1131390AF93BF93EF93FF93E091FB20F091FC2078
S11313A0309729F08091F1219091F2211995FF91C4
S11313B0EF91BF91AF919F918F917F916F915F91C9
S11313C04F913F912F910F900BBE0F900FBE0F9036
S11313D01F9018951F920F920FB60F9211240BB6FF
S11313E00F922F933F934F935F936F937F938F93BA
S11313F09F93AF93BF93EF93FF93E091FD20F09100
S1131400FE20309729F08091F3219091F4211995D1
S1131410FF91EF91BF91AF919F918F917F916F91C8
S11314205F914F913F912F910F900BBE0F900FBE84
S11314300F901F9018951F920F920FB60F921124C0
S11314400BB60F922F933F934F935F936F937F93BA
S11314508F939F93AF93BF93EF93FF93E091FF20FC
S1131460F0910021309729F08091F5219091F62197
S11314701995FF91EF91BF91AF919F918F917F91BA
S11314806F915F914F913F912F910F900BBE0F90F1
S11314900FBE0F901F9018951F920F920FB60F92C8
S11314A011240BB60F922F933F934F935F936F9337
S11314B07F938F939F93AF93BF93EF93FF93E091A9
S11314C00121F0910221309729F08091F721909128
S11314D0F8211995FF91EF91BF91AF919F918F9151
S11314E07F916F915F914F913F912F910F900BBE20
S11314F00F900FBE0F901F9018951F920F920FB66A
S11315000F9211240BB60F922F933F934F935F9337
S11315106F937F938F939F93AF93BF93EF93FF93B7
S1131520E0910321F0910421309729F08091F92171
S11315309091FA211995FF91EF91BF91AF919F91ED
S11315408F917F916F915F914F913F912F910F9068
S11315500BBE0F900FBE0F901F9018951F920F9205
S11315600FB60F9211240BB60F922F933F934F9304
S11315705F936F937F938F939F93AF93BF93EF93F7
S1131580FF93E0910521F0910621309729F0809195
S1131590FB219091FC211995FF91EF91BF91AF919F
S11315A09F918F917F916F915F914F913F912F9177
S11315B00F900BBE0F900FBE0F901F9018951F92A7
S11315C00F920FB60F9211240BB60F922F933F93E5
S11315D04F935F936F937F938F939F93AF93BF9337
S11315E0EF93FF93E0910721F0910821309729F0C0
S11315F08091FD219091FE211995FF91EF91BF916A
S1131600AF919F918F917F916F915F914F913F9196
S11316102F910F900BBE0F900FBE0F901F90189537
S11316201F920F920FB60F9211240BB60F922F93A5
S11316303F934F935F936F937F938F939F93AF9356
S1131640BF93EF93FF93E0910921F0910A21309722
S113165029F08091FF21909100221995FF91EF913B
S1131660BF91AF919F918F917F916F915F914F91B6
S11316703F912F910F900BBE0F900FBE0F901F90B4
S113168018951F920F920FB60F9211240BB60F925A
S11316902F933F934F935F936F937F938F939F9376
S11316A0AF93BF93EF93FF93E0910B21F0910C2143
S11316B0309729F080910122909102221995FF918F
S11316C0EF91BF91AF919F918F917F916F915F91B6
S11316D04F913F912F910F900BBE0F900FBE0F9023
S11316E01F9018951F920F920FB60F9211240BB6EC
S11316F00F922F933F934F935F936F937F938F93A7
S11317009F93AF93BF93EF93FF93E0910D21F091DB
S11317100E21309729F0809103229091042219958B
S1131720FF91EF91BF91AF919F918F917F916F91B5
S11317305F914F913F912F910F900BBE0F900FBE71
S11317400F901F9018951F920F920FB60F921124AD
S11317500BB60F922F933F934F935F936F937F93A7
S11317608F939F93AF93BF93EF93FF93E0910F21D8
S1131770F0911021309729F0809105229091062252
S11317801995FF91EF91BF91AF919F918F917F91A7
S11317906F915F914F913F912F910F900BBE0F90DE
S11317A00FBE0F901F9018951F920F920FB60F92B5
S11317B011240BB60F922F933F934F935F936F9324
S11317C07F938F939F93AF93BF93EF93FF93E09196
S11317D01121F0911221309729F0809107229091E4
S11317E008221995FF91EF91BF91AF919F918F912D
S11317F07F916F915F914F913F912F910F900BBE0D
S11318000F900FBE0F901F9018951F920F920FB656
S11318100F9211240BB60F922F933F934F935F9324
S11318206F937F938F939F93AF93BF93EF93FF93A4
S1131830E0911321F0911421309729F0809109222D
S113184090910A221995FF91EF91BF91AF919F91C9
S11318508F917F916F915F914F913F912F910F9055
S11318600BBE0F900FBE0F901F9018951F920F92F2
S11318700FB60F9211240BB60F922F933F934F93F1
S11318805F936F937F938F939F93AF93BF93EF93E4
S1131890FF93E0911521F0911621309729F0809162
S11318A00B2290910C221995FF91EF91BF91AF916A
S11318B09F918F917F916F915F914F913F912F9164
S11318C00F900BBE0F900FBE0F901F9018951F9294
S11318D00F920FB60F9211240BB60F922F933F93D2
S11318E04F935F936F937F938F939F93AF93BF9324
S11318F0EF93FF93E0911721F0911821309729F08D
S113190080910D2290910E221995FF91EF91BF9134
S1131910AF919F918F917F916F915F914F913F9183
S11319202F910F900BBE0F900FBE0F901F90189524
S11319301F920F920FB60F9211240BB60F922F9392
S11319403F934F935F936F937F938F939F93AF9343
S1131950BF93EF93FF93E0911921F0911A213097EF
S113196029F080910F22909110221995FF91EF9107
S1131970BF91AF919F918F917F916F915F914F91A3
S11319803F912F910F900BBE0F900FBE0F901F90A1
S113199018951F920F920FB60F9211240BB60F9247
S11319A02F933F934F935F936F937F938F939F9363
S11319B0AF93BF93EF93FF93E0911B21F0911C2110
S11319C0309729F080911122909112221995FF915C
S11319D0EF91BF91AF919F918F917F916F915F91A3
S11319E04F913F912F910F900BBE0F900FBE0F9010
S11319F01F9018951F920F920FB60F9211240BB6D9
S1131A000F922F933F934F935F936F937F938F9393
S1131A109F93AF93BF93EF93FF93E0911D21F091B8
S1131A201E21309729F08091132290911422199548
S1131A30FF91EF91BF91AF919F918F917F916F91A2
S1131A405F914F913F912F910F900BBE0F900FBE5E
S1131A500F901F9018951F920F920FB60F9211249A
S1131A600BB60F922F933F934F935F936F937F9394
S1131A708F939F93AF93BF93EF93FF93E0911F21B5
S1131A80F0912021309729F080911522909116220F
S1131A901995FF91EF91BF91AF919F918F917F9194
S1131AA06F915F914F913F912F910F900BBE0F90CB
S1131AB00FBE0F901F9018951F920F920FB60F92A2
S1131AC011240BB60F922F933F934F935F936F9311
S1131AD07F938F939F93AF93BF93EF93FF93E09183
S1131AE02121F0912221309729F0809117229091A1
S1131AF018221995FF91EF91BF91AF919F918F910A
S1131B007F916F915F914F913F912F910F900BBEF9
S1131B100F900FBE0F901F9018951F920F920FB643
S1131B200F9211240BB60F922F933F934F935F9311
S1131B306F937F938F939F93AF93BF93EF93FF9391
S1131B40E0912321F0912421309729F080911922EA
S1131B5090911A221995FF91EF91BF91AF919F91A6
S1131B608F917F916F915F914F913F912F910F9042
S1131B700BBE0F900FBE0F901F9018951F920F92DF
S1131B800FB60F9211240BB60F922F933F934F93DE
S1131B905F936F937F938F939F93AF93BF93EF93D1
S1131BA0FF93E0912521F0912621309729F080912F
S1131BB01B2290911C221995FF91EF91BF91AF9137
S1131BC09F918F917F916F915F914F913F912F9151
S1131BD00F900BBE0F900FBE0F901F9018951F9281
S1131BE00F920FB60F9211240BB60F922F933F93BF
S1131BF04F935F936F937F938F939F93AF93BF9311
S1131C00EF93FF93E0912721F0912821309729F059
S1131C1080911D2290911E221995FF91EF91BF9101
S1131C20AF919F918F917F916F915F914F913F9170
S1131C302F910F900BBE0F900FBE0F901F90189511
S1131C401F920F920FB60F9211240BB60F922F937F
S1131C503F934F935F936F937F938F939F93AF9330
S1131C60BF93EF93FF93E0912921F0912A213097BC
S1131C7029F080911F22909120221995FF91EF91D4
S1131C80BF91AF919F918F917F916F915F914F9190
S1131C903F912F910F900BBE0F900FBE0F901F908E
S1131CA018951F920F920FB60F9211240BB60F9234
S1131CB02F933F934F935F936F937F938F939F9350
S1131CC0AF93BF93EF93FF93E0912B21F0912C21DD
S1131CD0309729F080912122909122221995FF9129
S1131CE0EF91BF91AF919F918F917F916F915F9190
S1131CF04F913F912F910F900BBE0F900FBE0F90FD
S1131D001F9018951F920F920FB60F9211240BB6C5
S1131D100F922F933F934F935F936F937F938F9380
S1131D209F93AF93BF93EF93FF93E0912D21F09195
S1131D302E21309729F08091232290912422199505
S1131D40FF91EF91BF91AF919F918F917F916F918F
S1131D505F914F913F912F910F900BBE0F900FBE4B
S1131D600F901F9018951F920F920FB60F92112487
S1131D700BB60F922F933F934F935F936F937F9381
S1131D808F939F93AF93BF93EF93FF93E0912F2192
S1131D90F0913021309729F08091252290912622CC
S1131DA01995FF91EF91BF91AF919F918F917F9181
S1131DB06F915F914F913F912F910F900BBE0F90B8
S1131DC00FBE0F901F9018951F920F920FB60F928F
S1131DD011240BB60F922F933F934F935F936F93FE
S1131DE07F938F939F93AF93BF93EF93FF93E09170
S1131DF03121F0913221309729F08091272290915E
S1131E0028221995FF91EF91BF91AF919F918F91E6
S1131E107F916F915F914F913F912F910F900BBEE6
S1131E200F900FBE0F901F9018951F920F920FB630
S1131E300F9211240BB60F922F933F934F935F93FE
S1131E406F937F938F939F93AF93BF93EF93FF937E
S1131E50E0913321F0913421309729F080912922A7
S1131E6090912A221995FF91EF91BF91AF919F9183
S1131E708F917F916F915F914F913F912F910F902F
S1131E800BBE0F900FBE0F901F9018951F920F92CC
S1131E900FB60F9211240BB60F922F933F934F93CB
S1131EA05F936F937F938F939F93AF93BF93EF93BE
S1131EB0FF93E0913521F0913621309729F08091FC
S1131EC02B2290912C221995FF91EF91BF91AF9104
S1131ED09F918F917F916F915F914F913F912F913E
S1131EE00F900BBE0F900FBE0F901F9018951F926E
S1131EF00F920FB60F9211240BB60F922F933F93AC
S1131F004F935F936F937F938F939F93AF93BF93FD
S1131F10EF93FF93E0913721F0913821309729F026
S1131F2080912D2290912E221995FF91EF91BF91CE
S1131F30AF919F918F917F916F915F914F913F915D
S1131F402F910F900BBE0F900FBE0F901F901895FE
S1131F501F920F920FB60F9211240BB60F922F936C
S1131F603F934F935F936F937F938F939F93AF931D
S1131F70BF93EF93FF93E0913921F0913A21309789
S1131F8029F080912F22909130221995FF91EF91A1
S1131F90BF91AF919F918F917F916F915F914F917D
S1131FA03F912F910F900BBE0F900FBE0F901F907B
S1131FB018951F920F920FB60F9211240BB60F9221
S1131FC02F933F934F935F936F937F938F939F933D
S1131FD0AF93BF93EF93FF93E0913B21F0913C21AA
S1131FE0309729F080913122909132221995FF91F6
S1131FF0EF91BF91AF919F918F917F916F915F917D
S11320004F913F912F910F900BBE0F900FBE0F90E9
S11320101F9018951F920F920FB60F9211240BB6B2
S11320200F922F933F934F935F936F937F938F936D
S11320309F93AF93BF93EF93FF93E0913D21F09172
S11320403E21309729F080913322909134221995C2
S1132050FF91EF91BF91AF919F918F917F916F917C
S11320605F914F913F912F910F900BBE0F900FBE38
S11320700F901F9018951F920F920FB60F92112474
S11320800BB60F922F933F934F935F936F937F936E
S11320908F939F93AF93BF93EF93FF93E0913F216F
S11320A0F0914021309729F0809135229091362289
S11320B01995FF91EF91BF91AF919F918F917F916E
S11320C06F915F914F913F912F910F900BBE0F90A5
S11320D00FBE0F901F9018951F920F920FB60F927C
S11320E011240BB60F922F933F934F935F936F93EB
S11320F07F938F939F93AF93BF93EF93FF93E0915D
S11321004121F0914221309729F08091372290911A
S113211038221995FF91EF91BF91AF919F918F91C3
S11321207F916F915F914F913F912F910F900BBED3
S11321300F900FBE0F901F9018951F920F920FB61D
S11321400F9211240BB60F922F933F934F935F93EB
S11321506F937F938F939F93AF93BF93EF93FF936B
S1132160E0914321F0914421309729F08091392264
S113217090913A221995FF91EF91BF91AF919F9160
S11321808F917F916F915F914F913F912F910F901C
S11321900BBE0F900FBE0F901F9018951F920F92B9
S11321A00FB60F9211240BB60F922F933F934F93B8
S11321B05F936F937F938F939F93AF93BF93EF93AB
S11321C0FF93E0914521F0914621309729F08091C9
S11321D03B2290913C221995FF91EF91BF91AF91D1
S11321E09F918F917F916F915F914F913F912F912B
S11321F00F900BBE0F900FBE0F901F9018951F925B
S11322000F920FB60F9211240BB60F922F933F9398
S11322104F935F936F937F938F939F93AF93BF93EA
S1132220EF93FF93E0914721F0914821309729F0F3
S113223080913D2290913E221995FF91EF91BF919B
S1132240AF919F918F917F916F915F914F913F914A
S11322502F910F900BBE0F900FBE0F901F901895EB
S11322601F920F920FB60F9211240BB60F922F9359
S11322703F934F935F936F937F938F939F93AF930A
S1132280BF93EF93FF93E0914921F0914A21309756
S113229029F080913F22909140221995FF91EF916E
S11322A0BF91AF919F918F917F916F915F914F916A
S11322B03F912F910F900BBE0F900FBE0F901F9068
S11322C018951F920F920FB60F9211240BB60F920E
S11322D02F933F934F935F936F937F938F939F932A
S11322E0AF93BF93EF93FF93E0914B21F0914C2177
S11322F0309729F080914122909142221995FF91C3
S1132300EF91BF91AF919F918F917F916F915F9169
S11323104F913F912F910F900BBE0F900FBE0F90D6
S11323201F9018951F920F920FB60F9211240BB69F
S11323300F922F933F934F935F936F937F938F935A
S11323409F93AF93BF93EF93FF93E0914D21F0914F
S11323504E21309729F0809143229091442219957F
S1132360FF91EF91BF91AF919F918F917F916F9169
S11323705F914F913F912F910F900BBE0F900FBE25
S11323800F901F9018951F920F920FB60F92112461
S11323900BB60F922F933F934F935F936F937F935B
S11323A08F939F93AF93BF93EF93FF93E0914F214C
S11323B0F0915021309729F0809145229091462246
S11323C01995FF91EF91BF91AF919F918F917F915B
S11323D06F915F914F913F912F910F900BBE0F9092
S11323E00FBE0F901F9018951F920F920FB60F9269
S11323F011240BB60F922F933F934F935F936F93D8
S11324007F938F939F93AF93BF93EF93FF93E09149
S11324105121F0915221309729F0809147229091D7
S113242048221995FF91EF91BF91AF919F918F91A0
S11324307F916F915F914F913F912F910F900BBEC0
S11324400F900FBE0F901F9018951F920F920FB60A
S11324500F9211240BB60F922F933F934F935F93D8
S11324606F937F938F939F93AF93BF93EF93FF9358
S1132470E0915321F0915421309729F08091492221
S113248090914A221995FF91EF91BF91AF919F913D
S11324908F917F916F915F914F913F912F910F9009
S11324A00BBE0F900FBE0F901F9018951F920F92A6
S11324B00FB60F9211240BB60F922F933F934F93A5
S11324C05F936F937F938F939F93AF93BF93EF9398
S11324D0FF93E0915521F0915621309729F0809196
S11324E04B2290914C221995FF91EF91BF91AF919E
S11324F09F918F917F916F915F914F913F912F9118
S11325000F900BBE0F900FBE0F901F9018951F9247
S11325100F920FB60F9211240BB60F922F933F9385
S11325204F935F936F937F938F939F93AF93BF93D7
S1132530EF93FF93E0915721F0915821309729F0C0
S113254080914D2290914E221995FF91EF91BF9168
S1132550AF919F918F917F916F915F914F913F9137
S11325602F910F900BBE0F900FBE0F901F901895D8
S11325701F920F920FB60F9211240BB60F922F9346
S11325803F934F935F936F937F938F939F93AF93F7
S1132590BF93EF93FF93E0915921F0915A21309723
S11325A029F080914F22909150221995FF91EF913B
S11325B0BF91AF919F918F917F916F915F914F9157
S11325C03F912F910F900BBE0F900FBE0F901F9055
S11325D018951F920F920FB60F9211240BB60F92FB
S11325E02F933F934F935F936F937F938F939F9317
S11325F0AF93BF93EF93FF93E0915B21F0915C2144
S1132600309729F080915122909152221995FF918F
S1132610EF91BF91AF919F918F917F916F915F9156
S11326204F913F912F910F900BBE0F900FBE0F90C3
S11326301F9018951F920F920FB60F9211240BB68C
S11326400F922F933F934F935F936F937F938F9347
S11326509F93AF93BF93EF93FF93E0915D21F0912C
S11326605E21309729F0809153229091542219953C
S1132670FF91EF91BF91AF919F918F917F916F9156
S11326805F914F913F912F910F900BBE0F900FBE12
S11326900F901F9018951F920F920FB60F9211244E
S11326A00BB60F922F933F934F935F936F937F9348
S11326B08F939F93AF93BF93EF93FF93E0915F2129
S11326C0F0916021309729F0809155229091562203
S11326D01995FF91EF91BF91AF919F918F917F9148
S11326E06F915F914F913F912F910F900BBE0F907F
S11326F00FBE0F901F9018951F920F920FB60F9256
S113270011240BB60F922F933F934F935F936F93C4
S11327107F938F939F93AF93BF93EF93FF93E09136
S11327206121F0916221309729F080915722909194
S113273058221995FF91EF91BF91AF919F918F917D
S11327407F916F915F914F913F912F910F900BBEAD
S11327500F900FBE0F901F9018951F920F920FB6F7
S11327600F9211240BB60F922F933F934F935F93C5
S11327706F937F938F939F93AF93BF93EF93FF9345
S1132780E0916321F0916421309729F080915922DE
S113279090915A221995FF91EF91BF91AF919F911A
S11327A08F917F916F915F914F913F912F910F90F6
S11327B00BBE0F900FBE0F901F9018951F920F9293
S11327C00FB60F9211240BB60F922F933F934F9392
S11327D05F936F937F938F939F93AF93BF93EF9385
S11327E0FF93E0916521F0916621309729F0809163
S11327F05B2290915C221995FF91EF91BF91AF916B
S11328009F918F917F916F915F914F913F912F9104
S11328100F900BBE0F900FBE0F901F9018951F9234
S11328200F920FB60F9211240BB60F922F933F9372
S11328304F935F936F937F938F939F93AF93BF93C4
S1132840EF93FF93E0916721F0916821309729F08D
S113285080915D2290915E221995FF91EF91BF9135
S1132860AF919F918F917F916F915F914F913F9124
S11328702F910F900BBE0F900FBE0F901F901895C5
S11328801F920F920FB60F9211240BB60F922F9333
S11328903F934F935F936F937F938F939F93AF93E4
S11328A0BF93EF93FF93E0916921F0916A213097F0
S11328B029F080915F22909160221995FF91EF9108
S11328C0BF91AF919F918F917F916F915F914F9144
S11328D03F912F910F900BBE0F900FBE0F901F9042
S11328E018951F920F920FB60F9211240BB60F92E8
S11328F02F933F934F935F936F937F938F939F9304
S1132900AF93BF93EF93FF93E0916B21F0916C2110
S1132910309729F080916122909162221995FF915C
S1132920EF91BF91AF919F918F917F916F915F9143
S11329304F913F912F910F900BBE0F900FBE0F90B0
S11329401F9018951F920F920FB60F9211240BB679
S11329500F922F933F934F935F936F937F938F9334
S11329609F93AF93BF93EF93FF93E0916D21F09109
S11329706E21309729F080916322909164221995F9
S1132980FF91EF91BF91AF919F918F917F916F9143
S11329905F914F913F912F910F900BBE0F900FBEFF
S11329A00F901F9018951F920F920FB60F9211243B
S11329B00BB60F922F933F934F935F936F937F9335
S11329C08F939F93AF93BF93EF93FF93E0916F2106
S11329D0F0917021309729F08091652290916622C0
S11329E01995FF91EF91BF91AF919F918F917F9135
S11329F06F915F914F913F912F910F900BBE0F906C
S1132A000FBE0F901F9018951F920F920FB60F9242
S1132A1011240BB60F922F933F934F935F936F93B1
S1132A207F938F939F93AF93BF93EF93FF93E09123
S1132A307121F0917221309729F080916722909151
S1132A4068221995FF91EF91BF91AF919F918F915A
S1132A507F916F915F914F913F912F910F900BBE9A
S1132A600F900FBE0F901F9018951F920F920FB6E4
S1132A700F9211240BB60F922F933F934F935F93B2
S1132A806F937F938F939F93AF93BF93EF93FF9332
S1132A90E0917321F0917421309729F0809169229B
S1132AA090916A221995FF91EF91BF91AF919F91F7
S1132AB08F917F916F915F914F913F912F910F90E3
S1132AC00BBE0F900FBE0F901F9018951F920F9280
S1132AD00FB60F9211240BB60F922F933F934F937F
S1132AE05F936F937F938F939F93AF93BF93EF9372
S1132AF0FF93E0917521F0917621309729F0809130
S1132B006B2290916C221995FF91EF91BF91AF9137
S1132B109F918F917F916F915F914F913F912F91F1
S1132B200F900BBE0F900FBE0F901F9018951F9221
S1132B300F920FB60F9211240BB60F922F933F935F
S1132B404F935F936F937F938F939F93AF93BF93B1
S1132B50EF93FF93E0917721F0917821309729F05A
S1132B6080916D2290916E221995FF91EF91BF9102
S1132B70AF919F918F917F916F915F914F913F9111
S1132B802F910F900BBE0F900FBE0F901F901895B2
S1132B901F920F920FB60F9211240BB60F922F9320
S1132BA03F934F935F936F937F938F939F93AF93D1
S1132BB0BF93EF93FF93E0917921F0917A213097BD
S1132BC029F080916F22909170221995FF91EF91D5
S1132BD0BF91AF919F918F917F916F915F914F9131
S1132BE03F912F910F900BBE0F900FBE0F901F902F
S1132BF018951F920F920FB60F9211240BB60F92D5
S1132C002F933F934F935F936F937F938F939F93F0
S1132C10AF93BF93EF93FF93E0917B21F0917C21DD
S1132C20309729F080917122909172221995FF9129
S1132C30EF91BF91AF919F918F917F916F915F9130
S1132C404F913F912F910F900BBE0F900FBE0F909D
S1132C501F9018951F920F920FB60F9211240BB666
S1132C600F922F933F934F935F936F937F938F9321
S1132C709F93AF93BF93EF93FF93E0917D21F091E6
S1132C807E21309729F080917322909174221995B6
S1132C90FF91EF91BF91AF919F918F917F916F9130
S1132CA05F914F913F912F910F900BBE0F900FBEEC
S1132CB00F901F9018951F920F920FB60F92112428
S1132CC00BB60F922F933F934F935F936F937F9322
S1132CD08F939F93AF93BF93EF93FF93E0917F21E3
S1132CE0F0918021309729F080917522909176227D
S1132CF01995FF91EF91BF91AF919F918F917F9122
S1132D006F915F914F913F912F910F900BBE0F9058
S1132D100FBE0F901F9018951F920F920FB60F922F
S1132D2011240BB60F922F933F934F935F936F939E
S1132D307F938F939F93AF93BF93EF93FF93E09110
S1132D408121F0918221309729F08091772290910E
S1132D5078221995FF91EF91BF91AF919F918F9137
S1132D607F916F915F914F913F912F910F900BBE87
S1132D700F900FBE0F901F9018951F920F920FB6D1
S1132D800F9211240BB60F922F933F934F935F939F
S1132D906F937F938F939F93AF93BF93EF93FF931F
S1132DA0E0918321F0918421309729F08091792258
S1132DB090917A221995FF91EF91BF91AF919F91D4
S1132DC08F917F916F915F914F913F912F910F90D0
S1132DD00BBE0F900FBE0F901F9018951F920F926D
S1132DE00FB60F9211240BB60F922F933F934F936C
S1132DF05F936F937F938F939F93AF93BF93EF935F
S1132E00FF93E0918521F0918621309729F08091FC
S1132E107B2290917C221995FF91EF91BF91AF9104
S1132E209F918F917F916F915F914F913F912F91DE
S1132E300F900BBE0F900FBE0F901F9018951F920E
S1132E400F920FB60F9211240BB60F922F933F934C
S1132E504F935F936F937F938F939F93AF93BF939E
S1132E60EF93FF93E0918B21F0918C21309729F01F
S1132E7080918122909182221995FF91EF91BF91C7
S1132E80AF919F918F917F916F915F914F913F91FE
S1132E902F910F900BBE0F900FBE0F901F9018959F
S1132EA01F920F920FB60F9211240BB60F922F930D
S1132EB03F934F935F936F937F938F939F93AF93BE
S1132EC0BF93EF93FF93E0918D21F0918E21309782
S1132ED029F080918322909184221995FF91EF919A
S1132EE0BF91AF919F918F917F916F915F914F911E
S1132EF03F912F910F900BBE0F900FBE0F901F901C
S1132F0018951F920F920FB60F9211240BB60F92C1
S1132F102F933F934F935F936F937F938F939F93DD
S1132F20AF93BF93EF93FF93E0918F21F0919021A2
S1132F30309729F080918522909186221995FF91EE
S1132F40EF91BF91AF919F918F917F916F915F911D
S1132F504F913F912F910F900BBE0F900FBE0F908A
S1132F601F9018951F920F920FB60F9211240BB653
S1132F700F922F933F934F935F936F937F938F930E
S1132F809F93AF93BF93EF93FF93E0919121F091BF
S1132F909221309729F08091872290918822199567
S1132FA0FF91EF91BF91AF919F918F917F916F911D
S1132FB05F914F913F912F910F900BBE0F900FBED9
S1132FC00F901F9018951F920F920FB60F92112415
S1132FD00BB60F922F933F934F935F936F937F930F
S1132FE08F939F93AF93BF93EF93FF93E0919321BC
S1132FF0F0919421309729F08091892290918A222E
S11330001995FF91EF91BF91AF919F918F917F910E
S11330106F915F914F913F912F910F900BBE0F9045
S11330200FBE0F901F9018951F920F920FB60F921C
S113303011240BB60F922F933F934F935F936F938B
S11330407F938F939F93AF93BF93EF93FF93E091FD
S11330509521F0919621309729F080918B229091BF
S11330608C221995FF91EF91BF91AF919F918F9110
S11330707F916F915F914F913F912F910F900BBE74
S11330800F900FBE0F901F9018951F920F920FB6BE
S11330900F9211240BB60F922F933F934F935F938C
S11330A06F937F938F939F93AF93BF93EF93FF930C
S11330B0E0919721F0919821309729F080918D2209
S11330C090918E221995FF91EF91BF91AF919F91AD
S11330D08F917F916F915F914F913F912F910F90BD
S11330E00BBE0F900FBE0F901F9018951F920F925A
S11330F00FB60F9211240BB60F922F933F934F9359
S11331005F936F937F938F939F93AF93BF93EF934B
S1133110FF93E0919921F0919A21309729F08091C1
S11331208F22909190221995FF91EF91BF91AF91C9
S11331309F918F917F916F915F914F913F912F91CB
S11331400F900BBE0F900FBE0F901F9018951F92FB
S11331500F920FB60F9211240BB60F922F933F9339
S11331604F935F936F937F938F939F93AF93BF938B
S1133170EF93FF93E0919B21F0919C21309729F0EC
S113318080919122909192221995FF91EF91BF9194
S1133190AF919F918F917F916F915F914F913F91EB
S11331A02F910F900BBE0F900FBE0F901F9018958C
S11331B01F920F920FB60F9211240BB60F922F93FA
S11331C03F934F935F936F937F938F939F93AF93AB
S11331D0BF93EF93FF93E0919D21F0919E2130974F
S11331E029F080919322909194221995FF91EF9167
S11331F0BF91AF919F918F917F916F915F914F910B
S11332003F912F910F900BBE0F900FBE0F901F9008
S113321018951F920F920FB60F9211240BB60F92AE
S11332202F933F934F935F936F937F938F939F93CA
S1133230AF93BF93EF93FF93E0919F21F091A0216F
S1133240309729F080919522909196221995FF91BB
S1133250EF91BF91AF919F918F917F916F915F910A
S11332604F913F912F910F900BBE0F900FBE0F9077
S11332701F9018951F920F920FB60F9211240BB640
S11332800F922F933F934F935F936F937F938F93FB
S11332909F93AF93BF93EF93FF93E091A121F0919C
S11332A0A221309729F08091972290919822199524
S11332B0FF91EF91BF91AF919F918F917F916F910A
S11332C05F914F913F912F910F900BBE0F900FBEC6
S11332D00F901F9018951F920F920FB60F92112402
S11332E00BB60F922F933F934F935F936F937F93FC
S11332F08F939F93AF93BF93EF93FF93E091A32199
S1133300F091A421309729F08091992290919A22EA
S11333101995FF91EF91BF91AF919F918F917F91FB
S11333206F915F914F913F912F910F900BBE0F9032
S11333300FBE0F901F9018951F920F920FB60F9209
S113334011240BB60F922F933F934F935F936F9378
S11333507F938F939F93AF93BF93EF93FF93E091EA
S1133360A521F091A621309729F080919B2290917C
S11333709C221995FF91EF91BF91AF919F918F91ED
S11333807F916F915F914F913F912F910F900BBE61
S11333900F900FBE0F901F9018951F920F920FB6AB
S11333A00F9211240BB60F922F933F934F935F9379
S11333B06F937F938F939F93AF93BF93EF93FF93F9
S11333C0E091A721F091A821309729F080919D22C6
S11333D090919E221995FF91EF91BF91AF919F918A
S11333E08F917F916F915F914F913F912F910F90AA
S11333F00BBE0F900FBE0F901F9018951F920F9247
S11334000FB60F9211240BB60F922F933F934F9345
S11334105F936F937F938F939F93AF93BF93EF9338
S1133420FF93E091A921F091AA21309729F080918E
S11334309F229091A0221995FF91EF91BF91AF9196
S11334409F918F917F916F915F914F913F912F91B8
S11334500F900BBE0F900FBE0F901F9018951F92E8
S11334600F920FB60F9211240BB60F922F933F9326
S11334704F935F936F937F938F939F93AF93BF9378
S1133480EF93FF93E091AB21F091AC21309729F0B9
S11334908091A1229091A2221995FF91EF91BF9161
S11334A0AF919F918F917F916F915F914F913F91D8
S11334B02F910F900BBE0F900FBE0F901F90189579
S11334C01F920F920FB60F9211240BB60F922F93E7
S11334D03F934F935F936F937F938F939F93AF9398
S11334E0BF93EF93FF93E091C121F091C2213097F4
S11334F029F08091B7229091B8221995FF91EF910C
S1133500BF91AF919F918F917F916F915F914F91F7
S11335103F912F910F900BBE0F900FBE0F901F90F5
S113352018951F920F920FB60F9211240BB60F929B
S11335302F933F934F935F936F937F938F939F93B7
S1133540AF93BF93EF93FF93E091C321F091C42114
S1133550309729F08091B9229091BA221995FF9160
S1133560EF91BF91AF919F918F917F916F915F91F7
S11335704F913F912F910F900BBE0F900FBE0F9064
S11335801F9018951F920F920FB60F9211240BB62D
S11335900F922F933F934F935F936F937F938F93E8
S11335A09F93AF93BF93EF93FF93E091C921F09161
S11335B0CA21309729F08091BF229091C022199599
S11335C0FF91EF91BF91AF919F918F917F916F91F7
S11335D05F914F913F912F910F900BBE0F900FBEB3
S11335E00F901F9018951F920F920FB60F921124EF
S11335F00BB60F922F933F934F935F936F937F93E9
S11336008F939F93AF93BF93EF93FF93E091CB215D
S1133610F091CC21309729F08091C1229091C2225F
S11336201995FF91EF91BF91AF919F918F917F91E8
S11336306F915F914F913F912F910F900BBE0F901F
S11336400FBE0F901F9018951F920F920FB60F92F6
S113365011240BB60F922F933F934F935F936F9365
S11336607F938F939F93AF93BF93EF93FF93E091D7
S1133670CD21F091CE21309729F08091C3229091F1
S1133680C4221995FF91EF91BF91AF919F918F91B2
S11336907F916F915F914F913F912F910F900BBE4E
S11336A00F900FBE0F901F9018951F920F920FB698
S11336B00F9211240BB60F922F933F934F935F9366
S11336C06F937F938F939F93AF93BF93EF93FF93E6
S11336D0E091CF21F091D021309729F08091C5223B
S11336E09091C6221995FF91EF91BF91AF919F914F
S11336F08F917F916F915F914F913F912F910F9097
S11337000BBE0F900FBE0F901F9018951F920F9233
S11337100FB60F9211240BB60F922F933F934F9332
S11337205F936F937F938F939F93AF93BF93EF9325
S1133730FF93E091D121F091D221309729F080912B
S1133740C7229091C8221995FF91EF91BF91AF9133
S11337509F918F917F916F915F914F913F912F91A5
S11337600F900BBE0F900FBE0F901F9018951F92D5
S11337700F920FB60F9211240BB60F922F933F9313
S11337804F935F936F937F938F939F93AF93BF9365
S1133790EF93FF93E091D321F091D421309729F056
S11337A08091C9229091CA221995FF91EF91BF91FE
S11337B0AF919F918F917F916F915F914F913F91C5
S11337C02F910F900BBE0F900FBE0F901F90189566
S11337D01F920F920FB60F9211240BB60F922F93D4
S11337E03F934F935F936F937F938F939F93AF9385
S11337F0BF93EF93FF93E091DF21F091E0213097A5
S113380029F08091D5229091D6221995FF91EF91BC
S1133810BF91AF919F918F917F916F915F914F91E4
S11338203F912F910F900BBE0F900FBE0F901F90E2
S113383018951F920F920FB60F9211240BB60F9288
S11338402F933F934F935F936F937F938F939F93A4
S1133850AF93BF93EF93FF93E091E121F091E221C5
S1133860309729F08091D7229091D8221995FF9111
S1133870EF91BF91AF919F918F917F916F915F91E4
S11338804F913F912F910F900BBE0F900FBE0F9051
S11338901F9018951F920F920FB60F9211240BB61A
S11338A00F922F933F934F935F936F937F938F93D5
S11338B09F93AF93BF93EF93FF93E091E321F09134
S11338C0E421309729F08091D9229091DA22199538
S11338D0FF91EF91BF91AF919F918F917F916F91E4
S11338E05F914F913F912F910F900BBE0F900FBEA0
S11338F00F901F9018950E94FB02FDCF88E193E280
S11339000E94860886E193E20E9454028DEF92E2BF
S11339100E94251E8CEF92E20E9468028BEF92E2D5
S11339200E94D8068FED92E20E947A0308958FEDEB
S113393092E20E9480038BEF92E20E94D9068CEF00
S113394092E20E9469028DEF92E20E947A1E86E161
S113395093E20E94600288E193E20E94870808953E
S1133960EF920F931F93F8948CEF92E20E946A02F5
S11339708BEF92E20E9455070F2EF3E0EF2EF02D0D
S113398000E023E040E061E088E193E20E948808DF
S113399001E020E040E06DE086E193E20E94D8017E
S11339A000E011E020E031E04FED52E266E173E225
S11339B08DEF92E20E942B1E6DEF72E28FED92E288
S11339C00E943B048CEF92E20E949E0278941F9125
S11339D00F91EF9008950E94B01C8BEF92E20E9429
S11339E060078FED92E20E948803C8EC8FE39FE1A9
S11339F00197F1F700C000004091DD225091DE22D2
S1133A00CA0101968093DD229093DE229A013695B5
S1133A1027953695279536952795ABE7B4E10E940F
S1133A20632096958795C89F9001C99F300D1124F6
S1133A3042175307D9F68FED92E20E946C04D6CF59
S1133A40CF93DF93EC01EC81FD818AEA8083EC81E2
S1133A50FD818CEC8183EC81FD8182E0820F828385
S1133A60EC81FD8180E88383EC81FD81648385E0C2
S1133A70820F898730E02115310581F0DA01420F88
S1133A80531F65E070E09D91EC81FD81E60FF71F07
S1133A9090836F5F7F4FA417B507A9F7DF91CF918C
S1133AA00895FC01A481B5818AEA8C93A481B5812F
S1133AB08CEC11968C93A481B58183E012968C933F
S1133AC0A481B58181E813968C93A481B581149661
S1133AD06C93A481B58115964C9386E081870895F3
S1133AE00F931F93CF93DF93DC011496ED91FC9118
S1133AF01597AAEAA083EC01EC81FD81ACECA183CB
S1133B00AC81BD81E22FEE0FED5F1296EC93EC8158
S1133B10FD81A2E8A383EC81FD817483EC81FD81A6
S1133B206583B9016D5F7F4FE62FEE0FE987232B85
S1133B30D9F0E42FF52FAB01440F551F26E030E0F8
S1133B40EC01AC81BD81A20FB31F61816C93AC8188
S1133B50BD81A20FB31F6081329611966C932E5FC4
S1133B603F4F2417350761F7DF91CF911F910F91D4
S1133B700895FC01A481B5818AEA8C93A481B5815E
S1133B808CEC11968C93A481B58184E012968C936D
S1133B90A481B58183E813968C93A481B58114968E
S1133BA07C93A481B58115966C93A481B581440F4F
S1133BB016964C9387E0818708950F931F93CF93B4
S1133BC0DF93EC01CB018A016F8378874A875B8797
S1133BD00E9494208A839B83C8010E9494208C8332
S1133BE09D8319861E82DF91CF911F910F910895B5
S1133BF0CF93DF93EC018A819B810E9429218C81E0
S1133C009D810E942921DF91CF9108950895DC01BF
S1133C1057968D919C915897009739F0DC01ED915E
S1133C20FC910280F381E02D19950895DC015796EB
S1133C308D919C915897009739F0DC01ED91FC919E
S1133C400480F581E02D199508952BED30E2FC01F7
S1133C50208331830895CF92DF92EF92FF920F93E6
S1133C601F93CF93DF93EC017B016A01C9012F837A
S1133C7038870A871B870E9494208A839B83C80104
S1133C800E9494208C839D831D8A19861F861E8220
S1133C90188A198A1A8A1B8A87E08E8782E08C8B9D
S1133CA01E8AEC86FD86D701ED91FC910484F5858E
S1133CB0E02D4FE25FE1BE01C7011995D701ED91F7
S1133CC0FC910684F785E02D44E95FE1BE01C7015C
S1133CD01995C114D10419F0CF8AD88E02C0CF8BA4
S1133CE0D88FDF91CF911F910F91FF90EF90DF90CC
S1133CF0CF9008952BED30E2FC01208331830E94A4
S1133D00061E0895CF93DF93EC01962F4E8550E065
S1133D104B30510508F0A0C0FA018827E85FFE4F38
S1133D208F4F0C945B209A3A19F482E08E8794C0EA
S1133D3081E08E8791C09C3C19F483E08E878CC00F
S1133D4081E08E8789C09E831F861A8A1B8A84E03D
S1133D508E8782C08F85EA81FB81E80FF11D9083F5
S1133D602F8530E04F8158854217530718F489E0B6
S1133D708E8772C02A893B892927922F9295922790
S1133D80092E969596959025092E969590259770CF
S1133D90022E232F969507949795302D2927069464
S1133DA09795302529272A8B3B8B8F858F5F8F87AB
S1133DB04F858E81481350C088E08E87E881F98151
S1133DC050E06A817B810190F081E02DCE0119954C
S1133DD08F89988D009709F43FC0DC01ED91FC9127
S1133DE04E8150E06A817B810190F081E02D19952C
S1133DF033C0692F70E0688B798B86E08E872CC086
S1133E0028893989A901592B488B598B2A893B89DF
S1133E1042175307E9F488E08E87E881F9814E81DF
S1133E2050E06A817B810190F081E02DCE011995EB
S1133E308F89988D009781F0DC01ED91FC914E8182
S1133E4050E06A817B810190F081E02D199504C0D6
S1133E5089E08E8701C01E8ADF91CF910895CF93A8
S1133E60DF93EC018C859D85DC01ED91FC91028052
S1133E70F381E02D1995682FCE010E94821EDF91F7
S1133E80CF910895FC0117861682108A118A128A2E
S1133E90138A16860895CF93DF93EC018C898430BE
S1133EA038F48230B8F5882331F08130D1F039C04C
S1133EB0853081F136C081E08C8B1D8A8C859D858F
S1133EC02D89DC01ED91FC91AC81BD81A20FB11D66
S1133ED00480F581E02D6C9119958D898F5F8D8B10
S1133EE020C08C859D852D89DC01ED91FC91AC81F0
S1133EF0BD81A20FB11D0480F581E02D6C9119954F
S1133F008D898F5F8D8B9D89898598130AC083E085
S1133F108C8B07C08E89882319F0CE010E94421F22
S1133F201E8ADF91CF9108950E944B1F0895FC01D2
S1133F3006C08685893041F086858A3039F08685C9
S1133F408830B9F781E0089582E0089583E0089508
S1133F50FC01158A148A0E944B1F0895CF93DF93A6
S1133F60EC01E881F9810284F385E02D1995CE01F5
S1133F700E94A81FDF91CF910895CF93DF93EC01A6
S1133F80E881F9810684F785E02D1995CE010E9418
S1133F90A81FDF91CF910895CF93DF93EC01E881BF
S1133FA0F9810484F585E02D1995CE010E94A81F9E
S1133FB0DF91CF910895CF93DF93EC01E881F981EC
S1133FC050E00088F189E02D1995CE010E94A81FC8
S1133FD0DF91CF910895FC0106C08489843041F0BB
S1133FE08489853039F084898330B9F781E0089574
S1133FF082E0089583E0089521E0FC01268B0E946D
S1134000CC1F089521E0FC01268B0E94DB1F08953C
S11340100F931F93CF93DF938C01EB019881913819
S113402069F4D801ED91FC910480F581E02D2A8199
S1134030AB014D5F5F4F6981C80119959881933831
S113404099F46A8170E0D801ED91FC91362F222712
S11340508B81282BAE014C5F5F4F8981782B0280C6
S1134060F381E02DC8011995DF91CF911F910F9134
S113407008950E9408200895052E97FB1EF40094CD
S11340800E94532057FD07D00E94722007FC03D0E2
S11340904EF40C94532050954095309521953F4F04
S11340A04F4F5F4F089590958095709561957F4F20
S11340B08F4F9F4F0895EE0FFF1F881F8BBF0790F0
S11340C0F691E02D1994A29FB001B39FC001A39F64
S11340D0700D811D1124911DB29F700D811D11243D
S11340E0911D0895A1E21A2EAA1BBB1BFD010DC050
S11340F0AA1FBB1FEE1FFF1FA217B307E407F50794
S113410020F0A21BB30BE40BF50B661F771F881F6F
S1134110991F1A9469F760957095809590959B0105
S1134120AC01BD01CF010895CF93DF938230910597
S113413010F482E090E0E0912023F091212320E02C
S113414030E0C0E0D0E0309711F140815181481750
S11341505907C0F04817590761F482819381209769
S113416019F08A839B832BC080932023909321236F
S113417026C02115310519F04217530718F49A0186
S1134180BE01DF01EF010280F381E02DDCCF2115B8
S1134190310509F1281B390B2430310590F41296AE
S11341A08D919C9113976115710521F0FB01828318
S11341B0938304C08093202390932123FD0132969E
S11341C044C0FD01E20FF31F819391932250310902
S11341D02D933C933AC020911E2330911F23232B0F
S11341E041F4209102203091032020931E23309328
S11341F01F2320910020309101202115310541F425
S11342002DB73EB74091042050910520241B350B57
S1134210E0911E23F0911F23E217F307A0F42E1B55
S11342203F0B2817390778F0AC014E5F5F4F241716
S1134230350748F04E0F5F1F40931E2350931F23F2
S11342408193919302C0E0E0F0E0CF01DF91CF9140
S113425008950F931F93CF93DF93009709F48CC0B5
S1134260FC013297128213820091202310912123A2
S11342700115110581F420813181820F931F209152
S11342801E2330911F232817390779F5E0931E2345
S1134290F0931F2371C0D80140E050E0AE17BF0770
S11342A050F412962D913C911397AD0121153105CF
S11342B009F1D901F3CF9D01DA01228333836081AF
S11342C07181860F971F8217930769F4EC01288187
S11342D03981260F371F2E5F3F4F208331838A8118
S11342E09B8182839383452B29F4E0932023F093CD
S11342F0212342C01296ED93FC931397ED0149914B
S113430059919E01240F351FE217F30771F4808140
S11343109181840F951F02968D939C9311978281AE
S1134320938112968D939C931397E0E0F0E0D8016B
S113433012968D919C911397009719F0F8018C01B6
S1134340F6CF8D919C9198012E5F3F4F820F931F62
S113435020911E2330911F232817390769F43097C1
S113436029F4109220231092212302C01282138276
S113437000931E2310931F23DF91CF911F910F9160
S1134380089511E0C3EAD1E000E006C0802FFE01E9
S11343900E945B202196011DC53AD10780E00807E1
S10943A0A9F7F894FFCF19
S11343A6000022232000070605030104020003017E
S11343B6FF0200FEFFFDFEFCFDFBFDFAFCFA00FE1B
S11343C6FAFCF9FBF9000C0C0C228A0C228A0C224A
S11343D6890C228721831F7B1B6B0F79134B0103E7
S11343E62F134D0B2B0001050000000000D801130C
S11343F60216021902210228023002390242024B35
S11344060200000000250357032603DD1DF81D20C6
S11344161D511D701DB91D00000000AF07CA07D746
S113442607DF07E607ED07F207F707FC07010806AB
S11344360818082A083C084E086008000000007B9B
S11344461C7B1C7B1C7B1C7B1C7B1C7B1C7B1C7BAA
S11344561C7B1C7B1C7B1C7B1C7B1C7B1C7B1C0015
S11344660000007B1C7B1C7B1C7B1C7B1C7B1C7B3D
S11344761C7B1C7B1C7B1C000000003920071E16BD
S11144861EDD1DF81D201D511D701DB91D00E9
S9030000FC
