:100000000C948F020C94181C0C94491C0C947A1CB0
:100010000C94AB1C0C94DC1C0C940D1D0C943E1D1C
:100020000C946F1D0C94A01D0C94D11D0C94021EF9
:100030000C94331E0C94641E0C94951E0C94C61ED6
:100040000C94F71E0C94281F0C94591F0C948A1FB3
:100050000C94BB1F0C94EC1F0C941D200C944E2090
:100060000C947F200C94B0200C94E1200C9412216D
:100070000C9443210C9474210C94A5210C94D6214A
:100080000C9407220C9438220C9469220C949A2226
:100090000C94CB220C94FC220C942D230C945E2304
:1000A0000C948F230C94C0230C94F1230C942224E1
:1000B0000C9453240C9484240C94B5240C94E624BE
:1000C0000C9417250C9448250C9479250C94AA259A
:1000D0000C94DB250C940C260C943D260C946E2677
:1000E0000C949F260C94D0260C9401270C94322754
:1000F0000C9463270C9494270C94C5270C94F62732
:100100000C9427280C9458280C9489280C94BA280D
:100110000C94EB280C941C290C944D290C947E29EA
:100120000C94AF290C94E0290C94112A0C94C00271
:100130000C94C0020C94422A0C94732A0C94A42AA6
:100140000C94D52A0C94062B0C94372B0C94682B0A
:100150000C94992B0C94CA2B0C94FB2B0C942C2CE8
:100160000C945D2C0C948E2C0C94BF2C0C94F02CC5
:100170000C94212D0C94522D0C94C0020C94C002AE
:100180000C94C0020C94C0020C94C0020C94C002E7
:100190000C94C0020C94C0020C94C0020C94C002D7
:1001A0000C94832D0C94B42D0C94C0020C94C002BA
:1001B0000C94E52D0C94162E0C94472E0C94782E4E
:1001C0000C94A92E0C94DA2E0C94C0020C94C0024C
:1001D0000C94C0020C94C0020C94C0020C940B2F1F
:1001E0000C943C2F0C946D2F0C94C0020C94C00204
:1001F0000C94C0020C94C0020C94C002DE03600494
:100200006004D703600460046004E3033E046004F8
:10021000EA036004F1036004F8036004FF03600470
:10022000600460046004600406040D0414041B04EC
:100230003004600422046004370460046004600435
:1002400060046004600429046004530445044C0401
:10025000600460046004600460045A0485048B0434
:10026000910497049D04A304A904AF041F05BE04D0
:10027000C404C904CF04D504DB04E104E704ED049D
:100280001B341B3425342F343F348F349934CE340F
:10029000CE34CC34CC340C941B040C9437040C9422
:1002A00025340C94CF040C944C390C948F340C945A
:1002B00075360C947E3C0C946B3A0C94533A0C9427
:1002C000F8390C940A3B0C94233C0C945D360C9446
:1002D000123C0C947A330C94043D0C94143B0C9413
:1002E000D1340C94FF320C9491040C94613A0C9428
:1002F00022040C944C040C949D040C94A03C0C948B
:1003000099390C940F3B0C9497040C94A63A0C94D6
:100310009E390C94633C0C94EB3B0C94343A0C9453
:10032000013C0C94001C0C94823A0C94703A0C948E
:10033000B43B0C943A320C9485040C948B040C94CA
:100340005A3A0C9464360C94853C0C94DB040C945F
:1003500055360C94673B0C9461040C94A53C0C94AA
:10036000343B0C94C4040C940D040C9419060C94A6
:1003700083390C94CE340C9445040C947E360C9442
:100380009D3B0C9462040C947C390C94783C0C9446
:10039000193B0C94D13C0C94D7030C946B330C9404
:1003A0005B130C94E1040C9474390C94F33C0C949E
:1003B000ED040C9467390C94943A0C94033B0C9420
:1003C000663A0C949E2F0C94CC3A0C948A390C9477
:1003D000441B0C94E13B0C943E040C94D62F0C94DB
:1003E00030040C948D3C0C94E73A0C9429040C9442
:1003F000AA3C0C942C320C94E23C0C941D060C94F8
:10040000DA3B0C94C13B0C949A320C943F340C941C
:10041000413A0C94F03B0C94F43A0C945A040C942A
:100420001E3B0C9460040C94AF040C94B9030C9420
:10043000563B0C946C360C9406040C94D6390C94F0
:1004400011320C94C93B0C94CC340C94A3390C9409
:10045000233B0C94A12F0C949B3C0C941F050C94F3
:1004600053040C9499340C94E7390C94F8340C949C
:100470001B340C94A9040C945D350C94D5040C9495
:1004800077310C9414360C944F360C94DE030C9494
:100490001C060C9452360C94FF030C94453B0C94B0
:1004A00087360C94703C0C94E63B0C941D3A0C94EB
:1004B000E7040C94B4390C94AF3C0C9494390C942C
:1004C00011360C94483C0C94C5390C94493A0C9460
:1004D000B8030C9416060C941E060C94C9040C94D4
:1004E0008F390C94BE040C94963C0C94F1030C943C
:1004F000A3040C94E3030C94591A0C94C03C0C9480
:100500002F340C94783B0C94D33B0C94F8030C944C
:10051000FC3A0C9414040C94EA03A12FD62F112456
:100520001FBECFEFCDBFDFE3DEBF00E00CBF12E2A6
:10053000A0E0B0E2E8EEF0E800E00BBF02C00790F8
:100540000D92A43CB107D9F726E2A4ECB2E201C0B7
:100550001D92AB32B207E1F712E0CEE8D2E000E044
:1005600006C021970109802FFE010E94C33ECD38AD
:10057000D10780E00807A9F70E9404310C9462407B
:100580000C94000008950895FC0162837383942FF6
:10059000852F848395834683578310821182089523
:1005A0008F929F92AF92BF92EF92FF920F931F9301
:1005B000CF93DF93CDB7DEB72A97CDBFDEBF7C01E7
:1005C0008AE5898380E58A83852E9924AA24BB2421
:1005D000B22FAA279927882788299929AA29BB29D0
:1005E00049015A018824AA24BB24BA2CA92C982C8E
:1005F000882488299929AA29BB2949015A018824D4
:100600009924BB24892C9A2CAB2CBB2488299929AA
:10061000AA29BB298B839C83AD83BE83762767275A
:1006200076276F83788710270127102709871A8775
:100630002AE0AE014F5F5F4F66E5F701828193814B
:100640000E948635F701828193810E94C3352A96E4
:10065000CDBFDEBFDF91CF911F910F91FF90EF9043
:10066000BF90AF909F908F9008958F929F92AF927E
:10067000BF92EF92FF920F931F93CF93DF93CDB76B
:10068000DEB72A97CDBFDEBF7C018AE5898380EA89
:100690008A83852E9924AA24BB24B22FAA279927BE
:1006A000882788299929AA29BB2949015A01882420
:1006B000AA24BB24BA2CA92C982C882488299929EF
:1006C000AA29BB2949015A0188249924BB24892CD1
:1006D0009A2CAB2CBB2488299929AA29BB298B8366
:1006E0009C83AD83BE837627672776276F837887C1
:1006F00010270127102709871A872AE0AE014F5FCC
:100700005F4F66E5F701828193810E948635F7018C
:10071000828193810E94C3352A96CDBFDEBFDF91CF
:10072000CF911F910F91FF90EF90BF90AF909F904E
:100730008F9008950F931F93CF93DF931F92CDB7A0
:10074000DEB78C01198221E0AE014F5F5F4F66E595
:10075000FC01828193810E948635F8018281938118
:100760000E94C3350F90DF91CF911F910F91089593
:100770000895DC01633031F4FA0181811F968C9376
:100780001F9706C0663521F4FA0180818093C52247
:100790001F964C911F9750E04033510508F090C0D0
:1007A000FA018827E250FF4F8F4F0C94C33E80E838
:1007B00090E01C968D939C931D9708951C961D9216
:1007C0001C921D97089582E090E01C968D939C9357
:1007D0001D97089584E090E01C968D939C931D973F
:1007E000089588E090E01C968D939C931D97089542
:1007F00080E190E01C968D939C931D97089580E274
:1008000090E01C968D939C931D97089580E093E053
:100810001C968D939C931D97089580E093E01C9601
:100820008D939C931D97089580E092E01C968D9384
:100830009C931D97089580E091E01C968D939C9366
:100840001D97089580E090E21C968D939C931D97D0
:10085000089580E090E31C968D939C931D970895D6
:1008600080E090E11C968D939C931D97089580E005
:1008700090E41C968D939C931D97089580E095E0DD
:100880001C968D939C931D97089580E096E01C968E
:100890008D939C931D97089580E097E01C968D930F
:1008A0009C931D97089580E490E01C968D939C93F3
:1008B0001D97089580E094E01C968D939C931D975E
:1008C00008950895CF92DF92EF92FF920F931F93B6
:1008D000CF93DF938C01EB017A016901FA018081EA
:1008E00091810E947D1B9C01F2E0CF16D10409F09A
:1008F0007AC0FE013197E231F10508F0A0C08827E7
:10090000E25DFE4F8F4F0C94C33EF801E451FF4F60
:100910002083318394C0F801E251FF4F208331835B
:100920008EC0F801E051FF4F2083318388C0F80169
:10093000EE50FF4F2083318382C0F801EC50FF4F0F
:10094000208331837CC0F801E850FF4F208331833E
:1009500076C0F801EA50FF4F2083318370C0F70161
:1009600060817181828193810E94811BF801E6522E
:10097000FF4F608371838283938361C0F801E250EB
:10098000FF4F208331835BC0F801F39520833183CF
:1009900056C0F801EE5FFE4F2083318350C0F8014E
:1009A000EC5FFE4F208331834AC0F801EA5FFE4FBF
:1009B0002083318344C0F801E85FFE4F20833183F8
:1009C0003EC0F801E65FFE4F2083318338C0F80156
:1009D000E45FFE4F2083318332C0F801E25FFE4FB7
:1009E000208331832CC0C130D10551F420E030E0A8
:1009F000A601B701C80184519F4F0E94471B1FC029
:100A0000C530D10551F420E030E0A601B701C8019E
:100A10008C549F4F0E94471B12C0229781F4F8010B
:100A20008685863050F420E030E0A601B701C80189
:100A300082519F4F0E94471B02C00E948538DF9160
:100A4000CF911F910F91FF90EF90DF90CF9008957D
:100A50008F929F92AF92BF92CF92DF92EF92FF92CE
:100A60000F931F93CF93DF936C01FB017A01DC019D
:100A70008D909C90DA01CD91DC91C401BE010E9461
:100A80005A3E6C9F50016D9FB00C7C9FB00C11249E
:100A9000C081D181C819D909F80160817181D7015C
:100AA0006D937C93CE010E945A3E2617370760F45F
:100AB000329661917191D7016D937C93CE010E9422
:100AC0005A3E26173707A8F3F601A082B182DF91BC
:100AD000CF911F910F91FF90EF90DF90CF90BF903B
:100AE000AF909F908F9008952EE731E2FC01208314
:100AF000318308952EE731E2FC01208331830E9487
:100B00006A330895CF93DF931F921F92CDB7DEB75C
:100B1000FC01E852FF4F60817181CB01A0E0B0E0A1
:100B2000BC01CD01052E5AE0660F771F881F991F63
:100B30005A95D1F7502D24EF31E040E050E00E946B
:100B4000823EC901880F991F880F991F6FEF7FE0C0
:100B50000E94731B89839A8342E050E0BE016F5F5D
:100B60007F4F81E296E20E94C81B0F900F90DF91A9
:100B7000CF910895CF93DF93EC01CC5DDE4F888158
:100B800099810E94DA35888199810E94C3358881D4
:100B900099810E946035DF91CF910895CF93DF93C3
:100BA000EC01CC5DDE4F888199810E94953588816A
:100BB00099810E94C335DF91CF9108950F931F93C0
:100BC000CF93DF931F921F92CDB7DEB78C01CB017D
:100BD0000E947D1B89839A830C5D1E4F22E0AE012B
:100BE0004F5F5F4F63E0F801808191810E948635FD
:100BF000F801808191810E94C3350F900F90DF91A1
:100C0000CF911F910F910895FC018389882321F0D2
:100C100081EE95E20E9461380895FC018389882362
:100C200021F081EE95E20E945D3808950E9404064D
:100C300008950E940D0608950895089508958F92CD
:100C40009F92AF92BF92CF92DF92EF92FF920F935B
:100C5000CF93DF93EC016B017A01023081F018F43D
:100C6000013031F033C00330B9F0043011F12EC03F
:100C700081E090E088AF99AF8EAB9FAB44C081E03C
:100C800090E0FE01EE5AFF4F8083918386E090E072
:100C90003297808391831DC081E090E0FE01E4598A
:100CA000FF4F8083918383E090E03297808391832C
:100CB00010C086E090E0FE01EA57FF4F80839183E9
:100CC0008AE090E032978083918303C0013009F479
:100CD000B2C0802F90E0FE012AE1029FE00DF11DDD
:100CE0001124268D378DC216D30668F02AE1289F7D
:100CF000F001299FF00D1124EC0FFD1F848D958DBF
:100D00008C159D0528F4FE01E251FF4FC082D1826F
:100D1000C601880F991FFC01EC5DFE4D20813181D9
:100D2000FC01E25FFE4D0190F081E02DDC01A85056
:100D3000BF4DAD90BC9041E0A41AB108CF01821B19
:100D4000930BB5010E945A3E033021F4E4E6F0E033
:100D50002AE030E0522F432F2E153F0510F45E2D70
:100D60004F2D852F942FE817F90708F4CF01E02EB7
:100D7000F12C4E01AAE10A9F800C911C1124D40190
:100D80005A964D915C915B974217530781F40AE1A3
:100D90000E9DA0010F9D500D11244C0F5D1FDA0117
:100DA00058964D915C9159974E175F07A1F0D40169
:100DB0005A962D933C935B974AE14E9DD0014F9DEF
:100DC000B00D1124AC0FBD1F5896ED93FC935997AD
:100DD00041E09C964C93821B930B0E945A3E80E00C
:100DE00090E00E94781BB5010E94731B4BE04C9D64
:100DF00090014D9D300D1124820F931FFC01EE0FC9
:100E0000FF1FEA5FFF4D208131818AE18E9DF00155
:100E10008F9DF00D1124EC0FFD1F248B358B40A10D
:100E200051A1868997898417950711F1468B578BB5
:100E300081E085A71DC0C601880F991FFC01EC5DEC
:100E4000FE4D20813181FC01E25FFE4D0190F08179
:100E5000E02DDC01A850BF4DAD90BC90B1E0AB1AC5
:100E6000B108CF01821B930BB5010E945A3E72CF8D
:100E7000DF91CF910F91FF90EF90DF90CF90BF90D7
:100E8000AF909F908F9008953F924F925F926F9294
:100E90007F928F929F92AF92BF92CF92DF92EF920A
:100EA000FF920F931F93CF93DF93CDB7DEB72A97AF
:100EB000CDBFDEBF7C016B015A014901302E22E01B
:100EC000021701F1201720F041E0041741F041C062
:100ED00083E0081721F1A4E00A1771F13AC081E01C
:100EE00090E0F70180AF91AF86AB97ABDB018D91BE
:100EF0009C911197019709F49BC181E090E08D933B
:100F00009C9397C181E090E0F701EE5AFF4F8083F8
:100F1000918386E090E03297808391831EC081E0C8
:100F200090E0F701E459FF4F8083918383E090E0E4
:100F300032978083918311C086E090E0F701EA57F1
:100F4000FF4F808391838AE090E032978083918382
:100F500004C0B1E03B1609F46FC1F6012081318174
:100F6000832D90E0F7014AE1349EE00DF11D11243C
:100F7000468D578D2417350788F4D6014D935C9321
:100F80002AE1289FF001299FF00D1124EE0DFF1D8D
:100F9000848D958D8417950770F010C04AE1489FA5
:100FA000F001499FF00D1124EE0DFF1D848D958DEC
:100FB0008217930770F4F60180839183D6018D9197
:100FC0009C91F701E251FF4F8083918381E0F7010B
:100FD000818BD6012D913C91220F331FF901EC5DDD
:100FE000FE4D4081518149875A87F901E25FFE4DEC
:100FF000808191818F839887841B950BF901E8503C
:10100000FF4D60817181615071090E945A3E3B0120
:10101000B3E03B1208C08AE090E089879A8784E6B3
:1010200090E08F839887F5014081518189859A8569
:101030004817590708F020C1808391832F81388594
:101040002817390718F4D5012D933C9381E090E0DF
:101050008D839E8308E010E224E130E0AE014B5F17
:101060005F4FBE01695F7F4FCE0109960E94280540
:101070006D817E814AE1032D10E0F701439DE00D73
:10108000F11D112460A771A74F80588429853A85E6
:10109000C201821B930B0E945A3E62A773A726A32C
:1010A00037A30F5F1F4F409FD001419FB00D112408
:1010B000AE0DBF1D2D933C93408E518E9701205154
:1010C0003F4FD5018D919C9146A157A1841B950B53
:1010D00060A571A50E945A3EF90160837183D50114
:1010E0008D919C9136968083918381E0F701818B6D
:1010F000D601ED91FC91EE0FFF1FE850FF4D4080AF
:101100005180B1E04B1A5108F50180819181298508
:101110003A85821B930BB3010E945A3E80E090E017
:101120000E94781BB2010E94731BD6014D915C9105
:101130006BE0649F9001659F300D1124820F931F17
:10114000FC01EE0FFF1FEA5FFF4D80819181432D6F
:1011500050E0F701BAE13B9EE00DF11D1124848BB4
:10116000958BF401208131818217930708F05DC0CF
:101170008083918381E090E08D839E838AE1849FC8
:101180006001859FD00C1124CE0CDF1CD601549633
:101190008D919C9155978B839C8390968D919C917A
:1011A000919789839A8308E010E224E130E0AE0150
:1011B0004B5F5F4FBE016D5F7F4FCE0101960E9476
:1011C000280529813A81F60120A331A36D817E8112
:1011D00062A373A384899589821B930B0E945A3E54
:1011E00064A375A3268B378B8B819C81848B958B15
:1011F000F701EE50FF4FD4018D919C91D601821BD7
:10120000930B92966D917C9193970E945A3E6083C6
:101210007183F40180819181F701E850FF4F808351
:10122000918381E0D70151968C93F70181894BC05E
:1012300080E08111C3CE27C0D6012D913C91220FB1
:10124000331FF901EC5DFE4D4081518149875A877A
:10125000F901E25FFE4D808191818F839887841B25
:10126000950BF901E850FF4D608171816150710962
:101270000E945A3E3B01D7CE2F813885241735076F
:1012800008F4E1CE35CFF60120813181220F331FE2
:10129000F901EC5DFE4D4081518149875A87F90182
:1012A000E25FFE4D808191818F839887841B950B2F
:1012B000F901E850FF4D60817181615071090E9410
:1012C0005A3E3B01B0CE2A96CDBFDEBFDF91CF9113
:1012D0001F910F91FF90EF90DF90CF90BF90AF9054
:1012E0009F908F907F906F905F904F903F90089568
:1012F000BF92CF92DF92EF92FF920F931F93CF9303
:10130000DF9300D000D0CDB7DEB77C016A0181E069
:1013100090E08D839E83D7011E968C9190E09C0176
:101320002F5F3F4F0F2EFAE1BF2EF02DB29EF0013E
:10133000B39EF00D1124EE0DFF1D208131812B8312
:101340003C83B89EF001B99EF00D1124EE0DFF1DF7
:10135000808D918D89839A8308E010E224E130E04A
:10136000AE014B5F5F4FBE016F5F7F4FCE010396B3
:101370000E942805F70186856D817E81B89EE00D6B
:10138000F11D112460A771A72B813C8189819A816D
:10139000821B930B0E945A3E62A773A726A337A312
:1013A00014A6970120513F4FD6018D919C9146A1E3
:1013B00057A1841B950B60A571A50E945A3EF901A7
:1013C00060837183D6018D919C9136968083918341
:1013D0002696CDBFDEBFDF91CF911F910F91FF9079
:1013E000EF90DF90CF90BF900895BF92CF92DF92A1
:1013F000EF92FF920F931F93CF93DF9300D000D013
:10140000CDB7DEB77C016A0181E090E08D839E83D9
:10141000D7011E968C910F2EFAE1BF2EF02DF70109
:10142000B89EE00DF11D1124848995898B839C83DE
:101430008689978989839A8308E010E224E130E065
:10144000AE014B5F5F4FBE016D5F7F4FCE010196D6
:101450000E942805F70186856D817E81B89EE00D8A
:10146000F11D112462A373A329813A81848995898E
:10147000821B930B0E945A3E64A375A320A331A341
:1014800015A697012E503F4FD6018D919C9140A1FA
:1014900051A1841B950B62A173A10E945A3EF901D0
:1014A00060837183D6018D919C9136968083918360
:1014B0002696CDBFDEBFDF91CF911F910F91FF9098
:1014C000EF90DF90CF90BF9008957F928F929F9280
:1014D000AF92BF92CF92DF92EF92FF920F931F9342
:1014E000CF93DF93CDB7DEB72A97CDBFDEBF7C01A8
:1014F0008B016A01DB01ED91FC91CF01880F991FEF
:10150000DC01AC5DBE4D4D915C9149875A87DC0191
:10151000A25FBE4D8D919C918F8398872330D1F42B
:101520008AE090E089879A8784E690E08F839887A5
:10153000EE0FFF1FE850FF4D60817181615071090E
:101540008AE590E00E945A3E5B0181E090E08D8345
:101550009E8344C049855A85EE0FFF1FE850FF4D1A
:1015600060817181E1E0F0E0ED83FE83243079F564
:10157000F701E857FF4F86E090E080839183329631
:1015800021E030E020833183329647E050E0408311
:1015900051833E978083918332978CE090E08083E3
:1015A0009183729682E190E08083918332962083CA
:1015B0003183329621E130E020833183709780833C
:1015C0009183329783E290E0808391838EC0841B65
:1015D000950B615071090E945A3E5B01722E4801C1
:1015E00008E010E224E130E0AE014B5F5F4FBE0146
:1015F000695F7F4FCE0109960E9428056D817E812B
:10160000BAE17B9EE00CF11C1124F70160A771A7E1
:1016100029853A858F819885821B930B0E945A3EBB
:1016200062A773A726A337A314A6D401ED91FC915A
:10163000EE0FFF1FE850FF4D00811181015011098D
:10164000F60180819181821B930BB5010E945A3E65
:1016500080E090E00E94781BB8010E94731BD401C7
:101660004D915C916BE0649F9001659F300D11245A
:10167000820F931FFC01EE0FFF1FEA5FFF4D808179
:101680009181F701848B958B21E030E02D833E839F
:101690008B839C8380A191A189839A8308E010E2C7
:1016A00024E130E0AE014B5F5F4FBE016D5F7F4FC5
:1016B000CE0101960E94280529813A81D701909692
:1016C0002D933C9391976D817E8192966D937C933F
:1016D000939754968D919C915597821B930B0E94E2
:1016E0005A3EF70164A375A315A62A96CDBFDEBFA7
:1016F000DF91CF911F910F91FF90EF90DF90CF90EE
:10170000BF90AF909F908F907F9008958F929F92FF
:10171000AF92BF92CF92DF92EF92FF920F931F93FF
:10172000CF93DF936C017B01EA014901102FD901AE
:101730002D913C9148815981FB01608171810E940A
:101740001F06212FAE01B701C6010E94650A012FB5
:1017500010E0D7018D919C91F801EE0FFF1F5F0102
:10176000A00EB11EAA0CBB1CAC0CBD1CD501AA5608
:10177000BF4F8D939C938AE1809F9001819F300D94
:1017800011242C0D3D1DD4018D919C91D901909671
:101790004D915C919197841B950B92966D917C91E4
:1017A00093970E945A3ED501A656BF4F6D937C93E6
:1017B00088819981D90196964D915C919797841B68
:1017C000950B98966D917C9199970E945A3ED50100
:1017D000A856BF4F6D937C931197888199815E962F
:1017E0008D939C93D4018D919C91D501A854BF4FAA
:1017F0008D939C93F501EC54FF4F10821182F701F9
:10180000E080F18088EE93E0B7010E945A3E8B01A0
:1018100028813981A8EEB3E00E94CB3E980140E0D8
:1018200050E00E94823E49015A018AE698E1B701E0
:101830000E945A3EEB01CC0FDD1F660F771F660F2B
:10184000771F660F771FC60FD71FF601EE52FF4FA7
:10185000C083D1837601F4EDEF0EF11CDE01A5010A
:1018600094010E94DA3E28EE33E040E050E00E940E
:10187000823EC21BD30BD701CD93DC93F601EA5213
:10188000FF4F00831183DF91CF911F910F91FF9044
:10189000EF90DF90CF90BF90AF909F908F90089582
:1018A0004230D9F018F4413031F03EC0433011F1EC
:1018B000443069F139C021E030E0FC0120AF31AFA4
:1018C00026AB37ABFB0180819181019709F448C0B9
:1018D00081E090E080839183089521E030E0FC0175
:1018E000EE5AFF4F2083318326E030E03297208389
:1018F00031831CC021E030E0FC01E459FF4F20831C
:10190000318323E030E03297208331830FC026E01B
:1019100030E0FC01EA57FF4F208331832AE030E0BA
:1019200032972083318302C04130B1F0FB01208126
:101930003181FC015AE1459FE00DF11D1124468DD6
:10194000578D848D958D8217930740F081E0241781
:10195000350738F080E0089580E0089581E008952B
:1019600080E008950F931F93CF93DF93FC01D9017B
:101970008A579F4F26E030E0EC0128833983029795
:101980002AE030E0EC0128833983EB0188819981DA
:10199000069720F486E090E088839983CF018C57E6
:1019A0009F4FEC0188819981EB0128813981821751
:1019B000930710F488839983EB0188819981EF0163
:1019C000C251DF4F888399838D919C9111978E30FE
:1019D000910530F08DE090E08D939C93119707C0B6
:1019E000069728F486E090E08D939C931197EF0181
:1019F000C857DF4F86E090E0888399839F01265780
:101A00003F4F01E010E0E901088319832E5F3F4F4B
:101A100067E070E0E901688379832E503109E901BC
:101A200088839983CF0184589F4F2DE030E0EC01EB
:101A3000288339839F012E503F4F8D919C911197A0
:101A40000697E901888399832D913C911197CF01E5
:101A500088509F4FEC01288339836D917C9180EAF7
:101A600095E0689F9001699F300D789F300D11249B
:101A70003695279536952795A5ECB0E20E94CB3E8A
:101A8000929582958F7089279F708927DA018D93AF
:101A90009C93DF01A257BF4F82E190E08D939C930E
:101AA000119712960D931C931197129621E130E035
:101AB0002D933C93119750978D939C931197129768
:101AC00083E290E08D939C931197A059BF4FEA0158
:101AD0008881998142978D939C9388819981EA505E
:101AE000FF4F8083918381E0DF91CF911F910F9110
:101AF00008954F925F926F927F92AF92BF92CF9272
:101B0000DF92EF92FF920F931F93CF93DF93CDB7A6
:101B1000DEB72C97CDBFDEBF6C01FA01DB010D9162
:101B20001C9188EE93E0B8010E945A3E7B0122810D
:101B30003381A8EEB3E00E94CB3E970140E050E035
:101B40000E94823E29013A018AE698E1B8010E948A
:101B50005A3E8B01000F111FAB01440F551F440F5C
:101B6000551F440F551F040F151FF601EE52FF4F6E
:101B7000008311835601B4EDAB0EB11CD801A30153
:101B800092010E94DA3E28EE33E040E050E00E94ED
:101B9000823E021B130BF501008311833296E08213
:101BA000F18260E188E196E20E94783C60E288E19F
:101BB00096E20E94783C60E188E196E20E94853CD2
:101BC00060E288E196E20E94853C86E0FE0137965D
:101BD000DE01119601900D928A95E1F729813A81F3
:101BE0004B815C816D817E8180E090E02C96CDBF41
:101BF000DEBFDF91CF911F910F91FF90EF90DF90AB
:101C0000CF90BF90AF907F906F905F904F9008956E
:101C1000EF92FF920F931F93CF93DF9300D000D0EA
:101C2000CDB7DEB77C0183E090E08D839E8381E4B5
:101C300090E08B839C8386E190E089839A8382E0A5
:101C4000F7018687E451FF4F82E090E08083918323
:101C50006A30710550F481E090E07496808391833E
:101C60008BE490E08B839C8352C06431710578F4DF
:101C700082E090E0F701F3958083918386E490E021
:101C80008B839C838AE190E089839A8340C063328E
:101C9000710578F483E090E0F701F39580839183F8
:101CA00086E490E08B839C838AE190E089839A8329
:101CB0002EC06133710558F484E090E0F701F3958C
:101CC0008083918387E190E089839A8320C0683480
:101CD000710558F485E090E0F701F39580839183D6
:101CE00084E690E08B839C8312C086E090E0F7014D
:101CF000F3958083918381E090E08D839E8388ECCF
:101D000090E08B839C8380E290E089839A83F70143
:101D100006859E012F5F3F4FAE014D5F5F4FBE01B5
:101D20006B5F7F4FC7010E94860B81E0F701818BBB
:101D3000268530E087010C501F4FB901660F771FD1
:101D4000AB01420F531F440F551F4C545F4F4E0DB4
:101D50005F1D620F731F660F771F6A567F4F6E0DF0
:101D60007F1DC7010E94790DF801208331834283D2
:101D70005383648375832696CDBFDEBFDF91CF91F9
:101D80001F910F91FF90EF900895EF92FF920F93A4
:101D90001F93CF93DF9300D000D0CDB7DEB77C0187
:101DA00083E090E08D839E8381E490E08B839C832D
:101DB00086E190E089839A8382E0F7018687E45187
:101DC000FF4F82E090E080839183749660837183FB
:101DD0006330710569F138F46130710569F0623082
:101DE0007105B1F060C065307105F1F188F16630C0
:101DF000710509F445C057C085E090E0F701E25055
:101E0000FF4F808391838BE490E08B839C834BC056
:101E10008EE090E0F701E250FF4F8083918386E4EB
:101E200090E08B839C838AE190E089839A833BC016
:101E30008BE190E0F701E250FF4F8083918386E4CD
:101E400090E08B839C838AE190E089839A832BC006
:101E500089E290E0F701E250FF4F8083918387E1B0
:101E600090E089839A831FC08DE390E0F701E250F0
:101E7000FF4F8083918384E690E08B839C8313C023
:101E800085E590E0F701E250FF4F8083918381E088
:101E900090E08D839E8388EC90E08B839C8380E22E
:101EA00090E089839A8302E09E012F5F3F4FAE014D
:101EB0004D5F5F4FBE016B5F7F4FC7010E94860B76
:101EC00081E0F701818B268530E087010C501F4FA0
:101ED000B901660F771FAB01420F531F440F551F07
:101EE0004C545F4F4E0D5F1D620F731F660F771FBF
:101EF0006A567F4F6E0D7F1DC7010E94790DF80154
:101F00002083318342835383648375832696CDBFB8
:101F1000DEBFDF91CF911F910F91FF90EF90089559
:101F20002F923F924F925F926F927F928F929F92E9
:101F3000AF92BF92CF92DF92EF92FF920F93CF9327
:101F4000DF9300D000D0CDB7DEB77C01FC01EC5DA3
:101F5000FE4F60837183FC011786118A128A138AEF
:101F60003C01F4EE6F1AFEEF7F0AAA24A394B12C71
:101F7000F301A082B1824C01F2EE8F1AFEEF9F0AAC
:101F80000F2EF8E2CF2ED12CF02DF401C082D18299
:101F9000349710821182F30180819181369780837A
:101FA0009183F401808191813697808391833A9661
:101FB000108211820F2EFAE04F2E512CF02D4D82FF
:101FC0005E82CB82DC820F2EFEE02F2E312CF02D94
:101FD00029823A8204E09E012F5F3F4FAE014D5FA0
:101FE0005F4FBE016B5F7F4FC7010E94860B85E08C
:101FF00090E08D839E8380E590E08B839C838AE1D3
:1020000090E089839A8303E09E012F5F3F4FAE01EA
:102010004D5F5F4FBE016B5F7F4FC7010E94860B14
:1020200082E090E08D839E8388E790E08B839C83A1
:1020300084E290E089839A8302E09E012F5F3F4F04
:10204000AE014D5F5F4FBE016B5F7F4FC7010E94C6
:10205000860BAD82BE8284E690E08B839C8386E211
:1020600090E089839A8301E09E012F5F3F4FAE018C
:102070004D5F5F4FBE016B5F7F4FC7010E94860BB4
:1020800084E0F701868781E090E00E941B40F70121
:10209000E652FF4F6083718382839383729624E0BC
:1020A00030E020833183D701A251BF4FFE9726E055
:1020B00001900D922A95E1F7D701AC50BF4FF7017F
:1020C000E453FF4F26E001900D922A95E1F7F301CA
:1020D00020813181749720833183F4012081318103
:1020E0007497208331830E94811BF701E650FF4FD4
:1020F0006083718382839383349610821182329637
:10210000A082B18232968091B4249091B5248083CC
:102110009183329683E090E080839183329610829F
:10212000118236961082118232968DE090E0808383
:102130009183349610821182128213824D825E82C4
:10214000CB82DC8229823A8204E09E012F5F3F4FDE
:10215000AE014D5F5F4FBE016B5F7F4FC7010E94B5
:10216000860B47E063E088E196E20E94483CF70175
:10217000EE52FF4F6081718188E196E20E94963CA9
:102180006701F4EDCF0ED11CF6016081718188E109
:1021900096E20E949B3C21E0A70169E57AE188E193
:1021A00096E20E94AF3C21E0A70161E674E088E17D
:1021B00096E20E94D13C60E188E196E20E94783C80
:1021C00060E188E196E20E94853CF60160817181C0
:1021D00088E196E20E94A03C60E288E196E20E94DB
:1021E000783C60E288E196E20E94853C2696CDBF6D
:1021F000DEBFDF91CF910F91FF90EF90DF90CF90F6
:10220000BF90AF909F908F907F906F905F904F9016
:102210003F902F900895EF92FF920F931F93CF93CB
:10222000DF931F921F92CDB7DEB77C0183E090E071
:102230000E947D1B89839A8387010C5D1E4F22E0DB
:10224000AE014F5F5F4F63E0F801808191810E9492
:102250008635F801808191810E94C335A7014451E0
:102260005F4F2AE230E061E070E0F8018081918107
:102270000E949535F801808191810E94C33568EAFA
:1022800071E68EE196E20E94673984E090E0F70102
:10229000848795870F900F90DF91CF911F910F91B9
:1022A000FF90EF9008954F925F926F927F928F927E
:1022B0009F92AF92BF92CF92DF92EF92FF920F93D5
:1022C0001F93CF93DF93CDB7DEB72C97CDBFDEBF83
:1022D0008C01FA01DB012D913C9188EE93E0B9016C
:1022E0000E945A3E828193816C01D694C794223019
:1022F000310548F07B01E81AF90AB5E0EB0EF11C54
:1023000025E030E008C07B01E81AF90AEAE0EE0EA9
:10231000F11C2AE030E05801F4EEAF0EB11CA1E749
:10232000B2E00E94CB3E0F2EFAE04F2E512C612CD2
:10233000712CF02DA30192010E94823ED5012D93B4
:102340003C939601A1E7B2E00E94CB3EA30192012B
:102350000E94823E49015A01F801EA51FF4F208351
:1023600031836801B8EECB0ED11C9701A1E7B2E032
:102370000E94CB3EA30192010E94823EF60120837F
:10238000318332968082918260E188E196E20E94F8
:102390007E3C60E288E196E20E947E3C86E0FE019F
:1023A0003796DE01119601900D928A95E1F7298109
:1023B0003A814B815C816D817E8180E090E02C963A
:1023C000CDBFDEBFDF91CF911F910F91FF90EF90B6
:1023D000DF90CF90BF90AF909F908F907F906F9045
:1023E0005F904F900895CF93DF93EC01FC01EE5D79
:1023F000FE4F80819181892B29F080819181019705
:10240000808391838A89882309F489C0FE01E65E6E
:10241000FE4F80819181892B09F079C032978081AC
:102420009181892B09F04CC0329780819181892B51
:10243000D1F58C859D850297A1F522E044E650E018
:1024400065E071E080EE95E20E94EF3880EE95E263
:102450000E94233922E044E650E066E271E080EE1B
:1024600095E20E94EF3880EE95E20E94233922E047
:1024700044E650E069E471E080EE95E20E94EF38B6
:1024800080EE95E20E94233922E044E650E06DE5BB
:1024900071E080EE95E20E94EF3880EE95E20E94B6
:1024A00023391A8A05C18CE390E0FE01E85EFE4FF5
:1024B000808391833297808191810197808391837A
:1024C00084E690E0FE01E65EFE4F808391833297C2
:1024D000808191810197808391838C859D8502976E
:1024E000B1F4329780819181892B09F09CC032969A
:1024F000808191810A9708F4A4C095C0FE01E85E2E
:10250000FE4F80819181059708F4A4C0B1C0FE01FF
:10251000E65EFE4F808191810A97808391838B894B
:1025200081114DC0FE01E65EFE4F808191818634AF
:102530009105E9F53297208131813696808191812C
:102540002817390708F4ABC03897208131813696B7
:10255000808191812817390708F098C0A0C0FE013A
:10256000EA5EFE4F20813181369680819181281765
:10257000390728F080819181369780839183FE010D
:10258000E85EFE4F10821182329780819181019620
:1025900080839183FE01E85EFE4F808191810196E8
:1025A00080839183FE01E65EFE4F10821182FE0160
:1025B000E65EFE4F808191810A96808391838091AF
:1025C000062090910720892B21F584E690E08093E6
:1025D000062090930720809160089091610849E45B
:1025E000489F9001499F300D1124A5ECBEE40E9444
:1025F000CB3E96958795929582958F7089279F708F
:102600008927C05EDE4F8883998385E196E20E9428
:10261000493A80910620909107200A9780930620DE
:102620009093072045C022E049E150E068EE73E056
:1026300080EE95E20E94EF3880EE95E20E94233909
:1026400066CFFE01EA5EFE4F80819181892B09F4FD
:1026500055CF0EC022E044E650E068EE73E080EE15
:1026600095E20E94EF3880EE95E20E9423394FCF29
:1026700022E042E350E068EE73E080EE95E20E94D3
:10268000EF3880EE95E20E94233941CFFE01E25EF1
:10269000FE4F8081918136978083918383CFFE01A5
:1026A000E85EFE4F80819181CC9709F073CF57CFC0
:1026B000DF91CF9108950E94F311089588E196E289
:1026C0000E94703C60E188E196E20E94853C60E2F5
:1026D00088E196E20E94853CE0EAF6E081E08583AD
:1026E00082E0858308956F927F928F929F92AF923E
:1026F000BF92CF92DF92EF92FF920F931F93CF93EF
:10270000DF93CDB7DEB76497CDBFDEBF7C018C0110
:102710000C5D1E4F42E063E0D8018D919C910E94B8
:10272000D435F801808191810E94C335D8018D9103
:102730009C910E946035BFEFE9EFF0E0B150E040BE
:10274000F040E1F700C00000D7011C968D919C91EC
:102750001D979F70892B09F441C022E030E044EBC3
:1027600054E26CE070E0C7010E94CE05F701E05E24
:10277000FE4F80819181449728F481E090E070972A
:1027800080839183F701E05EFE4F808191814497C1
:1027900028F080819181899708F4C0C5F701E05E37
:1027A000FE4F80819181899728F083E090E07097B7
:1027B0008083918322E030E0A701405F5E4F63E1B8
:1027C00070E0C7010E94CE0522E030E0A701405E24
:1027D0005E4F6EE070E0C7010E94CE05F701848570
:1027E000958588739927892BE1F08091B424909185
:1027F000B5248D329140ACF069E270E0C7010E94CF
:10280000DE05D7011F968C911F9750968C93C701B8
:102810000E945E1381EE95E20E94813887E0F70105
:10282000808BD7011C968D919C911D978115B2E0EC
:102830009B0709F49EC444F58031910509F4CFC388
:102840008CF48230910509F448C324F4892B09F4EF
:102850004BC04EC58430910509F462C0089709F455
:10286000AAC346C58034910509F46FC324F4809748
:1028700009F4B5C33DC58038910509F440C0811500
:10288000914009F442C434C5811527E0920709F448
:1028900013C4ACF48115B4E09B0709F49CC42CF478
:1028A0008115934009F46EC423C5811525E0920774
:1028B00009F41CC48115964009F4ECC319C58115AF
:1028C000B0E29B0709F4C5C42CF48115904109F4CA
:1028D00088C40EC5811520E3920709F4E7C4811569
:1028E000904409F400C504C563E070E0C7010E948C
:1028F000DE0581E090E0F70184879587FDC4D7016C
:1029000052961C92C7010E945E1381EE95E20E94CE
:102910008138F701138A81EE95E20E945D38ECC49C
:10292000F701E250FF4FA080B18087011395D801D5
:10293000CD90DC907097808191818B8B9C8B3296AF
:102940008080918032966080718046E050E062E045
:1029500070E0C7010E94BA05BFEFE9EFF0E0B150A7
:10296000E040F040E1F700C0000046E050E065E0E4
:1029700070E0C7010E94BA052FEF89EF90E0215067
:1029800080409040E1F700C0000042E050E06DE080
:1029900070E0C7010E94BA05AFEFB9EFE0E0A150C7
:1029A000B040E040E1F700C0000042E050E061E0EC
:1029B00070E0C7010E94BA05FFEF29EF80E0F150F7
:1029C00020408040E1F700C0000042E050E06AE0B3
:1029D00070E0C7010E94BA059FEFA9EFB0E09150E7
:1029E000A040B040E1F700C0000042E050E06BE0E2
:1029F00070E0C7010E94BA05EFEFF9EF20E0E15067
:102A0000F0402040E1F700C00000F701E652FF4F20
:102A100060817181828193810E94811BF701E65060
:102A2000FF4F60837183828393838091B42490915C
:102A3000B5243896808391837E96808191817A97A0
:102A400080839183D8016D917C916C157D0591F106
:102A5000C7010E94C50EF701868590E0AC01440FC6
:102A6000551FFA01E80FF91F9F01220F331FF901CB
:102A7000EA56FF4FEE0DFF1D26E0D701A251BF4FD2
:102A800001900D922A95E1F7840F951F880F991FE9
:102A9000FC01EC54FF4FEE0DFF1D86E0D701AC505A
:102AA000BF4F01900D928A95E1F781E0D7015196D1
:102AB0008C9322C4F701E250FF4F608171816A1547
:102AC0007B0589F1C7010E94080EF701868590E019
:102AD000AC01440F551F9A01280F391F220F331FD5
:102AE000F901EA56FF4FEE0DFF1D26E0D701A25176
:102AF000BF4F01900D922A95E1F7840F951F880F23
:102B0000991FFC01EC54FF4FEE0DFF1D86E0D7012D
:102B1000AC50BF4F01900D928A95E1F781E0D7014B
:102B200051968C93E9C3F7014685E451FF4F01901C
:102B3000F081E02D4E1779F1D7011E96EC931E9788
:102B40009F013327A901440F551FCA01820F931F0C
:102B5000880F991F8A569F4FF701E80FF91F66E00B
:102B6000A251BF4F01900D926A95E1F7FA01E20F71
:102B7000F31FEE0FFF1FEC54FF4FEE0DFF1D86E01D
:102B8000D701AC50BF4F01900D928A95E1F781E0DB
:102B9000F701818BB1C3F7012AE1429FE00DF11DDE
:102BA000112480A591A5889E9001899E300D989E44
:102BB000300D112486A197A1820F931F898B9A8BC8
:102BC00082A193A1689E9001699E300D789E300D80
:102BD000112480A191A1820F931F8D879E87F701F9
:102BE000E251FF4F808191812B893C8982179307A5
:102BF00061F08B8B9C8BBE016D5E7F4FC7010E9485
:102C0000500C81E0D70151968C932D853E854989E2
:102C10005A896B897C89F7010685C7010E941F06C6
:102C2000F701E051FF4F208131812815390509F462
:102C300058C0D7011E968C91843019F480829182FD
:102C40004DC0482F50E0F701BAE18B9FE00DF11D18
:102C5000112480A591A5289FB001299F700D389F50
:102C6000700D112486A197A1860F971F898B9A8BCF
:102C7000208D318D2817390760F19A012F5F3F4F62
:102C80006AE1629FF001639FF00D1124EE0DFF1DBC
:102C90002081318182179307E0F08AE1849FF0015F
:102CA000859FF00D1124EE0DFF1D84A5882349F0AA
:102CB000AE014F5E5F4FBE016D5E7F4FC7010E9448
:102CC000780989899A89F701EA50FF4F80839183B7
:102CD00005C0F701E051FF4F8082918281E0F7014A
:102CE000818BF701EE50FF4F40815181461557050A
:102CF00009F467C0D7011E962C91622F70E0F7018E
:102D0000BAE12B9FE00DF11D112482A193A1489FF0
:102D1000D001499FB00D589FB00D112480A191A101
:102D20008A0F9B1F8D879E87243069F49E01235F45
:102D30003F4FAE014F5E5F4FBE016D5E7F4FC701DB
:102D40000E94B20C3BC02AE1269FF001279FF00DA4
:102D50001124EE0DFF1D248935892817390748F104
:102D60002AE1269FF001279FF00D1124EE0DFF1D93
:102D70002689378982179307E0F08AE1869FF00160
:102D8000879FF00D1124EE0DFF1D85A5882349F0C6
:102D9000AE01435F5F4FBE016D5E7F4FC7010E9472
:102DA000F5098D859E85F701E850FF4F808391835B
:102DB00005C0F701EE50FF4F6082718281E0F7019C
:102DC000818BD7011E960C91043069F09E01235F20
:102DD0003F4FAE014F5E5F4FBE016D5E7F4FC7013B
:102DE0000E9444070CC09E01235F3F4FAE014F5E1F
:102DF0005F4FBE016D5E7F4FC7010E94B20CF701AD
:102E00008685833081F4A7014C505F4FB701625132
:102E10007F4FC7010E9453112F83388749875A87F4
:102E20006B877C870FC0A7014C505F4FB701625181
:102E30007F4FC7010E94790D29833A834B835C83BE
:102E40006D837E83F701E850FF4F20813181A0EA36
:102E5000B5E00E94CB3E32972081318140E050E0C6
:102E60000E94823E64EF71E0C9010E94731BF7016A
:102E7000E852FF4F80839183D70151968C915197EF
:102E8000882309F439C21E968C9190E0DC01AA0FC8
:102E9000BB1FA80FB91FAA0FBB1FAA56BF4FAE0D6D
:102EA000BF1D86E0769601900D928A95E1F7F701B5
:102EB000868590E0DC01AA0FBB1FA80FB91FAA0FDF
:102EC000BB1FAC54BF4FAE0DBF1D86E0EC50FF4F93
:102ED00001900D928A95E1F70FC2D70152968C911D
:102EE0008823B9F0F701EA5EFE4F808191818D87DA
:102EF0009E873296808191818F87988B24E030E085
:102F0000AE01435F5F4F6FE070E0C7010E94CE05E6
:102F1000F3C1F701868590E0AC01440F551F840F83
:102F2000951F880F991FAC014A565F4F4E0D5F1DCC
:102F300026E030E062E070E0C7010E94CE056CE060
:102F400070E0C7010E94DE05D7C18091B424909142
:102F5000B5246AE070E00E946E3E6D877E878F87A1
:102F6000988B24E030E0AE01435F5F4F6FE070E08C
:102F7000C7010E94CE05F701E45EFE4F808191817A
:102F800036978083918338968081918136978083AC
:102F9000918381E0D70152968C938091B4249091D3
:102FA000B524823291400CF0A7C167E070E0C70100
:102FB0000E94DE05A1C18091B4249091B5248D3288
:102FC00091400CF499C169E270E0C7010E94DE05EE
:102FD000D7011F968C911F9750968C938DC1C70176
:102FE0000E94820581EE95E20E94CC38811112C0C8
:102FF000F701848595858097F1F060E170E0C70165
:103000000E94DE0580E290E0D7011C968D939C9390
:103010001D9711C0F70184859585409761F06EE09A
:1030200070E0C7010E94DE0580E190E0D7011C96A8
:103030008D939C931D97F701E652FF4F608171813C
:10304000828193810E94811B6D877E878F87988BF9
:1030500024E030E0AE01435F5F4F68E070E0C701FD
:103060000E94CE05F701E252FF4F6081718182819B
:1030700093810E94811B6D877E878F87988B24E0C8
:1030800030E0AE01435F5F4F64E170E0C7010E9432
:10309000CE0532C181EE95E20E948138F701E05EF3
:1030A000FE4F80819181CD9708F426C169E170E0DF
:1030B000C7010E94DE0520C181EE95E20E948138A1
:1030C000F701128A8091B4249091B5248232914004
:1030D0000CF012C181E0D70152968C935297509612
:1030E0006C9170E0C7010E94DE0506C181EE95E299
:1030F0000E9481388091680685FFFEC0F7016089D3
:1031000070E0C7010E94DE05F7C0F701E252FF4FF1
:10311000108211821282138281EE95E20E947D3824
:10312000F701EC5FFE4F808191812CEC289FB0016C
:10313000299F700D112482E196E20E940F3B81E0ED
:10314000D70153968C93539752968C938091B424C5
:103150009091B5248332914034F067E270E0C7016A
:103160000E94DE05C9C067E070E0C7010E94DE056D
:10317000C3C0C7010E9482056EE070E0C7010E94D3
:10318000DE05BAC06AE070E0C7010E94DE05C70133
:103190000E945E1381EE95E20E948138F701138A46
:1031A00081EE95E20E945D38F701E652FF4F4081C3
:1031B00051816281738181E090E00E9422401D86EE
:1031C0001E8642E050E0BE01635F7F4F81E296E2DF
:1031D0000E94C81B91C06AE070E0C7010E94DE0532
:1031E0008BC042E050E061E170E0C7010E94BA0587
:1031F000FFEF21EE84E0F15020408040E1F700C075
:10320000000042E050E062E170E0C7010E94BA05B0
:103210009FEFA1EEB4E09150A040B040E1F700C0B4
:103220000000F701E45FFE4F20813181C901A0E079
:10323000B0E09051AF4FBF4F2227382F492F5A2F60
:1032400000E01CE060E071E088E096E20E94350357
:1032500053C0EFEFF7EA21E6E150F0402040E1F7FC
:1032600000C0000042E050E062E170E0C7010E944F
:10327000BA05F701E25FFE4F2081318132978081EC
:103280009181280F391FC901A0E0B0E09051AF4FE4
:10329000BF4F2227382F492F5A2F00E011E060E05E
:1032A0007DE088E096E20E94350326C0F701E25FE8
:1032B000FE4F20813181329780819181280F391F03
:1032C000C901A0E0B0E09051AF4FBF4F2227382F87
:1032D000492F5A2F00E011E060E07DE088E096E29F
:1032E0000E94D00209C088E096E20E949A0304C0BE
:1032F00088E096E20E949A03D70151968C91882328
:10330000A9F0A70144515F4F2AE230E061E070E08C
:10331000C7010E94CE05F701118A08C082E090E043
:10332000F701E05FFE4F8083918338CA6496CDBF7A
:10333000DEBFDF91CF911F910F91FF90EF90DF9053
:10334000CF90BF90AF909F908F907F906F90089597
:10335000CF93DF93EC012E85213009F50E945E1397
:10336000CA52DF4F488159814536510550F020E05F
:1033700042E350E064EF71E080EE95E20E94EF38A6
:1033800009C05695479520E064EF71E080EE95E224
:103390000E94EF3880EE95E20E94233987C0FC013D
:1033A000E652FF4F80819181A281B3810196A11DD8
:1033B000B11D80839183A283B383349680819181F0
:1033C000A281B3810196A11DB11D80839183A28347
:1033D000B383233009F04CC03496808180FD04C053
:1033E00081E08093A60603C081E08093A506FE01DC
:1033F000EE51FF4F808180FD04C082E08093A606DD
:1034000003C082E08093A506FE01EE51FF4F80814C
:103410009181059710F010821182DE01AE51BF4FED
:10342000ED91FC911197EE58FF4FEE0FFF1FEC0F3F
:10343000FD1F808191818093360B9093370B8D9186
:103440009C91039769F420E044E650E064EF71E05A
:1034500080EE95E20E94EF3880EE95E20E942339DB
:10346000CE51DF4F888199810196888399831EC050
:10347000CA52DF4F488159814536510550F020E04E
:1034800042E350E064EF71E080EE95E20E94EF3895
:1034900009C05695479520E064EF71E080EE95E213
:1034A0000E94EF3880EE95E20E942339DF91CF91A0
:1034B00008950E94A81908950F931F93CF93DF9347
:1034C000EC018E85833009F044C088E196E20E94C9
:1034D000703CFE01EE51FF4F82E090E080839183CB
:1034E000E0EAF6E081E0858382E085838E010C517D
:1034F0001F4FF801608171817695679588E196E2AA
:103500000E949B3CF801608171817695679588E106
:1035100096E20E94A03CCA51DF4F88819981E0E089
:10352000FBE086AB97AB888199819695879580AFB4
:1035300091AF888199819695879582AF93AF10A2BC
:1035400011A2F8016081718188E196E20E94633CDA
:1035500027C08E010E521F4FF80180819181E0E05B
:10356000FBE086AB97ABCC52DF4F8881998180AF6F
:1035700091AF8881998182AF93AF6881798188E129
:1035800096E20E949B3C6881798188E196E20E94E4
:10359000A03CF8016081718188E196E20E94633C61
:1035A000DF91CF911F910F910895CF93DF93FC018D
:1035B000248535852031310521F02032310509F08F
:1035C00060C0EC018091480680FD51C08091C4220A
:1035D000811157C0FE01EE5DFE4F80819181892BE4
:1035E00009F44BC04EC08AE090E0FE01EE5DFE4F54
:1035F00080839183E854F10980819181A281B38114
:103600000196A11DB11D80839183A283B38334965B
:1036100080819181A281B3810196A11DB11D80831A
:103620009183A283B383FE01EC52FF4F808191818D
:10363000009729F001978093200B9093210BCE01E6
:103640000E945C1A8E85813049F4FFEF27E883E100
:10365000F15020408040E1F700C00000E0E4F6E0D7
:1036600084858E7F848781E08093C4220AC0109273
:10367000C422CE010E945E1304C08E85813099F66B
:10368000B2CFDF91CF9108950E94D51A0895CF92BD
:10369000DF92EF92FF920F931F93CF93DF937C0102
:1036A0008A0141155105B1F06B01C40ED51EEB0125
:1036B000261B370BC9018C0F9D1FB8010E945A3E73
:1036C000FC0141E0E427EE0DFF1D89918083CC15BC
:1036D000DD0581F7DF91CF911F910F91FF90EF9062
:1036E000DF90CF9008956817790708F4CB0108950B
:1036F0008617970708F4CB010895982789279827FC
:1037000008959B01BC01C901089508950895EF92A1
:103710000F931F93CF93DF93EC01E0E8F6E090EB7B
:10372000918380EC848B858B878B9583611102C09C
:1037300080E401C080E5011102C030E001C030E842
:10374000411102C090E001C090E2220F220FE22A54
:10375000E82AE32AE92A00EC1AE0F801E08280E096
:1037600091E00E94E53E8883998381E0F80181839E
:1037700080E09CE18093382390933923C0932E24DA
:10378000D0932F24DF91CF911F910F91EF90089547
:10379000CF93DF93EC014A835B834C835D83888105
:1037A00099810E94124080E18093860688819981E8
:1037B0004A815B819A01215031092A833B83FC01B4
:1037C000E20FF31F80818093C30ADF91CF910895A8
:1037D000FC0182819381892B79F040815181228182
:1037E0003381C901019782839383FA01E80FF91F9E
:1037F00080818093C30A089580E1809385060895AF
:103800000E94E81B089524E931E2FC012083318302
:103810000895089528EB31E2FC0120833183089557
:10382000089526ED31E2FC01208331830895089547
:103830001F920F920FB60F9211240BB60F922F9377
:103840003F934F935F936F937F938F939F93AF9328
:10385000BF93EF93FF93E091C822F091C922309774
:1038600029F08091BE239091BF231995FF91EF918C
:10387000BF91AF919F918F917F916F915F914F9188
:103880003F912F910F900BBE0F900FBE0F901F9086
:1038900018951F920F920FB60F9211240BB60F922C
:1038A0002F933F934F935F936F937F938F939F9348
:1038B000AF93BF93EF93FF93E091CA22F091CB2295
:1038C000309729F08091C0239091C1231995FF91E1
:1038D000EF91BF91AF919F918F917F916F915F9188
:1038E0004F913F912F910F900BBE0F900FBE0F90F5
:1038F0001F9018951F920F920FB60F9211240BB6BE
:103900000F922F933F934F935F936F937F938F9378
:103910009F93AF93BF93EF93FF93E091CC22F091ED
:10392000CD22309729F08091C2239091C32319951D
:10393000FF91EF91BF91AF919F918F917F916F9187
:103940005F914F913F912F910F900BBE0F900FBE43
:103950000F901F9018951F920F920FB60F9211247F
:103960000BB60F922F933F934F935F936F937F9379
:103970008F939F93AF93BF93EF93FF93E091CE22EA
:10398000F091CF22309729F08091C4239091C523E4
:103990001995FF91EF91BF91AF919F918F917F9179
:1039A0006F915F914F913F912F910F900BBE0F90B0
:1039B0000FBE0F901F9018951F920F920FB60F9287
:1039C00011240BB60F922F933F934F935F936F93F6
:1039D0007F938F939F93AF93BF93EF93FF93E09168
:1039E000D022F091D122309729F08091C623909176
:1039F000C7231995FF91EF91BF91AF919F918F913F
:103A00007F916F915F914F913F912F910F900BBEDE
:103A10000F900FBE0F901F9018951F920F920FB628
:103A20000F9211240BB60F922F933F934F935F93F6
:103A30006F937F938F939F93AF93BF93EF93FF9376
:103A4000E091D222F091D322309729F08091C823BF
:103A50009091C9231995FF91EF91BF91AF919F91DB
:103A60008F917F916F915F914F913F912F910F9027
:103A70000BBE0F900FBE0F901F9018951F920F92C4
:103A80000FB60F9211240BB60F922F933F934F93C3
:103A90005F936F937F938F939F93AF93BF93EF93B6
:103AA000FF93E091D422F091D522309729F08091B4
:103AB000CA239091CB231995FF91EF91BF91AF91BC
:103AC0009F918F917F916F915F914F913F912F9136
:103AD0000F900BBE0F900FBE0F901F9018951F9266
:103AE0000F920FB60F9211240BB60F922F933F93A4
:103AF0004F935F936F937F938F939F93AF93BF93F6
:103B0000EF93FF93E091D622F091D722309729F0DE
:103B10008091CC239091CD231995FF91EF91BF9186
:103B2000AF919F918F917F916F915F914F913F9155
:103B30002F910F900BBE0F900FBE0F901F901895F6
:103B40001F920F920FB60F9211240BB60F922F9364
:103B50003F934F935F936F937F938F939F93AF9315
:103B6000BF93EF93FF93E091D822F091D922309741
:103B700029F08091CE239091CF231995FF91EF9159
:103B8000BF91AF919F918F917F916F915F914F9175
:103B90003F912F910F900BBE0F900FBE0F901F9073
:103BA00018951F920F920FB60F9211240BB60F9219
:103BB0002F933F934F935F936F937F938F939F9335
:103BC000AF93BF93EF93FF93E091DA22F091DB2262
:103BD000309729F08091D0239091D1231995FF91AE
:103BE000EF91BF91AF919F918F917F916F915F9175
:103BF0004F913F912F910F900BBE0F900FBE0F90E2
:103C00001F9018951F920F920FB60F9211240BB6AA
:103C10000F922F933F934F935F936F937F938F9365
:103C20009F93AF93BF93EF93FF93E091DC22F091CA
:103C3000DD22309729F08091D2239091D3231995DA
:103C4000FF91EF91BF91AF919F918F917F916F9174
:103C50005F914F913F912F910F900BBE0F900FBE30
:103C60000F901F9018951F920F920FB60F9211246C
:103C70000BB60F922F933F934F935F936F937F9366
:103C80008F939F93AF93BF93EF93FF93E091DE22C7
:103C9000F091DF22309729F08091D4239091D523A1
:103CA0001995FF91EF91BF91AF919F918F917F9166
:103CB0006F915F914F913F912F910F900BBE0F909D
:103CC0000FBE0F901F9018951F920F920FB60F9274
:103CD00011240BB60F922F933F934F935F936F93E3
:103CE0007F938F939F93AF93BF93EF93FF93E09155
:103CF000E022F091E122309729F08091D623909133
:103D0000D7231995FF91EF91BF91AF919F918F911B
:103D10007F916F915F914F913F912F910F900BBECB
:103D20000F900FBE0F901F9018951F920F920FB615
:103D30000F9211240BB60F922F933F934F935F93E3
:103D40006F937F938F939F93AF93BF93EF93FF9363
:103D5000E091E222F091E322309729F08091D8237C
:103D60009091D9231995FF91EF91BF91AF919F91B8
:103D70008F917F916F915F914F913F912F910F9014
:103D80000BBE0F900FBE0F901F9018951F920F92B1
:103D90000FB60F9211240BB60F922F933F934F93B0
:103DA0005F936F937F938F939F93AF93BF93EF93A3
:103DB000FF93E091E422F091E522309729F0809181
:103DC000DA239091DB231995FF91EF91BF91AF9189
:103DD0009F918F917F916F915F914F913F912F9123
:103DE0000F900BBE0F900FBE0F901F9018951F9253
:103DF0000F920FB60F9211240BB60F922F933F9391
:103E00004F935F936F937F938F939F93AF93BF93E2
:103E1000EF93FF93E091E622F091E722309729F0AB
:103E20008091DC239091DD231995FF91EF91BF9153
:103E3000AF919F918F917F916F915F914F913F9142
:103E40002F910F900BBE0F900FBE0F901F901895E3
:103E50001F920F920FB60F9211240BB60F922F9351
:103E60003F934F935F936F937F938F939F93AF9302
:103E7000BF93EF93FF93E091E822F091E92230970E
:103E800029F08091DE239091DF231995FF91EF9126
:103E9000BF91AF919F918F917F916F915F914F9162
:103EA0003F912F910F900BBE0F900FBE0F901F9060
:103EB00018951F920F920FB60F9211240BB60F9206
:103EC0002F933F934F935F936F937F938F939F9322
:103ED000AF93BF93EF93FF93E091EA22F091EB222F
:103EE000309729F08091E0239091E1231995FF917B
:103EF000EF91BF91AF919F918F917F916F915F9162
:103F00004F913F912F910F900BBE0F900FBE0F90CE
:103F10001F9018951F920F920FB60F9211240BB697
:103F20000F922F933F934F935F936F937F938F9352
:103F30009F93AF93BF93EF93FF93E091EC22F091A7
:103F4000ED22309729F08091E2239091E323199597
:103F5000FF91EF91BF91AF919F918F917F916F9161
:103F60005F914F913F912F910F900BBE0F900FBE1D
:103F70000F901F9018951F920F920FB60F92112459
:103F80000BB60F922F933F934F935F936F937F9353
:103F90008F939F93AF93BF93EF93FF93E091EE22A4
:103FA000F091EF22309729F08091E4239091E5235E
:103FB0001995FF91EF91BF91AF919F918F917F9153
:103FC0006F915F914F913F912F910F900BBE0F908A
:103FD0000FBE0F901F9018951F920F920FB60F9261
:103FE00011240BB60F922F933F934F935F936F93D0
:103FF0007F938F939F93AF93BF93EF93FF93E09142
:10400000F022F091F122309729F08091E6239091EF
:10401000E7231995FF91EF91BF91AF919F918F91F8
:104020007F916F915F914F913F912F910F900BBEB8
:104030000F900FBE0F901F9018951F920F920FB602
:104040000F9211240BB60F922F933F934F935F93D0
:104050006F937F938F939F93AF93BF93EF93FF9350
:10406000E091F222F091F322309729F08091E82339
:104070009091E9231995FF91EF91BF91AF919F9195
:104080008F917F916F915F914F913F912F910F9001
:104090000BBE0F900FBE0F901F9018951F920F929E
:1040A0000FB60F9211240BB60F922F933F934F939D
:1040B0005F936F937F938F939F93AF93BF93EF9390
:1040C000FF93E091F422F091F522309729F080914E
:1040D000EA239091EB231995FF91EF91BF91AF9156
:1040E0009F918F917F916F915F914F913F912F9110
:1040F0000F900BBE0F900FBE0F901F9018951F9240
:104100000F920FB60F9211240BB60F922F933F937D
:104110004F935F936F937F938F939F93AF93BF93CF
:10412000EF93FF93E091F622F091F722309729F078
:104130008091EC239091ED231995FF91EF91BF9120
:10414000AF919F918F917F916F915F914F913F912F
:104150002F910F900BBE0F900FBE0F901F901895D0
:104160001F920F920FB60F9211240BB60F922F933E
:104170003F934F935F936F937F938F939F93AF93EF
:10418000BF93EF93FF93E091F822F091F9223097DB
:1041900029F08091EE239091EF231995FF91EF91F3
:1041A000BF91AF919F918F917F916F915F914F914F
:1041B0003F912F910F900BBE0F900FBE0F901F904D
:1041C00018951F920F920FB60F9211240BB60F92F3
:1041D0002F933F934F935F936F937F938F939F930F
:1041E000AF93BF93EF93FF93E091FA22F091FB22FC
:1041F000309729F08091F0239091F1231995FF9148
:10420000EF91BF91AF919F918F917F916F915F914E
:104210004F913F912F910F900BBE0F900FBE0F90BB
:104220001F9018951F920F920FB60F9211240BB684
:104230000F922F933F934F935F936F937F938F933F
:104240009F93AF93BF93EF93FF93E091FC22F09184
:10425000FD22309729F08091F2239091F323199554
:10426000FF91EF91BF91AF919F918F917F916F914E
:104270005F914F913F912F910F900BBE0F900FBE0A
:104280000F901F9018951F920F920FB60F92112446
:104290000BB60F922F933F934F935F936F937F9340
:1042A0008F939F93AF93BF93EF93FF93E091FE2281
:1042B000F091FF22309729F08091F4239091F5231B
:1042C0001995FF91EF91BF91AF919F918F917F9140
:1042D0006F915F914F913F912F910F900BBE0F9077
:1042E0000FBE0F901F9018951F920F920FB60F924E
:1042F00011240BB60F922F933F934F935F936F93BD
:104300007F938F939F93AF93BF93EF93FF93E0912E
:104310000023F0910123309729F08091F6239091AA
:10432000F7231995FF91EF91BF91AF919F918F91D5
:104330007F916F915F914F913F912F910F900BBEA5
:104340000F900FBE0F901F9018951F920F920FB6EF
:104350000F9211240BB60F922F933F934F935F93BD
:104360006F937F938F939F93AF93BF93EF93FF933D
:10437000E0910223F0910323309729F08091F823F4
:104380009091F9231995FF91EF91BF91AF919F9172
:104390008F917F916F915F914F913F912F910F90EE
:1043A0000BBE0F900FBE0F901F9018951F920F928B
:1043B0000FB60F9211240BB60F922F933F934F938A
:1043C0005F936F937F938F939F93AF93BF93EF937D
:1043D000FF93E0910423F0910523309729F0809119
:1043E000FA239091FB231995FF91EF91BF91AF9123
:1043F0009F918F917F916F915F914F913F912F91FD
:104400000F900BBE0F900FBE0F901F9018951F922C
:104410000F920FB60F9211240BB60F922F933F936A
:104420004F935F936F937F938F939F93AF93BF93BC
:10443000EF93FF93E0910623F0910723309729F043
:104440008091FC239091FD231995FF91EF91BF91ED
:10445000AF919F918F917F916F915F914F913F911C
:104460002F910F900BBE0F900FBE0F901F901895BD
:104470001F920F920FB60F9211240BB60F922F932B
:104480003F934F935F936F937F938F939F93AF93DC
:10449000BF93EF93FF93E0910823F09109233097A6
:1044A00029F08091FE239091FF231995FF91EF91C0
:1044B000BF91AF919F918F917F916F915F914F913C
:1044C0003F912F910F900BBE0F900FBE0F901F903A
:1044D00018951F920F920FB60F9211240BB60F92E0
:1044E0002F933F934F935F936F937F938F939F93FC
:1044F000AF93BF93EF93FF93E0910A23F0910B23C7
:10450000309729F080910024909101241995FF9112
:10451000EF91BF91AF919F918F917F916F915F913B
:104520004F913F912F910F900BBE0F900FBE0F90A8
:104530001F9018951F920F920FB60F9211240BB671
:104540000F922F933F934F935F936F937F938F932C
:104550009F93AF93BF93EF93FF93E0910C23F09160
:104560000D23309729F0809102249091032419950E
:10457000FF91EF91BF91AF919F918F917F916F913B
:104580005F914F913F912F910F900BBE0F900FBEF7
:104590000F901F9018951F920F920FB60F92112433
:1045A0000BB60F922F933F934F935F936F937F932D
:1045B0008F939F93AF93BF93EF93FF93E0910E235D
:1045C000F0910F23309729F08091042490910524D5
:1045D0001995FF91EF91BF91AF919F918F917F912D
:1045E0006F915F914F913F912F910F900BBE0F9064
:1045F0000FBE0F901F9018951F920F920FB60F923B
:1046000011240BB60F922F933F934F935F936F93A9
:104610007F938F939F93AF93BF93EF93FF93E0911B
:104620001023F0911123309729F080910624909166
:1046300007241995FF91EF91BF91AF919F918F91B1
:104640007F916F915F914F913F912F910F900BBE92
:104650000F900FBE0F901F9018951F920F920FB6DC
:104660000F9211240BB60F922F933F934F935F93AA
:104670006F937F938F939F93AF93BF93EF93FF932A
:10468000E0911223F0911323309729F080910824B0
:10469000909109241995FF91EF91BF91AF919F914E
:1046A0008F917F916F915F914F913F912F910F90DB
:1046B0000BBE0F900FBE0F901F9018951F920F9278
:1046C0000FB60F9211240BB60F922F933F934F9377
:1046D0005F936F937F938F939F93AF93BF93EF936A
:1046E000FF93E0911423F0911523309729F08091E6
:1046F0000A2490910B241995FF91EF91BF91AF91EE
:104700009F918F917F916F915F914F913F912F91E9
:104710000F900BBE0F900FBE0F901F9018951F9219
:104720000F920FB60F9211240BB60F922F933F9357
:104730004F935F936F937F938F939F93AF93BF93A9
:10474000EF93FF93E0911623F0911723309729F010
:1047500080910C2490910D241995FF91EF91BF91B8
:10476000AF919F918F917F916F915F914F913F9109
:104770002F910F900BBE0F900FBE0F901F901895AA
:104780001F920F920FB60F9211240BB60F922F9318
:104790003F934F935F936F937F938F939F93AF93C9
:1047A000BF93EF93FF93E0911823F0911923309773
:1047B00029F080910E2490910F241995FF91EF918B
:1047C000BF91AF919F918F917F916F915F914F9129
:1047D0003F912F910F900BBE0F900FBE0F901F9027
:1047E00018951F920F920FB60F9211240BB60F92CD
:1047F0002F933F934F935F936F937F938F939F93E9
:10480000AF93BF93EF93FF93E0911A23F0911B2393
:10481000309729F080911024909111241995FF91DF
:10482000EF91BF91AF919F918F917F916F915F9128
:104830004F913F912F910F900BBE0F900FBE0F9095
:104840001F9018951F920F920FB60F9211240BB65E
:104850000F922F933F934F935F936F937F938F9319
:104860009F93AF93BF93EF93FF93E0911C23F0913D
:104870001D23309729F080911224909113241995CB
:10488000FF91EF91BF91AF919F918F917F916F9128
:104890005F914F913F912F910F900BBE0F900FBEE4
:1048A0000F901F9018951F920F920FB60F92112420
:1048B0000BB60F922F933F934F935F936F937F931A
:1048C0008F939F93AF93BF93EF93FF93E0911E233A
:1048D000F0911F23309729F0809114249091152492
:1048E0001995FF91EF91BF91AF919F918F917F911A
:1048F0006F915F914F913F912F910F900BBE0F9051
:104900000FBE0F901F9018951F920F920FB60F9227
:1049100011240BB60F922F933F934F935F936F9396
:104920007F938F939F93AF93BF93EF93FF93E09108
:104930002023F0912123309729F080911624909123
:1049400017241995FF91EF91BF91AF919F918F918E
:104950007F916F915F914F913F912F910F900BBE7F
:104960000F900FBE0F901F9018951F920F920FB6C9
:104970000F9211240BB60F922F933F934F935F9397
:104980006F937F938F939F93AF93BF93EF93FF9317
:10499000E0912223F0912323309729F0809118246D
:1049A000909119241995FF91EF91BF91AF919F912B
:1049B0008F917F916F915F914F913F912F910F90C8
:1049C0000BBE0F900FBE0F901F9018951F920F9265
:1049D0000FB60F9211240BB60F922F933F934F9364
:1049E0005F936F937F938F939F93AF93BF93EF9357
:1049F000FF93E0912423F0912523309729F08091B3
:104A00001A2490911B241995FF91EF91BF91AF91BA
:104A10009F918F917F916F915F914F913F912F91D6
:104A20000F900BBE0F900FBE0F901F9018951F9206
:104A30000F920FB60F9211240BB60F922F933F9344
:104A40004F935F936F937F938F939F93AF93BF9396
:104A5000EF93FF93E0912623F0912723309729F0DD
:104A600080911C2490911D241995FF91EF91BF9185
:104A7000AF919F918F917F916F915F914F913F91F6
:104A80002F910F900BBE0F900FBE0F901F90189597
:104A90001F920F920FB60F9211240BB60F922F9305
:104AA0003F934F935F936F937F938F939F93AF93B6
:104AB000BF93EF93FF93E0912823F0912923309740
:104AC00029F080911E2490911F241995FF91EF9158
:104AD000BF91AF919F918F917F916F915F914F9116
:104AE0003F912F910F900BBE0F900FBE0F901F9014
:104AF00018951F920F920FB60F9211240BB60F92BA
:104B00002F933F934F935F936F937F938F939F93D5
:104B1000AF93BF93EF93FF93E0912A23F0912B2360
:104B2000309729F080912024909121241995FF91AC
:104B3000EF91BF91AF919F918F917F916F915F9115
:104B40004F913F912F910F900BBE0F900FBE0F9082
:104B50001F9018951F920F920FB60F9211240BB64B
:104B60000F922F933F934F935F936F937F938F9306
:104B70009F93AF93BF93EF93FF93E0912C23F0911A
:104B80002D23309729F08091222490912324199588
:104B9000FF91EF91BF91AF919F918F917F916F9115
:104BA0005F914F913F912F910F900BBE0F900FBED1
:104BB0000F901F9018951F920F920FB60F9211240D
:104BC0000BB60F922F933F934F935F936F937F9307
:104BD0008F939F93AF93BF93EF93FF93E0912E2317
:104BE000F0912F23309729F080912424909125244F
:104BF0001995FF91EF91BF91AF919F918F917F9107
:104C00006F915F914F913F912F910F900BBE0F903D
:104C10000FBE0F901F9018951F920F920FB60F9214
:104C200011240BB60F922F933F934F935F936F9383
:104C30007F938F939F93AF93BF93EF93FF93E091F5
:104C40003023F0913123309729F0809126249091E0
:104C500027241995FF91EF91BF91AF919F918F916B
:104C60007F916F915F914F913F912F910F900BBE6C
:104C70000F900FBE0F901F9018951F920F920FB6B6
:104C80000F9211240BB60F922F933F934F935F9384
:104C90006F937F938F939F93AF93BF93EF93FF9304
:104CA000E0913223F0913323309729F0809128242A
:104CB000909129241995FF91EF91BF91AF919F9108
:104CC0008F917F916F915F914F913F912F910F90B5
:104CD0000BBE0F900FBE0F901F9018951F920F9252
:104CE0000FB60F9211240BB60F922F933F934F9351
:104CF0005F936F937F938F939F93AF93BF93EF9344
:104D0000FF93E0913423F0913523309729F080917F
:104D10002A2490912B241995FF91EF91BF91AF9187
:104D20009F918F917F916F915F914F913F912F91C3
:104D30000F900BBE0F900FBE0F901F9018951F92F3
:104D40000F920FB60F9211240BB60F922F933F9331
:104D50004F935F936F937F938F939F93AF93BF9383
:104D6000EF93FF93E0913623F0913723309729F0AA
:104D700080912C2490912D241995FF91EF91BF9152
:104D8000AF919F918F917F916F915F914F913F91E3
:104D90002F910F900BBE0F900FBE0F901F90189584
:104DA0001F920F920FB60F9211240BB60F922F93F2
:104DB0003F934F935F936F937F938F939F93AF93A3
:104DC000BF93EF93FF93E0913823F091392330970D
:104DD00029F080912E2490912F241995FF91EF9125
:104DE000BF91AF919F918F917F916F915F914F9103
:104DF0003F912F910F900BBE0F900FBE0F901F9001
:104E000018951F920F920FB60F9211240BB60F92A6
:104E10002F933F934F935F936F937F938F939F93C2
:104E2000AF93BF93EF93FF93E0913A23F0913B232D
:104E3000309729F080913024909131241995FF9179
:104E4000EF91BF91AF919F918F917F916F915F9102
:104E50004F913F912F910F900BBE0F900FBE0F906F
:104E60001F9018951F920F920FB60F9211240BB638
:104E70000F922F933F934F935F936F937F938F93F3
:104E80009F93AF93BF93EF93FF93E0913C23F091F7
:104E90003D23309729F08091322490913324199545
:104EA000FF91EF91BF91AF919F918F917F916F9102
:104EB0005F914F913F912F910F900BBE0F900FBEBE
:104EC0000F901F9018951F920F920FB60F921124FA
:104ED0000BB60F922F933F934F935F936F937F93F4
:104EE0008F939F93AF93BF93EF93FF93E0913E23F4
:104EF000F0913F23309729F080913424909135240C
:104F00001995FF91EF91BF91AF919F918F917F91F3
:104F10006F915F914F913F912F910F900BBE0F902A
:104F20000FBE0F901F9018951F920F920FB60F9201
:104F300011240BB60F922F933F934F935F936F9370
:104F40007F938F939F93AF93BF93EF93FF93E091E2
:104F50004023F0914123309729F08091362490919D
:104F600037241995FF91EF91BF91AF919F918F9148
:104F70007F916F915F914F913F912F910F900BBE59
:104F80000F900FBE0F901F9018951F920F920FB6A3
:104F90000F9211240BB60F922F933F934F935F9371
:104FA0006F937F938F939F93AF93BF93EF93FF93F1
:104FB000E0914223F0914323309729F080913824E7
:104FC000909139241995FF91EF91BF91AF919F91E5
:104FD0008F917F916F915F914F913F912F910F90A2
:104FE0000BBE0F900FBE0F901F9018951F920F923F
:104FF0000FB60F9211240BB60F922F933F934F933E
:105000005F936F937F938F939F93AF93BF93EF9330
:10501000FF93E0914423F0914523309729F080914C
:105020003A2490913B241995FF91EF91BF91AF9154
:105030009F918F917F916F915F914F913F912F91B0
:105040000F900BBE0F900FBE0F901F9018951F92E0
:105050000F920FB60F9211240BB60F922F933F931E
:105060004F935F936F937F938F939F93AF93BF9370
:10507000EF93FF93E0914623F0914723309729F077
:1050800080913C2490913D241995FF91EF91BF911F
:10509000AF919F918F917F916F915F914F913F91D0
:1050A0002F910F900BBE0F900FBE0F901F90189571
:1050B0001F920F920FB60F9211240BB60F922F93DF
:1050C0003F934F935F936F937F938F939F93AF9390
:1050D000BF93EF93FF93E0914823F09149233097DA
:1050E00029F080913E2490913F241995FF91EF91F2
:1050F000BF91AF919F918F917F916F915F914F91F0
:105100003F912F910F900BBE0F900FBE0F901F90ED
:1051100018951F920F920FB60F9211240BB60F9293
:105120002F933F934F935F936F937F938F939F93AF
:10513000AF93BF93EF93FF93E0914A23F0914B23FA
:10514000309729F080914024909141241995FF9146
:10515000EF91BF91AF919F918F917F916F915F91EF
:105160004F913F912F910F900BBE0F900FBE0F905C
:105170001F9018951F920F920FB60F9211240BB625
:105180000F922F933F934F935F936F937F938F93E0
:105190009F93AF93BF93EF93FF93E0914C23F091D4
:1051A0004D23309729F08091422490914324199502
:1051B000FF91EF91BF91AF919F918F917F916F91EF
:1051C0005F914F913F912F910F900BBE0F900FBEAB
:1051D0000F901F9018951F920F920FB60F921124E7
:1051E0000BB60F922F933F934F935F936F937F93E1
:1051F0008F939F93AF93BF93EF93FF93E0914E23D1
:10520000F0914F23309729F08091442490914524C8
:105210001995FF91EF91BF91AF919F918F917F91E0
:105220006F915F914F913F912F910F900BBE0F9017
:105230000FBE0F901F9018951F920F920FB60F92EE
:1052400011240BB60F922F933F934F935F936F935D
:105250007F938F939F93AF93BF93EF93FF93E091CF
:105260005023F0915123309729F08091462490915A
:1052700047241995FF91EF91BF91AF919F918F9125
:105280007F916F915F914F913F912F910F900BBE46
:105290000F900FBE0F901F9018951F920F920FB690
:1052A0000F9211240BB60F922F933F934F935F935E
:1052B0006F937F938F939F93AF93BF93EF93FF93DE
:1052C000E0915223F0915323309729F080914824A4
:1052D000909149241995FF91EF91BF91AF919F91C2
:1052E0008F917F916F915F914F913F912F910F908F
:1052F0000BBE0F900FBE0F901F9018951F920F922C
:105300000FB60F9211240BB60F922F933F934F932A
:105310005F936F937F938F939F93AF93BF93EF931D
:10532000FF93E0915423F0915523309729F0809119
:105330004A2490914B241995FF91EF91BF91AF9121
:105340009F918F917F916F915F914F913F912F919D
:105350000F900BBE0F900FBE0F901F9018951F92CD
:105360000F920FB60F9211240BB60F922F933F930B
:105370004F935F936F937F938F939F93AF93BF935D
:10538000EF93FF93E0915623F0915723309729F044
:1053900080914C2490914D241995FF91EF91BF91EC
:1053A000AF919F918F917F916F915F914F913F91BD
:1053B0002F910F900BBE0F900FBE0F901F9018955E
:1053C0001F920F920FB60F9211240BB60F922F93CC
:1053D0003F934F935F936F937F938F939F93AF937D
:1053E000BF93EF93FF93E0915823F09159233097A7
:1053F00029F080914E2490914F241995FF91EF91BF
:10540000BF91AF919F918F917F916F915F914F91DC
:105410003F912F910F900BBE0F900FBE0F901F90DA
:1054200018951F920F920FB60F9211240BB60F9280
:105430002F933F934F935F936F937F938F939F939C
:10544000AF93BF93EF93FF93E0915A23F0915B23C7
:10545000309729F080915024909151241995FF9113
:10546000EF91BF91AF919F918F917F916F915F91DC
:105470004F913F912F910F900BBE0F900FBE0F9049
:105480001F9018951F920F920FB60F9211240BB612
:105490000F922F933F934F935F936F937F938F93CD
:1054A0009F93AF93BF93EF93FF93E0916023F091AD
:1054B0006123309729F080915624909157241995B3
:1054C000FF91EF91BF91AF919F918F917F916F91DC
:1054D0005F914F913F912F910F900BBE0F900FBE98
:1054E0000F901F9018951F920F920FB60F921124D4
:1054F0000BB60F922F933F934F935F936F937F93CE
:105500008F939F93AF93BF93EF93FF93E0916223A9
:10551000F0916323309729F0809158249091592479
:105520001995FF91EF91BF91AF919F918F917F91CD
:105530006F915F914F913F912F910F900BBE0F9004
:105540000FBE0F901F9018951F920F920FB60F92DB
:1055500011240BB60F922F933F934F935F936F934A
:105560007F938F939F93AF93BF93EF93FF93E091BC
:105570006423F0916523309729F080915A2490910B
:105580005B241995FF91EF91BF91AF919F918F91FE
:105590007F916F915F914F913F912F910F900BBE33
:1055A0000F900FBE0F901F9018951F920F920FB67D
:1055B0000F9211240BB60F922F933F934F935F934B
:1055C0006F937F938F939F93AF93BF93EF93FF93CB
:1055D000E0916623F0916723309729F080915C2455
:1055E00090915D241995FF91EF91BF91AF919F919B
:1055F0008F917F916F915F914F913F912F910F907C
:105600000BBE0F900FBE0F901F9018951F920F9218
:105610000FB60F9211240BB60F922F933F934F9317
:105620005F936F937F938F939F93AF93BF93EF930A
:10563000FF93E0916823F0916923309729F08091DE
:105640005E2490915F241995FF91EF91BF91AF91E6
:105650009F918F917F916F915F914F913F912F918A
:105660000F900BBE0F900FBE0F901F9018951F92BA
:105670000F920FB60F9211240BB60F922F933F93F8
:105680004F935F936F937F938F939F93AF93BF934A
:10569000EF93FF93E0916A23F0916B23309729F009
:1056A00080916024909161241995FF91EF91BF91B1
:1056B000AF919F918F917F916F915F914F913F91AA
:1056C0002F910F900BBE0F900FBE0F901F9018954B
:1056D0001F920F920FB60F9211240BB60F922F93B9
:1056E0003F934F935F936F937F938F939F93AF936A
:1056F000BF93EF93FF93E0916C23F0916D2330976C
:1057000029F080916224909163241995FF91EF9183
:10571000BF91AF919F918F917F916F915F914F91C9
:105720003F912F910F900BBE0F900FBE0F901F90C7
:1057300018951F920F920FB60F9211240BB60F926D
:105740002F933F934F935F936F937F938F939F9389
:10575000AF93BF93EF93FF93E0916E23F0916F238C
:10576000309729F080916424909165241995FF91D8
:10577000EF91BF91AF919F918F917F916F915F91C9
:105780004F913F912F910F900BBE0F900FBE0F9036
:105790001F9018951F920F920FB60F9211240BB6FF
:1057A0000F922F933F934F935F936F937F938F93BA
:1057B0009F93AF93BF93EF93FF93E0917023F0918A
:1057C0007123309729F08091662490916724199570
:1057D000FF91EF91BF91AF919F918F917F916F91C9
:1057E0005F914F913F912F910F900BBE0F900FBE85
:1057F0000F901F9018951F920F920FB60F921124C1
:105800000BB60F922F933F934F935F936F937F93BA
:105810008F939F93AF93BF93EF93FF93E091722386
:10582000F0917323309729F0809168249091692436
:105830001995FF91EF91BF91AF919F918F917F91BA
:105840006F915F914F913F912F910F900BBE0F90F1
:105850000FBE0F901F9018951F920F920FB60F92C8
:1058600011240BB60F922F933F934F935F936F9337
:105870007F938F939F93AF93BF93EF93FF93E091A9
:105880007423F0917523309729F080916A249091C8
:105890006B241995FF91EF91BF91AF919F918F91DB
:1058A0007F916F915F914F913F912F910F900BBE20
:1058B0000F900FBE0F901F9018951F920F920FB66A
:1058C0000F9211240BB60F922F933F934F935F9338
:1058D0006F937F938F939F93AF93BF93EF93FF93B8
:1058E000E0917623F0917723309729F080916C2412
:1058F00090916D241995FF91EF91BF91AF919F9178
:105900008F917F916F915F914F913F912F910F9068
:105910000BBE0F900FBE0F901F9018951F920F9205
:105920000FB60F9211240BB60F922F933F934F9304
:105930005F936F937F938F939F93AF93BF93EF93F7
:10594000FF93E0917823F0917923309729F08091AB
:105950006E2490916F241995FF91EF91BF91AF91B3
:105960009F918F917F916F915F914F913F912F9177
:105970000F900BBE0F900FBE0F901F9018951F92A7
:105980000F920FB60F9211240BB60F922F933F93E5
:105990004F935F936F937F938F939F93AF93BF9337
:1059A000EF93FF93E0917A23F0917B23309729F0D6
:1059B00080917024909171241995FF91EF91BF917E
:1059C000AF919F918F917F916F915F914F913F9197
:1059D0002F910F900BBE0F900FBE0F901F90189538
:1059E0001F920F920FB60F9211240BB60F922F93A6
:1059F0003F934F935F936F937F938F939F93AF9357
:105A0000BF93EF93FF93E0917C23F0917D23309738
:105A100029F080917224909173241995FF91EF9150
:105A2000BF91AF919F918F917F916F915F914F91B6
:105A30003F912F910F900BBE0F900FBE0F901F90B4
:105A400018951F920F920FB60F9211240BB60F925A
:105A50002F933F934F935F936F937F938F939F9376
:105A6000AF93BF93EF93FF93E0917E23F0917F2359
:105A7000309729F080917424909175241995FF91A5
:105A8000EF91BF91AF919F918F917F916F915F91B6
:105A90004F913F912F910F900BBE0F900FBE0F9023
:105AA0001F9018951F920F920FB60F9211240BB6EC
:105AB0000F922F933F934F935F936F937F938F93A7
:105AC0009F93AF93BF93EF93FF93E0918023F09167
:105AD0008123309729F0809176249091772419952D
