S01900004154786D6567614C6173657244696F64652E7372656388
S11300000C948D020C944F110C9480110C94B1112A
S11300100C94E2110C9413120C9444120C94751267
S11300200C94A6120C94D7120C9408130C94391344
S11300300C946A130C949B130C94CC130C94FD1322
S11300400C942E140C945F140C9490140C94C114FE
S11300500C94F2140C9423150C9454150C948515DB
S11300600C94B6150C94E7150C9418160C944916B8
S11300700C947A160C94AB160C94DC160C940D1795
S11300800C943E170C946F170C94A0170C94D11772
S11300900C9402180C9433180C9464180C9495184E
S11300A00C94C6180C94F7180C9428190C9459192C
S11300B00C948A190C94BB190C94EC190C941D1A09
S11300C00C944E1A0C947F1A0C94B01A0C94E11AE6
S11300D00C94121B0C94431B0C94741B0C94A51BC2
S11300E00C94D61B0C94071C0C94381C0C94691C9F
S11300F00C949A1C0C94CB1C0C94FC1C0C942D1D7D
S11301000C945E1D0C948F1D0C94C01D0C94F11D59
S11301100C94221E0C94531E0C94841E0C94B51E35
S11301200C94E61E0C94171F0C94481F0C94BE02EA
S11301300C94BE020C94791F0C94AA1F0C94DB1F20
S11301400C940C200C943D200C946E200C949F2055
S11301500C94D0200C9401210C9432210C94632132
S11301600C9494210C94C5210C94F6210C94272210
S11301700C9458220C9489220C94BE020C94BE0256
S11301800C94BE020C94BE020C94BE020C94BE02EB
S11301900C94BE020C94BE020C94BE020C94BE02DB
S11301A00C94BA220C94EB220C94BE020C94BE0262
S11301B00C941C230C944D230C947E230C94AF2399
S11301C00C94E0230C9411240C94BE020C94BE02F3
S11301D00C94BE020C94BE020C94BE020C944224F5
S11301E00C9473240C94A4240C94BE020C94BE02AC
S11301F00C94BE020C94BE020C94BE02D5035704A8
S113020057045704570457045704DA0335045704B2
S1130210E1035704E8035704EF035704F6035704B4
S11302205704570457045704FD0304040B04120431
S113023027045704190457042E0457045704570479
S1130240570457045704200457044A043C04430445
S11302505704570457045704570451047B0481047A
S113026087048D04930499049F04A5041D05B40414
S1130270BA04C004C604CC04D204D804DE04E404E2
S1130280522952295C2966297629C629D029052AAA
S1130290052A032A032A0C9419040C9435040C949B
S11302A0082A0C94D5240C94E62E0C94AE260C94B7
S11302B08C2F0C94942B0C940D250C9405310C94D8
S11302C014320C94F3300C94BC2E0C94932F0C9495
S11302D02E300C942F2A0C9487040C94B1280C947F
S11302E0AC2B0C94C62E0C94B4040C94942A0C9449
S11302F0D60F0C94C6290C94B52B0C948D040C9435
S1130300AE2E0C94D1270C9433310C9420040C940D
S113031022310C94D2310C944A040C9413310C9471
S1130320C12E0C9450300C9436280C94E1310C946A
S113033093040C94D82F0C947E2E0C94FE2F0C94C2
S1130340D8040C9455310C94C6040C94A5040C9454
S113035081040C9425320C94BE2B0C9458040C94F8
S11303607B040C94992E0C94CC040C940B040C94E4
S113037037110C94FB300C9419300C94BA040C947F
S11303808A060C944B300C94A2060C942A2F0C94DD
S1130390862B0C9443040C9444310C944F2F0C94EE
S11303A0192F0C94A62E0C9403320C94CB2E0C947F
S11303B07B100C94D5030C94D8240C948C2B0C94A3
S11303C0E4040C94082F0C94F72E0C94AA300C948B
S11303D0B52E0C94032A0C9466300C94B7310C940B
S11303E0B42F0C94482B0C94D7310C943C040C94EB
S11303F0BF310C94852F0C94A2280C94DA030C942E
S113040071270C942E040C94C8310C9436320C943D
S113041055300C941D050C9477300C9499040C946D
S113042027040C94A6060C94A22F0C94D52E0C949D
S113043088300C94A32B0C94C0040C947B2F0C9444
S113044041300C94D02E0C94052A0C949B2B0C94C4
S113045046300C9476290C94B7030C9418310C9400
S1130460D2040C9404040C943C300C94CF300C94BF
S1130470982F0C941D310C947A310C9435300C94D3
S113048063270C9452290C94CD310C94892B0C9431
S113049057040C9448270C949F040C9451040C9416
S11304A0E6300C94DE040C94A5060C94FD030C9425
S11304B0AA310C94F2310C94C62F0C9426300C946F
S11304C0732F0C94810A0C94A2310C94DC310C949B
S11304D0B0310C94B6030C949F060C94A7060C94AC
S11304E095310C94EF030C945C290C94E1030C9467
S11304F00C310C9466290C94D0290C949D2F0C94E7
S11305004B2B0C94F6030C9499300C9412040C9419
S1130510E8030C94662FD8240D2511241FBECFEFB9
S1130520CDBFDFE3DEBF00E00CBF13E2A0E0B0E22A
S1130530ECE6FBE600E00BBF02C007900D92AC387E
S1130540B107D9F726E2ACE8B3E201C01D92AF349B
S1130550B207E1F712E0CCE8D2E000E006C0219750
S11305600109802FFE010E940534CB38D10780E0B9
S11305700807A9F70E943B260C94A4350C940000AC
S113058008950895FC0162837383942F852F8483D7
S11305909583468357831082118208958F929F9288
S11305A0AF92BF92EF92FF920F931F93CF93DF937B
S11305B0CDB7DEB72A97CDBFDEBF7C018AE589833C
S11305C080E58A83852E9924AA24BB24B22FAA27E6
S11305D09927882788299929AA29BB2949015A01D9
S11305E08824AA24BB24BA2CA92C982C88248829D2
S11305F09929AA29BB2949015A0188249924BB2491
S1130600892C9A2CAB2CBB2488299929AA29BB298B
S11306108B839C83AD83BE837627672776276F837E
S1130620788710270127102709871A872AE0AE0147
S11306304F5F5F4F66E5F701828193810E94BD2A77
S1130640F701828193810E94FA2A2A96CDBFDEBFE8
S1130650DF91CF911F910F91FF90EF90BF90AF90DA
S11306609F908F9008958F929F92AF92BF92EF9236
S1130670FF920F931F93CF93DF93CDB7DEB72A97E3
S1130680CDBFDEBF7C018AE5898380EA8A83852E1B
S11306909924AA24BB24B22FAA279927882788291A
S11306A09929AA29BB2949015A018824AA24BB24CF
S11306B0BA2CA92C982C882488299929AA29BB29E1
S11306C049015A0188249924BB24892C9A2CAB2CE7
S11306D0BB2488299929AA29BB298B839C83AD83B0
S11306E0BE837627672776276F83788710270127AD
S11306F0102709871A872AE0AE014F5F5F4F66E52E
S1130700F701828193810E94BD2AF701828193813E
S11307100E94FA2A2A96CDBFDEBFDF91CF911F91A6
S11307200F91FF90EF90BF90AF909F908F9008959E
S11307300F931F93CF93DF931F92CDB7DEB78C0136
S1130740198221E0AE014F5F5F4F66E5FC018281B3
S113075093810E94BD2AF801828193810E94FA2A22
S11307600F90DF91CF911F910F9108950895DC01AF
S1130770633031F4FA0181811F968C931F9706C070
S1130780663521F4FA01808180938D231F964C9164
S11307901F9750E04033510508F089C0FA018827BB
S11307A0E250FF4F8F4F0C9405341C961D921C92FF
S11307B01D97089582E090E01C968D939C931D975D
S11307C0089584E090E01C968D939C931D97089562
S11307D088E090E01C968D939C931D97089580E18A
S11307E090E01C968D939C931D97089580E290E071
S11307F01C968D939C931D97089580E093E01C961E
S11308008D939C931D97089580E093E01C968D939F
S11308109C931D97089580E092E01C968D939C9381
S11308201D97089580E091E01C968D939C931D97ED
S1130830089580E090E21C968D939C931D970895F3
S113084080E090E31C968D939C931D97089580E01F
S113085090E11C968D939C931D97089580E090E4FD
S11308601C968D939C931D97089580E095E01C96AB
S11308708D939C931D97089580E096E01C968D932C
S11308809C931D97089580E097E01C968D939C930C
S11308901D97089580E490E01C968D939C931D977A
S11308A0089580E094E01C968D939C931D97089581
S11308B0CF92DF92EF92FF920F931F93CF93DF9328
S11308C08C01EB017A016901FA01808191810E9416
S11308D0B4109C01F2E0CF16D10409F07BC0FE01F4
S11308E03197E231F10508F0A8C08827E25DFE4F98
S11308F08F4F0C940534F801E85BFF4F208331835C
S11309009CC0F801E65BFF4F2083318396C0F80159
S1130910E45BFF4F2083318390C0F801E25BFF4F1B
S1130920208331838AC0F801E05BFF4F2083318349
S113093084C0F801EE5AFF4F208331837EC0F80152
S1130940EC5AFF4F2083318378C0F70160817181B5
S1130950828193810E94B810F801E05CFF4F6083AC
S113096071838283938369C0F801E65AFF4F208321
S1130970318363C0F801E45AFF4F208331835DC0A3
S1130980F801E25AFF4F2083318357C0F801E05A3F
S1130990FF4F2083318351C0F801EE59FF4F20836C
S11309A031834BC0F801EC59FF4F2083318345C09C
S11309B0F801EA59FF4F208331833FC0F801E85919
S11309C0FF4F2083318339C0F801E659FF4F20835C
S11309D0318333C0C130D10551F420E030E0A601A9
S11309E0B701C801885B9F4F0E947E1026C0C530A6
S11309F0D10549F420E030E0A601B701C801C29650
S1130A000E947E101AC02297C1F4F80186858630B0
S1130A1090F490E09C01220F331F820F931F880FE4
S1130A20991F4A9620E030E0A601B701800F911F7C
S1130A300E947E1002C00E94B72DDF91CF911F91BA
S1130A400F91FF90EF90DF90CF90089526E432E26B
S1130A50FC0120833183089526E432E2FC012083E3
S1130A6031830E94A1280895CF93DF931F921F9290
S1130A70CDB7DEB7FC0186AD20E030E0382F330F70
S1130A80330F369527953695279536952795ABE7F9
S1130A90B4E10E940D3496958795880F991F880FAD
S1130AA0991F89839A8342E050E0BE016F5F7F4FB4
S1130AB085E496E20E94FF100F900F90DF91CF9192
S1130AC008954F925F926F927F928F929F92AF920E
S1130AD0BF92CF92DF92EF92FF920F931F93CF9327
S1130AE0DF9300D000D0CDB7DEB77C018B01FB01D2
S1130AF08080918088EE93E0B4010E949C335B0176
S1130B0022813381A8EEB3E00E940D34950140E0C8
S1130B1050E00E94C43329013A01F801C480D58011
S1130B208AE698E1B4010E949C338B01000F111FE7
S1130B30660F771F660F771F660F771F060F171F45
S1130B40F70100AF11AFD801A30192010E941C3438
S1130B5028EE33E040E050E00E94C433021B130B44
S1130B60F70102AF13AFA4AEB5AE88EC8C9D900133
S1130B708D9D300D11243695279536952795ABE735
S1130B80B4E10E940D348C011695079509831A83EC
S1130B909601A8ECB0E00E940D349B01AC01C301A6
S1130BA0B2010E948C3320EA36E841E050E00E9412
S1130BB0C433122F822F932F8B839C83C301B201E2
S1130BC02AE030E040E050E00E94C433622F822FDC
S1130BD0932F8D839E83202F3A81412F5C817E81C8
S1130BE080E090E02696CDBFDEBFDF91CF911F91CC
S1130BF00F91FF90EF90DF90CF90BF90AF909F90B8
S1130C008F907F906F905F904F900895CF93DF9374
S1130C10EC01C058DF4F888199810E94112B888193
S1130C2099810E94FA2A888199810E94972ADF91EA
S1130C30CF910895CF93DF93EC01C058DF4F8881A3
S1130C4099810E94CC2A888199810E94FA2ADF9195
S1130C50CF9108950F931F93CF93DF931F921F9209
S1130C60CDB7DEB78C01CB010E94B41089839A837F
S1130C7000581F4F22E0AE014F5F5F4F63E0F80161
S1130C80808191810E94BD2AF801808191810E9416
S1130C90FA2A0F900F90DF91CF911F910F91089531
S1130CA0FC01E05CFF4F40815181628173814F5FA1
S1130CB05F4F6F4F7F4F40835183628373833496BA
S1130CC040815181628173814F5F5F4F6F4F7F4FCE
S1130CD04083518362837383FC0144AD55AD453633
S1130CE0510550F020E042E350E064EF71E084E00D
S1130CF096E20E94212E09C05695479520E064EFA4
S1130D0071E084E096E20E94212E84E096E20E9443
S1130D10552E08950E9450060895FC018389882366
S1130D2021F085E096E20E94932D0895FC018389C9
S1130D30882321F085E096E20E948F2D08950E9479
S1130D408D0608950E9496060895089508950895BD
S1130D500F931F93CF93DF93EC011E86FC01E85B96
S1130D60FF4F10821182329683E090E0808391835A
S1130D706A30710570F481E090E07296808391830B
S1130D808CE390E0888F998F81E690E08C8B9D8B2B
S1130D905BC06431710580F482E090E0FE01E45AA6
S1130DA0FF4F808391838CE390E0888F998F81E655
S1130DB090E08C8B9D8B48C06332710580F483E096
S1130DC090E0FE01E45AFF4F808391838CE390E02E
S1130DD0888F998F81E690E08C8B9D8B35C0613331
S1130DE0710580F484E090E0FE01E45AFF4F8083B3
S1130DF0918384E690E0888F998F81E690E08C8BD4
S1130E009D8B22C06834710580F485E090E0FE017A
S1130E10E45AFF4F8083918384E690E0888F998F12
S1130E208AE590E08C8B9D8B0FC086E090E0FE01FC
S1130E30E45AFF4F8083918384E690E0888F998FF2
S1130E4087E590E08C8B9D8BFE01E25BFF4F84E68F
S1130E5090E080839183888D998D329780839183EC
S1130E608E01005B1F4F8E8590E0BC01660F771FDB
S1130E70680F791F660F771F665E7F4F6C0F7D1FAB
S1130E80CE010E946105F80120833183428353839C
S1130E90648375838E8590E0FC01EE0FFF1FE80FDD
S1130EA0F91FEE0FFF1FEC0FFD1F868D978D8EAF80
S1130EB09FAFDF91CF911F910F9108950F931F93CF
S1130EC0CF93DF93EC011E86FC01E85BFF4F108299
S1130ED01182329683E090E08083918372966083DE
S1130EE071836330710591F138F46130710571F0EB
S1130EF062307105D9F069C06530710509F446C0E6
S1130F00A8F16630710509F451C05FC085E090E036
S1130F10FE01E65AFF4F808391838CE390E0888F33
S1130F20998F81E690E08C8B9D8B4FC08EE090E092
S1130F30FE01E65AFF4F808391838CE390E0888F13
S1130F40998F81E690E08C8B9D8B3FC08BE190E084
S1130F50FE01E65AFF4F808391838CE390E0888FF3
S1130F60998F81E690E08C8B9D8B2FC089E290E075
S1130F70FE01E65AFF4F8083918384E690E0888FD8
S1130F80998F81E690E08C8B9D8B1FC08DE390E060
S1130F90FE01E65AFF4F8083918384E690E0888FB8
S1130FA0998F8AE590E08C8B9D8B0FC085E590E04E
S1130FB0FE01E65AFF4F8083918384E690E0888F98
S1130FC0998F87E590E08C8B9D8BFE01E25BFF4F50
S1130FD084E690E080839183888D998D3297808315
S1130FE091838E01005B1F4FBE01665E7F4FCE0171
S1130FF00E946105F8012083318342835383648313
S113100075838E8590E0FC01EE0FFF1FE80FF91F3A
S1131010EE0FFF1FEC0FFD1F868D978D8EAF9FAFD8
S1131020DF91CF911F910F910895AF92BF92CF920C
S1131030DF92EF92FF920F931F93CF93DF93EC0114
S11310408B017A012230B1F018F4213031F058C00C
S1131050233039F12430E9F153C0DB018D919C91A7
S11310601197019709F44CC081E090E08D939C9313
S1131070898B46C0FB0180819181049730F083E025
S113108090E08083918381E0898BD8018D919C913C
S11310901197892BA9F581E090E08D939C93898B1E
S11310A02FC0FB0180819181079730F086E090E0AA
S11310B08083918381E0898BD8018D919C911197D4
S11310C00497F0F484E090E08D939C9381E0898B05
S11310D017C0FB01808191810B9730F08AE090E08A
S11310E08083918381E0898BD8018D919C911197A4
S11310F0079730F487E090E08D939C9381E0898B8F
S1131100F80120813181220F331FF901E451FE4D92
S1131110C080D180F901EA52FE4D0190F081E02DAA
S1131120CF018C199D09D901A054BE4D6D917C91BC
S1131130615071090E949C33D7018D919C91119744
S11311408C159D0520F4CD92DC9281E0898BD7012A
S11311508D919C911197E817F90720F4ED93FC9376
S113116081E0898BD801ED91FC91EE0FFF1FE054D3
S1131170FE4DA080B180B1E0AB1AB108F7018081C7
S113118091818C199D090E949C3380E090E00E941B
S1131190AF10B5010E94AA10AC01D8018D919C91A9
S11311A00F2EFBE0FF2EF02DF89EF001F99EF00DBE
S11311B01124E40FF51FEE0FFF1FE253FF4D2081B2
S11311C03181ADECBCEC0E940D34969587959695D3
S11311D087958C8B9D8BF80180819181F89EF0011D
S11311E0F99EF00D1124E40FF51FEE0FFF1FEE50D2
S11311F0F04E808191818E8B9F8B8989DF91CF9175
S11312001F910F91FF90EF90DF90CF90BF90AF9020
S113121008958F929F92AF92BF92CF92DF92EF92F6
S1131220FF920F931F93CF93DF93EC01FC01E058DF
S1131230FF4F608371831F86198A1A8A1B8A6C0187
S113124028E7C20ED11CF601108211827C01FAE754
S1131250EF0EF11C8AE090E0F701808391833497CC
S113126010821182F60120813181369720833183E7
S1131270F701208131813697208331833A96108299
S1131280118226E030E02E8B3F8B8AAB9BAB88E249
S113129090E08CAB9DAB8EE090E08EAB9FAB85E095
S11312A090E08CA79DA780E590E08EA79FA78AE198
S11312B090E088AB99AB82E090E08EA39FA388E78F
S11312C090E088A799A784E290E08AA79BA7AA2424
S11312D0A394B12CA8A2B9A284E690E08AA39BA30C
S11312E086E290E08CA39DA384E08E8781E090E069
S11312F00E945D354E01F0E48F0E911CF401608371
S1131300718382839383389684E090E08083918311
S1131310BE016E5C7F4FDE01A65BBF4F86E0FB0122
S113132001900D928A95E1F78E01005B1F4FCE016B
S11313300E946105F80120833183428353836483CF
S11313407583F60180819181749780839183F7017D
S113135080819181749780839183F401608171818C
S1131360828193810E94B810FE01EA5AFF4F608384
S11313707183828393833496108211823296A08281
S1131380B182329680917C2590917D2580839183D2
S1131390329683E090E080839183329610821182AA
S11313A036961082118232968DE090E0808391838C
S11313B03496108211821282138247E063E08CE338
S11313C096E20E947A3168AD79AD8CE396E20E9490
S11313D0C8316AAD7BAD8CE396E20E94CD3121E049
S11313E0AE016AE876E08CE396E20E94E13121E006
S11313F0AE0161E87AE08CE396E20E94033260E198
S11314008CE396E20E94AA3160E18CE396E20E94AA
S1131410B7316AAD7BAD8CE396E20E94D23160E2D3
S11314208CE396E20E94AA3160E28CE396E20E9489
S1131430B731DF91CF911F910F91FF90EF90DF9023
S1131440CF90BF90AF909F908F900895EF92FF92AE
S11314500F931F93CF93DF931F921F92CDB7DEB7E5
S11314607C0183E090E00E94B41089839A83870111
S113147000581F4F22E0AE014F5F5F4F63E0F80159
S1131480808191810E94BD2AF801808191810E940E
S1131490FA2AA701485B5F4F2AE230E061E070E07E
S11314A0F801808191810E94CC2AF8018081918188
S11314B00E94FA2A68EA71E682E496E20E94992E72
S11314C084E090E0F701848795870F900F90DF9177
S11314D0CF911F910F91FF90EF900895FC018685A5
S11314E0813071F48CE396E20E94A23160E18CE3D6
S11314F096E20E94B73160E28CE396E20E94B73133
S113150008950E946E0A0895AF92BF92CF92DF921F
S1131510EF92FF920F931F93CF93DF9300D01F920C
S1131520CDB7DEB77C018C0100581F4F42E063E069
S1131530F801808191810E940B2BF80180819181B7
S11315400E94FA2AF801808191810E94972AFFEF74
S113155029EF80E0F15020408040E1F700C0000016
S1131560F701848595859F70892B09F441C022E099
S113157030E04CE755E26CE070E0C7010E941A06C7
S1131580F701E458FF4F80819181449728F481E06A
S113159090E0709780839183F701E458FF4F808136
S11315A09181449728F080819181899708F4E2C35E
S11315B0F701E458FF4F80819181899728F083E0F7
S11315C090E070978083918322E030E0A701445932
S11315D05F4F63E170E0C7010E941A0622E030E029
S11315E0A70144585F4F6EE070E0C7010E941A06DD
S11315F0F7018485958588739927892B21F180913A
S11316007C2590917D258D329140ECF069E270E06B
S1131610C7010E942A06F7018785808B8CE396E236
S11316200E94A23160E18CE396E20E94B73160E24D
S11316308CE396E20E94B73185E096E20E94B32DD6
S113164087E0F701808BF701848595858115F2E0A9
S11316509F0709F4B0C21CF58830910509F4CDC187
S113166064F48230910509F45EC18430910509F473
S113167051C0892B09F069C342C08032910509F435
S1131680CDC124F4409709F4C9C15FC380349105E6
S113169009F47EC18115914009F44FC256C38115E6
S11316A0F7E09F0709F423C2ACF48115E4E09E0738
S11316B009F4BEC22CF48115934009F485C245C3D4
S11316C08115E5E09E0709F429C28115964009F4C5
S11316D0FCC13BC3811520E2920709F4E7C22CF454
S11316E08115904109F4AAC230C3811520E3920701
S11316F009F409C38115904409F422C326C363E0A5
S113170070E0C7010E942A0681E090E0F701848717
S113171095871FC3F701E65AFF4FA080B180870168
S1131720045A1F4FF801C080D18046E050E062E0C7
S113173070E0C7010E940606FFEF29EF80E0F15038
S113174020408040E1F700C0000042E050E06DE03E
S113175070E0C7010E9406069FEFE9EFF0E09150A8
S1131760E040F040E1F700C0000042E050E061E0FA
S113177070E0C7010E9406062FEF89EF90E0215028
S113178080409040E1F700C0000042E050E06AE091
S113179070E0C7010E940606EFEFF9EF20E0E15088
S11317A0F0402040E1F700C0000042E050E06BE070
S11317B070E0C7010E9406068FEF99EFE0E08150C8
S11317C09040E040E1F700C00000F701E05CFF4F0B
S11317D060817181828193810E94B810F701EA5A75
S11317E0FF4F608371838283938380917C259091E2
S11317F07D253896808391837E96808191817A9726
S113180080839183F801608171816C157D0539F0C5
S1131810C7010E945E0781E0F701818B5EC0F7017A
S1131820E65AFF4F608171816A157B0539F0C70163
S11318300E94A80681E0F701818B4FC0F701E85BA5
S1131840FF4F8081F7019685981719F091E0918BED
S11318508687F701868590E0BC01660F771F680FC5
S1131860791F660F771F665E7F4F6E0D7F1D86E0C2
S1131870FB01D701A65BBF4F01900D928A95E1F75A
S11318808701005B1F4FC7010E946105F801208397
S113189031834283538364837583F701868590E0A3
S11318A0FC01EE0FFF1FDF01A80FB91FAA0FBB1F1A
S11318B0AE0DBF1D5E962D913C915F97FD01448D49
S11318C0558DA0EAB5E00E940D349A0140E050E045
S11318D00E94C433F70126AF37AFF7012685A7016D
S11318E0445B5F4FB701665B7F4FC7010E941508D9
S11318F0F701818B86899789E25BFF4F20813181D3
S11319008217930708F025C2F70186899789E25B5D
S1131910FF4F80839183F7018689978986AF97AFBC
S113192081E0818B16C2F70182898823B1F0EE58D9
S1131930FF4F8081918189839A833296808191813E
S11319408B839C8324E030E0AE014F5F5F4F6FE0F8
S113195070E0C7010E941A06FCC1F701868590E079
S1131960AC01440F551F480F591F440F551F465EC5
S11319705F4F4E0D5F1D26E030E062E070E0C7016E
S11319800E941A066CE070E0C7010E942A06E1C1B9
S113199080917C2590917D256AE070E00E94B033AF
S11319A069837A838B839C8324E030E0AE014F5FAC
S11319B05F4F6FE070E0C7010E941A06F701E85814
S11319C0FF4F8081918136978083918338968081FF
S11319D0918136978083918381E0F701828B809196
S11319E07C2590917D25823291400CF0B2C167E054
S11319F070E0C7010E942A06ACC180917C259091B9
S1131A007D258D3291400CF4A4C169E270E0C701D8
S1131A100E942A06F7018785808B9BC1C7010E941B
S1131A20340585E096E20E94FE2D811110C0F70175
S1131A30848595858097D1F060E170E0C7010E94AC
S1131A402A0680E290E0F701848795870FC0F701AA
S1131A5084859585409751F06EE070E0C7010E943F
S1131A602A0680E190E0F70184879587F701E05C1E
S1131A70FF4F60817181828193810E94B8106983D4
S1131A807A838B839C8324E030E0AE014F5F5F4F09
S1131A9068E070E0C7010E941A06F701EC5BFF4F93
S1131AA060817181828193810E94B81069837A83F5
S1131AB08B839C8324E030E0AE014F5F5F4F64E191
S1131AC070E0C7010E941A0644C185E096E20E94B4
S1131AD0B32DF701E458FF4F80819181CD9708F42D
S1131AE038C169E170E0C7010E942A0632C185E06D
S1131AF096E20E94B32DF701128A80917C25909181
S1131B007D25823291400CF024C181E0F701828B63
S1131B10608970E0C7010E942A061BC185E096E235
S1131B200E94B32D8091680685FF13C1F701608977
S1131B3070E0C7010E942A060CC1F701EC5BFF4F5D
S1131B40108211821282138285E096E20E94AF2DE8
S1131B50F701E05AFF4F808191812CEC289FB0015E
S1131B60299F700D112486E396E20E94413081E0A2
S1131B70F701838B828BE858FF4F808191813697E0
S1131B808083918338968081918136978083918375
S1131B9080917C2590917D258332914034F067E2D9
S1131BA070E0C7010E942A06D4C067E070E0C70154
S1131BB00E942A06CEC0C7010E9434056EE070E080
S1131BC0C7010E942A06C5C06AE070E0C7010E94EE
S1131BD02A068CE396E20E94A23160E18CE396E24D
S1131BE00E94B73160E28CE396E20E94B73185E04F
S1131BF096E20E94B32DF701138A85E096E20E94D3
S1131C008F2DF701E05CFF4F408151816281738128
S1131C1081E090E00E94643519821A8242E050E02B
S1131C20BE016F5F7F4F85E496E20E94FF1091C072
S1131C306AE070E0C7010E942A068BC042E050E0CF
S1131C4061E170E0C7010E940606FFEF21EE84E027
S1131C50F15020408040E1F700C0000042E050E035
S1131C6062E170E0C7010E9406069FEFE1EEF4E036
S1131C709150E040F040E1F700C00000F701E8595E
S1131C80FF4F20813181C901A0E0B0E09051AF4FF6
S1131C90BF4F2227382F492F5A2F00E01CE060E065
S1131CA071E08CE296E20E94330353C02FEF87EA7F
S1131CB091E6215080409040E1F700C0000042E0EE
S1131CC050E062E170E0C7010E940606F701E659A0
S1131CD0FF4F20813181329780819181280F391FF4
S1131CE0C901A0E0B0E09051AF4FBF4F2227382F79
S1131CF0492F5A2F00E011E060E07DE08CE296E28B
S1131D000E94330326C0F701E659FF4F2081318139
S1131D10329780819181280F391FC901A0E0B0E07A
S1131D209051AF4FBF4F2227382F492F5A2F00E031
S1131D3011E060E07DE08CE296E20E94CE0209C0F0
S1131D408CE296E20E94980304C08CE296E20E9420
S1131D509803F70181898823A9F0A701485B5F4FA5
S1131D602AE230E061E070E0C7010E941A06F70140
S1131D70118A08C082E090E0F701E459FF4F8083A4
S1131D80918316CC2496CDBFDEBFDF91CF911F91F6
S1131D900F91FF90EF90DF90CF90BF90AF90089598
S1131DA0CF93DF93EC01FC01E258FF4F80819181D6
S1131DB0892B29F0808191810197808391838A897D
S1131DC0882309F489C0FE01EA58FF4F808191817C
S1131DD0892B09F079C0329780819181892B09F090
S1131DE04CC0329780819181892BD1F58C859D855A
S1131DF00297A1F522E044E650E065E071E084E05A
S1131E0096E20E94212E84E096E20E94552E22E062
S1131E1044E650E066E271E084E096E20E94212EFE
S1131E2084E096E20E94552E22E044E650E069E404
S1131E3071E084E096E20E94212E84E096E20E9402
S1131E40552E22E044E650E06DE571E084E096E230
S1131E500E94212E84E096E20E94552E1A8AA3C085
S1131E608CE390E0FE01EC58FF4F8083918332971E
S1131E708081918101978083918384E690E0FE01C3
S1131E80EA58FF4F80839183329780819181019733
S1131E90808391838C859D850297B1F432978081EC
S1131EA09181892B09F04CC03296808191810A97E7
S1131EB008F454C045C0FE01EC58FF4F8081918165
S1131EC0059708F454C061C0FE01EA58FF4F8081B1
S1131ED091810A97808391838091062090910720B5
S1131EE0892B21F584E690E08093062090930720C7
S1131EF0809160089091610849E4489F9001499F4E
S1131F00300D1124A5ECBEE40E940D3496958795FE
S1131F10929582958F7089279F708927C458DF4FC7
S1131F208883998389E396E20E947B2F809106201F
S1131F30909107200A97809306209093072033C03E
S1131F4022E049E150E068EE73E084E096E20E940A
S1131F50212E84E096E20E94552EB6CFFE01EE5863
S1131F60FF4F80819181892B09F4A5CF0EC022E017
S1131F7044E650E068EE73E084E096E20E94212E8D
S1131F8084E096E20E94552E9FCF22E042E350E087
S1131F9068EE73E084E096E20E94212E84E096E2EB
S1131FA00E94552E91CFDF91CF9108950E94D00EBB
S1131FB00895CF93DF93FC012485358520313105C5
S1131FC021F02032310509F093C0EC0180914806DC
S1131FD080FD78C080918C2381118AC0FE01E25873
S1131FE0FF4F80819181892B09F47DC081C08AE0F3
S1131FF090E0FE01E258FF4F80839183FE97808139
S11320009181A281B3810196A11DB11D8083918329
S1132010A283B383349680819181A281B381019696
S1132020A11DB11D80839183A283B3834CAD5DADAB
S11320304536510550F020E042E350E064EF71E092
S113204084E096E20E94212E09C05695479520E02F
S113205064EF71E084E096E20E94212E84E096E22F
S11320600E94552E8AAD9BAD009729F0019780936D
S1132070200B9093210B6AAD7BAD8CE396E20E941A
S1132080CD316AAD7BAD8CE396E20E94D23168AD6E
S113209079AD8CE396E20E9495318E85813049F4C6
S11320A0FFEF27E883E1F15020408040E1F700C0D2
S11320B00000E0E4F6E084858E7F848781E08093ED
S11320C08C2316C010928C238CE396E20E94A231DA
S11320D060E18CE396E20E94B73160E28CE396E221
S11320E00E94B73105C08E85813009F0BBCF7FCF08
S11320F0DF91CF9108950E94D90F0895CF92DF9276
S1132100EF92FF920F931F93CF93DF937C018A0189
S113211041155105B1F06B01C40ED51EEB01261B10
S1132120370BC9018C0F9D1FB8010E949C33FC0121
S113213041E0E427EE0DFF1D89918083CC15DD0578
S113214081F7DF91CF911F910F91FF90EF90DF9076
S1132150CF9008956817790708F4CB01089586177E
S1132160970708F4CB01089598278927982708959D
S11321709B01BC01C901089508950895EF920F933E
S11321801F93CF93DF93EC01E0E8F6E090EB9183AB
S113219080EC848B858B878B9583611102C080E4EE
S11321A001C080E5011102C030E001C030E84111F6
S11321B002C090E001C090E2220F220FE22AE82A36
S11321C0E32AE92A00EC1AE0F801E08280E091E0D9
S11321D00E9427348883998381E0F801818387E30F
S11321E091E18093002490930124C093F624D0932A
S11321F0F724DF91CF911F910F91EF900895CF9322
S1132200DF93EC014A835B834C835D8388819981EE
S11322100E94543580E180938606888199814A81A1
S11322205B819A01215031092A833B83FC01E20F2F
S1132230F31F80818093C30ADF91CF910895FC013D
S113224082819381892B79F040815181228133816C
S1132250C901019782839383FA01E80FF91F8081F2
S11322608093C30A089580E18093850608950E94AF
S11322701F1108952CE532E2FC0120833183089577
S1132280089520E832E2FC01208331830895089503
S11322902EE932E2FC0120833183089508951F92D0
S11322A00F920FB60F9211240BB60F922F933F93F8
S11322B04F935F936F937F938F939F93AF93BF934A
S11322C0EF93FF93E0919023F0919123309729F0BD
S11322D080918624909187241995FF91EF91BF9165
S11322E0AF919F918F917F916F915F914F913F91AA
S11322F02F910F900BBE0F900FBE0F901F9018954B
S11323001F920F920FB60F9211240BB60F922F93B8
S11323103F934F935F936F937F938F939F93AF9369
S1132320BF93EF93FF93E0919223F091932330971F
S113233029F080918824909189241995FF91EF9137
S1132340BF91AF919F918F917F916F915F914F91C9
S11323503F912F910F900BBE0F900FBE0F901F90C7
S113236018951F920F920FB60F9211240BB60F926D
S11323702F933F934F935F936F937F938F939F9389
S1132380AF93BF93EF93FF93E0919423F091952340
S1132390309729F080918A2490918B241995FF918C
S11323A0EF91BF91AF919F918F917F916F915F91C9
S11323B04F913F912F910F900BBE0F900FBE0F9036
S11323C01F9018951F920F920FB60F9211240BB6FF
S11323D00F922F933F934F935F936F937F938F93BA
S11323E09F93AF93BF93EF93FF93E0919623F09164
S11323F09723309729F080918C2490918D241995FE
S1132400FF91EF91BF91AF919F918F917F916F91C8
S11324105F914F913F912F910F900BBE0F900FBE84
S11324200F901F9018951F920F920FB60F921124C0
S11324300BB60F922F933F934F935F936F937F93BA
S11324408F939F93AF93BF93EF93FF93E091982360
S1132450F0919923309729F080918E2490918F24C4
S11324601995FF91EF91BF91AF919F918F917F91BA
S11324706F915F914F913F912F910F900BBE0F90F1
S11324800FBE0F901F9018951F920F920FB60F92C8
S113249011240BB60F922F933F934F935F936F9337
S11324A07F938F939F93AF93BF93EF93FF93E091A9
S11324B09A23F0919B23309729F080919024909156
S11324C091241995FF91EF91BF91AF919F918F91B5
S11324D07F916F915F914F913F912F910F900BBE20
S11324E00F900FBE0F901F9018951F920F920FB66A
S11324F00F9211240BB60F922F933F934F935F9338
S11325006F937F938F939F93AF93BF93EF93FF93B7
S1132510E0919C23F0919D23309729F0809192249F
S1132520909193241995FF91EF91BF91AF919F9151
S11325308F917F916F915F914F913F912F910F9068
S11325400BBE0F900FBE0F901F9018951F920F9205
S11325500FB60F9211240BB60F922F933F934F9304
S11325605F936F937F938F939F93AF93BF93EF93F7
S1132570FF93E0919E23F0919F23309729F080915F
S11325809424909195241995FF91EF91BF91AF9167
S11325909F918F917F916F915F914F913F912F9177
S11325A00F900BBE0F900FBE0F901F9018951F92A7
S11325B00F920FB60F9211240BB60F922F933F93E5
S11325C04F935F936F937F938F939F93AF93BF9337
S11325D0EF93FF93E091A023F091A123309729F08A
S11325E080919624909197241995FF91EF91BF9132
S11325F0AF919F918F917F916F915F914F913F9197
S11326002F910F900BBE0F900FBE0F901F90189537
S11326101F920F920FB60F9211240BB60F922F93A5
S11326203F934F935F936F937F938F939F93AF9356
S1132630BF93EF93FF93E091A223F091A3233097EC
S113264029F080919824909199241995FF91EF9104
S1132650BF91AF919F918F917F916F915F914F91B6
S11326603F912F910F900BBE0F900FBE0F901F90B4
S113267018951F920F920FB60F9211240BB60F925A
S11326802F933F934F935F936F937F938F939F9376
S1132690AF93BF93EF93FF93E091A423F091A5230D
S11326A0309729F080919A2490919B241995FF9159
S11326B0EF91BF91AF919F918F917F916F915F91B6
S11326C04F913F912F910F900BBE0F900FBE0F9023
S11326D01F9018951F920F920FB60F9211240BB6EC
S11326E00F922F933F934F935F936F937F938F93A7
S11326F09F93AF93BF93EF93FF93E091A623F09141
S1132700A723309729F080919C2490919D241995BA
S1132710FF91EF91BF91AF919F918F917F916F91B5
S11327205F914F913F912F910F900BBE0F900FBE71
S11327300F901F9018951F920F920FB60F921124AD
S11327400BB60F922F933F934F935F936F937F93A7
S11327508F939F93AF93BF93EF93FF93E091A8233D
S1132760F091A923309729F080919E2490919F2481
S11327701995FF91EF91BF91AF919F918F917F91A7
S11327806F915F914F913F912F910F900BBE0F90DE
S11327900FBE0F901F9018951F920F920FB60F92B5
S11327A011240BB60F922F933F934F935F936F9324
S11327B07F938F939F93AF93BF93EF93FF93E09196
S11327C0AA23F091AB23309729F08091A024909113
S11327D0A1241995FF91EF91BF91AF919F918F9192
S11327E07F916F915F914F913F912F910F900BBE0D
S11327F00F900FBE0F901F9018951F920F920FB657
S11328000F9211240BB60F922F933F934F935F9324
S11328106F937F938F939F93AF93BF93EF93FF93A4
S1132820E091AC23F091AD23309729F08091A2245C
S11328309091A3241995FF91EF91BF91AF919F912E
S11328408F917F916F915F914F913F912F910F9055
S11328500BBE0F900FBE0F901F9018951F920F92F2
S11328600FB60F9211240BB60F922F933F934F93F1
S11328705F936F937F938F939F93AF93BF93EF93E4
S1132880FF93E091AE23F091AF23309729F080912C
S1132890A4249091A5241995FF91EF91BF91AF9134
S11328A09F918F917F916F915F914F913F912F9164
S11328B00F900BBE0F900FBE0F901F9018951F9294
S11328C00F920FB60F9211240BB60F922F933F93D2
S11328D04F935F936F937F938F939F93AF93BF9324
S11328E0EF93FF93E091B023F091B123309729F057
S11328F08091A6249091A7241995FF91EF91BF91FF
S1132900AF919F918F917F916F915F914F913F9183
S11329102F910F900BBE0F900FBE0F901F90189524
S11329201F920F920FB60F9211240BB60F922F9392
S11329303F934F935F936F937F938F939F93AF9343
S1132940BF93EF93FF93E091B223F091B3233097B9
S113295029F08091A8249091A9241995FF91EF91D1
S1132960BF91AF919F918F917F916F915F914F91A3
S11329703F912F910F900BBE0F900FBE0F901F90A1
S113298018951F920F920FB60F9211240BB60F9247
S11329902F933F934F935F936F937F938F939F9363
S11329A0AF93BF93EF93FF93E091B423F091B523DA
S11329B0309729F08091AA249091AB241995FF9126
S11329C0EF91BF91AF919F918F917F916F915F91A3
S11329D04F913F912F910F900BBE0F900FBE0F9010
S11329E01F9018951F920F920FB60F9211240BB6D9
S11329F00F922F933F934F935F936F937F938F9394
S1132A009F93AF93BF93EF93FF93E091B623F0911D
S1132A10B723309729F08091AC249091AD24199577
S1132A20FF91EF91BF91AF919F918F917F916F91A2
S1132A305F914F913F912F910F900BBE0F900FBE5E
S1132A400F901F9018951F920F920FB60F9211249A
S1132A500BB60F922F933F934F935F936F937F9394
S1132A608F939F93AF93BF93EF93FF93E091B8231A
S1132A70F091B923309729F08091AE249091AF243E
S1132A801995FF91EF91BF91AF919F918F917F9194
S1132A906F915F914F913F912F910F900BBE0F90CB
S1132AA00FBE0F901F9018951F920F920FB60F92A2
S1132AB011240BB60F922F933F934F935F936F9311
S1132AC07F938F939F93AF93BF93EF93FF93E09183
S1132AD0BA23F091BB23309729F08091B0249091D0
S1132AE0B1241995FF91EF91BF91AF919F918F916F
S1132AF07F916F915F914F913F912F910F900BBEFA
S1132B000F900FBE0F901F9018951F920F920FB643
S1132B100F9211240BB60F922F933F934F935F9311
S1132B206F937F938F939F93AF93BF93EF93FF9391
S1132B30E091BC23F091BD23309729F08091B22419
S1132B409091B3241995FF91EF91BF91AF919F910B
S1132B508F917F916F915F914F913F912F910F9042
S1132B600BBE0F900FBE0F901F9018951F920F92DF
S1132B700FB60F9211240BB60F922F933F934F93DE
S1132B805F936F937F938F939F93AF93BF93EF93D1
S1132B90FF93E091BE23F091BF23309729F08091F9
S1132BA0B4249091B5241995FF91EF91BF91AF9101
S1132BB09F918F917F916F915F914F913F912F9151
S1132BC00F900BBE0F900FBE0F901F9018951F9281
S1132BD00F920FB60F9211240BB60F922F933F93BF
S1132BE04F935F936F937F938F939F93AF93BF9311
S1132BF0EF93FF93E091C023F091C123309729F024
S1132C008091B6249091B7241995FF91EF91BF91CB
S1132C10AF919F918F917F916F915F914F913F9170
S1132C202F910F900BBE0F900FBE0F901F90189511
S1132C301F920F920FB60F9211240BB60F922F937F
S1132C403F934F935F936F937F938F939F93AF9330
S1132C50BF93EF93FF93E091C223F091C323309786
S1132C6029F08091B8249091B9241995FF91EF919E
S1132C70BF91AF919F918F917F916F915F914F9190
S1132C803F912F910F900BBE0F900FBE0F901F908E
S1132C9018951F920F920FB60F9211240BB60F9234
S1132CA02F933F934F935F936F937F938F939F9350
S1132CB0AF93BF93EF93FF93E091C423F091C523A7
S1132CC0309729F08091BA249091BB241995FF91F3
S1132CD0EF91BF91AF919F918F917F916F915F9190
S1132CE04F913F912F910F900BBE0F900FBE0F90FD
S1132CF01F9018951F920F920FB60F9211240BB6C6
S1132D000F922F933F934F935F936F937F938F9380
S1132D109F93AF93BF93EF93FF93E091C623F091FA
S1132D20C723309729F08091BC249091BD24199534
S1132D30FF91EF91BF91AF919F918F917F916F918F
S1132D405F914F913F912F910F900BBE0F900FBE4B
S1132D500F901F9018951F920F920FB60F92112487
S1132D600BB60F922F933F934F935F936F937F9381
S1132D708F939F93AF93BF93EF93FF93E091C823F7
S1132D80F091C923309729F08091BE249091BF24FB
S1132D901995FF91EF91BF91AF919F918F917F9181
S1132DA06F915F914F913F912F910F900BBE0F90B8
S1132DB00FBE0F901F9018951F920F920FB60F928F
S1132DC011240BB60F922F933F934F935F936F93FE
S1132DD07F938F939F93AF93BF93EF93FF93E09170
S1132DE0CA23F091CB23309729F08091C02490918D
S1132DF0C1241995FF91EF91BF91AF919F918F914C
S1132E007F916F915F914F913F912F910F900BBEE6
S1132E100F900FBE0F901F9018951F920F920FB630
S1132E200F9211240BB60F922F933F934F935F93FE
S1132E306F937F938F939F93AF93BF93EF93FF937E
S1132E40E091CC23F091CD23309729F08091C224D6
S1132E509091C3241995FF91EF91BF91AF919F91E8
S1132E608F917F916F915F914F913F912F910F902F
S1132E700BBE0F900FBE0F901F9018951F920F92CC
S1132E800FB60F9211240BB60F922F933F934F93CB
S1132E905F936F937F938F939F93AF93BF93EF93BE
S1132EA0FF93E091CE23F091CF23309729F08091C6
S1132EB0C4249091C5241995FF91EF91BF91AF91CE
S1132EC09F918F917F916F915F914F913F912F913E
S1132ED00F900BBE0F900FBE0F901F9018951F926E
S1132EE00F920FB60F9211240BB60F922F933F93AC
S1132EF04F935F936F937F938F939F93AF93BF93FE
S1132F00EF93FF93E091D023F091D123309729F0F0
S1132F108091C6249091C7241995FF91EF91BF9198
S1132F20AF919F918F917F916F915F914F913F915D
S1132F302F910F900BBE0F900FBE0F901F901895FE
S1132F401F920F920FB60F9211240BB60F922F936C
S1132F503F934F935F936F937F938F939F93AF931D
S1132F60BF93EF93FF93E091D223F091D323309753
S1132F7029F08091C8249091C9241995FF91EF916B
S1132F80BF91AF919F918F917F916F915F914F917D
S1132F903F912F910F900BBE0F900FBE0F901F907B
S1132FA018951F920F920FB60F9211240BB60F9221
S1132FB02F933F934F935F936F937F938F939F933D
S1132FC0AF93BF93EF93FF93E091D423F091D52374
S1132FD0309729F08091CA249091CB241995FF91C0
S1132FE0EF91BF91AF919F918F917F916F915F917D
S1132FF04F913F912F910F900BBE0F900FBE0F90EA
S11330001F9018951F920F920FB60F9211240BB6B2
S11330100F922F933F934F935F936F937F938F936D
S11330209F93AF93BF93EF93FF93E091D623F091D7
S1133030D723309729F08091CC249091CD241995F1
S1133040FF91EF91BF91AF919F918F917F916F917C
S11330505F914F913F912F910F900BBE0F900FBE38
S11330600F901F9018951F920F920FB60F92112474
S11330700BB60F922F933F934F935F936F937F936E
S11330808F939F93AF93BF93EF93FF93E091D823D4
S1133090F091D923309729F08091CE249091CF24B8
S11330A01995FF91EF91BF91AF919F918F917F916E
S11330B06F915F914F913F912F910F900BBE0F90A5
S11330C00FBE0F901F9018951F920F920FB60F927C
S11330D011240BB60F922F933F934F935F936F93EB
S11330E07F938F939F93AF93BF93EF93FF93E0915D
S11330F0DA23F091DB23309729F08091D02490914A
S1133100D1241995FF91EF91BF91AF919F918F9128
S11331107F916F915F914F913F912F910F900BBED3
S11331200F900FBE0F901F9018951F920F920FB61D
S11331300F9211240BB60F922F933F934F935F93EB
S11331406F937F938F939F93AF93BF93EF93FF936B
S1133150E091DC23F091DD23309729F08091D22493
S11331609091D3241995FF91EF91BF91AF919F91C5
S11331708F917F916F915F914F913F912F910F901C
S11331800BBE0F900FBE0F901F9018951F920F92B9
S11331900FB60F9211240BB60F922F933F934F93B8
S11331A05F936F937F938F939F93AF93BF93EF93AB
S11331B0FF93E091DE23F091DF23309729F0809193
S11331C0D4249091D5241995FF91EF91BF91AF919B
S11331D09F918F917F916F915F914F913F912F912B
S11331E00F900BBE0F900FBE0F901F9018951F925B
S11331F00F920FB60F9211240BB60F922F933F9399
S11332004F935F936F937F938F939F93AF93BF93EA
S1133210EF93FF93E091E023F091E123309729F0BD
S11332208091D6249091D7241995FF91EF91BF9165
S1133230AF919F918F917F916F915F914F913F914A
S11332402F910F900BBE0F900FBE0F901F901895EB
S11332501F920F920FB60F9211240BB60F922F9359
S11332603F934F935F936F937F938F939F93AF930A
S1133270BF93EF93FF93E091E223F091E323309720
S113328029F08091D8249091D9241995FF91EF9138
S1133290BF91AF919F918F917F916F915F914F916A
S11332A03F912F910F900BBE0F900FBE0F901F9068
S11332B018951F920F920FB60F9211240BB60F920E
S11332C02F933F934F935F936F937F938F939F932A
S11332D0AF93BF93EF93FF93E091E423F091E52341
S11332E0309729F08091DA249091DB241995FF918D
S11332F0EF91BF91AF919F918F917F916F915F916A
S11333004F913F912F910F900BBE0F900FBE0F90D6
S11333101F9018951F920F920FB60F9211240BB69F
S11333200F922F933F934F935F936F937F938F935A
S11333309F93AF93BF93EF93FF93E091E623F091B4
S1133340E723309729F08091DC249091DD241995AE
S1133350FF91EF91BF91AF919F918F917F916F9169
S11333605F914F913F912F910F900BBE0F900FBE25
S11333700F901F9018951F920F920FB60F92112461
S11333800BB60F922F933F934F935F936F937F935B
S11333908F939F93AF93BF93EF93FF93E091E823B1
S11333A0F091E923309729F08091DE249091DF2475
S11333B01995FF91EF91BF91AF919F918F917F915B
S11333C06F915F914F913F912F910F900BBE0F9092
S11333D00FBE0F901F9018951F920F920FB60F9269
S11333E011240BB60F922F933F934F935F936F93D8
S11333F07F938F939F93AF93BF93EF93FF93E0914A
S1133400EA23F091EB23309729F08091E024909106
S1133410E1241995FF91EF91BF91AF919F918F9105
S11334207F916F915F914F913F912F910F900BBEC0
S11334300F900FBE0F901F9018951F920F920FB60A
S11334400F9211240BB60F922F933F934F935F93D8
S11334506F937F938F939F93AF93BF93EF93FF9358
S1133460E091EC23F091ED23309729F08091E22450
S11334709091E3241995FF91EF91BF91AF919F91A2
S11334808F917F916F915F914F913F912F910F9009
S11334900BBE0F900FBE0F901F9018951F920F92A6
S11334A00FB60F9211240BB60F922F933F934F93A5
S11334B05F936F937F938F939F93AF93BF93EF9398
S11334C0FF93E091EE23F091EF23309729F0809160
S11334D0E4249091E5241995FF91EF91BF91AF9168
S11334E09F918F917F916F915F914F913F912F9118
S11334F00F900BBE0F900FBE0F901F9018951F9248
S11335000F920FB60F9211240BB60F922F933F9385
S11335104F935F936F937F938F939F93AF93BF93D7
S1133520EF93FF93E091F023F091F123309729F08A
S11335308091E6249091E7241995FF91EF91BF9132
S1133540AF919F918F917F916F915F914F913F9137
S11335502F910F900BBE0F900FBE0F901F901895D8
S11335601F920F920FB60F9211240BB60F922F9346
S11335703F934F935F936F937F938F939F93AF93F7
S1133580BF93EF93FF93E091F223F091F3233097ED
S113359029F08091E8249091E9241995FF91EF9105
S11335A0BF91AF919F918F917F916F915F914F9157
S11335B03F912F910F900BBE0F900FBE0F901F9055
S11335C018951F920F920FB60F9211240BB60F92FB
S11335D02F933F934F935F936F937F938F939F9317
S11335E0AF93BF93EF93FF93E091F423F091F5230E
S11335F0309729F08091EA249091EB241995FF915A
S1133600EF91BF91AF919F918F917F916F915F9156
S11336104F913F912F910F900BBE0F900FBE0F90C3
S11336201F9018951F920F920FB60F9211240BB68C
S11336300F922F933F934F935F936F937F938F9347
S11336409F93AF93BF93EF93FF93E091F623F09191
S1133650F723309729F08091EC249091ED2419956B
S1133660FF91EF91BF91AF919F918F917F916F9156
S11336705F914F913F912F910F900BBE0F900FBE12
S11336800F901F9018951F920F920FB60F9211244E
S11336900BB60F922F933F934F935F936F937F9348
S11336A08F939F93AF93BF93EF93FF93E091F8238E
S11336B0F091F923309729F08091EE249091EF2432
S11336C01995FF91EF91BF91AF919F918F917F9148
S11336D06F915F914F913F912F910F900BBE0F907F
S11336E00FBE0F901F9018951F920F920FB60F9256
S11336F011240BB60F922F933F934F935F936F93C5
S11337007F938F939F93AF93BF93EF93FF93E09136
S1133710FA23F091FB23309729F08091F0249091C3
S1133720F1241995FF91EF91BF91AF919F918F91E2
S11337307F916F915F914F913F912F910F900BBEAD
S11337400F900FBE0F901F9018951F920F920FB6F7
S11337500F9211240BB60F922F933F934F935F93C5
S11337606F937F938F939F93AF93BF93EF93FF9345
S1133770E091FC23F091FD23309729F08091F2240D
S11337809091F3241995FF91EF91BF91AF919F917F
S11337908F917F916F915F914F913F912F910F90F6
S11337A00BBE0F900FBE0F901F9018951F920F9293
S11337B00FB60F9211240BB60F922F933F934F9392
S11337C05F936F937F938F939F93AF93BF93EF9385
S11337D0FF93E091FE23F091FF23309729F080912D
S11337E0F4249091F5241995FF91EF91BF91AF9135
S11337F09F918F917F916F915F914F913F912F9105
S11338000F900BBE0F900FBE0F901F9018951F9234
S11338100F920FB60F9211240BB60F922F933F9372
S11338204F935F936F937F938F939F93AF93BF93C4
S1133830EF93FF93E0910024F0910124309729F055
S11338408091F6249091F7241995FF91EF91BF91FF
S1133850AF919F918F917F916F915F914F913F9124
S11338602F910F900BBE0F900FBE0F901F901895C5
S11338701F920F920FB60F9211240BB60F922F9333
S11338803F934F935F936F937F938F939F93AF93E4
S1133890BF93EF93FF93E0910224F09103243097B8
S11338A029F08091F8249091F9241995FF91EF91D2
S11338B0BF91AF919F918F917F916F915F914F9144
S11338C03F912F910F900BBE0F900FBE0F901F9042
S11338D018951F920F920FB60F9211240BB60F92E8
S11338E02F933F934F935F936F937F938F939F9304
S11338F0AF93BF93EF93FF93E0910424F0910524D9
S1133900309729F08091FA249091FB241995FF9126
S1133910EF91BF91AF919F918F917F916F915F9143
S11339204F913F912F910F900BBE0F900FBE0F90B0
S11339301F9018951F920F920FB60F9211240BB679
S11339400F922F933F934F935F936F937F938F9334
S11339509F93AF93BF93EF93FF93E0910624F0916D
S11339600724309729F08091FC249091FD24199527
S1133970FF91EF91BF91AF919F918F917F916F9143
S11339805F914F913F912F910F900BBE0F900FBEFF
S11339900F901F9018951F920F920FB60F9211243B
S11339A00BB60F922F933F934F935F936F937F9335
S11339B08F939F93AF93BF93EF93FF93E09108246A
S11339C0F0910924309729F08091FE249091FF24EE
S11339D01995FF91EF91BF91AF919F918F917F9135
S11339E06F915F914F913F912F910F900BBE0F906C
S11339F00FBE0F901F9018951F920F920FB60F9243
S1133A0011240BB60F922F933F934F935F936F93B1
S1133A107F938F939F93AF93BF93EF93FF93E09123
S1133A200A24F0910B24309729F08091002590917D
S1133A3001251995FF91EF91BF91AF919F918F91BE
S1133A407F916F915F914F913F912F910F900BBE9A
S1133A500F900FBE0F901F9018951F920F920FB6E4
S1133A600F9211240BB60F922F933F934F935F93B2
S1133A706F937F938F939F93AF93BF93EF93FF9332
S1133A80E0910C24F0910D24309729F080910225C7
S1133A90909103251995FF91EF91BF91AF919F915B
S1133AA08F917F916F915F914F913F912F910F90E3
S1133AB00BBE0F900FBE0F901F9018951F920F9280
S1133AC00FB60F9211240BB60F922F933F934F937F
S1133AD05F936F937F938F939F93AF93BF93EF9372
S1133AE0FF93E0910E24F0910F24309729F08091F8
S1133AF00425909105251995FF91EF91BF91AF9100
S1133B009F918F917F916F915F914F913F912F91F1
S1133B100F900BBE0F900FBE0F901F9018951F9221
S1133B200F920FB60F9211240BB60F922F933F935F
S1133B304F935F936F937F938F939F93AF93BF93B1
S1133B40EF93FF93E0911024F0911124309729F022
S1133B5080910625909107251995FF91EF91BF91CA
S1133B60AF919F918F917F916F915F914F913F9111
S1133B702F910F900BBE0F900FBE0F901F901895B2
S1133B801F920F920FB60F9211240BB60F922F9320
S1133B903F934F935F936F937F938F939F93AF93D1
S1133BA0BF93EF93FF93E0911224F0911324309785
S1133BB029F080910825909109251995FF91EF919D
S1133BC0BF91AF919F918F917F916F915F914F9131
S1133BD03F912F910F900BBE0F900FBE0F901F902F
S1133BE018951F920F920FB60F9211240BB60F92D5
S1133BF02F933F934F935F936F937F938F939F93F1
S1133C00AF93BF93EF93FF93E0911424F0911524A5
S1133C10309729F080910A2590910B251995FF91F1
S1133C20EF91BF91AF919F918F917F916F915F9130
S1133C304F913F912F910F900BBE0F900FBE0F909D
S1133C401F9018951F920F920FB60F9211240BB666
S1133C500F922F933F934F935F936F937F938F9321
S1133C609F93AF93BF93EF93FF93E0911624F0914A
S1133C701724309729F080910C2590910D251995E2
S1133C80FF91EF91BF91AF919F918F917F916F9130
S1133C905F914F913F912F910F900BBE0F900FBEEC
S1133CA00F901F9018951F920F920FB60F92112428
S1133CB00BB60F922F933F934F935F936F937F9322
S1133CC08F939F93AF93BF93EF93FF93E091182447
S1133CD0F0911924309729F080910E2590910F25A9
S1133CE01995FF91EF91BF91AF919F918F917F9122
S1133CF06F915F914F913F912F910F900BBE0F9059
S1133D000FBE0F901F9018951F920F920FB60F922F
S1133D1011240BB60F922F933F934F935F936F939E
S1133D207F938F939F93AF93BF93EF93FF93E09110
S1133D301A24F0911B24309729F08091102590913A
S1133D4011251995FF91EF91BF91AF919F918F919B
S1133D507F916F915F914F913F912F910F900BBE87
S1133D600F900FBE0F901F9018951F920F920FB6D1
S1133D700F9211240BB60F922F933F934F935F939F
S1133D806F937F938F939F93AF93BF93EF93FF931F
S1133D90E0911C24F0911D24309729F08091122584
S1133DA0909113251995FF91EF91BF91AF919F9138
S1133DB08F917F916F915F914F913F912F910F90D0
S1133DC00BBE0F900FBE0F901F9018951F920F926D
S1133DD00FB60F9211240BB60F922F933F934F936C
S1133DE05F936F937F938F939F93AF93BF93EF935F
S1133DF0FF93E0911E24F0911F24309729F08091C5
S1133E001425909115251995FF91EF91BF91AF91CC
S1133E109F918F917F916F915F914F913F912F91DE
S1133E200F900BBE0F900FBE0F901F9018951F920E
S1133E300F920FB60F9211240BB60F922F933F934C
S1133E404F935F936F937F938F939F93AF93BF939E
S1133E50EF93FF93E0912024F0912124309729F0EF
S1133E6080911625909117251995FF91EF91BF9197
S1133E70AF919F918F917F916F915F914F913F91FE
S1133E802F910F900BBE0F900FBE0F901F9018959F
S1133E901F920F920FB60F9211240BB60F922F930D
S1133EA03F934F935F936F937F938F939F93AF93BE
S1133EB0BF93EF93FF93E0912224F0912324309752
S1133EC029F080911825909119251995FF91EF916A
S1133ED0BF91AF919F918F917F916F915F914F911E
S1133EE03F912F910F900BBE0F900FBE0F901F901C
S1133EF018951F920F920FB60F9211240BB60F92C2
S1133F002F933F934F935F936F937F938F939F93DD
S1133F10AF93BF93EF93FF93E0912824F09129246A
S1133F20309729F080911E2590911F251995FF91B6
S1133F30EF91BF91AF919F918F917F916F915F911D
S1133F404F913F912F910F900BBE0F900FBE0F908A
S1133F501F9018951F920F920FB60F9211240BB653
S1133F600F922F933F934F935F936F937F938F930E
S1133F709F93AF93BF93EF93FF93E0912A24F09123
S1133F802B24309729F08091202590912125199593
S1133F90FF91EF91BF91AF919F918F917F916F911D
S1133FA05F914F913F912F910F900BBE0F900FBED9
S1133FB00F901F9018951F920F920FB60F92112415
S1133FC00BB60F922F933F934F935F936F937F930F
S1133FD08F939F93AF93BF93EF93FF93E0912C2420
S1133FE0F0912D24309729F080912225909123255A
S1133FF01995FF91EF91BF91AF919F918F917F910F
S11340006F915F914F913F912F910F900BBE0F9045
S11340100FBE0F901F9018951F920F920FB60F921C
S113402011240BB60F922F933F934F935F936F938B
S11340307F938F939F93AF93BF93EF93FF93E091FD
S11340402E24F0912F24309729F0809124259091EB
S113405025251995FF91EF91BF91AF919F918F9174
S11340607F916F915F914F913F912F910F900BBE74
S11340700F900FBE0F901F9018951F920F920FB6BE
S11340800F9211240BB60F922F933F934F935F938C
S11340906F937F938F939F93AF93BF93EF93FF930C
S11340A0E0913024F0913124309729F08091262535
S11340B0909127251995FF91EF91BF91AF919F9111
S11340C08F917F916F915F914F913F912F910F90BD
S11340D00BBE0F900FBE0F901F9018951F920F925A
S11340E00FB60F9211240BB60F922F933F934F9359
S11340F05F936F937F938F939F93AF93BF93EF934C
S1134100FF93E0913224F0913324309729F0809189
S11341102825909129251995FF91EF91BF91AF9191
S11341209F918F917F916F915F914F913F912F91CB
S11341300F900BBE0F900FBE0F901F9018951F92FB
S11341400F920FB60F9211240BB60F922F933F9339
S11341504F935F936F937F938F939F93AF93BF938B
S1134160EF93FF93E0913424F0913524309729F0B4
S113417080912A2590912B251995FF91EF91BF915C
S1134180AF919F918F917F916F915F914F913F91EB
S11341902F910F900BBE0F900FBE0F901F9018958C
S11341A01F920F920FB60F9211240BB60F922F93FA
S11341B03F934F935F936F937F938F939F93AF93AB
S11341C0BF93EF93FF93E0913624F0913724309717
S11341D029F080912C2590912D251995FF91EF912F
S11341E0BF91AF919F918F917F916F915F914F910B
S11341F03F912F910F900BBE0F900FBE0F901F9009
S113420018951F920F920FB60F9211240BB60F92AE
S11342102F933F934F935F936F937F938F939F93CA
S1134220AF93BF93EF93FF93E0913824F091392437
S1134230309729F080912E2590912F251995FF9183
S1134240EF91BF91AF919F918F917F916F915F910A
S11342504F913F912F910F900BBE0F900FBE0F9077
S11342601F9018951F920F920FB60F9211240BB640
S11342700F922F933F934F935F936F937F938F93FB
S11342809F93AF93BF93EF93FF93E0913A24F09100
S11342903B24309729F08091302590913125199550
S11342A0FF91EF91BF91AF919F918F917F916F910A
S11342B05F914F913F912F910F900BBE0F900FBEC6
S11342C00F901F9018951F920F920FB60F92112402
S11342D00BB60F922F933F934F935F936F937F93FC
S11342E08F939F93AF93BF93EF93FF93E0913C24FD
S11342F0F0913D24309729F0809132259091332517
S11343001995FF91EF91BF91AF919F918F917F91FB
S11343106F915F914F913F912F910F900BBE0F9032
S11343200FBE0F901F9018951F920F920FB60F9209
S113433011240BB60F922F933F934F935F936F9378
S11343407F938F939F93AF93BF93EF93FF93E091EA
S11343503E24F0913F24309729F0809134259091A8
S113436035251995FF91EF91BF91AF919F918F9151
S11343707F916F915F914F913F912F910F900BBE61
S11343800F900FBE0F901F9018951F920F920FB6AB
S11343900F9211240BB60F922F933F934F935F9379
S11343A06F937F938F939F93AF93BF93EF93FF93F9
S11343B0E0914024F0914124309729F080913625F2
S11343C0909137251995FF91EF91BF91AF919F91EE
S11343D08F917F916F915F914F913F912F910F90AA
S11343E00BBE0F900FBE0F901F9018951F920F9247
S11343F00FB60F9211240BB60F922F933F934F9346
S11344005F936F937F938F939F93AF93BF93EF9338
S1134410FF93E0914224F0914324309729F0809156
S11344203825909139251995FF91EF91BF91AF915E
S11344309F918F917F916F915F914F913F912F91B8
S11344400F900BBE0F900FBE0F901F9018951F92E8
S11344500F920FB60F9211240BB60F922F933F9326
S11344604F935F936F937F938F939F93AF93BF9378
S1134470EF93FF93E0914424F0914524309729F081
S113448080913A2590913B251995FF91EF91BF9129
S1134490AF919F918F917F916F915F914F913F91D8
S11344A02F910F900BBE0F900FBE0F901F90189579
S11344B01F920F920FB60F9211240BB60F922F93E7
S11344C03F934F935F936F937F938F939F93AF9398
S11344D0BF93EF93FF93E0914624F09147243097E4
S11344E029F080913C2590913D251995FF91EF91FC
S11344F0BF91AF919F918F917F916F915F914F91F8
S11345003F912F910F900BBE0F900FBE0F901F90F5
S113451018951F920F920FB60F9211240BB60F929B
S11345202F933F934F935F936F937F938F939F93B7
S1134530AF93BF93EF93FF93E0914824F091492404
S1134540309729F080913E2590913F251995FF9150
S1134550EF91BF91AF919F918F917F916F915F91F7
S11345604F913F912F910F900BBE0F900FBE0F9064
S11345701F9018951F920F920FB60F9211240BB62D
S11345800F922F933F934F935F936F937F938F93E8
S11345909F93AF93BF93EF93FF93E0915E24F091C9
S11345A05F24309729F080915425909155251995D1
S11345B0FF91EF91BF91AF919F918F917F916F91F7
S11345C05F914F913F912F910F900BBE0F900FBEB3
S11345D00F901F9018951F920F920FB60F921124EF
S11345E00BB60F922F933F934F935F936F937F93E9
S11345F08F939F93AF93BF93EF93FF93E0916024C6
S1134600F0916124309729F0809156259091572597
S11346101995FF91EF91BF91AF919F918F917F91E8
S11346206F915F914F913F912F910F900BBE0F901F
S11346300FBE0F901F9018951F920F920FB60F92F6
S113464011240BB60F922F933F934F935F936F9365
S11346507F938F939F93AF93BF93EF93FF93E091D7
S11346606624F0916724309729F080915C2590911D
S11346705D251995FF91EF91BF91AF919F918F9116
S11346807F916F915F914F913F912F910F900BBE4E
S11346900F900FBE0F901F9018951F920F920FB698
S11346A00F9211240BB60F922F933F934F935F9366
S11346B06F937F938F939F93AF93BF93EF93FF93E6
S11346C0E0916824F0916924309729F080915E2567
S11346D090915F251995FF91EF91BF91AF919F91B3
S11346E08F917F916F915F914F913F912F910F9097
S11346F00BBE0F900FBE0F901F9018951F920F9234
S11347000FB60F9211240BB60F922F933F934F9332
S11347105F936F937F938F939F93AF93BF93EF9325
S1134720FF93E0916A24F0916B24309729F08091F3
S11347306025909161251995FF91EF91BF91AF91FB
S11347409F918F917F916F915F914F913F912F91A5
S11347500F900BBE0F900FBE0F901F9018951F92D5
S11347600F920FB60F9211240BB60F922F933F9313
S11347704F935F936F937F938F939F93AF93BF9365
S1134780EF93FF93E0916C24F0916D24309729F01E
S113479080916225909163251995FF91EF91BF91C6
S11347A0AF919F918F917F916F915F914F913F91C5
S11347B02F910F900BBE0F900FBE0F901F90189566
S11347C01F920F920FB60F9211240BB60F922F93D4
S11347D03F934F935F936F937F938F939F93AF9385
S11347E0BF93EF93FF93E0916E24F0916F24309781
S11347F029F080916425909165251995FF91EF9199
S1134800BF91AF919F918F917F916F915F914F91E4
S11348103F912F910F900BBE0F900FBE0F901F90E2
S113482018951F920F920FB60F9211240BB60F9288
S11348302F933F934F935F936F937F938F939F93A4
S1134840AF93BF93EF93FF93E0917024F0917124A1
S1134850309729F080916625909167251995FF91ED
S1134860EF91BF91AF919F918F917F916F915F91E4
S11348704F913F912F910F900BBE0F900FBE0F9051
S11348801F9018951F920F920FB60F9211240BB61A
S11348900F922F933F934F935F936F937F938F93D5
S11348A09F93AF93BF93EF93FF93E0917C24F09198
S11348B07D24309729F08091722590917325199564
S11348C0FF91EF91BF91AF919F918F917F916F91E4
S11348D05F914F913F912F910F900BBE0F900FBEA0
S11348E00F901F9018951F920F920FB60F921124DC
S11348F00BB60F922F933F934F935F936F937F93D6
S11349008F939F93AF93BF93EF93FF93E0917E2494
S1134910F0917F24309729F080917425909175252A
S11349201995FF91EF91BF91AF919F918F917F91D5
S11349306F915F914F913F912F910F900BBE0F900C
S11349400FBE0F901F9018951F920F920FB60F92E3
S113495011240BB60F922F933F934F935F936F9352
S11349607F938F939F93AF93BF93EF93FF93E091C4
S11349708024F0918124309729F0809176259091BC
S113498077251995FF91EF91BF91AF919F918F91E9
S11349907F916F915F914F913F912F910F900BBE3B
S11349A00F900FBE0F901F9018950E94CF2DFDCF32
S11349B085E496E20E94BC1082E496E20E943B2FBA
S11349C08FE396E20E9466318CE396E20E944732BE
S11349D089E396E20E94EA2F86E396E20E94BB30C6
S11349E084E396E20E94C72B8CE296E20E94C00206
S11349F08FE096E20E94C02885E096E20E94F82C9F
S1134A0084E096E20E94022E82E895E20E94260546
S1134A108EE795E20E94E92B08958EE795E20E94C5
S1134A20EA2B82E895E20E942C0584E096E20E943B
S1134A30032E85E096E20E94F92C8FE096E20E9414
S1134A4037298CE296E20E94C10284E396E20E9436
S1134A50D32B86E396E20E94C73089E396E20E9454
S1134A60F62F8CE396E20E9453328FE396E20E9483
S1134A70723182E496E20E94472F85E496E20E9416
S1134A80BD100895CF92DF92EF92FF920F931F9380
S1134A90F89484E68093800185E096E20E94FA2CE3
S1134AA08EE795E20E94E92C84E096E20E94732E40
S1134AB046E060E082E496E20E947E2E68EA71E6B7
S1134AC082E496E20E94BC2E21E042E855E266EDC3
S1134AD07FE082E496E20E94D52E47E060E08FE317
S1134AE096E20E94CF3062E17AE78FE396E20E9479
S1134AF0133148E060E089E396E20E944F2F6FEFA4
S1134B007FEF89E396E20E94932F6FEF7FEF89E3B3
S1134B1096E20E94662F45E063E086E396E20E94F7
S1134B20FE2F60E072E086E396E20E94413085E069
S1134B3096E20E948F2D85E096E20E94972D85E0F3
S1134B4096E20E949B2D85E096E20E949F2D21E033
S1134B5042E855E26FE976E086E396E20E9455303A
S1134B6021E042E855E262EA76E086E396E20E94BA
S1134B70773060E071E086E396E20E94463060E0C0
S1134B8072E086E396E20E944B3060E073E086E3D5
S1134B9096E20E9450302CE042E855E265EA76E065
S1134BA086E396E20E94883020E342E855E266EA12
S1134BB076E086E396E20E94993020EC42E855E2E2
S1134BC067EA76E086E396E20E94AA3060E074E049
S1134BD086E396E20E9419300F2EF3E0EF2EF02DBB
S1134BE000E023E040E061E085E496E20E94BE102C
S1134BF001E020E040E06DE084E396E20E944B2B6C
S1134C000F2EF2E1CF2EFAE7DF2EF02DE12CFF2458
S1134C10F39400E011E022E835E244E356E26FE366
S1134C2076E28FE096E20E94C62840E051E06FE011
S1134C3076E28CE296E20E94C2026FE076E282E8BB
S1134C4095E20E94090985E096E20E945A2D82E8C5
S1134C5095E280938824909389248BE790E1809354
S1134C6092239093932378941F910F91FF90EF9048
S1134C70DF90CF900895CF93DF931F921F92CDB70B
S1134C80DEB70E9442252AEA36EE86E991E02150F9
S1134C90304080409040D9F7000085E096E20E94C1
S1134CA0A32D2FEF33EC89E0215030408040E1F711
S1134CB000C0000019821A8242E050E0BE016F5F1A
S1134CC07F4F85E496E20E94FF1082E895E20E94FD
S1134CD0260A1FE085E096E20E94F92D82E895E21B
S1134CE00E94840A40917A2550917B25CA0101963D
S1134CF080937A2590937B259A01A9E8B8E80E94CD
S1134D000D34969587959695879596958795189FD2
S1134D109001199F300D11244217530741F48EE777
S1134D2095E20E94722C80937C2590937D2580913E
S1134D307C2590917D258A30914024F085E096E28F
S1134D400E94A72D80917C2590917D258F3F910510
S1134D500CF685E096E20E94AB2DBCCFEF92FF9259
S1134D600F931F93CF93DF938C01DC011496ED9185
S1134D70FC9115978AEA80831496ED91FC9115971E
S1134D808CEC81831496ED91FC91159785E0820F4C
S1134D9082831496ED91FC91159782E8838314968F
S1134DA0ED91FC91159774831496ED91FC911597F0
S1134DB0658386E0820F19968C93C9019695879531
S1134DC00097D9F0E42FF52F0396880F991F46E03A
S1134DD050E0E801AC81BD81A40FB51F61816C93E3
S1134DE0AC81BD81A40FB51F6081329611966C937E
S1134DF04E5F5F4F4817590761F7F8018185A82F67
S1134E00B0E0A430B10534F10480F581E02D33968F
S1134E1063E070E04FEF5FEF91914927942F9295F3
S1134E209427092E969596959025092E969590256A
S1134E309770042E452F969507949795502D4927E2
S1134E4006949795502549276F5F7F4F6A177B0714
S1134E501CF302C04FEF5FEFD8011496ED91FC9163
S1134E601597E80FF11D518319968C911997149693
S1134E70ED91FC911597E80FF11D4083285F199679
S1134E802C93DF91CF911F910F91FF90EF90089594
S1134E900F931F93CF93DF93EC01CB018A016F83B0
S1134EA078874A875B870E9427348A839B83C8015B
S1134EB00E9427348C839D8319861E82DF91CF91B3
S1134EC01F910F910895CF93DF93EC018A819B8109
S1134ED00E94BC348C819D810E94BC34DF91CF91AF
S1134EE00895CF93DF93DC011496ED91FC9115970F
S1134EF08AEA80831496ED91FC9115978CEC81835A
S1134F001496ED91FC91159785E082831496ED91AA
S1134F10FC91159781E883831496ED91FC91159784
S1134F2064831496ED91FC911597458386E0199658
S1134F308C9319971496CD91DC911597FE013396B5
S1134F40BE016A5F7F4F2FEF3FEF91912927922F88
S1134F5092959227092E969596959025092E9695C9
S1134F6090259770022E232F969507949795302DB0
S1134F7029270694979530252927E617F70729F757
S1134F803F8319968C9119971496ED91FC9115977E
S1134F90E80FF11D2083485F19964C93DF91CF9160
S1134FA00895CF93DF93DC011496ED91FC9115974E
S1134FB08AEA80831496ED91FC9115978CEC818399
S1134FC01496ED91FC91159786E082831496ED91E9
S1134FD0FC91159783E883831496ED91FC911597C2
S1134FE074831496ED91FC91159765831496ED9155
S1134FF0FC911597468387E019968C93199714961C
S1135000CD91DC911597FE013396AE01495F5F4F58
S11350102FEF3FEF91912927922F92959227092EF6
S1135020969596959025092E969590259770022E23
S1135030232F969507949795302D292706949795B5
S113504030252927E417F50729F7388719968C9115
S113505019971496ED91FC911597E80FF11D208393
S113506089E019968C93DF91CF910895CF93DF93C4
S1135070EC01EC81FD818AEA8083EC81FD818CEC7A
S11350808183EC81FD8184E0820F8283EC81FD8148
S113509080E88383EC81FD81648385E0820F8987C6
S11350A0822F90E0009781F0DA01480F591F65E0E4
S11350B070E08D91EC81FD81E60FF71F80836F5FB7
S11350C07F4FA417B507A9F7A985B0E0A430B105AF
S11350D028F1EC81FD81339663E070E04FEF5FEFE0
S11350E091914927942F92959427092E96959695F8
S11350F09025092E969590259770042E452F969508
S113510007949795502D492706949795502549273C
S11351106F5F7F4F6A177B0718F302C04FEF5FEF93
S11351208C819D81A80FB91F11965C938985EC81B0
S1135130FD81E80FF11D4083295F2987DF91CF911D
S113514008950895DC015B968D919C915C9700977E
S113515039F0DC01ED91FC910280F381E02D199589
S11351600895DC015B968D919C915C97009739F0D2
S1135170DC01ED91FC910480F581E02D19950895F1
S113518026EB32E2FC012083318308956F927F92F3
S11351908F929F92AF92BF92CF92DF92EF92FF9243
S11351A00F931F93CF93DF93EC014B015A01390105
S11351B0C8010F831887EA86FB860E9427348A83F6
S11351C09B83C7010E9427348C839D83198E198683
S11351D0198A1E821C8A1D8A8FEF9FEF8E8B9F8BEC
S11351E087E0888B82E0888F1A8ECA8ADB8AAC8635
S11351F0BD86D501ED91FC910484F585E02D48E050
S11352005AE2BE01C5011995D501ED91FC910684C0
S1135210F785E02D44E95AE2BE01C50119956114F0
S1135220710419F06B8E7C8E02C0CB8FDC8F8E865E
S11352309F868114910461F0D401ED91FC91028860
S1135240F389E02D21E0AE016FE27AE2C401199501
S1135250DF91CF911F910F91FF90EF90DF90CF904E
S1135260BF90AF909F908F907F906F90089526EBA2
S113527032E2FC01208331830E94A1280895CF9358
S1135280DF93DC01962F50964C91509750E04B30B1
S1135290510508F0BAC0FA018827E05CFE4F8F4F31
S11352A00C9405349A3A21F482E050968C93ADC064
S11352B081E050968C93A9C09C3C21F483E05096E5
S11352C08C93A3C081E050968C939FC016969C93B8
S11352D0169751961C9251978FEF9FEF56968D9388
S11352E09C93579784E050968C938FC051968C91E1
S11352F051971296ED91FC911397E80FF11D90834D
S113530051962C91519730E017964D915C911897D6
S11353104217530720F489E050968C9376C0569632
S11353202D913C9157972927622F62956227062E6B
S1135330669566956025062E669560256770022E33
S1135340232F669507946795302D26270694679535
S11353503025262756962D933C93579751968C913A
S113536051978F5F51968C93519751962C915197E9
S113537030E016968C91169790E00297281739071B
S113538009F043C085E050968C933FC0692F70E0CC
S113539054966D937C93559786E050968C9335C0C4
S11353A054962D913C915597A901592B54964D93A0
S11353B05C93559756962D913C91579742175307F6
S11353C0F1F4ED0188E0888BE881F9814E8150E0A9
S11353D06A817B810190F081E02DCD0119958B8D3F
S11353E09C8D009791F0DC01ED91FC914E8150E091
S11353F06A817B810190F081E02D199506C089E0D6
S113540050968C9302C05A961C92DF91CF910895C6
S1135410CF93DF93EC018C859D85DC01ED91FC91AC
S11354200280F381E02D1995682FCE010E943F2957
S1135430DF91CF910895CF93DF93EC018E859F8503
S1135440DC01ED91FC910480F581E02D19958889AA
S1135450883011F08AE0888BDF91CF9108950E9403
S11354601B2A0895CF93DF93FC01118A1682148AB4
S1135470158A168A178A108A86859785EC01A88171
S1135480B981628973891296ED91FC9113971995EC
S1135490DF91CF910895CF93DF93EC01888D843011
S11354A038F48230B8F5882331F08130D1F039C036
S11354B0853081F136C081E0888F198E8C859D8579
S11354C0298DDC01ED91FC91AC81BD81A20FB11D50
S11354D00480F581E02D6C911995898D8F5F898FFA
S11354E020C08C859D85298DDC01ED91FC91AC81DA
S11354F0BD81A20FB11D0480F581E02D6C91199539
S1135500898D8F5F898F998D898598130AC083E06F
S1135510888F07C08A8D882319F0CE010E94322A11
S11355201A8EDF91CF9108950E944B2A0895FC01B1
S113553006C08089893041F080898A3039F08089B9
S11355408830B9F781E0089582E0089583E00895F2
S1135550CF93DF93EC01198E188E0E944B2A8E850F
S11355609F85DC01ED91FC916A897B890280F3813E
S1135570E02D1995DF91CF910895CF93DF93EC013E
S1135580E881F9810284F385E02D1995CE010E940A
S1135590A82ADF91CF910895CF93DF93EC01E8819E
S11355A0F9810684F785E02D1995CE010E94A82A79
S11355B0DF91CF910895CF93DF93EC01E881F981D6
S11355C00484F585E02D1995CE010E94A82ADF9167
S11355D0CF910895CF93DF93EC01E881F98150E0F6
S11355E00088F189E02D1995CE010E94A82ADF9147
S11355F0CF910895FC0106C0808D843041F0808DE8
S1135600853039F0808D8330B9F781E0089582E0E8
S1135610089583E0089521E0FC01228F0E94DB2A93
S1135620089521E0FC01228F0E94EA2A08950F9335
S11356301F93CF93DF938C01EB019881913869F428
S1135640D801ED91FC910480F581E02D2A81AB0114
S11356504D5F5F4F6981C80119959881933899F41A
S1135660D801ED91FC912B8130E0AE014C5F5F4F8E
S1135670698170E0762F66278A81682B0280F38126
S1135680E02DC8011995DF91CF911F910F910895D5
S11356900E94172B08950F93E0E6F6E088E08183DB
S11356A084E08283128A138AE0EAF9E084E1838346
S11356B088E1848384818483413019F0423019F075
S11356C004C080E203C080E301C080E0222319F01B
S11356D0213019F003C0877F01C08860011102C026
S11356E093E401C093E0892BE0EAF9E0858370E05C
S11356F0DB01AE5DBD4D8C918683DB01AE5FBD4D9C
S11357008C918295807F87830F9108958091A00961
S113571008956093A00908958091A10986FB8827C4
S113572080F991E0892708958091A1098095881FC7
S11357308827881F08958091A10985FB882780F90F
S113574091E089270895609334257093352540931B
S11357503E2450933F24089560933825709339254F
S113576040934224509343240895FB018BE68383A2
S113577080EA808789E0818712860895FB018CE6A0
S1135780838380EA848789E0858716860895CF938A
S1135790DF93EC010E9448118CEC92E28883998398
S11357A0DF91CF9108952CEC32E2FC012083318308
S11357B00E944E11089598E03CE8262F282720FFE8
S11357C003C08695832701C0869566959150A9F7F5
S11357D0089508950895E0E6F6E080E88183A7E25D
S11357E0BFE01197F1F700C00000828387E092E0E8
S11357F00197F1F700C000008085AFE1BDE011978B
S1135800F1F700C000008095881F8827881F08953D
S1135810CF93DF9380E090E0C1E0D0E070E0E0E679
S1135820F6E040E89E01082E02C0220F331F0A94BE
S1135830E2F7D901A623B7232A173B0769F441836A
S113584025E12A95F1F700004283A7E0B2E0119721
S1135850F1F700C000000CC04183A7E0B2E011974B
S1135860F1F700C000004283B5E3BA95F1F70000F8
S1135870019688309105B1F6DF91CF91089520E02B
S113588030E080E0E0E6F6E090E861E070E09183EB
S113589045E14A95F1F700009283AAE6AA95F1F74B
S11358A000C04085442354F0AB01022E02C0440FD3
S11358B0551F0A94E2F74095842308C0AB01022ED9
S11358C002C0440F551F0A94E2F7842BAFE8B1E0FD
S11358D01197F1F700C000002F5F3F4F28303105CA
S11358E0B1F60895AF92BF92DF92EF92FF920F93B9
S11358F01F93CF93DF93CDB7DEB72997CDBFDEBF1C
S11359008C01FC0182818823A1F0C8010E94EB2B49
S1135910882361F06CECC8010E94082C64E4C8017F
S11359200E94082C81E0F80183833FC0F8011382B0
S11359303CC0F80183818823C1F1C8010E94EB2B8C
S11359406CECC8010E94082C6EEBC8010E94082C64
S1135950CE0101967C015E019AE0A90EB11CD12C06
S1135960C8010E943F2C682FF70181937F018D2D80
S11359700E94DB2BD82EEA14FB0491F78A816981FB
S1135980D11013C070E0782B072E000C880B990BF4
S11359900E94933220E030E040E25FE30E94F7325D
S11359A00E945B32F80160837183F801928181E087
S11359B089278283808191812996CDBFDEBFDF91C3
S11359C0CF911F910F91FF90EF90DF90BF90AF9018
S11359D00895FC01A0E6B6E080E816968C9316972D
S11359E057961C9210821182138281E0828308955B
S11359F008950895CF93DF93EC01E0E4F6E011827B
S1135A0098EA908B918B928B938B948B958B968B3E
S1135A10978B8FEF8483A0E8B6E098E011969C936F
S1135A20119753961C92539714961C921497E0EA7C
S1135A30F6E090EC908B20E8218B228B238B948BC7
S1135A40958B968B978B14828183E0E6F6E081E157
S1135A508183908B948B158A148287E011968C93A2
S1135A60119750962C93509751962C935197529688
S1135A702C93529714961C92E0EAF0E082818160A4
S1135A808283828182608283828184608283FE0138
S1135A909E01285F3F4F91E09193E217F307E1F7EE
S1135AA083E08887E0E4F6E081E082878187DF9104
S1135AB0CF910895E0E5F0E08BEC828380818860EB
S1135AC08083818183FFFDCFE0E5F0E0858198ED5F
S1135AD094BF84EC8583808180618083E0E4F0E07E
S1135AE0818194BF1182E0E5F0E0818184FFFDCFE4
S1135AF0E0E4F0E08081887F846098ED94BF808347
S1135B00A0E5B0E08C91887F8C93828194BF81E082
S1135B108283E0EBF0E084818C7F8483089584E0C9
S1135B2080938506089584E080938606089582E034
S1135B308093A506089584E08093A506089588E0DF
S1135B408093A506089581E080936206089580E11C
S1135B5080936206089580E180936106089582E04F
S1135B6080938506089582E0809386060895F894CC
S1135B7084E690E0E0E8F6E028E02583AFE9BFE0C2
S1135B801197F1F700C000002683AFE9BFE0119739
S1135B90F1F700C00000019781F778940895F89414
S1135BA045E050E064E630E0E0E8F6E028E01CC0C0
S1135BB02583AFE9BFE01197F1F700C00000268309
S1135BC0AFE9BFE01197F1F700C00000019781F73A
S1135BD0BFEF73EC89E0B15070408040E1F700C042
S1135BE000004150510919F0862F932FE1CF78948A
S1135BF0089520914806FC0121870895FC018185C0
S1135C008170089508950895E0E0FAE0108287E82D
S1135C108183138284E294EF86A397A382E19AE7B7
S1135C2086A797A7168217820895E0E4FAE0108207
S1135C301182138284E294EF86A397A316821782BB
S1135C4008950F931F93CF938A01C22F9B0140E0C5
S1135C5050E064E274EF80E090E00E94E633B80123
S1135C6076956795EEE3E09FC001E19F900D1124C6
S1135C70860F971FCF5FB90102C076956795CA95C5
S1135C80E2F7E0E0FAE066A777A726A337A3A0E44B
S1135C90BAE096968D939C93979786E0808387E0ED
S1135CA08C93CF911F910F910895E0E4FAE08485DD
S1135CB080FFFDCFE0E4FAE0848581708487A0E072
S1135CC0BAE01C92108210A211A290961D921C920E
S1135CD091972FEF83EF91E0215080409040E1F7BE
S1135CE000C000000895CF93DF93EC010E94042EBE
