:100000000C94CD010C942C0D0C945D0D0C948E0D64
:100010000C94BF0D0C94F00D0C94210E0C94520E08
:100020000C94830E0C94B40E0C94E50E0C94160FE5
:100030000C94470F0C94780F0C94A90F0C94DA0FC2
:100040000C940B100C943C100C946D100C949E109E
:100050000C94CF100C9400110C9431110C9462117B
:100060000C9493110C94C4110C94F5110C94261259
:100070000C9457120C9488120C94B9120C94EA1236
:100080000C941B130C944C130C947D130C94AE1312
:100090000C94DF130C9410140C9441140C947214EF
:1000A0000C94A3140C94D4140C9405150C943615CC
:1000B0000C9467150C9498150C94C9150C94FA15AA
:1000C0000C942B160C945C160C948D160C94BE1686
:1000D0000C94EF160C9420170C9451170C94821763
:1000E0000C94B3170C94E4170C9415180C94461840
:1000F0000C9477180C94A8180C94D9180C940A191D
:100100000C943B190C946C190C949D190C94CE19F9
:100110000C94FF190C94301A0C94611A0C94921AD6
:100120000C94C31A0C94F41A0C94251B0C94FE0125
:100130000C94FE010C94561B0C94871B0C94B81B5A
:100140000C94E91B0C941A1C0C944B1C0C947C1CF6
:100150000C94AD1C0C94DE1C0C940F1D0C94401DD3
:100160000C94711D0C94A21D0C94D31D0C94041EB0
:100170000C94351E0C94661E0C94FE010C94FE012A
:100180000C94FE010C94FE010C94FE010C94FE01F3
:100190000C94FE010C94FE010C94FE010C94FE01E3
:1001A0000C94971E0C94C81E0C94FE010C94FE0136
:1001B0000C94F91E0C942A1F0C945B1F0C948C1F3A
:1001C0000C94BD1F0C94EE1F0C94FE010C94FE01C8
:1001D0000C94FE010C94FE010C94FE010C941F2063
:1001E0000C9450200C948120CD03D003E103F20342
:1001F000320432043204030407040B040F04130412
:10020000170432041B041F04230427042B042F04A7
:10021000EF22EF22F722FF220A236223692395238C
:100220009523942394230C9495230C9417040C94F5
:10023000B5200C94130C0C9472220C9439220C945B
:10024000220B0C94EF220C9469230C94360B0C9423
:1002500054220C94D0030C9433040C94F30B0C94A0
:10026000770C0C94E60B0C94270B0C942C0B0C9431
:10027000B5030C94650C0C94DF0A0C9403040C94E5
:1002800098230C946A020C94AE210C942F0C0C94BD
:1002900058020C94EC0B0C94DE0B0C9400020C94A2
:1002A00094230C9427040C944B040C94CE200C94AF
:1002B0006C0B0C94CD210C942F040C94480B0C94D3
:1002C000E1030C9462230C947D210C94F2030C94B2
:1002D0000E0C0C94B2200C945A0B0C9461020C94EA
:1002E0003B020C94FA0A0C9407040C941F040C941F
:1002F000160B0C9413040C940B040C94C4040C946F
:1003000041020C9463220C94F7220C942B040C945D
:10031000FF220C947E0B0C940F040C9432040C946A
:100320001B0D0C94900B0C94040C0C94070B0C9468
:10033000CD030C94B60B0C94B6030C9473020C947E
:100340001B040C9449020C940A230C940F0B0C947C
:1003500016220C94FD230C941D0C0C94090C0C9487
:100360001D0B0C94D10B0C94A2240C94410C0C94F6
:10037000FB0B0C9423040C94530C0C94180C0C944D
:10038000CD040C9450020C94310B0C94C1040C94C9
:100390003E02C404B520CD04CE2011241FBECFEFF1
:1003A000CDBFDFE3DEBF00E00CBF11E2A0E0B0E2B2
:1003B000E2EBFCE400E00BBF02C007900D92A2311B
:1003C000B107D9F723E2A2E1B1E201C01D92A6373D
:1003D000B207E1F711E0CBECD1E000E006C02197D5
:1003E0000109802FFE010E94D824C93CD10780E07A
:1003F0000807A9F70E9422210C9447260C940000BC
:100400000F93E0E6F6E088E0818384E08283128A3D
:10041000138AE0EAF9E084E1838388E184838481BC
:100420008483413019F0423019F004C080E203C0E7
:1004300080E301C080E0222319F0213019F003C0CD
:10044000877F01C08860011102C093E401C093E07E
:10045000892BE0EAF9E0858370E0DB01AA5DBF4DFE
:100460008C918683DB01AA5FBF4D8C918295807F42
:1004700087830F9108958091A00908956093A00942
:1004800008958091A10986FB882780F991E089274A
:1004900008958091A1098095881F8827881F089555
:1004A0008091A10985FB882780F991E0892708952B
:1004B0006093E2227093E3224093EC215093ED216C
:1004C00008956093E6227093E7224093F0215093C1
:1004D000F1210895FB018BE6838380EA808789E020
:1004E000818712860895FB018CE6838380EA8487E6
:1004F00089E0858716860895CF93DF93EC010E94EB
:10050000250D8AE490E288839983DF91CF91089545
:100510002AE430E2FC01208331830E942B0D0895F0
:1005200008950895CF93DF93EC01E0E4F6E02FEF18
:10053000218398EA908B918B928B938B948B958BE4
:10054000968B978B2483A0E8B6E088E011968C9375
:10055000119753961C92539714961C921497E0EAA5
:10056000F6E090EC908B80E8818B928B938B948B50
:10057000958B968B978B14822183E0E6F6E021E140
:100580002183908B948B148293E011969C93119706
:1005900050968C93509751968C93519714961C9229
:1005A000E0EAF0E0828181608283828182608283DE
:1005B000828184608283FE019E01285F3F4F91E02B
:1005C0009193E217F307E1F78AE08887DF91CF91F3
:1005D0000895E0E5F0E08BEC828380818860808381
:1005E000818183FFFDCFE0E5F0E0858198ED94BF48
:1005F00084EC8583808180618083E0E4F0E0818108
:1006000094BF1182E0E5F0E0818184FFFDCFE0E45A
:10061000F0E08081887F846098ED94BF8083A0E5BE
:10062000B0E08C91887F8C93828194BF81E082833B
:10063000E0EBF0E084818C7F8483089581E08093F7
:100640006206089580E180936206089581E08093B8
:100650006106089580E180936106089582E08093A9
:100660008506089582E0809386060895F89484E6CE
:1006700090E0E0E8F6E028E02583AFE9BFE01197DD
:10068000F1F700C000002683AFE9BFE01197F1F752
:1006900000C00000019781F778940895F89445E030
:1006A00050E064E630E0E0E8F6E028E01CC0258396
:1006B000AFE9BFE01197F1F700C000002683AFE972
:1006C000BFE01197F1F700C00000019781F7BFEF7D
:1006D00073EC89E0B15070408040E1F700C0000049
:1006E0004150510919F0862F932FE1CF7894089546
:1006F000CF93DC016091480618963C911897FC0155
:10070000AC01485F5F4F91E0C1E070E8892F86231C
:1007100041F080818F5F813810F4808308C070833E
:1007200006C08081815011F0808301C0C083819117
:10073000381740F419968C911997892B19968C9338
:10074000199709C019968C911997292F209528235C
:1007500019962C931997990FE417F507B9F6CF91CD
:100760000895FC018185817008950895DC0163304E
:1007700029F4FA0181811E968C931E971E964C9146
:100780001E9750E04431510508F06CC0FA018827EB
:10079000EC50FF4F8F4F0C94D8241C961C92089558
:1007A00081E01C968C931C971D968C911D97882335
:1007B00009F458C01D961C921D9781E01F968C93DA
:1007C000089582E01C968C931C971D968C911D9722
:1007D000813009F447C081E01D968C931D971F96C8
:1007E0008C93089583E01C968C931C971D968C9196
:1007F0001D978230B9F182E01D968C931D9781E0A0
:100800001F968C93089586E01C968C93089587E03C
:100810001C968C93089588E01C968C93089584E030
:100820001C968C93089585E01C968C93089589E01E
:100830001C968C9308958AE01C968C9308958BE007
:100840001C968C9308958CE01C968C9308958DE0F3
:100850001C968C9308958EE01C968C9308958FE0DF
:100860001C968C930895089556954795411551050A
:1008700089F0FB01A82FB92F440F551F640F751F76
:10088000819191919827892798278D939D93E617B9
:10089000F707B1F7089561307105E9F4BA01FC0179
:1008A0008585813081F018F0823039F012C0A901BD
:1008B0008AE291E20E9434040895A90182E191E262
:1008C0000E9434040895A9018EE191E20E9434044B
:1008D00008950E943603089522E630E2FC01208349
:1008E0003183089522E630E2FC01208331830E94A7
:1008F000622208950F931F93CF93DF931F921F924D
:10090000CDB7DEB78C0180E091E089839A8322E045
:10091000AE014F5F5F4F63E0F801808D918D0E94C3
:100920001724F801808D918D0E9454242CE030E032
:100930004AE251E261E070E0F801808D918D0E9401
:100940002624F801808D918D0E94542481E0F801C5
:1009500084870F900F90DF91CF911F910F91089591
:10096000FC01448955895695479520E068EE73E06F
:1009700084E493E20E94270A84E493E20E945B0AE3
:1009800008950E94B004089589E391E20E94A20BA9
:1009900086E391E20E94890C089586E391E20E9429
:1009A000950C89E391E20E94AE0B08958F929F927D
:1009B000AF92BF92CF92DF92EF92FF920F931F936D
:1009C000CF93DF938C01DC0158966D937C935997FC
:1009D00046E060E089E391E20E94DF0A68EA71E69E
:1009E00089E391E20E941D0B21E0A80163E374E01A
:1009F00089E391E20E94360BF80116861786EAE237
:100A0000F1E28AE090E0808391830F2EF2E3AF2E33
:100A1000B12CF02DA286B38660817181C285D38509
:100A20000F2EF8EECF2EF3E0DF2EF02DC6010E9440
:100A3000A5246C9F90016D9F300D7C9F300D11247B
:100A40003695279536952795ABE7B4E10E94E024CB
:100A500096958795828393830F2EF8ECEF2EF12CD9
:100A6000F02DE482F5828481958142855385489FEB
:100A70009001499F300D589F300D112436952795D0
:100A8000369527950E94E0249695879586839783CF
:100A90008481958142815381489F9001499F300D07
:100AA000589F300D11243695279536952795369504
:100AB0002795A5ECB0E20E94E024929582958F7074
:100AC00089279F70892780879187C2E1D1E281E0E1
:100AD00090E088839983AA86BB86688179818A841D
:100AE0009B84C6010E94A524689D9001699D300DDC
:100AF000789D300D11243695279536952795ABE7CF
:100B0000B4E10E94E024969587958A839B83EC82CA
:100B1000FD828C819D814A855B85489F9001499F1C
:100B2000300D589F300D1124369527953695279511
:100B30000E94E024969587958E839F838C819D816A
:100B40004A815B81489F9001499F300D589F300D2D
:100B50001124369527953695279536952795A5EC3A
:100B6000B0E20E94E024929582958F7089279F7051
:100B7000892788879987CEE1D1E285E090E0888354
:100B80009983AA86BB8668817981AA84BB84C601C1
:100B90000E94A5246A9D90016B9D300D7A9D300DB9
:100BA00011243695279536952795ABE7B4E10E9439
:100BB000E024969587958A839B83EC82FD828C81C5
:100BC0009D814A855B85489F9001499F300D589FC4
:100BD000300D112436952795369527950E94E024EF
:100BE000969587958E839F838C819D814A815B81B9
:100BF000489F9001499F300D589F300D1124369524
:100C000027953695279536952795A5ECB0E20E9455
:100C1000E024929582958F7089279F708927888715
:100C20009987608171818AE698E10E94A524AB01D1
:100C3000440F551F660F771F660F771F660F771FCC
:100C4000460F571FD80150964D935C9351970284DD
:100C5000F385E02D9A013695279536952795ABE7D4
:100C6000B4E10E94E024969587958E9F90018F9F16
:100C7000300D9E9F300D1124421B530BF801428B07
:100C8000538B47E063E086E391E20E94B60BD80104
:100C900050966D917C91519786E391E20E94040CED
:100CA000F8016289738986E391E20E94090CD801F8
:100CB00052966D917C91539786E391E20E940E0CBF
:100CC00021E0A80161EC74E086E391E20E941D0C32
:100CD00060E186E391E20E94E60B60E286E391E246
:100CE0000E94E60B60E186E391E20E94F30B60E272
:100CF00086E391E20E94F30BF8011586DF91CF9114
:100D00001F910F91FF90EF90DF90CF90BF90AF9029
:100D10009F908F900895EF92FF920F931F93CF9320
:100D2000DF93CDB7DEB72E97CDBFDEBF8C0142E09B
:100D300063E0DC0158968D919C9159970E9465243F
:100D4000F801808D918D0E945424D80158968D9180
:100D50009C9159970E940024BFEFE1EEF4E0B1505E
:100D6000E040F040E1F700C00000D8011F968C91F0
:100D70001F9781111EC04CE061E070E058968D9184
:100D80009C9159970E946B24F801808D918D0E944F
:100D90005424D80158968D919C9159970E94002413
:100DA000BFEFE1EEF4E0B150E040F040E1F700C009
:100DB0000000D8011C968C91863009F455C028F4A7
:100DC000882351F0853009F10EC1873009F46DC0D8
:100DD000883009F4B3C007C180E091E089839A8329
:100DE00022E0AE014F5F5F4F63E0F801808D918D8F
:100DF0000E941724D80158968D919C9159970E9472
:100E0000542481E0F8018487EEC085E493E20E94D7
:100E1000B10381111AC0D80152966D917C915397FC
:100E200086E391E20E94090CF8016289738986E3E6
:100E300091E20E940E0CD80150966D917C915197D1
:100E400086E391E20E94D10BCEC086E391E20E943C
:100E5000DE0B60E186E391E20E94F30B60E286E341
:100E600091E20E94F30BBFC085E493E20E9422034B
:100E700085E493E20E942E0380E09AE089839A83BE
:100E800022E0AE014F5F5F4F63E0F801808D918DEE
:100E90000E941724D80158968D919C9159970E94D1
:100EA000542484E0F80184879EC0D80156964D9161
:100EB0005C9157970024569547950794569547950A
:100EC0000794542F402D9A01A1E1B4E00E94E02440
:100ED000481B590B56954795840F951F96958795F6
:100EE000929582958F7089279F708927880F991F07
:100EF000880F991F8D879E8742E050E0BE01635F97
:100F00007F4F8AE693E20E94E30C80E09BE08983B6
:100F10009A8322E0AE014F5F5F4F63E0F801808D5E
:100F2000918D0E941724D80158968D919C915997C4
:100F30000E94542485E0F801848755C01D861E86D2
:100F400042E050E0BE01635F7F4F8AE693E20E9479
:100F5000E30C86E391E20E94DE0B60E186E391E21E
:100F60000E94F30B60E286E391E20E94F30B85E4BA
:100F700093E20E94320385E493E20E942A031982DD
:100F80001A82D8011D968C918130A9F018F0823018
:100F900049F018C080E091E089839A8381E0F801EC
:100FA000848710C080E093E089839A8383E0D8012E
:100FB0001C968C9307C080E092E089839A8382E03C
:100FC000F801848722E0AE014F5F5F4F63E0D801F4
:100FD00058968D919C9159970E941724F801808D05
:100FE000918D0E945424D8011F968C911F978823BD
:100FF000B9F11D968C918130F1F018F0823069F0D2
:1010000025C02CE030E04AE251E261E070E0F801F6
:10101000808D918D0E94262419C02CE030E042E1A1
:1010200051E261E070E0D80158968D919C915997FA
:101030000E9426240BC02CE030E04EE151E261E03A
:1010400070E0F801808D918D0E942624D801589679
:101050008D919C9159970E945424F8011786CEC116
:10106000D8011D968C91813009F42FC120F0823077
:1010700009F496C0BEC1EAE2F1E282819381408127
:101080005181489F9001499F300D589F300D112488
:10109000ADECBCEC0E94E0247C01F694E794F6945D
:1010A000E794F694E794EB86FC86848195814285EB
:1010B0005385489F9001499F300D589F300D112452
:1010C0003695279536952795ABE7B4E10E94E02445
:1010D000969587958F8398878481958142815381E6
:1010E000489F9001499F300D589F300D112436952F
:1010F00027953695279536952795A5ECB0E20E9461
:10110000E024929582958F7089279F70892789871F
:101110009A87608171818AE698E10E94A524AB01DB
:10112000440F551F660F771F660F771F660F771FD7
:10113000460F571FD80150964D935C9351979A01D3
:101140003695279536952795ABE7B4E10E94E024C4
:10115000969587958E9D90018F9D300D9E9D300DAB
:101160001124421B530BD80152964D935C93539715
:101170005496ED92FC9255978481958156968D9365
:101180009C93579726E030E0AE01495F5F4F64E0E3
:1011900070E058968D919C9159970E94262429C100
:1011A000E2E1F1E28281938140815181489F900187
:1011B000499F300D589F300D1124ADECBCEC0E94BE
:1011C000E0247C01F694E794F694E794F694E7948F
:1011D000EB86FC868481958142855385489F9001EA
:1011E000499F300D589F300D11243695279536951F
:1011F0002795ABE7B4E10E94E024969587958F830D
:1012000098878481958142815381489F9001499FAD
:10121000300D589F300D112436952795369527951A
:1012200036952795A5ECB0E20E94E0249295829530
:101230008F7089279F70892789879A87608171813C
:101240008AE698E10E94A524AB01440F551F660F62
:10125000771F660F771F660F771F460F571FD8013E
:1012600050964D935C9351979A01369527953695F4
:101270002795ABE7B4E10E94E024969587958E9D73
:1012800090018F9D300D9E9D300D1124421B530BFC
:10129000D80152964D935C9353975496ED92FC92DD
:1012A00055978481958156968D939C93579726E008
:1012B00030E0AE01495F5F4F64E070E058968D9179
:1012C0009C9159970E94262494C0EEE1F1E282811C
:1012D000938140815181489F9001499F300D589FD3
:1012E000300D1124ADECBCEC0E94E0247C01F6949E
:1012F000E794F694E794F694E794EB86FC86848171
:10130000958142855385489F9001499F300D589F94
:10131000300D11243695279536952795ABE7B4E126
:101320000E94E024969587958F8398878481958184
:1013300042815381489F9001499F300D589F300D45
:101340001124369527953695279536952795A5EC42
:10135000B0E20E94E024929582958F7089279F7059
:10136000892789879A87608171818AE698E10E943E
:10137000A524AB01440F551F660F771F660F771F1B
:10138000660F771F460F571FD80150964D935C93F9
:1013900051979A013695279536952795ABE7B4E195
:1013A0000E94E024969587958E9D90018F9D300D2B
:1013B0009E9D300D1124421B530BD80152964D9324
:1013C0005C9353975496ED92FC9255978481958146
:1013D00056968D939C93579726E030E0AE01495F77
:1013E0005F4F64E070E058968D919C9159970E94F0
:1013F0002624F801808D918D0E9454242E96CDBF15
:10140000DEBFDF91CF911F910F91FF90EF90089574
:1014100008950895E0E0FAE0108287E8818313825E
:1014200084E294EF86A397A382E19AE786A797A721
:10143000168217820895E0E4FAE010821182138286
:1014400084E294EF86A397A31682178208950F93E0
:101450001F93CF938A01C22F9B0140E050E064E2CA
:1014600074EF80E090E00E94B924B801769567950A
:10147000EEE3E09FC001E19F900D1124860F971FBE
:10148000CF5FB90102C076956795CA95E2F7E0E0B3
:10149000FAE066A777A726A337A3A0E4BAE096965A
:1014A0008D939C93979786E0808387E08C93CF9170
:1014B0001F910F910895E0E4FAE0848580FFFDCF4D
:1014C000E0E4FAE0848581708487A0E0BAE01C92B1
:1014D000108210A211A290961D921C9291972FEF4C
:1014E00083EF91E0215080409040E1F700C0000080
:1014F0000895CF93DF93EC0123E00E94270ACE01E9
:101500000E945B0ADF91CF910895CF93DF93EC01A6
:101510000E940A0ACE010E941B0ADF91CF91089512
:10152000CF93DF93EC01F89444EF51E068EB71E066
:101530000E94790A44EF51E068EB71E0CE010E940D
:10154000790A44EF51E068EB71E0CE010E94790A1C
:101550004EE551E06DE571E0CE010E94790A46E961
:1015600050E06BE072E0CE010E94790A44EF51E056
:1015700068EB71E0CE010E94790A4EE551E06DE51D
:1015800071E0CE010E94790A46E950E06BE072E01A
:10159000CE010E94790A4AE852E068EB71E0CE0180
:1015A0000E94790A2FEF85EA9EE02150804090400A
:1015B000E1F700C000007894DF91CF910895FC011D
:1015C0004283E0E0F8E08081807F8083138210A274
:1015D00011A210A611A612A613A614A615A616A649
:1015E00017A616A217A28181887F682B61831682B5
:1015F00017820895E0E0F8E066A377A32081207FBA
:10160000DC0112969C91822F892B80830895E0E063
:10161000F8E08081807F808310A211A20895E0E02D
:10162000F8E081818F70682B61830895E0E0F8E035
:101630008181609568236183089560932608709383
:1016400027080895609328087093290808956093E7
:101650002A0870932B08089560932C0870932D0826
:10166000089560932E0870932F08089561157105F1
:1016700031F0E0E0F8E086818370282B26836093C8
:1016800058217093592140934E2250934F22089530
:101690006115710531F0E0E0F8E086818C70282B4F
:1016A000268360935A2170935B214093502250937C
:1016B000512208956115710531F0E0E0F8E087816D
:1016C0008370282B278360935C2170935D21409366
:1016D00052225093532208956115710531F0E0E0D4
:1016E000F8E087818C70282B278360935E217093AC
:1016F0005F2140935422509355220895611571053E
:1017000031F0E0E0F8E087818073282B2783609335
:10171000602170936121409356225093572208957F
:101720006115710531F0E0E0F8E08781807C282BBD
:1017300027836093622170936321409358225093D2
:1017400059220895CF93DF93EC010E941E0D88E784
:1017500090E288839983DF91CF91089528E730E262
:10176000FC01208331830E94240D0895FC014283F3
:10177000E0E0FBE08081807F8083138210A211A2D1
:1017800010A611A612A613A614A615A616A617A68D
:1017900016A217A28181887F682B61831682178227
:1017A0000895E0E0FBE066A377A32081207FDC01C1
:1017B00012969C91822F892B80830895E0E0FBE0B4
:1017C0008081807F808310A211A20895E0E0FBE079
:1017D0008181682B61830895E0E0FBE08181609561
:1017E000682361830895E0E0FBE0828162956F7079
:1017F000682B62830895E0E0FBE0828162956F7060
:1018000060956823628308956093260B7093270B7D
:1018100008956093280B7093290B089560932A0B09
:1018200070932B0B089560932C0B70932D0B0895E0
:1018300060932E0B70932F0B08956115710531F095
:10184000E0E0FBE086818370282B268360931422DE
:101850007093152240930A2350930B23089561152A
:10186000710531F0E0E0FBE086818C70282B268347
:10187000609316227093172240930C2350930D23EC
:1018800008956115710531F0E0E0FBE08781837018
:10189000282B2783609318227093192240930E23DC
:1018A00050930F2308956115710531F0E0E0FBE0DE
:1018B00087818C70282B278360931A2270931B22B8
:1018C000409310235093112308956115710531F051
:1018D000E0E0FBE087818073282B278360931C2244
:1018E00070931D2240931223509313230895611582
:1018F000710531F0E0E0FBE08781807C282B2783B5
:1019000060931E2270931F2240931423509315233B
:101910000895CF93DF93EC010E941E0D8CE990E2B5
:1019200088839983DF91CF9108952CE930E2FC01FF
:10193000208331830E94240D089508950895EF9225
:101940000F931F93CF93DF93EC01E0E8F6E080EB79
:10195000818390E4928390EC948B958B968B978BFC
:101960008583611102C080E401C080E5011102C0DD
:1019700030E001C030E8411102C090E001C090E2C7
:10198000220F220FE22AE82AE32AE92A00EC1AE0D1
:10199000F801E08280E091E00E941125888399831C
:1019A00081E0F80181838BE19DE08093AE219093EB
:1019B000AF21C093A422D093A522DF91CF911F9194
:1019C0000F91EF900895CF93DF93EC014A835B83EF
:1019D0004C835D83888199810E943E2680E18093BB
:1019E0008606888199814A815B819A01215031095B
:1019F0002A833B83FC01E20FF31F80818093C30A9B
:101A0000DF91CF910895FC0182819381892B79F038
:101A10004081518122813381C9010197828393835F
:101A2000FA01E80FF91F80818093C30A089580E1CD
:101A30008093850608950E94030D089524EC30E2FA
:101A4000FC01208331830895089528EE30E2FC01E3
:101A500020833183089508951F920F920FB60F923D
:101A600011240BB60F922F933F934F935F936F9375
:101A70007F938F939F93AF93BF93EF93FF93E091E7
:101A80003E21F0913F21309729F0809134229091AE
:101A900035221995FF91EF91BF91AF919F918F9151
:101AA0007F916F915F914F913F912F910F900BBE5E
:101AB0000F900FBE0F901F9018951F920F920FB6A8
:101AC0000F9211240BB60F922F933F934F935F9376
:101AD0006F937F938F939F93AF93BF93EF93FF93F6
:101AE000E0914021F0914121309729F080913622F8
:101AF000909137221995FF91EF91BF91AF919F91EE
:101B00008F917F916F915F914F913F912F910F90A6
:101B10000BBE0F900FBE0F901F9018951F920F9243
:101B20000FB60F9211240BB60F922F933F934F9342
:101B30005F936F937F938F939F93AF93BF93EF9335
:101B4000FF93E0914221F0914321309729F0809159
:101B50003822909139221995FF91EF91BF91AF9161
:101B60009F918F917F916F915F914F913F912F91B5
:101B70000F900BBE0F900FBE0F901F9018951F92E5
:101B80000F920FB60F9211240BB60F922F933F9323
:101B90004F935F936F937F938F939F93AF93BF9375
:101BA000EF93FF93E0914421F0914521309729F084
:101BB00080913A2290913B221995FF91EF91BF912C
:101BC000AF919F918F917F916F915F914F913F91D5
:101BD0002F910F900BBE0F900FBE0F901F90189576
:101BE0001F920F920FB60F9211240BB60F922F93E4
:101BF0003F934F935F936F937F938F939F93AF9395
:101C0000BF93EF93FF93E0914621F09147213097E6
:101C100029F080913C2290913D221995FF91EF91FE
:101C2000BF91AF919F918F917F916F915F914F91F4
:101C30003F912F910F900BBE0F900FBE0F901F90F2
:101C400018951F920F920FB60F9211240BB60F9298
:101C50002F933F934F935F936F937F938F939F93B4
:101C6000AF93BF93EF93FF93E0914821F091492107
:101C7000309729F080913E2290913F221995FF9153
:101C8000EF91BF91AF919F918F917F916F915F91F4
:101C90004F913F912F910F900BBE0F900FBE0F9061
:101CA0001F9018951F920F920FB60F9211240BB62A
:101CB0000F922F933F934F935F936F937F938F93E5
:101CC0009F93AF93BF93EF93FF93E0914A21F091DD
:101CD0004B21309729F08091402290914122199513
:101CE000FF91EF91BF91AF919F918F917F916F91F4
:101CF0005F914F913F912F910F900BBE0F900FBEB0
:101D00000F901F9018951F920F920FB60F921124EB
:101D10000BB60F922F933F934F935F936F937F93E5
:101D20008F939F93AF93BF93EF93FF93E0914C21D9
:101D3000F0914D21309729F08091422290914322D9
:101D40001995FF91EF91BF91AF919F918F917F91E5
:101D50006F915F914F913F912F910F900BBE0F901C
:101D60000FBE0F901F9018951F920F920FB60F92F3
:101D700011240BB60F922F933F934F935F936F9362
:101D80007F938F939F93AF93BF93EF93FF93E091D4
:101D90004E21F0914F21309729F08091442290916B
:101DA00045221995FF91EF91BF91AF919F918F912E
:101DB0007F916F915F914F913F912F910F900BBE4B
:101DC0000F900FBE0F901F9018951F920F920FB695
:101DD0000F9211240BB60F922F933F934F935F9363
:101DE0006F937F938F939F93AF93BF93EF93FF93E3
:101DF000E0915021F0915121309729F080914622B5
:101E0000909147221995FF91EF91BF91AF919F91CA
:101E10008F917F916F915F914F913F912F910F9093
:101E20000BBE0F900FBE0F901F9018951F920F9230
:101E30000FB60F9211240BB60F922F933F934F932F
:101E40005F936F937F938F939F93AF93BF93EF9322
:101E5000FF93E0915221F0915321309729F0809126
:101E60004822909149221995FF91EF91BF91AF912E
:101E70009F918F917F916F915F914F913F912F91A2
:101E80000F900BBE0F900FBE0F901F9018951F92D2
:101E90000F920FB60F9211240BB60F922F933F9310
:101EA0004F935F936F937F938F939F93AF93BF9362
:101EB000EF93FF93E0915421F0915521309729F051
:101EC00080914A2290914B221995FF91EF91BF91F9
:101ED000AF919F918F917F916F915F914F913F91C2
:101EE0002F910F900BBE0F900FBE0F901F90189563
:101EF0001F920F920FB60F9211240BB60F922F93D1
:101F00003F934F935F936F937F938F939F93AF9381
:101F1000BF93EF93FF93E0915621F09157213097B3
:101F200029F080914C2290914D221995FF91EF91CB
:101F3000BF91AF919F918F917F916F915F914F91E1
:101F40003F912F910F900BBE0F900FBE0F901F90DF
:101F500018951F920F920FB60F9211240BB60F9285
:101F60002F933F934F935F936F937F938F939F93A1
:101F7000AF93BF93EF93FF93E0915821F0915921D4
:101F8000309729F080914E2290914F221995FF9120
:101F9000EF91BF91AF919F918F917F916F915F91E1
:101FA0004F913F912F910F900BBE0F900FBE0F904E
:101FB0001F9018951F920F920FB60F9211240BB617
:101FC0000F922F933F934F935F936F937F938F93D2
:101FD0009F93AF93BF93EF93FF93E0915A21F091BA
:101FE0005B21309729F080915022909151221995D0
:101FF000FF91EF91BF91AF919F918F917F916F91E1
:102000005F914F913F912F910F900BBE0F900FBE9C
:102010000F901F9018951F920F920FB60F921124D8
:102020000BB60F922F933F934F935F936F937F93D2
:102030008F939F93AF93BF93EF93FF93E0915C21B6
:10204000F0915D21309729F0809152229091532296
:102050001995FF91EF91BF91AF919F918F917F91D2
:102060006F915F914F913F912F910F900BBE0F9009
:102070000FBE0F901F9018951F920F920FB60F92E0
:1020800011240BB60F922F933F934F935F936F934F
:102090007F938F939F93AF93BF93EF93FF93E091C1
:1020A0005E21F0915F21309729F080915422909128
:1020B00055221995FF91EF91BF91AF919F918F910B
:1020C0007F916F915F914F913F912F910F900BBE38
:1020D0000F900FBE0F901F9018951F920F920FB682
:1020E0000F9211240BB60F922F933F934F935F9350
:1020F0006F937F938F939F93AF93BF93EF93FF93D0
:10210000E0916021F0916121309729F08091562271
:10211000909157221995FF91EF91BF91AF919F91A7
:102120008F917F916F915F914F913F912F910F9080
:102130000BBE0F900FBE0F901F9018951F920F921D
:102140000FB60F9211240BB60F922F933F934F931C
:102150005F936F937F938F939F93AF93BF93EF930F
:10216000FF93E0916221F0916321309729F08091F3
:102170005822909159221995FF91EF91BF91AF91FB
:102180009F918F917F916F915F914F913F912F918F
:102190000F900BBE0F900FBE0F901F9018951F92BF
:1021A0000F920FB60F9211240BB60F922F933F93FD
:1021B0004F935F936F937F938F939F93AF93BF934F
:1021C000EF93FF93E0916421F0916521309729F01E
:1021D00080915A2290915B221995FF91EF91BF91C6
:1021E000AF919F918F917F916F915F914F913F91AF
:1021F0002F910F900BBE0F900FBE0F901F90189550
:102200001F920F920FB60F9211240BB60F922F93BD
:102210003F934F935F936F937F938F939F93AF936E
:10222000BF93EF93FF93E0916621F0916721309780
:1022300029F080915C2290915D221995FF91EF9198
:10224000BF91AF919F918F917F916F915F914F91CE
:102250003F912F910F900BBE0F900FBE0F901F90CC
:1022600018951F920F920FB60F9211240BB60F9272
:102270002F933F934F935F936F937F938F939F938E
:10228000AF93BF93EF93FF93E0916821F0916921A1
:10229000309729F080915E2290915F221995FF91ED
:1022A000EF91BF91AF919F918F917F916F915F91CE
:1022B0004F913F912F910F900BBE0F900FBE0F903B
:1022C0001F9018951F920F920FB60F9211240BB604
:1022D0000F922F933F934F935F936F937F938F93BF
:1022E0009F93AF93BF93EF93FF93E0916A21F09197
:1022F0006B21309729F0809160229091612219958D
:10230000FF91EF91BF91AF919F918F917F916F91CD
:102310005F914F913F912F910F900BBE0F900FBE89
:102320000F901F9018951F920F920FB60F921124C5
:102330000BB60F922F933F934F935F936F937F93BF
:102340008F939F93AF93BF93EF93FF93E0916C2193
:10235000F0916D21309729F0809162229091632253
:102360001995FF91EF91BF91AF919F918F917F91BF
:102370006F915F914F913F912F910F900BBE0F90F6
:102380000FBE0F901F9018951F920F920FB60F92CD
:1023900011240BB60F922F933F934F935F936F933C
:1023A0007F938F939F93AF93BF93EF93FF93E091AE
:1023B0006E21F0916F21309729F0809164229091E5
:1023C00065221995FF91EF91BF91AF919F918F91E8
:1023D0007F916F915F914F913F912F910F900BBE25
:1023E0000F900FBE0F901F9018951F920F920FB66F
:1023F0000F9211240BB60F922F933F934F935F933D
:102400006F937F938F939F93AF93BF93EF93FF93BC
:10241000E0917021F0917121309729F0809166222E
:10242000909167221995FF91EF91BF91AF919F9184
:102430008F917F916F915F914F913F912F910F906D
:102440000BBE0F900FBE0F901F9018951F920F920A
:102450000FB60F9211240BB60F922F933F934F9309
:102460005F936F937F938F939F93AF93BF93EF93FC
:10247000FF93E0917221F0917321309729F08091C0
:102480006822909169221995FF91EF91BF91AF91C8
:102490009F918F917F916F915F914F913F912F917C
:1024A0000F900BBE0F900FBE0F901F9018951F92AC
:1024B0000F920FB60F9211240BB60F922F933F93EA
:1024C0004F935F936F937F938F939F93AF93BF933C
:1024D000EF93FF93E0917421F0917521309729F0EB
:1024E00080916A2290916B221995FF91EF91BF9193
:1024F000AF919F918F917F916F915F914F913F919C
:102500002F910F900BBE0F900FBE0F901F9018953C
:102510001F920F920FB60F9211240BB60F922F93AA
:102520003F934F935F936F937F938F939F93AF935B
:10253000BF93EF93FF93E0917621F091772130974D
:1025400029F080916C2290916D221995FF91EF9165
:10255000BF91AF919F918F917F916F915F914F91BB
:102560003F912F910F900BBE0F900FBE0F901F90B9
:1025700018951F920F920FB60F9211240BB60F925F
:102580002F933F934F935F936F937F938F939F937B
:10259000AF93BF93EF93FF93E0917821F09179216E
:1025A000309729F080916E2290916F221995FF91BA
:1025B000EF91BF91AF919F918F917F916F915F91BB
:1025C0004F913F912F910F900BBE0F900FBE0F9028
:1025D0001F9018951F920F920FB60F9211240BB6F1
:1025E0000F922F933F934F935F936F937F938F93AC
:1025F0009F93AF93BF93EF93FF93E0917A21F09174
:102600007B21309729F08091702290917122199549
:10261000FF91EF91BF91AF919F918F917F916F91BA
:102620005F914F913F912F910F900BBE0F900FBE76
:102630000F901F9018951F920F920FB60F921124B2
:102640000BB60F922F933F934F935F936F937F93AC
:102650008F939F93AF93BF93EF93FF93E0917C2170
:10266000F0917D21309729F0809172229091732210
:102670001995FF91EF91BF91AF919F918F917F91AC
:102680006F915F914F913F912F910F900BBE0F90E3
:102690000FBE0F901F9018951F920F920FB60F92BA
:1026A00011240BB60F922F933F934F935F936F9329
:1026B0007F938F939F93AF93BF93EF93FF93E0919B
:1026C0007E21F0917F21309729F0809174229091A2
:1026D00075221995FF91EF91BF91AF919F918F91C5
:1026E0007F916F915F914F913F912F910F900BBE12
:1026F0000F900FBE0F901F9018951F920F920FB65C
:102700000F9211240BB60F922F933F934F935F9329
:102710006F937F938F939F93AF93BF93EF93FF93A9
:10272000E0918021F0918121309729F080917622EB
:10273000909177221995FF91EF91BF91AF919F9161
:102740008F917F916F915F914F913F912F910F905A
:102750000BBE0F900FBE0F901F9018951F920F92F7
:102760000FB60F9211240BB60F922F933F934F93F6
:102770005F936F937F938F939F93AF93BF93EF93E9
:10278000FF93E0918221F0918321309729F080918D
:102790007822909179221995FF91EF91BF91AF9195
:1027A0009F918F917F916F915F914F913F912F9169
:1027B0000F900BBE0F900FBE0F901F9018951F9299
:1027C0000F920FB60F9211240BB60F922F933F93D7
:1027D0004F935F936F937F938F939F93AF93BF9329
:1027E000EF93FF93E0918421F0918521309729F0B8
:1027F00080917A2290917B221995FF91EF91BF9160
:10280000AF919F918F917F916F915F914F913F9188
:102810002F910F900BBE0F900FBE0F901F90189529
:102820001F920F920FB60F9211240BB60F922F9397
:102830003F934F935F936F937F938F939F93AF9348
:10284000BF93EF93FF93E0918621F091872130971A
:1028500029F080917C2290917D221995FF91EF9132
:10286000BF91AF919F918F917F916F915F914F91A8
:102870003F912F910F900BBE0F900FBE0F901F90A6
:1028800018951F920F920FB60F9211240BB60F924C
:102890002F933F934F935F936F937F938F939F9368
:1028A000AF93BF93EF93FF93E0918821F09189213B
:1028B000309729F080917E2290917F221995FF9187
:1028C000EF91BF91AF919F918F917F916F915F91A8
:1028D0004F913F912F910F900BBE0F900FBE0F9015
:1028E0001F9018951F920F920FB60F9211240BB6DE
:1028F0000F922F933F934F935F936F937F938F9399
:102900009F93AF93BF93EF93FF93E0918A21F09150
:102910008B21309729F08091802290918122199506
:10292000FF91EF91BF91AF919F918F917F916F91A7
:102930005F914F913F912F910F900BBE0F900FBE63
:102940000F901F9018951F920F920FB60F9211249F
:102950000BB60F922F933F934F935F936F937F9399
:102960008F939F93AF93BF93EF93FF93E0918C214D
:10297000F0918D21309729F08091822290918322CD
:102980001995FF91EF91BF91AF919F918F917F9199
:102990006F915F914F913F912F910F900BBE0F90D0
:1029A0000FBE0F901F9018951F920F920FB60F92A7
:1029B00011240BB60F922F933F934F935F936F9316
:1029C0007F938F939F93AF93BF93EF93FF93E09188
:1029D0008E21F0918F21309729F08091842290915F
:1029E00085221995FF91EF91BF91AF919F918F91A2
:1029F0007F916F915F914F913F912F910F900BBEFF
:102A00000F900FBE0F901F9018951F920F920FB648
:102A10000F9211240BB60F922F933F934F935F9316
:102A20006F937F938F939F93AF93BF93EF93FF9396
:102A3000E0919021F0919121309729F080918622A8
:102A4000909187221995FF91EF91BF91AF919F913E
:102A50008F917F916F915F914F913F912F910F9047
:102A60000BBE0F900FBE0F901F9018951F920F92E4
:102A70000FB60F9211240BB60F922F933F934F93E3
:102A80005F936F937F938F939F93AF93BF93EF93D6
:102A9000FF93E0919221F0919321309729F080915A
:102AA0008822909189221995FF91EF91BF91AF9162
:102AB0009F918F917F916F915F914F913F912F9156
:102AC0000F900BBE0F900FBE0F901F9018951F9286
:102AD0000F920FB60F9211240BB60F922F933F93C4
:102AE0004F935F936F937F938F939F93AF93BF9316
:102AF000EF93FF93E0919421F0919521309729F085
:102B000080918A2290918B221995FF91EF91BF912C
:102B1000AF919F918F917F916F915F914F913F9175
:102B20002F910F900BBE0F900FBE0F901F90189516
:102B30001F920F920FB60F9211240BB60F922F9384
:102B40003F934F935F936F937F938F939F93AF9335
:102B5000BF93EF93FF93E0919621F09197213097E7
:102B600029F080918C2290918D221995FF91EF91FF
:102B7000BF91AF919F918F917F916F915F914F9195
:102B80003F912F910F900BBE0F900FBE0F901F9093
:102B900018951F920F920FB60F9211240BB60F9239
:102BA0002F933F934F935F936F937F938F939F9355
:102BB000AF93BF93EF93FF93E0919821F091992108
:102BC000309729F080918E2290918F221995FF9154
:102BD000EF91BF91AF919F918F917F916F915F9195
:102BE0004F913F912F910F900BBE0F900FBE0F9002
:102BF0001F9018951F920F920FB60F9211240BB6CB
:102C00000F922F933F934F935F936F937F938F9385
:102C10009F93AF93BF93EF93FF93E0919A21F0912D
:102C20009B21309729F080919022909191221995C3
:102C3000FF91EF91BF91AF919F918F917F916F9194
:102C40005F914F913F912F910F900BBE0F900FBE50
:102C50000F901F9018951F920F920FB60F9211248C
:102C60000BB60F922F933F934F935F936F937F9386
:102C70008F939F93AF93BF93EF93FF93E0919C212A
:102C8000F0919D21309729F080919222909193228A
:102C90001995FF91EF91BF91AF919F918F917F9186
:102CA0006F915F914F913F912F910F900BBE0F90BD
:102CB0000FBE0F901F9018951F920F920FB60F9294
:102CC00011240BB60F922F933F934F935F936F9303
:102CD0007F938F939F93AF93BF93EF93FF93E09175
:102CE0009E21F0919F21309729F08091942290911C
:102CF00095221995FF91EF91BF91AF919F918F917F
:102D00007F916F915F914F913F912F910F900BBEEB
:102D10000F900FBE0F901F9018951F920F920FB635
:102D20000F9211240BB60F922F933F934F935F9303
:102D30006F937F938F939F93AF93BF93EF93FF9383
:102D4000E091A021F091A121309729F08091962265
:102D5000909197221995FF91EF91BF91AF919F911B
:102D60008F917F916F915F914F913F912F910F9034
:102D70000BBE0F900FBE0F901F9018951F920F92D1
:102D80000FB60F9211240BB60F922F933F934F93D0
:102D90005F936F937F938F939F93AF93BF93EF93C3
:102DA000FF93E091A221F091A321309729F0809127
:102DB0009822909199221995FF91EF91BF91AF912F
:102DC0009F918F917F916F915F914F913F912F9143
:102DD0000F900BBE0F900FBE0F901F9018951F9273
:102DE0000F920FB60F9211240BB60F922F933F93B1
:102DF0004F935F936F937F938F939F93AF93BF9303
:102E0000EF93FF93E091A421F091A521309729F051
:102E100080919A2290919B221995FF91EF91BF91F9
:102E2000AF919F918F917F916F915F914F913F9162
:102E30002F910F900BBE0F900FBE0F901F90189503
:102E40001F920F920FB60F9211240BB60F922F9371
:102E50003F934F935F936F937F938F939F93AF9322
:102E6000BF93EF93FF93E091A621F091A7213097B4
:102E700029F080919C2290919D221995FF91EF91CC
:102E8000BF91AF919F918F917F916F915F914F9182
:102E90003F912F910F900BBE0F900FBE0F901F9080
:102EA00018951F920F920FB60F9211240BB60F9226
:102EB0002F933F934F935F936F937F938F939F9342
:102EC000AF93BF93EF93FF93E091A821F091A921D5
:102ED000309729F080919E2290919F221995FF9121
:102EE000EF91BF91AF919F918F917F916F915F9182
:102EF0004F913F912F910F900BBE0F900FBE0F90EF
:102F00001F9018951F920F920FB60F9211240BB6B7
:102F10000F922F933F934F935F936F937F938F9372
:102F20009F93AF93BF93EF93FF93E091AA21F0910A
:102F3000AB21309729F08091A0229091A122199580
:102F4000FF91EF91BF91AF919F918F917F916F9181
:102F50005F914F913F912F910F900BBE0F900FBE3D
:102F60000F901F9018951F920F920FB60F92112479
:102F70000BB60F922F933F934F935F936F937F9373
:102F80008F939F93AF93BF93EF93FF93E091AC2107
:102F9000F091AD21309729F08091A2229091A32247
:102FA0001995FF91EF91BF91AF919F918F917F9173
:102FB0006F915F914F913F912F910F900BBE0F90AA
:102FC0000FBE0F901F9018951F920F920FB60F9281
:102FD00011240BB60F922F933F934F935F936F93F0
:102FE0007F938F939F93AF93BF93EF93FF93E09162
:102FF000AE21F091AF21309729F08091A4229091D9
:10300000A5221995FF91EF91BF91AF919F918F915B
:103010007F916F915F914F913F912F910F900BBED8
:103020000F900FBE0F901F9018951F920F920FB622
:103030000F9211240BB60F922F933F934F935F93F0
:103040006F937F938F939F93AF93BF93EF93FF9370
:10305000E091B021F091B121309729F08091A62222
:103060009091A7221995FF91EF91BF91AF919F91F8
:103070008F917F916F915F914F913F912F910F9021
:103080000BBE0F900FBE0F901F9018951F920F92BE
:103090000FB60F9211240BB60F922F933F934F93BD
:1030A0005F936F937F938F939F93AF93BF93EF93B0
:1030B000FF93E091B221F091B321309729F08091F4
:1030C000A8229091A9221995FF91EF91BF91AF91FC
:1030D0009F918F917F916F915F914F913F912F9130
:1030E0000F900BBE0F900FBE0F901F9018951F9260
:1030F0000F920FB60F9211240BB60F922F933F939E
:103100004F935F936F937F938F939F93AF93BF93EF
:10311000EF93FF93E091B421F091B521309729F01E
:103120008091AA229091AB221995FF91EF91BF91C6
:10313000AF919F918F917F916F915F914F913F914F
:103140002F910F900BBE0F900FBE0F901F901895F0
:103150001F920F920FB60F9211240BB60F922F935E
:103160003F934F935F936F937F938F939F93AF930F
:10317000BF93EF93FF93E091B621F091B721309781
:1031800029F08091AC229091AD221995FF91EF9199
:10319000BF91AF919F918F917F916F915F914F916F
:1031A0003F912F910F900BBE0F900FBE0F901F906D
:1031B00018951F920F920FB60F9211240BB60F9213
:1031C0002F933F934F935F936F937F938F939F932F
:1031D000AF93BF93EF93FF93E091B821F091B921A2
:1031E000309729F08091AE229091AF221995FF91EE
:1031F000EF91BF91AF919F918F917F916F915F916F
:103200004F913F912F910F900BBE0F900FBE0F90DB
:103210001F9018951F920F920FB60F9211240BB6A4
:103220000F922F933F934F935F936F937F938F935F
:103230009F93AF93BF93EF93FF93E091BA21F091E7
:10324000BB21309729F08091B0229091B12219953D
:10325000FF91EF91BF91AF919F918F917F916F916E
:103260005F914F913F912F910F900BBE0F900FBE2A
:103270000F901F9018951F920F920FB60F92112466
:103280000BB60F922F933F934F935F936F937F9360
:103290008F939F93AF93BF93EF93FF93E091BC21E4
:1032A000F091BD21309729F08091B2229091B32204
:1032B0001995FF91EF91BF91AF919F918F917F9160
:1032C0006F915F914F913F912F910F900BBE0F9097
:1032D0000FBE0F901F9018951F920F920FB60F926E
:1032E00011240BB60F922F933F934F935F936F93DD
:1032F0007F938F939F93AF93BF93EF93FF93E0914F
:10330000BE21F091BF21309729F08091B422909195
:10331000B5221995FF91EF91BF91AF919F918F9138
:103320007F916F915F914F913F912F910F900BBEC5
:103330000F900FBE0F901F9018951F920F920FB60F
:103340000F9211240BB60F922F933F934F935F93DD
:103350006F937F938F939F93AF93BF93EF93FF935D
:10336000E091C021F091C121309729F08091B622DF
:103370009091B7221995FF91EF91BF91AF919F91D5
:103380008F917F916F915F914F913F912F910F900E
:103390000BBE0F900FBE0F901F9018951F920F92AB
:1033A0000FB60F9211240BB60F922F933F934F93AA
:1033B0005F936F937F938F939F93AF93BF93EF939D
:1033C000FF93E091C221F091C321309729F08091C1
:1033D000B8229091B9221995FF91EF91BF91AF91C9
:1033E0009F918F917F916F915F914F913F912F911D
:1033F0000F900BBE0F900FBE0F901F9018951F924D
:103400000F920FB60F9211240BB60F922F933F938A
:103410004F935F936F937F938F939F93AF93BF93DC
:10342000EF93FF93E091C421F091C521309729F0EB
:103430008091BA229091BB221995FF91EF91BF9193
:10344000AF919F918F917F916F915F914F913F913C
:103450002F910F900BBE0F900FBE0F901F901895DD
:103460001F920F920FB60F9211240BB60F922F934B
:103470003F934F935F936F937F938F939F93AF93FC
:10348000BF93EF93FF93E091C621F091C72130974E
:1034900029F08091BC229091BD221995FF91EF9166
:1034A000BF91AF919F918F917F916F915F914F915C
:1034B0003F912F910F900BBE0F900FBE0F901F905A
:1034C00018951F920F920FB60F9211240BB60F9200
:1034D0002F933F934F935F936F937F938F939F931C
:1034E000AF93BF93EF93FF93E091C821F091C9216F
:1034F000309729F08091BE229091BF221995FF91BB
:10350000EF91BF91AF919F918F917F916F915F915B
:103510004F913F912F910F900BBE0F900FBE0F90C8
:103520001F9018951F920F920FB60F9211240BB691
:103530000F922F933F934F935F936F937F938F934C
:103540009F93AF93BF93EF93FF93E091CA21F091C4
:10355000CB21309729F08091C0229091C1221995FA
:10356000FF91EF91BF91AF919F918F917F916F915B
:103570005F914F913F912F910F900BBE0F900FBE17
:103580000F901F9018951F920F920FB60F92112453
:103590000BB60F922F933F934F935F936F937F934D
:1035A0008F939F93AF93BF93EF93FF93E091CC21C1
:1035B000F091CD21309729F08091C2229091C322C1
:1035C0001995FF91EF91BF91AF919F918F917F914D
:1035D0006F915F914F913F912F910F900BBE0F9084
:1035E0000FBE0F901F9018951F920F920FB60F925B
:1035F00011240BB60F922F933F934F935F936F93CA
:103600007F938F939F93AF93BF93EF93FF93E0913B
:10361000CE21F091CF21309729F08091C422909152
:10362000C5221995FF91EF91BF91AF919F918F9115
:103630007F916F915F914F913F912F910F900BBEB2
:103640000F900FBE0F901F9018951F920F920FB6FC
:103650000F9211240BB60F922F933F934F935F93CA
:103660006F937F938F939F93AF93BF93EF93FF934A
:10367000E091D021F091D121309729F08091C6229C
:103680009091C7221995FF91EF91BF91AF919F91B2
:103690008F917F916F915F914F913F912F910F90FB
:1036A0000BBE0F900FBE0F901F9018951F920F9298
:1036B0000FB60F9211240BB60F922F933F934F9397
:1036C0005F936F937F938F939F93AF93BF93EF938A
:1036D000FF93E091D621F091D721309729F0809186
:1036E000CC229091CD221995FF91EF91BF91AF918E
:1036F0009F918F917F916F915F914F913F912F910A
:103700000F900BBE0F900FBE0F901F9018951F9239
:103710000F920FB60F9211240BB60F922F933F9377
:103720004F935F936F937F938F939F93AF93BF93C9
:10373000EF93FF93E091D821F091D921309729F0B0
:103740008091CE229091CF221995FF91EF91BF9158
:10375000AF919F918F917F916F915F914F913F9129
:103760002F910F900BBE0F900FBE0F901F901895CA
:103770001F920F920FB60F9211240BB60F922F9338
:103780003F934F935F936F937F938F939F93AF93E9
:10379000BF93EF93FF93E091DA21F091DB21309713
:1037A00029F08091D0229091D1221995FF91EF912B
:1037B000BF91AF919F918F917F916F915F914F9149
:1037C0003F912F910F900BBE0F900FBE0F901F9047
:1037D00018951F920F920FB60F9211240BB60F92ED
:1037E0002F933F934F935F936F937F938F939F9309
:1037F000AF93BF93EF93FF93E091DC21F091DD2134
:10380000309729F08091D2229091D3221995FF917F
:10381000EF91BF91AF919F918F917F916F915F9148
:103820004F913F912F910F900BBE0F900FBE0F90B5
:103830001F9018951F920F920FB60F9211240BB67E
:103840000F922F933F934F935F936F937F938F9339
:103850009F93AF93BF93EF93FF93E091DE21F0919D
:10386000DF21309729F08091D4229091D5221995AB
:10387000FF91EF91BF91AF919F918F917F916F9148
:103880005F914F913F912F910F900BBE0F900FBE04
:103890000F901F9018951F920F920FB60F92112440
:1038A0000BB60F922F933F934F935F936F937F933A
:1038B0008F939F93AF93BF93EF93FF93E091E0219A
:1038C000F091E121309729F08091D6229091D72272
:1038D0001995FF91EF91BF91AF919F918F917F913A
:1038E0006F915F914F913F912F910F900BBE0F9071
:1038F0000FBE0F901F9018951F920F920FB60F9248
:1039000011240BB60F922F933F934F935F936F93B6
:103910007F938F939F93AF93BF93EF93FF93E09128
:10392000E221F091E321309729F08091D822909103
:10393000D9221995FF91EF91BF91AF919F918F91EE
:103940007F916F915F914F913F912F910F900BBE9F
:103950000F900FBE0F901F9018951F920F920FB6E9
:103960000F9211240BB60F922F933F934F935F93B7
:103970006F937F938F939F93AF93BF93EF93FF9337
:10398000E091E421F091E521309729F08091DA224D
:103990009091DB221995FF91EF91BF91AF919F918B
:1039A0008F917F916F915F914F913F912F910F90E8
:1039B0000BBE0F900FBE0F901F9018951F920F9285
:1039C0000FB60F9211240BB60F922F933F934F9384
:1039D0005F936F937F938F939F93AF93BF93EF9377
:1039E000FF93E091E621F091E721309729F0809153
:1039F000DC229091DD221995FF91EF91BF91AF915B
:103A00009F918F917F916F915F914F913F912F91F6
:103A10000F900BBE0F900FBE0F901F9018951F9226
:103A20000F920FB60F9211240BB60F922F933F9364
:103A30004F935F936F937F938F939F93AF93BF93B6
:103A4000EF93FF93E091E821F091E921309729F07D
:103A50008091DE229091DF221995FF91EF91BF9125
:103A6000AF919F918F917F916F915F914F913F9116
:103A70002F910F900BBE0F900FBE0F901F901895B7
:103A80001F920F920FB60F9211240BB60F922F9325
:103A90003F934F935F936F937F938F939F93AF93D6
:103AA000BF93EF93FF93E091EA21F091EB213097E0
:103AB00029F08091E0229091E1221995FF91EF91F8
:103AC000BF91AF919F918F917F916F915F914F9136
:103AD0003F912F910F900BBE0F900FBE0F901F9034
:103AE00018951F920F920FB60F9211240BB60F92DA
:103AF0002F933F934F935F936F937F938F939F93F6
:103B0000AF93BF93EF93FF93E091EC21F091ED2100
:103B1000309729F08091E2229091E3221995FF914C
:103B2000EF91BF91AF919F918F917F916F915F9135
:103B30004F913F912F910F900BBE0F900FBE0F90A2
:103B40001F9018951F920F920FB60F9211240BB66B
:103B50000F922F933F934F935F936F937F938F9326
:103B60009F93AF93BF93EF93FF93E091EE21F0917A
:103B7000EF21309729F08091E4229091E522199568
:103B8000FF91EF91BF91AF919F918F917F916F9135
:103B90005F914F913F912F910F900BBE0F900FBEF1
:103BA0000F901F9018951F920F920FB60F9211242D
:103BB0000BB60F922F933F934F935F936F937F9327
:103BC0008F939F93AF93BF93EF93FF93E091F02177
:103BD000F091F121309729F08091E6229091E7222F
:103BE0001995FF91EF91BF91AF919F918F917F9127
:103BF0006F915F914F913F912F910F900BBE0F905E
:103C00000FBE0F901F9018951F920F920FB60F9234
:103C100011240BB60F922F933F934F935F936F93A3
:103C20007F938F939F93AF93BF93EF93FF93E09115
:103C3000F221F091F321309729F08091E8229091C0
:103C4000E9221995FF91EF91BF91AF919F918F91CB
:103C50007F916F915F914F913F912F910F900BBE8C
:103C60000F900FBE0F901F9018951F920F920FB6D6
:103C70000F9211240BB60F922F933F934F935F93A4
:103C80006F937F938F939F93AF93BF93EF93FF9324
:103C9000E091F421F091F521309729F08091EA220A
:103CA0009091EB221995FF91EF91BF91AF919F9168
:103CB0008F917F916F915F914F913F912F910F90D5
:103CC0000BBE0F900FBE0F901F9018951F920F9272
:103CD0000FB60F9211240BB60F922F933F934F9371
:103CE0005F936F937F938F939F93AF93BF93EF9364
:103CF000FF93E091F621F091F721309729F0809120
:103D0000EC229091ED221995FF91EF91BF91AF9127
:103D10009F918F917F916F915F914F913F912F91E3
:103D20000F900BBE0F900FBE0F901F9018951F9213
:103D30000F920FB60F9211240BB60F922F933F9351
:103D40004F935F936F937F938F939F93AF93BF93A3
:103D5000EF93FF93E0910C22F0910D22309729F020
:103D600080910223909103231995FF91EF91BF91C8
:103D7000AF919F918F917F916F915F914F913F9103
:103D80002F910F900BBE0F900FBE0F901F901895A4
:103D90001F920F920FB60F9211240BB60F922F9312
:103DA0003F934F935F936F937F938F939F93AF93C3
:103DB000BF93EF93FF93E0910E22F0910F22309783
:103DC00029F080910423909105231995FF91EF919B
:103DD000BF91AF919F918F917F916F915F914F9123
:103DE0003F912F910F900BBE0F900FBE0F901F9021
:103DF00018951F920F920FB60F9211240BB60F92C7
:103E00002F933F934F935F936F937F938F939F93E2
:103E1000AF93BF93EF93FF93E0911422F09115229B
:103E2000309729F080910A2390910B231995FF91E7
:103E3000EF91BF91AF919F918F917F916F915F9122
:103E40004F913F912F910F900BBE0F900FBE0F908F
:103E50001F9018951F920F920FB60F9211240BB658
:103E60000F922F933F934F935F936F937F938F9313
:103E70009F93AF93BF93EF93FF93E0911622F0913E
:103E80001722309729F080910C2390910D231995DA
:103E9000FF91EF91BF91AF919F918F917F916F9122
:103EA0005F914F913F912F910F900BBE0F900FBEDE
:103EB0000F901F9018951F920F920FB60F9211241A
:103EC0000BB60F922F933F934F935F936F937F9314
:103ED0008F939F93AF93BF93EF93FF93E09118223B
:103EE000F0911922309729F080910E2390910F23A1
:103EF0001995FF91EF91BF91AF919F918F917F9114
:103F00006F915F914F913F912F910F900BBE0F904A
:103F10000FBE0F901F9018951F920F920FB60F9221
:103F200011240BB60F922F933F934F935F936F9390
:103F30007F938F939F93AF93BF93EF93FF93E09102
:103F40001A22F0911B22309729F080911023909132
:103F500011231995FF91EF91BF91AF919F918F918F
:103F60007F916F915F914F913F912F910F900BBE79
:103F70000F900FBE0F901F9018951F920F920FB6C3
:103F80000F9211240BB60F922F933F934F935F9391
:103F90006F937F938F939F93AF93BF93EF93FF9311
:103FA000E0911C22F0911D22309729F0809112237C
:103FB000909113231995FF91EF91BF91AF919F912C
:103FC0008F917F916F915F914F913F912F910F90C2
:103FD0000BBE0F900FBE0F901F9018951F920F925F
:103FE0000FB60F9211240BB60F922F933F934F935E
:103FF0005F936F937F938F939F93AF93BF93EF9351
:10400000FF93E0911E22F0911F22309729F08091BA
:104010001423909115231995FF91EF91BF91AF91C2
:104020009F918F917F916F915F914F913F912F91D0
:104030000F900BBE0F900FBE0F901F9018951F9200
:104040000F920FB60F9211240BB60F922F933F933E
:104050004F935F936F937F938F939F93AF93BF9390
:10406000EF93FF93E0912A22F0912B22309729F0D1
:1040700080912023909121231995FF91EF91BF9179
:10408000AF919F918F917F916F915F914F913F91F0
:104090002F910F900BBE0F900FBE0F901F90189591
:1040A0001F920F920FB60F9211240BB60F922F93FF
:1040B0003F934F935F936F937F938F939F93AF93B0
:1040C000BF93EF93FF93E0912C22F0912D22309734
:1040D00029F080912223909123231995FF91EF914C
:1040E000BF91AF919F918F917F916F915F914F9110
:1040F0003F912F910F900BBE0F900FBE0F901F900E
:1041000018951F920F920FB60F9211240BB60F92B3
:104110002F933F934F935F936F937F938F939F93CF
:10412000AF93BF93EF93FF93E0912E22F0912F2254
:10413000309729F080912423909125231995FF91A0
:10414000EF91BF91AF919F918F917F916F915F910F
:104150004F913F912F910F900BBE0F900FBE0F907C
:104160001F9018950E944E03FDCF8AE693E20E94AD
:104170009D0C88E693E20E947C028FE493E20E9409
:10418000812285E493E20E94900284E493E20E94FB
:10419000080A8AE293E20E946C0408958AE293E29C
:1041A0000E94720484E493E20E94090A85E493E287
:1041B0000E9491028FE493E20E94D62288E693E265
:1041C0000E9488028AE693E20E949E0C0895EF9274
:1041D0000F931F93F89485E493E20E94920284E483
:1041E00093E20E94850A0F2EF3E0EF2EF02D00E0FF
:1041F00023E040E061E08AE693E20E949F0C01E048
:1042000020E040E06DE088E693E20E94000200E0DA
:1042100011E020E031E04AE253E268E673E28FE425
:1042200093E20E9487226FE473E28AE293E20E94A3
:10423000D60485E493E20E94E90278941F910F91DD
:10424000EF900895CF93DF931F921F92CDB7DEB703
:104250000E94E72084E493E20E94900A85E493E2BE
:104260000E941E032FEF83EC99E021508040904084
:10427000E1F700C0000085E493E20E942603198262
:104280001A8242E050E0BE016F5F7F4F8AE693E200
:104290000E94E30C8AE293E20E947A0418EC8FE316
:1042A0009FE10197F1F700C0000040912823509151
:1042B0002923CA01019680932823909329239A01E8
:1042C000369527953695279536952795ABE7B4E132
:1042D0000E94E02496958795189F9001199F300DB4
:1042E00011244217530721F48AE293E20E948B06BD
:1042F00085E493E20E947803D2CFCF93DF93EC0161
:10430000EC81FD818AEA8083EC81FD818CEC8183E4
:10431000EC81FD8182E0820F8283EC81FD8180E867
:104320008383EC81FD81648385E0820F898730E09F
:104330002115310581F0DA01420F531F65E070E06D
:104340009D91EC81FD81E60FF71F90836F5F7F4F9A
:10435000A417B507A9F7DF91CF910895FC01A481B7
:10436000B5818AEA8C93A481B5818CEC11968C93EB
:10437000A481B58183E012968C93A481B58181E8F4
:1043800013968C93A481B58114966C93A481B58106
:1043900015964C9386E0818708950F931F93CF93D2
:1043A000DF93DC011496ED91FC911597AAEAA083A6
:1043B000EC01EC81FD81ACECA183AC81BD81E22FED
:1043C000EE0FED5F1296EC93EC81FD81A2E8A383E2
:1043D000EC81FD817483EC81FD816583B9016D5FA2
:1043E0007F4FE62FEE0FE987232BD9F0E42FF52F2F
:1043F000AB01440F551F26E030E0EC01AC81BD81DC
:10440000A20FB31F61816C93AC81BD81A20FB31F5A
:104410006081329611966C932E5F3F4F24173507BB
:1044200061F7DF91CF911F910F910895FC01A48155
:10443000B5818AEA8C93A481B5818CEC11968C931A
:10444000A481B58184E012968C93A481B58183E820
:1044500013968C93A481B58114967C93A481B58125
:1044600015966C93A481B58116964C9387E081874D
:1044700008950F931F93CF93DF93EC01CB018A0133
:104480006F8378874A875B870E9411258A839B8385
:10449000C8010E9411258C839D8319861E82DF919D
:1044A000CF911F910F910895CF93DF93EC018A81F3
:1044B0009B810E94A6258C819D810E94A625DF916B
:1044C000CF9108950895DC0157968D919C9158974E
:1044D000009739F0DC01ED91FC910280F381E02D31
:1044E00019950895DC0157968D919C9158970097E6
:1044F00039F0DC01ED91FC910480F581E02D1995F6
:10450000089520E031E2FC01208331830895CF92A9
:10451000DF92EF92FF920F931F93CF93DF93EC0103
:104520007B016A01C9012F8338870A871B870E9494
:1045300011258A839B83C8010E9411258C839D834A
:104540001D8A19861F861E82188A198A1A8A1B8A52
:1045500087E08E8782E08C8B1E8AEC86FD86D701F1
:10456000ED91FC910484F585E02D48E953E2BE010C
:10457000C7011995D701ED91FC910684F785E02DCF
:104580004DEF53E2BE01C7011995C114D10419F0D2
:10459000CF8AD88E02C0CF8BD88FDF91CF911F9159
:1045A0000F91FF90EF90DF90CF90089520E031E2DF
:1045B000FC01208331830E9462220895CF93DF9310
:1045C000EC01962F4E8550E04B30510508F0ADC000
:1045D000FA018827E85FFE4F8F4F0C94D8249A3A4F
:1045E00019F482E08E87A1C081E08E879EC09C3C3A
:1045F00019F483E08E8799C081E08E8796C09E83F0
:104600001F861A8A1B8A109270231092712384E0ED
:104610008E878BC08F85EA81FB81E80FF11D908327
:104620002F8530E04F8158854217530718F489E0F1
:104630008E877BC02A893B892927922F92959227C2
:10464000092E969596959025092E9695902597700A
:10465000022E232F969507949795302D292706949F
:104660009795302529272A8B3B8B8F858F5F8F87E6
:104670008091702390917123019680937023909381
:1046800071234F858E81481350C088E08E87E88162
:10469000F98150E06A817B810190F081E02DCE01AB
:1046A00019958F89988D009709F43FC0DC01ED9131
:1046B000FC914E8150E06A817B810190F081E02D78
:1046C000199533C0692F70E0688B798B86E08E87EF
:1046D0002CC028893989A901592B488B598B2A89E3
:1046E0003B8942175307E9F488E08E87E881F98116
:1046F0004E8150E06A817B810190F081E02DCE01F6
:1047000019958F89988D009781F0DC01ED91FC91CE
:104710004E8150E06A817B810190F081E02D1995F6
:1047200004C089E08E8701C01E8ADF91CF91089571
:10473000CF93DF93EC018C859D85DC01ED91FC919D
:104740000280F381E02D1995682FCE010E94DE22B0
:10475000DF91CF910895FC0117861682108A118A85
:10476000128A138A16860895CF93DF93EC018C8901
:10477000843038F48230B8F5882331F08130D1F0BC
:1047800039C0853081F136C081E08C8B1D8A8C85E3
:104790009D852D89DC01ED91FC91AC81BD81A20F3D
:1047A000B11D0480F581E02D6C9119958D898F5F85
:1047B0008D8B20C08C859D852D89DC01ED91FC9130
:1047C000AC81BD81A20FB11D0480F581E02D6C91FB
:1047D00019958D898F5F8D8B9D89898598130AC066
:1047E00083E08C8B07C08E89882319F0CE010E944C
:1047F000AB231E8ADF91CF9108950E94B4230895C0
:10480000FC0106C08685893041F086858A3039F002
:1048100086858830B9F781E0089582E0089583E0C5
:104820000895FC01158A148A0E94B4230895CF9339
:10483000DF93EC01E881F9810284F385E02D19957D
:10484000CE010E941124DF91CF910895CF93DF9381
:10485000EC01E881F9810684F785E02D1995CE01F8
:104860000E941124DF91CF910895CF93DF93EC0143
:10487000E881F9810484F585E02D1995CE010E9427
:104880001124DF91CF910895CF93DF93EC01E8815C
:10489000F98150E00088F189E02D1995CE010E9440
:1048A0001124DF91CF910895FC0106C084898430E2
:1048B00041F08489853039F084898330B9F781E00B
:1048C000089582E0089583E0089521E0FC01268B9D
:1048D0000E943524089521E0FC01268B0E94442487
:1048E00008950F931F93CF93DF938C01EB01988171
:1048F000913869F4D801ED91FC910480F581E02DA7
:104900002A81AB014D5F5F4F6981C801199598817C
:10491000933899F4D801ED91FC912B8130E0AE01F0
:104920004C5F5F4F698170E0762F66278A81682B24
:104930000280F381E02DC8011995DF91CF911F917D
:104940000F9108950E9471240895AA1BBB1B51E189
:1049500007C0AA1FBB1FA617B70710F0A61BB70BEF
:10496000881F991F5A95A9F780959095BC01CD0194
:104970000895052E97FB1EF400940E94D02457FD45
:1049800007D00E94EF2407FC03D04EF40C94D024EF
:1049900050954095309521953F4F4F4F5F4F08956B
:1049A00090958095709561957F4F8F4F9F4F08959B
:1049B000EE0FFF1F881F8BBF0790F691E02D199413
:1049C000A29FB001B39FC001A39F700D811D112450
:1049D000911DB29F700D811D1124911D0895A1E2BA
:1049E0001A2EAA1BBB1BFD010DC0AA1FBB1FEE1F69
:1049F000FF1FA217B307E407F50720F0A21BB30BB4
:104A0000E40BF50B661F771F881F991F1A9469F72F
:104A100060957095809590959B01AC01BD01CF018B
:104A20000895CF93DF938230910510F482E090E0F7
:104A3000E0917423F091752320E030E0C0E0D0E0F5
:104A4000309711F14081518148175907C0F048173C
:104A5000590761F482819381209719F08A839B839F
:104A60002BC0809374239093752326C021153105A4
:104A700019F04217530718F49A01BE01DF01EF0144
:104A80000280F381E02DDCCF2115310509F1281BCF
:104A9000390B2430310590F412968D919C91139727
:104AA0006115710521F0FB018283938304C080931B
:104AB000742390937523FD01329644C0FD01E20FEB
:104AC000F31F81939193225031092D933C933AC067
:104AD0002091722330917323232B41F420910220E3
:104AE0003091032020937223309373232091002070
:104AF000309101202115310541F42DB73EB7409189
:104B0000042050910520241B350BE0917223F09175
:104B10007323E217F307A0F42E1B3F0B2817390766
:104B200078F0AC014E5F5F4F2417350748F04E0F09
:104B30005F1F40937223509373238193919302C01C
:104B4000E0E0F0E0CF01DF91CF9108950F931F9344
:104B5000CF93DF93009709F48CC0FC013297128247
:104B6000138200917423109175230115110581F4AE
:104B700020813181820F931F209172233091732302
:104B80002817390779F5E0937223F093732371C0E6
:104B9000D80140E050E0AE17BF0750F412962D91B7
:104BA0003C911397AD012115310509F1D901F3CFDE
:104BB0009D01DA012283338360817181860F971F03
:104BC0008217930769F4EC0128813981260F371F7A
:104BD0002E5F3F4F208331838A819B818283938321
:104BE000452B29F4E0937423F093752342C0129669
:104BF000ED93FC931397ED01499159919E01240F78
:104C0000351FE217F30771F480819181840F951F9E
:104C100002968D939C9311978281938112968D9326
:104C20009C931397E0E0F0E0D80112968D919C914F
:104C30001397009719F0F8018C01F6CF8D919C9194
:104C400098012E5F3F4F820F931F20917223309166
:104C500073232817390769F4309729F410927423C5
:104C60001092752302C01282138200937223109354
:104C70007323DF91CF911F910F910895FB01DC0108
:104C800002C001900D9241505040D8F7089511E0B4
:104C9000CBECD1E000E006C0802FFE010E94D824BA
:104CA0002196011DCD3CD10780E00807A9F7F894B3
:024CB000FFCF34
:104CB2000000762320000706050301040200030119
:104CC200FF0200FEFFFDFEFCFDFBFDFAFCFA00FE0A
:104CD200FAFCF9FBF9000C0C0C228A0C228A0C2239
:104CE200890C228721831F7B1B6B0F79134B0103D6
:104CF2002F134D0B2B000000000000023B023E026E
:104D0200410249025002580261026A027302000023
:104D12000000B5034B04B603392254227D21AE2193
:104D2200CD21162200000000DF0AFA0A070B0F0B42
:104D3200160B1D0B220B270B2C0B310B360B480BC2
:104D42005A0B6C0B7E0B900B00000000B60BD10BC4
:104D5200DE0BE60BEC0B040C090C0E0C130C180CFE
:104D62001D0C2F0C410C530C650C770CF30BFB0B39
:104D720000000000B220B220B220B220B220B22045
:104D8200B220B220B220B220B220B220B220B22091
:104D9200B220B22000000000B220B220B220B22025
:104DA200B220B220B220B220B220B2200000000015
:104DB200A22463227222392254227D21AE21CD21E6
:024DC2001622B7
:00000001FF
