S01900004154786D6567614C6173657244696F64652E7372656388
S11300000C948D020C948B1A0C94BC1A0C94ED1A5B
S11300100C941E1B0C944F1B0C94801B0C94B11B52
S11300200C94E21B0C94131C0C94441C0C94751C2F
S11300300C94A61C0C94D71C0C94081D0C94391D0C
S11300400C946A1D0C949B1D0C94CC1D0C94FD1DEA
S11300500C942E1E0C945F1E0C94901E0C94C11EC6
S11300600C94F21E0C94231F0C94541F0C94851FA3
S11300700C94B61F0C94E71F0C9418200C94492080
S11300800C947A200C94AB200C94DC200C940D215D
S11300900C943E210C946F210C94A0210C94D1213A
S11300A00C9402220C9433220C9464220C94952216
S11300B00C94C6220C94F7220C9428230C945923F4
S11300C00C948A230C94BB230C94EC230C941D24D1
S11300D00C944E240C947F240C94B0240C94E124AE
S11300E00C9412250C9443250C9474250C94A5258A
S11300F00C94D6250C9407260C9438260C94692667
S11301000C949A260C94CB260C94FC260C942D2744
S11301100C945E270C948F270C94C0270C94F12721
S11301200C9422280C9453280C9484280C94BE021A
S11301300C94BE020C94B5280C94E6280C94172950
S11301400C9448290C9479290C94AA290C94DB2941
S11301500C940C2A0C943D2A0C946E2A0C949F2A1D
S11301600C94D02A0C94012B0C94322B0C94632BFA
S11301700C94942B0C94C52B0C94BE020C94BE02CC
S11301800C94BE020C94BE020C94BE020C94BE02EB
S11301900C94BE020C94BE020C94BE020C94BE02DB
S11301A00C94F62B0C94272C0C94BE020C94BE02D7
S11301B00C94582C0C94892C0C94BA2C0C94EB2C85
S11301C00C941C2D0C944D2D0C94BE020C94BE0268
S11301D00C94BE020C94BE020C94BE020C947E2DB0
S11301E00C94AF2D0C94E02D0C94BE020C94BE0222
S11301F00C94BE020C94BE020C94BE02D5035704A8
S113020057045704570457045704DA0335045704B2
S1130210E1035704E8035704EF035704F6035704B4
S11302205704570457045704FD0304040B04120431
S113023027045704190457042E0457045704570479
S1130240570457045704200457044A043C04430445
S11302505704570457045704570451047C04820478
S113026088048E0494049A04A004A6041605B50414
S1130270BB04C004C604CC04D204D804DE04E404E1
S11302808E328E329832A232B23202330C33413380
S113029041333F333F330C9419040C9435040C94CC
S11302A098320C94C6040C94BF370C9402330C940B
S11302B0E8340C94F13A0C94DE380C94C6380C945F
S11302C06B380C947D390C94963A0C94D0340C947D
S11302D0853A0C94ED310C94773B0C9487390C944B
S11302E044330C9472310C9488040C94D4380C94D8
S11302F020040C944A040C9494040C94133B0C9422
S11303000C380C9482390C948E040C9419390C9486
S113031011380C94D63A0C945E3A0C94A7380C9489
S1130320743A0C94731A0C94F5380C94E3380C94C6
S1130330273A0C94AD300C947C040C9482040C94F5
S1130340CD380C94D7340C94F83A0C94D2040C9411
S1130350C8340C94DA390C9458040C94183B0C945B
S1130360A7390C94BB040C940B040C9407060C944E
S1130370F6370C9441330C9443040C94F1340C94EC
S1130380103A0C9459040C94EF370C94EB3A0C94F7
S11303908C390C94443B0C94D5030C94DE310C94AE
S11303A027120C94D8040C94E7370C94663B0C94F5
S11303B0E4040C94DA370C9407390C9476390C94D1
S11303C0D9380C94112E0C943F390C94FD370C94AD
S11303D0B7190C94543A0C943C040C94DA030C941E
S11303E0492E0C942E040C94003B0C945A390C9412
S11303F027040C941D3B0C949F300C94553B0C9497
S11304000B060C944D3A0C94343A0C940D310C9424
S1130410B2320C94B4380C94633A0C9467390C944B
S113042091390C94A6040C94B7030C94C9390C9418
S1130430DF340C9404040C9449380C9484300C94E8
S11304403C3A0C943F330C9416380C9496390C9423
S1130450142E0C940E3B0C9416050C9457040C9417
S113046051040C940C330C945A380C946B330C9444
S11304708E320C94A0040C94D0330C94CC040C94C1
S1130480EA2F0C9487340C94C2340C940A060C940E
S1130490C5340C94FD030C94B8390C94FA340C94C0
S11304A0E33A0C94593A0C9490380C94DE040C946E
S11304B027380C94223B0C9407380C9484340C9405
S11304C0BB3A0C9438380C94BC380C94B6030C9496
S11304D004060C940C060C94C0040C9402380C947E
S11304E0B5040C94093B0C94EF030C949A040C94FB
S11304F0E1030C94CC180C94333B0C94A2320C946E
S1130500EB390C94463A0C94F6030C946F390C9422
S113051012040C94E803142E492E11241FBECFEFAD
S1130520CDBFDFE3DEBF00E00CBF12E2A0E0B0E22B
S1130530EEECFDE700E00BBF02C007900D92A43C77
S1130540B107D9F726E2A4ECB2E201C01D92AB32A6
S1130550B207E1F712E0CCE8D2E000E006C0219750
S11305600109802FFE010E94363DCB38D10780E07F
S11305700807A9F70E94772F0C94D53E0C9400002D
S113058008950895FC0162837383942F852F8483D7
S11305909583468357831082118208958F929F9288
S11305A0AF92BF92EF92FF920F931F93CF93DF937B
S11305B0CDB7DEB72A97CDBFDEBF7C018AE589833C
S11305C080E58A83852E9924AA24BB24B22FAA27E6
S11305D09927882788299929AA29BB2949015A01D9
S11305E08824AA24BB24BA2CA92C982C88248829D2
S11305F09929AA29BB2949015A0188249924BB2491
S1130600892C9A2CAB2CBB2488299929AA29BB298B
S11306108B839C83AD83BE837627672776276F837E
S1130620788710270127102709871A872AE0AE0147
S11306304F5F5F4F66E5F701828193810E94F93332
S1130640F701828193810E9436342A96CDBFDEBFA2
S1130650DF91CF911F910F91FF90EF90BF90AF90DA
S11306609F908F9008958F929F92AF92BF92EF9236
S1130670FF920F931F93CF93DF93CDB7DEB72A97E3
S1130680CDBFDEBF7C018AE5898380EA8A83852E1B
S11306909924AA24BB24B22FAA279927882788291A
S11306A09929AA29BB2949015A018824AA24BB24CF
S11306B0BA2CA92C982C882488299929AA29BB29E1
S11306C049015A0188249924BB24892C9A2CAB2CE7
S11306D0BB2488299929AA29BB298B839C83AD83B0
S11306E0BE837627672776276F83788710270127AD
S11306F0102709871A872AE0AE014F5F5F4F66E52E
S1130700F701828193810E94F933F70182819381F9
S11307100E9436342A96CDBFDEBFDF91CF911F9160
S11307200F91FF90EF90BF90AF909F908F9008959E
S11307300F931F93CF93DF931F92CDB7DEB78C0136
S1130740198221E0AE014F5F5F4F66E5FC018281B3
S113075093810E94F933F801828193810E94363497
S11307600F90DF91CF911F910F9108950895DC01AF
S1130770633031F4FA0181811F968C931F9706C070
S1130780663521F4FA0180818093C5221F964C912D
S11307901F9750E04033510508F089C0FA018827BB
S11307A0E250FF4F8F4F0C94363D1C961D921C92C5
S11307B01D97089582E090E01C968D939C931D975D
S11307C0089584E090E01C968D939C931D97089562
S11307D088E090E01C968D939C931D97089580E18A
S11307E090E01C968D939C931D97089580E290E071
S11307F01C968D939C931D97089580E093E01C961E
S11308008D939C931D97089580E093E01C968D939F
S11308109C931D97089580E092E01C968D939C9381
S11308201D97089580E091E01C968D939C931D97ED
S1130830089580E090E21C968D939C931D970895F3
S113084080E090E31C968D939C931D97089580E01F
S113085090E11C968D939C931D97089580E090E4FD
S11308601C968D939C931D97089580E095E01C96AB
S11308708D939C931D97089580E096E01C968D932C
S11308809C931D97089580E097E01C968D939C930C
S11308901D97089580E490E01C968D939C931D977A
S11308A0089580E094E01C968D939C931D97089581
S11308B00895CF92DF92EF92FF920F931F93CF93FD
S11308C0DF938C01EB017A016901FA018081918146
S11308D00E94F0199C01F2E0CF16D10409F07AC00D
S11308E0FE013197E231F10508F0A0C08827E25DEE
S11308F0FE4F8F4F0C94363DF801E451FF4F208397
S1130900318394C0F801E251FF4F208331838EC0BC
S1130910F801E051FF4F2083318388C0F801EE5085
S1130920FF4F2083318382C0F801EC50FF4F2083B6
S113093031837CC0F801E850FF4F2083318376C0B7
S1130940F801EA50FF4F2083318370C0F7016081C2
S11309507181828193810E94F419F801E652FF4F5C
S1130960608371838283938361C0F801E250FF4FF7
S1130970208331835BC0F801F3952083318356C013
S1130980F801EE5FFE4F2083318350C0F801EC5F25
S1130990FE4F208331834AC0F801EA5FFE4F208373
S11309A0318344C0F801E85FFE4F208331833EC0A9
S11309B0F801E65FFE4F2083318338C0F801E45F1D
S11309C0FE4F2083318332C0F801E25FFE4F208363
S11309D031832CC0C130D10551F420E030E0A601B0
S11309E0B701C80184519F4F0E94BA191FC0C53076
S11309F0D10551F420E030E0A601B701C8018C54C0
S1130A009F4F0E94BA1912C0229781F4F80186857B
S1130A10863050F420E030E0A601B701C8018251CD
S1130A209F4F0E94BA1902C00E94F836DF91CF91FD
S1130A301F910F91FF90EF90DF90CF9008958F92C8
S1130A409F92AF92BF92CF92DF92EF92FF920F9359
S1130A501F93CF93DF936C01FB017A01DC018D902E
S1130A609C90DA01CD91DC91C401BE010E94CD3C81
S1130A706C9F50016D9FB00C7C9FB00C1124C08101
S1130A80D181C819D909F80160817181D7016D93A9
S1130A907C93CE010E94CD3C2617370760F4329632
S1130AA061917191D7016D937C93CE010E94CD3CED
S1130AB026173707A8F3F601A082B182DF91CF9100
S1130AC01F910F91FF90EF90DF90CF90BF90AF9068
S1130AD09F908F9008952EE731E2FC0120833183AB
S1130AE008952EE731E2FC01208331830E94DD3139
S1130AF00895CF93DF931F921F92CDB7DEB7FC0109
S1130B00E852FF4F808120E030E0382F330F330F5D
S1130B10369527953695279536952795ABE7B4E115
S1130B200E943E3D96958795880F991F880F991FBF
S1130B3089839A8342E050E0BE016F5F7F4F81E278
S1130B4096E20E943B1A0F900F90DF91CF91089587
S1130B50CF93DF93EC01CC5DDE4F888199810E94B5
S1130B604D34888199810E943634888199810E940C
S1130B70D333DF91CF910895CF93DF93EC01CC5D14
S1130B80DE4F888199810E940834888199810E946E
S1130B903634DF91CF9108950F931F93CF93DF9352
S1130BA01F921F92CDB7DEB78C01CB010E94F019C2
S1130BB089839A830C5D1E4F22E0AE014F5F5F4F25
S1130BC063E0F801808191810E94F933F80180810A
S1130BD091810E9436340F900F90DF91CF911F9135
S1130BE00F910895FC018389882321F081EE95E219
S1130BF00E94D4360895FC018389882321F081EE74
S1130C0095E20E94D03608950E94F20508950E944C
S1130C10FB0508950895089508958F929F92AF92C9
S1130C20BF92CF92DF92EF92FF920F93CF93DF9315
S1130C30EC016B017A01023081F018F4013031F0DB
S1130C4033C00330B9F0043011F12EC081E090E0DC
S1130C5088AF99AF8EAB9FAB43C081E090E0FE01BB
S1130C60EE5AFF4F8083918386E090E03297808331
S1130C7091831CC081E090E0FE01E459FF4F808322
S1130C80918383E090E03297808391830FC086E064
S1130C9090E0FE01EA57FF4F808391838AE090E061
S1130CA032978083918302C00130F9F0802F90E065
S1130CB0FE012AE1029FE00DF11D1124268D378DDE
S1130CC0C216D30668F02AE1289FF001299FF00D8F
S1130CD01124EC0FFD1F848D958D8C159D0528F432
S1130CE0FE01E251FF4FC082D182C601880F991FD5
S1130CF0FC01EC5DFE4D20813181FC01E25FFE4D83
S1130D000190F081E02DDC01A850BF4DAD90BC9066
S1130D1041E0A41AB108CF01821B930BB5010E94D4
S1130D20CD3C522F432F2E153F0510F45E2D4F2D31
S1130D30852F942FE817F90708F4CF01E02EF12C42
S1130D404E01AAE10A9F800C911C1124D4015A96E9
S1130D504D915C915B974217530781F40AE10E9D14
S1130D60A0010F9D500D11244C0F5D1FDA01589600
S1130D704D915C9159974E175F07A1F0D4015A9693
S1130D802D933C935B974AE14E9DD0014F9DB00D4E
S1130D901124AC0FBD1F5896ED93FC93599741E075
S1130DA09C964C93821B930B0E94CD3C80E090E078
S1130DB00E94EB19B5010E94E6194BE04C9D90018D
S1130DC04D9D300D1124820F931FFC01EE0FFF1F68
S1130DD0EA5FFF4D208131818AE18E9DF0018F9D74
S1130DE0F00D1124EC0FFD1F248B358B40A151A174
S1130DF0868997898417950721F0468B578B81E064
S1130E0085A7DF91CF910F91FF90EF90DF90CF9066
S1130E10BF90AF909F908F9008953F924F925F92B2
S1130E206F927F928F929F92AF92BF92CF92DF92F6
S1130E30EF92FF920F931F93CF93DF93CDB7DEB75B
S1130E402A97CDBFDEBF7C016B015A014901302EC8
S1130E5022E0021701F1201720F041E0041741F0CD
S1130E6041C083E0081721F1A4E00A1771F13AC0E8
S1130E7081E090E0F70180AF91AF86AB97ABDB01E7
S1130E808D919C911197019709F48EC181E090E0B6
S1130E908D939C938AC181E090E0F701EE5AFF4F55
S1130EA08083918386E090E03297808391831DC094
S1130EB081E090E0F701E459FF4F8083918383E060
S1130EC090E032978083918310C086E090E0F70130
S1130ED0EA57FF4F808391838AE090E032978083C2
S1130EE0918303C0B1E03B16E1F1F6012081318129
S1130EF0832D90E0F7014AE1349EE00DF11D1124A9
S1130F00468D578D2417350788F4D6014D935C938D
S1130F102AE1289FF001299FF00D1124EE0DFF1DF9
S1130F20848D958D8417950770F010C04AE1489F11
S1130F30F001499FF00D1124EE0DFF1D848D958D58
S1130F408217930770F4F60180839183D6018D9103
S1130F509C91F701E251FF4F8083918381E0F70177
S1130F60818BD6014D915C91440F551FFA01EC5DC4
S1130F70FE4D2081318129873A87FA01E25FFE4DD7
S1130F800190F081E02DEF83F887CF01821B930B52
S1130F90DA01A850BF4D6D917C91615071090E9496
S1130FA0CD3C3B01D5018D919C91119782179307FC
S1130FB008F0FEC02D933C93E217F30718F4D50113
S1130FC0ED93FC9381E090E08D839E8308E010E232
S1130FD024E130E0AE014B5F5F4FBE01695F7F4F9C
S1130FE0CE0109960E941F056D817E814AE1032D81
S1130FF010E0F701439DE00DF11D112460A771A7D6
S11310004F80588429853A85C201821B930B0E9424
S1131010CD3C62A773A726A337A30F5F1F4F409F42
S1131020D001419FB00D1124AE0DBF1D2D933C93F3
S1131030408E518E970120513F4FD5018D919C9147
S113104046A157A1841B950B60A571A50E94CD3CB8
S1131050F90160837183D5018D919C9136968083CB
S1131060918381E0F701818BD601ED91FC91EE0F24
S1131070FF1FE850FF4D40805180B1E04B1A5108EA
S1131080F5018081918129853A85821B930BB301F7
S11310900E94CD3C80E090E00E94EB19B2010E94D6
S11310A0E619D6014D915C916BE0649F9001659FB8
S11310B0300D1124820F931FFC01EE0FFF1FEA5F16
S11310C0FF4D80819181432D50E0F701BAE13B9EB1
S11310D0E00DF11D1124848B958BF4012081318165
S11310E08217930708F05DC08083918381E090E0CC
S11310F08D839E838AE1849F6001859FD00C112497
S1131100CE0CDF1CD60154968D919C9155978B8300
S11311109C8390968D919C91919789839A8308E002
S113112010E224E130E0AE014B5F5F4FBE016D5F22
S11311307F4FCE0101960E941F0529813A81F60155
S113114020A331A36D817E8162A373A384899589D1
S1131150821B930B0E94CD3C64A375A3268B378B13
S11311608B819C81848B958BF701EE50FF4FD401CA
S11311708D919C91D601821B930B92966D917C91DB
S113118093970E94CD3C60837183F40180819181A7
S1131190F701E850FF4F8083918381E0D701519696
S11311A08C93F701818909C080E08111CFCED9CE1B
S11311B0E817F90708F403CF57CF2A96CDBFDEBF4F
S11311C0DF91CF911F910F91FF90EF90DF90CF901F
S11311D0BF90AF909F908F907F906F905F904F9053
S11311E03F900895BF92CF92DF92EF92FF920F93B8
S11311F01F93CF93DF9300D000D0CDB7DEB77C012F
S11312006A0181E090E08D839E83D7011E968C91C4
S113121090E09C012F5F3F4F0F2EFAE1BF2EF02D7F
S1131220B29EF001B39EF00D1124EE0DFF1D20813E
S113123031812B833C83B89EF001B99EF00D1124BB
S1131240EE0DFF1D808D918D89839A8308E010E255
S113125024E130E0AE014B5F5F4FBE016F5F7F4F13
S1131260CE0103960E941F05F70186856D817E815C
S1131270B89EE00DF11D112460A771A72B813C815C
S113128089819A81821B930B0E94CD3C62A773A72C
S113129026A337A314A6970120513F4FD6018D9161
S11312A09C9146A157A1841B950B60A571A50E9432
S11312B0CD3CF90160837183D6018D919C91369662
S11312C0808391832696CDBFDEBFDF91CF911F919E
S11312D00F91FF90EF90DF90CF90BF900895BF9251
S11312E0CF92DF92EF92FF920F931F93CF93DF93EE
S11312F000D000D0CDB7DEB77C016A0181E090E078
S11313008D839E83D7011E968C910F2EFAE1BF2EFA
S1131310F02DF701B89EE00DF11D11248489958903
S11313208B839C838689978989839A8308E010E25A
S113133024E130E0AE014B5F5F4FBE016D5F7F4F34
S1131340CE0101960E941F05F70186856D817E817D
S1131350B89EE00DF11D112462A373A329813A8183
S113136084899589821B930B0E94CD3C64A375A349
S113137020A331A315A697012E503F4FD6018D917E
S11313809C9140A151A1841B950B62A173A10E9461
S1131390CD3CF90160837183D6018D919C91369681
S11313A0808391832696CDBFDEBFDF91CF911F91BD
S11313B00F91FF90EF90DF90CF90BF9008953F92F0
S11313C04F925F926F927F928F929F92AF92BF9251
S11313D0CF92DF92EF92FF920F931F93CF93DF93FD
S11313E0CDB7DEB72A97CDBFDEBFDB01ED91FC910F
S11313F0EE0FFF1FDF01AC5DBE4D8D909C90898682
S11314009A86DF01A25FBE4DCD90DC90CF82D88654
S1131410E850FF4DA080B180E1E0F0E0ED83FE8371
S1131420243079F5FC01E857FF4F26E030E02083B3
S11314303183329641E050E040835183329667E035
S113144070E0608371833E972083318332972CE070
S113145030E020833183729622E130E020833183AF
S1131460329640835183329641E150E04083518368
S1131470709720833183329783E290E08083918355
S113148093C0322E2A013B017C0108E010E224E1E2
S113149030E0AE014B5F5F4FBE01695F7F4FCE010D
S11314A009960E941F056D817E81BAE13B9EE00C86
S11314B0F11C1124F70160A771A729853A858F8152
S11314C09885821B930B0E94CD3C62A773A726A329
S11314D037A314A6D301ED91FC91EE0FFF1FE85042
S11314E0FF4D0081118101501109F2018081918128
S11314F0AC01421B530B9A01C60188199909B50125
S1131500615071090E94CD3CC9010E94CD3C80E02C
S113151090E00E94EB19B8010E94E619D3014D91A5
S11315205C916BE0649F9001659F300D1124820FE4
S1131530931FFC01EE0FFF1FEA5FFF4D8081918135
S1131540F701848B958B21E030E02D833E838B83E0
S11315509C8380A191A189839A8308E010E224E10D
S113156030E0AE014B5F5F4FBE016D5F7F4FCE0138
S113157001960E941F0529813A81D70190962D93E7
S11315803C9391976D817E8192966D937C93939712
S113159054968D919C915597821B930B0E94CD3C40
S11315A0F70164A375A315A62A96CDBFDEBFDF910C
S11315B0CF911F910F91FF90EF90DF90CF90BF904C
S11315C0AF909F908F907F906F905F904F903F90DF
S11315D008958F929F92AF92BF92CF92DF92EF9233
S11315E0FF920F931F93CF93DF936C017B01EA016A
S11315F04901102FD9012D913C9148815981FB015A
S1131600608171810E940D06212FAE01B701C601D0
S11316100E94DF09012F10E0D7018D919C91F80100
S1131620EE0FFF1F5F01A00EB11EAA0CBB1CAC0C79
S1131630BD1CD501AA56BF4F8D939C938AE1809F10
S11316409001819F300D11242C0D3D1DD4018D91ED
S11316509C91D90190964D915C919197841B950B27
S113166092966D917C9193970E94CD3CD501A6569C
S1131670BF4F6D937C9388819981D90196964D9142
S11316805C919797841B950B98966D917C91999793
S11316900E94CD3CD501A856BF4F6D937C93119702
S11316A0888199815E968D939C93D4018D919C91B0
S11316B0D501A854BF4F8D939C93F501EC54FF4F73
S11316C010821182F701E080F18088EE93E0B70187
S11316D00E94CD3C8B0128813981A8EEB3E00E94A1
S11316E03E3D980140E050E00E94F53C49015A011A
S11316F08AE698E1B7010E94CD3CEB01CC0FDD1FD7
S1131700660F771F660F771F660F771FC60FD71FE9
S1131710F601EE52FF4FC083D1837601F4EDEF0E54
S1131720F11CDE01A50194010E944D3D28EE33E039
S113173040E050E00E94F53CC21BD30BD701CD938F
S1131740DC93F601EA52FF4F00831183DF91CF91BE
S11317501F910F91FF90EF90DF90CF90BF90AF90CB
S11317609F908F9008954230D9F018F4413031F0B1
S11317703EC0433011F1443069F139C021E030E01A
S1131780FC0120AF31AF26AB37ABFB0180819181E7
S1131790019709F448C081E090E080839183089523
S11317A021E030E0FC01EE5AFF4F2083318326E034
S11317B030E03297208331831CC021E030E0FC010B
S11317C0E459FF4F2083318323E030E032972083B4
S11317D031830FC026E030E0FC01EA57FF4F20833D
S11317E031832AE030E032972083318302C04130D4
S11317F0B1F0FB0120813181FC015AE1459FE00DEC
S1131800F11D1124468D578D848D958D8217930774
S113181040F081E02417350738F080E0089580E037
S1131820089581E0089580E008950F931F93CF9366
S1131830DF93FC01D9018A579F4F26E030E0EC0189
S11318402883398302972AE030E0EC012883398326
S1131850EB0188819981069720F486E090E08883E3
S11318609983CF018C579F4FEC0188819981EB01BB
S1131870288139818217930710F488839983EB01B7
S113188088819981EF01C251DF4F888399838D91BB
S11318909C9111978E30910530F08DE090E08D93FE
S11318A09C93119707C0069728F486E090E08D93E7
S11318B09C931197EF01C857DF4F86E090E088832F
S11318C099839F0126573F4F01E010E0E901088307
S11318D019832E5F3F4F67E070E0E90168837983E5
S11318E02E503109E90188839983CF0184589F4F91
S11318F02DE030E0EC01288339839F012E503F4FC7
S11319008D919C9111970697E901888399832D9174
S11319103C911197CF0188509F4FEC012883398364
S11319206D917C9180EA95E0689F9001699F300DEC
S1131930789F300D11243695279536952795A5EC7B
S1131940B0E20E943E3D929582958F7089279F70E8
S11319508927DA018D939C93DF01A257BF4F82E15F
S113196090E08D939C93119712960D931C9311976D
S1131970129621E130E02D933C93119750978D936B
S11319809C931197129783E290E08D939C93119707
S1131990A059BF4FEA018881998142978D939C9306
S11319A088819981EA50FF4F8083918381E0DF91A0
S11319B0CF911F910F9108954F925F926F927F92F2
S11319C0AF92BF92CF92DF92EF92FF920F931F9349
S11319D0CF93DF93CDB7DEB72C97CDBFDEBF6C01BD
S11319E0FA01DB010D911C9188EE93E0B8010E948D
S11319F0CD3C7B0122813381A8EEB3E00E943E3DC1
S1131A00970140E050E00E94F53C29013A018AE642
S1131A1098E1B8010E94CD3C8B01000F111FAB016E
S1131A20440F551F440F551F440F551F040F151F16
S1131A30F601EE52FF4F008311835601B4EDAB0E55
S1131A40B11CD801A30192010E944D3D28EE33E060
S1131A5040E050E00E94F53C021B130BF5010083AB
S1131A6011833296E082F18260E188E196E20E947D
S1131A70EB3A60E288E196E20E94EB3A60E188E1A9
S1131A8096E20E94F83A60E288E196E20E94F83A0F
S1131A9086E0FE013796DE01119601900D928A953B
S1131AA0E1F729813A814B815C816D817E8180E0FF
S1131AB090E02C96CDBFDEBFDF91CF911F910F91A7
S1131AC0FF90EF90DF90CF90BF90AF907F906F909A
S1131AD05F904F9008950F931F93CF93DF93EC0182
S1131AE01E86FC01E451FF4F10821182329683E07E
S1131AF090E0808391836A30710550F481E090E036
S1131B007296808391838CE390E0888F998F42C092
S1131B106431710558F482E090E0FE01F39580830E
S1131B2091838CE390E0888F998F34C06332710580
S1131B3058F483E090E0FE01F395808391838CE375
S1131B4090E0888F998F26C06133710558F484E042
S1131B5090E0FE01F3958083918384E690E0888F82
S1131B60998F18C06834710558F485E090E0FE013F
S1131B70F3958083918384E690E0888F998F0AC0DF
S1131B8086E090E0FE01F3958083918384E690E003
S1131B90888F998FFE01EE50FF4F84E690E080839A
S1131BA091832E853297822F90E0DE013AE1239FC4
S1131BB0A00DB11D112458962D913C915997208365
S1131BC031838E010C501F4FBC01660F771FAB0190
S1131BD0480F591F440F551F4C545F4F4C0F5D1F46
S1131BE0680F791F660F771F6A567F4F6C0F7D1F32
S1131BF0CE010E94DC0CF80120833183428353839D
S1131C00648375838E8590E0FC01EE0FFF1FE80F5F
S1131C10F91FEE0FFF1FEC0FFD1FE656FF4F8081EB
S1131C209181C852DF4F88839983DF91CF911F91AF
S1131C300F9108950F931F93CF93DF93EC011E86AA
S1131C40FC01E451FF4F10821182329683E090E050
S1131C50808391837296608371836330710541F14F
S1131C6038F46130710561F062307105A9F04FC03C
S1131C7065307105A9F140F166307105E9F147C09D
S1131C8085E090E0FE01E250FF4F808391838CE376
S1131C9090E0888F998F3BC08EE090E0FE01E25087
S1131CA0FF4F808391838CE390E0888F998F2FC0BE
S1131CB08BE190E0FE01E250FF4F808391838CE33F
S1131CC090E0888F998F23C089E290E0FE01E25072
S1131CD0FF4F8083918384E690E0888F998F17C0AB
S1131CE08DE390E0FE01E250FF4F8083918384E610
S1131CF090E0888F998F0BC085E590E0FE01E2505B
S1131D00FF4F8083918384E690E0888F998FFE0152
S1131D10EE50FF4F84E690E0808391833297888D64
S1131D20998D808391838E010C501F4FAE014C54CA
S1131D305F4FBE016A567F4FCE010E94DC0CF80152
S1131D402083318342835383648375838E8590E03B
S1131D50FC01EE0FFF1FE80FF91FEE0FFF1FEC0F42
S1131D60FD1FE656FF4F80819181C852DF4F888363
S1131D709983DF91CF911F910F9108952F923F92F4
S1131D804F925F926F927F928F929F92AF92BF9287
S1131D90CF92DF92EF92FF920F93CF93DF9300D015
S1131DA000D0CDB7DEB77C01FC01EC5DFE4F608353
S1131DB07183FC011786118A128A138A5C01F4EE7E
S1131DC0AF1AFEEFBF0AF501108211826C01F2EE28
S1131DD0CF1AFEEFDF0AF6011082118234971082C7
S1131DE01182F50180819181369780839183F60178
S1131DF0808191813697808391833A9610821182F3
S1131E000F2EFAE08F2E912CF02D8D829E820F2EB4
S1131E10F8E24F2E512CF02D4B825C820F2EFEE007
S1131E202F2E312CF02D29823A8204E09E012F5F5F
S1131E303F4FAE014D5F5F4FBE016B5F7F4FC701E8
S1131E400E94E90A85E090E08D839E8380E590E01E
S1131E508B839C838AE190E089839A8303E09E01CB
S1131E602F5F3F4FAE014D5F5F4FBE016B5F7F4FF2
S1131E70C7010E94E90A82E090E08D839E8388E78F
S1131E8090E08B839C8384E290E089839A8302E0D0
S1131E909E012F5F3F4FAE014D5F5F4FBE016B5FF1
S1131EA07F4FC7010E94E90A66246394712C6D82F6
S1131EB07E8284E690E08B839C8386E290E0898333
S1131EC09A8301E09E012F5F3F4FAE014D5F5F4F4C
S1131ED0BE016B5F7F4FC7010E94E90A84E0F701EE
S1131EE0868781E090E00E948E3EF701E652FF4F24
S1131EF06083718382839383729624E030E020832D
S1131F003183D701A251BF4FFE9726E001900D9275
S1131F102A95E1F7D701AC50BF4FF701E453FF4FC7
S1131F2026E001900D922A95E1F7F5012081318197
S1131F30749720833183F601208131817497208343
S1131F4031830E94F419F701E650FF4F60837183D7
S1131F5082839383349610821182329660827182D6
S1131F6032968091B4249091B524808391833296E3
S1131F7083E090E0808391833296108211823696BA
S1131F801082118232968DE090E0808391833496A2
S1131F9010821182128213828D829E824B825C8215
S1131FA029823A8204E09E012F5F3F4FAE014D5FCC
S1131FB05F4FBE016B5F7F4FC7010E94E90A47E094
S1131FC063E088E196E20E94BB3AF701EE52FF4FCC
S1131FD06081718188E196E20E94093B6701F4ED1A
S1131FE0CF0ED11CF6016081718188E196E20E94D6
S1131FF00E3B21E0A7016CEC78E188E196E20E94B7
S1132000223B21E0A70168E574E088E196E20E94A2
S1132010443B60E188E196E20E94EB3A60E188E1AA
S113202096E20E94F83AF6016081718188E196E2B5
S11320300E94133B60E288E196E20E94EB3A60E280
S113204088E196E20E94F83A2696CDBFDEBFDF9182
S1132050CF910F91FF90EF90DF90CF90BF90AF9012
S11320609F908F907F906F905F904F903F902F90B4
S11320700895EF92FF920F931F93CF93DF931F92D4
S11320801F92CDB7DEB77C0183E090E00E94F01987
S113209089839A8387010C5D1E4F22E0AE014F5F56
S11320A05F4F63E0F801808191810E94F933F80168
S11320B0808191810E943634A70144515F4F2AE206
S11320C030E061E070E0F801808191810E94083481
S11320D0F801808191810E94363468EA71E68EE1CC
S11320E096E20E94DA3784E090E0F70184879587CE
S11320F00F900F90DF91CF911F910F91FF90EF9070
S113210008954F925F926F927F928F929F92AF92B7
S1132110BF92CF92DF92EF92FF920F931F93CF93D0
S1132120DF93CDB7DEB72C97CDBFDEBF8C01FA01AC
S1132130DB012D913C9188EE93E0B9010E94CD3CE6
S1132140828193816C01D694C7942230310548F082
S11321507B01E81AF90AB5E0EB0EF11C25E030E04A
S113216008C07B01E81AF90AEAE0EE0EF11C2AE045
S113217030E05801F4EEAF0EB11CA1E7B2E00E94CA
S11321803E3D0F2EFAE04F2E512C612C712CF02D78
S1132190A30192010E94F53CD5012D933C93960135
S11321A0A1E7B2E00E943E3DA30192010E94F53CEA
S11321B049015A01F801EA51FF4F20833183680134
S11321C0B8EECB0ED11C9701A1E7B2E00E943E3DD0
S11321D0A30192010E94F53CF601208331833296DB
S11321E08082918260E188E196E20E94F13A60E2A5
S11321F088E196E20E94F13A86E0FE013796DE011C
S1132200119601900D928A95E1F729813A814B81CB
S11322105C816D817E8180E090E02C96CDBFDEBF35
S1132220DF91CF911F910F91FF90EF90DF90CF90AE
S1132230BF90AF909F908F907F906F905F904F90E2
S11322400895CF93DF93EC01FC01EE5DFE4F808196
S11322509181892B29F080819181019780839183D9
S11322608A89882309F489C0FE01E65EFE4F8081D5
S11322709181892B09F079C0329780819181892BD2
S113228009F04CC0329780819181892BD1F58C85DE
S11322909D850297A1F522E044E650E065E071E0F7
S11322A080EE95E20E94623780EE95E20E949637B6
S11322B022E044E650E066E271E080EE95E20E949E
S11322C0623780EE95E20E94963722E044E650E0C1
S11322D069E471E080EE95E20E94623780EE95E257
S11322E00E94963722E044E650E06DE571E080EE0E
S11322F095E20E94623780EE95E20E9496371A8A30
S1132300A3C08CE390E0FE01E85EFE4F80839183DE
S113231032978081918101978083918384E690E054
S1132320FE01E65EFE4F8083918332978081918126
S11323300197808391838C859D850297B1F43297B0
S113234080819181892B09F04CC0329680819181E2
S11323500A9708F454C045C0FE01E85EFE4F808130
S11323609181059708F454C061C0FE01E65EFE4FFA
S1132370808191810A978083918380910620909136
S11323800720892B21F584E690E080930620909322
S11323900720809160089091610849E4489F90016A
S11323A0499F300D1124A5ECBEE40E943E3D969554
S11323B08795929582958F7089279F708927C05E33
S11323C0DE4F8883998385E196E20E94BC38809130
S11323D00620909107200A97809306209093072067
S11323E033C022E049E150E068EE73E080EE95E20C
S11323F00E94623780EE95E20E949637B6CFFE01C6
S1132400EA5EFE4F80819181892B09F4A5CF0EC02D
S113241022E044E650E068EE73E080EE95E20E942C
S1132420623780EE95E20E9496379FCF22E042E326
S113243050E068EE73E080EE95E20E94623780EE31
S113244095E20E94963791CFDF91CF9108950E9433
S11324502111089588E196E20E94E33A60E188E15F
S113246096E20E94F83A60E288E196E20E94F83A25
S1132470E0EAF6E081E0858382E0858308956F9247
S11324807F928F929F92AF92BF92CF92DF92EF9200
S1132490FF920F931F93CF93DF93CDB7DEB764976B
S11324A0CDBFDEBF7C018C010C5D1E4F42E063E0BA
S11324B0D8018D919C910E944734F80180819181CB
S11324C00E943634D8018D919C910E94D333BFEF82
S11324D0E9EFF0E0B150E040F040E1F700C0000067
S11324E0D7011C968D919C911D979F70892B09F49F
S11324F041C022E030E044EB54E26CE070E0C701FC
S11325000E94BC05F701E05EFE4F808191814497F3
S113251028F481E090E0709780839183F701E05E76
S1132520FE4F80819181449728F080819181899721
S113253008F467C5F701E05EFE4F808191818997B9
S113254028F083E090E070978083918322E030E06C
S1132550A701405F5E4F63E170E0C7010E94BC05C4
S113256022E030E0A701405E5E4F6EE070E0C701FC
S11325700E94BC05F7018485958588739927892B6A
S1132580E1F08091B4249091B5248D329140ACF067
S113259069E270E0C7010E94CC05D7011F968C91B7
S11325A01F9750968C93C7010E942A1281EE95E2E0
S11325B00E94F43687E0F701808BD7011C968D9139
S11325C09C911D978115B2E09B0709F445C41CF545
S11325D08830910509F454C364F48230910509F4F8
S11325E0E5C28430910509F451C0892B09F0F3C484
S11325F042C08032910509F457C324F4409709F48A
S113260053C3E9C48034910509F405C3811591408D
S113261009F4E0C3E0C4811527E0920709F4B1C3CB
S1132620ACF48115B4E09B0709F448C42CF481157B
S1132630934009F41AC4CFC4811525E0920709F424
S1132640BAC38115964009F48AC3C5C48115B0E2A2
S11326509B0709F471C42CF48115904109F434C426
S1132660BAC4811520E3920709F493C481159044F8
S113267009F4ACC4B0C463E070E0C7010E94CC05A7
S113268081E090E0F70184879587A9C4F701E250BF
S1132690FF4F6080718087011395D8018D909C90C5
S11326A07097808191818B8B9C8B3296C080D18076
S11326B03296A080B18046E050E062E070E0C7014D
S11326C00E94A805BFEFE9EFF0E0B150E040F04010
S11326D0E1F700C0000046E050E065E070E0C701AB
S11326E00E94A8052FEF89EF90E021508040904090
S11326F0E1F700C0000042E050E06DE070E0C70187
S11327000E94A805AFEFB9EFE0E0A150B040E0406F
S1132710E1F700C0000042E050E061E070E0C70172
S11327200E94A805FFEF29EF80E0F150204080408F
S1132730E1F700C0000042E050E06AE070E0C70149
S11327400E94A8059FEFA9EFB0E09150A040B040CF
S1132750E1F700C0000042E050E06BE070E0C70128
S11327600E94A805EFEFF9EF20E0E150F04020408F
S1132770E1F700C00000F701E652FF4F608171816C
S1132780828193810E94F419F701E650FF4F608320
S11327907183828393838091B4249091B524389675
S11327A0808391837E96808191817A9780839183BF
S11327B0D8016D917C916815790539F0C7010E94A3
S11327C01A0E81E0F701818B4AC0F701E250FF4FF6
S11327D0608171816615770541F0C7010E946B0D18
S11327E081E0D70151968C933AC0F701E451FF4F31
S11327F00190F081E02DD7011E968C911E978E17C3
S113280071F11E96EC931E979F013327A901440F83
S1132810551FCA01820F931F880F991F8A569F4F15
S1132820F701E80FF91F66E0A251BF4F01900D9226
S11328306A95E1F7FA01E20FF31FEE0FFF1FEC5464
S1132840FF4FEE0DFF1D86E0D701AC50BF4F019046
S11328500D928A95E1F781E0F701818BC0C3D7011E
S11328601E968C91F701BAE18B9FE00DF11D1124A6
S113287080A591A5C89E9001C99E300DD89E300DAB
S1132880112486A197A1820F931F898B9A8B82A111
S113289093A1A89E9001A99E300DB89E300D1124DD
S11328A080A191A1820F931F8D879E87F701E2512A
S11328B0FF4F808191812B893C898217930779F09E
S11328C08B8B9C8B32974081BE016D5E7F4FC7011D
S11328D00E94B30B882319F081E0F701818B2D85C9
S11328E03E8549895A896B897C89D7011E960C914A
S11328F0C7010E940D06F701E051FF4F208131818D
S11329002C153D0509F45AC0F7018685843029F455
S1132910E051FF4FC082D1824DC0482F50E0F701F3
S11329209AE1899FE00DF11D112480A591A5289FAE
S1132930B001299F700D389F700D112486A197A1B5
S1132940860F971F898B9A8B208D318D2817390715
S113295060F19A012F5F3F4F6AE1629FF001639F2C
S1132960F00D1124EE0DFF1D208131818217930794
S1132970E0F08AE1849FF001859FF00D1124EE0DB3
S1132980FF1D84A5882349F0AE014F5E5F4FBE0151
S11329906D5E7F4FC7010E94F20889899A89F70109
S11329A0EA50FF4F8083918305C0F701E051FF4F48
S11329B0C082D18281E0D70151968C93F701EE5009
S11329C0FF4F408151814A155B0509F466C0F70148
S11329D02685622F70E08AE1289FE00DF11D112405
S11329E082A193A1489FD001499FB00D589FB00D7B
S11329F0112480A191A18A0F9B1F8D879E8724306B
S1132A0069F49E01235F3F4FAE014F5E5F4FBE01ED
S1132A106D5E7F4FC7010E94150C3BC02AE1269FC3
S1132A20F001279FF00D1124EE0DFF1D2489358937
S1132A302817390748F12AE1269FF001279FF00D56
S1132A401124EE0DFF1D2689378982179307E0F0C4
S1132A508AE1869FF001879FF00D1124EE0DFF1D82
S1132A6085A5882349F0AE01435F5F4FBE016D5ECB
S1132A707F4FC7010E946F098D859E85F701E8503D
S1132A80FF4F8083918305C0F701EE50FF4FA08272
S1132A90B18281E0D70151968C93F7010685043009
S1132AA069F09E01235F3F4FAE014F5E5F4FBE0151
S1132AB06D5E7F4FC7010E940D070CC09E01235F0E
S1132AC03F4FAE014F5E5F4FBE016D5E7F4FC7014A
S1132AD00E94150CD7011E968C91833081F4A701B6
S1132AE04C505F4FB70162517F4FC7010E94811064
S1132AF02F83388749875A876B877C870FC0A70144
S1132B004C505F4FB70162517F4FC7010E94DC0CEC
S1132B1029833A834B835C836D837E83F701E8507A
S1132B20FF4F20813181A0EAB5E00E943E3D3297FB
S1132B302081318140E050E00E94F53CF701E852E9
S1132B40FF4F20833183F7018189882309F447C229
S1132B50868590E0DC01AA0FBB1F8A0F9B1F880F9C
S1132B60991FDC01AA56BF4FAE0DBF1D86E0E2518E
S1132B70FF4F01900D928A95E1F7D7011E968C9133
S1132B8090E0DC01AA0FBB1F8A0F9B1F880F991FBF
S1132B90DC01AC54BF4FAE0DBF1D86E0F701EC5015
S1132BA0FF4F01900D928A95E1F719C2F7018289CE
S1132BB08823B1F0EA5EFE4F808191818D879E87E4
S1132BC03296808191818F87988B24E030E0AE012A
S1132BD0435F5F4F6FE070E0C7010E94BC05FFC117
S1132BE0868590E0AC01440F551F840F951F880F14
S1132BF0991FAC014A565F4F4E0D5F1D26E030E031
S1132C0062E070E0C7010E94BC056CE070E0C7019F
S1132C100E94CC05E4C18091B4249091B5246AE06B
S1132C2070E00E94E13C6D877E878F87988B24E05B
S1132C3030E0AE01435F5F4F6FE070E0C7010E9478
S1132C40BC05F701E45EFE4F808191813697808355
S1132C50918338968081918136978083918381E036
S1132C60F701828B8091B4249091B52482329140F3
S1132C700CF0B5C167E070E0C7010E94CC05AFC19C
S1132C808091B4249091B5248D3291400CF4A7C165
S1132C9069E270E0C7010E94CC05D7011F968C91B0
S1132CA01F9750968C939BC1C7010E94790581EEB2
S1132CB095E20E943F37811112C0F7018485958502
S1132CC08097F1F060E170E0C7010E94CC0580E2DA
S1132CD090E0D7011C968D939C931D9711C0F7012A
S1132CE084859585409761F06EE070E0C7010E948D
S1132CF0CC0580E190E0D7011C968D939C931D97A1
S1132D00F701E652FF4F60817181828193810E94B5
S1132D10F4196D877E878F87988B24E030E0AE01AD
S1132D20435F5F4F68E070E0C7010E94BC05F70194
S1132D30E252FF4F60817181828193810E94F41974
S1132D406D877E878F87988B24E030E0AE01435FE8
S1132D505F4F64E170E0C7010E94BC0540C181EE91
S1132D6095E20E94F436F701E05EFE4F8081918186
S1132D70CD9708F434C169E170E0C7010E94CC0525
S1132D802EC181EE95E20E94F436F701128A8091F9
S1132D90B4249091B524823291400CF020C181E09A
S1132DA0D70152968C93529750966C9170E0C7015C
S1132DB00E94CC0514C181EE95E20E94F436809104
S1132DC0680685FF0CC1F701608970E0C7010E94A5
S1132DD0CC0505C1F701E252FF4F10821182128225
S1132DE0138281EE95E20E94F036F701EC5FFE4F0C
S1132DF0808191812CEC289FB001299F700D1124B2
S1132E0082E196E20E94823981E0D70153968C9345
S1132E10539752968C93F701E45EFE4F8081918123
S1132E203697808391833896808191813697808309
S1132E3091838091B4249091B5248332914034F0ED
S1132E4067E270E0C7010E94CC05C9C067E070E08A
S1132E50C7010E94CC05C3C0C7010E9479056EE07A
S1132E6070E0C7010E94CC05BAC06AE070E0C701F7
S1132E700E94CC05C7010E942A1281EE95E20E94AD
S1132E80F436F701138A81EE95E20E94D036F701F9
S1132E90E652FF4F408151816281738181E090E06D
S1132EA00E94953E1D861E8642E050E0BE01635F8F
S1132EB07F4F81E296E20E943B1A91C06AE070E083
S1132EC0C7010E94CC058BC042E050E061E170E094
S1132ED0C7010E94A805FFEF21EE84E0F1502040D5
S1132EE08040E1F700C0000042E050E062E170E0A1
S1132EF0C7010E94A8059FEFA1EEB4E09150A04045
S1132F00B040E1F700C00000F701E45FFE4F20810C
S1132F103181C901A0E0B0E09051AF4FBF4F2227EB
S1132F20382F492F5A2F00E01CE060E071E088E060
S1132F3096E20E94330353C0EFEFF7EA21E6E15033
S1132F40F0402040E1F700C0000042E050E062E1C0
S1132F5070E0C7010E94A805F701E25FFE4F2081DF
S1132F603181329780819181280F391FC901A0E0F6
S1132F70B0E09051AF4FBF4F2227382F492F5A2F1F
S1132F8000E011E060E07DE088E096E20E94330317
S1132F9026C0F701E25FFE4F2081318132978081A4
S1132FA09181280F391FC901A0E0B0E09051AF4FC3
S1132FB0BF4F2227382F492F5A2F00E011E060E03D
S1132FC07DE088E096E20E94CE0209C088E096E2A5
S1132FD00E94980304C088E096E20E949803D701F7
S1132FE051968C918823A9F0A70144515F4F2AE29E
S1132FF030E061E070E0C7010E94BC05F701118A6E
S113300008C082E090E0F701E05FFE4F8083918387
S113301091CA6496CDBFDEBFDF91CF911F910F910E
S1133020FF90EF90DF90CF90BF90AF909F908F90E4
S11330307F906F900895CF93DF93EC012E8521301C
S113304009F50E942A12CA52DF4F48815981453638
S1133050510550F020E042E350E064EF71E080EE6F
S113306095E20E94623709C05695479520E064EFC7
S113307071E080EE95E20E94623780EE95E20E9454
S1133080963787C0FC01E652FF4F80819181A2816F
S1133090B3810196A11DB11D80839183A283B38363
S11330A0349680819181A281B3810196A11DB11DC5
S11330B080839183A283B383233009F04CC0349678
S11330C0808180FD04C081E08093A60603C081E076
S11330D08093A506FE01EE51FF4F808180FD04C060
S11330E082E08093A60603C082E08093A506FE01D9
S11330F0EE51FF4F80819181059710F0108211826B
S1133100DE01AE51BF4FED91FC911197EE58FF4F88
S1133110EE0FFF1FEC0FFD1F808191818093360B12
S11331209093370B8D919C91039769F420E044E6CA
S113313050E064EF71E080EE95E20E94623780EE29
S113314095E20E949637CE51DF4F8881998101968E
S1133150888399831EC0CA52DF4F488159814536FE
S1133160510550F020E042E350E064EF71E080EE5E
S113317095E20E94623709C05695479520E064EFB6
S113318071E080EE95E20E94623780EE95E20E9443
S11331909637DF91CF9108950E941B1808950F93DD
S11331A01F93CF93DF93EC018E85833009F044C0E5
S11331B088E196E20E94E33AFE01EE51FF4F82E07D
S11331C090E080839183E0EAF6E081E0858382E009
S11331D085838E010C511F4FF801608171817695B2
S11331E0679588E196E20E940E3BF8016081718147
S11331F07695679588E196E20E94133BCA51DF4FAA
S113320088819981E0E0FBE086AB97AB8881998166
S11332109695879580AF91AF88819981969587958A
S113322082AF93AF10A211A2F8016081718188E18D
S113323096E20E94D63A27C08E010E521F4FF80123
S113324080819181E0E0FBE086AB97ABCC52DF4F0D
S11332508881998180AF91AF8881998182AF93AF42
S11332606881798188E196E20E940E3B68817981C8
S113327088E196E20E94133BF8016081718188E144
S113328096E20E94D63ADF91CF911F910F91089553
S1133290CF93DF93FC01248535852031310521F05E
S11332A02032310509F060C0EC018091480680FDB0
S11332B051C08091C422811157C0FE01EE5DFE4FC2
S11332C080819181892B09F44BC04EC08AE090E043
S11332D0FE01EE5DFE4F80839183E854F109808105
S11332E09181A281B3810196A11DB11D8083918337
S11332F0A283B383349680819181A281B3810196A4
S1133300A11DB11D80839183A283B383FE01EC527E
S1133310FF4F80819181009729F001978093200BC2
S11333209093210BCE010E94CF188E85813049F4F1
S1133330FFEF27E883E1F15020408040E1F700C02F
S11333400000E0E4F6E084858E7F848781E080934A
S1133350C4220AC01092C422CE010E942A1204C0C0
S11333608E85813099F6B2CFDF91CF9108950E9476
S113337048190895CF92DF92EF92FF920F931F9313
S1133380CF93DF937C018A0141155105B1F06B01A4
S1133390C40ED51EEB01261B370BC9018C0F9D1FD4
S11333A0B8010E94CD3CFC0141E0E427EE0DFF1D75
S11333B089918083CC15DD0581F7DF91CF911F9131
S11333C00F91FF90EF90DF90CF90089568177907E1
S11333D008F4CB0108958617970708F4CB010895E4
S11333E098278927982708959B01BC01C90108954E
S11333F008950895EF920F931F93CF93DF93EC01F9
S1133400E0E8F6E090EB918380EC848B858B878BEE
S11334109583611102C080E401C080E5011102C0FE
S113342030E001C030E8411102C090E001C090E2F8
S1133430220F220FE22AE82AE32AE92A00EC1AE002
S1133440F801E08280E091E00E94583D88839983EE
S113345081E0F801818383E79AE180933823909394
S11334603923C0932E24D0932F24DF91CF911F9121
S11334700F91EF900895CF93DF93EC014A835B8320
S11334804C835D83888199810E94853E80E180938D
S11334908606888199814A815B819A01215031098C
S11334A02A833B83FC01E20FF31F80818093C30ACC
S11334B0DF91CF910895FC0182819381892B79F06A
S11334C04081518122813381C90101978283938391
S11334D0FA01E80FF91F80818093C30A089580E1FF
S11334E08093850608950E945B1A089524E931E2C9
S11334F0FC01208331830895089528EB31E2FC0117
S1133500208331830895089526ED31E2FC01208360
S11335103183089508951F920F920FB60F921124CC
S11335200BB60F922F933F934F935F936F937F93B9
S11335308F939F93AF93BF93EF93FF93E091C82230
S1133540F091C922309729F08091BE239091BF2336
S11335501995FF91EF91BF91AF919F918F917F91B9
S11335606F915F914F913F912F910F900BBE0F90F0
S11335700FBE0F901F9018951F920F920FB60F92C7
S113358011240BB60F922F933F934F935F936F9336
S11335907F938F939F93AF93BF93EF93FF93E091A8
S11335A0CA22F091CB22309729F08091C0239091C8
S11335B0C1231995FF91EF91BF91AF919F918F9185
S11335C07F916F915F914F913F912F910F900BBE1F
S11335D00F900FBE0F901F9018951F920F920FB669
S11335E00F9211240BB60F922F933F934F935F9337
S11335F06F937F938F939F93AF93BF93EF93FF93B7
S1133600E091CC22F091CD22309729F08091C22311
S11336109091C3231995FF91EF91BF91AF919F9121
S11336208F917F916F915F914F913F912F910F9067
S11336300BBE0F900FBE0F901F9018951F920F9204
S11336400FB60F9211240BB60F922F933F934F9303
S11336505F936F937F938F939F93AF93BF93EF93F6
S1133660FF93E091CE22F091CF22309729F0809100
S1133670C4239091C5231995FF91EF91BF91AF9108
S11336809F918F917F916F915F914F913F912F9176
S11336900F900BBE0F900FBE0F901F9018951F92A6
S11336A00F920FB60F9211240BB60F922F933F93E4
S11336B04F935F936F937F938F939F93AF93BF9336
S11336C0EF93FF93E091D022F091D122309729F02B
S11336D08091C6239091C7231995FF91EF91BF91D3
S11336E0AF919F918F917F916F915F914F913F9196
S11336F02F910F900BBE0F900FBE0F901F90189537
S11337001F920F920FB60F9211240BB60F922F93A4
S11337103F934F935F936F937F938F939F93AF9355
S1133720BF93EF93FF93E091D222F091D32230978D
S113373029F08091C8239091C9231995FF91EF91A5
S1133740BF91AF919F918F917F916F915F914F91B5
S11337503F912F910F900BBE0F900FBE0F901F90B3
S113376018951F920F920FB60F9211240BB60F9259
S11337702F933F934F935F936F937F938F939F9375
S1133780AF93BF93EF93FF93E091D422F091D522AE
S1133790309729F08091CA239091CB231995FF91FA
S11337A0EF91BF91AF919F918F917F916F915F91B5
S11337B04F913F912F910F900BBE0F900FBE0F9022
S11337C01F9018951F920F920FB60F9211240BB6EB
S11337D00F922F933F934F935F936F937F938F93A6
S11337E09F93AF93BF93EF93FF93E091D622F09111
S11337F0D722309729F08091CC239091CD2319952D
S1133800FF91EF91BF91AF919F918F917F916F91B4
S11338105F914F913F912F910F900BBE0F900FBE70
S11338200F901F9018951F920F920FB60F921124AC
S11338300BB60F922F933F934F935F936F937F93A6
S11338408F939F93AF93BF93EF93FF93E091D8220D
S1133850F091D922309729F08091CE239091CF23F3
S11338601995FF91EF91BF91AF919F918F917F91A6
S11338706F915F914F913F912F910F900BBE0F90DD
S11338800FBE0F901F9018951F920F920FB60F92B4
S113389011240BB60F922F933F934F935F936F9323
S11338A07F938F939F93AF93BF93EF93FF93E09195
S11338B0DA22F091DB22309729F08091D023909185
S11338C0D1231995FF91EF91BF91AF919F918F9162
S11338D07F916F915F914F913F912F910F900BBE0C
S11338E00F900FBE0F901F9018951F920F920FB656
S11338F00F9211240BB60F922F933F934F935F9324
S11339006F937F938F939F93AF93BF93EF93FF93A3
S1133910E091DC22F091DD22309729F08091D223CE
S11339209091D3231995FF91EF91BF91AF919F91FE
S11339308F917F916F915F914F913F912F910F9054
S11339400BBE0F900FBE0F901F9018951F920F92F1
S11339500FB60F9211240BB60F922F933F934F93F0
S11339605F936F937F938F939F93AF93BF93EF93E3
S1133970FF93E091DE22F091DF22309729F08091CD
S1133980D4239091D5231995FF91EF91BF91AF91D5
S11339909F918F917F916F915F914F913F912F9163
S11339A00F900BBE0F900FBE0F901F9018951F9293
S11339B00F920FB60F9211240BB60F922F933F93D1
S11339C04F935F936F937F938F939F93AF93BF9323
S11339D0EF93FF93E091E022F091E122309729F0F8
S11339E08091D6239091D7231995FF91EF91BF91A0
S11339F0AF919F918F917F916F915F914F913F9183
S1133A002F910F900BBE0F900FBE0F901F90189523
S1133A101F920F920FB60F9211240BB60F922F9391
S1133A203F934F935F936F937F938F939F93AF9342
S1133A30BF93EF93FF93E091E222F091E32230975A
S1133A4029F08091D8239091D9231995FF91EF9172
S1133A50BF91AF919F918F917F916F915F914F91A2
S1133A603F912F910F900BBE0F900FBE0F901F90A0
S1133A7018951F920F920FB60F9211240BB60F9246
S1133A802F933F934F935F936F937F938F939F9362
S1133A90AF93BF93EF93FF93E091E422F091E5227B
S1133AA0309729F08091DA239091DB231995FF91C7
S1133AB0EF91BF91AF919F918F917F916F915F91A2
S1133AC04F913F912F910F900BBE0F900FBE0F900F
S1133AD01F9018951F920F920FB60F9211240BB6D8
S1133AE00F922F933F934F935F936F937F938F9393
S1133AF09F93AF93BF93EF93FF93E091E622F091EE
S1133B00E722309729F08091DC239091DD231995E9
S1133B10FF91EF91BF91AF919F918F917F916F91A1
S1133B205F914F913F912F910F900BBE0F900FBE5D
S1133B300F901F9018951F920F920FB60F92112499
S1133B400BB60F922F933F934F935F936F937F9393
S1133B508F939F93AF93BF93EF93FF93E091E822EA
S1133B60F091E922309729F08091DE239091DF23B0
S1133B701995FF91EF91BF91AF919F918F917F9193
S1133B806F915F914F913F912F910F900BBE0F90CA
S1133B900FBE0F901F9018951F920F920FB60F92A1
S1133BA011240BB60F922F933F934F935F936F9310
S1133BB07F938F939F93AF93BF93EF93FF93E09182
S1133BC0EA22F091EB22309729F08091E023909142
S1133BD0E1231995FF91EF91BF91AF919F918F913F
S1133BE07F916F915F914F913F912F910F900BBEF9
S1133BF00F900FBE0F901F9018951F920F920FB643
S1133C000F9211240BB60F922F933F934F935F9310
S1133C106F937F938F939F93AF93BF93EF93FF9390
S1133C20E091EC22F091ED22309729F08091E2238B
S1133C309091E3231995FF91EF91BF91AF919F91DB
S1133C408F917F916F915F914F913F912F910F9041
S1133C500BBE0F900FBE0F901F9018951F920F92DE
S1133C600FB60F9211240BB60F922F933F934F93DD
S1133C705F936F937F938F939F93AF93BF93EF93D0
S1133C80FF93E091EE22F091EF22309729F080919A
S1133C90E4239091E5231995FF91EF91BF91AF91A2
S1133CA09F918F917F916F915F914F913F912F9150
S1133CB00F900BBE0F900FBE0F901F9018951F9280
S1133CC00F920FB60F9211240BB60F922F933F93BE
S1133CD04F935F936F937F938F939F93AF93BF9310
S1133CE0EF93FF93E091F022F091F122309729F0C5
S1133CF08091E6239091E7231995FF91EF91BF916D
S1133D00AF919F918F917F916F915F914F913F916F
S1133D102F910F900BBE0F900FBE0F901F90189510
S1133D201F920F920FB60F9211240BB60F922F937E
S1133D303F934F935F936F937F938F939F93AF932F
S1133D40BF93EF93FF93E091F222F091F322309727
S1133D5029F08091E8239091E9231995FF91EF913F
S1133D60BF91AF919F918F917F916F915F914F918F
S1133D703F912F910F900BBE0F900FBE0F901F908D
S1133D8018951F920F920FB60F9211240BB60F9233
S1133D902F933F934F935F936F937F938F939F934F
S1133DA0AF93BF93EF93FF93E091F422F091F52248
S1133DB0309729F08091EA239091EB231995FF9194
S1133DC0EF91BF91AF919F918F917F916F915F918F
S1133DD04F913F912F910F900BBE0F900FBE0F90FC
S1133DE01F9018951F920F920FB60F9211240BB6C5
S1133DF00F922F933F934F935F936F937F938F9380
S1133E009F93AF93BF93EF93FF93E091F622F091CA
S1133E10F722309729F08091EC239091ED231995A6
S1133E20FF91EF91BF91AF919F918F917F916F918E
S1133E305F914F913F912F910F900BBE0F900FBE4A
S1133E400F901F9018951F920F920FB60F92112486
S1133E500BB60F922F933F934F935F936F937F9380
S1133E608F939F93AF93BF93EF93FF93E091F822C7
S1133E70F091F922309729F08091EE239091EF236D
S1133E801995FF91EF91BF91AF919F918F917F9180
S1133E906F915F914F913F912F910F900BBE0F90B7
S1133EA00FBE0F901F9018951F920F920FB60F928E
S1133EB011240BB60F922F933F934F935F936F93FD
S1133EC07F938F939F93AF93BF93EF93FF93E0916F
S1133ED0FA22F091FB22309729F08091F0239091FF
S1133EE0F1231995FF91EF91BF91AF919F918F911C
S1133EF07F916F915F914F913F912F910F900BBEE6
S1133F000F900FBE0F901F9018951F920F920FB62F
S1133F100F9211240BB60F922F933F934F935F93FD
S1133F206F937F938F939F93AF93BF93EF93FF937D
S1133F30E091FC22F091FD22309729F08091F22348
S1133F409091F3231995FF91EF91BF91AF919F91B8
S1133F508F917F916F915F914F913F912F910F902E
S1133F600BBE0F900FBE0F901F9018951F920F92CB
S1133F700FB60F9211240BB60F922F933F934F93CA
S1133F805F936F937F938F939F93AF93BF93EF93BD
S1133F90FF93E091FE22F091FF22309729F0809167
S1133FA0F4239091F5231995FF91EF91BF91AF916F
S1133FB09F918F917F916F915F914F913F912F913D
S1133FC00F900BBE0F900FBE0F901F9018951F926D
S1133FD00F920FB60F9211240BB60F922F933F93AB
S1133FE04F935F936F937F938F939F93AF93BF93FD
S1133FF0EF93FF93E0910023F0910123309729F090
S11340008091F6239091F7231995FF91EF91BF9139
S1134010AF919F918F917F916F915F914F913F915C
S11340202F910F900BBE0F900FBE0F901F901895FD
S11340301F920F920FB60F9211240BB60F922F936B
S11340403F934F935F936F937F938F939F93AF931C
S1134050BF93EF93FF93E0910223F09103233097F2
S113406029F08091F8239091F9231995FF91EF910C
S1134070BF91AF919F918F917F916F915F914F917C
S11340803F912F910F900BBE0F900FBE0F901F907A
S113409018951F920F920FB60F9211240BB60F9220
S11340A02F933F934F935F936F937F938F939F933C
S11340B0AF93BF93EF93FF93E0910423F091052313
S11340C0309729F08091FA239091FB231995FF9161
S11340D0EF91BF91AF919F918F917F916F915F917C
S11340E04F913F912F910F900BBE0F900FBE0F90E9
S11340F01F9018951F920F920FB60F9211240BB6B2
S11341000F922F933F934F935F936F937F938F936C
S11341109F93AF93BF93EF93FF93E0910623F091A6
S11341200723309729F08091FC239091FD23199562
S1134130FF91EF91BF91AF919F918F917F916F917B
S11341405F914F913F912F910F900BBE0F900FBE37
S11341500F901F9018951F920F920FB60F92112473
S11341600BB60F922F933F934F935F936F937F936D
S11341708F939F93AF93BF93EF93FF93E0910823A3
S1134180F0910923309729F08091FE239091FF2329
S11341901995FF91EF91BF91AF919F918F917F916D
S11341A06F915F914F913F912F910F900BBE0F90A4
S11341B00FBE0F901F9018951F920F920FB60F927B
S11341C011240BB60F922F933F934F935F936F93EA
S11341D07F938F939F93AF93BF93EF93FF93E0915C
S11341E00A23F0910B23309729F0809100249091B9
S11341F001241995FF91EF91BF91AF919F918F91F8
S11342007F916F915F914F913F912F910F900BBED2
S11342100F900FBE0F901F9018951F920F920FB61C
S11342200F9211240BB60F922F933F934F935F93EA
S11342306F937F938F939F93AF93BF93EF93FF936A
S1134240E0910C23F0910D23309729F08091022402
S1134250909103241995FF91EF91BF91AF919F9194
S11342608F917F916F915F914F913F912F910F901B
S11342700BBE0F900FBE0F901F9018951F920F92B8
S11342800FB60F9211240BB60F922F933F934F93B7
S11342905F936F937F938F939F93AF93BF93EF93AA
S11342A0FF93E0910E23F0910F23309729F0809132
S11342B00424909105241995FF91EF91BF91AF913A
S11342C09F918F917F916F915F914F913F912F912A
S11342D00F900BBE0F900FBE0F901F9018951F925A
S11342E00F920FB60F9211240BB60F922F933F9398
S11342F04F935F936F937F938F939F93AF93BF93EA
S1134300EF93FF93E0911023F0911123309729F05C
S113431080910624909107241995FF91EF91BF9104
S1134320AF919F918F917F916F915F914F913F9149
S11343302F910F900BBE0F900FBE0F901F901895EA
S11343401F920F920FB60F9211240BB60F922F9358
S11343503F934F935F936F937F938F939F93AF9309
S1134360BF93EF93FF93E0911223F09113233097BF
S113437029F080910824909109241995FF91EF91D7
S1134380BF91AF919F918F917F916F915F914F9169
S11343903F912F910F900BBE0F900FBE0F901F9067
S11343A018951F920F920FB60F9211240BB60F920D
S11343B02F933F934F935F936F937F938F939F9329
S11343C0AF93BF93EF93FF93E0911423F0911523E0
S11343D0309729F080910A2490910B241995FF912C
S11343E0EF91BF91AF919F918F917F916F915F9169
S11343F04F913F912F910F900BBE0F900FBE0F90D6
S11344001F9018951F920F920FB60F9211240BB69E
S11344100F922F933F934F935F936F937F938F9359
S11344209F93AF93BF93EF93FF93E0911623F09183
S11344301723309729F080910C2490910D2419951D
S1134440FF91EF91BF91AF919F918F917F916F9168
S11344505F914F913F912F910F900BBE0F900FBE24
S11344600F901F9018951F920F920FB60F92112460
S11344700BB60F922F933F934F935F936F937F935A
S11344808F939F93AF93BF93EF93FF93E091182380
S1134490F0911923309729F080910E2490910F24E4
S11344A01995FF91EF91BF91AF919F918F917F915A
S11344B06F915F914F913F912F910F900BBE0F9091
S11344C00FBE0F901F9018951F920F920FB60F9268
S11344D011240BB60F922F933F934F935F936F93D7
S11344E07F938F939F93AF93BF93EF93FF93E09149
S11344F01A23F0911B23309729F080911024909176
S113450011241995FF91EF91BF91AF919F918F91D4
S11345107F916F915F914F913F912F910F900BBEBF
S11345200F900FBE0F901F9018951F920F920FB609
S11345300F9211240BB60F922F933F934F935F93D7
S11345406F937F938F939F93AF93BF93EF93FF9357
S1134550E0911C23F0911D23309729F080911224BF
S1134560909113241995FF91EF91BF91AF919F9171
S11345708F917F916F915F914F913F912F910F9008
S11345800BBE0F900FBE0F901F9018951F920F92A5
S11345900FB60F9211240BB60F922F933F934F93A4
S11345A05F936F937F938F939F93AF93BF93EF9397
S11345B0FF93E0911E23F0911F23309729F08091FF
S11345C01424909115241995FF91EF91BF91AF9107
S11345D09F918F917F916F915F914F913F912F9117
S11345E00F900BBE0F900FBE0F901F9018951F9247
S11345F00F920FB60F9211240BB60F922F933F9385
S11346004F935F936F937F938F939F93AF93BF93D6
S1134610EF93FF93E0912023F0912123309729F029
S113462080911624909117241995FF91EF91BF91D1
S1134630AF919F918F917F916F915F914F913F9136
S11346402F910F900BBE0F900FBE0F901F901895D7
S11346501F920F920FB60F9211240BB60F922F9345
S11346603F934F935F936F937F938F939F93AF93F6
S1134670BF93EF93FF93E0912223F091232330978C
S113468029F080911824909119241995FF91EF91A4
S1134690BF91AF919F918F917F916F915F914F9156
S11346A03F912F910F900BBE0F900FBE0F901F9054
S11346B018951F920F920FB60F9211240BB60F92FA
S11346C02F933F934F935F936F937F938F939F9316
S11346D0AF93BF93EF93FF93E0912423F0912523AD
S11346E0309729F080911A2490911B241995FF91F9
S11346F0EF91BF91AF919F918F917F916F915F9156
S11347004F913F912F910F900BBE0F900FBE0F90C2
S11347101F9018951F920F920FB60F9211240BB68B
S11347200F922F933F934F935F936F937F938F9346
S11347309F93AF93BF93EF93FF93E0912623F09160
S11347402723309729F080911C2490911D241995DA
S1134750FF91EF91BF91AF919F918F917F916F9155
S11347605F914F913F912F910F900BBE0F900FBE11
S11347700F901F9018951F920F920FB60F9211244D
S11347800BB60F922F933F934F935F936F937F9347
S11347908F939F93AF93BF93EF93FF93E09128235D
S11347A0F0912923309729F080911E2490911F24A1
S11347B01995FF91EF91BF91AF919F918F917F9147
S11347C06F915F914F913F912F910F900BBE0F907E
S11347D00FBE0F901F9018951F920F920FB60F9255
S11347E011240BB60F922F933F934F935F936F93C4
S11347F07F938F939F93AF93BF93EF93FF93E09136
S11348002A23F0912B23309729F080912024909132
S113481021241995FF91EF91BF91AF919F918F91B1
S11348207F916F915F914F913F912F910F900BBEAC
S11348300F900FBE0F901F9018951F920F920FB6F6
S11348400F9211240BB60F922F933F934F935F93C4
S11348506F937F938F939F93AF93BF93EF93FF9344
S1134860E0912C23F0912D23309729F0809122247C
S1134870909123241995FF91EF91BF91AF919F914E
S11348808F917F916F915F914F913F912F910F90F5
S11348900BBE0F900FBE0F901F9018951F920F9292
S11348A00FB60F9211240BB60F922F933F934F9391
S11348B05F936F937F938F939F93AF93BF93EF9384
S11348C0FF93E0912E23F0912F23309729F08091CC
S11348D02424909125241995FF91EF91BF91AF91D4
S11348E09F918F917F916F915F914F913F912F9104
S11348F00F900BBE0F900FBE0F901F9018951F9234
S11349000F920FB60F9211240BB60F922F933F9371
S11349104F935F936F937F938F939F93AF93BF93C3
S1134920EF93FF93E0913023F0913123309729F0F6
S113493080912624909127241995FF91EF91BF919E
S1134940AF919F918F917F916F915F914F913F9123
S11349502F910F900BBE0F900FBE0F901F901895C4
S11349601F920F920FB60F9211240BB60F922F9332
S11349703F934F935F936F937F938F939F93AF93E3
S1134980BF93EF93FF93E0913223F0913323309759
S113499029F080912824909129241995FF91EF9171
S11349A0BF91AF919F918F917F916F915F914F9143
S11349B03F912F910F900BBE0F900FBE0F901F9041
S11349C018951F920F920FB60F9211240BB60F92E7
S11349D02F933F934F935F936F937F938F939F9303
S11349E0AF93BF93EF93FF93E0913423F09135237A
S11349F0309729F080912A2490912B241995FF91C6
S1134A00EF91BF91AF919F918F917F916F915F9142
S1134A104F913F912F910F900BBE0F900FBE0F90AF
S1134A201F9018951F920F920FB60F9211240BB678
S1134A300F922F933F934F935F936F937F938F9333
S1134A409F93AF93BF93EF93FF93E0913623F0913D
S1134A503723309729F080912C2490912D24199597
S1134A60FF91EF91BF91AF919F918F917F916F9142
S1134A705F914F913F912F910F900BBE0F900FBEFE
S1134A800F901F9018951F920F920FB60F9211243A
S1134A900BB60F922F933F934F935F936F937F9334
S1134AA08F939F93AF93BF93EF93FF93E09138233A
S1134AB0F0913923309729F080912E2490912F245E
S1134AC01995FF91EF91BF91AF919F918F917F9134
S1134AD06F915F914F913F912F910F900BBE0F906B
S1134AE00FBE0F901F9018951F920F920FB60F9242
S1134AF011240BB60F922F933F934F935F936F93B1
S1134B007F938F939F93AF93BF93EF93FF93E09122
S1134B103A23F0913B23309729F0809130249091EF
S1134B2031241995FF91EF91BF91AF919F918F918E
S1134B307F916F915F914F913F912F910F900BBE99
S1134B400F900FBE0F901F9018951F920F920FB6E3
S1134B500F9211240BB60F922F933F934F935F93B1
S1134B606F937F938F939F93AF93BF93EF93FF9331
S1134B70E0913C23F0913D23309729F08091322439
S1134B80909133241995FF91EF91BF91AF919F912B
S1134B908F917F916F915F914F913F912F910F90E2
S1134BA00BBE0F900FBE0F901F9018951F920F927F
S1134BB00FB60F9211240BB60F922F933F934F937E
S1134BC05F936F937F938F939F93AF93BF93EF9371
S1134BD0FF93E0913E23F0913F23309729F0809199
S1134BE03424909135241995FF91EF91BF91AF91A1
S1134BF09F918F917F916F915F914F913F912F91F1
S1134C000F900BBE0F900FBE0F901F9018951F9220
S1134C100F920FB60F9211240BB60F922F933F935E
S1134C204F935F936F937F938F939F93AF93BF93B0
S1134C30EF93FF93E0914023F0914123309729F0C3
S1134C4080913624909137241995FF91EF91BF916B
S1134C50AF919F918F917F916F915F914F913F9110
S1134C602F910F900BBE0F900FBE0F901F901895B1
S1134C701F920F920FB60F9211240BB60F922F931F
S1134C803F934F935F936F937F938F939F93AF93D0
S1134C90BF93EF93FF93E0914223F0914323309726
S1134CA029F080913824909139241995FF91EF913E
S1134CB0BF91AF919F918F917F916F915F914F9130
S1134CC03F912F910F900BBE0F900FBE0F901F902E
S1134CD018951F920F920FB60F9211240BB60F92D4
S1134CE02F933F934F935F936F937F938F939F93F0
S1134CF0AF93BF93EF93FF93E0914423F091452347
S1134D00309729F080913A2490913B241995FF9192
S1134D10EF91BF91AF919F918F917F916F915F912F
S1134D204F913F912F910F900BBE0F900FBE0F909C
S1134D301F9018951F920F920FB60F9211240BB665
S1134D400F922F933F934F935F936F937F938F9320
S1134D509F93AF93BF93EF93FF93E0914623F0911A
S1134D604723309729F080913C2490913D24199554
S1134D70FF91EF91BF91AF919F918F917F916F912F
S1134D805F914F913F912F910F900BBE0F900FBEEB
S1134D900F901F9018951F920F920FB60F92112427
S1134DA00BB60F922F933F934F935F936F937F9321
S1134DB08F939F93AF93BF93EF93FF93E091482317
S1134DC0F0914923309729F080913E2490913F241B
S1134DD01995FF91EF91BF91AF919F918F917F9121
S1134DE06F915F914F913F912F910F900BBE0F9058
S1134DF00FBE0F901F9018951F920F920FB60F922F
S1134E0011240BB60F922F933F934F935F936F939D
S1134E107F938F939F93AF93BF93EF93FF93E0910F
S1134E204A23F0914B23309729F0809140249091AC
S1134E3041241995FF91EF91BF91AF919F918F916B
S1134E407F916F915F914F913F912F910F900BBE86
S1134E500F900FBE0F901F9018951F920F920FB6D0
S1134E600F9211240BB60F922F933F934F935F939E
S1134E706F937F938F939F93AF93BF93EF93FF931E
S1134E80E0914C23F0914D23309729F080914224F6
S1134E90909143241995FF91EF91BF91AF919F9108
S1134EA08F917F916F915F914F913F912F910F90CF
S1134EB00BBE0F900FBE0F901F9018951F920F926C
S1134EC00FB60F9211240BB60F922F933F934F936B
S1134ED05F936F937F938F939F93AF93BF93EF935E
S1134EE0FF93E0914E23F0914F23309729F0809166
S1134EF04424909145241995FF91EF91BF91AF916E
S1134F009F918F917F916F915F914F913F912F91DD
S1134F100F900BBE0F900FBE0F901F9018951F920D
S1134F200F920FB60F9211240BB60F922F933F934B
S1134F304F935F936F937F938F939F93AF93BF939D
S1134F40EF93FF93E0915023F0915123309729F090
S1134F5080914624909147241995FF91EF91BF9138
S1134F60AF919F918F917F916F915F914F913F91FD
S1134F702F910F900BBE0F900FBE0F901F9018959E
S1134F801F920F920FB60F9211240BB60F922F930C
S1134F903F934F935F936F937F938F939F93AF93BD
S1134FA0BF93EF93FF93E0915223F09153233097F3
S1134FB029F080914824909149241995FF91EF910B
S1134FC0BF91AF919F918F917F916F915F914F911D
S1134FD03F912F910F900BBE0F900FBE0F901F901B
S1134FE018951F920F920FB60F9211240BB60F92C1
S1134FF02F933F934F935F936F937F938F939F93DD
S1135000AF93BF93EF93FF93E0915423F091552313
S1135010309729F080914A2490914B241995FF915F
S1135020EF91BF91AF919F918F917F916F915F911C
S11350304F913F912F910F900BBE0F900FBE0F9089
S11350401F9018951F920F920FB60F9211240BB652
S11350500F922F933F934F935F936F937F938F930D
S11350609F93AF93BF93EF93FF93E0915623F091F7
S11350705723309729F080914C2490914D24199511
S1135080FF91EF91BF91AF919F918F917F916F911C
S11350905F914F913F912F910F900BBE0F900FBED8
S11350A00F901F9018951F920F920FB60F92112414
S11350B00BB60F922F933F934F935F936F937F930E
S11350C08F939F93AF93BF93EF93FF93E0915823F4
S11350D0F0915923309729F080914E2490914F24D8
S11350E01995FF91EF91BF91AF919F918F917F910E
S11350F06F915F914F913F912F910F900BBE0F9045
S11351000FBE0F901F9018951F920F920FB60F921B
S113511011240BB60F922F933F934F935F936F938A
S11351207F938F939F93AF93BF93EF93FF93E091FC
S11351305A23F0915B23309729F080915024909169
S113514051241995FF91EF91BF91AF919F918F9148
S11351507F916F915F914F913F912F910F900BBE73
S11351600F900FBE0F901F9018951F920F920FB6BD
S11351700F9211240BB60F922F933F934F935F938B
S11351806F937F938F939F93AF93BF93EF93FF930B
S1135190E0916023F0916123309729F080915624A7
S11351A0909157241995FF91EF91BF91AF919F91E1
S11351B08F917F916F915F914F913F912F910F90BC
S11351C00BBE0F900FBE0F901F9018951F920F9259
S11351D00FB60F9211240BB60F922F933F934F9358
S11351E05F936F937F938F939F93AF93BF93EF934B
S11351F0FF93E0916223F0916323309729F080912B
S11352005824909159241995FF91EF91BF91AF9132
S11352109F918F917F916F915F914F913F912F91CA
S11352200F900BBE0F900FBE0F901F9018951F92FA
S11352300F920FB60F9211240BB60F922F933F9338
S11352404F935F936F937F938F939F93AF93BF938A
S1135250EF93FF93E0916423F0916523309729F055
S113526080915A2490915B241995FF91EF91BF91FD
S1135270AF919F918F917F916F915F914F913F91EA
S11352802F910F900BBE0F900FBE0F901F9018958B
S11352901F920F920FB60F9211240BB60F922F93F9
S11352A03F934F935F936F937F938F939F93AF93AA
S11352B0BF93EF93FF93E0916623F09167233097B8
S11352C029F080915C2490915D241995FF91EF91D0
S11352D0BF91AF919F918F917F916F915F914F910A
S11352E03F912F910F900BBE0F900FBE0F901F9008
S11352F018951F920F920FB60F9211240BB60F92AE
S11353002F933F934F935F936F937F938F939F93C9
S1135310AF93BF93EF93FF93E0916823F0916923D8
S1135320309729F080915E2490915F241995FF9124
S1135330EF91BF91AF919F918F917F916F915F9109
S11353404F913F912F910F900BBE0F900FBE0F9076
S11353501F9018951F920F920FB60F9211240BB63F
S11353600F922F933F934F935F936F937F938F93FA
S11353709F93AF93BF93EF93FF93E0916A23F091D0
S11353806B23309729F080916024909161241995C2
S1135390FF91EF91BF91AF919F918F917F916F9109
S11353A05F914F913F912F910F900BBE0F900FBEC5
S11353B00F901F9018951F920F920FB60F92112401
S11353C00BB60F922F933F934F935F936F937F93FB
S11353D08F939F93AF93BF93EF93FF93E0916C23CD
S11353E0F0916D23309729F0809162249091632489
S11353F01995FF91EF91BF91AF919F918F917F91FB
S11354006F915F914F913F912F910F900BBE0F9031
S11354100FBE0F901F9018951F920F920FB60F9208
S113542011240BB60F922F933F934F935F936F9377
S11354307F938F939F93AF93BF93EF93FF93E091E9
S11354406E23F0916F23309729F08091642490911A
S113545065241995FF91EF91BF91AF919F918F9121
S11354607F916F915F914F913F912F910F900BBE60
S11354700F900FBE0F901F9018951F920F920FB6AA
S11354800F9211240BB60F922F933F934F935F9378
S11354906F937F938F939F93AF93BF93EF93FF93F8
S11354A0E0917023F0917123309729F08091662464
S11354B0909167241995FF91EF91BF91AF919F91BE
S11354C08F917F916F915F914F913F912F910F90A9
S11354D00BBE0F900FBE0F901F9018951F920F9246
S11354E00FB60F9211240BB60F922F933F934F9345
S11354F05F936F937F938F939F93AF93BF93EF9338
S1135500FF93E0917223F0917323309729F08091F7
S11355106824909169241995FF91EF91BF91AF91FF
S11355209F918F917F916F915F914F913F912F91B7
S11355300F900BBE0F900FBE0F901F9018951F92E7
S11355400F920FB60F9211240BB60F922F933F9325
S11355504F935F936F937F938F939F93AF93BF9377
S1135560EF93FF93E0917423F0917523309729F022
S113557080916A2490916B241995FF91EF91BF91CA
S1135580AF919F918F917F916F915F914F913F91D7
S11355902F910F900BBE0F900FBE0F901F90189578
S11355A01F920F920FB60F9211240BB60F922F93E6
S11355B03F934F935F936F937F938F939F93AF9397
S11355C0BF93EF93FF93E0917623F0917723309785
S11355D029F080916C2490916D241995FF91EF919D
S11355E0BF91AF919F918F917F916F915F914F91F7
S11355F03F912F910F900BBE0F900FBE0F901F90F5
S113560018951F920F920FB60F9211240BB60F929A
S11356102F933F934F935F936F937F938F939F93B6
S1135620AF93BF93EF93FF93E0917823F0917923A5
S1135630309729F080916E2490916F241995FF91F1
S1135640EF91BF91AF919F918F917F916F915F91F6
S11356504F913F912F910F900BBE0F900FBE0F9063
S11356601F9018951F920F920FB60F9211240BB62C
S11356700F922F933F934F935F936F937F938F93E7
S11356809F93AF93BF93EF93FF93E0917A23F091AD
S11356907B23309729F0809170249091712419957F
S11356A0FF91EF91BF91AF919F918F917F916F91F6
S11356B05F914F913F912F910F900BBE0F900FBEB2
S11356C00F901F9018951F920F920FB60F921124EE
S11356D00BB60F922F933F934F935F936F937F93E8
S11356E08F939F93AF93BF93EF93FF93E0917C23AA
S11356F0F0917D23309729F0809172249091732446
S11357001995FF91EF91BF91AF919F918F917F91E7
S11357106F915F914F913F912F910F900BBE0F901E
S11357200FBE0F901F9018951F920F920FB60F92F5
S113573011240BB60F922F933F934F935F936F9364
S11357407F938F939F93AF93BF93EF93FF93E091D6
S11357507E23F0917F23309729F0809174249091D7
S113576075241995FF91EF91BF91AF919F918F91FE
S11357707F916F915F914F913F912F910F900BBE4D
S11357800F900FBE0F901F9018951F920F920FB697
S11357900F9211240BB60F922F933F934F935F9365
S11357A06F937F938F939F93AF93BF93EF93FF93E5
S11357B0E0918023F0918123309729F08091762421
S11357C0909177241995FF91EF91BF91AF919F919B
S11357D08F917F916F915F914F913F912F910F9096
S11357E00BBE0F900FBE0F901F9018951F920F9233
S11357F00FB60F9211240BB60F922F933F934F9332
S11358005F936F937F938F939F93AF93BF93EF9324
S1135810FF93E0919623F0919723309729F080919C
S11358208C2490918D241995FF91EF91BF91AF91A4
S11358309F918F917F916F915F914F913F912F91A4
S11358400F900BBE0F900FBE0F901F9018951F92D4
S11358500F920FB60F9211240BB60F922F933F9312
S11358604F935F936F937F938F939F93AF93BF9364
S1135870EF93FF93E0919823F0919923309729F0C7
S113588080918E2490918F241995FF91EF91BF916F
S1135890AF919F918F917F916F915F914F913F91C4
S11358A02F910F900BBE0F900FBE0F901F90189565
S11358B01F920F920FB60F9211240BB60F922F93D3
S11358C03F934F935F936F937F938F939F93AF9384
S11358D0BF93EF93FF93E0919E23F0919F23309722
S11358E029F080919424909195241995FF91EF913A
S11358F0BF91AF919F918F917F916F915F914F91E4
S11359003F912F910F900BBE0F900FBE0F901F90E1
S113591018951F920F920FB60F9211240BB60F9287
S11359202F933F934F935F936F937F938F939F93A3
S1135930AF93BF93EF93FF93E091A023F091A12342
S1135940309729F080919624909197241995FF918E
S1135950EF91BF91AF919F918F917F916F915F91E3
S11359604F913F912F910F900BBE0F900FBE0F9050
S11359701F9018951F920F920FB60F9211240BB619
S11359800F922F933F934F935F936F937F938F93D4
S11359909F93AF93BF93EF93FF93E091A223F09172
S11359A0A323309729F080919824909199241995F4
S11359B0FF91EF91BF91AF919F918F917F916F91E3
S11359C05F914F913F912F910F900BBE0F900FBE9F
S11359D00F901F9018951F920F920FB60F921124DB
S11359E00BB60F922F933F934F935F936F937F93D5
S11359F08F939F93AF93BF93EF93FF93E091A4236F
S1135A00F091A523309729F080919A2490919B24BA
S1135A101995FF91EF91BF91AF919F918F917F91D4
S1135A206F915F914F913F912F910F900BBE0F900B
S1135A300FBE0F901F9018951F920F920FB60F92E2
S1135A4011240BB60F922F933F934F935F936F9351
S1135A507F938F939F93AF93BF93EF93FF93E091C3
S1135A60A623F091A723309729F080919C2490914C
S1135A709D241995FF91EF91BF91AF919F918F91C3
S1135A807F916F915F914F913F912F910F900BBE3A
S1135A900F900FBE0F901F9018951F920F920FB684
S1135AA00F9211240BB60F922F933F934F935F9352
S1135AB06F937F938F939F93AF93BF93EF93FF93D2
S1135AC0E091A823F091A923309729F080919E2496
S1135AD090919F241995FF91EF91BF91AF919F9160
S1135AE08F917F916F915F914F913F912F910F9083
S1135AF00BBE0F900FBE0F901F9018951F920F9220
S1135B000FB60F9211240BB60F922F933F934F931E
S1135B105F936F937F938F939F93AF93BF93EF9311
S1135B20FF93E091B423F091B523309729F080914D
S1135B30AA249091AB241995FF91EF91BF91AF9155
S1135B409F918F917F916F915F914F913F912F9191
S1135B500F900BBE0F900FBE0F901F9018951F92C1
S1135B600F920FB60F9211240BB60F922F933F93FF
S1135B704F935F936F937F938F939F93AF93BF9351
S1135B80EF93FF93E091B623F091B723309729F078
S1135B908091AC249091AD241995FF91EF91BF9120
S1135BA0AF919F918F917F916F915F914F913F91B1
S1135BB02F910F900BBE0F900FBE0F901F90189552
S1135BC01F920F920FB60F9211240BB60F922F93C0
S1135BD03F934F935F936F937F938F939F93AF9371
S1135BE0BF93EF93FF93E091B823F091B9233097DB
S1135BF029F08091AE249091AF241995FF91EF91F3
S1135C00BF91AF919F918F917F916F915F914F91D0
S1135C103F912F910F900BBE0F900FBE0F901F90CE
S1135C2018950E941037FDCF81E296E20E94F81980
S1135C308EE196E20E947C388BE196E20E94A73ABC
S1135C4088E196E20E94883B85E196E20E942B3926
S1135C5082E196E20E94FC3980E196E20E940335DB
S1135C6088E096E20E94C0028BEE95E20E94FC312D
S1135C7081EE95E20E94343680EE95E20E9443372D
S1135C808AEB94E20E946B0586EB94E20E94253530
S1135C90089586EB94E20E9426358AEB94E20E94F2
S1135CA0710580EE95E20E94443781EE95E20E94F0
S1135CB035368BEE95E20E94733288E096E20E94BC
S1135CC0C10280E196E20E940F3582E196E20E94D1
S1135CD0083A85E196E20E94373988E196E20E940B
S1135CE0943B8BE196E20E94B33A8EE196E20E94E5
