:100000000C948D020C9431110C9462110C94931188
:100010000C94C4110C94F5110C9426120C945712E4
:100020000C9488120C94B9120C94EA120C941B13C1
:100030000C944C130C947D130C94AE130C94DF139E
:100040000C9410140C9441140C9472140C94A3147A
:100050000C94D4140C9405150C9436150C94671557
:100060000C9498150C94C9150C94FA150C942B1635
:100070000C945C160C948D160C94BE160C94EF1612
:100080000C9420170C9451170C9482170C94B317EE
:100090000C94E4170C9415180C9446180C947718CB
:1000A0000C94A8180C94D9180C940A190C943B19A8
:1000B0000C946C190C949D190C94CE190C94FF1986
:1000C0000C94301A0C94611A0C94921A0C94C31A62
:1000D0000C94F41A0C94251B0C94561B0C94871B3F
:1000E0000C94B81B0C94E91B0C941A1C0C944B1C1C
:1000F0000C947C1C0C94AD1C0C94DE1C0C940F1DF9
:100100000C94401D0C94711D0C94A21D0C94D31DD5
:100110000C94041E0C94351E0C94661E0C94971EB1
:100120000C94C81E0C94F91E0C942A1F0C94BE0249
:100130000C94BE020C945B1F0C948C1F0C94BD1F7E
:100140000C94EE1F0C941F200C9450200C948120D2
:100150000C94B2200C94E3200C9414210C944521AF
:100160000C9476210C94A7210C94D8210C9409228C
:100170000C943A220C946B220C94BE020C94BE0296
:100180000C94BE020C94BE020C94BE020C94BE02EF
:100190000C94BE020C94BE020C94BE020C94BE02DF
:1001A0000C949C220C94CD220C94BE020C94BE02A2
:1001B0000C94FE220C942F230C9460230C94912316
:1001C0000C94C2230C94F3230C94BE020C94BE0234
:1001D0000C94BE020C94BE020C94BE020C94242417
:1001E0000C9455240C9486240C94BE020C94BE02EC
:1001F0000C94BE020C94BE020C94BE02D5035704AC
:1002000057045704570457045704DA0335045704B6
:10021000E1035704E8035704EF035704F6035704B8
:100220005704570457045704FD0304040B04120435
:1002300027045704190457042E045704570457047D
:10024000570457045704200457044A043C04430449
:100250005704570457045704570451047B0481047E
:1002600087048D04930499049F04A5041C05B3041A
:10027000B904BF04C504CB04D104D704DD04E304EE
:10028000BD27BD27C527CD27D42723282A285628B0
:100290005628552855280C9419040C9435040C94B0
:1002A000E7260C94E5290C94572E0C943F2E0C94C1
:1002B000D72D0C94FD2E0C94F72F0C94C02E0C947B
:1002C000CD270C94F22F0C94AE2E0C94062A0C948D
:1002D000D62C0C9487040C9480280C94FC2F0C943E
:1002E0005D260C9459280C94122F0C9499290C9487
:1002F0008D040C944D2E0C9420040C944A040C9400
:10030000962D0C940A2F0C94782E0C949D2D0C9401
:10031000DA290C94BF040C9444300C94EC290C940E
:100320009C290C9493040C94C02C0C94D1040C9430
:10033000E32F0C940F2E0C9402270C94ED2F0C94A9
:100340009C2E0C94612E0C945C2E0C94952F0C9486
:1003500011270C94A5040C94462E0C9481040C9443
:10036000FD290C944B2F0C9458040C947B040C9492
:100370002F2F0C940B040C94E92D0C94C4260C9490
:10038000CC2C0C94C5270C94A7080C94602D0C94CD
:1003900043040C94D7040C94BA240C945D100C9470
:1003A0001C2F0C94C72C0C94D5030C9451060C9460
:1003B00032300C94662E0C94E62E0C940E300C9475
:1003C000D4270C94522E0C94892C0C94282D0C9428
:1003D00056300C9455280C94772D0C94A42C0C9426
:1003E000D22F0C94B3040C94DD040C943C040C94B4
:1003F000BD270C94DA030C942E040C94E3040C94A3
:1004000020300C946F2F0C9499040C9427040C94B6
:100410003A2D0C94B0080C94CB2F0C94B02F0C9464
:1004200020270C942A2E0C94E82F0C948A2E0C94DE
:100430000F2A0C94232F0C94B7030C94392F0C948F
:10044000B7240C9404040C947C260C94B32D0C94C7
:10045000BD2F0C94A42D0C942A2F0C94DB2C0C94FF
:100460004E060C94B92C0C94B12C0C9456060C949A
:10047000C5040C94E5280C9456280C9457040C944D
:100480009F040C9451040C94D7290C94C52D0C9402
:1004900019110C9423280C942E0A0C941C050C940E
:1004A000FD030C94042D0C94342F0C94DA2F0C942F
:1004B000D12C0C94A92D0C94C40F0C948C2D0C945D
:1004C0002A280C94F22C0C94F4290C94CB040C9450
:1004D000AE2D0C94372E0C94162D0C94B6030C9460
:1004E000842D0C94E02C0C94EF030C94DD290C94D7
:1004F000E7240C94E1030C94B9040C945D2F0C9444
:10050000C52F0C94F6030C942C260C9412040C9416
:10051000E803A708BA24B008E72411241FBECFEFD0
:10052000CDBFDFE3DEBF00E00CBF12E2A0E0B0E22F
:10053000EEEAF7E600E00BBF02C007900D92AE3A7C
:10054000B107D9F725E2AEEAB2E201C01D92A636A4
:10055000B207E1F712E0CBE8D2E000E006C0219755
:100560000109802FFE010E942632C938D10780E0A0
:100570000807A9F70E94B9250C94C5330C94000014
:1005800008950895FC0162837383942F852F8483DB
:100590009583468357831082118208958F929F928C
:1005A000AF92BF92EF92FF920F931F93CF93DF937F
:1005B000CDB7DEB72A97CDBFDEBF7C018AE5898340
:1005C00080E58A83852E9924AA24BB24B22FAA27EA
:1005D0009927882788299929AA29BB2949015A01DD
:1005E0008824AA24BB24BA2CA92C982C88248829D6
:1005F0009929AA29BB2949015A0188249924BB2495
:10060000892C9A2CAB2CBB2488299929AA29BB298F
:100610008B839C83AD83BE837627672776276F8382
:10062000788710270127102709871A872AE0AE014B
:100630004F5F5F4F66E5F701828193810E940E292B
:10064000F701828193810E944B292A96CDBFDEBF9C
:10065000DF91CF911F910F91FF90EF90BF90AF90DE
:100660009F908F9008958F929F92AF92BF92EF923A
:10067000FF920F931F93CF93DF93CDB7DEB72A97E7
:10068000CDBFDEBF7C018AE5898380EA8A83852E1F
:100690009924AA24BB24B22FAA279927882788291E
:1006A0009929AA29BB2949015A018824AA24BB24D3
:1006B000BA2CA92C982C882488299929AA29BB29E5
:1006C00049015A0188249924BB24892C9A2CAB2CEB
:1006D000BB2488299929AA29BB298B839C83AD83B4
:1006E000BE837627672776276F83788710270127B1
:1006F000102709871A872AE0AE014F5F5F4F66E532
:10070000F701828193810E940E29F70182819381F2
:100710000E944B292A96CDBFDEBFDF91CF911F915A
:100720000F91FF90EF90BF90AF909F908F900895A2
:100730000F931F93CF93DF931F92CDB7DEB78C013A
:10074000198221E0AE014F5F5F4F66E5FC018281B7
:1007500093810E940E29F801828193810E944B2986
:100760000F90DF91CF911F910F9108950895DC01B3
:10077000633031F4FA0181811F968C931F9706C074
:10078000663521F4FA0180818093AF221F964C9147
:100790001F9750E04033510508F089C0FA018827BF
:1007A000E250FF4F8F4F0C9426321C961D921C92E4
:1007B0001D97089582E090E01C968D939C931D9761
:1007C000089584E090E01C968D939C931D97089566
:1007D00088E090E01C968D939C931D97089580E18E
:1007E00090E01C968D939C931D97089580E290E075
:1007F0001C968D939C931D97089580E093E01C9622
:100800008D939C931D97089580E093E01C968D93A3
:100810009C931D97089580E092E01C968D939C9385
:100820001D97089580E091E01C968D939C931D97F1
:10083000089580E090E21C968D939C931D970895F7
:1008400080E090E31C968D939C931D97089580E023
:1008500090E11C968D939C931D97089580E090E401
:100860001C968D939C931D97089580E095E01C96AF
:100870008D939C931D97089580E096E01C968D9330
:100880009C931D97089580E097E01C968D939C9310
:100890001D97089580E490E01C968D939C931D977E
:1008A000089580E094E01C968D939C931D97089585
:1008B000CF92DF92EF92FF920F931F93CF93DF932C
:1008C0008C01EB017A016901FA01808191810E941A
:1008D00096109C01F2E0CF16D10409F07AC0FE0117
:1008E0003197E231F10508F0A7C08827E25DFE4F9D
:1008F0008F4F0C942632F801EF5BFF4F208331833A
:100900009BC0F801ED5BFF4F2083318395C0F80158
:10091000EB5BFF4F208331838FC0F801E95BFF4F12
:100920002083318389C0F801E75BFF4F2083318347
:1009300083C0F801E55BFF4F208331837DC0F80160
:10094000E35BFF4F2083318377C0F70160817181C2
:10095000828193810E949A10F801FD9660837183D1
:100960008283938369C0F801ED5AFF4F208331835E
:1009700063C0F801EB5AFF4F208331835DC0F8015B
:10098000E95AFF4F2083318357C0F801E75AFF4FE0
:100990002083318351C0F801E55AFF4F2083318312
:1009A0004BC0F801E35AFF4F2083318345C0F80163
:1009B000E15AFF4F208331833FC0F801EF59FF4FC9
:1009C0002083318339C0F801ED59FF4F20833183F3
:1009D00033C0C130D10551F420E030E0A601B701A9
:1009E000C8018F5B9F4F0E94601026C0C530D105A3
:1009F00049F420E030E0A601B701C8018F960E94BB
:100A000060101AC02297C1F4F8018685863090F4F0
:100A100090E09C01220F331F820F931F880F991FB4
:100A2000479620E030E0A601B701800F911F0E9499
:100A3000601002C00E94C22BDF91CF911F910F91D5
:100A4000FF90EF90DF90CF90089528E631E2FC010F
:100A500020833183089528E631E2FC01208331832D
:100A60000E94102708954F925F926F927F928F920B
:100A70009F92AF92BF92CF92DF92EF92FF920F932D
:100A80001F93CF93DF9300D000D0CDB7DEB77C01AA
:100A90008B01FB018080918088EE93E0B4010E947D
:100AA000BD315B0122813381A8EEB3E00E942E327A
:100AB000950140E050E00E94E53129013A01F8013A
:100AC000C480D5808AE698E1B4010E94BD318B01D3
:100AD000000F111F660F771F660F771F660F771FB6
:100AE000060F171FF70105AB16ABD801A301920142
:100AF0000E943D3228EE33E040E050E00E94E531B4
:100B0000021B130BF70107AB10AFA1AEB2AE88EC1E
:100B10008C9D90018D9D300D11243695279536952D
:100B20002795ABE7B4E10E942E328C01169507950C
:100B300009831A839601A8ECB0E00E942E329B0133
:100B4000AC01C301B2010E94AD3120EA36E841E0B8
:100B500050E00E94E531122F822F932F8B839C83CC
:100B6000C301B2012AE030E040E050E00E94E531EC
:100B7000622F822F932F8D839E83202F3A81412FC6
:100B80005C817E8180E090E02696CDBFDEBFDF9164
:100B9000CF911F910F91FF90EF90DF90CF90BF907A
:100BA000AF909F908F907F906F905F904F9008953F
:100BB000CF93DF93EC01CB58DF4F888199810E945E
:100BC0006229888199810E944B29888199810E949C
:100BD000E828DF91CF910895CF93DF93EC01CB58B4
:100BE000DF4F888199810E941D29888199810E9407
:100BF0004B29DF91CF9108950F931F93CF93DF93EC
:100C00001F921F92CDB7DEB78C01CB010E949610C8
:100C100089839A830B581F4F22E0AE014F5F5F4FCD
:100C200063E0F801808191810E940E29F8018081A2
:100C300091810E944B290F900F90DF91CF911F91CE
:100C40000F910895FC01FD9640815181628173816D
:100C50004F5F5F4F6F4F7F4F40835183628373833A
:100C6000FC0141AD52AD4536510550F020E042E364
:100C700050E064EF71E081E295E20E942C2C09C003
:100C80005695479520E064EF71E081E295E20E947D
:100C90002C2C81E295E20E94602C08950E9422068D
:100CA000089582E295E20E94AA2B089582E295E2DD
:100CB0000E94A62B08950F931F93CF93DF93EC010F
:100CC0001E86FC01EF5BFF4F10821182329683E09B
:100CD00090E0808391836A30710570F481E090E048
:100CE0007296808391838CE390E08D8B9E8B81E65E
:100CF00090E08B8B9C8B5BC06431710580F482E04B
:100D000090E0FE01EB5AFF4F808391838CE390E0EB
:100D10008D8B9E8B81E690E08B8B9C8B48C06332E1
:100D2000710580F483E090E0FE01EB5AFF4F808371
:100D300091838CE390E08D8B9E8B81E690E08B8B92
:100D40009C8B35C06133710580F484E090E0FE0136
:100D5000EB5AFF4F8083918384E690E08D8B9E8BCE
:100D600081E690E08B8B9C8B22C06834710580F407
:100D700085E090E0FE01EB5AFF4F8083918384E68B
:100D800090E08D8B9E8B8AE590E08B8B9C8B0FC0C7
:100D900086E090E0FE01EB5AFF4F8083918384E66A
:100DA00090E08D8B9E8B87E590E08B8B9C8BFE017A
:100DB000E95BFF4F84E690E0808391838D899E8973
:100DC0003297808391838E01075B1F4F8E8590E061
:100DD000BC01660F771F680F791F660F771F695E6A
:100DE0007F4F6C0F7D1FCE010E943305F8012083D9
:100DF000318342835383648375838E8590E0FC0145
:100E0000EE0FFF1FE80FF91FEE0FFF1FEC0FFD1F86
:100E1000838D948D8BAF9CAFDF91CF911F910F91FC
:100E200008950F931F93CF93DF93EC011E86FC016F
:100E3000EF5BFF4F10821182329683E090E0808357
:100E400091837296608371836330710591F138F4F8
:100E50006130710571F062307105D9F069C065309B
:100E6000710509F446C0A8F16630710509F451C056
:100E70005FC085E090E0FE01ED5AFF4F80839183D3
:100E80008CE390E08D8B9E8B81E690E08B8B9C8B2E
:100E90004FC08EE090E0FE01ED5AFF4F80839183BA
:100EA0008CE390E08D8B9E8B81E690E08B8B9C8B0E
:100EB0003FC08BE190E0FE01ED5AFF4F80839183AC
:100EC0008CE390E08D8B9E8B81E690E08B8B9C8BEE
:100ED0002FC089E290E0FE01ED5AFF4F808391839D
:100EE00084E690E08D8B9E8B81E690E08B8B9C8BD3
:100EF0001FC08DE390E0FE01ED5AFF4F8083918388
:100F000084E690E08D8B9E8B8AE590E08B8B9C8BAA
:100F10000FC085E590E0FE01ED5AFF4F808391837D
:100F200084E690E08D8B9E8B87E590E08B8B9C8B8D
:100F3000FE01E95BFF4F84E690E0808391838D8919
:100F40009E893297808391838E01075B1F4FBE017C
:100F5000695E7F4FCE010E943305F8012083318303
:100F600042835383648375838E8590E0FC01EE0F8A
:100F7000FF1FE80FF91FEE0FFF1FEC0FFD1F838D02
:100F8000948D8BAF9CAFDF91CF911F910F910895FE
:100F9000AF92BF92CF92DF92EF92FF920F931F9387
:100FA000CF93DF93EC018B017A012230B1F018F47A
:100FB000213031F058C0233039F12430E9F153C0E9
:100FC000DB018D919C911197019709F44CC081E050
:100FD00090E08D939C93898B46C0FB018081918129
:100FE000049730F083E090E08083918381E0898BE7
:100FF000D8018D919C911197892BA9F581E090E002
:101000008D939C93898B2FC0FB01808191810797E1
:1010100030F086E090E08083918381E0898BD80175
:101020008D919C9111970497F0F484E090E08D935A
:101030009C9381E0898B17C0FB01808191810B9784
:1010400030F08AE090E08083918381E0898BD80141
:101050008D919C911197079730F487E090E08D93E4
:101060009C9381E0898BF80120813181220F331F0D
:10107000F901E25FFE4DC080D180F901E850FF4DDB
:101080000190F081E02DCF018C199D09D901AE515D
:10109000BF4D6D917C91615071090E94BD31D701A6
:1010A0008D919C9111978C159D0520F4CD92DC9229
:1010B00081E0898BD7018D919C911197E817F907F1
:1010C00020F4ED93FC9381E0898BD801ED91FC91A4
:1010D000EE0FFF1FEE51FF4DA080B180B1E0AB1AC3
:1010E000B108F701808191818C199D090E94BD3161
:1010F00080E090E00E949110B5010E948C10D80110
:101100004D915C916BE0649F9001659F300D1124BF
:10111000820F931FFC01EE0FFF1FE051F04E208164
:101120003181ADECBCEC0E942E3296958795969558
:1011300087958B8B9C8B8989DF91CF911F910F9124
:10114000FF90EF90DF90CF90BF90AF90089583EB2A
:1011500092E20E944C2D80EB92E20E94683008954A
:1011600080EB92E20E94743083EB92E20E94582D51
:101170000895AF92BF92CF92DF92EF92FF920F93BA
:101180001F93CF93DF93EC01FC01EB58FF4F60837B
:10119000718346E060E083EB92E20E94892C68EA6A
:1011A00071E683EB92E20E94C72C21E0AE0164EC71
:1011B0007FE083EB92E20E94E02C1F86198A1A8A54
:1011C0006E012DE6C20ED11CF601108211827E0145
:1011D000FFE6EF0EF11C8AE090E0F7018083918337
:1011E000349710821182F601208131813697208355
:1011F0003183F701208131813697208331833A96FC
:10120000108211828FA798AB88E290E089AB9AABED
:1012100084E690E08BAB9CAB25E030E029A73AA7B1
:1012200020E530E02BA73CA78DA79EA722E030E069
:101230002BA33CA328E730E02DA33EA38FA398A7C0
:1012400021E030E02D8F3E8F8F8F98A389A39AA342
:1012500084E08E8781E090E00E947E335E01FDE3B2
:10126000AF0EB11CF5016083718382839383349642
:1012700084E090E080839183BE01615D7F4FDE0159
:10128000AD5BBF4F86E0FB0101900D928A95E1F7BF
:101290008E01075B1F4FCE010E943305F8012083AA
:1012A00031834283538364837583F6018081918106
:1012B000709780839183F7018081918170978083FB
:1012C0009183F50160817181828193810E949A10DE
:1012D000FE01E15BFF4F60837183828393833496C9
:1012E0001082118232961082118232968091A4244B
:1012F0009091A52480839183329683E090E080834F
:101300009183329610821182369610821182329623
:101310008DE090E08083918347E063E080EB92E290
:101320000E94952F6DA97EA980EB92E20E94E32F87
:101330006FA978AD80EB92E20E94E82F6FA978AD9B
:1013400080EB92E20E94ED2F21E0AE016EE476E0A8
:1013500080EB92E20E94FC2F21E0AE016EE27AE087
:1013600080EB92E20E94203060E180EB92E20E94EA
:10137000C52F60E280EB92E20E94C52F60E180EB16
:1013800092E20E94D22F60E280EB92E20E94D22F82
:10139000DF91CF911F910F91FF90EF90DF90CF9051
:1013A000BF90AF900895EF92FF920F931F93CF934A
:1013B000DF931F921F92CDB7DEB77C0183E090E0F0
:1013C0000E94961089839A8387010B581F4F22E051
:1013D000AE014F5F5F4F63E0F801808191810E9411
:1013E0000E29F801808191810E944B29A7014F5B52
:1013F0005F4F26E230E061E070E0F801808191818A
:101400000E941D29F801808191810E944B2968EA80
:1014100071E683EB92E20E94A42C84E090E0F70155
:10142000848795870F900F90DF91CF911F910F9137
:10143000FF90EF900895FC018685813071F480EB78
:1014400092E20E94BD2F60E180EB92E20E94D22FD7
:1014500060E280EB92E20E94D22F08950E941B0A64
:101460000895AF92BF92CF92DF92EF92FF920F93C7
:101470001F93CF93DF9300D000D0CDB7DEB77C01B0
:101480008C010B581F4F42E063E0F801808191818D
:101490000E945C29F801808191810E944B29F8010A
:1014A000808191810E94E828FFEF29EF80E0F150D0
:1014B00020408040E1F700C00000F7018485958559
:1014C0009F70892B09F441C022E030E044EA54E2E5
:1014D0006CE070E0C7010E94EC05F701EF58FF4F88
:1014E00080819181449728F481E090E03C9780834B
:1014F0009183F701EF58FF4F80819181449728F045
:1015000080819181899708F409C4F701EF58FF4F52
:1015100080819181899728F083E090E03C978083D7
:10152000918322E030E0A7014B595F4F63E170E007
:10153000C7010E94EC0522E030E0A7014F585F4F41
:101540006EE070E0C7010E94EC05F7018485958587
:1015500088739927892B79F08091A4249091A524F0
:101560008D32914044F069E270E0C7010E94FC05B1
:10157000F7018785808BF701848595858115F2E0D9
:101580009F0709F4B2C21CF58830910509F4BCC16B
:1015900064F48230910509F44DC18430910509F459
:1015A00051C0892B09F099C342C08032910509F4DA
:1015B000BCC124F4409709F4B8C18FC380349105AD
:1015C00009F46DC18115914009F453C286C3811598
:1015D000F7E09F0709F427C2ACF48115E4E09E0709
:1015E00009F4EEC22CF48115934009F4B4C275C31A
:1015F0008115E5E09E0709F42DC28115964009F496
:1016000000C26BC3811520E2920709F417C32CF4C2
:101610008115904109F4DAC260C3811520E3920775
:1016200009F439C38115904409F452C356C363E0E9
:1016300070E0C7010E94FC0581E090E0F70184871B
:1016400095874FC3F701ED5AFF4FA080B180870106
:101650000B5A1F4FF801C080D18046E050E062E095
:1016600070E0C7010E94D805FFEF29EF80E0F1503C
:1016700020408040E1F700C0000042E050E06DE013
:1016800070E0C7010E94D8059FEFE9EFF0E09150AC
:10169000E040F040E1F700C0000042E050E061E0CF
:1016A00070E0C7010E94D8052FEF89EF90E021502C
:1016B00080409040E1F700C0000042E050E06AE066
:1016C00070E0C7010E94D805EFEFF9EF20E0E1508C
:1016D000F0402040E1F700C0000042E050E06BE045
:1016E00070E0C7010E94D8058FEF99EFE0E08150CC
:1016F0009040E040E1F700C00000F701FD966081F6
:101700007181828193810E949A10F701E15BFF4F02
:1017100060837183828393838091A4249091A52414
:101720003896808391837A968081918176978083A1
:101730009183F801608171816C157D0539F0C701D5
:101740000E94110781E0F701818B4FC0F701ED5A2C
:10175000FF4F608171816A157B0539F0C7010E94D6
:101760005B0681E0F701818B40C0F701EF5BFF4F23
:101770008081F7019685981719F091E0918B868703
:10178000F701868590E0BC01660F771F680F791F0F
:10179000660F771F695E7F4F6E0D7F1D86E0FB0130
:1017A000D701AD5BBF4F01900D928A95E1F787019C
:1017B000075B1F4FC7010E943305F8012083318367
:1017C0004283538364837583F701868590E0FC012F
:1017D000EE0FFF1FE80FF91FEE0FFF1FEE0DFF1DAD
:1017E000838D948DF70183AF94AFF7012685A70110
:1017F0004B5B5F4FB7016D5B7F4FC7010E94C8070E
:10180000F701818B4389548983AD94AD489F900142
:10181000499F300D589F300D1124369527953695E8
:101820002795ABE7B4E10E942E329695879583AF5A
:1018300094AF57C2F70182898823B1F0E959FF4F6D
:101840008081918189839A833296808191818B8373
:101850009C8324E030E0AE014F5F5F4F6FE070E0AB
:10186000C7010E94EC053DC2F701868590E0AC01FE
:10187000440F551F480F591F440F551F495E5F4FB6
:101880004E0D5F1D26E030E062E070E0C7010E946F
:10189000EC056CE070E0C7010E94FC0522C280915B
:1018A000A4249091A5246AE070E00E94D13169835C
:1018B0007A838B839C8324E030E0AE014F5F5F4FDF
:1018C0006FE070E0C7010E94EC05F701E359FF4F9C
:1018D0008081918136978083918338968081918130
:1018E00036978083918381E0F701828B8091A424D5
:1018F0009091A524823291400CF0F3C167E070E032
:10190000C7010E94FC05EDC18091A4249091A524FB
:101910008D3291400CF4E5C169E270E0C7010E948C
:10192000FC05F7018785808BDCC1F70183AD94ADA1
:10193000AC015695542F442757954795982F8827E3
:10194000990F480F591F9A01A1E1B4E00E942E326D
:10195000481B590B56954795840F951F969587956B
:10196000929582958F7089279F708927880F991F7C
:10197000880F991F8D839E8342E050E0BE016B5F0C
:101980007F4F8CE595E20E94E11082E295E20E9491
:10199000092C811110C0F701848595858097D1F0BD
:1019A00060E170E0C7010E94FC0580E290E0F70171
:1019B000848795870FC0F70184859585409751F0FE
:1019C0006EE070E0C7010E94FC0580E190E0F70145
:1019D00084879587F701FD9660817181828193816B
:1019E0000E949A1069837A838B839C8324E030E081
:1019F000AE014F5F5F4F68E070E0C7010E94EC05E9
:101A000070C182E295E20E94BE2BF701EF58FF4FB2
:101A100080819181CD9708F464C169E170E0C701CC
:101A20000E94FC055EC182E295E20E94BE2BF70196
:101A3000128A8091A4249091A524823291400CF0C6
:101A400050C181E0F701828B608970E0C7010E947C
:101A5000FC0547C182E295E20E94BE2B8091680698
:101A600085FF3FC1F701608970E0C7010E94FC0556
:101A700038C182E295E20E94BA2BF701E75AFF4F84
:101A8000808191812CEC289FB001299F700D112439
:101A900083E595E20E942F2F60E074E083E595E2F4
:101AA0000E94FD2E81E0F701828BE359FF4F808178
:101AB0009181369780839183389680819181369782
:101AC000808391838091A4249091A52483329140B6
:101AD00034F067E270E0C7010E94FC0502C167E0D4
:101AE00070E0C7010E94FC05FCC0F70183AD94AD16
:101AF000AC015695542F442757954795982F882722
:101B0000990F480F591F9A01A1E1B4E00E942E32AB
:101B1000481B590B56954795840F951F96958795A9
:101B2000929582958F7089279F708927880F991FBA
:101B3000880F991F89839A8342E050E0BE016F5F4E
:101B40007F4F8CE595E20E94E1106EE070E0C701E6
:101B50000E94FC05C6C06AE070E0C7010E94FC0557
:101B600080EB92E20E94BD2F60E180EB92E20E9446
:101B7000D22F60E280EB92E20E94D22F82E295E2C5
:101B80000E94BE2B83E595E20E940A2F82E295E235
:101B90000E94A62BF701FD964081518162817381DD
:101BA00081E090E00E94853319821A8242E050E081
:101BB000BE016F5F7F4F8CE595E20E94E11091C0FE
:101BC0006AE070E0C7010E94FC058BC042E050E073
:101BD00061E170E0C7010E94D805FFEF21EE84E0CB
:101BE000F15020408040E1F700C0000042E050E0AA
:101BF00062E170E0C7010E94D8059FEFE1EEF4E0DA
:101C00009150E040F040E1F700C00000F701EF59CB
:101C1000FF4F20813181C901A0E0B0E09051AF4F6A
:101C2000BF4F2227382F492F5A2F00E01CE060E0D9
:101C300071E089E495E20E94330353C02FEF87EAF5
:101C400091E6215080409040E1F700C0000042E062
:101C500050E062E170E0C7010E94D805F701ED593C
:101C6000FF4F20813181329780819181280F391F68
:101C7000C901A0E0B0E09051AF4FBF4F2227382FED
:101C8000492F5A2F00E011E060E07DE089E495E201
:101C90000E94330326C0F701ED59FF4F20813181A7
:101CA000329780819181280F391FC901A0E0B0E0EF
:101CB0009051AF4FBF4F2227382F492F5A2F00E0A6
:101CC00011E060E07DE089E495E20E94CE0209C067
:101CD00089E495E20E94980304C089E495E20E9499
:101CE00098038091680686FD08C0F7018785808B80
:101CF00068E070E0C7010E94FC05F7018189882334
:101D0000A9F0A7014F5B5F4F26E230E061E070E091
:101D1000C7010E94EC05F701118A08C082E090E03B
:101D2000F701EB59FF4F80839183EFCB2696CDBF10
:101D3000DEBFDF91CF911F910F91FF90EF90DF9069
:101D4000CF90BF90AF900895CF93DF93EC01FC014B
:101D5000ED58FF4F80819181892B29F080819181FD
:101D60000197808391838A89882309F4A8C0FE01A2
:101D7000E559FF4F80819181892B09F098C08091AE
:101D80006008909161089C01220F331F880F991FF2
:101D9000880F991F880F991F820F931F969587951B
:101DA000969587959695879536968083918386E557
:101DB00095E20E948C2DFE01E759FF4F80819181B1
:101DC000892B09F04CC0329780819181892BD1F504
:101DD0008C859D850297A1F522E044E650E065E000
:101DE00071E081E295E20E942C2C81E295E20E9452
:101DF000602C22E044E650E066E271E081E295E288
:101E00000E942C2C81E295E20E94602C22E044E6A4
:101E100050E069E471E081E295E20E942C2C81E2BD
:101E200095E20E94602C22E044E650E06DE571E00E
:101E300081E295E20E942C2C81E295E20E94602CC6
:101E40001A8A9FC08CE390E0FE01E759FF4F808320
:101E5000918332978081918101978083918384E679
:101E600090E0FE01E559FF4F808391833297808196
:101E70009181019780839183329780819181892B11
:101E800009F04CC03296808191810A9708F046C0D3
:101E90008C859D85029709F041C04EC0FE01E7592F
:101EA000FF4F80819181059708F44FC05CC0C559F0
:101EB000DF4F888199810A978883998362C0FE01E8
:101EC000E559FF4F80819181892B01F584E690E0EF
:101ED0008083918380916008909161089C01220F1A
:101EE000331F880F991F880F991F880F991F820F22
:101EF000931F96958795969587959695879536968F
:101F00008083918386E595E20E948C2DC559DF4F31
:101F1000888199810A978883998333C022E049E1B7
:101F200050E068EE73E081E295E20E942C2C81E2A1
:101F300095E20E94602CBBCFFE01E959FF4F8081E2
:101F40009181892B09F4AACF0EC022E044E650E02B
:101F500068EE73E081E295E20E942C2C81E295E22A
:101F60000E94602CA4CF22E042E350E068EE73E0D0
:101F700081E295E20E942C2C81E295E20E94602C85
:101F800096CFDF91CF9108950E94A40E0895CF932C
:101F9000DF93FC01248535852031310521F0203285
:101FA000310509F087C0EC018091480680FD6CC0C6
:101FB0008091AE2281117EC0FE01ED58FF4F8081DD
:101FC0009181892B09F471C075C08AE090E0FE010F
:101FD000ED58FF4F80839183F69780819181A28194
:101FE000B3810196A11DB11D80839183A283B38328
:101FF00049AD5AAD4536510550F020E042E350E07E
:1020000064EF71E081E295E20E942C2C09C05695A4
:10201000479520E064EF71E081E295E20E942C2C6C
:1020200081E295E20E94602C8FA998AD009729F07B
:1020300001978093200B9093210B6FA978AD80EBD3
:1020400092E20E94E82F6FA978AD80EB92E20E94A5
:10205000ED2F6DA97EA980EB92E20E94B02F8E85B4
:10206000813049F4FFEF27E883E1F15020408040C0
:10207000E1F700C00000E0E4F6E084858E7F84870D
:1020800081E08093AE2216C01092AE2280EB92E2E5
:102090000E94BD2F60E180EB92E20E94D22F60E2AD
:1020A00080EB92E20E94D22F05C08E85813009F02C
:1020B000BBCF8BCFDF91CF9108950E94C70F0895BA
:1020C000CF92DF92EF92FF920F931F93CF93DF9304
:1020D0007C018A0141155105B1F06B01C40ED51E7A
:1020E000EB01261B370BC9018C0F9D1FB8010E9405
:1020F000BD31FC0141E0E427EE0DFF1D8991808395
:10210000CC15DD0581F7DF91CF911F910F91FF90E5
:10211000EF90DF90CF9008956817790708F4CB010E
:1021200008958617970708F4CB0108959827892703
:10213000982708959B01BC01C90108950895089549
:10214000EF920F931F93CF93DF93EC01E0E8F6E05B
:1021500090EB918380EC848B858B878B95836111C9
:1021600002C080E401C080E5011102C030E001C07E
:1021700030E8411102C090E001C090E2220F220F2E
:10218000E22AE82AE32AE92A00EC1AE0F801E082D0
:1021900080E091E00E9448328883998381E0F801D1
:1021A000818389E191E18093282390932923C0932F
:1021B0001E24D0931F24DF91CF911F910F91EF9098
:1021C0000895CF93DF93EC014A835B834C835D8357
:1021D000888199810E94753380E180938606888189
:1021E00099814A815B819A01215031092A833B837D
:1021F000FC01E20FF31F80818093C30ADF91CF912E
:102200000895FC0182819381892B79F0408151816D
:1022100022813381C901019782839383FA01E80FF8
:10222000F91F80818093C30A089580E18093850619
:1022300008950E94011108952EE731E2FC012083E8
:1022400031830895089522EA31E2FC01208331832D
:102250000895089520EC31E2FC0120833183089534
:1022600008951F920F920FB60F9211240BB60F9282
:102270002F933F934F935F936F937F938F939F938E
:10228000AF93BF93EF93FF93E091B822F091B922FF
:10229000309729F08091AE239091AF231995FF914B
:1022A000EF91BF91AF919F918F917F916F915F91CE
:1022B0004F913F912F910F900BBE0F900FBE0F903B
:1022C0001F9018951F920F920FB60F9211240BB604
:1022D0000F922F933F934F935F936F937F938F93BF
:1022E0009F93AF93BF93EF93FF93E091BA22F09146
:1022F000BB22309729F08091B0239091B12319959A
:10230000FF91EF91BF91AF919F918F917F916F91CD
:102310005F914F913F912F910F900BBE0F900FBE89
:102320000F901F9018951F920F920FB60F921124C5
:102330000BB60F922F933F934F935F936F937F93BF
:102340008F939F93AF93BF93EF93FF93E091BC2242
:10235000F091BD22309729F08091B2239091B32360
:102360001995FF91EF91BF91AF919F918F917F91BF
:102370006F915F914F913F912F910F900BBE0F90F6
:102380000FBE0F901F9018951F920F920FB60F92CD
:1023900011240BB60F922F933F934F935F936F933C
:1023A0007F938F939F93AF93BF93EF93FF93E091AE
:1023B000BE22F091BF22309729F08091B4239091F2
:1023C000B5231995FF91EF91BF91AF919F918F9197
:1023D0007F916F915F914F913F912F910F900BBE25
:1023E0000F900FBE0F901F9018951F920F920FB66F
:1023F0000F9211240BB60F922F933F934F935F933D
:102400006F937F938F939F93AF93BF93EF93FF93BC
:10241000E091C022F091C122309729F08091B6233B
:102420009091B7231995FF91EF91BF91AF919F9133
:102430008F917F916F915F914F913F912F910F906D
:102440000BBE0F900FBE0F901F9018951F920F920A
:102450000FB60F9211240BB60F922F933F934F9309
:102460005F936F937F938F939F93AF93BF93EF93FC
:10247000FF93E091C222F091C322309729F080911E
:10248000B8239091B9231995FF91EF91BF91AF9126
:102490009F918F917F916F915F914F913F912F917C
:1024A0000F900BBE0F900FBE0F901F9018951F92AC
:1024B0000F920FB60F9211240BB60F922F933F93EA
:1024C0004F935F936F937F938F939F93AF93BF933C
:1024D000EF93FF93E091C422F091C522309729F049
:1024E0008091BA239091BB231995FF91EF91BF91F1
:1024F000AF919F918F917F916F915F914F913F919C
:102500002F910F900BBE0F900FBE0F901F9018953C
:102510001F920F920FB60F9211240BB60F922F93AA
:102520003F934F935F936F937F938F939F93AF935B
:10253000BF93EF93FF93E091C622F091C7223097AB
:1025400029F08091BC239091BD231995FF91EF91C3
:10255000BF91AF919F918F917F916F915F914F91BB
:102560003F912F910F900BBE0F900FBE0F901F90B9
:1025700018951F920F920FB60F9211240BB60F925F
:102580002F933F934F935F936F937F938F939F937B
:10259000AF93BF93EF93FF93E091C822F091C922CC
:1025A000309729F08091BE239091BF231995FF9118
:1025B000EF91BF91AF919F918F917F916F915F91BB
:1025C0004F913F912F910F900BBE0F900FBE0F9028
:1025D0001F9018951F920F920FB60F9211240BB6F1
:1025E0000F922F933F934F935F936F937F938F93AC
:1025F0009F93AF93BF93EF93FF93E091CA22F09123
:10260000CB22309729F08091C0239091C123199556
:10261000FF91EF91BF91AF919F918F917F916F91BA
:102620005F914F913F912F910F900BBE0F900FBE76
:102630000F901F9018951F920F920FB60F921124B2
:102640000BB60F922F933F934F935F936F937F93AC
:102650008F939F93AF93BF93EF93FF93E091CC221F
:10266000F091CD22309729F08091C2239091C3231D
:102670001995FF91EF91BF91AF919F918F917F91AC
:102680006F915F914F913F912F910F900BBE0F90E3
:102690000FBE0F901F9018951F920F920FB60F92BA
:1026A00011240BB60F922F933F934F935F936F9329
:1026B0007F938F939F93AF93BF93EF93FF93E0919B
:1026C000CE22F091CF22309729F08091C4239091AF
:1026D000C5231995FF91EF91BF91AF919F918F9174
:1026E0007F916F915F914F913F912F910F900BBE12
:1026F0000F900FBE0F901F9018951F920F920FB65C
:102700000F9211240BB60F922F933F934F935F9329
:102710006F937F938F939F93AF93BF93EF93FF93A9
:10272000E091D022F091D122309729F08091C623F8
:102730009091C7231995FF91EF91BF91AF919F9110
:102740008F917F916F915F914F913F912F910F905A
:102750000BBE0F900FBE0F901F9018951F920F92F7
:102760000FB60F9211240BB60F922F933F934F93F6
:102770005F936F937F938F939F93AF93BF93EF93E9
:10278000FF93E091D222F091D322309729F08091EB
:10279000C8239091C9231995FF91EF91BF91AF91F3
:1027A0009F918F917F916F915F914F913F912F9169
:1027B0000F900BBE0F900FBE0F901F9018951F9299
:1027C0000F920FB60F9211240BB60F922F933F93D7
:1027D0004F935F936F937F938F939F93AF93BF9329
:1027E000EF93FF93E091D422F091D522309729F016
:1027F0008091CA239091CB231995FF91EF91BF91BE
:10280000AF919F918F917F916F915F914F913F9188
:102810002F910F900BBE0F900FBE0F901F90189529
:102820001F920F920FB60F9211240BB60F922F9397
:102830003F934F935F936F937F938F939F93AF9348
:10284000BF93EF93FF93E091D622F091D722309778
:1028500029F08091CC239091CD231995FF91EF9190
:10286000BF91AF919F918F917F916F915F914F91A8
:102870003F912F910F900BBE0F900FBE0F901F90A6
:1028800018951F920F920FB60F9211240BB60F924C
:102890002F933F934F935F936F937F938F939F9368
:1028A000AF93BF93EF93FF93E091D822F091D92299
:1028B000309729F08091CE239091CF231995FF91E5
:1028C000EF91BF91AF919F918F917F916F915F91A8
:1028D0004F913F912F910F900BBE0F900FBE0F9015
:1028E0001F9018951F920F920FB60F9211240BB6DE
:1028F0000F922F933F934F935F936F937F938F9399
:102900009F93AF93BF93EF93FF93E091DA22F091FF
:10291000DB22309729F08091D0239091D123199513
:10292000FF91EF91BF91AF919F918F917F916F91A7
:102930005F914F913F912F910F900BBE0F900FBE63
:102940000F901F9018951F920F920FB60F9211249F
:102950000BB60F922F933F934F935F936F937F9399
:102960008F939F93AF93BF93EF93FF93E091DC22FC
:10297000F091DD22309729F08091D2239091D323DA
:102980001995FF91EF91BF91AF919F918F917F9199
:102990006F915F914F913F912F910F900BBE0F90D0
:1029A0000FBE0F901F9018951F920F920FB60F92A7
:1029B00011240BB60F922F933F934F935F936F9316
:1029C0007F938F939F93AF93BF93EF93FF93E09188
:1029D000DE22F091DF22309729F08091D42390916C
:1029E000D5231995FF91EF91BF91AF919F918F9151
:1029F0007F916F915F914F913F912F910F900BBEFF
:102A00000F900FBE0F901F9018951F920F920FB648
:102A10000F9211240BB60F922F933F934F935F9316
:102A20006F937F938F939F93AF93BF93EF93FF9396
:102A3000E091E022F091E122309729F08091D623B5
:102A40009091D7231995FF91EF91BF91AF919F91ED
:102A50008F917F916F915F914F913F912F910F9047
:102A60000BBE0F900FBE0F901F9018951F920F92E4
:102A70000FB60F9211240BB60F922F933F934F93E3
:102A80005F936F937F938F939F93AF93BF93EF93D6
:102A9000FF93E091E222F091E322309729F08091B8
:102AA000D8239091D9231995FF91EF91BF91AF91C0
:102AB0009F918F917F916F915F914F913F912F9156
:102AC0000F900BBE0F900FBE0F901F9018951F9286
:102AD0000F920FB60F9211240BB60F922F933F93C4
:102AE0004F935F936F937F938F939F93AF93BF9316
:102AF000EF93FF93E091E422F091E522309729F0E3
:102B00008091DA239091DB231995FF91EF91BF918A
:102B1000AF919F918F917F916F915F914F913F9175
:102B20002F910F900BBE0F900FBE0F901F90189516
:102B30001F920F920FB60F9211240BB60F922F9384
:102B40003F934F935F936F937F938F939F93AF9335
:102B5000BF93EF93FF93E091E622F091E722309745
:102B600029F08091DC239091DD231995FF91EF915D
:102B7000BF91AF919F918F917F916F915F914F9195
:102B80003F912F910F900BBE0F900FBE0F901F9093
:102B900018951F920F920FB60F9211240BB60F9239
:102BA0002F933F934F935F936F937F938F939F9355
:102BB000AF93BF93EF93FF93E091E822F091E92266
:102BC000309729F08091DE239091DF231995FF91B2
:102BD000EF91BF91AF919F918F917F916F915F9195
:102BE0004F913F912F910F900BBE0F900FBE0F9002
:102BF0001F9018951F920F920FB60F9211240BB6CB
:102C00000F922F933F934F935F936F937F938F9385
:102C10009F93AF93BF93EF93FF93E091EA22F091DC
:102C2000EB22309729F08091E0239091E1231995D0
:102C3000FF91EF91BF91AF919F918F917F916F9194
:102C40005F914F913F912F910F900BBE0F900FBE50
:102C50000F901F9018951F920F920FB60F9211248C
:102C60000BB60F922F933F934F935F936F937F9386
:102C70008F939F93AF93BF93EF93FF93E091EC22D9
:102C8000F091ED22309729F08091E2239091E32397
:102C90001995FF91EF91BF91AF919F918F917F9186
:102CA0006F915F914F913F912F910F900BBE0F90BD
:102CB0000FBE0F901F9018951F920F920FB60F9294
:102CC00011240BB60F922F933F934F935F936F9303
:102CD0007F938F939F93AF93BF93EF93FF93E09175
:102CE000EE22F091EF22309729F08091E423909129
:102CF000E5231995FF91EF91BF91AF919F918F912E
:102D00007F916F915F914F913F912F910F900BBEEB
:102D10000F900FBE0F901F9018951F920F920FB635
:102D20000F9211240BB60F922F933F934F935F9303
:102D30006F937F938F939F93AF93BF93EF93FF9383
:102D4000E091F022F091F122309729F08091E62372
:102D50009091E7231995FF91EF91BF91AF919F91CA
:102D60008F917F916F915F914F913F912F910F9034
:102D70000BBE0F900FBE0F901F9018951F920F92D1
:102D80000FB60F9211240BB60F922F933F934F93D0
:102D90005F936F937F938F939F93AF93BF93EF93C3
:102DA000FF93E091F222F091F322309729F0809185
:102DB000E8239091E9231995FF91EF91BF91AF918D
:102DC0009F918F917F916F915F914F913F912F9143
:102DD0000F900BBE0F900FBE0F901F9018951F9273
:102DE0000F920FB60F9211240BB60F922F933F93B1
:102DF0004F935F936F937F938F939F93AF93BF9303
:102E0000EF93FF93E091F422F091F522309729F0AF
:102E10008091EA239091EB231995FF91EF91BF9157
:102E2000AF919F918F917F916F915F914F913F9162
:102E30002F910F900BBE0F900FBE0F901F90189503
:102E40001F920F920FB60F9211240BB60F922F9371
:102E50003F934F935F936F937F938F939F93AF9322
:102E6000BF93EF93FF93E091F622F091F722309712
:102E700029F08091EC239091ED231995FF91EF912A
:102E8000BF91AF919F918F917F916F915F914F9182
:102E90003F912F910F900BBE0F900FBE0F901F9080
:102EA00018951F920F920FB60F9211240BB60F9226
:102EB0002F933F934F935F936F937F938F939F9342
:102EC000AF93BF93EF93FF93E091F822F091F92233
:102ED000309729F08091EE239091EF231995FF917F
:102EE000EF91BF91AF919F918F917F916F915F9182
:102EF0004F913F912F910F900BBE0F900FBE0F90EF
:102F00001F9018951F920F920FB60F9211240BB6B7
:102F10000F922F933F934F935F936F937F938F9372
:102F20009F93AF93BF93EF93FF93E091FA22F091B9
:102F3000FB22309729F08091F0239091F12319958D
:102F4000FF91EF91BF91AF919F918F917F916F9181
:102F50005F914F913F912F910F900BBE0F900FBE3D
:102F60000F901F9018951F920F920FB60F92112479
:102F70000BB60F922F933F934F935F936F937F9373
:102F80008F939F93AF93BF93EF93FF93E091FC22B6
:102F9000F091FD22309729F08091F2239091F32354
:102FA0001995FF91EF91BF91AF919F918F917F9173
:102FB0006F915F914F913F912F910F900BBE0F90AA
:102FC0000FBE0F901F9018951F920F920FB60F9281
:102FD00011240BB60F922F933F934F935F936F93F0
:102FE0007F938F939F93AF93BF93EF93FF93E09162
:102FF000FE22F091FF22309729F08091F4239091E6
:10300000F5231995FF91EF91BF91AF919F918F910A
:103010007F916F915F914F913F912F910F900BBED8
:103020000F900FBE0F901F9018951F920F920FB622
:103030000F9211240BB60F922F933F934F935F93F0
:103040006F937F938F939F93AF93BF93EF93FF9370
:10305000E0910023F0910123309729F08091F6232D
:103060009091F7231995FF91EF91BF91AF919F91A7
:103070008F917F916F915F914F913F912F910F9021
:103080000BBE0F900FBE0F901F9018951F920F92BE
:103090000FB60F9211240BB60F922F933F934F93BD
:1030A0005F936F937F938F939F93AF93BF93EF93B0
:1030B000FF93E0910223F0910323309729F0809150
:1030C000F8239091F9231995FF91EF91BF91AF915A
:1030D0009F918F917F916F915F914F913F912F9130
:1030E0000F900BBE0F900FBE0F901F9018951F9260
:1030F0000F920FB60F9211240BB60F922F933F939E
:103100004F935F936F937F938F939F93AF93BF93EF
:10311000EF93FF93E0910423F0910523309729F07A
:103120008091FA239091FB231995FF91EF91BF9124
:10313000AF919F918F917F916F915F914F913F914F
:103140002F910F900BBE0F900FBE0F901F901895F0
:103150001F920F920FB60F9211240BB60F922F935E
:103160003F934F935F936F937F938F939F93AF930F
:10317000BF93EF93FF93E0910623F09107233097DD
:1031800029F08091FC239091FD231995FF91EF91F7
:10319000BF91AF919F918F917F916F915F914F916F
:1031A0003F912F910F900BBE0F900FBE0F901F906D
:1031B00018951F920F920FB60F9211240BB60F9213
:1031C0002F933F934F935F936F937F938F939F932F
:1031D000AF93BF93EF93FF93E0910823F0910923FE
:1031E000309729F08091FE239091FF231995FF914C
:1031F000EF91BF91AF919F918F917F916F915F916F
:103200004F913F912F910F900BBE0F900FBE0F90DB
:103210001F9018951F920F920FB60F9211240BB6A4
:103220000F922F933F934F935F936F937F938F935F
:103230009F93AF93BF93EF93FF93E0910A23F09195
:103240000B23309729F08091002490910124199547
:10325000FF91EF91BF91AF919F918F917F916F916E
:103260005F914F913F912F910F900BBE0F900FBE2A
:103270000F901F9018951F920F920FB60F92112466
:103280000BB60F922F933F934F935F936F937F9360
:103290008F939F93AF93BF93EF93FF93E0910C2392
:1032A000F0910D23309729F080910224909103240E
:1032B0001995FF91EF91BF91AF919F918F917F9160
:1032C0006F915F914F913F912F910F900BBE0F9097
:1032D0000FBE0F901F9018951F920F920FB60F926E
:1032E00011240BB60F922F933F934F935F936F93DD
:1032F0007F938F939F93AF93BF93EF93FF93E0914F
:103300000E23F0910F23309729F08091042490919F
:1033100005241995FF91EF91BF91AF919F918F91E6
:103320007F916F915F914F913F912F910F900BBEC5
:103330000F900FBE0F901F9018951F920F920FB60F
:103340000F9211240BB60F922F933F934F935F93DD
:103350006F937F938F939F93AF93BF93EF93FF935D
:10336000E0911023F0911123309729F080910624E9
:10337000909107241995FF91EF91BF91AF919F9183
:103380008F917F916F915F914F913F912F910F900E
:103390000BBE0F900FBE0F901F9018951F920F92AB
:1033A0000FB60F9211240BB60F922F933F934F93AA
:1033B0005F936F937F938F939F93AF93BF93EF939D
:1033C000FF93E0911223F0911323309729F080911D
:1033D0000824909109241995FF91EF91BF91AF9125
:1033E0009F918F917F916F915F914F913F912F911D
:1033F0000F900BBE0F900FBE0F901F9018951F924D
:103400000F920FB60F9211240BB60F922F933F938A
:103410004F935F936F937F938F939F93AF93BF93DC
:10342000EF93FF93E0911423F0911523309729F047
:1034300080910A2490910B241995FF91EF91BF91EF
:10344000AF919F918F917F916F915F914F913F913C
:103450002F910F900BBE0F900FBE0F901F901895DD
:103460001F920F920FB60F9211240BB60F922F934B
:103470003F934F935F936F937F938F939F93AF93FC
:10348000BF93EF93FF93E0911623F09117233097AA
:1034900029F080910C2490910D241995FF91EF91C2
:1034A000BF91AF919F918F917F916F915F914F915C
:1034B0003F912F910F900BBE0F900FBE0F901F905A
:1034C00018951F920F920FB60F9211240BB60F9200
:1034D0002F933F934F935F936F937F938F939F931C
:1034E000AF93BF93EF93FF93E0911823F0911923CB
:1034F000309729F080910E2490910F241995FF9117
:10350000EF91BF91AF919F918F917F916F915F915B
:103510004F913F912F910F900BBE0F900FBE0F90C8
:103520001F9018951F920F920FB60F9211240BB691
:103530000F922F933F934F935F936F937F938F934C
:103540009F93AF93BF93EF93FF93E0911A23F09172
:103550001B23309729F08091102490911124199504
:10356000FF91EF91BF91AF919F918F917F916F915B
:103570005F914F913F912F910F900BBE0F900FBE17
:103580000F901F9018951F920F920FB60F92112453
:103590000BB60F922F933F934F935F936F937F934D
:1035A0008F939F93AF93BF93EF93FF93E0911C236F
:1035B000F0911D23309729F08091122490911324CB
:1035C0001995FF91EF91BF91AF919F918F917F914D
:1035D0006F915F914F913F912F910F900BBE0F9084
:1035E0000FBE0F901F9018951F920F920FB60F925B
:1035F00011240BB60F922F933F934F935F936F93CA
:103600007F938F939F93AF93BF93EF93FF93E0913B
:103610001E23F0911F23309729F08091142490915C
:1036200015241995FF91EF91BF91AF919F918F91C3
:103630007F916F915F914F913F912F910F900BBEB2
:103640000F900FBE0F901F9018951F920F920FB6FC
:103650000F9211240BB60F922F933F934F935F93CA
:103660006F937F938F939F93AF93BF93EF93FF934A
:10367000E0912023F0912123309729F080911624A6
:10368000909117241995FF91EF91BF91AF919F9160
:103690008F917F916F915F914F913F912F910F90FB
:1036A0000BBE0F900FBE0F901F9018951F920F9298
:1036B0000FB60F9211240BB60F922F933F934F9397
:1036C0005F936F937F938F939F93AF93BF93EF938A
:1036D000FF93E0912223F0912323309729F08091EA
:1036E0001824909119241995FF91EF91BF91AF91F2
:1036F0009F918F917F916F915F914F913F912F910A
:103700000F900BBE0F900FBE0F901F9018951F9239
:103710000F920FB60F9211240BB60F922F933F9377
:103720004F935F936F937F938F939F93AF93BF93C9
:10373000EF93FF93E0912423F0912523309729F014
:1037400080911A2490911B241995FF91EF91BF91BC
:10375000AF919F918F917F916F915F914F913F9129
:103760002F910F900BBE0F900FBE0F901F901895CA
:103770001F920F920FB60F9211240BB60F922F9338
:103780003F934F935F936F937F938F939F93AF93E9
:10379000BF93EF93FF93E0912623F0912723309777
:1037A00029F080911C2490911D241995FF91EF918F
:1037B000BF91AF919F918F917F916F915F914F9149
:1037C0003F912F910F900BBE0F900FBE0F901F9047
:1037D00018951F920F920FB60F9211240BB60F92ED
:1037E0002F933F934F935F936F937F938F939F9309
:1037F000AF93BF93EF93FF93E0912823F091292398
:10380000309729F080911E2490911F241995FF91E3
:10381000EF91BF91AF919F918F917F916F915F9148
:103820004F913F912F910F900BBE0F900FBE0F90B5
:103830001F9018951F920F920FB60F9211240BB67E
:103840000F922F933F934F935F936F937F938F9339
:103850009F93AF93BF93EF93FF93E0912A23F0914F
:103860002B23309729F080912024909121241995C1
:10387000FF91EF91BF91AF919F918F917F916F9148
:103880005F914F913F912F910F900BBE0F900FBE04
:103890000F901F9018951F920F920FB60F92112440
:1038A0000BB60F922F933F934F935F936F937F933A
:1038B0008F939F93AF93BF93EF93FF93E0912C234C
:1038C000F0912D23309729F0809122249091232488
:1038D0001995FF91EF91BF91AF919F918F917F913A
:1038E0006F915F914F913F912F910F900BBE0F9071
:1038F0000FBE0F901F9018951F920F920FB60F9248
:1039000011240BB60F922F933F934F935F936F93B6
:103910007F938F939F93AF93BF93EF93FF93E09128
:103920002E23F0912F23309729F080912424909119
:1039300025241995FF91EF91BF91AF919F918F91A0
:103940007F916F915F914F913F912F910F900BBE9F
:103950000F900FBE0F901F9018951F920F920FB6E9
:103960000F9211240BB60F922F933F934F935F93B7
:103970006F937F938F939F93AF93BF93EF93FF9337
:10398000E0913023F0913123309729F08091262463
:10399000909127241995FF91EF91BF91AF919F913D
:1039A0008F917F916F915F914F913F912F910F90E8
:1039B0000BBE0F900FBE0F901F9018951F920F9285
:1039C0000FB60F9211240BB60F922F933F934F9384
:1039D0005F936F937F938F939F93AF93BF93EF9377
:1039E000FF93E0913223F0913323309729F08091B7
:1039F0002824909129241995FF91EF91BF91AF91BF
:103A00009F918F917F916F915F914F913F912F91F6
:103A10000F900BBE0F900FBE0F901F9018951F9226
:103A20000F920FB60F9211240BB60F922F933F9364
:103A30004F935F936F937F938F939F93AF93BF93B6
:103A4000EF93FF93E0913423F0913523309729F0E1
:103A500080912A2490912B241995FF91EF91BF9189
:103A6000AF919F918F917F916F915F914F913F9116
:103A70002F910F900BBE0F900FBE0F901F901895B7
:103A80001F920F920FB60F9211240BB60F922F9325
:103A90003F934F935F936F937F938F939F93AF93D6
:103AA000BF93EF93FF93E0913623F0913723309744
:103AB00029F080912C2490912D241995FF91EF915C
:103AC000BF91AF919F918F917F916F915F914F9136
:103AD0003F912F910F900BBE0F900FBE0F901F9034
:103AE00018951F920F920FB60F9211240BB60F92DA
:103AF0002F933F934F935F936F937F938F939F93F6
:103B0000AF93BF93EF93FF93E0913823F091392364
:103B1000309729F080912E2490912F241995FF91B0
:103B2000EF91BF91AF919F918F917F916F915F9135
:103B30004F913F912F910F900BBE0F900FBE0F90A2
:103B40001F9018951F920F920FB60F9211240BB66B
:103B50000F922F933F934F935F936F937F938F9326
:103B60009F93AF93BF93EF93FF93E0913A23F0912C
:103B70003B23309729F0809130249091312419957E
:103B8000FF91EF91BF91AF919F918F917F916F9135
:103B90005F914F913F912F910F900BBE0F900FBEF1
:103BA0000F901F9018951F920F920FB60F9211242D
:103BB0000BB60F922F933F934F935F936F937F9327
:103BC0008F939F93AF93BF93EF93FF93E0913C2329
:103BD000F0913D23309729F0809132249091332445
:103BE0001995FF91EF91BF91AF919F918F917F9127
:103BF0006F915F914F913F912F910F900BBE0F905E
:103C00000FBE0F901F9018951F920F920FB60F9234
:103C100011240BB60F922F933F934F935F936F93A3
:103C20007F938F939F93AF93BF93EF93FF93E09115
:103C30003E23F0913F23309729F0809134249091D6
:103C400035241995FF91EF91BF91AF919F918F917D
:103C50007F916F915F914F913F912F910F900BBE8C
:103C60000F900FBE0F901F9018951F920F920FB6D6
:103C70000F9211240BB60F922F933F934F935F93A4
:103C80006F937F938F939F93AF93BF93EF93FF9324
:103C9000E0914023F0914123309729F08091362420
:103CA000909137241995FF91EF91BF91AF919F911A
:103CB0008F917F916F915F914F913F912F910F90D5
:103CC0000BBE0F900FBE0F901F9018951F920F9272
:103CD0000FB60F9211240BB60F922F933F934F9371
:103CE0005F936F937F938F939F93AF93BF93EF9364
:103CF000FF93E0914223F0914323309729F0809184
:103D00003824909139241995FF91EF91BF91AF918B
:103D10009F918F917F916F915F914F913F912F91E3
:103D20000F900BBE0F900FBE0F901F9018951F9213
:103D30000F920FB60F9211240BB60F922F933F9351
:103D40004F935F936F937F938F939F93AF93BF93A3
:103D5000EF93FF93E0914423F0914523309729F0AE
:103D600080913A2490913B241995FF91EF91BF9156
:103D7000AF919F918F917F916F915F914F913F9103
:103D80002F910F900BBE0F900FBE0F901F901895A4
:103D90001F920F920FB60F9211240BB60F922F9312
:103DA0003F934F935F936F937F938F939F93AF93C3
:103DB000BF93EF93FF93E0914623F0914723309711
:103DC00029F080913C2490913D241995FF91EF9129
:103DD000BF91AF919F918F917F916F915F914F9123
:103DE0003F912F910F900BBE0F900FBE0F901F9021
:103DF00018951F920F920FB60F9211240BB60F92C7
:103E00002F933F934F935F936F937F938F939F93E2
:103E1000AF93BF93EF93FF93E0914823F091492331
:103E2000309729F080913E2490913F241995FF917D
:103E3000EF91BF91AF919F918F917F916F915F9122
:103E40004F913F912F910F900BBE0F900FBE0F908F
:103E50001F9018951F920F920FB60F9211240BB658
:103E60000F922F933F934F935F936F937F938F9313
:103E70009F93AF93BF93EF93FF93E0914A23F09109
:103E80004B23309729F0809140249091412419953B
:103E9000FF91EF91BF91AF919F918F917F916F9122
:103EA0005F914F913F912F910F900BBE0F900FBEDE
:103EB0000F901F9018951F920F920FB60F9211241A
:103EC0000BB60F922F933F934F935F936F937F9314
:103ED0008F939F93AF93BF93EF93FF93E091502302
:103EE000F0915123309729F08091462490914724F6
:103EF0001995FF91EF91BF91AF919F918F917F9114
:103F00006F915F914F913F912F910F900BBE0F904A
:103F10000FBE0F901F9018951F920F920FB60F9221
:103F200011240BB60F922F933F934F935F936F9390
:103F30007F938F939F93AF93BF93EF93FF93E09102
:103F40005223F0915323309729F080914824909187
:103F500049241995FF91EF91BF91AF919F918F9156
:103F60007F916F915F914F913F912F910F900BBE79
:103F70000F900FBE0F901F9018951F920F920FB6C3
:103F80000F9211240BB60F922F933F934F935F9391
:103F90006F937F938F939F93AF93BF93EF93FF9311
:103FA000E0915423F0915523309729F080914A24D1
:103FB00090914B241995FF91EF91BF91AF919F91F3
:103FC0008F917F916F915F914F913F912F910F90C2
:103FD0000BBE0F900FBE0F901F9018951F920F925F
:103FE0000FB60F9211240BB60F922F933F934F935E
:103FF0005F936F937F938F939F93AF93BF93EF9351
:10400000FF93E0915623F0915723309729F0809148
:104010004C2490914D241995FF91EF91BF91AF9150
:104020009F918F917F916F915F914F913F912F91D0
:104030000F900BBE0F900FBE0F901F9018951F9200
:104040000F920FB60F9211240BB60F922F933F933E
:104050004F935F936F937F938F939F93AF93BF9390
:10406000EF93FF93E0915823F0915923309729F073
:1040700080914E2490914F241995FF91EF91BF911B
:10408000AF919F918F917F916F915F914F913F91F0
:104090002F910F900BBE0F900FBE0F901F90189591
:1040A0001F920F920FB60F9211240BB60F922F93FF
:1040B0003F934F935F936F937F938F939F93AF93B0
:1040C000BF93EF93FF93E0915A23F0915B233097D6
:1040D00029F080915024909151241995FF91EF91EE
:1040E000BF91AF919F918F917F916F915F914F9110
:1040F0003F912F910F900BBE0F900FBE0F901F900E
:1041000018951F920F920FB60F9211240BB60F92B3
:104110002F933F934F935F936F937F938F939F93CF
:10412000AF93BF93EF93FF93E0915C23F0915D23F6
:10413000309729F080915224909153241995FF9142
:10414000EF91BF91AF919F918F917F916F915F910F
:104150004F913F912F910F900BBE0F900FBE0F907C
:104160001F9018951F920F920FB60F9211240BB645
:104170000F922F933F934F935F936F937F938F9300
:104180009F93AF93BF93EF93FF93E0915E23F091E2
:104190005F23309729F080915424909155241995EC
:1041A000FF91EF91BF91AF919F918F917F916F910F
:1041B0005F914F913F912F910F900BBE0F900FBECB
:1041C0000F901F9018951F920F920FB60F92112407
:1041D0000BB60F922F933F934F935F936F937F9301
:1041E0008F939F93AF93BF93EF93FF93E0916023DF
:1041F000F0916123309729F08091562490915724B3
:104200001995FF91EF91BF91AF919F918F917F9100
:104210006F915F914F913F912F910F900BBE0F9037
:104220000FBE0F901F9018951F920F920FB60F920E
:1042300011240BB60F922F933F934F935F936F937D
:104240007F938F939F93AF93BF93EF93FF93E091EF
:104250006223F0916323309729F080915824909144
:1042600059241995FF91EF91BF91AF919F918F9133
:104270007F916F915F914F913F912F910F900BBE66
:104280000F900FBE0F901F9018951F920F920FB6B0
:104290000F9211240BB60F922F933F934F935F937E
:1042A0006F937F938F939F93AF93BF93EF93FF93FE
:1042B000E0916423F0916523309729F080915A248E
:1042C00090915B241995FF91EF91BF91AF919F91D0
:1042D0008F917F916F915F914F913F912F910F90AF
:1042E0000BBE0F900FBE0F901F9018951F920F924C
:1042F0000FB60F9211240BB60F922F933F934F934B
:104300005F936F937F938F939F93AF93BF93EF933D
:10431000FF93E0916623F0916723309729F0809115
:104320005C2490915D241995FF91EF91BF91AF911D
:104330009F918F917F916F915F914F913F912F91BD
:104340000F900BBE0F900FBE0F901F9018951F92ED
:104350000F920FB60F9211240BB60F922F933F932B
:104360004F935F936F937F938F939F93AF93BF937D
:10437000EF93FF93E0916823F0916923309729F040
:1043800080915E2490915F241995FF91EF91BF91E8
:10439000AF919F918F917F916F915F914F913F91DD
:1043A0002F910F900BBE0F900FBE0F901F9018957E
:1043B0001F920F920FB60F9211240BB60F922F93EC
:1043C0003F934F935F936F937F938F939F93AF939D
:1043D000BF93EF93FF93E0916A23F0916B233097A3
:1043E00029F080916024909161241995FF91EF91BB
:1043F000BF91AF919F918F917F916F915F914F91FD
:104400003F912F910F900BBE0F900FBE0F901F90FA
:1044100018951F920F920FB60F9211240BB60F92A0
:104420002F933F934F935F936F937F938F939F93BC
:10443000AF93BF93EF93FF93E0916C23F0916D23C3
:10444000309729F080916224909163241995FF910F
:10445000EF91BF91AF919F918F917F916F915F91FC
:104460004F913F912F910F900BBE0F900FBE0F9069
:104470001F9018951F920F920FB60F9211240BB632
:104480000F922F933F934F935F936F937F938F93ED
:104490009F93AF93BF93EF93FF93E0916E23F091BF
:1044A0006F23309729F080916424909165241995A9
:1044B000FF91EF91BF91AF919F918F917F916F91FC
:1044C0005F914F913F912F910F900BBE0F900FBEB8
:1044D0000F901F9018951F920F920FB60F921124F4
:1044E0000BB60F922F933F934F935F936F937F93EE
:1044F0008F939F93AF93BF93EF93FF93E0917023BC
:10450000F0917123309729F080916624909167246F
:104510001995FF91EF91BF91AF919F918F917F91ED
:104520006F915F914F913F912F910F900BBE0F9024
:104530000FBE0F901F9018951F920F920FB60F92FB
:1045400011240BB60F922F933F934F935F936F936A
:104550007F938F939F93AF93BF93EF93FF93E091DC
:104560008623F0918723309729F080917C249091C5
:104570007D241995FF91EF91BF91AF919F918F91FC
:104580007F916F915F914F913F912F910F900BBE53
:104590000F900FBE0F901F9018951F920F920FB69D
:1045A0000F9211240BB60F922F933F934F935F936B
:1045B0006F937F938F939F93AF93BF93EF93FF93EB
:1045C000E0918823F0918923309729F080917E240F
:1045D00090917F241995FF91EF91BF91AF919F9199
:1045E0008F917F916F915F914F913F912F910F909C
:1045F0000BBE0F900FBE0F901F9018951F920F9239
:104600000FB60F9211240BB60F922F933F934F9337
:104610005F936F937F938F939F93AF93BF93EF932A
:10462000FF93E0918E23F0918F23309729F08091B2
:104630008424909185241995FF91EF91BF91AF91BA
:104640009F918F917F916F915F914F913F912F91AA
:104650000F900BBE0F900FBE0F901F9018951F92DA
:104660000F920FB60F9211240BB60F922F933F9318
:104670004F935F936F937F938F939F93AF93BF936A
:10468000EF93FF93E0919023F0919123309729F0DD
:1046900080918624909187241995FF91EF91BF9185
:1046A000AF919F918F917F916F915F914F913F91CA
:1046B0002F910F900BBE0F900FBE0F901F9018956B
:1046C0001F920F920FB60F9211240BB60F922F93D9
:1046D0003F934F935F936F937F938F939F93AF938A
:1046E000BF93EF93FF93E0919223F0919323309740
:1046F00029F080918824909189241995FF91EF9158
:10470000BF91AF919F918F917F916F915F914F91E9
:104710003F912F910F900BBE0F900FBE0F901F90E7
:1047200018951F920F920FB60F9211240BB60F928D
:104730002F933F934F935F936F937F938F939F93A9
:10474000AF93BF93EF93FF93E0919423F091952360
:10475000309729F080918A2490918B241995FF91AC
:10476000EF91BF91AF919F918F917F916F915F91E9
:104770004F913F912F910F900BBE0F900FBE0F9056
:104780001F9018951F920F920FB60F9211240BB61F
:104790000F922F933F934F935F936F937F938F93DA
:1047A0009F93AF93BF93EF93FF93E0919623F09184
:1047B0009723309729F080918C2490918D2419951E
:1047C000FF91EF91BF91AF919F918F917F916F91E9
:1047D0005F914F913F912F910F900BBE0F900FBEA5
:1047E0000F901F9018951F920F920FB60F921124E1
:1047F0000BB60F922F933F934F935F936F937F93DB
:104800008F939F93AF93BF93EF93FF93E091982380
:10481000F0919923309729F080918E2490918F24E4
:104820001995FF91EF91BF91AF919F918F917F91DA
:104830006F915F914F913F912F910F900BBE0F9011
:104840000FBE0F901F9018951F920F920FB60F92E8
:1048500011240BB60F922F933F934F935F936F9357
:104860007F938F939F93AF93BF93EF93FF93E091C9
:10487000A423F091A523309729F080919A24909158
:104880009B241995FF91EF91BF91AF919F918F91CB
:104890007F916F915F914F913F912F910F900BBE40
:1048A0000F900FBE0F901F9018951F920F920FB68A
:1048B0000F9211240BB60F922F933F934F935F9358
:1048C0006F937F938F939F93AF93BF93EF93FF93D8
:1048D000E091A623F091A723309729F080919C24A2
:1048E00090919D241995FF91EF91BF91AF919F9168
:1048F0008F917F916F915F914F913F912F910F9089
:104900000BBE0F900FBE0F901F9018951F920F9225
:104910000FB60F9211240BB60F922F933F934F9324
:104920005F936F937F938F939F93AF93BF93EF9317
:10493000FF93E091A823F091A923309729F080916B
:104940009E2490919F241995FF91EF91BF91AF9173
:104950009F918F917F916F915F914F913F912F9197
:104960000F900BBE0F900FBE0F901F9018950E94D6
:10497000DA2BFDCF8CE595E20E949E1089E595E249
:104980000E94D22E86E595E20E94FB2D83E595E2FA
:104990000E94812F81E595E20E94182A89E495E220
:1049A0000E94C0028CE295E20E942F2782E295E2EB
:1049B0000E940F2B81E295E20E940D2C8AEA94E27C
:1049C0000E94250586EA94E20E942C2A089586EA30
:1049D00094E20E942D2A8AEA94E20E942B0581E249
:1049E00095E20E940E2C82E295E20E94102B8CE24E
:1049F00095E20E94A42789E495E20E94C10281E524
:104A000095E20E94242A83E595E20E948D2F86E597
:104A100095E20E94072E89E595E20E94DE2E8CE544
:104A200095E20E949F100895CF92DF92EF92FF923D
:104A30000F931F93F89484E68093800182E295E2BD
:104A40000E94112B86EA94E20E94002B81E295E2FB
:104A50000E947E2C47E060E089E595E20E940F2EDF
:104A600062E17AE789E595E20E944D2E48E060E038
:104A700086E595E20E94602D6FEF7FEF86E595E277
:104A80000E94A42D6FEF7FEF86E595E20E94772DBF
:104A900046E063E083E595E20E94E62E60E072E086
:104AA00083E595E20E942F2F82E295E20E94A62BD9
:104AB00021E04AEA54E261E576E083E595E20E946E
:104AC000392F21E04AEA54E266E576E083E595E293
:104AD0000E945D2F0F2EF3E0EF2EF02D00E023E07B
:104AE00040E061E08CE595E20E94A01001E020E04A
:104AF00040E06DE081E595E20E949C290F2EF2E1F5
:104B0000CF2EFAE7DF2EF02DE12CFF24F39400E006
:104B100011E02AEA34E241E555E269E575E28CE20A
:104B200095E20E94352740E051E06CE275E289E4AD
:104B300095E20E94C2026CE275E28AEA94E20E9467
:104B4000B90882E295E20E94712B8AEA94E280938E
:104B5000B0239093B1238DE590E18093BA22909396
:104B6000BB2278941F910F91FF90EF90DF90CF9030
:104B70000895CF93DF931F921F92CDB7DEB70E94A7
:104B800014252AEA36EE86E991E021503040804033
:104B90009040D9F7000082E295E20E94AE2B2FEF01
:104BA00033EC89E0215030408040E1F700C0000044
:104BB00019821A8242E050E0BE016F5F7F4F8CE5A0
:104BC00095E20E94E1108AEA94E20E94D3091FE074
:104BD00082E295E20E94042C8AEA94E20E94310A61
:104BE0004091A2245091A324CA0101968093A2244B
:104BF0009093A3249A01A9E8B8E80E942E329695D2
:104C000087959695879596958795189F9001199FFA
:104C1000300D11244217530741F486EA94E20E94B2
:104C2000B52A8093A4249093A5248091A4249091E4
:104C3000A5248A30914024F082E295E20E94B22BB2
:104C40008091A4249091A5248F3F91050CF682E2D7
:104C500095E20E94B62BBCCFCF93DF93EC01EC81A1
:104C6000FD818AEA8083EC81FD818CEC8183EC817B
:104C7000FD8182E0820F8283EC81FD8180E8838365
:104C8000EC81FD81648385E0820F898730E0211506
:104C9000310581F0DA01420F531F65E070E09D910C
:104CA000EC81FD81E60FF71F90836F5F7F4FA417A4
:104CB000B507A9F7DF91CF910895FC01A481B581D3
:104CC0008AEA8C93A481B5818CEC11968C93A48193
:104CD000B58183E012968C93A481B58181E8139607
:104CE0008C93A481B58114966C93A481B58115969B
:104CF0004C9386E0818708950F931F93CF93DF93A2
:104D0000DC011496ED91FC911597AAEAA083EC01C1
:104D1000EC81FD81ACECA183EC81FD81A3E0A20FCD
:104D2000A283EC81FD81A2E8A383EC81FD817483E1
:104D3000EC81FD81658366E0620F69873695279572
:104D400021153105E1F0E42FF52F2D5F3F4F220FA4
:104D5000331F46E050E0EC01AC81BD81A40FB51FCC
:104D600061816C93AC81BD81A40FB51F60813296C7
:104D700011966C934E5F5F4F4217530761F7DF91B7
:104D8000CF911F910F910895FC01A481B5818AEA0A
:104D90008C93A481B5818CEC11968C93A481B58100
:104DA00084E012968C93A481B58183E813968C934A
:104DB000A481B58114967C93A481B58115966C93DA
:104DC000A481B58116964C9387E0818708950F934F
:104DD0001F93CF93DF93EC01CB018A016F83788718
:104DE0004A875B870E9448328A839B83C8010E945E
:104DF00048328C839D8319861E82DF91CF911F914B
:104E00000F910895CF93DF93EC018A819B810E94DB
:104E1000DD328C819D810E94DD32DF91CF9108953A
:104E20000895DC015B968D919C915C97009739F019
:104E3000DC01ED91FC910280F381E02D199508953C
:104E4000DC015B968D919C915C97009739F0DC01B9
:104E5000ED91FC910480F581E02D1995089528EDE0
:104E600031E2FC012083318308956F927F928F920B
:104E70009F92AF92BF92CF92DF92EF92FF920F93E9
:104E80001F93CF93DF93EC014B015A013901C80105
:104E90000F831887EA86FB860E9448328A839B83A9
:104EA000C7010E9448328C839D83198E1986198A06
:104EB0001E821C8A1D8A1E8A1F8A87E0888B82E0D8
:104EC000888F1A8ECA8ADB8AAC86BD86D501ED91A1
:104ED000FC910484F585E02D49E558E2BE01C50149
:104EE0001995D501ED91FC910684F785E02D45EEED
:104EF00058E2BE01C50119956114710419F06B8E59
:104F00007C8E02C0CB8FDC8F8E869F8681149104AD
:104F100061F0D401ED91FC910488F589E02D21E048
:104F2000AE0160E878E2C4011995DF91CF911F913D
:104F30000F91FF90EF90DF90CF90BF90AF909F9038
:104F40008F907F906F90089528ED31E2FC012083CF
:104F500031830E9410270895CF93DF93EC01962FA1
:104F6000488950E04B30510508F0A0C0FA0188276D
:104F7000E05CFE4F8F4F0C9426329A3A19F482E08F
:104F8000888B94C081E0888B91C09C3C19F483E0AD
:104F9000888B8CC081E0888B89C09E83198A1E8A89
:104FA0001F8A84E0888B82C08989EA81FB81E80FAF
:104FB000F11D9083298930E04F81588542175307AE
:104FC00018F489E0888B72C02E893F892927922F97
:104FD00092959227092E969596959025092E96954D
:104FE00090259770022E232F969507949795302D34
:104FF000292706949795302529272E8B3F8B898961
:105000008F5F898B49898E81481350C088E0888BD7
:10501000E881F98150E06A817B810190F081E02D87
:10502000CE0119958B8D9C8D009709F43FC0DC0152
:10503000ED91FC914E8150E06A817B810190F0817D
:10504000E02D199533C0692F70E06C8B7D8B86E065
:10505000888B2CC02C893D89A901592B4C8B5D8BE9
:105060002E893F8942175307E9F488E0888BE8814D
:10507000F9814E8150E06A817B810190F081E02DC1
:10508000CE0119958B8D9C8D009781F0DC01ED91FF
:10509000FC914E8150E06A817B810190F081E02D8E
:1050A000199504C089E0888B01C01A8EDF91CF91D9
:1050B0000895CF93DF93EC018C859D85DC01ED9104
:1050C000FC910280F381E02D1995682FCE010E949A
:1050D000AC27DF91CF910895CF93DF93EC018E85BC
:1050E0009F85DC01ED91FC910480F581E02D1995FF
:1050F0008889883011F08AE0888BDF91CF910895FC
:105100000E946C280895CF93DF93FC01118A1682C8
:10511000148A158A168A178A108A86859785EC0163
:10512000A881B981628973891296ED91FC911397D8
:105130001995DF91CF910895CF93DF93EC01888D7E
:10514000843038F48230B8F5882331F08130D1F0E2
:1051500039C0853081F136C081E0888F198E8C8509
:105160009D85298DDC01ED91FC91AC81BD81A20F63
:10517000B11D0480F581E02D6C911995898D8F5FAB
:10518000898F20C08C859D85298DDC01ED91FC9156
:10519000AC81BD81A20FB11D0480F581E02D6C9121
:1051A0001995898D8F5F898F998D898598130AC08C
:1051B00083E0888F07C08A8D882319F0CE010E9472
:1051C00083281A8EDF91CF9108950E949C2808951C
:1051D000FC0106C08089893041F080898A3039F02D
:1051E00080898830B9F781E0089582E0089583E0EE
:1051F0000895CF93DF93EC01198E188E0E949C289E
:105200008E859F85DC01ED91FC916A897B89028006
:10521000F381E02D1995DF91CF910895CF93DF931E
:10522000EC01E881F9810284F385E02D1995CE0126
:105230000E94F928DF91CF910895CF93DF93EC017D
:10524000E881F9810684F785E02D1995CE010E9449
:10525000F928DF91CF910895CF93DF93EC01E88196
:10526000F9810484F585E02D1995CE010E94F92875
:10527000DF91CF910895CF93DF93EC01E881F9811D
:1052800050E00088F189E02D1995CE010E94F9289F
:10529000DF91CF910895FC0106C0808D843041F0EC
:1052A000808D853039F0808D8330B9F781E00895A5
:1052B00082E0089583E0089521E0FC01228F0E949E
:1052C0002C29089521E0FC01228F0E943B2908959A
:1052D0000F931F93CF93DF938C01EB01988191384B
:1052E00069F4D801ED91FC910480F581E02D2A81CB
:1052F000AB014D5F5F4F6981C80119959881933863
:1053000099F4D801ED91FC912B8130E0AE014C5F16
:105310005F4F698170E0762F66278A81682B028053
:10532000F381E02DC8011995DF91CF911F910F9165
:1053300008950E94682908950F93E0E6F6E088E05A
:10534000818384E08283128A138AE0EAF9E084E1AF
:10535000838388E1848384818483413019F04230DF
:1053600019F004C080E203C080E301C080E0222382
:1053700019F0213019F003C0877F01C08860011146
:1053800002C093E401C093E0892BE0EAF9E0858351
:1053900070E0DB01AC5BBE4D8C918683DB01AC5DC4
:1053A000BE4D8C918295807F87830F910895809167
:1053B000A00908956093A00908958091A10986FB32
:1053C000882780F991E0892708958091A109809527
:1053D000881F8827881F08958091A10985FB882749
:1053E00080F991E08927089560935C2470935D248F
:1053F00040936623509367230895609360247093CD
:10540000612440936A2350936B230895FB018BE63C
:10541000838380EA808789E0818712860895FB0173
:105420008CE6838380EA848789E0858716860895E1
:10543000CF93DF93EC010E942A118EEE91E28883D4
:105440009983DF91CF9108952EEE31E2FC01208304
:1054500031830E943011089508950895E0E6F6E042
:1054600080E88183A7E2BFE01197F1F700C0000058
:10547000828387E092E00197F1F700C00000808509
:10548000AFE1BDE01197F1F700C000008095881FE3
:105490008827881F0895CF93DF9380E090E0C1E0D4
:1054A000D0E070E0E0E6F6E040E89E01082E02C0A1
:1054B000220F331F0A94E2F7D901A623B7232A1734
:1054C0003B0769F4418325E12A95F1F70000428307
:1054D000A7E0B2E01197F1F700C000000CC04183D3
:1054E000A7E0B2E01197F1F700C000004283B5E3F6
:1054F000BA95F1F70000019688309105B1F6DF9179
:10550000CF91089520E030E080E0E0E6F6E090E81A
:1055100061E070E0918345E14A95F1F700009283E4
:10552000AAE6AA95F1F700C04085442354F0AB01E8
:10553000022E02C0440F551F0A94E2F740958423BF
:1055400008C0AB01022E02C0440F551F0A94E2F7B7
:10555000842BAFE8B1E01197F1F700C000002F5F96
:105560003F4F28303105B1F608951F93CF93DF9355
:10557000EC018A81882391F0CE010E942E2A882393
:1055800059F06CECCE010E944B2A64E4CE010E94DB
:105590004B2A81E08B832AC01B8228C08B81882301
:1055A00029F1CE010E942E2A6CECCE010E944B2ADA
:1055B0006EEBCE010E944B2ACE010E94822A182F48
:1055C000CE010E94822A612F70E0782B072E000CFA
:1055D000880B990B0E94B43020E030E040E25FE39A
:1055E0000E9418310E947C30688379839A8181E01F
:1055F00089278A8388819981DF91CF911F910895AE
:10560000FC01A0E6B6E080E816968C9316975796B4
:105610001C9210821182138281E082830895089582
:105620000895CF93DF93EC01E0E4F6E0118298EA6D
:10563000908B918B928B938B948B958B968B978B76
:105640002FEF2483A0E8B6E088E011968C931197A1
:1056500053961C92539714961C921497E0EAF6E026
:1056600090EC908B80E8818B928B938B948B958BB5
:10567000968B978B14822183E0E6F6E021E121836B
:10568000908B948B158A148297E011969C931197B6
:1056900050968C93509751968C93519752968C9329
:1056A000529714961C92E0EAF0E082818160828336
:1056B000828182608283828184608283FE019E0176
:1056C000285F3F4F91E09193E217F307E1F783E002
:1056D0008887E0E4F6E081E082878187DF91CF91DF
:1056E0000895E0E5F0E08BEC828380818860808320
:1056F000818183FFFDCFE0E5F0E0858198ED94BFE7
:1057000084EC8583808180618083E0E4F0E08181A6
:1057100094BF1182E0E5F0E0818184FFFDCFE0E4F9
:10572000F0E08081887F846098ED94BF8083A0E55D
:10573000B0E08C91887F8C93828194BF81E08283DA
:10574000E0EBF0E084818C7F8483089584E0809393
:105750008506089584E080938606089581E080930D
:105760006206089580E180936206089580E1809347
:105770006106089582E080938506089582E0809313
:1057800086060895F89484E690E0E0E8F6E028E0E4
:105790002583AFE9BFE01197F1F700C00000268331
:1057A000AFE9BFE01197F1F700C00000019781F762
:1057B00078940895F89445E050E064E630E0E0E83D
:1057C000F6E028E01CC02583AFE9BFE01197F1F7B0
:1057D00000C000002683AFE9BFE01197F1F700C0D9
:1057E0000000019781F7BFEF73EC89E0B150704082
:1057F0008040E1F700C000004150510919F0862FA8
:10580000932FE1CF7894089520914806FC012187D9
:105810000895FC0181858170089508950895E0E060
:10582000FAE0108287E88183138284E294EF86A3F2
:1058300097A382E19AE786A797A716821782089511
:10584000E0E4FAE010821182138284E294EF86A3EE
:1058500097A31682178208950F931F93CF938A01FF
:10586000C22F9B0140E050E064E274EF80E090E0E2
:105870000E940732B80176956795EEE3E09FC0017C
:10588000E19F900D1124860F971FCF5FB90102C0D1
:1058900076956795CA95E2F7E0E0FAE066A777A704
:1058A00026A337A3A0E4BAE096968D939C9397978E
:1058B00086E0808387E08C93CF911F910F910895AC
:1058C000E0E4FAE0848580FFFDCFE0E4FAE084853F
:1058D00081708487A0E0BAE01C92108210A211A20D
:1058E00090961D921C9291972FEF83EF91E021509B
:1058F00080409040E1F700C000000895CF93DF930F
:10590000EC010E940F2CCE010E94202CDF91CF9140
:105910000895FC014283E0E0F8E08081807F80838D
:10592000138210A211A210A611A612A613A614A6E5
:1059300015A616A617A616A217A28181887F682B26
:105940006183168217820895E0E0F8E066A377A3EA
:105950002081207FDC0112969C91822F892B8083ED
:105960000895E0E0F8E08081807F808310A211A29A
:105970000895E0E0F8E081818F70682B61830895DD
:10598000E0E0F8E081816095682361830895609389
:1059900026087093270808956093280870932908B3
:1059A000089560932A0870932B08089560932C083B
:1059B00070932D08089560932E0870932F08089512
:1059C0006115710531F0E0E0F8E086818370282BE5
:1059D00026836093D2227093D3224093C82350939E
:1059E000C92308956115710531F0E0E0F8E0868182
:1059F0008C70282B26836093D4227093D5224093F9
:105A0000CA235093CB2308956115710531F0E0E06E
:105A1000F8E087818370282B27836093D6227093C8
:105A2000D7224093CC235093CD230895611571055F
:105A300031F0E0E0F8E087818C70282B27836093B9
:105A4000D8227093D9224093CE235093CF23089528
:105A50006115710531F0E0E0F8E087818073282B53
:105A600027836093DA227093DB224093D0235093F4
:105A7000D12308956115710531F0E0E0F8E08781E8
:105A8000807C282B27836093DC227093DD22409357
:105A9000D2235093D3230895CF93DF93EC010E9438
:105AA0001C1186E092E288839983DF91CF9108955B
:105AB00026E032E2FC01208331830E942211089506
:105AC000FC014283E0E4F8E08081807F80831382E0
:105AD00010A211A210A611A612A613A616A217A212
