:100000000C948D020C942A120C945B120C948C129A
:100010000C94BD120C94EE120C941F130C945013FC
:100020000C9481130C94B2130C94E3130C941414D9
:100030000C9445140C9476140C94A7140C94D814B6
:100040000C9409150C943A150C946B150C949C1592
:100050000C94CD150C94FE150C942F160C94601670
:100060000C9491160C94C2160C94F3160C9424174D
:100070000C9455170C9486170C94B7170C94E8172A
:100080000C9419180C944A180C947B180C94AC1806
:100090000C94DD180C940E190C943F190C947019E3
:1000A0000C94A1190C94D2190C94031A0C94341AC0
:1000B0000C94651A0C94961A0C94C71A0C94F81A9E
:1000C0000C94291B0C945A1B0C948B1B0C94BC1B7A
:1000D0000C94ED1B0C941E1C0C944F1C0C94801C57
:1000E0000C94B11C0C94E21C0C94131D0C94441D34
:1000F0000C94751D0C94A61D0C94D71D0C94081E11
:100100000C94391E0C946A1E0C949B1E0C94CC1EED
:100110000C94FD1E0C942E1F0C945F1F0C94901FCA
:100120000C94C11F0C94F21F0C9423200C94BE025B
:100130000C94BE020C9454200C9485200C94B62090
:100140000C94E7200C9418210C9449210C947A21EA
:100150000C94AB210C94DC210C940D220C943E22C7
:100160000C946F220C94A0220C94D1220C940223A4
:100170000C9433230C9464230C94BE020C94BE02A2
:100180000C94BE020C94BE020C94BE020C94BE02EF
:100190000C94BE020C94BE020C94BE020C94BE02DF
:1001A0000C9495230C94C6230C94BE020C94BE02AE
:1001B0000C94F7230C9428240C9459240C948A242E
:1001C0000C94BB240C94EC240C94BE020C94BE0240
:1001D0000C94BE020C94BE020C94BE020C941D251D
:1001E0000C944E250C947F250C94BE020C94BE02F8
:1001F0000C94BE020C94BE020C94BE02D5035704AC
:1002000057045704570457045704DA0335045704B6
:10021000E1035704E8035704EF035704F6035704B8
:100220005704570457045704FD0304040B04120435
:1002300027045704190457042E045704570457047D
:10024000570457045704200457044A043C04430449
:100250005704570457045704570451047B0481047E
:1002600087048D04930499049F04A5041D05B40418
:10027000BA04C004C604CC04D204D804DE04E404E6
:100280001A291A2922292A29312980298729B329BB
:10029000B329B229B2290C9419040C9435040C9496
:1002A00022290C94662E0C940C2F0C943A2B0C944F
:1002B00085300C9494310C9473300C943C2E0C9437
:1002C000132F0C94DD290C94AE2F0C9487040C94FE
:1002D0006E280C94512B0C945F280C94462E0C9491
:1002E000B4040C94B1100C945A2B0C948D040C94FF
:1002F0002E2E0C9489270C94B3300C9420040C946B
:10030000A2300C9452310C94B2290C944A040C94EF
:1003100093300C94412E0C94D02F0C94BA270C944B
:1003200061310C9493040C94582F0C94FE2D0C9472
:10033000B0250C947E2F0C94BF0E0C9431290C9494
:10034000D8040C9412120C94D5300C94C6040C945E
:10035000A5040C9481040C94A5310C94F62A0C94F9
:10036000632B0C9458040C947B040C94192E0C945D
:10037000CC040C940B040C947B300C94992F0C94AB
:10038000BA040C946C2B0C9493060C94CB2F0C9405
:10039000A7060C94AA2E0C94F92A0C9443040C94EE
:1003A000C4300C94CF2E0C94992E0C94262E0C94C1
:1003B00083310C944B2E0C9456110C9480290C9480
:1003C000E8250C94D5030C94B6290C94372B0C9487
:1003D000E4040C94422A0C94882E0C942A290C9440
:1003E000772E0C942A300C94352E0C94E62F0C9416
:1003F00037310C94342F0C9457310C943C040C94EA
:100400003F310C94B3290C94052F0C94DA030C940F
:1004100087290C942E040C9448310C94B6310C941A
:10042000D52F0C941D050C94F72F0C947D280C945B
:1004300099040C9427040C9421280C94222F0C94DA
:1004400044280C94552E0C9408300C94492B0C9491
:10045000C0040C94FB2E0C94C12F0C94502E0C94C1
:10046000422B0C94C62F0C94B7030C9498300C9428
:10047000D2040C9404040C94D9270C94BC2F0C9433
:100480004F300C94182F0C949D300C94B3250C9481
:10049000FA300C94B52F0C944D310C94342B0C94F1
:1004A00057040C949F040C9451040C9466300C94E3
:1004B000DE040C94AC060C94FD030C942A310C94CD
:1004C00072310C94462F0C94A62F0C94F32E0C949E
:1004D00022310C945C310C949F060C9430310C94B6
:1004E000B6030C94A2060C941A290C9415310C94A2
:1004F000EF030C94E30F0C94E1030C948C300C94F8
:100500001D2F0C94F6030C9419300C9412040C94C7
:10051000E8030C94E62EB325E82511241FBECFEF87
:10052000CDBFDFE3DEBF00E00CBF13E2A0E0B0E22E
:10053000ECE6FAE600E00BBF02C007900D92AC3B80
:10054000B107D9F726E2ACEBB3E201C01D92A9389E
:10055000B207E1F712E0CCE8D2E000E006C0219754
:100560000109802FFE010E948533CB38D10780E03E
:100570000807A9F70E9416270C9424350C94000054
:1005800008950895FC0162837383942F852F8483DB
:100590009583468357831082118208958F929F928C
:1005A000AF92BF92EF92FF920F931F93CF93DF937F
:1005B000CDB7DEB72A97CDBFDEBF7C018AE5898340
:1005C00080E58A83852E9924AA24BB24B22FAA27EA
:1005D0009927882788299929AA29BB2949015A01DD
:1005E0008824AA24BB24BA2CA92C982C88248829D6
:1005F0009929AA29BB2949015A0188249924BB2495
:10060000892C9A2CAB2CBB2488299929AA29BB298F
:100610008B839C83AD83BE837627672776276F8382
:10062000788710270127102709871A872AE0AE014B
:100630004F5F5F4F66E5F701828193810E946B2ACD
:10064000F701828193810E94A82A2A96CDBFDEBF3E
:10065000DF91CF911F910F91FF90EF90BF90AF90DE
:100660009F908F9008958F929F92AF92BF92EF923A
:10067000FF920F931F93CF93DF93CDB7DEB72A97E7
:10068000CDBFDEBF7C018AE5898380EA8A83852E1F
:100690009924AA24BB24B22FAA279927882788291E
:1006A0009929AA29BB2949015A018824AA24BB24D3
:1006B000BA2CA92C982C882488299929AA29BB29E5
:1006C00049015A0188249924BB24892C9A2CAB2CEB
:1006D000BB2488299929AA29BB298B839C83AD83B4
:1006E000BE837627672776276F83788710270127B1
:1006F000102709871A872AE0AE014F5F5F4F66E532
:10070000F701828193810E946B2AF7018281938194
:100710000E94A82A2A96CDBFDEBFDF91CF911F91FC
:100720000F91FF90EF90BF90AF909F908F900895A2
:100730000F931F93CF93DF931F92CDB7DEB78C013A
:10074000198221E0AE014F5F5F4F66E5FC018281B7
:1007500093810E946B2AF801828193810E94A82ACA
:100760000F90DF91CF911F910F9108950895DC01B3
:10077000633031F4FA0181811F968C931F9706C074
:10078000663521F4FA0180818093C5231F964C9130
:100790001F9750E04033510508F089C0FA018827BF
:1007A000E250FF4F8F4F0C9485331C961D921C9284
:1007B0001D97089582E090E01C968D939C931D9761
:1007C000089584E090E01C968D939C931D97089566
:1007D00088E090E01C968D939C931D97089580E18E
:1007E00090E01C968D939C931D97089580E290E075
:1007F0001C968D939C931D97089580E093E01C9622
:100800008D939C931D97089580E093E01C968D93A3
:100810009C931D97089580E092E01C968D939C9385
:100820001D97089580E091E01C968D939C931D97F1
:10083000089580E090E21C968D939C931D970895F7
:1008400080E090E31C968D939C931D97089580E023
:1008500090E11C968D939C931D97089580E090E401
:100860001C968D939C931D97089580E095E01C96AF
:100870008D939C931D97089580E096E01C968D9330
:100880009C931D97089580E097E01C968D939C9310
:100890001D97089580E490E01C968D939C931D977E
:1008A000089580E094E01C968D939C931D97089585
:1008B000CF92DF92EF92FF920F931F93CF93DF932C
:1008C0008C01EB017A016901FA01808191810E941A
:1008D0008F119C01F2E0CF16D10409F07BC0FE011C
:1008E0003197E231F10508F0A8C08827E25DFE4F9C
:1008F0008F4F0C948533F801E65BFF4F20833183E3
:100900009CC0F801E45BFF4F2083318396C0F8015F
:10091000E25BFF4F2083318390C0F801E05BFF4F23
:10092000208331838AC0F801EE5AFF4F2083318340
:1009300084C0F801EC5AFF4F208331837EC0F80158
:10094000EA5AFF4F2083318378C0F70160817181BB
:10095000828193810E949311F801EE5BFF4F6083C7
:1009600071838283938369C0F801E45AFF4F208327
:10097000318363C0F801E25AFF4F208331835DC0A9
:10098000F801E05AFF4F2083318357C0F801EE5938
:10099000FF4F2083318351C0F801EC59FF4F208372
:1009A00031834BC0F801EA59FF4F2083318345C0A2
:1009B000F801E859FF4F208331833FC0F801E65921
:1009C000FF4F2083318339C0F801E459FF4F208362
:1009D000318333C0C130D10551F420E030E0A601AD
:1009E000B701C801865B9F4F0E94591126C0C530D0
:1009F000D10549F420E030E0A601B701C801C49652
:100A00000E9459111AC02297C1F4F80186858630D8
:100A100090F490E09C01220F331F820F931F880FE8
:100A2000991F4C9620E030E0A601B701800F911F7E
:100A30000E94591102C00E94372DDF91CF911F9162
:100A40000F91FF90EF90DF90CF90089526E732E26C
:100A5000FC0120833183089526E732E2FC012083E4
:100A600031830E946D280895CF93DF931F921F92C8
:100A7000CDB7DEB7FC01E05CFF4F808120E030E0C5
:100A8000382F330F330F36952795369527953695A2
:100A90002795AFE4BBE10E948D3396958795969597
:100AA000879596958795880F991F880F991F898339
:100AB0009A8342E050E0BE016F5F7F4F8FE796E27E
:100AC0000E94DA110F900F90DF91CF9108954F920D
:100AD0005F926F927F928F929F92AF92BF92CF92CE
:100AE000DF92EF92FF920F931F93CF93DF9300D08B
:100AF00000D0CDB7DEB77C018B01FB0180809180F7
:100B000088EE93E0B4010E941C335B0122813381A3
:100B1000A8EEB3E00E948D33950140E050E00E94C2
:100B2000443329013A01F801C480D5808AE698E16E
:100B3000B4010E941C338B01000F111F660F771F39
:100B4000660F771F660F771F060F171FF70102AF9B
:100B500013AFD801A30192010E949C3328EE33E029
:100B600040E050E00E944433021B130BF70104AF36
:100B700015AFA6AEB7AE88E592E0C89E9001C99EBB
:100B8000300DD89E300D1124369527953695279532
:100B9000ABE7B4E10E948D338C011695079509836C
:100BA0001A839601A8E5B2E00E948D339B01AC0147
:100BB000C301B2010E940C3320EA36E841E050E064
:100BC0000E944433122F822F932F8B839C83C30167
:100BD000B2012AE030E040E050E00E944433622F4E
:100BE000822F932F8D839E83202F3A81412F5C810A
:100BF0007E8180E090E02696CDBFDEBFDF91CF9171
:100C00001F910F91FF90EF90DF90CF90BF90AF902A
:100C10009F908F907F906F905F904F900895CF93AB
:100C2000DF93EC01CE57DF4F888199810E94BF2A64
:100C3000888199810E94A82A888199810E94452AE9
:100C4000DF91CF910895CF93DF93EC01CE57DF4F23
:100C5000888199810E947A2A888199810E94A82A94
:100C6000DF91CF9108950F931F93CF93DF931F923E
:100C70001F92CDB7DEB78C01CB010E948F11898303
:100C80009A830E571F4F22E0AE014F5F5F4F63E024
:100C9000F801808191810E946B2AF8018081918105
:100CA0000E94A82A0F900F90DF91CF911F910F9172
:100CB0000895FC01EE5BFF4F408151816281738199
:100CC0004F5F5F4F6F4F7F4F4083518362837383CA
:100CD000349640815181628173814F5F5F4F6F4FC6
:100CE0007F4F4083518362837383FC0146AD57ADD0
:100CF0004536510550F020E042E350E064EF71E0EA
:100D00008EE396E20E94A12D09C05695479520E0FA
:100D100064EF71E08EE396E20E94A12D8EE396E2ED
:100D20000E94D52D08950E9459060895FC018389DB
:100D3000882321F08FE396E20E94032D08950E94FC
:100D4000960608958FE396E20E940B2D08958FE397
:100D500096E20E94132D08958FE396E20E941B2DC8
:100D600008950F931F93CF93DF93EC011E86FC0130
:100D7000E65BFF4F10821182329683E090E0808321
:100D800091836A30710570F481E090E072968083FF
:100D900091838CE390E08A8F9B8F81E690E08E8B2D
:100DA0009F8B5BC06431710580F482E090E0FE01AE
:100DB000E25AFF4F808391838CE390E08A8F9B8F70
:100DC00081E690E08E8B9F8B48C06332710580F482
:100DD00083E090E0FE01E25AFF4F808391838CE331
:100DE00090E08A8F9B8F81E690E08E8B9F8B35C041
:100DF0006133710580F484E090E0FE01E25AFF4F18
:100E00008083918384E690E08A8F9B8F81E690E0D7
:100E10008E8B9F8B22C06834710580F485E090E052
:100E2000FE01E25AFF4F8083918384E690E08A8F2F
:100E30009B8F8AE590E08E8B9F8B0FC086E090E0C1
:100E4000FE01E25AFF4F8083918384E690E08A8F0F
:100E50009B8F87E590E08E8B9F8BFE01E05BFF4FC1
:100E600084E690E0808391838A8D9B8D3297808386
:100E700091838E010E5A1F4F8E8590E0BC01660F44
:100E8000771F680F791F660F771F645E7F4F6C0FA7
:100E90007D1FCE010E946705F801208331834283C4
:100EA0005383648375838E8590E0FC01EE0FFF1FF2
:100EB000E80FF91FEE0FFF1FEC0FFD1F80A191A19E
:100EC000C05CDF4F88839983DF91CF911F910F9191
:100ED00008950F931F93CF93DF93EC011E86FC01BF
:100EE000E65BFF4F10821182329683E090E08083B0
:100EF00091837296608371836330710591F138F448
:100F00006130710571F062307105D9F069C06530EA
:100F1000710509F446C0A8F16630710509F451C0A5
:100F20005FC085E090E0FE01E45AFF4F808391832B
:100F30008CE390E08A8F9B8F81E690E08E8B9F8B75
:100F40004FC08EE090E0FE01E45AFF4F8083918312
:100F50008CE390E08A8F9B8F81E690E08E8B9F8B55
:100F60003FC08BE190E0FE01E45AFF4F8083918304
:100F70008CE390E08A8F9B8F81E690E08E8B9F8B35
:100F80002FC089E290E0FE01E45AFF4F80839183F5
:100F900084E690E08A8F9B8F81E690E08E8B9F8B1A
:100FA0001FC08DE390E0FE01E45AFF4F80839183E0
:100FB00084E690E08A8F9B8F8AE590E08E8B9F8BF2
:100FC0000FC085E590E0FE01E45AFF4F80839183D6
:100FD00084E690E08A8F9B8F87E590E08E8B9F8BD5
:100FE000FE01E05BFF4F84E690E0808391838A8D71
:100FF0009B8D3297808391838E010E5A1F4FBE01C5
:10100000645E7F4FCE010E946705F8012083318323
:1010100042835383648375838E8590E0FC01EE0FD9
:10102000FF1FE80FF91FEE0FFF1FEC0FFD1F80A140
:1010300091A1C05CDF4F88839983DF91CF911F918D
:101040000F910895AF92BF92CF92DF92EF92FF92ED
:101050000F931F93CF93DF93EC018B017A01223022
:10106000B1F018F4213031F058C0233039F1243078
:10107000E9F153C0DB018D919C911197019709F41F
:101080004CC081E090E08D939C93898B46C0FB011E
:1010900080819181049730F083E090E08083918398
:1010A00081E0898BD8018D919C911197892BA9F5AD
:1010B00081E090E08D939C93898B2FC0FB01808110
:1010C0009181079730F086E090E08083918381E002
:1010D000898BD8018D919C9111970497F0F484E04D
:1010E00090E08D939C9381E0898B17C0FB018081F8
:1010F00091810B9730F08AE090E08083918381E0CA
:10110000898BD8018D919C911197079730F487E0D6
:1011100090E08D939C9381E0898BF801208131814F
:10112000220F331FF901E45EFD4DC080D180F9012B
:10113000EA5FFD4D0190F081E02DCF018C199D09F2
:10114000D901A051BE4D6D917C91615071090E94F1
:101150001C33D7018D919C9111978C159D0520F41E
:10116000CD92DC9281E0898BD7018D919C91119772
:10117000E817F90720F4ED93FC9381E0898BD801FF
:10118000ED91FC91EE0FFF1FE051FE4DA080B1806C
:10119000B1E0AB1AB108F701808191818C199D09EA
:1011A0000E941C3380E090E00E948A11B5010E94E9
:1011B0008511AC01D8018D919C910F2EFBE0FF2E83
:1011C000F02DF89EF001F99EF00D1124E40FF51FAB
:1011D000EE0FFF1FE250FF4D20813181ADECBCECE2
:1011E0000E948D3396958795969587958E8B9F8BCC
:1011F000F80180819181F89EF001F99EF00D112493
:10120000E40FF51FEE0FFF1FEE5DFF4D20813181D2
:101210000E948D3396958795969587958C8B9D8B9F
:101220008989DF91CF911F910F91FF90EF90DF900F
:10123000CF90BF90AF9008958F929F92AF92BF9240
:10124000CF92DF92EF92FF920F931F93CF93DF9392
:10125000EC01FC01EE57FF4F608371831F86198AF2
:101260001A8A1B8A6C012AE7C20ED11CF601108271
:1012700011827C01FCE7EF0EF11C2AE030E0F7015F
:1012800020833183349710821182F601808191810D
:10129000369780839183F70180819181369780838F
:1012A00091833A961082118284E690E08E8B9F8B18
:1012B00048E552E0488F598F2CAB3DAB22E130E03E
:1012C0002EAB3FAB88AF99AF25E030E02EA73FA70C
:1012D00020E530E028AB39AB8AAB9BAB22E030E0B5
:1012E00028A739A728E730E02AA73BA78CA79DA706
:1012F000AA24A394B12CAAA2BBA28CA39DA38EA3C3
:101300009FA384E08E8786E090E08C8B9D8B81E0AC
:1013100090E00E94DD344E01F2E48F0E911CF40146
:101320006083718382839383389684E090E0808326
:101330009183BE016C5C7F4FDE01A45BBF4F86E0F2
:10134000FB0101900D928A95E1F78E010E5A1F4F15
:10135000CE010E946705F8012083318342835383C5
:1013600064837583F6018081918174978083918372
:10137000F70180819181749780839183F40160816A
:101380007181828193810E949311FE01E85AFF4F7F
:1013900060837183828393833496108211823296A4
:1013A000A082B18232968091B4259091B525808338
:1013B0009183329683E090E080839183329610820D
:1013C000118236961082118232968DE090E08083F1
:1013D00091833496108211821282138247E063E077
:1013E00086E796E20E94FA306AAD7BAD86E796E228
:1013F0000E9448316CAD7DAD86E796E20E944D318A
:1014000021E0AE0163E976E086E796E20E94613171
:1014100021E0AE016FEB7EE086E796E20E94833129
:1014200060E186E796E20E942A3160E186E796E273
:101430000E943731DF91CF911F910F91FF90EF9074
:10144000DF90CF90BF90AF909F908F900895EF92D4
:10145000FF920F931F93CF93DF931F921F92CDB7ED
:10146000DEB77C0183E090E00E948F1189839A832C
:1014700087010E571F4F22E0AE014F5F5F4F63E0C1
:10148000F801808191810E946B2AF801808191810D
:101490000E94A82AA701465B5F4F2AE230E061E084
:1014A00070E0F801808191810E947A2AF8018081A0
:1014B00091810E94A82A68EA71E68CE796E20E9470
:1014C000192E84E090E0F701848795870F900F90A4
:1014D000DF91CF911F910F91FF90EF900895AF9200
:1014E000BF92CF92DF92EF92FF920F931F93CF9311
:1014F000DF9300D01F92CDB7DEB77C018C010E5771
:101500001F4F42E063E0F801808191810E94B92A77
:10151000F801808191810E94A82AF801808191813F
:101520000E94452AFFEF29EF80E0F15020408040E3
:10153000E1F700C00000F701848595859F70892B35
:1015400009F441C022E030E044EB55E26CE070E089
:10155000C7010E942306F701E258FF4F8081918165
:10156000449728F481E090E0709780839183F7019D
:10157000E258FF4F80819181449728F080819181CA
:10158000899708F4D3C3F701E258FF4F8081918116
:10159000899728F083E090E070978083918322E020
:1015A00030E0A70142595F4F63E170E0C7010E943C
:1015B000230622E030E0A70142585F4F6EE070E062
:1015C000C7010E942306F7018485958588739927B2
:1015D000892B79F08091B4259091B5258D32914079
:1015E00044F069E270E0C7010E943306F701878585
:1015F000808BF701848595858115F2E09F0709F4BA
:10160000B6C21CF58830910509F4D2C164F4823069
:10161000910509F463C18430910509F451C0892B07
:1016200009F06FC342C08032910509F4D2C124F49D
:10163000409709F4CEC165C38034910509F483C194
:101640008115914009F455C25CC38115F7E09F07ED
:1016500009F42CC2ACF48115E4E09E0709F4C4C27D
:101660002CF48115934009F48BC24BC38115E5E03E
:101670009E0709F44AC38115964009F405C241C387
:10168000811520E2920709F4EDC22CF481159041F6
:1016900009F4B0C236C3811520E3920709F40FC3E1
:1016A0008115904409F428C32CC363E070E0C7019E
:1016B0000E94330681E090E0F7018487958725C377
:1016C000F701E45AFF4FA080B1808701025A1F4FF3
:1016D000F801C080D18046E050E062E070E0C701D0
:1016E0000E940F06FFEF29EF80E0F150204080407C
:1016F000E1F700C0000042E050E06DE070E0C7019B
:101700000E940F069FEFE9EFF0E09150E040F040BB
:10171000E1F700C0000042E050E061E070E0C70186
:101720000E940F062FEF89EF90E0215080409040FB
:10173000E1F700C0000042E050E06AE070E0C7015D
:101740000E940F06EFEFF9EF20E0E150F04020405B
:10175000E1F700C0000042E050E06BE070E0C7013C
:101760000E940F068FEF99EFE0E081509040E0403B
:10177000E1F700C00000F701EE5BFF4F608171816F
:10178000828193810E949311F701E85AFF4F608391
:101790007183828393838091B4259091B525389687
:1017A000808391837E96808191817A9780839183D3
:1017B000F801608171816C157D0539F0C7010E94C7
:1017C000690781E0F701818B60C0F701E45AFF4FA0
:1017D000608171816A157B0539F0C7010E94B106ED
:1017E00081E0F701818B51C0F701E65BFF4F8081FB
:1017F000F7019685981719F091E0918B8687F7018C
:10180000868590E0BC01660F771F680F791F660F11
:10181000771F645E7F4F6E0D7F1D86E0FB01D70151
:10182000A45BBF4F01900D928A95E1F787010E5A94
:101830001F4FC7010E946705F8012083318342834F
:10184000538364837583F701868590E0FC01EE0F76
:10185000FF1FDF01A80FB91FAA0FBB1FAE0DBF1DD1
:1018600090962D913C919197FD01468D578DA0EA60
:10187000B5E00E948D339A0140E050E00E9444336D
:10188000F701E05CFF4F20833183F7012685A70134
:10189000425B5F4FB701645B7F4FC7010E94220824
:1018A000F701818B84899589E05BFF4F208131812D
:1018B0008217930708F029C2F70184899589E05BB4
:1018C000FF4F80839183F70184899589E05CFF4F06
:1018D0008083918381E0F701818B17C2F7018289B0
:1018E0008823B1F0EC58FF4F8081918189839A83DE
:1018F0003296808191818B839C8324E030E0AE011D
:101900004F5F5F4F6FE070E0C7010E942306FDC18B
:10191000F701868590E0AC01440F551F480F591F11
:10192000440F551F445E5F4F4E0D5F1D26E030E0B3
:1019300062E070E0C7010E9423066CE070E0C7011E
:101940000E943306E2C18091B4259091B5256AE0EA
:1019500070E00E94303369837A838B839C8324E018
:1019600030E0AE014F5F5F4F6FE070E0C7010E9453
:101970002306F701E658FF4F8081918136978083D7
:10198000918338968081918136978083918381E01D
:10199000F701828B8091B4259091B52582329140D8
:1019A0000CF0B3C167E070E0C7010E943306ADC11F
:1019B0008091B4259091B5258D3291400CF4A5C14C
:1019C00069E270E0C7010E943306F7018785808BCA
:1019D0009CC1C7010E9434058FE396E20E942F2D1F
:1019E0008FE396E20E947E2D811110C0F70184855D
:1019F00095858097D1F060E170E0C7010E943306C1
:101A000080E290E0F701848795870FC0F701848515
:101A10009585409751F06EE070E0C7010E94330653
:101A200080E190E0F70184879587F701EE5BFF4F37
:101A300060817181828193810E94931169837A838D
:101A40008B839C8324E030E0AE014F5F5F4F68E002
:101A500070E0C7010E942306F701EA5BFF4F608137
:101A60007181828193810E94931169837A838B8330
:101A70009C8324E030E0AE014F5F5F4F64E170E093
:101A8000C7010E94230641C18FE396E20E94332DD5
:101A9000F701E258FF4F80819181CD9708F435C15D
:101AA00069E170E0C7010E9433062FC18FE396E21F
:101AB0000E94332DF701128A8091B4259091B525AB
:101AC000823291400CF021C181E0F701828B608964
:101AD00070E0C7010E943306F70180898E3021F043
:101AE0008089803109F011C18FE396E20E942F2D89
:101AF0000CC1F701EA5BFF4F108211821282138240
:101B00008FE396E20E942F2DF701EE59FF4F80815F
:101B100091812CEC289FB001299F700D112480E742
:101B200096E20E94C12F81E0F701838B828BE658F9
:101B3000FF4F808191813697808391833896808191
:101B400091813697808391838091B4259091B525BA
:101B50008332914034F067E270E0C7010E9433069F
:101B6000D4C067E070E0C7010E943306CEC0C70151
:101B70000E9434056EE070E0C7010E943306C5C0C4
:101B80006AE070E0C7010E94330686E796E20E9491
:101B9000223160E186E796E20E94373160E286E713
:101BA00096E20E9437318FE396E20E94332DF701CF
:101BB000138A8FE396E20E94032DF701EE5BFF4F3D
:101BC000408151816281738181E090E00E94E43420
:101BD00019821A8242E050E0BE016F5F7F4F8FE7AB
:101BE00096E20E94DA1191C06AE070E0C7010E949B
:101BF00033068BC042E050E061E170E0C7010E9413
:101C00000F06FFEF21EE84E0F15020408040E1F725
:101C100000C0000042E050E062E170E0C7010E94B5
:101C20000F069FEFE1EEF4E09150E040F040E1F765
:101C300000C00000F701E659FF4F20813181C90142
:101C4000A0E0B0E09051AF4FBF4F2227382F492F6F
:101C50005A2F00E01CE060E071E086E696E20E9408
:101C6000330353C02FEF87EA91E621508040904024
:101C7000E1F700C0000042E050E062E170E0C7011F
:101C80000E940F06F701E459FF4F208131813297FE
:101C900080819181280F391FC901A0E0B0E09051E7
:101CA000AF4FBF4F2227382F492F5A2F00E011E0A6
:101CB00060E07DE086E696E20E94330326C0F701ED
:101CC000E459FF4F20813181329780819181280F23
:101CD000391FC901A0E0B0E09051AF4FBF4F22279C
:101CE000382F492F5A2F00E011E060E07DE086E6B2
:101CF00096E20E94CE0209C086E696E20E94980310
:101D000004C086E696E20E949803F7018189882341
:101D1000A9F0A701465B5F4F2AE230E061E070E086
:101D2000C7010E942306F701118A08C082E090E0F3
:101D3000F701E259FF4F8083918325CC2496CDBFD4
:101D4000DEBFDF91CF911F910F91FF90EF90DF9059
:101D5000CF90BF90AF900895FC018685813071F4DB
:101D600086E796E20E94223160E186E796E20E94D1
:101D7000373160E286E796E20E94373108950E948B
:101D8000AC0E0895CF93DF93EC01FC01E058FF4FB8
:101D900080819181892B29F08081918101978083B5
:101DA00091838A89882309F4A9C0FE01E858FF4F6E
:101DB00080819181892B09F099C080916008909170
:101DC000610849E4489F9001499F300D1124A5EC1A
:101DD000BEE40E948D3396958795929582958F707B
:101DE00089279F70892736968083918383E796E2BF
:101DF0000E94FB2EFE01EA58FF4F80819181892BC2
:101E000009F04CC0329780819181892BD1F58C8566
:101E10009D850297A1F522E044E650E065E071E07F
:101E20008EE396E20E94A12D8EE396E20E94D52DCC
:101E300022E044E650E066E271E08EE396E20E9422
:101E4000A12D8EE396E20E94D52D22E044E650E0DB
:101E500069E471E08EE396E20E94A12D8EE396E2A2
:101E60000E94D52D22E044E650E06DE571E08EE35E
:101E700096E20E94A12D8EE396E20E94D52D1A8A49
:101E80009FC08CE390E0FE01EA58FF4F808391836E
:101E900032978081918101978083918384E690E0DD
:101EA000FE01E858FF4F80839183329780819181B2
:101EB000019780839183329780819181892B09F0EA
:101EC0004CC03296808191810A9708F046C08C857B
:101ED0009D85029709F041C04EC0FE01EA58FF4FB0
:101EE00080819181059708F44FC05CC0C858DF4FCE
:101EF000888199810A978883998362C0FE01E85896
:101F0000FF4F80819181892B01F584E690E08083E9
:101F1000918380916008909161089C01220F331F8A
:101F2000880F991F880F991F880F991F820F931F81
:101F300096958795969587959695879536968083FD
:101F4000918383E796E20E94FB2EC858DF4F888179
:101F500099810A978883998333C022E049E150E050
:101F600068EE73E08EE396E20E94A12D8EE396E286
:101F70000E94D52DBBCFFE01EC58FF4F808191818F
:101F8000892B09F4AACF0EC022E044E650E068EEA7
:101F900073E08EE396E20E94A12D8EE396E20E940A
:101FA000D52DA4CF22E042E350E068EE73E08EE34B
:101FB00096E20E94A12D8EE396E20E94D52D96CF47
:101FC000DF91CF9108950E94C20E0895FC0183898C
:101FD000882321F08FE396E20E94072D8FE396E29B
:101FE0000E940F2D8FE396E20E94172D8FE396E259
:101FF0000E941F2D8091C3239091C423FC01EE0FFA
:10200000FF1FE85EFF4D608171812091C1233091F7
:10201000C2232617370730F42F5F3F4F2093C12389
:102020003093C2232091C1233091C22362177307DA
:1020300030F4215031092093C1233093C223FC0195
:10204000EE0FFF1FE85DFF4DA081B1812091BF23FE
:102050003091C0232A173B0730F42F5F3F4F209366
:10206000BF233093C0232091BF233091C023A217F8
:10207000B30730F4215031092093BF233093C0239C
:10208000FC01EE0FFF1FE85FFF4D20813181409181
:10209000BD235091BE234217530730F44F5F5F4F6B
:1020A0004093BD235093BE234091BD235091BE2346
:1020B0002417350730F4415051094093BD23509304
:1020C000BE234091BD235091BE232417350781F5CF
:1020D0002091BF233091C023A217B30749F5209167
:1020E000C1233091C2236217730711F52091062096
:1020F00030910720232B99F401968830910529F01F
:102100008093C3239093C42304C01092C3231092DE
:10211000C42388EE93E0809306209093072080915B
:102120000620909107200197809306209093072026
:102130006091BF237091C02380E796E20E94C62F72
:102140006091C1237091C22380E796E20E94CB2F59
:102150006091BD237091BE2380E796E20E94D02F4C
:1021600008950E94E60F0895CF93DF93FC01248524
:1021700035852031310521F02032310509F093C039
:10218000EC018091480680FD78C08091BC238111CC
:102190008AC0FE01E058FF4F80819181892B09F4AC
:1021A0007DC081C08AE090E0FE01E058FF4F80834F
:1021B0009183FE9780819181A281B3810196A11DB7
:1021C000B11D80839183A283B383349680819181F2
:1021D000A281B3810196A11DB11D80839183A28349
:1021E000B3834EAD5FAD4536510550F020E042E37C
:1021F00050E064EF71E08EE396E20E94A12D09C0E9
:102200005695479520E064EF71E08EE396E20E94D8
:10221000A12D8EE396E20E94D52D8CAD9DAD009749
:1022200029F001978093200B9093210B6CAD7DAD2D
:1022300086E796E20E944D316CAD7DAD86E796E271
:102240000E9452316AAD7BAD86E796E20E9415315D
:102250008E85813049F4FFEF27E883E1F15020407B
:102260008040E1F700C00000E0E4F6E084858E7F66
:10227000848781E08093BC2316C01092BC2386E73C
:1022800096E20E94223160E186E796E20E943731B1
:1022900060E286E796E20E94373105C08E85813084
:1022A00009F0BBCF7FCFDF91CF9108950E94B4108A
:1022B0000895CF92DF92EF92FF920F931F93CF93E7
:1022C000DF937C018A0141155105B1F06B01C40E09
:1022D000D51EEB01261B370BC9018C0F9D1FB801C2
:1022E0000E941C33FC0141E0E427EE0DFF1D8991A3
:1022F0008083CC15DD0581F7DF91CF911F910F9180
:10230000FF90EF90DF90CF9008956817790708F459
:10231000CB0108958617970708F4CB0108959827F5
:102320008927982708959B01BC01C9010895089544
:102330000895EF920F931F93CF93DF93EC01E0E8A2
:10234000F6E090EB918380EC848B858B878B958373
:10235000611102C080E401C080E5011102C030E0DB
:1023600001C030E8411102C090E001C090E2220FAC
:10237000220FE22AE82AE32AE92A00EC1AE0F8010F
:10238000E08280E091E00E94A7338883998381E016
:10239000F801818382E192E180933824909339247B
:1023A000C0932E25D0932F25DF91CF911F910F91B0
:1023B000EF900895CF93DF93EC014A835B834C83C6
:1023C0005D83888199810E94D43480E18093860660
:1023D000888199814A815B819A01215031092A8340
:1023E0003B83FC01E20FF31F80818093C30ADF91DE
:1023F000CF910895FC0182819381892B79F04081EE
:10240000518122813381C901019782839383FA012B
:10241000E80FF91F80818093C30A089580E18093BB
:10242000850608950E94FA1108952CE832E2FC0115
:10243000208331830895089520EB32E2FC0120834C
:102440003183089508952EEC32E2FC01208331831C
:10245000089508951F920F920FB60F9211240BB694
:102460000F922F933F934F935F936F937F938F932D
:102470009F93AF93BF93EF93FF93E091C823F091A5
:10248000C923309729F08091BE249091BF241995DB
:10249000FF91EF91BF91AF919F918F917F916F913C
:1024A0005F914F913F912F910F900BBE0F900FBEF8
:1024B0000F901F9018951F920F920FB60F92112434
:1024C0000BB60F922F933F934F935F936F937F932E
:1024D0008F939F93AF93BF93EF93FF93E091CA23A2
:1024E000F091CB23309729F08091C0249091C124A2
:1024F0001995FF91EF91BF91AF919F918F917F912E
:102500006F915F914F913F912F910F900BBE0F9064
:102510000FBE0F901F9018951F920F920FB60F923B
:1025200011240BB60F922F933F934F935F936F93AA
:102530007F938F939F93AF93BF93EF93FF93E0911C
:10254000CC23F091CD23309729F08091C224909133
:10255000C3241995FF91EF91BF91AF919F918F91F6
:102560007F916F915F914F913F912F910F900BBE93
:102570000F900FBE0F901F9018951F920F920FB6DD
:102580000F9211240BB60F922F933F934F935F93AB
:102590006F937F938F939F93AF93BF93EF93FF932B
:1025A000E091CE23F091CF23309729F08091C4247D
:1025B0009091C5241995FF91EF91BF91AF919F9193
:1025C0008F917F916F915F914F913F912F910F90DC
:1025D0000BBE0F900FBE0F901F9018951F920F9279
:1025E0000FB60F9211240BB60F922F933F934F9378
:1025F0005F936F937F938F939F93AF93BF93EF936B
:10260000FF93E091D023F091D123309729F080916E
:10261000C6249091C7241995FF91EF91BF91AF9176
:102620009F918F917F916F915F914F913F912F91EA
:102630000F900BBE0F900FBE0F901F9018951F921A
:102640000F920FB60F9211240BB60F922F933F9358
:102650004F935F936F937F938F939F93AF93BF93AA
:10266000EF93FF93E091D223F091D323309729F099
:102670008091C8249091C9241995FF91EF91BF9141
:10268000AF919F918F917F916F915F914F913F910A
:102690002F910F900BBE0F900FBE0F901F901895AB
:1026A0001F920F920FB60F9211240BB60F922F9319
:1026B0003F934F935F936F937F938F939F93AF93CA
:1026C000BF93EF93FF93E091D423F091D5233097FC
:1026D00029F08091CA249091CB241995FF91EF9114
:1026E000BF91AF919F918F917F916F915F914F912A
:1026F0003F912F910F900BBE0F900FBE0F901F9028
:1027000018951F920F920FB60F9211240BB60F92CD
:102710002F933F934F935F936F937F938F939F93E9
:10272000AF93BF93EF93FF93E091D623F091D7231C
:10273000309729F08091CC249091CD241995FF9168
:10274000EF91BF91AF919F918F917F916F915F9129
:102750004F913F912F910F900BBE0F900FBE0F9096
:102760001F9018951F920F920FB60F9211240BB65F
:102770000F922F933F934F935F936F937F938F931A
:102780009F93AF93BF93EF93FF93E091D823F09182
:10279000D923309729F08091CE249091CF24199598
:1027A000FF91EF91BF91AF919F918F917F916F9129
:1027B0005F914F913F912F910F900BBE0F900FBEE5
:1027C0000F901F9018951F920F920FB60F92112421
:1027D0000BB60F922F933F934F935F936F937F931B
:1027E0008F939F93AF93BF93EF93FF93E091DA237F
:1027F000F091DB23309729F08091D0249091D1245F
:102800001995FF91EF91BF91AF919F918F917F911A
:102810006F915F914F913F912F910F900BBE0F9051
:102820000FBE0F901F9018951F920F920FB60F9228
:1028300011240BB60F922F933F934F935F936F9397
:102840007F938F939F93AF93BF93EF93FF93E09109
:10285000DC23F091DD23309729F08091D2249091F0
:10286000D3241995FF91EF91BF91AF919F918F91D3
:102870007F916F915F914F913F912F910F900BBE80
:102880000F900FBE0F901F9018951F920F920FB6CA
:102890000F9211240BB60F922F933F934F935F9398
:1028A0006F937F938F939F93AF93BF93EF93FF9318
:1028B000E091DE23F091DF23309729F08091D4243A
:1028C0009091D5241995FF91EF91BF91AF919F9170
:1028D0008F917F916F915F914F913F912F910F90C9
:1028E0000BBE0F900FBE0F901F9018951F920F9266
:1028F0000FB60F9211240BB60F922F933F934F9365
:102900005F936F937F938F939F93AF93BF93EF9357
:10291000FF93E091E023F091E123309729F080913B
:10292000D6249091D7241995FF91EF91BF91AF9143
:102930009F918F917F916F915F914F913F912F91D7
:102940000F900BBE0F900FBE0F901F9018951F9207
:102950000F920FB60F9211240BB60F922F933F9345
:102960004F935F936F937F938F939F93AF93BF9397
:10297000EF93FF93E091E223F091E323309729F066
:102980008091D8249091D9241995FF91EF91BF910E
:10299000AF919F918F917F916F915F914F913F91F7
:1029A0002F910F900BBE0F900FBE0F901F90189598
:1029B0001F920F920FB60F9211240BB60F922F9306
:1029C0003F934F935F936F937F938F939F93AF93B7
:1029D000BF93EF93FF93E091E423F091E5233097C9
:1029E00029F08091DA249091DB241995FF91EF91E1
:1029F000BF91AF919F918F917F916F915F914F9117
:102A00003F912F910F900BBE0F900FBE0F901F9014
:102A100018951F920F920FB60F9211240BB60F92BA
:102A20002F933F934F935F936F937F938F939F93D6
:102A3000AF93BF93EF93FF93E091E623F091E723E9
:102A4000309729F08091DC249091DD241995FF9135
:102A5000EF91BF91AF919F918F917F916F915F9116
:102A60004F913F912F910F900BBE0F900FBE0F9083
:102A70001F9018951F920F920FB60F9211240BB64C
:102A80000F922F933F934F935F936F937F938F9307
:102A90009F93AF93BF93EF93FF93E091E823F0915F
:102AA000E923309729F08091DE249091DF24199555
:102AB000FF91EF91BF91AF919F918F917F916F9116
:102AC0005F914F913F912F910F900BBE0F900FBED2
:102AD0000F901F9018951F920F920FB60F9211240E
:102AE0000BB60F922F933F934F935F936F937F9308
:102AF0008F939F93AF93BF93EF93FF93E091EA235C
:102B0000F091EB23309729F08091E0249091E1241B
:102B10001995FF91EF91BF91AF919F918F917F9107
:102B20006F915F914F913F912F910F900BBE0F903E
:102B30000FBE0F901F9018951F920F920FB60F9215
:102B400011240BB60F922F933F934F935F936F9384
:102B50007F938F939F93AF93BF93EF93FF93E091F6
:102B6000EC23F091ED23309729F08091E2249091AD
:102B7000E3241995FF91EF91BF91AF919F918F91B0
:102B80007F916F915F914F913F912F910F900BBE6D
:102B90000F900FBE0F901F9018951F920F920FB6B7
:102BA0000F9211240BB60F922F933F934F935F9385
:102BB0006F937F938F939F93AF93BF93EF93FF9305
:102BC000E091EE23F091EF23309729F08091E424F7
:102BD0009091E5241995FF91EF91BF91AF919F914D
:102BE0008F917F916F915F914F913F912F910F90B6
:102BF0000BBE0F900FBE0F901F9018951F920F9253
:102C00000FB60F9211240BB60F922F933F934F9351
:102C10005F936F937F938F939F93AF93BF93EF9344
:102C2000FF93E091F023F091F123309729F0809108
:102C3000E6249091E7241995FF91EF91BF91AF9110
:102C40009F918F917F916F915F914F913F912F91C4
:102C50000F900BBE0F900FBE0F901F9018951F92F4
:102C60000F920FB60F9211240BB60F922F933F9332
:102C70004F935F936F937F938F939F93AF93BF9384
:102C8000EF93FF93E091F223F091F323309729F033
:102C90008091E8249091E9241995FF91EF91BF91DB
:102CA000AF919F918F917F916F915F914F913F91E4
:102CB0002F910F900BBE0F900FBE0F901F90189585
:102CC0001F920F920FB60F9211240BB60F922F93F3
:102CD0003F934F935F936F937F938F939F93AF93A4
:102CE000BF93EF93FF93E091F423F091F523309796
:102CF00029F08091EA249091EB241995FF91EF91AE
:102D0000BF91AF919F918F917F916F915F914F9103
:102D10003F912F910F900BBE0F900FBE0F901F9001
:102D200018951F920F920FB60F9211240BB60F92A7
:102D30002F933F934F935F936F937F938F939F93C3
:102D4000AF93BF93EF93FF93E091F623F091F723B6
:102D5000309729F08091EC249091ED241995FF9102
:102D6000EF91BF91AF919F918F917F916F915F9103
:102D70004F913F912F910F900BBE0F900FBE0F9070
:102D80001F9018951F920F920FB60F9211240BB639
:102D90000F922F933F934F935F936F937F938F93F4
:102DA0009F93AF93BF93EF93FF93E091F823F0913C
:102DB000F923309729F08091EE249091EF24199512
:102DC000FF91EF91BF91AF919F918F917F916F9103
:102DD0005F914F913F912F910F900BBE0F900FBEBF
:102DE0000F901F9018951F920F920FB60F921124FB
:102DF0000BB60F922F933F934F935F936F937F93F5
:102E00008F939F93AF93BF93EF93FF93E091FA2338
:102E1000F091FB23309729F08091F0249091F124D8
:102E20001995FF91EF91BF91AF919F918F917F91F4
:102E30006F915F914F913F912F910F900BBE0F902B
:102E40000FBE0F901F9018951F920F920FB60F9202
:102E500011240BB60F922F933F934F935F936F9371
:102E60007F938F939F93AF93BF93EF93FF93E091E3
:102E7000FC23F091FD23309729F08091F22490916A
:102E8000F3241995FF91EF91BF91AF919F918F918D
:102E90007F916F915F914F913F912F910F900BBE5A
:102EA0000F900FBE0F901F9018951F920F920FB6A4
:102EB0000F9211240BB60F922F933F934F935F9372
:102EC0006F937F938F939F93AF93BF93EF93FF93F2
:102ED000E091FE23F091FF23309729F08091F424B4
:102EE0009091F5241995FF91EF91BF91AF919F912A
:102EF0008F917F916F915F914F913F912F910F90A3
:102F00000BBE0F900FBE0F901F9018951F920F923F
:102F10000FB60F9211240BB60F922F933F934F933E
:102F20005F936F937F938F939F93AF93BF93EF9331
:102F3000FF93E0910024F0910124309729F08091D3
:102F4000F6249091F7241995FF91EF91BF91AF91DD
:102F50009F918F917F916F915F914F913F912F91B1
:102F60000F900BBE0F900FBE0F901F9018951F92E1
:102F70000F920FB60F9211240BB60F922F933F931F
:102F80004F935F936F937F938F939F93AF93BF9371
:102F9000EF93FF93E0910224F0910324309729F0FE
:102FA0008091F8249091F9241995FF91EF91BF91A8
:102FB000AF919F918F917F916F915F914F913F91D1
:102FC0002F910F900BBE0F900FBE0F901F90189572
:102FD0001F920F920FB60F9211240BB60F922F93E0
:102FE0003F934F935F936F937F938F939F93AF9391
:102FF000BF93EF93FF93E0910424F0910524309761
:1030000029F08091FA249091FB241995FF91EF917A
:10301000BF91AF919F918F917F916F915F914F91F0
:103020003F912F910F900BBE0F900FBE0F901F90EE
:1030300018951F920F920FB60F9211240BB60F9294
:103040002F933F934F935F936F937F938F939F93B0
:10305000AF93BF93EF93FF93E0910624F091072481
:10306000309729F08091FC249091FD241995FF91CF
:10307000EF91BF91AF919F918F917F916F915F91F0
:103080004F913F912F910F900BBE0F900FBE0F905D
:103090001F9018951F920F920FB60F9211240BB626
:1030A0000F922F933F934F935F936F937F938F93E1
:1030B0009F93AF93BF93EF93FF93E0910824F09118
:1030C0000924309729F08091FE249091FF241995CE
:1030D000FF91EF91BF91AF919F918F917F916F91F0
:1030E0005F914F913F912F910F900BBE0F900FBEAC
:1030F0000F901F9018951F920F920FB60F921124E8
:103100000BB60F922F933F934F935F936F937F93E1
:103110008F939F93AF93BF93EF93FF93E0910A2414
:10312000F0910B24309729F0809100259091012592
:103130001995FF91EF91BF91AF919F918F917F91E1
:103140006F915F914F913F912F910F900BBE0F9018
:103150000FBE0F901F9018951F920F920FB60F92EF
:1031600011240BB60F922F933F934F935F936F935E
:103170007F938F939F93AF93BF93EF93FF93E091D0
:103180000C24F0910D24309729F080910225909124
:1031900003251995FF91EF91BF91AF919F918F9169
:1031A0007F916F915F914F913F912F910F900BBE47
:1031B0000F900FBE0F901F9018951F920F920FB691
:1031C0000F9211240BB60F922F933F934F935F935F
:1031D0006F937F938F939F93AF93BF93EF93FF93DF
:1031E000E0910E24F0910F24309729F0809104256E
:1031F000909105251995FF91EF91BF91AF919F9106
:103200008F917F916F915F914F913F912F910F908F
:103210000BBE0F900FBE0F901F9018951F920F922C
:103220000FB60F9211240BB60F922F933F934F932B
:103230005F936F937F938F939F93AF93BF93EF931E
:10324000FF93E0911024F0911124309729F08091A0
:103250000625909107251995FF91EF91BF91AF91A8
:103260009F918F917F916F915F914F913F912F919E
:103270000F900BBE0F900FBE0F901F9018951F92CE
:103280000F920FB60F9211240BB60F922F933F930C
:103290004F935F936F937F938F939F93AF93BF935E
:1032A000EF93FF93E0911224F0911324309729F0CB
:1032B00080910825909109251995FF91EF91BF9173
:1032C000AF919F918F917F916F915F914F913F91BE
:1032D0002F910F900BBE0F900FBE0F901F9018955F
:1032E0001F920F920FB60F9211240BB60F922F93CD
:1032F0003F934F935F936F937F938F939F93AF937E
:10330000BF93EF93FF93E0911424F091152430972D
:1033100029F080910A2590910B251995FF91EF9145
:10332000BF91AF919F918F917F916F915F914F91DD
:103330003F912F910F900BBE0F900FBE0F901F90DB
:1033400018951F920F920FB60F9211240BB60F9281
:103350002F933F934F935F936F937F938F939F939D
:10336000AF93BF93EF93FF93E0911624F09117244E
:10337000309729F080910C2590910D251995FF919A
:10338000EF91BF91AF919F918F917F916F915F91DD
:103390004F913F912F910F900BBE0F900FBE0F904A
:1033A0001F9018951F920F920FB60F9211240BB613
:1033B0000F922F933F934F935F936F937F938F93CE
:1033C0009F93AF93BF93EF93FF93E0911824F091F5
:1033D0001924309729F080910E2590910F25199589
:1033E000FF91EF91BF91AF919F918F917F916F91DD
:1033F0005F914F913F912F910F900BBE0F900FBE99
:103400000F901F9018951F920F920FB60F921124D4
:103410000BB60F922F933F934F935F936F937F93CE
:103420008F939F93AF93BF93EF93FF93E0911A24F1
:10343000F0911B24309729F080911025909111254F
:103440001995FF91EF91BF91AF919F918F917F91CE
:103450006F915F914F913F912F910F900BBE0F9005
:103460000FBE0F901F9018951F920F920FB60F92DC
:1034700011240BB60F922F933F934F935F936F934B
:103480007F938F939F93AF93BF93EF93FF93E091BD
:103490001C24F0911D24309729F0809112259091E1
:1034A00013251995FF91EF91BF91AF919F918F9146
:1034B0007F916F915F914F913F912F910F900BBE34
:1034C0000F900FBE0F901F9018951F920F920FB67E
:1034D0000F9211240BB60F922F933F934F935F934C
:1034E0006F937F938F939F93AF93BF93EF93FF93CC
:1034F000E0911E24F0911F24309729F0809114252B
:10350000909115251995FF91EF91BF91AF919F91E2
:103510008F917F916F915F914F913F912F910F907C
:103520000BBE0F900FBE0F901F9018951F920F9219
:103530000FB60F9211240BB60F922F933F934F9318
:103540005F936F937F938F939F93AF93BF93EF930B
:10355000FF93E0912024F0912124309729F080916D
:103560001625909117251995FF91EF91BF91AF9175
:103570009F918F917F916F915F914F913F912F918B
:103580000F900BBE0F900FBE0F901F9018951F92BB
:103590000F920FB60F9211240BB60F922F933F93F9
:1035A0004F935F936F937F938F939F93AF93BF934B
:1035B000EF93FF93E0912224F0912324309729F098
:1035C00080911825909119251995FF91EF91BF9140
:1035D000AF919F918F917F916F915F914F913F91AB
:1035E0002F910F900BBE0F900FBE0F901F9018954C
:1035F0001F920F920FB60F9211240BB60F922F93BA
:103600003F934F935F936F937F938F939F93AF936A
:10361000BF93EF93FF93E0912424F09125243097FA
:1036200029F080911A2590911B251995FF91EF9112
:10363000BF91AF919F918F917F916F915F914F91CA
:103640003F912F910F900BBE0F900FBE0F901F90C8
:1036500018951F920F920FB60F9211240BB60F926E
:103660002F933F934F935F936F937F938F939F938A
:10367000AF93BF93EF93FF93E0912624F09127241B
:10368000309729F080911C2590911D251995FF9167
:10369000EF91BF91AF919F918F917F916F915F91CA
:1036A0004F913F912F910F900BBE0F900FBE0F9037
:1036B0001F9018951F920F920FB60F9211240BB600
:1036C0000F922F933F934F935F936F937F938F93BB
:1036D0009F93AF93BF93EF93FF93E0912824F091D2
:1036E0002924309729F080911E2590911F25199546
:1036F000FF91EF91BF91AF919F918F917F916F91CA
:103700005F914F913F912F910F900BBE0F900FBE85
:103710000F901F9018951F920F920FB60F921124C1
:103720000BB60F922F933F934F935F936F937F93BB
:103730008F939F93AF93BF93EF93FF93E0912A24CE
:10374000F0912B24309729F080912025909121250C
:103750001995FF91EF91BF91AF919F918F917F91BB
:103760006F915F914F913F912F910F900BBE0F90F2
:103770000FBE0F901F9018951F920F920FB60F92C9
:1037800011240BB60F922F933F934F935F936F9338
:103790007F938F939F93AF93BF93EF93FF93E091AA
:1037A0002C24F0912D24309729F08091222590919E
:1037B00023251995FF91EF91BF91AF919F918F9123
:1037C0007F916F915F914F913F912F910F900BBE21
:1037D0000F900FBE0F901F9018951F920F920FB66B
:1037E0000F9211240BB60F922F933F934F935F9339
:1037F0006F937F938F939F93AF93BF93EF93FF93B9
:10380000E0912E24F0912F24309729F080912425E7
:10381000909125251995FF91EF91BF91AF919F91BF
:103820008F917F916F915F914F913F912F910F9069
:103830000BBE0F900FBE0F901F9018951F920F9206
:103840000FB60F9211240BB60F922F933F934F9305
:103850005F936F937F938F939F93AF93BF93EF93F8
:10386000FF93E0913024F0913124309729F080913A
:103870002625909127251995FF91EF91BF91AF9142
:103880009F918F917F916F915F914F913F912F9178
:103890000F900BBE0F900FBE0F901F9018951F92A8
:1038A0000F920FB60F9211240BB60F922F933F93E6
:1038B0004F935F936F937F938F939F93AF93BF9338
:1038C000EF93FF93E0913224F0913324309729F065
:1038D00080912825909129251995FF91EF91BF910D
:1038E000AF919F918F917F916F915F914F913F9198
:1038F0002F910F900BBE0F900FBE0F901F90189539
:103900001F920F920FB60F9211240BB60F922F93A6
:103910003F934F935F936F937F938F939F93AF9357
:10392000BF93EF93FF93E0913424F09135243097C7
:1039300029F080912A2590912B251995FF91EF91DF
:10394000BF91AF919F918F917F916F915F914F91B7
:103950003F912F910F900BBE0F900FBE0F901F90B5
:1039600018951F920F920FB60F9211240BB60F925B
:103970002F933F934F935F936F937F938F939F9377
:10398000AF93BF93EF93FF93E0913624F0913724E8
:10399000309729F080912C2590912D251995FF9134
:1039A000EF91BF91AF919F918F917F916F915F91B7
:1039B0004F913F912F910F900BBE0F900FBE0F9024
:1039C0001F9018951F920F920FB60F9211240BB6ED
:1039D0000F922F933F934F935F936F937F938F93A8
:1039E0009F93AF93BF93EF93FF93E0913824F091AF
:1039F0003924309729F080912E2590912F25199503
:103A0000FF91EF91BF91AF919F918F917F916F91B6
:103A10005F914F913F912F910F900BBE0F900FBE72
:103A20000F901F9018951F920F920FB60F921124AE
:103A30000BB60F922F933F934F935F936F937F93A8
:103A40008F939F93AF93BF93EF93FF93E0913A24AB
:103A5000F0913B24309729F08091302590913125C9
:103A60001995FF91EF91BF91AF919F918F917F91A8
:103A70006F915F914F913F912F910F900BBE0F90DF
:103A80000FBE0F901F9018951F920F920FB60F92B6
:103A900011240BB60F922F933F934F935F936F9325
:103AA0007F938F939F93AF93BF93EF93FF93E09197
:103AB0003C24F0913D24309729F08091322590915B
:103AC00033251995FF91EF91BF91AF919F918F9100
:103AD0007F916F915F914F913F912F910F900BBE0E
:103AE0000F900FBE0F901F9018951F920F920FB658
:103AF0000F9211240BB60F922F933F934F935F9326
:103B00006F937F938F939F93AF93BF93EF93FF93A5
:103B1000E0913E24F0913F24309729F080913425A4
:103B2000909135251995FF91EF91BF91AF919F919C
:103B30008F917F916F915F914F913F912F910F9056
:103B40000BBE0F900FBE0F901F9018951F920F92F3
:103B50000FB60F9211240BB60F922F933F934F93F2
:103B60005F936F937F938F939F93AF93BF93EF93E5
:103B7000FF93E0914024F0914124309729F0809107
:103B80003625909137251995FF91EF91BF91AF910F
:103B90009F918F917F916F915F914F913F912F9165
:103BA0000F900BBE0F900FBE0F901F9018951F9295
:103BB0000F920FB60F9211240BB60F922F933F93D3
:103BC0004F935F936F937F938F939F93AF93BF9325
:103BD000EF93FF93E0914224F0914324309729F032
:103BE00080913825909139251995FF91EF91BF91DA
:103BF000AF919F918F917F916F915F914F913F9185
:103C00002F910F900BBE0F900FBE0F901F90189525
:103C10001F920F920FB60F9211240BB60F922F9393
:103C20003F934F935F936F937F938F939F93AF9344
:103C3000BF93EF93FF93E0914424F0914524309794
:103C400029F080913A2590913B251995FF91EF91AC
:103C5000BF91AF919F918F917F916F915F914F91A4
:103C60003F912F910F900BBE0F900FBE0F901F90A2
:103C700018951F920F920FB60F9211240BB60F9248
:103C80002F933F934F935F936F937F938F939F9364
:103C9000AF93BF93EF93FF93E0914624F0914724B5
:103CA000309729F080913C2590913D251995FF9101
:103CB000EF91BF91AF919F918F917F916F915F91A4
:103CC0004F913F912F910F900BBE0F900FBE0F9011
:103CD0001F9018951F920F920FB60F9211240BB6DA
:103CE0000F922F933F934F935F936F937F938F9395
:103CF0009F93AF93BF93EF93FF93E0914824F0918C
:103D00004924309729F080913E2590913F251995BF
:103D1000FF91EF91BF91AF919F918F917F916F91A3
:103D20005F914F913F912F910F900BBE0F900FBE5F
:103D30000F901F9018951F920F920FB60F9211249B
:103D40000BB60F922F933F934F935F936F937F9395
:103D50008F939F93AF93BF93EF93FF93E0914A2488
:103D6000F0914B24309729F0809140259091412586
:103D70001995FF91EF91BF91AF919F918F917F9195
:103D80006F915F914F913F912F910F900BBE0F90CC
:103D90000FBE0F901F9018951F920F920FB60F92A3
:103DA00011240BB60F922F933F934F935F936F9312
:103DB0007F938F939F93AF93BF93EF93FF93E09184
:103DC0004C24F0914D24309729F080914225909118
:103DD00043251995FF91EF91BF91AF919F918F91DD
:103DE0007F916F915F914F913F912F910F900BBEFB
:103DF0000F900FBE0F901F9018951F920F920FB645
:103E00000F9211240BB60F922F933F934F935F9312
:103E10006F937F938F939F93AF93BF93EF93FF9392
:103E2000E0914E24F0914F24309729F08091442561
:103E3000909145251995FF91EF91BF91AF919F9179
:103E40008F917F916F915F914F913F912F910F9043
:103E50000BBE0F900FBE0F901F9018951F920F92E0
:103E60000FB60F9211240BB60F922F933F934F93DF
:103E70005F936F937F938F939F93AF93BF93EF93D2
:103E8000FF93E0915024F0915124309729F08091D4
:103E90004625909147251995FF91EF91BF91AF91DC
:103EA0009F918F917F916F915F914F913F912F9152
:103EB0000F900BBE0F900FBE0F901F9018951F9282
:103EC0000F920FB60F9211240BB60F922F933F93C0
:103ED0004F935F936F937F938F939F93AF93BF9312
:103EE000EF93FF93E0915224F0915324309729F0FF
:103EF00080914825909149251995FF91EF91BF91A7
:103F0000AF919F918F917F916F915F914F913F9171
:103F10002F910F900BBE0F900FBE0F901F90189512
:103F20001F920F920FB60F9211240BB60F922F9380
:103F30003F934F935F936F937F938F939F93AF9331
:103F4000BF93EF93FF93E0915424F0915524309761
:103F500029F080914A2590914B251995FF91EF9179
:103F6000BF91AF919F918F917F916F915F914F9191
:103F70003F912F910F900BBE0F900FBE0F901F908F
:103F800018951F920F920FB60F9211240BB60F9235
:103F90002F933F934F935F936F937F938F939F9351
:103FA000AF93BF93EF93FF93E0915624F091572482
:103FB000309729F080914C2590914D251995FF91CE
:103FC000EF91BF91AF919F918F917F916F915F9191
:103FD0004F913F912F910F900BBE0F900FBE0F90FE
:103FE0001F9018951F920F920FB60F9211240BB6C7
:103FF0000F922F933F934F935F936F937F938F9382
:104000009F93AF93BF93EF93FF93E0915824F09168
:104010005924309729F080914E2590914F2519957C
:10402000FF91EF91BF91AF919F918F917F916F9190
:104030005F914F913F912F910F900BBE0F900FBE4C
:104040000F901F9018951F920F920FB60F92112488
:104050000BB60F922F933F934F935F936F937F9382
:104060008F939F93AF93BF93EF93FF93E0915A2465
:10407000F0915B24309729F0809150259091512543
:104080001995FF91EF91BF91AF919F918F917F9182
:104090006F915F914F913F912F910F900BBE0F90B9
:1040A0000FBE0F901F9018951F920F920FB60F9290
:1040B00011240BB60F922F933F934F935F936F93FF
:1040C0007F938F939F93AF93BF93EF93FF93E09171
:1040D0006024F0916124309729F0809156259091C9
:1040E00057251995FF91EF91BF91AF919F918F91B6
:1040F0007F916F915F914F913F912F910F900BBEE8
:104100000F900FBE0F901F9018951F920F920FB631
:104110000F9211240BB60F922F933F934F935F93FF
:104120006F937F938F939F93AF93BF93EF93FF937F
:10413000E0916224F0916324309729F08091582512
:10414000909159251995FF91EF91BF91AF919F9152
:104150008F917F916F915F914F913F912F910F9030
:104160000BBE0F900FBE0F901F9018951F920F92CD
:104170000FB60F9211240BB60F922F933F934F93CC
:104180005F936F937F938F939F93AF93BF93EF93BF
:10419000FF93E0916424F0916524309729F0809199
:1041A0005A2590915B251995FF91EF91BF91AF91A1
:1041B0009F918F917F916F915F914F913F912F913F
:1041C0000F900BBE0F900FBE0F901F9018951F926F
:1041D0000F920FB60F9211240BB60F922F933F93AD
:1041E0004F935F936F937F938F939F93AF93BF93FF
:1041F000EF93FF93E0916624F0916724309729F0C4
:1042000080915C2590915D251995FF91EF91BF916B
:10421000AF919F918F917F916F915F914F913F915E
:104220002F910F900BBE0F900FBE0F901F901895FF
:104230001F920F920FB60F9211240BB60F922F936D
:104240003F934F935F936F937F938F939F93AF931E
:10425000BF93EF93FF93E0916824F0916924309726
:1042600029F080915E2590915F251995FF91EF913E
:10427000BF91AF919F918F917F916F915F914F917E
:104280003F912F910F900BBE0F900FBE0F901F907C
:1042900018951F920F920FB60F9211240BB60F9222
:1042A0002F933F934F935F936F937F938F939F933E
:1042B000AF93BF93EF93FF93E0916A24F0916B2447
:1042C000309729F080916025909161251995FF9193
:1042D000EF91BF91AF919F918F917F916F915F917E
:1042E0004F913F912F910F900BBE0F900FBE0F90EB
:1042F0001F9018951F920F920FB60F9211240BB6B4
:104300000F922F933F934F935F936F937F938F936E
:104310009F93AF93BF93EF93FF93E0916C24F09141
:104320006D24309729F0809162259091632519952D
:10433000FF91EF91BF91AF919F918F917F916F917D
:104340005F914F913F912F910F900BBE0F900FBE39
:104350000F901F9018951F920F920FB60F92112475
:104360000BB60F922F933F934F935F936F937F936F
:104370008F939F93AF93BF93EF93FF93E0916E243E
:10438000F0916F24309729F08091642590916525F4
:104390001995FF91EF91BF91AF919F918F917F916F
:1043A0006F915F914F913F912F910F900BBE0F90A6
:1043B0000FBE0F901F9018951F920F920FB60F927D
:1043C00011240BB60F922F933F934F935F936F93EC
:1043D0007F938F939F93AF93BF93EF93FF93E0915E
:1043E0007024F0917124309729F080916625909186
:1043F00067251995FF91EF91BF91AF919F918F9193
:104400007F916F915F914F913F912F910F900BBED4
:104410000F900FBE0F901F9018951F920F920FB61E
:104420000F9211240BB60F922F933F934F935F93EC
:104430006F937F938F939F93AF93BF93EF93FF936C
:10444000E0917224F0917324309729F080916825CF
:10445000909169251995FF91EF91BF91AF919F912F
:104460008F917F916F915F914F913F912F910F901D
:104470000BBE0F900FBE0F901F9018951F920F92BA
:104480000FB60F9211240BB60F922F933F934F93B9
:104490005F936F937F938F939F93AF93BF93EF93AC
:1044A000FF93E0917424F0917524309729F0809166
:1044B0006A2590916B251995FF91EF91BF91AF916E
:1044C0009F918F917F916F915F914F913F912F912C
:1044D0000F900BBE0F900FBE0F901F9018951F925C
:1044E0000F920FB60F9211240BB60F922F933F939A
:1044F0004F935F936F937F938F939F93AF93BF93EC
:10450000EF93FF93E0917624F0917724309729F090
:1045100080916C2590916D251995FF91EF91BF9138
:10452000AF919F918F917F916F915F914F913F914B
:104530002F910F900BBE0F900FBE0F901F901895EC
:104540001F920F920FB60F9211240BB60F922F935A
:104550003F934F935F936F937F938F939F93AF930B
:10456000BF93EF93FF93E0917824F09179243097F3
:1045700029F080916E2590916F251995FF91EF910B
:10458000BF91AF919F918F917F916F915F914F916B
:104590003F912F910F900BBE0F900FBE0F901F9069
:1045A00018951F920F920FB60F9211240BB60F920F
:1045B0002F933F934F935F936F937F938F939F932B
:1045C000AF93BF93EF93FF93E0917A24F0917B2414
:1045D000309729F080917025909171251995FF9160
:1045E000EF91BF91AF919F918F917F916F915F916B
:1045F0004F913F912F910F900BBE0F900FBE0F90D8
:104600001F9018951F920F920FB60F9211240BB6A0
:104610000F922F933F934F935F936F937F938F935B
:104620009F93AF93BF93EF93FF93E0917C24F0911E
:104630007D24309729F080917225909173251995EA
:10464000FF91EF91BF91AF919F918F917F916F916A
:104650005F914F913F912F910F900BBE0F900FBE26
:104660000F901F9018951F920F920FB60F92112462
:104670000BB60F922F933F934F935F936F937F935C
:104680008F939F93AF93BF93EF93FF93E0917E241B
:10469000F0917F24309729F08091742590917525B1
:1046A0001995FF91EF91BF91AF919F918F917F915C
:1046B0006F915F914F913F912F910F900BBE0F9093
:1046C0000FBE0F901F9018951F920F920FB60F926A
:1046D00011240BB60F922F933F934F935F936F93D9
:1046E0007F938F939F93AF93BF93EF93FF93E0914B
:1046F0008024F0918124309729F080917625909143
:1047000077251995FF91EF91BF91AF919F918F916F
:104710007F916F915F914F913F912F910F900BBEC1
:104720000F900FBE0F901F9018951F920F920FB60B
:104730000F9211240BB60F922F933F934F935F93D9
:104740006F937F938F939F93AF93BF93EF93FF9359
:10475000E0919624F0919724309729F080918C2550
:1047600090918D251995FF91EF91BF91AF919F91F8
:104770008F917F916F915F914F913F912F910F900A
:104780000BBE0F900FBE0F901F9018951F920F92A7
:104790000FB60F9211240BB60F922F933F934F93A6
:1047A0005F936F937F938F939F93AF93BF93EF9399
:1047B000FF93E0919824F0919924309729F080910B
:1047C0008E2590918F251995FF91EF91BF91AF9113
:1047D0009F918F917F916F915F914F913F912F9119
:1047E0000F900BBE0F900FBE0F901F9018951F9249
:1047F0000F920FB60F9211240BB60F922F933F9387
:104800004F935F936F937F938F939F93AF93BF93D8
:10481000EF93FF93E0919E24F0919F24309729F02D
:1048200080919425909195251995FF91EF91BF91D5
:10483000AF919F918F917F916F915F914F913F9138
:104840002F910F900BBE0F900FBE0F901F901895D9
:104850001F920F920FB60F9211240BB60F922F9347
:104860003F934F935F936F937F938F939F93AF93F8
:10487000BF93EF93FF93E091A024F091A124309790
:1048800029F080919625909197251995FF91EF91A8
:10489000BF91AF919F918F917F916F915F914F9158
:1048A0003F912F910F900BBE0F900FBE0F901F9056
:1048B00018951F920F920FB60F9211240BB60F92FC
:1048C0002F933F934F935F936F937F938F939F9318
:1048D000AF93BF93EF93FF93E091A224F091A324B1
:1048E000309729F080919825909199251995FF91FD
:1048F000EF91BF91AF919F918F917F916F915F9158
:104900004F913F912F910F900BBE0F900FBE0F90C4
:104910001F9018951F920F920FB60F9211240BB68D
:104920000F922F933F934F935F936F937F938F9348
:104930009F93AF93BF93EF93FF93E091A424F091E3
:10494000A524309729F080919A2590919B2519955F
:10495000FF91EF91BF91AF919F918F917F916F9157
:104960005F914F913F912F910F900BBE0F900FBE13
:104970000F901F9018951F920F920FB60F9211244F
:104980000BB60F922F933F934F935F936F937F9349
:104990008F939F93AF93BF93EF93FF93E091A624E0
:1049A000F091A724309729F080919C2590919D2526
:1049B0001995FF91EF91BF91AF919F918F917F9149
:1049C0006F915F914F913F912F910F900BBE0F9080
:1049D0000FBE0F901F9018951F920F920FB60F9257
:1049E00011240BB60F922F933F934F935F936F93C6
:1049F0007F938F939F93AF93BF93EF93FF93E09138
:104A0000A824F091A924309729F080919E259091B7
:104A10009F251995FF91EF91BF91AF919F918F9134
:104A20007F916F915F914F913F912F910F900BBEAE
:104A30000F900FBE0F901F9018951F920F920FB6F8
:104A40000F9211240BB60F922F933F934F935F93C6
:104A50006F937F938F939F93AF93BF93EF93FF9346
:104A6000E091B424F091B524309729F08091AA25E3
:104A70009091AB251995FF91EF91BF91AF919F91C7
:104A80008F917F916F915F914F913F912F910F90F7
:104A90000BBE0F900FBE0F901F9018951F920F9294
:104AA0000FB60F9211240BB60F922F933F934F9393
:104AB0005F936F937F938F939F93AF93BF93EF9386
:104AC000FF93E091B624F091B724309729F08091BC
:104AD000AC259091AD251995FF91EF91BF91AF91C4
:104AE0009F918F917F916F915F914F913F912F9106
:104AF0000F900BBE0F900FBE0F901F9018951F9236
:104B00000F920FB60F9211240BB60F922F933F9373
:104B10004F935F936F937F938F939F93AF93BF93C5
:104B2000EF93FF93E091B824F091B924309729F0E6
:104B30008091AE259091AF251995FF91EF91BF918E
:104B4000AF919F918F917F916F915F914F913F9125
:104B50002F910F900BBE0F900FBE0F901F901895C6
:104B60000E944F2DFDCF8FE796E20E9497118CE7B0
:104B700096E20E94BB2E89E796E20E94E63086E725
:104B800096E20E94C73183E796E20E946A2F80E78F
:104B900096E20E943B308EE696E20E94752B86E6F6
:104BA00096E20E94C00289E496E20E948C288FE37C
:104BB00096E20E946C2C8EE396E20E94822D8AEB94
:104BC00095E20E94260586EB95E20E94892B0895C6
:104BD00086EB95E20E948A2B8AEB95E20E942C05D7
:104BE0008EE396E20E94832D8FE396E20E946D2C65
:104BF00089E496E20E94012986E696E20E94C102BB
:104C00008EE696E20E94812B80E796E20E94473072
:104C100083E796E20E94762F86E796E20E94D331E0
:104C200089E796E20E94F2308CE796E20E94C72E56
:104C30008FE796E20E9498110895CF92DF92EF924B
:104C4000FF920F931F93F89484E6809380018FE383
:104C500096E20E946E2C86EB95E20E945D2C8EE31C
:104C600096E20E94F32D46E060E08CE796E20E9417
:104C7000FE2D68EA71E68CE796E20E943C2E21E068
:104C80004AEB55E263EE7FE08CE796E20E94552EF8
:104C900047E060E089E796E20E944F3062E17AE700
:104CA00089E796E20E94933048E060E083E796E26D
:104CB0000E94CF2E6FEF7FEF83E796E20E94132FC3
:104CC0006FEF7FEF83E796E20E94E62E45E063E018
:104CD00080E796E20E947E2F60E072E080E796E235
:104CE0000E94C12F8FE396E20E94032D8FE396E28C
:104CF0000E940B2D8FE396E20E94132D8FE396E224
:104D00000E941B2D21E04AEB55E261EB70E180E748
:104D100096E20E94D52F21E04AEB55E26FE976E05A
:104D200080E796E20E94F72F60E071E080E796E26C
:104D30000E94C62F60E072E080E796E20E94CB2FCF
:104D400060E073E080E796E20E94D02F2CE04AEB0F
:104D500055E262EA76E080E796E20E94083020E3BE
:104D60004AEB55E267EA76E080E796E20E94193066
:104D700020EC4AEB55E26CEA76E080E796E20E948E
:104D80002A3060E074E080E796E20E94992F0F2EAF
:104D9000F3E0EF2EF02D00E023E040E061E08FE74C
:104DA00096E20E94991101E020E040E06DE08EE67D
:104DB00096E20E94F92A0F2EF2E1CF2EFAE7DF2EBB
:104DC000F02DE12CFF24F39400E011E02AEB35E212
:104DD0004EE656E269E776E289E496E20E9492287E
:104DE00040E051E069E476E286E696E20E94C20283
:104DF00069E476E28AEB95E20E941C098FE396E271
:104E00000E94CE2C8AEB95E28093C0249093C1241B
:104E100086E591E18093CA239093CB2378941F91E8
:104E20000F91FF90EF90DF90CF900895CF93DF9395
:104E30001F921F92CDB7DEB70E941D262AEA36EEDA
:104E400086E991E02150304080409040D9F7000041
:104E50008FE396E20E94232D2FEF33EC89E021505F
:104E600030408040E1F700C0000019821A8242E021
:104E700050E0BE016F5F7F4F8FE796E20E94DA112C
:104E80008AEB95E20E94270A1FE08FE396E20E94D8
:104E9000792D8AEB95E20E946F0A4091B2255091DC
:104EA000B325CA0101968093B2259093B3259A0148
:104EB000A9E8B8E80E948D339695879596958795D1
:104EC00096958795189F9001199F300D11244217D0
:104ED000530741F486EB95E20E94122C8093B4258F
:104EE0009093B5258091B4259091B5258A30914055
:104EF00024F08FE396E20E94272D8091B4259091B3
:104F0000B5258F3F91050CF68FE396E20E942B2D7D
:104F1000BCCFCF93DF93EC01EC81FD818AEA8083E3
:104F2000EC81FD818CEC8183EC81FD8182E0820F3C
:104F30008283EC81FD8180E88383EC81FD81648341
:104F400085E0820F898730E02115310581F0DA0193
:104F5000420F531F65E070E09D91EC81FD81E60FEB
:104F6000F71F90836F5F7F4FA417B507A9F7DF91F5
:104F7000CF910895FC01A481B5818AEA8C93A48124
:104F8000B5818CEC11968C93A481B58183E0129647
:104F90008C93A481B58181E813968C93A481B5810B
:104FA00014966C93A481B58115964C9386E0818705
:104FB00008950F931F93CF93DF93DC011496ED9127
:104FC000FC911597AAEAA083EC01EC81FD81ACEC81
:104FD000A183EC81FD81A3E0A20FA283EC81FD817E
:104FE000A2E8A383EC81FD817483EC81FD8165835C
:104FF00066E0620F69873695279521153105E1F046
:10500000E42FF52F2D5F3F4F220F331F46E050E076
:10501000EC01AC81BD81A40FB51F61816C93AC81A3
:10502000BD81A40FB51F6081329611966C934E5FBF
:105030005F4F4217530761F7DF91CF911F910F9197
:105040000895FC01A481B5818AEA8C93A481B5817D
:105050008CEC11968C93A481B58184E012968C938C
:10506000A481B58183E813968C93A481B5811496AD
:105070007C93A481B58115966C93A481B581169615
:105080004C9387E0818708950F931F93CF93DF930D
:10509000EC01CB018A016F8378874A875B870E9486
:1050A000A7338A839B83C8010E94A7338C839D8387
:1050B00019861E82DF91CF911F910F910895CF9392
:1050C000DF93EC018A819B810E943C348C819D811D
:1050D0000E943C34DF91CF9108950895DC015B96E6
:1050E0008D919C915C97009739F0DC01ED91FC91DA
:1050F0000280F381E02D19950895DC015B968D9176
:105100009C915C97009739F0DC01ED91FC91048053
:10511000F581E02D1995089526EE32E2FC012083F9
:10512000318308956F927F928F929F92AF92BF9238
:10513000CF92DF92EF92FF920F931F93CF93DF9363
:10514000EC014B015A013901C8010F831887EA8627
:10515000FB860E94A7338A839B83C7010E94A733E3
:105160008C839D83198E1986198A1E821C8A1D8A3A
:105170001E8A1F8A87E0888B82E0888F1A8ECA8AEF
:10518000DB8AAC86BD86D501ED91FC910484F58562
:10519000E02D46EB59E2BE01C5011995D501ED910F
:1051A000FC910684F785E02D42E45AE2BE01C50178
:1051B00019956114710419F06B8E7C8E02C0CB8F2F
:1051C000DC8F8E869F868114910461F0D401ED916D
:1051D000FC910288F389E02D21E0AE016DED79E2CA
:1051E000C4011995DF91CF911F910F91FF90EF901E
:1051F000DF90CF90BF90AF909F908F907F906F90F7
:10520000089526EE32E2FC01208331830E946D284E
:105210000895CF93DF93EC01962F488950E04B30EF
:10522000510508F0A0C0FA018827E05CFE4F8F4FBF
:105230000C9485339A3A19F482E0888B94C081E00B
:10524000888B91C09C3C19F483E0888B8CC081E0F2
:10525000888B89C09E83198A1E8A1F8A84E0888B66
:1052600082C08989EA81FB81E80FF11D9083298939
:1052700030E04F8158854217530718F489E0888B36
:1052800072C02E893F892927922F92959227092E45
:10529000969596959025092E969590259770022EB5
:1052A000232F969507949795302D29270694979547
:1052B000302529272E8B3F8B89898F5F898B4989E0
:1052C0008E81481350C088E0888BE881F98150E0D6
:1052D0006A817B810190F081E02DCE0119958B8D43
:1052E0009C8D009709F43FC0DC01ED91FC914E814B
:1052F00050E06A817B810190F081E02D199533C0E7
:10530000692F70E06C8B7D8B86E0888B2CC02C899C
:105310003D89A901592B4C8B5D8B2E893F89421702
:105320005307E9F488E0888BE881F9814E8150E0E9
:105330006A817B810190F081E02DCE0119958B8DE2
:105340009C8D009781F0DC01ED91FC914E8150E045
:105350006A817B810190F081E02D199504C089E07C
:10536000888B01C01A8EDF91CF910895CF93DF9380
:10537000EC018C859D85DC01ED91FC910280F3812F
:10538000E02D1995682FCE010E940929DF91CF9158
:105390000895CF93DF93EC018E859F85DC01ED911D
:1053A000FC910480F581E02D19958889883011F0F1
:1053B0008AE0888BDF91CF9108950E94C9290895D2
:1053C000CF93DF93FC01118A1682148A158A168AFC
:1053D000178A108A86859785EC01A881B981628930
:1053E00073891296ED91FC9113971995DF91CF91E6
:1053F0000895CF93DF93EC01888D843038F48230A8
:10540000B8F5882331F08130D1F039C0853081F191
:1054100036C081E0888F198E8C859D85298DDC01B1
:10542000ED91FC91AC81BD81A20FB11D0480F5818D
:10543000E02D6C911995898D8F5F898F20C08C85A7
:105440009D85298DDC01ED91FC91AC81BD81A20F80
:10545000B11D0480F581E02D6C911995898D8F5FC8
:10546000898F998D898598130AC083E0888F07C03A
:105470008A8D882319F0CE010E94E0291A8EDF91CF
:10548000CF9108950E94F9290895FC0106C08089F2
:10549000893041F080898A3039F080898830B9F7C5
:1054A00081E0089582E0089583E00895CF93DF932B
:1054B000EC01198E188E0E94F9298E859F85DC01DA
:1054C000ED91FC916A897B890280F381E02D199529
:1054D000DF91CF910895CF93DF93EC01E881F981BB
:1054E0000284F385E02D1995CE010E94562ADF91A2
:1054F000CF910895CF93DF93EC01E881F981068481
:10550000F785E02D1995CE010E94562ADF91CF91A3
:105510000895CF93DF93EC01E881F9810484F58548
:10552000E02D1995CE010E94562ADF91CF91089562
:10553000CF93DF93EC01E881F98150E00088F18995
:10554000E02D1995CE010E94562ADF91CF91089542
:10555000FC0106C0808D843041F0808D853039F0AB
:10556000808D8330B9F781E0089582E0089583E06B
:10557000089521E0FC01228F0E94892A089521E0EC
:10558000FC01228F0E94982A08950F931F93CF93B6
:10559000DF938C01EB019881913869F4D801ED918A
:1055A000FC910480F581E02D2A81AB014D5F5F4FB6
:1055B0006981C80119959881933899F4D801ED91C2
:1055C000FC912B8130E0AE014C5F5F4F698170E050
:1055D000762F66278A81682B0280F381E02DC8012F
:1055E0001995DF91CF911F910F9108950E94C52ABF
:1055F00008950F93E0E6F6E088E0818384E08283FB
:10560000128A138AE0EAF9E084E1838388E18483E3
:1056100084818483413019F0423019F004C080E263
:1056200003C080E301C080E0222319F0213019F08B
:1056300003C0877F01C08860011102C093E401C0EC
:1056400093E0892BE0EAF9E0858370E0DB01AE5A54
:10565000BD4D8C918683DB01AE5CBD4D8C918295F6
:10566000807F87830F9108958091A00908956093AA
:10567000A00908958091A10986FB882780F991E00F
:10568000892708958091A1098095881F8827881F00
:1056900008958091A10985FB882780F991E08927E9
:1056A000089560936C2570936D25409376245093F4
:1056B00077240895609370257093712540937A2420
:1056C00050937B240895FB018BE6838380EA8087D7
:1056D00089E0818712860895FB018CE6838380EA46
:1056E000848789E0858716860895CF93DF93EC0140
:1056F0000E9423128CEF92E288839983DF91CF91ED
:1057000008952CEF32E2FC01208331830E9429129C
:10571000089508950895E0E6F6E080E88183A7E221
:10572000BFE01197F1F700C00000828387E092E0AC
:105730000197F1F700C000008085AFE1BDE011974F
:10574000F1F700C000008095881F8827881F089502
:10575000CF93DF9380E090E0C1E0D0E070E0E0E63E
:10576000F6E040E89E01082E02C0220F331F0A9483
:10577000E2F7D901A623B7232A173B0769F441832F
:1057800025E12A95F1F700004283A7E0B2E01197E6
:10579000F1F700C000000CC04183A7E0B2E0119710
:1057A000F1F700C000004283B5E3BA95F1F70000BD
:1057B000019688309105B1F6DF91CF91089520E0F0
:1057C00030E080E0E0E6F6E090E861E070E09183B0
:1057D00045E14A95F1F700009283AAE6AA95F1F710
:1057E00000C04085442354F0AB01022E02C0440F98
:1057F000551F0A94E2F74095842308C0AB01022E9E
:1058000002C0440F551F0A94E2F7842BAFE8B1E0C1
:105810001197F1F700C000002F5F3F4F283031058E
:10582000B1F608951F93CF93DF93EC018A8188230B
:1058300091F0CE010E948B2B882359F06CECCE01A5
:105840000E94A82B64E4CE010E94A82B81E08B83E8
:105850002AC01B8228C08B81882329F1CE010E9497
:105860008B2B6CECCE010E94A82B6EEBCE010E941C
:10587000A82BCE010E94DF2B182FCE010E94DF2B18
:10588000612F70E0782B072E000C880B990B0E947B
:10589000133220E030E040E25FE30E9477320E9462
:1058A000DB31688379839A8181E089278A838881C3
:1058B0009981DF91CF911F910895FC01A0E6B6E098
:1058C00080E816968C93169757961C921082118238
:1058D000138281E08283089508950895CF93DF9322
:1058E000EC01E0E4F6E0118298EA908B918B928BC8
:1058F000938B948B958B968B978B8FEF8483A0E8FB
:10590000B6E098E011969C93119753961C9253978A
:1059100014961C921497E0EAF6E090EC908B20E845
:10592000218B228B238B948B958B968B978B148258
:105930008183E0E6F6E081E18183908B948B158A88
:10594000148287E011968C93119750962C93509760
:1059500051962C93519752962C93529714961C92D1
:10596000E0EAF0E0828181608283828182608283CA
:10597000828184608283FE019E01285F3F4F91E017
:105980009193E217F307E1F783E08887E0E4F6E01C
:1059900081E082878187DF91CF910895E0E5F0E093
:1059A0008BEC8283808188608083818183FFFDCF3F
:1059B000E0E5F0E0858198ED94BF84EC85838081FB
:1059C00080618083E0E4F0E0818194BF1182E0E5B2
:1059D000F0E0818184FFFDCFE0E4F0E08081887F0A
:1059E000846098ED94BF8083A0E5B0E08C91887FBF
:1059F0008C93828194BF81E08283E0EBF0E084812C
:105A00008C7F8483089584E080938506089584E0E4
:105A100080938606089582E08093A506089582E02B
:105A20008093A606089584E08093A506089584E0F7
:105A30008093A606089588E08093A506089588E0DF
:105A40008093A606089581E080936206089580E120
:105A500080936206089580E180936106089582E054
:105A600080938506089582E0809386060895F894D1
:105A700084E690E0E0E8F6E028E02583AFE9BFE0C7
:105A80001197F1F700C000002683AFE9BFE011973E
:105A9000F1F700C00000019781F778940895F89419
:105AA00045E050E064E630E0E0E8F6E028E01CC0C5
:105AB0002583AFE9BFE01197F1F700C0000026830E
:105AC000AFE9BFE01197F1F700C00000019781F73F
:105AD000BFEF73EC89E0B15070408040E1F700C047
