S01900004154786D6567614C6173657244696F64652E7372656388
S11300000C949F020C944C0B0C947D0B0C94AE0B33
S11300100C94DF0B0C94100C0C94410C0C94720C8B
S11300200C94A30C0C94D40C0C94050D0C94360D68
S11300300C94670D0C94980D0C94C90D0C94FA0D46
S11300400C942B0E0C945C0E0C948D0E0C94BE0E22
S11300500C94EF0E0C94200F0C94510F0C94820FFF
S11300600C94B30F0C94E40F0C9415100C944610DC
S11300700C9477100C94A8100C94D9100C940A11B9
S11300800C943B110C946C110C949D110C94CE1196
S11300900C94FF110C9430120C9461120C94921273
S11300A00C94C3120C94F4120C9425130C94561350
S11300B00C9487130C94B8130C94E9130C941A142D
S11300C00C944B140C947C140C94AD140C94DE140A
S11300D00C940F150C9440150C9471150C94A215E6
S11300E00C94D3150C9404160C9435160C946616C3
S11300F00C9497160C94C8160C94F9160C942A17A1
S11301000C945B170C948C170C94BD170C94EE177D
S11301100C941F180C9450180C9481180C94B21859
S11301200C94E3180C9414190C9445190C94D002F3
S11301300C94D0020C9476190C94A7190C94D81929
S11301400C94091A0C943A1A0C946B1A0C949C1A79
S11301500C94CD1A0C94FE1A0C942F1B0C94601B57
S11301600C94911B0C94C21B0C94F31B0C94241C34
S11301700C94551C0C94861C0C94D0020C94D00244
S11301800C94D0020C94D0020C94D0020C94D002A3
S11301900C94D0020C94D0020C94D0020C94D00293
S11301A00C94B71C0C94E81C0C94D0020C94D00250
S11301B00C94191D0C944A1D0C947B1D0C94AC1DBD
S11301C00C94DD1D0C940E1E0C94D0020C94D002E1
S11301D00C94D0020C94D0020C94D0020C943F1EC8
S11301E00C94701E0C94A11E0C94D0020C94D0029A
S11301F00C94D0020C94D0020C94D002E6031D049B
S11302001D041D041D041D041D04E90320041D0414
S1130210ED031D04F1031D04F5031D04F9031D047E
S113022020041D0420041D04FD0301040504090425
S113023015041D040D041D0419041D041D041D04CE
S11302401D041D041D041104440448044C045004FA
S1130250540459045F046504D804700476047C04CF
S1130260820488048E0494049A04A0040108A40956
S11302707C080A08A4099C089C08BE08C808FE0853
S11302802109570983099F09F321F321FB21032243
S11302900A22592260228C228C228B228B220C94DB
S11302A048040C94F5270C947A280C94012A0C9495
S11302B0F0290C94BB270C94A4090C940A080C9400
S11302C07F280C9438210C9401040C9430290C944C
S11302D0ED030C9422270C943F060C94FE080C9416
S11302E0C7270C940D240C941B230C94FD030C942D
S11302F076040C94AA270C942C2A0C941A2A0C9495
S11303000B2A0C94C2270C9457290C9457090C946B
S1130310D8040C94DE280C94F9260C947E270C94B3
S113032004290C949A040C947C080C94C8080C942A
S1130330D2230C94340B0C94502A0C94E6030C94A2
S113034050060C9415040C94F3210C9434270C944B
S113035044040C94E9030C9445240C94D21E0C948C
S1130360FE260C9421090C9495270C948C220C9451
S1130370CF260C9470040C94F8290C941B290C942B
S113038059040C9419040C94C2260C9447060C943A
S113039052290C9421040C949C080C94F5030C949D
S11303A02D280C943E2A0C94FB210C945D280C946B
S11303B0A7260C94A2270C94021F0C94CC270C940F
S11303C0BE080C9433240C94FA200C94B3290C9496
S11303D0F1030C9410270C9407280C94B4270C9464
S11303E058270C947B290C9494040C941B240C948F
S11303F062200C94BA280C94EF260C943C240C94A0
S113040088040C9475280C9405040C944C040C94E6
S113041010240C9469290C948D290C9460220C945A
S113042020040C94B6220C941D040C94A8280C945B
S1130430EA260C94622A0C94C9030C9483090C9444
S113044048280C9446270C94E3270C947C040C94C1
S113045070280C9448290C94D1270C944D290C94A1
S1130460102A0C9450040C9411040C9441290C94FB
S1130470E3290C94742A0C9484280C94DE260C949E
S1130480152A0C948E040C943A290C9443060C946B
S1130490F9030C94D51E0C9456210C9455280C94F5
S11304A0C8030C9422240C9493200C94A0040C9460
S11304B0CF230C9447210C949F090C94E9290C94A4
S11304C013240C942A240C94B2200C948F220C94A0
S11304D03C060C9401080C9465040C9459220C9469
S11304E0CC280C94F4260C9403220C9428290C9404
S11304F00D040C94CE290C9482040C946B280C9457
S11305005F040C941D210C9409040C94DB290C94B5
S1130510D7260C949F070C94770A0C948B220C9486
S11305200A220C94062A0C9496280C94E5260C9422
S113053064280C9454044706D51E5006021F112447
S11305401FBECFEFCDBFDFE3DEBF00E00CBF11E283
S1130550A0E0B0E2E4E3FBE500E00BBF02C00790DB
S11305600D92A239B107D9F724E2A2E9B1E201C0A0
S11305701D92AA33B207E1F712E0CDE9D2E000E020
S113058006C021970109802FFE010E94302CCB392F
S1130590D10780E00807A9F70E94DB1F0C94882D7F
S11305A00C94000008950895FC0162837383942FD2
S11305B0852F8483958346835783108211820895FF
S11305C08F929F92AF92BF92EF92FF920F931F93DD
S11305D0CF93DF93CDB7DEB72A97CDBFDEBF7C01C3
S11305E08AE5898380E58A83852E9924AA24BB24FD
S11305F0B22FAA279927882788299929AA29BB29AC
S113060049015A018824AA24BB24BA2CA92C982C69
S1130610882488299929AA29BB2949015A018824AF
S11306209924BB24892C9A2CAB2CBB248829992986
S1130630AA29BB298B839C83AD83BE837627672736
S113064076276F83788710270127102709871A8751
S11306502AE0AE014F5F5F4F66E5F7018281938127
S11306600E944423F701828193810E9481232A9668
S1130670CDBFDEBFDF91CF911F910F91FF90EF901F
S1130680BF90AF909F908F9008958F929F92AF925A
S1130690BF92EF92FF920F931F93CF93DF93CDB747
S11306A0DEB72A97CDBFDEBF7C018AE5898380EA65
S11306B08A83852E9924AA24BB24B22FAA2799279A
S11306C0882788299929AA29BB2949015A018824FC
S11306D0AA24BB24BA2CA92C982C882488299929CB
S11306E0AA29BB2949015A0188249924BB24892CAD
S11306F09A2CAB2CBB2488299929AA29BB298B8342
S11307009C83AD83BE837627672776276F8378879C
S113071010270127102709871A872AE0AE014F5FA7
S11307205F4F66E5F701828193810E944423F701BC
S1130730828193810E9481232A96CDBFDEBFDF91FF
S1130740CF911F910F91FF90EF90BF90AF909F902A
S11307508F9008950F931F93CF93DF931F92CDB77C
S1130760DEB78C01198221E0AE014F5F5F4F66E571
S1130770FC01828193810E944423F8018281938148
S11307800E9481230F90DF91CF911F910F910895C3
S11307900895DC01633031F4FA0181811E968C9353
S11307A01E9706C0663521F4FA0180818093922158
S11307B01E964C911E9750E046325105F0F5FA0111
S11307C08827E250FF4F8F4F0C94302C1C961C92BC
S11307D0089582E01C968C93089583E01C968C9374
S11307E0089584E01C968C93089585E01C968C9360
S11307F0089586E01C968C93089589E01C968C934A
S1130800089589E01C968C93089588E01C968C9337
S1130810089587E01C968C9308958BE01C968C9326
S113082008958CE01C968C9308958AE01C968C9312
S113083008958DE01C968C93089581E01C968C930A
S11308400895CF92DF92EF92FF920F931F93CF936D
S1130850DF936C01EB018A017901FA0180819181B6
S11308600E94A60A9C01F2E0EF16F10409F06EC0A2
S1130870FE013197E231F10508F09AC08827EC5D5A
S1130880FE4F8F4F0C94302CF60127AB30AF90C045
S1130890F60121AF32AF8CC0F60123AF34AF88C06C
S11308A0F60125AF36AF84C0F601FF96208331836D
S11308B07FC0F601EF5BFF4F2083318379C0F601DF
S11308C0ED5BFF4F2083318373C0F601EB5BFF4F79
S11308D0C901A0E0B0E080839183A283B38368C0A0
S11308E0F601E75BFF4F2083318362C0F601E55BCD
S11308F0FF4F208331835CC0F601E35BFF4F20830D
S1130900318356C0F601E15BFF4F2083318350C031
S1130910F601EF5AFF4F208331834AC0F601ED5AA6
S1130920FF4F2083318344C0F601EB5AFF4F2083ED
S113093031833EC0F601E95AFF4F2083318338C02A
S1130940F601E75AFF4F2083318332C0C130D1050D
S113095049F420E030E0A701B801C601C7960E941F
S11309607A0A26C0C530D10549F420E030E0A70159
S1130970B801C60189960E947A0A1AC02297C1F466
S1130980F6018585863090F490E09C01220F331F98
S1130990820F931F880F991F419620E030E0A70132
S11309A0B8018C0D9D1D0E947A0A02C00E94E025A8
S11309B0DF91CF911F910F91FF90EF90DF90CF9037
S11309C008952BE430E2FC012083318308952BE465
S11309D030E2FC01208331830E9446210895EF9286
S11309E0FF920F931F93CF93DF931F921F92CDB764
S11309F0DEB77C0183E090E00E94A60A89839A8393
S1130A00870107591F4F22E0AE014F5F5F4F63E03C
S1130A10F801808191810E944423F80180819181B1
S1130A200E948123A701495C5F4F26E230E061E028
S1130A3070E0F801808191810E945323F801808144
S1130A4091810E94812383E0F70184870F900F90A6
S1130A50DF91CF911F910F91FF90EF9008954F92E6
S1130A605F926F927F928F929F92AF92BF92CF923A
S1130A70DF92EF92FF920F931F93CF93DF9300D0F7
S1130A8000D0CDB7DEB77C018B01FB018080918063
S1130A9088EE93E0B4010E94DB2B5B012281338159
S1130AA0A8EEB3E00E94382C950140E050E00E948B
S1130AB0EF2B29013A01F801C480D5808AE698E138
S1130AC0B4010E94DB2B8B01000F111F660F771FEF
S1130AD0660F771F660F771F060F171FF70107A70B
S1130AE010ABD801A30192010E94472C28EE33E0F9
S1130AF040E050E00E94EF2B021B130BF70101AB07
S1130B0012ABA3AAB4AA88EC8C9D90018D9D300DE4
S1130B1011243695279536952795ABE7B4E10E94C5
S1130B20382C8C011695079509831A839601A8EC35
S1130B30B0E00E94382C9B01AC01C301B2010E94B9
S1130B40CB2B20EA36E841E050E00E94EF2B122F35
S1130B50822F932F8B839C83C301B2012AE030E060
S1130B6040E050E00E94EF2B622F822F932F8D8361
S1130B709E83202F3A81412F5C817E8180E090E02A
S1130B802696CDBFDEBFDF91CF911F910F91FF90CD
S1130B90EF90DF90CF90BF90AF909F908F907F9019
S1130BA06F905F904F900895CF93DF93EC01C759F6
S1130BB0DF4F888199810E949823888199810E94BE
S1130BC08123888199810E941E23DF91CF9108950A
S1130BD0CF93DF93EC01C759DF4F888199810E943D
S1130BE05323888199810E948123DF91CF910895B5
S1130BF00F931F93CF93DF931F921F92CDB7DEB74E
S1130C008C01CB010E94A60A89839A8307591F4F3E
S1130C1022E0AE014F5F5F4F63E0F8018081918174
S1130C200E944423F801808191810E9481230F90C6
S1130C300F90DF91CF911F910F910895FC0143A96B
S1130C4054A94536510550F020E042E350E068EEE7
S1130C5073E085EF93E20E944A2609C056954795B2
S1130C6020E068EE73E085EF93E20E944A2685EF68
S1130C7093E20E947E2608950E941E06089584E051
S1130C8080938606089584E080938506089586E916
S1130C9091E20E946A2783E991E20E94862A0895DC
S1130CA083E991E20E94922A86E991E20E947627E2
S1130CB00895EF92FF920F931F93CF93DF93EC016C
S1130CC0FC01E759FF4F6083718346E060E086E9E9
S1130CD091E20E94A72668EA71E686E991E20E9401
S1130CE0E52621E0AE0167E77AE086E991E20E9419
S1130CF0FE2668EA71E686E991E20E94C2261E8613
S1130D001F8681E0888B7E0183E6E80EF11CF701E3
S1130D10108211828E010B591F4F25E030E0F8013B
S1130D2020833183349710821182F701808191816D
S1130D30369780839183F8018081918136978083EF
S1130D4091838AE090E089A79AA782E390E08BA739
S1130D509CA784E690E08DA79EA72BA33CA38DA31C
S1130D609EA38FA398A722E030E02D8F3E8F28EC1E
S1130D7030E02F8F38A389A39AA321E030E02F8B92
S1130D80388F20E931E0298F3A8F8B8F9C8F84E054
S1130D908D8784E090E08FAB98AFBE01675D7F4F95
S1130DA0DE01D99686E0FB0101900D928A95E1F768
S1130DB0CE010E942F052FAFFE01E05CFF4F308370
S1130DC03196408331965083319660833196708397
S1130DD0F70180819181709780839183F8018081EC
S1130DE0918170978083918360E876E988E990E047
S1130DF00E94AA0AFE01EB5BFF4F6083718382832A
S1130E009383349610821182329610821182329624
S1130E10809187239091882380839183329686E002
S1130E2090E08083918332961082118236961082EC
S1130E30118232968DE090E08083918347E063E0F5
S1130E4083E991E20E94B3296FA578A983E991E22D
S1130E500E94012A69A97AA983E991E20E94062ADB
S1130E6069A97AA983E991E20E940B2A21E0AE01E3
S1130E706CE376E083E991E20E943E2A60E183E933
S1130E8091E20E94E32960E283E991E20E94E3296E
S1130E9060E183E991E20E94F02960E283E991E252
S1130EA00E94F029DF91CF911F910F91FF90EF9055
S1130EB00895CF93DF93FC01948595509230C8F543
S1130EC0EF018091480680FD22C08091062088238E
S1130ED099F181A992A9009729F001978093200B99
S1130EE09093210B69A97AA983E991E20E94062AC9
S1130EF069A97AA983E991E20E940B2A6FA578A9CE
S1130F0083E991E20E94CE291092062015C083E95C
S1130F1091E20E94DB2960E183E991E20E94F029D9
S1130F2060E283E991E20E94F02981E08093062047
S1130F3003C081E080930620DF91CF9108950E9441
S1130F4059070895EF92FF920F931F93CF93DF9366
S1130F5000D01F92CDB7DEB77C018C0107591F4F1B
S1130F6042E063E0F801808191810E949223F801BC
S1130F70808191810E948123F801808191810E9466
S1130F801E23FFEF21EE84E0F15020408040E1F782
S1130F9000C0000022E030E047E853E26CE070E07B
S1130FA0C7010E94E805A70149595F4F22E030E0DC
S1130FB06EE070E0C7010E94E80542E050E06DE099
S1130FC070E0C7010E94D405F701E15BFF4F808107
S1130FD091812AEA289FB001299F700D112487E28C
S1130FE094E20E944D29F701848590E08E309105AA
S1130FF008F0AAC1FC018827EA5CFE4F8F4F0C94CD
S1131000302C63E070E0C7010E94F80581E0F7012D
S113101084879EC146E050E062E070E0C7010E9410
S1131020D405FFEF21EE84E0F15020408040E1F749
S113103000C0000042E050E061E070E0C7010E949F
S1131040D4059FEFE1EEF4E09150E040F040E1F789
S113105000C00000F70187A99585981719F091E061
S113106097878587F701858590E0BC01660F771F18
S1131070680F791F660F771F6F5E7F4F6E0D7F1DA0
S1131080C7010E942F05F70127AFE05CFF4F3083B3
S113109031964083319650833196608331967083C4
S11310A0F701858590E0AC01440F551FFA01E80F64
S11310B0F91FEE0FFF1FEE0DFF1D25893689F7017D
S11310C025AB36AB480F591F440F551F4F5E5F4F7A
S11310D04E0D5F1D26E030E062E070E0C7010E9423
S11310E0E80526E030E0A701415C5F4F65E070E071
S11310F0C7010E94E8052CC1F70180898823B1F05B
S1131100E35AFF4F8081918189839A83329680814B
S113111091818B839C8324E030E0AE014F5F5F4F6D
S11311206FE070E0C7010E94E80512C16AE070E058
S1131130C7010E94F8050CC186EF93E20E9427269E
S113114081110EC0F7018485863009F401C160E184
S113115070E0C7010E94F80586E0F7018487F8C0B3
S1131160F7018485853009F4F3C06EE070E0C701AF
S11311700E94F80585E0F7018487EAC086EF93E2D0
S11311800E94D8256CE070E0C7010E94F805E0C019
S1131190F70185A996A9AC015695542F4427579574
S11311A04795982F8827990F480F591F9A01A1E155
S11311B0B4E00E94382C481B590B56954795840F70
S11311C0951F96958795929582958F7089279F7024
S11311D08927880F991F880F991F89839A8342E072
S11311E050E0BE016F5F7F4F80E394E20E94FC0AEF
S11311F06EE070E0C7010E94F805AAC06AE070E0E2
S1131200C7010E94F80583E991E20E94DB2960E1AD
S113121083E991E20E94F02960E283E991E20E946D
S1131220F02986EF93E20E94DC2519821A8242E0BB
S113123050E0BE016F5F7F4F80E394E20E94FC0A9E
S113124087C042E050E061E170E0C7010E94D4052C
S1131250FFEF21EE84E0F15020408040E1F700C030
S1131260000042E050E062E170E0C7010E94D40552
S11312709FEFE1EEF4E09150E040F040E1F700C070
S1131280000020E030E0F701E95AFF4F3081C90146
S1131290A0E0B0E09C01AD0140575F4F00E01CE0CE
S11312A060E071E08DE194E20E94450351C02FEFAC
S11312B087EA91E6215080409040E1F700C00000A9
S11312C042E050E062E170E0C7010E94D405F701FA
S11312D0E75AFF4F20813181329780819181280F15
S11312E0391F322F2227C901A0E0B0E09C01AD01D3
S11312F040575F4F00E011E060E07DE08DE194E253
S11313000E94450325C0F701E75AFF4F2081318130
S1131310329780819181280F391F322F2227C901EA
S1131320A0E0B0E09C01AD0140575F4F00E011E048
S113133060E07DE08DE194E20E94E00209C08DE16D
S113134094E20E94AA0304C08DE194E20E94AA03DD
S1131350F70187858823B1F0858590E0AC01440FBF
S1131360551F480F591F440F551F4F5E5F4F4E0DB9
S11313705F1D26E030E062E070E0C7010E94E805EE
S1131380F70117862496CDBFDEBFDF91CF911F9161
S11313900F91FF90EF900895CF93DF93EC0188892C
S11313A0882309F47EC0FE01EF59FF4F80819181AB
S11313B0892B09F06EC08091600890916108969520
S11313C0879596958795969587953696808391838C
S11313D08AE294E20E94AA27FE01E15AFF4F80812B
S11313E09181892B09F048C0329780819181892BA2
S11313F0B1F5188A22E044E650E065E071E085EF3B
S113140093E20E944A2685EF93E20E947E2622E020
S113141044E650E066E271E085EF93E20E944A26DA
S113142085EF93E20E947E2622E044E650E069E4E0
S113143071E085EF93E20E944A2685EF93E20E94D1
S11314407E2622E044E650E06DE571E085EF93E20C
S11314500E944A2685EF93E20E947E2645C08CE3D3
S113146090E0FE01E15AFF4F80839183329780819F
S1131470918101978083918384E690E0FE01EF5986
S1131480FF4F80839183329780819181019780837C
S11314909183CF59DF4F888199810A9788839983F3
S11314A023C0FE01EF59FF4F80819181892BA9F45C
S11314B084E690E080839183809160089091610834
S11314C09695879596958795969587953696808374
S11314D091838AE294E20E94AA27CF59DF4F888140
S11314E099810A9788839983DF91CF9108950E9407
S11314F0CC090895CF92DF92EF92FF920F931F933E
S1131500CF93DF937C018A0141155105B1F06B0142
S1131510C40ED51EEB01261B370BC9018C0F9D1F72
S1131520B8010E94DB2BFC0141E0E427EE0DFF1D16
S113153089918083CC15DD0581F7DF91CF911F91CF
S11315400F91FF90EF90DF90CF900895982789270F
S1131550982708959B01BC01C90108950895089531
S1131560EF920F931F93CF93DF93EC01E0E8F6E043
S113157090EB918380EC848B858B878B95836111B1
S113158002C080E401C080E5011102C030E001C066
S113159030E8411102C090E001C090E2220F220F16
S11315A0E22AE82AE32AE92A00EC1AE0F801E082B8
S11315B080E091E00E94522C8883998381E0F801B5
S11315C0818384E39BE080930B2290930C22C0934D
S11315D00123D0930223DF91CF911F910F91EF90BC
S11315E00895FC01808191810E94E72CE0ECFAE0EF
S11315F080818F7B80830895CF93DF93EC014A83AE
S11316005B834C835D83888199810E947F2D80E177
S113161080938606888199814A815B819A01215051
S113162031092A833B83FC01E20FF31F80818093FD
S1131630C30ADF91CF910895FC0182819381892BA4
S113164079F04081518122813381C90101978283DC
S11316509383FA01E80FF91F80818093C30A0895E8
S113166080E18093850608950E941C0B089521E66D
S113167030E2FC01208331830895089525E830E2A7
S1131680FC01208331830895089523EA30E2FC01AC
S113169020833183089508951F920F920FB60F92FD
S11316A011240BB60F922F933F934F935F936F9335
S11316B07F938F939F93AF93BF93EF93FF93E091A7
S11316C09B21F0919C21309729F080919122909157
S11316D092221995FF91EF91BF91AF919F918F91B4
S11316E07F916F915F914F913F912F910F900BBE1E
S11316F00F900FBE0F901F9018951F920F920FB668
S11317000F9211240BB60F922F933F934F935F9335
S11317106F937F938F939F93AF93BF93EF93FF93B5
S1131720E0919D21F0919E21309729F080919322A0
S1131730909194221995FF91EF91BF91AF919F9150
S11317408F917F916F915F914F913F912F910F9066
S11317500BBE0F900FBE0F901F9018951F920F9203
S11317600FB60F9211240BB60F922F933F934F9302
S11317705F936F937F938F939F93AF93BF93EF93F5
S1131780FF93E0919F21F091A021309729F080915F
S11317909522909196221995FF91EF91BF91AF9167
S11317A09F918F917F916F915F914F913F912F9175
S11317B00F900BBE0F900FBE0F901F9018951F92A5
S11317C00F920FB60F9211240BB60F922F933F93E3
S11317D04F935F936F937F938F939F93AF93BF9335
S11317E0EF93FF93E091A121F091A221309729F08A
S11317F080919722909198221995FF91EF91BF9132
S1131800AF919F918F917F916F915F914F913F9194
S11318102F910F900BBE0F900FBE0F901F90189535
S11318201F920F920FB60F9211240BB60F922F93A3
S11318303F934F935F936F937F938F939F93AF9354
S1131840BF93EF93FF93E091A321F091A4213097EC
S113185029F08091992290919A221995FF91EF9104
S1131860BF91AF919F918F917F916F915F914F91B4
S11318703F912F910F900BBE0F900FBE0F901F90B2
S113188018951F920F920FB60F9211240BB60F9258
S11318902F933F934F935F936F937F938F939F9374
S11318A0AF93BF93EF93FF93E091A521F091A6210D
S11318B0309729F080919B2290919C221995FF9159
S11318C0EF91BF91AF919F918F917F916F915F91B4
S11318D04F913F912F910F900BBE0F900FBE0F9021
S11318E01F9018951F920F920FB60F9211240BB6EA
S11318F00F922F933F934F935F936F937F938F93A5
S11319009F93AF93BF93EF93FF93E091A721F0913F
S1131910A821309729F080919D2290919E221995BB
S1131920FF91EF91BF91AF919F918F917F916F91B3
S11319305F914F913F912F910F900BBE0F900FBE6F
S11319400F901F9018951F920F920FB60F921124AB
S11319500BB60F922F933F934F935F936F937F93A5
S11319608F939F93AF93BF93EF93FF93E091A9213C
S1131970F091AA21309729F080919F229091A02282
S11319801995FF91EF91BF91AF919F918F917F91A5
S11319906F915F914F913F912F910F900BBE0F90DC
S11319A00FBE0F901F9018951F920F920FB60F92B3
S11319B011240BB60F922F933F934F935F936F9322
S11319C07F938F939F93AF93BF93EF93FF93E09194
S11319D0AB21F091AC21309729F08091A122909114
S11319E0A2221995FF91EF91BF91AF919F918F9191
S11319F07F916F915F914F913F912F910F900BBE0B
S1131A000F900FBE0F901F9018951F920F920FB654
S1131A100F9211240BB60F922F933F934F935F9322
S1131A206F937F938F939F93AF93BF93EF93FF93A2
S1131A30E091AD21F091AE21309729F08091A3225D
S1131A409091A4221995FF91EF91BF91AF919F912D
S1131A508F917F916F915F914F913F912F910F9053
S1131A600BBE0F900FBE0F901F9018951F920F92F0
S1131A700FB60F9211240BB60F922F933F934F93EF
S1131A805F936F937F938F939F93AF93BF93EF93E2
S1131A90FF93E091AF21F091B021309729F080912C
S1131AA0A5229091A6221995FF91EF91BF91AF9134
S1131AB09F918F917F916F915F914F913F912F9162
S1131AC00F900BBE0F900FBE0F901F9018951F9292
S1131AD00F920FB60F9211240BB60F922F933F93D0
S1131AE04F935F936F937F938F939F93AF93BF9322
S1131AF0EF93FF93E091B121F091B221309729F057
S1131B008091A7229091A8221995FF91EF91BF91FE
S1131B10AF919F918F917F916F915F914F913F9181
S1131B202F910F900BBE0F900FBE0F901F90189522
S1131B301F920F920FB60F9211240BB60F922F9390
S1131B403F934F935F936F937F938F939F93AF9341
S1131B50BF93EF93FF93E091B321F091B4213097B9
S1131B6029F08091A9229091AA221995FF91EF91D1
S1131B70BF91AF919F918F917F916F915F914F91A1
S1131B803F912F910F900BBE0F900FBE0F901F909F
S1131B9018951F920F920FB60F9211240BB60F9245
S1131BA02F933F934F935F936F937F938F939F9361
S1131BB0AF93BF93EF93FF93E091B521F091B621DA
S1131BC0309729F08091AB229091AC221995FF9126
S1131BD0EF91BF91AF919F918F917F916F915F91A1
S1131BE04F913F912F910F900BBE0F900FBE0F900E
S1131BF01F9018951F920F920FB60F9211240BB6D7
S1131C000F922F933F934F935F936F937F938F9391
S1131C109F93AF93BF93EF93FF93E091B721F0911C
S1131C20B821309729F08091AD229091AE22199578
S1131C30FF91EF91BF91AF919F918F917F916F91A0
S1131C405F914F913F912F910F900BBE0F900FBE5C
S1131C500F901F9018951F920F920FB60F92112498
S1131C600BB60F922F933F934F935F936F937F9392
S1131C708F939F93AF93BF93EF93FF93E091B92119
S1131C80F091BA21309729F08091AF229091B0223F
S1131C901995FF91EF91BF91AF919F918F917F9192
S1131CA06F915F914F913F912F910F900BBE0F90C9
S1131CB00FBE0F901F9018951F920F920FB60F92A0
S1131CC011240BB60F922F933F934F935F936F930F
S1131CD07F938F939F93AF93BF93EF93FF93E09181
S1131CE0BB21F091BC21309729F08091B1229091D1
S1131CF0B2221995FF91EF91BF91AF919F918F916E
S1131D007F916F915F914F913F912F910F900BBEF7
S1131D100F900FBE0F901F9018951F920F920FB641
S1131D200F9211240BB60F922F933F934F935F930F
S1131D306F937F938F939F93AF93BF93EF93FF938F
S1131D40E091BD21F091BE21309729F08091B3221A
S1131D509091B4221995FF91EF91BF91AF919F910A
S1131D608F917F916F915F914F913F912F910F9040
S1131D700BBE0F900FBE0F901F9018951F920F92DD
S1131D800FB60F9211240BB60F922F933F934F93DC
S1131D905F936F937F938F939F93AF93BF93EF93CF
S1131DA0FF93E091BF21F091C021309729F08091F9
S1131DB0B5229091B6221995FF91EF91BF91AF9101
S1131DC09F918F917F916F915F914F913F912F914F
S1131DD00F900BBE0F900FBE0F901F9018951F927F
S1131DE00F920FB60F9211240BB60F922F933F93BD
S1131DF04F935F936F937F938F939F93AF93BF930F
S1131E00EF93FF93E091C121F091C221309729F023
S1131E108091B7229091B8221995FF91EF91BF91CB
S1131E20AF919F918F917F916F915F914F913F916E
S1131E302F910F900BBE0F900FBE0F901F9018950F
S1131E401F920F920FB60F9211240BB60F922F937D
S1131E503F934F935F936F937F938F939F93AF932E
S1131E60BF93EF93FF93E091C321F091C421309786
S1131E7029F08091B9229091BA221995FF91EF919E
S1131E80BF91AF919F918F917F916F915F914F918E
S1131E903F912F910F900BBE0F900FBE0F901F908C
S1131EA018951F920F920FB60F9211240BB60F9232
S1131EB02F933F934F935F936F937F938F939F934E
S1131EC0AF93BF93EF93FF93E091C521F091C621A7
S1131ED0309729F08091BB229091BC221995FF91F3
S1131EE0EF91BF91AF919F918F917F916F915F918E
S1131EF04F913F912F910F900BBE0F900FBE0F90FB
S1131F001F9018951F920F920FB60F9211240BB6C3
S1131F100F922F933F934F935F936F937F938F937E
S1131F209F93AF93BF93EF93FF93E091C721F091F9
S1131F30C821309729F08091BD229091BE22199535
S1131F40FF91EF91BF91AF919F918F917F916F918D
S1131F505F914F913F912F910F900BBE0F900FBE49
S1131F600F901F9018951F920F920FB60F92112485
S1131F700BB60F922F933F934F935F936F937F937F
S1131F808F939F93AF93BF93EF93FF93E091C921F6
S1131F90F091CA21309729F08091BF229091C022FC
S1131FA01995FF91EF91BF91AF919F918F917F917F
S1131FB06F915F914F913F912F910F900BBE0F90B6
S1131FC00FBE0F901F9018951F920F920FB60F928D
S1131FD011240BB60F922F933F934F935F936F93FC
S1131FE07F938F939F93AF93BF93EF93FF93E0916E
S1131FF0CB21F091CC21309729F08091C12290918E
S1132000C2221995FF91EF91BF91AF919F918F914A
S11320107F916F915F914F913F912F910F900BBEE4
S11320200F900FBE0F901F9018951F920F920FB62E
S11320300F9211240BB60F922F933F934F935F93FC
S11320406F937F938F939F93AF93BF93EF93FF937C
S1132050E091CD21F091CE21309729F08091C322D7
S11320609091C4221995FF91EF91BF91AF919F91E7
S11320708F917F916F915F914F913F912F910F902D
S11320800BBE0F900FBE0F901F9018951F920F92CA
S11320900FB60F9211240BB60F922F933F934F93C9
S11320A05F936F937F938F939F93AF93BF93EF93BC
S11320B0FF93E091CF21F091D021309729F08091C6
S11320C0C5229091C6221995FF91EF91BF91AF91CE
S11320D09F918F917F916F915F914F913F912F913C
S11320E00F900BBE0F900FBE0F901F9018951F926C
S11320F00F920FB60F9211240BB60F922F933F93AA
S11321004F935F936F937F938F939F93AF93BF93FB
S1132110EF93FF93E091D121F091D221309729F0F0
S11321208091C7229091C8221995FF91EF91BF9198
S1132130AF919F918F917F916F915F914F913F915B
S11321402F910F900BBE0F900FBE0F901F901895FC
S11321501F920F920FB60F9211240BB60F922F936A
S11321603F934F935F936F937F938F939F93AF931B
S1132170BF93EF93FF93E091D321F091D421309753
S113218029F08091C9229091CA221995FF91EF916B
S1132190BF91AF919F918F917F916F915F914F917B
S11321A03F912F910F900BBE0F900FBE0F901F9079
S11321B018951F920F920FB60F9211240BB60F921F
S11321C02F933F934F935F936F937F938F939F933B
S11321D0AF93BF93EF93FF93E091D521F091D62174
S11321E0309729F08091CB229091CC221995FF91C0
S11321F0EF91BF91AF919F918F917F916F915F917B
S11322004F913F912F910F900BBE0F900FBE0F90E7
S11322101F9018951F920F920FB60F9211240BB6B0
S11322200F922F933F934F935F936F937F938F936B
S11322309F93AF93BF93EF93FF93E091D721F091D6
S1132240D821309729F08091CD229091CE221995F2
S1132250FF91EF91BF91AF919F918F917F916F917A
S11322605F914F913F912F910F900BBE0F900FBE36
S11322700F901F9018951F920F920FB60F92112472
S11322800BB60F922F933F934F935F936F937F936C
S11322908F939F93AF93BF93EF93FF93E091D921D3
S11322A0F091DA21309729F08091CF229091D022B9
S11322B01995FF91EF91BF91AF919F918F917F916C
S11322C06F915F914F913F912F910F900BBE0F90A3
S11322D00FBE0F901F9018951F920F920FB60F927A
S11322E011240BB60F922F933F934F935F936F93E9
S11322F07F938F939F93AF93BF93EF93FF93E0915B
S1132300DB21F091DC21309729F08091D12290914A
S1132310D2221995FF91EF91BF91AF919F918F9127
S11323207F916F915F914F913F912F910F900BBED1
S11323300F900FBE0F901F9018951F920F920FB61B
S11323400F9211240BB60F922F933F934F935F93E9
S11323506F937F938F939F93AF93BF93EF93FF9369
S1132360E091DD21F091DE21309729F08091D32294
S11323709091D4221995FF91EF91BF91AF919F91C4
S11323808F917F916F915F914F913F912F910F901A
S11323900BBE0F900FBE0F901F9018951F920F92B7
S11323A00FB60F9211240BB60F922F933F934F93B6
S11323B05F936F937F938F939F93AF93BF93EF93A9
S11323C0FF93E091DF21F091E021309729F0809193
S11323D0D5229091D6221995FF91EF91BF91AF919B
S11323E09F918F917F916F915F914F913F912F9129
S11323F00F900BBE0F900FBE0F901F9018951F9259
S11324000F920FB60F9211240BB60F922F933F9396
S11324104F935F936F937F938F939F93AF93BF93E8
S1132420EF93FF93E091E121F091E221309729F0BD
S11324308091D7229091D8221995FF91EF91BF9165
S1132440AF919F918F917F916F915F914F913F9148
S11324502F910F900BBE0F900FBE0F901F901895E9
S11324601F920F920FB60F9211240BB60F922F9357
S11324703F934F935F936F937F938F939F93AF9308
S1132480BF93EF93FF93E091E321F091E421309720
S113249029F08091D9229091DA221995FF91EF9138
S11324A0BF91AF919F918F917F916F915F914F9168
S11324B03F912F910F900BBE0F900FBE0F901F9066
S11324C018951F920F920FB60F9211240BB60F920C
S11324D02F933F934F935F936F937F938F939F9328
S11324E0AF93BF93EF93FF93E091E521F091E62141
S11324F0309729F08091DB229091DC221995FF918D
S1132500EF91BF91AF919F918F917F916F915F9167
S11325104F913F912F910F900BBE0F900FBE0F90D4
S11325201F9018951F920F920FB60F9211240BB69D
S11325300F922F933F934F935F936F937F938F9358
S11325409F93AF93BF93EF93FF93E091E721F091B3
S1132550E821309729F08091DD229091DE221995AF
S1132560FF91EF91BF91AF919F918F917F916F9167
S11325705F914F913F912F910F900BBE0F900FBE23
S11325800F901F9018951F920F920FB60F9211245F
S11325900BB60F922F933F934F935F936F937F9359
S11325A08F939F93AF93BF93EF93FF93E091E921B0
S11325B0F091EA21309729F08091DF229091E02276
S11325C01995FF91EF91BF91AF919F918F917F9159
S11325D06F915F914F913F912F910F900BBE0F9090
S11325E00FBE0F901F9018951F920F920FB60F9267
S11325F011240BB60F922F933F934F935F936F93D6
S11326007F938F939F93AF93BF93EF93FF93E09147
S1132610EB21F091EC21309729F08091E122909107
S1132620E2221995FF91EF91BF91AF919F918F9104
S11326307F916F915F914F913F912F910F900BBEBE
S11326400F900FBE0F901F9018951F920F920FB608
S11326500F9211240BB60F922F933F934F935F93D6
S11326606F937F938F939F93AF93BF93EF93FF9356
S1132670E091ED21F091EE21309729F08091E32251
S11326809091E4221995FF91EF91BF91AF919F91A1
S11326908F917F916F915F914F913F912F910F9007
S11326A00BBE0F900FBE0F901F9018951F920F92A4
S11326B00FB60F9211240BB60F922F933F934F93A3
S11326C05F936F937F938F939F93AF93BF93EF9396
S11326D0FF93E091EF21F091F021309729F0809160
S11326E0E5229091E6221995FF91EF91BF91AF9168
S11326F09F918F917F916F915F914F913F912F9116
S11327000F900BBE0F900FBE0F901F9018951F9245
S11327100F920FB60F9211240BB60F922F933F9383
S11327204F935F936F937F938F939F93AF93BF93D5
S1132730EF93FF93E091F121F091F221309729F08A
S11327408091E7229091E8221995FF91EF91BF9132
S1132750AF919F918F917F916F915F914F913F9135
S11327602F910F900BBE0F900FBE0F901F901895D6
S11327701F920F920FB60F9211240BB60F922F9344
S11327803F934F935F936F937F938F939F93AF93F5
S1132790BF93EF93FF93E091F321F091F4213097ED
S11327A029F08091E9229091EA221995FF91EF9105
S11327B0BF91AF919F918F917F916F915F914F9155
S11327C03F912F910F900BBE0F900FBE0F901F9053
S11327D018951F920F920FB60F9211240BB60F92F9
S11327E02F933F934F935F936F937F938F939F9315
S11327F0AF93BF93EF93FF93E091F521F091F6210E
S1132800309729F08091EB229091EC221995FF9159
S1132810EF91BF91AF919F918F917F916F915F9154
S11328204F913F912F910F900BBE0F900FBE0F90C1
S11328301F9018951F920F920FB60F9211240BB68A
S11328400F922F933F934F935F936F937F938F9345
S11328509F93AF93BF93EF93FF93E091F721F09190
S1132860F821309729F08091ED229091EE2219956C
S1132870FF91EF91BF91AF919F918F917F916F9154
S11328805F914F913F912F910F900BBE0F900FBE10
S11328900F901F9018951F920F920FB60F9211244C
S11328A00BB60F922F933F934F935F936F937F9346
S11328B08F939F93AF93BF93EF93FF93E091F9218D
S11328C0F091FA21309729F08091EF229091F02233
S11328D01995FF91EF91BF91AF919F918F917F9146
S11328E06F915F914F913F912F910F900BBE0F907D
S11328F00FBE0F901F9018951F920F920FB60F9254
S113290011240BB60F922F933F934F935F936F93C2
S11329107F938F939F93AF93BF93EF93FF93E09134
S1132920FB21F091FC21309729F08091F1229091C4
S1132930F2221995FF91EF91BF91AF919F918F91E1
S11329407F916F915F914F913F912F910F900BBEAB
S11329500F900FBE0F901F9018951F920F920FB6F5
S11329600F9211240BB60F922F933F934F935F93C3
S11329706F937F938F939F93AF93BF93EF93FF9343
S1132980E091FD21F091FE21309729F08091F3220E
S11329909091F4221995FF91EF91BF91AF919F917E
S11329A08F917F916F915F914F913F912F910F90F4
S11329B00BBE0F900FBE0F901F9018951F920F9291
S11329C00FB60F9211240BB60F922F933F934F9390
S11329D05F936F937F938F939F93AF93BF93EF9383
S11329E0FF93E091FF21F0910022309729F080912C
S11329F0F5229091F6221995FF91EF91BF91AF9135
S1132A009F918F917F916F915F914F913F912F9102
S1132A100F900BBE0F900FBE0F901F9018951F9232
S1132A200F920FB60F9211240BB60F922F933F9370
S1132A304F935F936F937F938F939F93AF93BF93C2
S1132A40EF93FF93E0910122F0910222309729F055
S1132A508091F7229091F8221995FF91EF91BF91FF
S1132A60AF919F918F917F916F915F914F913F9122
S1132A702F910F900BBE0F900FBE0F901F901895C3
S1132A801F920F920FB60F9211240BB60F922F9331
S1132A903F934F935F936F937F938F939F93AF93E2
S1132AA0BF93EF93FF93E0910322F09104223097B8
S1132AB029F08091F9229091FA221995FF91EF91D2
S1132AC0BF91AF919F918F917F916F915F914F9142
S1132AD03F912F910F900BBE0F900FBE0F901F9040
S1132AE018951F920F920FB60F9211240BB60F92E6
S1132AF02F933F934F935F936F937F938F939F9302
S1132B00AF93BF93EF93FF93E0910522F0910622D8
S1132B10309729F08091FB229091FC221995FF9126
S1132B20EF91BF91AF919F918F917F916F915F9141
S1132B304F913F912F910F900BBE0F900FBE0F90AE
S1132B401F9018951F920F920FB60F9211240BB677
S1132B500F922F933F934F935F936F937F938F9332
S1132B609F93AF93BF93EF93FF93E0910722F0916C
S1132B700822309729F08091FD229091FE22199528
S1132B80FF91EF91BF91AF919F918F917F916F9141
S1132B905F914F913F912F910F900BBE0F900FBEFD
S1132BA00F901F9018951F920F920FB60F92112439
S1132BB00BB60F922F933F934F935F936F937F9333
S1132BC08F939F93AF93BF93EF93FF93E091092269
S1132BD0F0910A22309729F08091FF2290910023EE
S1132BE01995FF91EF91BF91AF919F918F917F9133
S1132BF06F915F914F913F912F910F900BBE0F906A
S1132C000FBE0F901F9018951F920F920FB60F9240
S1132C1011240BB60F922F933F934F935F936F93AF
S1132C207F938F939F93AF93BF93EF93FF93E09121
S1132C300B22F0910C22309729F08091012390917E
S1132C4002231995FF91EF91BF91AF919F918F91BD
S1132C507F916F915F914F913F912F910F900BBE98
S1132C600F900FBE0F901F9018951F920F920FB6E2
S1132C700F9211240BB60F922F933F934F935F93B0
S1132C806F937F938F939F93AF93BF93EF93FF9330
S1132C90E0910D22F0910E22309729F080910323C8
S1132CA0909104231995FF91EF91BF91AF919F915A
S1132CB08F917F916F915F914F913F912F910F90E1
S1132CC00BBE0F900FBE0F901F9018951F920F927E
S1132CD00FB60F9211240BB60F922F933F934F937D
S1132CE05F936F937F938F939F93AF93BF93EF9370
S1132CF0FF93E0910F22F0911022309729F08091F8
S1132D000523909106231995FF91EF91BF91AF91FF
S1132D109F918F917F916F915F914F913F912F91EF
S1132D200F900BBE0F900FBE0F901F9018951F921F
S1132D300F920FB60F9211240BB60F922F933F935D
S1132D404F935F936F937F938F939F93AF93BF93AF
S1132D50EF93FF93E0911122F0911222309729F022
S1132D6080910723909108231995FF91EF91BF91CA
S1132D70AF919F918F917F916F915F914F913F910F
S1132D802F910F900BBE0F900FBE0F901F901895B0
S1132D901F920F920FB60F9211240BB60F922F931E
S1132DA03F934F935F936F937F938F939F93AF93CF
S1132DB0BF93EF93FF93E0911322F0911422309785
S1132DC029F08091092390910A231995FF91EF919D
S1132DD0BF91AF919F918F917F916F915F914F912F
S1132DE03F912F910F900BBE0F900FBE0F901F902D
S1132DF018951F920F920FB60F9211240BB60F92D3
S1132E002F933F934F935F936F937F938F939F93EE
S1132E10AF93BF93EF93FF93E0911522F0911622A5
S1132E20309729F080910B2390910C231995FF91F1
S1132E30EF91BF91AF919F918F917F916F915F912E
S1132E404F913F912F910F900BBE0F900FBE0F909B
S1132E501F9018951F920F920FB60F9211240BB664
S1132E600F922F933F934F935F936F937F938F931F
S1132E709F93AF93BF93EF93FF93E0911722F09149
S1132E801822309729F080910D2390910E231995E3
S1132E90FF91EF91BF91AF919F918F917F916F912E
S1132EA05F914F913F912F910F900BBE0F900FBEEA
S1132EB00F901F9018951F920F920FB60F92112426
S1132EC00BB60F922F933F934F935F936F937F9320
S1132ED08F939F93AF93BF93EF93FF93E091192246
S1132EE0F0911A22309729F080910F2390911023AA
S1132EF01995FF91EF91BF91AF919F918F917F9120
S1132F006F915F914F913F912F910F900BBE0F9056
S1132F100FBE0F901F9018951F920F920FB60F922D
S1132F2011240BB60F922F933F934F935F936F939C
S1132F307F938F939F93AF93BF93EF93FF93E0910E
S1132F401B22F0911C22309729F08091112390913B
S1132F5012231995FF91EF91BF91AF919F918F919A
S1132F607F916F915F914F913F912F910F900BBE85
S1132F700F900FBE0F901F9018951F920F920FB6CF
S1132F800F9211240BB60F922F933F934F935F939D
S1132F906F937F938F939F93AF93BF93EF93FF931D
S1132FA0E0911D22F0911E22309729F08091132385
S1132FB0909114231995FF91EF91BF91AF919F9137
S1132FC08F917F916F915F914F913F912F910F90CE
S1132FD00BBE0F900FBE0F901F9018951F920F926B
S1132FE00FB60F9211240BB60F922F933F934F936A
S1132FF05F936F937F938F939F93AF93BF93EF935D
S1133000FF93E0911F22F0912022309729F08091C4
S11330101523909116231995FF91EF91BF91AF91CC
S11330209F918F917F916F915F914F913F912F91DC
S11330300F900BBE0F900FBE0F901F9018951F920C
S11330400F920FB60F9211240BB60F922F933F934A
S11330504F935F936F937F938F939F93AF93BF939C
S1133060EF93FF93E0912122F0912222309729F0EF
S113307080911723909118231995FF91EF91BF9197
S1133080AF919F918F917F916F915F914F913F91FC
S11330902F910F900BBE0F900FBE0F901F9018959D
S11330A01F920F920FB60F9211240BB60F922F930B
S11330B03F934F935F936F937F938F939F93AF93BC
S11330C0BF93EF93FF93E0912322F0912422309752
S11330D029F08091192390911A231995FF91EF916A
S11330E0BF91AF919F918F917F916F915F914F911C
S11330F03F912F910F900BBE0F900FBE0F901F901A
S113310018951F920F920FB60F9211240BB60F92BF
S11331102F933F934F935F936F937F938F939F93DB
S1133120AF93BF93EF93FF93E0912522F091262272
S1133130309729F080911B2390911C231995FF91BE
S1133140EF91BF91AF919F918F917F916F915F911B
S11331504F913F912F910F900BBE0F900FBE0F9088
S11331601F9018951F920F920FB60F9211240BB651
S11331700F922F933F934F935F936F937F938F930C
S11331809F93AF93BF93EF93FF93E0912722F09126
S11331902822309729F080911D2390911E231995A0
S11331A0FF91EF91BF91AF919F918F917F916F911B
S11331B05F914F913F912F910F900BBE0F900FBED7
S11331C00F901F9018951F920F920FB60F92112413
S11331D00BB60F922F933F934F935F936F937F930D
S11331E08F939F93AF93BF93EF93FF93E091292223
S11331F0F0912A22309729F080911F239091202367
S11332001995FF91EF91BF91AF919F918F917F910C
S11332106F915F914F913F912F910F900BBE0F9043
S11332200FBE0F901F9018951F920F920FB60F921A
S113323011240BB60F922F933F934F935F936F9389
S11332407F938F939F93AF93BF93EF93FF93E091FB
S11332502B22F0912C22309729F0809121239091F8
S113326022231995FF91EF91BF91AF919F918F9177
S11332707F916F915F914F913F912F910F900BBE72
S11332800F900FBE0F901F9018951F920F920FB6BC
S11332900F9211240BB60F922F933F934F935F938A
S11332A06F937F938F939F93AF93BF93EF93FF930A
S11332B0E0912D22F0912E22309729F08091232342
S11332C0909124231995FF91EF91BF91AF919F9114
S11332D08F917F916F915F914F913F912F910F90BB
S11332E00BBE0F900FBE0F901F9018951F920F9258
S11332F00FB60F9211240BB60F922F933F934F9357
S11333005F936F937F938F939F93AF93BF93EF9349
S1133310FF93E0913322F0913422309729F0809189
S1133320292390912A231995FF91EF91BF91AF9191
S11333309F918F917F916F915F914F913F912F91C9
S11333400F900BBE0F900FBE0F901F9018951F92F9
S11333500F920FB60F9211240BB60F922F933F9337
S11333604F935F936F937F938F939F93AF93BF9389
S1133370EF93FF93E0913522F0913622309729F0B4
S113338080912B2390912C231995FF91EF91BF915C
S1133390AF919F918F917F916F915F914F913F91E9
S11333A02F910F900BBE0F900FBE0F901F9018958A
S11333B01F920F920FB60F9211240BB60F922F93F8
S11333C03F934F935F936F937F938F939F93AF93A9
S11333D0BF93EF93FF93E0913722F0913822309717
S11333E029F080912D2390912E231995FF91EF912F
S11333F0BF91AF919F918F917F916F915F914F9109
S11334003F912F910F900BBE0F900FBE0F901F9006
S113341018951F920F920FB60F9211240BB60F92AC
S11334202F933F934F935F936F937F938F939F93C8
S1133430AF93BF93EF93FF93E0913922F0913A2237
S1133440309729F080912F23909130231995FF9183
S1133450EF91BF91AF919F918F917F916F915F9108
S11334604F913F912F910F900BBE0F900FBE0F9075
S11334701F9018951F920F920FB60F9211240BB63E
S11334800F922F933F934F935F936F937F938F93F9
S11334909F93AF93BF93EF93FF93E0913B22F091FF
S11334A03C22309729F08091312390913223199551
S11334B0FF91EF91BF91AF919F918F917F916F9108
S11334C05F914F913F912F910F900BBE0F900FBEC4
S11334D00F901F9018951F920F920FB60F92112400
S11334E00BB60F922F933F934F935F936F937F93FA
S11334F08F939F93AF93BF93EF93FF93E0913D22FC
S1133500F0913E22309729F0809133239091342317
S11335101995FF91EF91BF91AF919F918F917F91F9
S11335206F915F914F913F912F910F900BBE0F9030
S11335300FBE0F901F9018951F920F920FB60F9207
S113354011240BB60F922F933F934F935F936F9376
S11335507F938F939F93AF93BF93EF93FF93E091E8
S11335603F22F0914022309729F0809135239091A9
S113357036231995FF91EF91BF91AF919F918F9150
S11335807F916F915F914F913F912F910F900BBE5F
S11335900F900FBE0F901F9018951F920F920FB6A9
S11335A00F9211240BB60F922F933F934F935F9377
S11335B06F937F938F939F93AF93BF93EF93FF93F7
S11335C0E0914122F0914222309729F080913723F3
S11335D0909138231995FF91EF91BF91AF919F91ED
S11335E08F917F916F915F914F913F912F910F90A8
S11335F00BBE0F900FBE0F901F9018951F920F9245
S11336000FB60F9211240BB60F922F933F934F9343
S11336105F936F937F938F939F93AF93BF93EF9336
S1133620FF93E0914322F0914422309729F0809156
S1133630392390913A231995FF91EF91BF91AF915E
S11336409F918F917F916F915F914F913F912F91B6
S11336500F900BBE0F900FBE0F901F9018951F92E6
S11336600F920FB60F9211240BB60F922F933F9324
S11336704F935F936F937F938F939F93AF93BF9376
S1133680EF93FF93E0914522F0914622309729F081
S113369080913B2390913C231995FF91EF91BF9129
S11336A0AF919F918F917F916F915F914F913F91D6
S11336B02F910F900BBE0F900FBE0F901F90189577
S11336C01F920F920FB60F9211240BB60F922F93E5
S11336D03F934F935F936F937F938F939F93AF9396
S11336E0BF93EF93FF93E0914722F09148223097E4
S11336F029F080913D2390913E231995FF91EF91FC
S1133700BF91AF919F918F917F916F915F914F91F5
S11337103F912F910F900BBE0F900FBE0F901F90F3
S113372018951F920F920FB60F9211240BB60F9299
S11337302F933F934F935F936F937F938F939F93B5
S1133740AF93BF93EF93FF93E0914922F0914A2204
S1133750309729F080913F23909140231995FF9150
S1133760EF91BF91AF919F918F917F916F915F91F5
S11337704F913F912F910F900BBE0F900FBE0F9062
S11337801F9018951F920F920FB60F9211240BB62B
S11337900F922F933F934F935F936F937F938F93E6
S11337A09F93AF93BF93EF93FF93E0914B22F091DC
S11337B04C22309729F0809141239091422319950E
S11337C0FF91EF91BF91AF919F918F917F916F91F5
S11337D05F914F913F912F910F900BBE0F900FBEB1
S11337E00F901F9018951F920F920FB60F921124ED
S11337F00BB60F922F933F934F935F936F937F93E7
S11338008F939F93AF93BF93EF93FF93E0914D22D8
S1133810F0914E22309729F08091432390914423D4
S11338201995FF91EF91BF91AF919F918F917F91E6
S11338306F915F914F913F912F910F900BBE0F901D
S11338400FBE0F901F9018951F920F920FB60F92F4
S113385011240BB60F922F933F934F935F936F9363
S11338607F938F939F93AF93BF93EF93FF93E091D5
S11338704F22F0915022309729F080914523909166
S113388046231995FF91EF91BF91AF919F918F912D
S11338907F916F915F914F913F912F910F900BBE4C
S11338A00F900FBE0F901F9018951F920F920FB696
S11338B00F9211240BB60F922F933F934F935F9364
S11338C06F937F938F939F93AF93BF93EF93FF93E4
S11338D0E0915122F0915222309729F080914723B0
S11338E0909148231995FF91EF91BF91AF919F91CA
S11338F08F917F916F915F914F913F912F910F9095
S11339000BBE0F900FBE0F901F9018951F920F9231
S11339100FB60F9211240BB60F922F933F934F9330
S11339205F936F937F938F939F93AF93BF93EF9323
S1133930FF93E0915322F0915422309729F0809123
S1133940492390914A231995FF91EF91BF91AF912B
S11339509F918F917F916F915F914F913F912F91A3
S11339600F900BBE0F900FBE0F901F9018951F92D3
S11339700F920FB60F9211240BB60F922F933F9311
S11339804F935F936F937F938F939F93AF93BF9363
S1133990EF93FF93E0916922F0916A22309729F026
S11339A080915F23909160231995FF91EF91BF91CE
S11339B0AF919F918F917F916F915F914F913F91C3
S11339C02F910F900BBE0F900FBE0F901F90189564
S11339D01F920F920FB60F9211240BB60F922F93D2
S11339E03F934F935F936F937F938F939F93AF9383
S11339F0BF93EF93FF93E0916B22F0916C22309789
S1133A0029F080916123909162231995FF91EF91A0
S1133A10BF91AF919F918F917F916F915F914F91E2
S1133A203F912F910F900BBE0F900FBE0F901F90E0
S1133A3018951F920F920FB60F9211240BB60F9286
S1133A402F933F934F935F936F937F938F939F93A2
S1133A50AF93BF93EF93FF93E0917122F0917222A1
S1133A60309729F080916723909168231995FF91ED
S1133A70EF91BF91AF919F918F917F916F915F91E2
S1133A804F913F912F910F900BBE0F900FBE0F904F
S1133A901F9018951F920F920FB60F9211240BB618
S1133AA00F922F933F934F935F936F937F938F93D3
S1133AB09F93AF93BF93EF93FF93E0917322F091A1
S1133AC07422309729F08091692390916A23199583
S1133AD0FF91EF91BF91AF919F918F917F916F91E2
S1133AE05F914F913F912F910F900BBE0F900FBE9E
S1133AF00F901F9018951F920F920FB60F921124DA
S1133B000BB60F922F933F934F935F936F937F93D3
S1133B108F939F93AF93BF93EF93FF93E09175229D
S1133B20F0917622309729F080916B2390916C2349
S1133B301995FF91EF91BF91AF919F918F917F91D3
S1133B406F915F914F913F912F910F900BBE0F900A
S1133B500FBE0F901F9018951F920F920FB60F92E1
S1133B6011240BB60F922F933F934F935F936F9350
S1133B707F938F939F93AF93BF93EF93FF93E091C2
S1133B807722F0917822309729F080916D239091DB
S1133B906E231995FF91EF91BF91AF919F918F91F2
S1133BA07F916F915F914F913F912F910F900BBE39
S1133BB00F900FBE0F901F9018951F920F920FB683
S1133BC00F9211240BB60F922F933F934F935F9351
S1133BD06F937F938F939F93AF93BF93EF93FF93D1
S1133BE0E0917922F0917A22309729F080916F2325
S1133BF0909170231995FF91EF91BF91AF919F918F
S1133C008F917F916F915F914F913F912F910F9081
S1133C100BBE0F900FBE0F901F9018951F920F921E
S1133C200FB60F9211240BB60F922F933F934F931D
S1133C305F936F937F938F939F93AF93BF93EF9310
S1133C40FF93E0917B22F0917C22309729F08091C0
S1133C507123909172231995FF91EF91BF91AF91C8
S1133C609F918F917F916F915F914F913F912F9190
S1133C700F900BBE0F900FBE0F901F9018951F92C0
S1133C800F920FB60F9211240BB60F922F933F93FE
S1133C904F935F936F937F938F939F93AF93BF9350
S1133CA0EF93FF93E0918722F0918822309729F0D7
S1133CB080917D2390917E231995FF91EF91BF917F
S1133CC0AF919F918F917F916F915F914F913F91B0
S1133CD02F910F900BBE0F900FBE0F901F90189551
S1133CE01F920F920FB60F9211240BB60F922F93BF
S1133CF03F934F935F936F937F938F939F93AF9370
S1133D00BF93EF93FF93E0918922F0918A22309739
S1133D1029F080917F23909180231995FF91EF9151
S1133D20BF91AF919F918F917F916F915F914F91CF
S1133D303F912F910F900BBE0F900FBE0F901F90CD
S1133D4018951F920F920FB60F9211240BB60F9273
S1133D502F933F934F935F936F937F938F939F938F
S1133D60AF93BF93EF93FF93E0918B22F0918C225A
S1133D70309729F080918123909182231995FF91A6
S1133D80EF91BF91AF919F918F917F916F915F91CF
S1133D904F913F912F910F900BBE0F900FBE0F903C
S1133DA01F9018950E94F825FDCF80E394E20E94AD
S1133DB0AE0A8DE294E20E94F0288AE294E20E9424
S1133DC0192887E294E20E949F2985E294E20E94E6
S1133DD04E248DE194E20E94D20280E094E20E949B
S1133DE0652186EF93E20E94362585EF93E20E94D7
S1133DF02B268AE893E20E94E10489E893E20E9478
S1133E006224089589E893E20E9463248AE893E295
S1133E100E94E70485EF93E20E942C2686EF93E24A
S1133E200E94372580E094E20E94DA218DE194E239
S1133E300E94D30285E294E20E945A2487E294E22B
S1133E400E94AB298AE294E20E9425288DE294E242
S1133E500E94FC2880E394E20E94AF0A0895CF9266
S1133E60DF92EF92FF920F931F93F89484E680936E
S1133E70800186EF93E20E94382589E893E20E944C
S1133E80302585EF93E20E949C2647E060E08DE2B6
S1133E9094E20E942D2862E17AE78DE294E20E9486
S1133EA06B2848E060E08AE294E20E947E276FEF8C
S1133EB07FEF8AE294E20E94C2276FEF7FEF8AE2EB
S1133EC094E20E94952745E063E087E294E20E9431
S1133ED0042960E074E087E294E20E941B2960E018
S1133EE072E087E294E20E944D2960E187E294E265
S1133EF00E943A2921E04AE853E26FE376E087E240
S1133F0094E20E94572921E04AE853E263E476E010
S1133F1087E294E20E947B290F2EF3E0EF2EF02D2E
S1133F2000E023E040E061E080E394E20E94B00A14
S1133F3001E020E040E06DE085E294E20E94D223BB
S1133F400F2EF2E1CF2EFAE7DF2EF02DE12CFF2425
S1133F50F39400E011E02AE833E245E254E26DE232
S1133F6074E280E094E20E946B2140E051E060E062
S1133F7074E28DE194E20E94D40260E074E28AE883
S1133F8093E20E94590686EF93E20E9497258AE8FD
S1133F9093E280939322909394228FE997E0809305
S1133FA09D2190939E2178941F910F91FF90EF9003
S1133FB0DF90CF900895CF93DF931F921F92CDB7D8
S1133FC0DEB70E942F1F2FEF33E284EF90E02150E1
S1133FD0304080409040D9F700C0000086EF93E263
S1133FE00E94CC25EFEFF3EC29E0E150F0402040B3
S1133FF0E1F700C0000019821A8242E050E0BE01DD
S11340006F5F7F4F80E394E20E94FC0A8AE893E2A8
S11340100E94EF0414E60F2EF0E3CF2EF4E2DF2E1D
S1134020F02D86EF93E20E94222640918523509141
S11340308623CA01019680938523909386239A014F
S11340403695279536952795ABE7B4E10E94382C31
S113405096958795189F9001199F300D112442174A
S11340605307F9F68AE893E20E94A207F601228137
S11340703381232BD9F7C6010E94F10A89E893E220
S11340800E94EC2480938723909388230F2EF3E0DF
S1134090EF2EF02D00E023E040E061E0C6010E9435
S11340A0B00A80918723909188238A3091402CF024
S11340B086EF93E20E94D025B4CF86EF93E20E946C
S11340C0D425AFCFCF93DF93EC01EC81FD818AEA55
S11340D08083EC81FD818CEC8183EC81FD8182E025
S11340E0820F8283EC81FD8180E88383EC81FD81F2
S11340F0648385E0820F898730E02115310581F0E2
S1134100DA01420F531F65E070E09D91EC81FD815F
S1134110E60FF71F90836F5F7F4FA417B507A9F7CA
S1134120DF91CF910895FC01A481B5818AEA8C9333
S1134130A481B5818CEC11968C93A481B58183E024
S113414012968C93A481B58181E813968C93A481F3
S1134150B58114966C93A481B58115964C9386E031
S1134160818708950F931F93CF93DF93DC011496F7
S1134170ED91FC911597AAEAA083EC01EC81FD81F5
S1134180ACECA183EC81FD81A3E0A20FA283EC81BE
S1134190FD81A2E8A383EC81FD817483EC81FD8120
S11341A0658366E0620F6987369527952115310589
S11341B0E1F0E42FF52F2D5F3F4F220F331F46E030
S11341C050E0EC01AC81BD81A40FB51F61816C93FB
S11341D0AC81BD81A40FB51F6081329611966C939A
S11341E04E5F5F4F4217530761F7DF91CF911F91E5
S11341F00F910895FC01A481B5818AEA8C93A4816E
S1134200B5818CEC11968C93A481B58184E01296CF
S11342108C93A481B58183E813968C93A481B58192
S113422014967C93A481B58115966C93A481B58171
S113423016964C9387E0818708950F931F93CF932D
S1134240DF93EC01CB018A016F8378874A875B8710
S11342500E94522C8A839B83C8010E94522C8C8317
S11342609D8319861E82DF91CF911F910F9108952E
S1134270CF93DF93EC018A819B810E94E72C8C8190
S11342809D810E94E72CDF91CF9108950895DC0170
S11342905B968D919C915C97009739F0DC01ED91D0
S11342A0FC910280F381E02D19950895DC015B9661
S11342B08D919C915C97009739F0DC01ED91FC9114
S11342C00480F581E02D199508952BEB30E2FC0173
S11342D02083318308956F927F928F929F92AF9241
S11342E0BF92CF92DF92EF92FF920F931F93CF93DF
S11342F0DF93EC014B015A013901C8010F83188780
S1134300EA86FB860E94522C8A839B83C7010E9403
S1134310522C8C839D83198E1986198A1E821C8ABD
S11343201D8A1E8A1F8A87E0888B82E0888F1A8EF6
S1134330CA8ADB8AAC86BD86D501ED91FC910484E2
S1134340F585E02D4FE852E2BE01C5011995D5016E
S1134350ED91FC910684F785E02D4BE153E2BE011B
S1134360C50119956114710419F06B8E7C8E02C01D
S1134370CB8FDC8F8E869F868114910461F0D401EB
S1134380ED91FC910488F589E02D21E0AE0166EB06
S113439072E2C4011995DF91CF911F910F91FF90A3
S11343A0EF90DF90CF90BF90AF909F908F907F90D1
S11343B06F9008952BEB30E2FC01208331830E943F
S11343C046210895CF93DF93EC01962F488950E05E
S11343D04B30510508F0A0C0FA018827EC5BFE4F72
S11343E08F4F0C94302C9A3A19F482E0888B94C045
S11343F081E0888B91C09C3C19F483E0888B8CC04D
S113440081E0888B89C09E83198A1E8A1F8A84E072
S1134410888B82C08989EA81FB81E80FF11D908332
S1134420298930E04F8158854217530718F489E0F1
S1134430888B72C02E893F892927922F92959227C3
S1134440092E969596959025092E96959025977008
S1134450022E232F969507949795302D292706949D
S11344609795302529272E8B3F8B89898F5F898BE0
S113447049898E81481350C088E0888BE881F9818E
S113448050E06A817B810190F081E02DCE01199585
S11344908B8D9C8D009709F43FC0DC01ED91FC915C
S11344A04E8150E06A817B810190F081E02D199565
S11344B033C0692F70E06C8B7D8B86E0888B2CC0B9
S11344C02C893D89A901592B4C8B5D8B2E893F8901
S11344D042175307E9F488E0888BE881F9814E811B
S11344E050E06A817B810190F081E02DCE01199525
S11344F08B8D9C8D009781F0DC01ED91FC914E81B8
S113450050E06A817B810190F081E02D199504C00F
S113451089E0888B01C01A8EDF91CF910895CF93E3
S1134520DF93EC018C859D85DC01ED91FC9102808B
S1134530F381E02D1995682FCE010E94E221DF91CD
S1134540CF910895CF93DF93EC018E859F85DC0195
S1134550ED91FC910480F581E02D199588898830CE
S113456011F08AE0888BDF91CF9108950E94A222F6
S11345700895CF93DF93FC01118A1682148A158A59
S1134580168A178A108A86859785EC01A881B981D5
S1134590628973891296ED91FC9113971995DF91B5
S11345A0CF910895CF93DF93EC01888D843038F454
S11345B08230B8F5882331F08130D1F039C08530AC
S11345C081F136C081E0888F198E8C859D85298D77
S11345D0DC01ED91FC91AC81BD81A20FB11D048081
S11345E0F581E02D6C911995898D8F5F898F20C09D
S11345F08C859D85298DDC01ED91FC91AC81BD817B
S1134600A20FB11D0480F581E02D6C911995898D5F
S11346108F5F898F998D898598130AC083E0888F6D
S113462007C08A8D882319F0CE010E94B9221A8E00
S1134630DF91CF9108950E94D2220895FC0106C013
S11346408089893041F080898A3039F080898830C6
S1134650B9F781E0089582E0089583E00895CF9347
S1134660DF93EC01198E188E0E94D2228E859F85CD
S1134670DC01ED91FC916A897B890280F381E02D54
S11346801995DF91CF910895CF93DF93EC01E881E1
S1134690F9810284F385E02D1995CE010E942F2320
S11346A0DF91CF910895CF93DF93EC01E881F981F5
S11346B00684F785E02D1995CE010E942F23DF9102
S11346C0CF910895CF93DF93EC01E881F9810484BD
S11346D0F585E02D1995CE010E942F23DF91CF910E
S11346E00895CF93DF93EC01E881F98150E00088CD
S11346F0F189E02D1995CE010E942F23DF91CF91EE
S11347000895FC0106C0808D843041F0808D853091
S113471039F0808D8330B9F781E0089582E00895FF
S113472083E0089521E0FC01228F0E946223089512
S113473021E0FC01228F0E94712308950F931F939F
S1134740CF93DF938C01EB019881913869F4D80100
S1134750ED91FC910480F581E02D2A81AB014D5F40
S11347605F4F6981C80119959881933899F4D801EC
S1134770ED91FC912B8130E0AE014C5F5F4F69817C
S113478070E0762F66278A81682B0280F381E02D02
S1134790C8011995DF91CF911F910F9108950E943F
S11347A09E2308950F93E0E6F6E088E0818384E099
S11347B08283128A138AE0EAF9E084E1838388E140
S11347C0848384818483413019F0423019F004C019
S11347D080E203C080E301C080E0222319F021308D
S11347E019F003C0877F01C08860011102C093E4FF
S11347F001C093E0892BE0EAF9E0858370E0DB01F6
S1134800A95DBF4D8C918683DB01A95FBF4D8C915F
S11348108295807F87830F9108958091A0090895E0
S11348206093A00908958091A10986FB882780F9E7
S113483091E0892708958091A1098095881F882790
S1134840881F08958091A10985FB882780F991E04C
S11348508927089560933F2370934023409349220E
S113486050934A22089560934323709344234093C2
S11348704D2250934E220895FB018BE6838380EAF8
S1134880808789E0818712860895FB018CE6838303
S113489080EA848789E0858716860895CF93DF931D
S11348A0EC010E94450B81ED90E288839983DF91AE
S11348B0CF91089521ED30E2FC01208331830E94E1
S11348C04B0B089508950895E0E8F6E080E48183B1
S11348D0A7E2BFE01197F1F700C00000828387E0F0
S11348E092E00197F1F700C000008085AFE1BDE0E0
S11348F01197F1F700C0000086FB882780F991E04A
S113490089270895CF93DF9380E090E0C1E0D0E061
S113491070E0E0E8F6E040E49E01082E02C0220FB9
S1134920331F0A94E2F7D901A623B7232A173B07BA
S113493069F4418325E12A95F1F700004283A7E059
S1134940B2E01197F1F700C000000CC04183A7E06A
S1134950B2E01197F1F700C000004283B5E3BA95C5
S1134960F1F70000019688309105B1F6DF91CF91FF
S1134970089520E030E080E0E0E8F6E090E461E0D3
S113498070E0918345E14A95F1F700009283AAE62D
S1134990AA95F1F700C0408546FD0AC0AB01022E7E
S11349A002C0440F551F0A94E2F74095842308C0BF
S11349B0AB01022E02C0440F551F0A94E2F7842B68
S11349C0AFE8B1E01197F1F700C000002F5F3F4F4F
S11349D028303105B1F608951F93CF93DF93EC018E
S11349E00E9464248823B1F16CECCE010E948224DD
S11349F064E4CE010E9482242FEF8DE399E42150D8
S1134A0080409040E1F700C00000CE010E94642481
S1134A106CECCE010E9482246EEBCE010E948224B3
S1134A20CE010E94B924182FCE010E94B924612F0F
S1134A3070E0782B072E000C880B990B0E94D22A69
S1134A4020E030E040E25FE30E94362B0E949A2A85
S1134A50CB0102C080E090E0DF91CF911F910895D7
S1134A60E0E8F6E080E48683168A089508950895C0
S1134A70CF93DF93EC01E0E4F6E0118298EA908BA7
S1134A80918B928B938B948B958B968B978B8FEFCB
S1134A908483A0E8B6E098E011969C93119753960E
S1134AA01C92539714961C921497E0EAF6E090EC4B
S1134AB0908B20E8218B928B938B948B958B968B88
S1134AC0978B14828183E0E6F6E081E18183908B09
S1134AD0948B148287E011968C93119750962C93A3
S1134AE0509751962C93519752962C935297149613
S1134AF01C92E0EAF0E0828181608283828182609C
S1134B008283828184608283FE019E01285F3F4FFD
S1134B1091E09193E217F307E1F783E08887E0E4FB
S1134B20F6E081E082878187DF91CF910895E0E507
S1134B30F0E08BEC8283808188608083818183FFB5
S1134B40FDCFE0E5F0E0858198ED94BF84EC8583AA
S1134B50808180618083E0E4F0E0818194BF1182F0
S1134B60E0E5F0E0818184FFFDCFE0E4F0E08081C6
S1134B70887F846098ED94BF8083A0E5B0E08C9139
S1134B80887F8C93828194BF81E08283E0EBF0E0A4
S1134B9084818C7F8483089581E0809362060895E4
S1134BA080E180936206089580E180936106089510
S1134BB082E080938506089582E0809386060895B6
S1134BC0F89484E690E0E0E8F6E028E02583AFE995
S1134BD0BFE01197F1F700C000002683AFE9BFE002
S1134BE01197F1F700C00000019781F778940895B8
S1134BF0F89445E050E064E630E0E0E8F6E028E0D0
S1134C001CC02583AFE9BFE01197F1F700C0000095
S1134C102683AFE9BFE01197F1F700C000000197C8
S1134C2081F7BFEF73EC89E0B15070408040E1F749
S1134C3000C000004150510919F0862F932FE1CF95
S1134C407894089520914806FC0121870895FC0179
S1134C5081858170089508950895E0E0FAE0108256
S1134C6087E88183138284E294EF86A397A382E189
S1134C709AE786A797A7168217820895E0E4FAE0D8
S1134C8010821182138284E294EF86A397A3168282
S1134C90178208950F931F93CF938A01C22F9B010C
S1134CA040E050E064E274EF80E090E00E94112C58
S1134CB0B80176956795EEE3E09FC001E19F900D02
S1134CC01124860F971FCF5FB90102C076956795AF
S1134CD0CA95E2F7E0E0FAE066A777A726A337A330
S1134CE0A0E4BAE096968D939C93979786E0808390
S1134CF087E08C93CF911F910F910895E0E4FAE03F
S1134D00848580FFFDCFE0E4FAE0848581708487A8
S1134D10A0E0BAE01C92108210A211A290961D92FB
S1134D201C9291972FEF83EF91E0215080409040A7
S1134D30E1F700C000000895CF93DF93EC010E94D7
S1134D402D26CE010E943E26DF91CF910895FC01CD
S1134D504283E0E0F8E08081807F8083138210A2A8
S1134D6011A210A611A612A613A614A615A616A67D
S1134D7017A616A217A28181887F682B61831682E9
S1134D8017820895E0E0F8E066A377A32081207FEE
S1134D90DC0112969C91822F892B80830895E0E098
S1134DA0F8E08081807F808310A211A20895E0E062
S1134DB0F8E081818F70682B61830895E0E0F8E06A
S1134DC081816095682361830895609326087093B8
S1134DD0270808956093280870932908089560931C
S1134DE02A0870932B08089560932C0870932D085B
S1134DF0089560932E0870932F0808956115710526
S1134E0031F0E0E0F8E086818370282B26836093FC
S1134E10B5217093B6214093AB225093AC220895F0
S1134E206115710531F0E0E0F8E086818C70282B83
S1134E3026836093B7217093B8214093AD22509399
S1134E40AE2208956115710531F0E0E0F8E0878144
S1134E508370282B27836093B9217093BA214093E0
S1134E60AF225093B02208956115710531F0E0E04E
S1134E70F8E087818C70282B27836093BB21709383
S1134E80BC214093B1225093B2220895611571055B
S1134E9031F0E0E0F8E087818073282B278360936A
S1134EA0BD217093BE214093B3225093B422089540
S1134EB06115710531F0E0E0F8E08781807C282BF2
S1134EC027836093BF217093C0214093B5225093F0
S1134ED0B6220895CF93DF93EC010E94370B89EE3D
S1134EE090E288839983DF91CF91089529EE30E28F
S1134EF0FC01208331830E943D0B0895FC01428311
S1134F00E0E4F8E08081807F8083138210A211A204
S1134F1010A611A612A613A616A217A28181887F35
S1134F20682B6183168217820895E0E4F8E066A393
S1134F3077A32081207FDC0112969C91822F892BFC
S1134F4080830895E0E4F8E08081807F808310A26C
S1134F5011A20895E0E4F8E090818081807F80834D
S1134F6010A211A290830895E0E4F8E081818F708B
S1134F70682B61830895E0E4F8E0818160956823FB
S1134F806183089560936608709367080895609339
S1134F90680870936908089560936A0870936B08B1
S1134FA008956115710531F0E0E4F8E086818370BD
S1134FB0282B26836093C1217093C2214093B7228A
S1134FC05093B82208956115710531F0E0E4F8E0DA
S1134FD086818C70282B26836093C3217093C4210F
S1134FE04093B9225093BA2208956115710531F0A6
S1134FF0E0E4F8E087818370282B27836093C52140
S11350007093C6214093BB225093BC22089561152E
S1135010710531F0E0E4F8E087818C70282B278358
S11350206093C7217093C8214093BD225093BE2240
S11350300895CF93DF93EC010E943E0B8DE091E243
S113504088839983DF91CF9108952DE031E2FC01AB
S1135050208331830E94440B0895FC014283E0E0E5
S1135060F9E08081807F8083138210A211A210A6B0
S113507011A612A613A614A615A616A617A616A25E
S113508017A28181887F682B618316821782089515
S1135090E0E0F9E066A377A32081207FDC0112968B
S11350A09C91822F892B80830895E0E0F9E0808130
S11350B0807F808310A211A20895E0E0F9E081814D
S11350C08F70682B61830895E0E0F9E08181609539
S11350D068236183089560932609709327090895CE
S11350E06093280970932909089560932A0970939D
S11350F02B09089560932C0970932D0908956093EA
S11351002E0970932F0908956115710531F0E0E0BF
S1135110F9E086818370282B268360933322709371
S113512034224093292350932A230895611571054D
S113513031F0E0E0F9E086818C70282B26836093BF
S113514035227093362240932B2350932C230895B9
S11351506115710531F0E0E0F9E087818370282B57
S11351602783609337227093382240932D235093E2
S11351702E2308956115710531F0E0E0F9E087818F
S11351808C70282B27836093392270933A224093A2
S11351902F235093302308956115710531F0E0E019
S11351A0F9E087818073282B278360933B227093D7
S11351B03C224093312350933223089561157105A5
S11351C031F0E0E0F9E08781807C282B278360932D
S11351D03D2270933E224093332350933423089509
S11351E0CF93DF93EC010E94370B8BE291E288832B
S11351F09983DF91CF9108952BE231E2FC01208362
S113520031830E943D0B0895FC014283E0E4F9E000
S11352108081807F8083138210A211A210A611A620
S113522012A613A616A217A28181887F682B618318
S1135230168217820895E0E4F9E066A377A320813B
S1135240207FDC0112969C91822F892B8083089504
S1135250E0E4F9E08081807F808310A211A20895A8
S1135260E0E4F9E090818081807F808310A211A224
S113527090830895E0E4F9E081818F70682B618365
S11352800895E0E4F9E081816095682361830895DD
S11352906093660970936709089560936809709331
S11352A06909089560936A0970936B0908956115FB
S11352B0710531F0E0E4F9E086818370282B2683C0
S11352C060933F22709340224093352350933623BA
S11352D008956115710531F0E0E4F9E086818C7080
S11352E0282B2683609341227093422240933723D4
S11352F05093382308956115710531F0E0E4F9E025
S113530087818370282B27836093432270934422E0
S11353104093392350933A2308956115710531F070
S1135320E0E4F9E087818C70282B27836093452281
S11353307093462240933B2350933C230895CF938C
S1135340DF93EC010E943E0B8FE491E28883998302
S1135350DF91CF9108952FE431E2FC012083318362
S11353600E94440B0895FC014283E0E0FBE080814D
S1135370807F8083138210A211A210A611A612A608
S113538013A614A615A616A617A616A217A28181FF
S1135390887F682B6183168217820895E0E0FBE022
S11353A066A377A32081207FDC0112969C91822F33
S11353B0892B80830895E0E0FBE08081807F8083F7
S11353C010A211A20895E0E0FBE08181682B6183C3
S11353D00895E0E0FBE0818160956823618308958E
S11353E0E0E0FBE0828162956F70682B6283089530
S11353F0E0E0FBE0828162956F70609568236283D0
S113540008956093260B7093270B08956093280BDF
S11354107093290B089560932A0B70932B0B0895B6
S113542060932C0B70932D0B089560932E0B709347
S11354302F0B08956115710531F0E0E0FBE08681E2
S11354408370282B26836093712270937222409379
S113545067235093682308956115710531F0E0E0E6
S1135460FBE086818C70282B2683609373227093D3
S113547074224093692350936A230895611571053A
S113548031F0E0E0FBE087818370282B2783609371
S113549075227093762240936B2350936C23089566
S11354A06115710531F0E0E0FBE087818C70282BF9
S11354B02783609377227093782240936D235093CF
S11354C06E2308956115710531F0E0E0FBE08781FA
S11354D08073282B27836093792270937A224093D8
S11354E06F235093702308956115710531F0E0E046
S11354F0FBE08781807C282B278360937B22709339
S11355007C2240937123509372230895CF93DF93A9
S1135510EC010E94370B8DE691E288839983DF9139
S1135520CF9108952DE631E2FC01208331830E945E
S11355303D0B08950E94A12A6894B1110C94302B5C
S113554008950E94152B88F09F5798F0B92F99273A
S1135550B751B0F0E1F0660F771F881F991F1AF05A
S1135560BA95C9F714C0B13091F00E942F2BB1E065
S113557008950C942F2B672F782F8827B85F39F064
S1135580B93FCCF3869577956795B395D9F73EF4F3
S113559090958095709561957F4F8F4F9F4F08959B
S11355A0E89409C097FB3EF49095809570956195B9
S11355B07F4F8F4F9F4F9923A9F0F92F96E9BB276F
S11355C09395F695879577956795B795F111F8CFEB
S11355D0FAF4BB0F11F460FF1BC06F5F7F4F8F4F56
S11355E09F4F16C0882311F096E911C0772321F04C
S11355F09EE8872F762F05C0662371F096E8862FE4
S113560070E060E02AF09A95660F771F881FDAF73A
S1135610880F9695879597F9089557FD9058440FEC
S1135620551F59F05F3F71F04795880F97FB991FFD
S113563061F09F3F79F087950895121613061406BA
S1135640551FF2CF4695F1DF08C016161706180647
S1135650991FF1CF86957105610508940895E89422
S1135660BB2766277727CB0197F908950E94492B1A
S11356700C94BA2B0E94AC2B38F00E94B32B20F070
S1135680952311F00C94A32B0C94A92B11240C94A6
S1135690302B0E940D2B70F3959FC1F3950F50E0B2
S11356A0551F629FF001729FBB27F00DB11D639FD0
S11356B0AA27F00DB11DAA1F649F6627B00DA11D76
S11356C0661F829F2227B00DA11D621F739FB00D1C
S11356D0A11D621F839FA00D611D221F749F33278C
S11356E0A00D611D231F849F600D211D822F762F25
S11356F06A2F11249F5750409AF0F1F088234AF002
S1135700EE0FFF1FBB1F661F771F881F915050406D
S1135710A9F79E3F510580F00C94A32B0C94302BD9
S11357205F3FE4F3983ED4F3869577956795B795F4
S1135730F795E7959F5FC1F7FE2B880F911D96950E
S1135740879597F9089597F99F6780E870E060E07E
S113575008959FEF80EC089500240A941616170606
S113576018060906089500240A941216130614064E
S113577005060895092E0394000C11F4882352F0B1
S1135780BB0F40F4BF2B11F460FF04C06F5F7F4F69
S11357908F4F9F4F0895DB018F939F930E94472C57
S11357A0BF91AF91A29F800D911DA39F900DB29FB9
S11357B0900D11240895AA1BBB1B51E107C0AA1F19
S11357C0BB1FA617B70710F0A61BB70B881F991F9E
S11357D05A95A9F780959095BC01CD010895A1E251
S11357E01A2EAA1BBB1BFD010DC0AA1FBB1FEE1F57
S11357F0FF1FA217B307E407F50720F0A21BB30BA2
S1135800E40BF50B661F771F881F991F1A9469F71D
S113581060957095809590959B01AC01BD01CF0179
S11358200895052E97FB1EF400940E94282C57FD22
S113583007D00E94EF2B07FC03D04EF40C94282CC5
S113584050954095309521953F4F4F4F5F4F0895A8
S113585090958095709561957F4F8F4F9F4F0895D8
S1135860EE0FFF1F881F8BBF0790F691E02D199450
S1135870A29FB001B39FC001A39F700D811D11248D
S1135880911DB29F700D811D1124911D08950E94D8
S1135890382CA59F900DB49F900DA49F800D911D51
S11358A011240895CF93DF938230910510F482E0A0
S11358B090E0E0913824F091392420E030E0C0E019
S11358C0D0E0309711F14081518148175907C0F059
S11358D04817590761F482819381209719F08A83CC
S11358E09B832BC0809338249093392426C02115A0
S11358F0310519F04217530718F49A01BE01DF016C
S1135900EF010280F381E02DDCCF2115310509F18F
S1135910281B390B2430310590F412968D919C91FB
S113592013976115710521F0FB018283938304C0F1
S11359308093382490933924FD01329644C0FD01AC
S1135940E20FF31F81939193225031092D933C93DD
S11359503AC02091362430913724232B41F42091EE
S11359600220309103202093362430933724209151
S11359700020309101202115310541F42DB73EB7A7
S11359804091042050910520241B350BE0913624CE
S1135990F0913724E217F307A0F42E1B3F0B2817CE
S11359A0390778F0AC014E5F5F4F2417350748F094
S11359B04E0F5F1F40933624509337248193919365
S11359C002C0E0E0F0E0CF01DF91CF9108950F93A2
S11359D01F93CF93DF93009709F48CC0FC01329797
S11359E01282138200913824109139240115110573
S11359F081F420813181820F931F209136243091CC
S1135A0037242817390779F5E0933624F09337249F
S1135A1071C0D80140E050E0AE17BF0750F41296B1
S1135A202D913C911397AD012115310509F1D9014F
S1135A30F3CF9D01DA012283338360817181860F64
S1135A40971F8217930769F4EC0128813981260F87
S1135A50371F2E5F3F4F208331838A819B8182834E
S1135A609383452B29F4E0933824F093392442C0DE
S1135A701296ED93FC931397ED01499159919E0170
S1135A80240F351FE217F30771F480819181840F8D
S1135A90951F02968D939C93119782819381129600
S1135AA08D939C931397E0E0F0E0D80112968D91CA
S1135AB09C911397009719F0F8018C01F6CF8D9102
S1135AC09C9198012E5F3F4F820F931F20913624A3
S1135AD0309137242817390769F4309729F4109244
S1135AE038241092392402C012821382009336247F
S1135AF010933724DF91CF911F910F910895FB01EB
S1135B00DC0102C001900D9241505040D8F7089535
S1135B1012E0CDE9D2E000E006C0802FFE010E9431
S1135B20302C2196011DCF39D10780E00807A9F751
S1075B30F894FFCF13
S1135B3400003A24200001070605030104020003BF
S1135B4401FF0200FEFFFDFEFCFDFBFDFAFCFA0072
S1135B54FEFAFCF9FBF9000C0C0C228A0C228A0CC8
S1135B6422890C228721831F7B1B6B0F79134B0122
S1135B74032F134D0B2B0000000000C8032104C99C
S1135B84031D21382162209320B220FA2000000052
S1135B9400D21ED21ED21ED21ED21ED21ED21ED29B
S1135BA41ED21ED21ED21ED21ED21ED21ED21ED26D
S1135BB41E00000000D21ED21ED21ED21ED21ED23D
S1135BC41ED21ED21ED21ED21ED21ED21ED21E001F
S1135BD4000000D21ED21ED21ED21ED21ED21ED24B
S1135BE41ED21ED21ED21E00000000CF234721560F
S1135BF4211D21382162209320B220FA20000000C4
S1135C0400D2230D24102413241B2422242A2433F5
S1135C14243C24452400000000A726C226CF26D70E
S1135C2426DE26E526EA26EF26F426F926FE2610A5
S1135C34272227342746275827000000007E27956B
S1135C4427A227AA27B427BB27C227C727CC27D133
S1135C5427E327F5270728000000002D28482855A6
S1135C64285D2864286B28702875287A287F28845E
S1135C74289628A828BA28CC28DE28000000000486
S1135C84291B29282930293A29412948294D2952EF
S1135C9429572969297B298D2900000000B329CEBD
S1135CA429DB29E329E929012A062A0B2A102A15C2
S1135CB42A1A2A2C2A3E2A502A622A742AF029F8FB
S1055CC42900B1
S9030000FC
