:100000000C948D020C94671D0C94981D0C94C91DC2
:100010000C94FA1D0C942B1E0C945C1E0C948D1EDB
:100020000C94BE1E0C94EF1E0C94201F0C94511FB8
:100030000C94821F0C94B31F0C94E41F0C94152095
:100040000C9446200C9477200C94A8200C94D92072
:100050000C940A210C943B210C946C210C949D214E
:100060000C94CE210C94FF210C9430220C9461222C
:100070000C9492220C94C3220C94F4220C94252309
:100080000C9456230C9487230C94B8230C94E923E6
:100090000C941A240C944B240C947C240C94AD24C2
:1000A0000C94DE240C940F250C9440250C9471259F
:1000B0000C94A2250C94D3250C9404260C9435267C
:1000C0000C9466260C9497260C94C8260C94F9265A
:1000D0000C942A270C945B270C948C270C94BD2736
:1000E0000C94EE270C941F280C9450280C94812813
:1000F0000C94B2280C94E3280C9414290C944529F0
:100100000C9476290C94A7290C94D8290C94092ACC
:100110000C943A2A0C946B2A0C949C2A0C94CD2AA9
:100120000C94FE2A0C942F2B0C94602B0C94BE0282
:100130000C94BE020C94912B0C94C22B0C94F32BB8
:100140000C94242C0C94552C0C94862C0C94B72CC9
:100150000C94E82C0C94192D0C944A2D0C947B2DA6
:100160000C94AC2D0C94DD2D0C940E2E0C943F2E83
:100170000C94702E0C94A12E0C94BE020C94BE0212
:100180000C94BE020C94BE020C94BE020C94BE02EF
:100190000C94BE020C94BE020C94BE020C94BE02DF
:1001A0000C94D22E0C94032F0C94BE020C94BE021D
:1001B0000C94342F0C94652F0C94962F0C94C72F0D
:1001C0000C94F82F0C9429300C94BE020C94BE02AF
:1001D0000C94BE020C94BE020C94BE020C945A30D5
:1001E0000C948B300C94BC300C94BE020C94BE0268
:1001F0000C94BE020C94BE020C94BE02DC035E049E
:100200005E04D5035E045E045E04E1033C045E0408
:10021000E8035E04EF035E04F6035E04FD035E0480
:100220005E045E045E045E0404040B0412041904FC
:100230002E045E0420045E0435045E045E045E0445
:100240005E045E045E0427045E04510443044A0411
:100250005E045E045E045E045E0458048A04900436
:1002600096049C04A2041F05A804AE041F05BD0447
:10027000C304C904CF04D504DB04E104E704ED049E
:100280006A356A3574357E358E35DE35E8351D368E
:100290001D361B361B360C9419040C9435040C9433
:1002A00074350C949B3A0C94DE350C94C4370C9442
:1002B000CD3D0C94BA3B0C94A23B0C94473B0C9460
:1002C000593C0C94723D0C94AC370C94613D0C94E9
:1002D000C9340C94D5040C94533E0C94633C0C9498
:1002E00020360C944E340C94B03B0C9420040C94A7
:1002F0004A040C94EF3D0C94E83A0C945E3C0C9448
:100300008A040C94F53B0C94ED3A0C94B23D0C9499
:100310003A3D0C94833B0C94AE040C94503D0C94E9
:100320004F1D0C94D13B0C94BF3B0C94C9040C940E
:10033000033D0C9489330C94A93B0C94B3370C9473
:10034000D43D0C94A4370C94B63C0C945F040C94EC
:10035000F43D0C94833C0C940B040C94ED040C942D
:1003600096040C941F060C94D23A0C941D360C94EF
:1003700043040C94CD370C94EC3C0C9460040C9426
:10038000CB3A0C94C73D0C94683C0C94203E0C94E2
:10039000CF040C94C3040C94D5030C94BA340C947D
:1003A000AD130C94C33A0C94423E0C94B63A0C94A0
:1003B000E33B0C94523C0C94B53B0C94ED300C9404
:1003C0001B3C0C94D93A0C94931C0C94303D0C9427
:1003D0003C040C94A8040C94BD040C9425310C949A
:1003E0002E040C94DC3D0C94363C0C9427040C94A5
:1003F000F93D0C947B330C94313E0C9423060C9401
:10040000293D0C94103D0C94E9330C948E350C94DA
:10041000903B0C943F3D0C94433C0C9458040C943A
:100420006D3C0C945E040C94B7030C94A53C0C94A6
:10043000BB370C94A2040C9404040C94253B0C943C
:1004400060330C94183D0C941B360C94F23A0C94C7
:10045000723C0C94F0300C94EA3D0C9451040C94D2
:10046000E8350C94363B0C9447360C946A350C9462
:10047000AC360C94C6320C9463370C941F050C9464
:100480009E370C94DC030C9422060C94A1370C9438
:10049000FD030C94943C0C94D6370C94BF3D0C9403
:1004A000353D0C946C3B0C94033B0C94FE3D0C943A
:1004B000E33A0C9460370C94973D0C94143B0C94E5
:1004C000983B0C94B6030C941C060C9424060C94D4
:1004D000DE3A0C94E53D0C9490040C949C040C942E
:1004E000EF030C94E1040C94E1030C94DB040C94F2
:1004F000A31B0C940F3E0C947E350C94C73C0C94BB
:10050000E7040C94223D0C94F6030C944B3C0C94A1
:1005100012040C94E803F030253111241FBECFEFF4
:10052000CDBFDFE3DEBF00E00CBF12E2A0E0B0E22F
:10053000E6E8F3E800E00BBF02C007900D92A43C90
:10054000B107D9F726E2A4ECB2E201C01D92AF32A6
:10055000B207E1F712E0CCE8D2E000E006C0219754
:100560000109802FFE010E941240CB38D10780E0A4
:100570000807A9F70E9453320C94B1410C94000073
:1005800008950895FC0162837383942F852F8483DB
:100590009583468357831082118208958F929F928C
:1005A000AF92BF92EF92FF920F931F93CF93DF937F
:1005B000CDB7DEB72A97CDBFDEBF7C018AE5898340
:1005C00080E58A83852E9924AA24BB24B22FAA27EA
:1005D0009927882788299929AA29BB2949015A01DD
:1005E0008824AA24BB24BA2CA92C982C88248829D6
:1005F0009929AA29BB2949015A0188249924BB2495
:10060000892C9A2CAB2CBB2488299929AA29BB298F
:100610008B839C83AD83BE837627672776276F8382
:10062000788710270127102709871A872AE0AE014B
:100630004F5F5F4F66E5F701828193810E94D53657
:10064000F701828193810E9412372A96CDBFDEBFC7
:10065000DF91CF911F910F91FF90EF90BF90AF90DE
:100660009F908F9008958F929F92AF92BF92EF923A
:10067000FF920F931F93CF93DF93CDB7DEB72A97E7
:10068000CDBFDEBF7C018AE5898380EA8A83852E1F
:100690009924AA24BB24B22FAA279927882788291E
:1006A0009929AA29BB2949015A018824AA24BB24D3
:1006B000BA2CA92C982C882488299929AA29BB29E5
:1006C00049015A0188249924BB24892C9A2CAB2CEB
:1006D000BB2488299929AA29BB298B839C83AD83B4
:1006E000BE837627672776276F83788710270127B1
:1006F000102709871A872AE0AE014F5F5F4F66E532
:10070000F701828193810E94D536F701828193811E
:100710000E9412372A96CDBFDEBFDF91CF911F9185
:100720000F91FF90EF90BF90AF909F908F900895A2
:100730000F931F93CF93DF931F92CDB7DEB78C013A
:10074000198221E0AE014F5F5F4F66E5FC018281B7
:1007500093810E94D536F801828193810E941237DD
:100760000F90DF91CF911F910F9108950895DC01B3
:10077000633031F4FA0181811F968C931F9706C074
:10078000663521F4FA0180818093C5221F964C9131
:100790001F9750E04033510508F090C0FA018827B8
:1007A000E250FF4F8F4F0C94124080E890E01C966F
:1007B0008D939C931D9708951C961D921C921D97D6
:1007C000089582E090E01C968D939C931D97089568
:1007D00084E090E01C968D939C931D97089588E08B
:1007E00090E01C968D939C931D97089580E190E076
:1007F0001C968D939C931D97089580E290E01C9623
:100800008D939C931D97089580E093E01C968D93A3
:100810009C931D97089580E093E01C968D939C9384
:100820001D97089580E092E01C968D939C931D97F0
:10083000089580E091E01C968D939C931D970895F8
:1008400080E090E21C968D939C931D97089580E024
:1008500090E31C968D939C931D97089580E090E102
:100860001C968D939C931D97089580E090E41C96B0
:100870008D939C931D97089580E095E01C968D9331
:100880009C931D97089580E096E01C968D939C9311
:100890001D97089580E097E01C968D939C931D977B
:1008A000089580E490E01C968D939C931D97089585
:1008B00080E094E01C968D939C931D970895089575
:1008C000AF92BF92CF92DF92EF92FF920F931F935E
:1008D000CF93DF93EC018B017A016901FA018081EA
:1008E00091810E94CC1C9C01FE01E450FF4FA0802E
:1008F000B180F2E0CF16D10409F075C0F80131974C
:10090000E231F10508F09BC08827E25DFE4F8F4F72
:100910000C941240FE01E051FF4F208331838FC0C1
:10092000FE01EE50FF4F2083318389C0FE01EC5061
:10093000FF4F2083318383C0FE01EA50FF4F2083A5
:1009400031837DC0FE01E850FF4F2083318377C0A3
:10095000FE01E650FF4F2083318371C0F7016081B3
:100960007181828193810E94D01CFE01E652FF4F6B
:10097000608371838283938362C0FE01EE5FFE4FCA
:10098000208331835CC0FE01EC5FFE4F2083318306
:1009900056C0FE01EA5FFE4F2083318350C0FE0146
:1009A000E85FFE4F208331834AC0FE01E65FFE4FC1
:1009B0002083318344C0FE01E45FFE4F20833183F6
:1009C0003EC0FE01E25FFE4F2083318338C0FE014E
:1009D000E05FFE4F2083318332C0FE01EE5EFE4FAA
:1009E000208331832CC00130110551F420E030E028
:1009F000A601B701CE0180519F4F0E94961C1FC0D7
:100A00000530110551F420E030E0A601B701CE0118
:100A100088509F4F0E94961C12C00230110579F435
:100A20008E85863050F420E030E0A601B701CE017B
:100A30008E509F4F0E94961C02C00E94D439C45011
:100A4000DF4FA882B982DF91CF911F910F91FF9064
:100A5000EF90DF90CF90BF90AF9008958F929F92CC
:100A6000AF92BF92CF92DF92EF92FF920F931F93BC
:100A7000CF93DF936C01FB017A01DC018D909C9098
:100A8000DA01CD91DC91C401BE010E94A93F6C9FA7
:100A900050016D9FB00C7C9FB00C1124C081D1819E
:100AA000C819D909F80160817181D7016D937C93D0
:100AB000CE010E94A93F2617370760F43296619154
:100AC0007191D7016D937C93CE010E94A93F2617A7
:100AD0003707A8F3F601A082B182DF91CF911F9171
:100AE0000F91FF90EF90DF90CF90BF90AF909F90CD
:100AF0008F9008952EE731E2FC0120833183089521
:100B00002EE731E2FC01208331830E94B93408953D
:100B1000CF93DF931F921F92CDB7DEB7FC01E8524F
:100B2000FF4F60817181CB01A0E0B0E0BC01CD013D
:100B3000052E5AE0660F771F881F991F5A95D1F727
:100B4000502D24EF31E040E050E00E94D13FC90138
:100B5000880F991F880F991F6FEF7FE00E94C21CBA
:100B600089839A8342E050E0BE016F5F7F4F85E248
:100B700096E20E94171D0F900F90DF91CF9108957C
:100B8000CF93DF93EC01C85DDE4F888199810E948D
:100B90002937888199810E941237888199810E9422
:100BA000AF36DF91CF910895CF93DF93EC01C85D0D
:100BB000DE4F888199810E94E436888199810E9464
:100BC0001237DF91CF9108950F931F93CF93DF9347
:100BD0001F921F92CDB7DEB78C01CB010E94CC1CB7
:100BE00089839A83085D1E4F22E0AE014F5F5F4FFD
:100BF00063E0F801808191810E94D536F8018081FF
:100C000091810E9412370F900F90DF91CF911F9129
:100C10000F910895FC018389882321F085EE95E2E8
:100C20000E94B0390895FC018389882321F085EE64
:100C300095E20E94AC3908950E940A0608950E9428
:100C4000130608950895089508958F929F92AF9284
:100C5000BF92CF92DF92EF92FF920F93CF93DF93E9
:100C6000EC016B017A01023081F018F4013031F0AF
:100C700033C00330B9F0043011F12EC081E090E0B0
:100C800088AF99AF8EAB9FAB44C081E090E0FE018E
:100C9000EE5AFF4F8083918386E090E03297808305
:100CA00091831DC081E090E0FE01E459FF4F8083F5
:100CB000918383E090E032978083918310C086E037
:100CC00090E0FE01EA57FF4F808391838AE090E035
:100CD00032978083918303C0013009F4B2C0802F22
:100CE00090E0FE012AE1029FE00DF11D1124268D06
:100CF000378DC216D30668F02AE1289FF001299F9C
:100D0000F00D1124EC0FFD1F848D958D8C159D0524
:100D100028F4FE01EE50FF4FC082D182C601880F39
:100D2000991FFC01EC5DFE4D20813181FC01E25FE9
:100D3000FE4D0190F081E02DDC01A850BF4DAD903B
:100D4000BC9041E0A41AB108CF01821B930BB501FE
:100D50000E94A93F033021F4E4E6F0E02AE030E00D
:100D6000522F432F2E153F0510F45E2D4F2D852F4A
:100D7000942FE817F90708F4CF01E02EF12C4E016B
:100D8000AAE10A9F800C911C1124D4015A964D911E
:100D90005C915B974217530781F40AE10E9DA00115
:100DA0000F9D500D11244C0F5D1FDA0158964D9187
:100DB0005C9159974E175F07A1F0D4015A962D9375
:100DC0003C935B974AE14E9DD0014F9DB00D11249D
:100DD000AC0FBD1F5896ED93FC93599741E09C963C
:100DE0004C93821B930B0E94A93F80E090E00E94ED
:100DF000C71CB5010E94C21C4BE04C9D90014D9D4B
:100E0000300D1124820F931FFC01EE0FFF1FEA5FCC
:100E1000FF4D208131818AE18E9DF0018F9DF00D83
:100E20001124EC0FFD1F248B358B40A151A1868925
:100E300097898417950711F1468B578B81E085A719
:100E40001DC0C601880F991FFC01EC5DFE4D20817D
:100E50003181FC01E25FFE4D0190F081E02DDC016B
:100E6000A850BF4DAD90BC90B1E0AB1AB108CF0116
:100E7000821B930BB5010E94A93F72CFDF91CF91E6
:100E80000F91FF90EF90DF90CF90BF90AF909F9029
:100E90008F9008953F924F925F926F927F928F92C0
:100EA0009F92AF92BF92CF92DF92EF92FF920F93F9
:100EB0001F93CF93DF93CDB7DEB72A97CDBFDEBFA9
:100EC0007C016B015A014901302E22E0021701F129
:100ED000201720F041E0041741F041C083E00817DB
:100EE00021F1A4E00A1771F13AC081E090E0F70126
:100EF00080AF91AF86AB97ABDB018D919C91119741
:100F0000019709F49BC181E090E08D939C9397C178
:100F100081E090E0F701EE5AFF4F8083918386E0F5
:100F200090E03297808391831EC081E090E0F701CA
:100F3000E459FF4F8083918383E090E03297808370
:100F4000918311C086E090E0F701EA57FF4F80835C
:100F500091838AE090E032978083918304C0B1E06E
:100F60003B1609F46FC1F60120813181832D90E099
:100F7000F7014AE1349EE00DF11D1124468D578D95
:100F80002417350788F4D6014D935C932AE1289FF6
:100F9000F001299FF00D1124EE0DFF1D848D958D1C
:100FA0008417950770F010C04AE1489FF001499FEF
:100FB000F00D1124EE0DFF1D848D958D8217930782
:100FC00070F4F60180839183D6018D919C91F70195
:100FD000EE50FF4F8083918381E0F701818BD60132
:100FE0002D913C91220F331FF901EC5DFE4D4081A4
:100FF000518149875A87F901E25FFE4D80819181D5
:101000008F839887841B950BF901E850FF4D608111
:101010007181615071090E94A93F3B01B3E03B120D
:1010200008C08AE090E089879A8784E690E08F8301
:101030009887F5014081518189859A85481759071C
:1010400008F020C1808391832F81388528173907C4
:1010500018F4D5012D933C9381E090E08D839E831D
:1010600008E010E224E130E0AE014B5F5F4FBE01CB
:10107000695F7F4FCE0109960E942E056D817E81AA
:101080004AE1032D10E0F701439DE00DF11D11240D
:1010900060A771A74F80588429853A85C201821BB9
:1010A000930B0E94A93F62A773A726A337A30F5FE4
:1010B0001F4F409FD001419FB00D1124AE0DBF1DA9
:1010C0002D933C93408E518E97012C503F4FD5016C
:1010D0008D919C9146A157A1841B950B60A571A58C
:1010E0000E94A93FF90160837183D5018D919C9184
:1010F00036968083918381E0F701818BD601ED9153
:10110000FC91EE0FFF1FE850FF4D40805180B1E091
:101110004B1A5108F5018081918129853A85821BFE
:10112000930BB3010E94A93F80E090E00E94C71C8E
:10113000B2010E94C21CD6014D915C916BE0649F8C
:101140009001659F300D1124820F931FFC01EE0F5B
:10115000FF1FEA5FFF4D80819181432D50E0F70131
:10116000BAE13B9EE00DF11D1124848B958BF401B7
:10117000208131818217930708F05DC080839183BD
:1011800081E090E08D839E838AE1849F6001859F4A
:10119000D00C1124CE0CDF1CD60154968D919C915D
:1011A00055978B839C8390968D919C919197898381
:1011B0009A8308E010E224E130E0AE014B5F5F4F1C
:1011C000BE016D5F7F4FCE0101960E942E052981E1
:1011D0003A81F60120A331A36D817E8162A373A3BE
:1011E00084899589821B930B0E94A93F64A375A3F0
:1011F000268B378B8B819C81848B958BF701EA50F2
:10120000FF4FD4018D919C91D601821B930B929636
:101210006D917C9193970E94A93F60837183F40143
:1012200080819181F701E450FF4F8083918381E0B9
:10123000D70151968C93F70181894BC080E08111D1
:10124000C3CE27C0D6012D913C91220F331FF90147
:10125000EC5DFE4D4081518149875A87F901E25F7B
:10126000FE4D808191818F839887841B950BF901B6
:10127000E850FF4D60817181615071090E94A93F62
:101280003B01D7CE2F8138852417350708F4E1CEEE
:1012900035CFF60120813181220F331FF901EC5D3A
:1012A000FE4D4081518149875A87F901E25FFE4D29
:1012B000808191818F839887841B950BF901E85079
:1012C000FF4D60817181615071090E94A93F3B010E
:1012D000B0CE2A96CDBFDEBFDF91CF911F910F9187
:1012E000FF90EF90DF90CF90BF90AF909F908F9046
:1012F0007F906F905F904F903F900895BF92CF92F4
:10130000DF92EF92FF920F931F93CF93DF9300D062
:1013100000D0CDB7DEB77C016A0181E090E08D831B
:101320009E83D7011E968C9190E09C012F5F3F4FCA
:101330000F2EFAE1BF2EF02DB29EF001B39EF00DFC
:101340001124EE0DFF1D208131812B833C83B89E3B
:10135000F001B99EF00D1124EE0DFF1D808D918DD1
:1013600089839A8308E010E224E130E0AE014B5F0C
:101370005F4FBE016F5F7F4FCE0103960E942E0527
:10138000F70186856D817E81B89EE00DF11D1124E7
:1013900060A771A72B813C8189819A81821B930B65
:1013A0000E94A93F62A773A726A337A314A697019B
:1013B0002C503F4FD6018D919C9146A157A1841B83
:1013C000950B60A571A50E94A93FF9016083718307
:1013D000D6018D919C913696808391832696CDBFC0
:1013E000DEBFDF91CF911F910F91FF90EF90DF90C3
:1013F000CF90BF900895BF92CF92DF92EF92FF926D
:101400000F931F93CF93DF9300D000D0CDB7DEB7FB
:101410007C016A0181E090E08D839E83D7011E9656
:101420008C910F2EFAE1BF2EF02DF701B89EE00D42
:10143000F11D1124848995898B839C8386899789E2
:1014400089839A8308E010E224E130E0AE014B5F2B
:101450005F4FBE016D5F7F4FCE0101960E942E054A
:10146000F70186856D817E81B89EE00DF11D112406
:1014700062A373A329813A8184899589821B930B86
:101480000E94A93F64A375A320A331A315A69701C9
:101490002A503F4FD6018D919C9140A151A1841BB0
:1014A000950B62A173A10E94A93FF901608371832A
:1014B000D6018D919C913696808391832696CDBFDF
:1014C000DEBFDF91CF911F910F91FF90EF90DF90E2
:1014D000CF90BF9008957F928F929F92AF92BF92CC
:1014E000CF92DF92EF92FF920F931F93CF93DF93F0
:1014F000CDB7DEB72A97CDBFDEBF7C018B016A0175
:10150000DB01ED91FC91CF01880F991FDC01AC5DEF
:10151000BE4D4D915C9149875A87DC01A25FBE4D5B
:101520008D919C918F8398872330D1F48AE090E04D
:1015300089879A8784E690E08F839887EE0FFF1F54
:10154000E850FF4D60817181615071098AE590E03A
:101550000E94A93F5B0181E090E08D839E8344C09F
:1015600049855A85EE0FFF1FE850FF4D608171815C
:10157000E1E0F0E0ED83FE83243079F5F701E857F0
:10158000FF4F86E090E080839183329621E030E047
:1015900020833183329647E050E0408351833E9769
:1015A0008083918332978CE090E080839183729660
:1015B00082E190E08083918332962083318332965A
:1015C00021E130E0208331837097808391833297CB
:1015D00083E290E0808391838EC0841B950B6150E1
:1015E00071090E94A93F5B01722E480108E010E2D8
:1015F00024E130E0AE014B5F5F4FBE01695F7F4F7A
:10160000CE0109960E942E056D817E81BAE17B9EF6
:10161000E00CF11C1124F70160A771A729853A8518
:101620008F819885821B930B0E94A93F62A773A7A5
:1016300026A337A314A6D401ED91FC91EE0FFF1F52
:10164000E850FF4D0081118101501109F6018081A0
:101650009181821B930BB5010E94A93F80E090E02D
:101660000E94C71CB8010E94C21CD4014D915C911C
:101670006BE0649F9001659F300D1124820F931FD2
:10168000FC01EE0FFF1FEA5FFF4D80819181F701A2
:10169000848B958B21E030E02D833E838B839C836C
:1016A00080A191A189839A8308E010E224E130E0CF
:1016B000AE014B5F5F4FBE016D5F7F4FCE01019664
:1016C0000E942E0529813A81D70190962D933C9353
:1016D00091976D817E8192966D937C9393975496AA
:1016E0008D919C915597821B930B0E94A93FF70106
:1016F00064A375A315A62A96CDBFDEBFDF91CF9157
:101700001F910F91FF90EF90DF90CF90BF90AF901F
:101710009F908F907F9008958F929F92AF92BF92EB
:10172000CF92DF92EF92FF920F931F93CF93DF93AD
:101730007C016B01EA015901102FD9012D913C91D7
:1017400048815981FB01608171810E942506212F0A
:10175000AE01B601C7010E946B0A812E912CD60101
:101760002D913C91F401EE0FFF1FE80DF91DCF0103
:10177000880F991FF701E80FF91FDF01AA56BF4F25
:101780002D933C938AE1889D9001899D300D112411
:101790002E0D3F1DD5018D919C91D90190964D91B3
:1017A0005C919197841B950B92966D917C91939788
:1017B0000E94A93FDF01A656BF4F6D937C9388819D
:1017C0009981D90196964D915C919797841B950BC1
:1017D00098966D917C9199970E94A93FDF01A85638
:1017E000BF4F6D937C931197888199815E968D93FD
:1017F0009C93D5018D919C91DF01A854BF4F8D938F
:101800009C93EC54FF4F84E090E0808391831430EC
:1018100069F4F401EE0FFF1FE80DF91DEE0FFF1F35
:10182000EE0DFF1DEC54FF4F10821182F601A080D7
:10183000B18088EE93E0B5010E94A93F6B01288139
:101840003981A8EEB3E00E941A40960140E050E0D2
:101850000E94D13F89019A018AE698E1B5010E9470
:10186000A93FEB01CC0FDD1F660F771F660F771FB7
:10187000660F771FC60FD71FF701EE52FF4FC083C9
:10188000D1835701F4EDAF0EB11CDE01A90198011F
:101890000E94294028EE33E040E050E00E94D13F12
:1018A000C21BD30BD501CD93DC93F701EA52FF4F56
:1018B000C082D182DF91CF911F910F91FF90EF9065
:1018C000DF90CF90BF90AF909F908F90089542305F
:1018D000D9F018F4413031F03EC0433011F14430BA
:1018E00069F139C021E030E0FC0120AF31AF26AB17
:1018F00037ABFB0180819181019709F448C081E0F9
:1019000090E080839183089521E030E0FC01EE5A5D
:10191000FF4F2083318326E030E0329720833183EC
:101920001CC021E030E0FC01E459FF4F20833183EB
:1019300023E030E03297208331830FC026E030E08F
:10194000FC01EA57FF4F208331832AE030E03297D1
:101950002083318302C04130B1F0FB01208131810D
:10196000FC015AE1459FE00DF11D1124468D578D74
:10197000848D958D8217930740F081E024173507F9
:1019800038F080E0089580E0089581E0089580E0D7
:1019900008950F931F93CF93DF93FC01D9018A57CA
:1019A0009F4F26E030E0EC012883398302972AE03C
:1019B00030E0EC0128833983EB0188819981069717
:1019C00020F486E090E088839983CF018C579F4F65
:1019D000EC0188819981EB01288139818217930775
:1019E00010F488839983EB0188819981EF01CE50AF
:1019F000DF4F888399838D919C9111978E3091054B
:101A000030F08DE090E08D939C93119707C006977E
:101A100028F486E090E08D939C931197EF01C857CE
:101A2000DF4F86E090E0888399839F0126573F4FE0
:101A300001E010E0E901088319832E5F3F4F67E062
:101A400070E0E901688379832E503109E9018883C8
:101A50009983CF0184589F4F2DE030E0EC0128831B
:101A600039839F012A503F4F8D919C911197069782
:101A7000E901888399832D913C911197CF0184507E
:101A80009F4FEC01288339836D917C9180EA95E02A
:101A9000689F9001699F300D789F300D1124369515
:101AA000279536952795A5ECB0E20E941A409295AD
:101AB00082958F7089279F708927DA018D939C9377
:101AC000DF01A257BF4F82E190E08D939C93119765
:101AD00012960D931C931197129621E130E02D93ED
:101AE0003C93119750978D939C931197129783E293
:101AF00090E08D939C931197AC58BF4FEA01888179
:101B0000998142978D939C9388819981E650FF4FEC
:101B10008083918381E0DF91CF911F910F91089590
:101B20004F925F926F927F92AF92BF92CF92DF926D
:101B3000EF92FF920F931F93CF93DF93CDB7DEB752
:101B40002C97CDBFDEBF6C01FA01DB010D911C911A
:101B500088EE93E0B8010E94A93F7B012281338186
:101B6000A8EEB3E00E941A40970140E050E00E94C6
:101B7000D13F29013A018AE698E1B8010E94A93FC4
:101B80008B01000F111FAB01440F551F440F551F50
:101B9000440F551F040F151FF601EE52FF4F00832F
:101BA00011835601B4EDAB0EB11CD801A301920113
:101BB0000E94294028EE33E040E050E00E94D13FEF
:101BC000021B130BF501008311833296E082F18230
:101BD00060E18CE196E20E94C73D60E28CE196E212
:101BE0000E94C73D60E18CE196E20E94D43D60E234
:101BF0008CE196E20E94D43D86E0FE013796DE013C
:101C0000119601900D928A95E1F729813A814B81D5
:101C10005C816D817E8180E090E02C96CDBFDEBF3F
:101C2000DF91CF911F910F91FF90EF90DF90CF90B8
:101C3000BF90AF907F906F905F904F900895EF921C
:101C4000FF920F931F93CF93DF9300D000D0CDB7B7
:101C5000DEB77C0183E090E08D839E8381E490E099
:101C60008B839C8386E190E089839A8382E0F701ED
:101C70008687E051FF4F82E090E0808391836A3055
:101C8000710570F481E090E07496808391838BE419
:101C900090E08B839C8385E190E089839A8357C091
:101CA0006431710580F482E090E0F701EC5FFE4F53
:101CB0008083918386E490E08B839C8387E190E02E
:101CC00089839A8344C06332710580F483E090E095
:101CD000F701EC5FFE4F8083918386E490E08B8375
:101CE0009C8387E190E089839A8331C061337105D9
:101CF00060F484E090E0F701EC5FFE4F8083918315
:101D000085E190E089839A8322C06834710560F48C
:101D100085E090E0F701EC5FFE4F8083918384E6DD
:101D200090E08B839C8313C086E090E0F701EC5F2A
:101D3000FE4F8083918381E090E08D839E8388ECC9
:101D400090E08B839C8380E290E089839A83F70103
:101D500006859E012F5F3F4FAE014D5F5F4FBE0175
:101D60006B5F7F4FC7010E948C0B81E0F701818B75
:101D7000268530E0870108501F4FB901660F771F95
:101D8000AB01420F531F440F551F4C545F4F4E0D74
:101D90005F1D620F731F660F771F6A567F4F6E0DB0
:101DA0007F1DC7010E94900DF8012083318342837B
:101DB0005383648375832696CDBFDEBFDF91CF91B9
:101DC0001F910F91FF90EF900895EF92FF920F9364
:101DD0001F93CF93DF9300D000D0CDB7DEB77C0147
:101DE00083E090E08D839E8381E490E08B839C83ED
:101DF00086E190E089839A8382E0F7018687E0514B
:101E0000FF4F82E090E080839183749660837183BA
:101E10006330710591F138F46130710571F0623011
:101E20007105D9F065C06530710509F442C0A8F1AB
:101E30006630710509F449C05BC085E090E0F701A8
:101E4000EE5FFE4F808391838BE490E08B839C83D5
:101E500085E190E089839A834BC08EE090E0F701A2
:101E6000EE5FFE4F8083918386E490E08B839C83BA
:101E700087E190E089839A833BC08BE190E0F70192
:101E8000EE5FFE4F8083918386E490E08B839C839A
:101E900087E190E089839A832BC089E290E0F70183
:101EA000EE5FFE4F8083918385E190E089839A8382
:101EB0001FC08DE390E0F701EE5FFE4F80839183BA
:101EC00084E690E08B839C8313C085E590E0F70166
:101ED000EE5FFE4F8083918381E090E08D839E834F
:101EE00088EC90E08B839C8380E290E089839A83E6
:101EF00002E09E012F5F3F4FAE014D5F5F4FBE017D
:101F00006B5F7F4FC7010E948C0B81E0F701818BD3
:101F1000268530E0870108501F4FB901660F771FF3
:101F2000AB01420F531F440F551F4C545F4F4E0DD2
:101F30005F1D620F731F660F771F6A567F4F6E0D0E
:101F40007F1DC7010E94900DF801208331834283D9
:101F50005383648375832696CDBFDEBFDF91CF9117
:101F60001F910F91FF90EF9008952F923F924F9203
:101F70005F926F927F928F929F92AF92BF92CF9219
:101F8000DF92EF92FF920F93CF93DF9300D000D0B8
:101F9000CDB7DEB77C01FC01E85DFE4F6083718345
:101FA000FC011786118A128A138A4C01F0EE8F1AEF
:101FB000FEEF9F0A6894662461F8712CF401608238
:101FC00071825C01FEEDAF1AFEEFBF0A0F2EFAE040
:101FD000CF2ED12CF02DF501C082D1823497108202
:101FE0001182F40180819181369780839183F5017C
:101FF000808191813697808391833A9610821182F5
:10200000CD82DE820F2EF8E24F2E512CF02D4B8226
:102010005C820F2EFEE02F2E312CF02D29823A8289
:1020200004E09E012F5F3F4FAE014D5F5F4FBE0149
:102030006B5F7F4FC7010E948C0B85E090E08D8322
:102040009E8380E590E08B839C838AE190E0898386
:102050009A8303E09E012F5F3F4FAE014D5F5F4FBC
:10206000BE016B5F7F4FC7010E948C0B6D827E8229
:1020700088E790E08B839C8384E290E089839A8355
:1020800002E09E012F5F3F4FAE014D5F5F4FBE01EB
:102090006B5F7F4FC7010E948C0B66246394712C89
:1020A0006D827E8284E690E08B839C8386E290E062
:1020B00089839A8301E09E012F5F3F4FAE014D5F00
:1020C0005F4FBE016B5F7F4FC7010E948C0B84E0A6
:1020D000F701868781E090E00E946A41F701E652AD
:1020E000FF4F6083718382839383769624E030E090
:1020F00020833183D701AE50BF4FE254F10926E06F
:1021000001900D922A95E1F7D701A850BF4FF70132
:10211000E453FF4F26E001900D922A95E1F7F40178
:1021200020813181749720833183F50120813181B1
:102130007497208331830E94D01CF701E250FF4F37
:1021400060837183828393833496108211823296E6
:102150006082718232968091B4249091B5248083FC
:102160009183329683E090E080839183329610824F
:10217000118236961082118232968DE090E0808333
:10218000918334961082118212821382CD82DE8274
:102190004B825C8229823A8204E09E012F5F3F4F8E
:1021A000AE014D5F5F4FBE016B5F7F4FC7010E9465
:1021B0008C0B47E063E08CE196E20E94973DF701CB
:1021C000EE52FF4F608171818CE196E20E94E53D05
:1021D0006701F4EDCF0ED11CF601608171818CE1B5
:1021E00096E20E94EA3D21E0A70163EA7BE18CE1EF
:1021F00096E20E94FE3D21E0A7016FE574E08CE1CC
:1022000096E20E94203E60E18CE196E20E94C73D8A
:1022100060E18CE196E20E94D43DF601608171811B
:102220008CE196E20E94EF3D60E28CE196E20E9432
:10223000C73D60E28CE196E20E94D43D2696CDBF78
:10224000DEBFDF91CF910F91FF90EF90DF90CF90A5
:10225000BF90AF909F908F907F906F905F904F90C6
:102260003F902F900895EF92FF920F931F93CF937B
:10227000DF93CDB7DEB7AC97CDBFDEBF8C0183E077
:1022800090E00E94CC1C8BA79CA7780188EDE81AEF
:102290008EEFF80A22E0AE01455D5F4F63E0F70183
:1022A000808191810E94D536F701808191810E94C1
:1022B0001237F801E051FF4F8AE2DE0111960190DA
:1022C0000D928A95E1F7F801E450FF4F408151816A
:1022D0009A01ADECBCEC0E941A40969587959695B4
:1022E0008795480F591F4D875E872AE230E0AE017F
:1022F0004F5F5F4F61E070E0F701808191810E9444
:10230000E436F701808191810E94123768EA71E614
:1023100082E296E20E94B63A84E090E0F801848777
:102320009587AC96CDBFDEBFDF91CF911F910F9106
:10233000FF90EF9008954F925F926F927F928F92ED
:102340009F92AF92BF92CF92DF92EF92FF920F9344
:102350001F93CF93DF93CDB7DEB72C97CDBFDEBFF2
:102360008C01FA01DB012D913C9188EE93E0B901DB
:102370000E94A93F828193816C01D694C794223038
:10238000310548F07B01E81AF90AB5E0EB0EF11CC3
:1023900025E030E008C07B01E81AF90AEAE0EE0E19
:1023A000F11C2AE030E05801F4EEAF0EB11CA1E7B9
:1023B000B2E00E941A400F2EFAE04F2E512C612CF1
:1023C000712CF02DA30192010E94D13FD5012D93D4
:1023D0003C939601A1E7B2E00E941A40A30192014A
:1023E0000E94D13F49015A01F801EA51FF4F208371
:1023F00031836801B8EECB0ED11C9701A1E7B2E0A2
:102400000E941A40A30192010E94D13FF60120834D
:10241000318332968082918260E18CE196E20E9463
:10242000CD3D60E28CE196E20E94CD3D86E0FE016A
:102430003796DE01119601900D928A95E1F7298178
:102440003A814B815C816D817E8180E090E02C96A9
:10245000CDBFDEBFDF91CF911F910F91FF90EF9025
:10246000DF90CF90BF90AF909F908F907F906F90B4
:102470005F904F900895CF93DF93EC01FC01EA5DEC
:10248000FE4F80819181892B29F080819181019774
:1024900080839183FE01E25EFE4F808191818536CB
:1024A000910510F0108211828A89882309F489C06D
:1024B000FE01E25EFE4F80819181892B09F079C097
:1024C000329780819181892B09F04CC032978081AD
:1024D0009181892BD1F58C859D850297A1F522E00C
:1024E00044E650E065E071E084EE95E20E943E3AF9
:1024F00084EE95E20E94723A22E044E650E066E201
:1025000071E084EE95E20E943E3A84EE95E20E94EC
:10251000723A22E044E650E069E471E084EE95E22C
:102520000E943E3A84EE95E20E94723A22E044E62E
:1025300050E06DE571E084EE95E20E943E3A84EE53
:1025400095E20E94723A1A8A05C18CE390E0FE017E
:10255000E45EFE4F80839183329780819181019761
:102560008083918384E690E0FE01E25EFE4F8083EB
:1025700091833297808191810197808391838C85AB
:102580009D850297B1F4329780819181892B09F062
:102590009CC03296808191810A9708F4A4C095C0AE
:1025A000FE01E45EFE4F80819181059708F4A4C08E
:1025B000B1C0FE01E25EFE4F808191810A97808367
:1025C00091838B8981114DC0FE01E25EFE4F8081B7
:1025D000918186349105E8F13297208131813696D8
:1025E000808191812817390708F4A2C0389720818B
:1025F00031813696808191812817390708F0A1C072
:1026000097C0FE01E65EFE4F2081318136968081C3
:1026100091812817390728F080819181369780832E
:102620009183FE01E45EFE4F108211823297808119
:102630009181019680839183FE01E45EFE4F80814B
:102640009181019680839183FE01E25EFE4F1082AC
:102650001182FE01E25EFE4F808191810A968083A5
:1026600091838091062090910720892B21F584E6A3
:1026700090E08093062090930720809160089091CD
:10268000610849E4489F9001499F300D1124A5EC51
:10269000BEE40E941A4096958795929582958F7018
:1026A00089279F708927CC5DDE4F8883998389E1D4
:1026B00096E20E94983B80910620909107200A970D
:1026C000809306209093072045C022E049E150E026
:1026D00068EE73E084EE95E20E943E3A84EE95E265
:1026E0000E94723A66CFFE01E65EFE4F80819181C4
:1026F000892B09F455CF0EC022E044E650E068EE85
:1027000073E084EE95E20E943E3A84EE95E20E94E8
:10271000723A4FCF22E042E350E068EE73E084EE7D
:1027200095E20E943E3A84EE95E20E94723A41CFD1
:10273000FE01E45EFE4F80819181CC9709F07CCF51
:1027400060CFFE01EE5DFE4F8081918136978083E0
:1027500091837ACFDF91CF9108950E943B12089523
:102760008CE196E20E94BF3D60E18CE196E20E941E
:10277000D43D60E28CE196E20E94D43DE0EAF6E0CE
:1027800081E0858382E0858308954F925F926F9206
:102790007F928F929F92AF92BF92CF92DF92EF92F1
:1027A000FF920F931F93CF93DF93CDB7DEB7EA97D6
:1027B000CDBFDEBF7C018C01085D1E4F42E063E0AF
:1027C000D8018D919C910E942337F80180819181DD
:1027D0000E941237D8018D919C910E94AF36BFEFB5
:1027E000E9EFF0E0B150E040F040E1F700C0000058
:1027F000D7011C968D919C911D979F70892B09F490
:1028000041C022E030E044EB54E26CE070E0C701EC
:102810000E94D405F701EC5DFE4F808191814497C1
:1028200028F481E090E0709780839183F701EC5D5C
:10283000FE4F80819181449728F080819181899712
:1028400008F403C6F701EC5DFE4F80819181899702
:1028500028F083E090E070978083918322E030E05D
:10286000A7014C5E5E4F63E170E0C7010E94D40592
:1028700022E030E0A7014C5D5E4F6EE070E0C701E2
:102880000E94D405F7018485958588739927892B43
:10289000E1F08091B4249091B5248D329140ACF058
:1028A00069E270E0C7010E94E405D7011F968C9190
:1028B0001F9750968C93C7010E94B01385EE95E246
:1028C0000E94D03987E0F701808BD7011C968D914B
:1028D0009C911D978115B2E09B0709F4C5C444F58E
:1028E0008031910509F4F6C38CF48230910509F426
:1028F0007DC324F4892B09F44BC075C58430910540
:1029000009F464C0089709F4D1C36DC580349105FA
:1029100009F4A4C324F4809709F4DCC364C58038A7
:10292000910509F442C08115914009F469C45BC561
:10293000811527E0920709F43AC4ACF48115A4E0AC
:102940009A0709F4C3C42CF48115934009F495C483
:102950004AC58115F5E09F0709F443C481159640E7
:1029600009F413C440C5811530E2930709F4ECC49F
:102970002CF48115904109F4AFC435C58115E0E30D
:102980009E0709F40EC58115904409F427C52BC58F
:1029900063E070E0C7010E94E40581E090E0D701A8
:1029A0001C968D939C931D9722C5F701128AC7012F
:1029B0000E94B01385EE95E20E94D039D70153965C
:1029C0001C9285EE95E20E94AC3911C5F701128A7E
:1029D000C7010E94B013D70153961C9285EE95E271
:1029E0000E94AC39F701EE5FFE4F808091803296F5
:1029F000A080B18072978081918189AF9AAF329621
:102A000060807180329640805180870108501F4F4E
:102A1000F801C080D18046E050E062E070E0C7017C
:102A20000E94C005FFEF29EF30E0F1502040304018
:102A3000E1F700C0000046E050E065E070E0C7014B
:102A40000E94C0058FEF99EFA0E081509040A04018
:102A5000E1F700C0000042E050E06DE070E0C70127
:102A60000E94C005BFEFE9EFF0E0B150E040F04058
:102A7000E1F700C0000042E050E061E070E0C70113
:102A80000E94C0052FEF39EF80E021503040804098
:102A9000E1F700C0000042E050E06AE070E0C701EA
:102AA0000E94C0059FEFA9EFB0E09150A040B04058
:102AB000E1F700C0000042E050E06BE070E0C701C9
:102AC0000E94C005EFEFF9EF20E0E150F040204018
:102AD000E1F700C00000F701E652FF4F608171810D
:102AE000828193810E94D01CF701E250FF4F6083E6
:102AF0007183828393838091B4249091B524389616
:102B0000808391837E96808191817A97808391835F
:102B1000D8018D919C918C159D0521F184309105F2
:102B200009F49FC4F7012685243009F496C484E093
:102B300090E0F8018083918381E0D70151968C93D6
:102B400056C4F701E850FF4F10821182F701E85098
:102B5000FF4F808191813C978083918381E0F701D1
:102B6000818B45C4F701EC5FFE4F608171816A156E
:102B70007B0589F1C7010E94E50ED7011E968C9155
:102B80001E9790E0AC01440F551F9A01280F391F82
:102B9000220F331FF901EA56FF4FEE0DFF1D26E00D
:102BA000AE50BF4F01900D922A95E1F7840F951F0B
:102BB000880F991FFC01EC54FF4FEE0DFF1D86E0BE
:102BC000D701A850BF4F01900D928A95E1F781E09F
:102BD000F701818B0CC4F701EE5FFE4F60817181BC
:102BE0006815790589F1C7010E941F0ED7011E964D
:102BF0008C911E9790E0AC01440F551F9A01280F4D
:102C0000391F220F331FF901EA56FF4FEE0DFF1D4A
:102C100026E0AE50BF4F01900D922A95E1F7840F48
:102C2000951F880F991FFC01EC54FF4FEE0DFF1DFF
:102C300086E0D701A850BF4F01900D928A95E1F729
:102C400081E0F701818BD3C3D7011E964C911E976B
:102C5000F701E051FF4F0190F081E02D4E1771F127
:102C60001E96EC931E979F013327A901440F551F11
:102C7000CA01820F931F880F991F8A569F4FF70131
:102C8000E80FF91F66E0AE50BF4F01900D926A95B4
:102C9000E1F7FA01E20FF31FEE0FFF1FEC54FF4FB5
:102CA000EE0DFF1D86E0D701A850BF4F01900D9299
:102CB0008A95E1F781E0F701818B99C3F7012AE159
:102CC000429FE00DF11D112480A591A5689E900101
:102CD000699E300D789E300D112486A197A1820F38
:102CE000931F8FAB98AF82A193A1489E9001499EFC
:102CF000300D589E300D112480A191A1820F931F99
:102D00008D879E87F701EE50FF4F8081918129AD1D
:102D10003AAD8217930761F089AF9AAFBE01675C45
:102D20007F4FC7010E94670C81E0D70151968C93B9
:102D30002D853E854FA958AD69AD7AADF701068561
:102D4000C7010E942506F701EC50FF4F8081918159
:102D50008615970509F458C0D7011E962C9124308A
:102D600019F4608271824DC0422F50E0F701BAE140
:102D70002B9FE00DF11D112460A571A5869F900188
:102D8000879F300D969F300D112486A197A1820F49
:102D9000931F8FAB98AF208D318D2817390760F1C5
:102DA0009A012F5F3F4F6AE1629FF001639FF00D30
:102DB0001124EE0DFF1D2081318182179307E0F071
:102DC0008AE1849FF001859FF00D1124EE0DFF1D17
:102DD00084A5882349F0AE01495C5F4FBE01675C62
:102DE0007F4FC7010E947E098FA998ADF701E65079
:102DF000FF4F8083918305C0F701EC50FF4F608245
:102E0000718281E0F701818BF701EA50FF4F408129
:102E100051814415550509F467C0D7011E962C91C0
:102E2000622F70E0F701BAE12B9FE00DF11D112434
:102E300082A193A1489FD001499FB00D589FB00D2A
:102E4000112480A191A18A0F9B1F8D879E8724301A
:102E500069F49E01235F3F4FAE01495C5F4FBE01A5
:102E6000675C7F4FC7010E94C90C3BC02AE1269FC7
:102E7000F001279FF00D1124EE0DFF1D24893589E7
:102E80002817390748F12AE1269FF001279FF00D06
:102E90001124EE0DFF1D2689378982179307E0F074
:102EA0008AE1869FF001879FF00D1124EE0DFF1D32
:102EB00085A5882349F0AE01435F5F4FBE01675C83
:102EC0007F4FC7010E94FB098D859E85F701E45065
:102ED000FF4F8083918305C0F701EA50FF4F408286
:102EE000518281E0F701818BD7011E960C9104304D
:102EF00069F09E01235F3F4FAE01495C5F4FBE0109
:102F0000675C7F4FC7010E944A070CC09E01235F88
:102F10003F4FAE01495C5F4FBE01675C7F4FC70109
:102F20000E94C90CF7018685833081F4A7014850BF
:102F30005F4FB7016E507F4FC7010E949B112F83D7
:102F4000388749875A876B877C870FC0A70148500D
:102F50005F4FB7016E507F4FC7010E94900D2983CC
:102F60003A834B835C836D837E83F701E450FF4F8C
:102F700020813181A0EAB5E00E941A403297208179
:102F8000318140E050E00E94D13F64EF71E0C9011F
:102F90000E94C21CF701E852FF4F80839183D70142
:102FA00051968C915197882309F421C21E969C91C9
:102FB0001E9786E0899FA00DB11D1124AA56BF4F10
:102FC00096E07A9601900D929A95E1F7F701968531
:102FD000D701899FA00DB11D1124AC54BF4FE850FB
:102FE000FF4F01900D928A95E1F701C2D7015296E9
:102FF0008C918823B9F0F701E65EFE4F80819181C4
:103000008D879E873296808191818F87988B24E06F
:1030100030E0AE01435F5F4F6FE070E0C7010E9498
:10302000D405E5C1F701868590E0AC01440F551F3A
:10303000840F951F880F991FAC014A565F4F4E0DA4
:103040005F1D26E030E062E070E0C7010E94D40519
:103050006CE070E0C7010E94E405C9C18091B4240E
:103060009091B5246AE070E00E94BD3F6D877E8735
:103070008F87988B24E030E0AE01435F5F4F6FE0B5
:1030800070E0C7010E94D40581E0D70152968C936D
:103090008091B4249091B524823291400CF0A7C164
:1030A00067E070E0C7010E94E405A1C18091B424EB
:1030B0009091B5248D3291400CF499C169E270E091
:1030C000C7010E94E405D7011F968C911F97509667
:1030D0008C938DC1C7010E94880585EE95E20E9400
:1030E0001B3A811112C0F701848595858097F1F014
:1030F00060E170E0C7010E94E40580E290E0D70142
:103100001C968D939C931D9711C0F701848595851E
:10311000409761F06EE070E0C7010E94E40580E135
:1031200090E0D7011C968D939C931D97F701E65272
:10313000FF4F60817181828193810E94D01C6D87D5
:103140007E878F87988B24E030E0AE01435F5F4F2E
:1031500068E070E0C7010E94D405F701E252FF4F1A
:1031600060817181828193810E94D01C6D877E87EE
:103170008F87988B24E030E0AE01435F5F4F64E1BE
:1031800070E0C7010E94D40532C185EE95E20E942D
:10319000D039F701EC5DFE4F80819181CD9708F425
:1031A00026C169E170E0C7010E94E40520C185EEF7
:1031B00095E20E94D039F701128A8091B42490914F
:1031C000B524823291400CF012C181E0D7015296B1
:1031D0008C93529750966C9170E0C7010E94E40561
:1031E00006C185EE95E20E94D0398091680685FF80
:1031F000FEC0F701608970E0C7010E94E405F7C0D6
:10320000F701E252FF4F108211821282138285EE83
:1032100095E20E94CC39F701E85FFE4F80819181F1
:103220002CEC289FB001299F700D112486E196E2B5
:103230000E945E3C81E0D70153968C93539752963F
:103240008C938091B4249091B5248332914034F0D2
:1032500067E270E0C7010E94E405C9C067E070E062
:10326000C7010E94E405C3C0C7010E9488056EE043
:1032700070E0C7010E94E405BAC06AE070E0C701CF
:103280000E94E405C7010E94B01385EE95E20E94FA
:10329000D039F701138A85EE95E20E94AC39F70127
:1032A000E652FF4F408151816281738181E090E05D
:1032B0000E9471411D861E8642E050E0BE01635FA0
:1032C0007F4F85E296E20E94171D91C06AE070E090
:1032D000C7010E94E4058BC042E050E061E170E06C
:1032E000C7010E94C005FFEF21EE34E0F1502040FD
:1032F0003040E1F700C0000042E050E062E170E0E1
:10330000C7010E94C0058FEF91EEA4E0815090406C
:10331000A040E1F700C00000F701E05FFE4F208110
:103320003181C901A0E0B0E09051AF4FBF4F2227DB
:10333000382F492F5A2F00E01CE060E071E08CE04C
:1033400096E20E94330353C0BFEFE7EAF1E6B150C3
:10335000E040F040E1F700C0000042E050E062E1F0
:1033600070E0C7010E94C005F701EE5EFE4F2081AC
:103370003181329780819181280F391FC901A0E0E6
:10338000B0E09051AF4FBF4F2227382F492F5A2F0F
:1033900000E011E060E07DE08CE096E20E94330303
:1033A00026C0F701EE5EFE4F208131813297808189
:1033B0009181280F391FC901A0E0B0E09051AF4FB3
:1033C000BF4F2227382F492F5A2F00E011E060E02D
:1033D0007DE08CE096E20E94CE0209C08CE096E28D
:1033E0000E94980304C08CE096E20E949803D701E3
:1033F00051968C918823E1F1F701E051FF4F8AE269
:10340000DE011D9601900D928A95E1F7F701E450D7
:10341000FF4F408151819A01ADECBCEC0E941A40F3
:103420009695879596958795480F591F498F5A8F7E
:103430002AE230E0AE01435F5F4F61E070E0C70118
:103440000E94D405F701118A13C082E090E0F701D1
:10345000EC5EFE4F80839183F5C9039709F076CB2C
:1034600070CBD7011E968C91843009F07BCB6ECB4C
:10347000EA96CDBFDEBFDF91CF911F910F91FF90F4
:10348000EF90DF90CF90BF90AF909F908F907F9004
:103490006F905F904F900895CF92DF92EF92FF92DE
:1034A000CF93DF93EC012E85213009F50E94B013F4
:1034B000CA52DF4F488159814536510550F020E00E
:1034C00042E350E064EF71E084EE95E20E943E3A00
:1034D00009C05695479520E064EF71E084EE95E2CF
:1034E0000E943E3A84EE95E20E94723A25C1FC01A8
:1034F000E652FF4F80819181A281B3810196A11D87
:10350000B11D80839183A283B3833496C080D18020
:10351000E280F3808FEFC81AD80AE80AF80AC0825E
:10352000D182E282F382243009F096C070968081C5
:103530009181019680839183329780819181892B3B
:1035400039F5C701B6012CE231E040E050E00E94BD
:10355000D13F672B682B692B09F07EC0CD28CE2880
:10356000CF2809F479C0FE01E251FF4F1082118289
:10357000CE010E94B01320E048EE53E064EF71E00A
:1035800084EE95E20E943E3A84EE95E20E94723A01
:10359000FE01E451FF4F80819181019761F53E97D3
:1035A000C080D180E280F380C701B60120E931E01C
:1035B00040E050E00E94D13F672B682B692B09F057
:1035C0004BC0CD28CE28CF2809F446C0FE01E251D9
:1035D000FF4F10821182CE010E94B01320E048EE0E
:1035E00053E064EF71E084EE95E20E943E3A84EE8F
:1035F00095E20E94723AFE01E451FF4F8081918171
:10360000029751F53E97C080D180E280F380C701D8
:10361000B60124EF31E040E050E00E94D13F672B3B
:10362000682B692BC9F4CD28CE28CF28A9F0FE013C
:10363000E251FF4F10821182CE010E94B01320E0B0
:1036400048EE53E064EF71E084EE95E20E943E3A6A
:1036500084EE95E20E94723A8E85833009F04EC066
:10366000FE01EE51FF4F808180FD04C081E0809318
:10367000A60603C081E08093A506FE01EE51FF4F30
:10368000808180FD04C082E08093A60603C082E0B2
:103690008093A506FE01EE51FF4F80819181059731
:1036A00010F010821182DE01AE51BF4FED91FC91FE
:1036B0001197EE58FF4FEE0FFF1FEC0FFD1F80819B
:1036C00091818093360B9093370B8D919C9103974A
:1036D00069F420E044E650E064EF71E084EE95E2A6
:1036E0000E943E3A84EE95E20E94723ACE51DF4F3C
:1036F000888199810196888399831EC0CA52DF4FC1
:10370000488159814536510550F020E042E350E0B0
:1037100064EF71E084EE95E20E943E3A09C056954E
:10372000479520E064EF71E084EE95E20E943E3A16
:1037300084EE95E20E94723ADF91CF91FF90EF9074
:10374000DF90CF9008950E944C1A08950F931F9315
:10375000CF93DF93EC01FC01E251FF4F1082118205
:103760008E85833009F044C08CE196E20E94BF3D13
:10377000FE01EE51FF4F82E090E080839183E0EA0A
:10378000F6E081E0858382E085838E010C511F4F36
:10379000F80160817181769567958CE196E20E94CF
:1037A000EA3DF80160817181769567958CE196E23A
:1037B0000E94EF3DCA51DF4F88819981E0E0FBE034
:1037C00086AB97AB888199819695879580AF91AFAD
:1037D000888199819695879582AF93AF10A211A2A7
:1037E000F801608171818CE196E20E94B23D27C0B0
:1037F0008E010E521F4FF80180819181E0E0FBE0C5
:1038000086AB97ABCC52DF4F8881998180AF91AF67
:103810008881998182AF93AF688179818CE196E24A
:103820000E94EA3D688179818CE196E20E94EF3D39
:10383000F801608171818CE196E20E94B23DDF91D6
:10384000CF911F910F910895CF93DF93FC012485B1
:1038500035852031310521F02032310509F060C075
:10386000EC018091480680FD51C08091C4228111F5
:1038700057C0FE01EA5DFE4F80819181892B09F4DA
:103880004BC04EC08AE090E0FE01EA5DFE4F8083AF
:103890009183EC54F10980819181A281B3810196D9
:1038A000A11DB11D80839183A283B383349680814F
:1038B0009181A281B3810196A11DB11D8083918365
:1038C000A283B383FE01EC52FF4F80819181009768
:1038D00029F001978093200B9093210BCE010E9439
:1038E000A61B8E85813049F4FFEF27E883E1F15074
:1038F00020408040E1F700C00000E0E4F6E084856D
:103900008E7F848781E08093C4220AC01092C422F3
:10391000CE010E94B01304C08E85813099F6B2CFDB
:10392000DF91CF9108950E94241C0895CF92DF92D9
:10393000EF92FF920F931F93CF93DF937C018A0145
:1039400041155105B1F06B01C40ED51EEB01261BCC
:10395000370BC9018C0F9D1FB8010E94A93FFC01C4
:1039600041E0E427EE0DFF1D89918083CC15DD0534
:1039700081F7DF91CF911F910F91FF90EF90DF9032
:10398000CF9008956817790708F4CB01089586173A
:10399000970708F4CB010895982789279827089559
:1039A0009B01BC01C901089508950895EF920F93FA
:1039B0001F93CF93DF93EC01E0E8F6E090EB918367
:1039C00080EC848B858B878B9583611102C080E4AA
:1039D00001C080E5011102C030E001C030E84111B2
:1039E00002C090E001C090E2220F220FE22AE82AF2
:1039F000E32AE92A00EC1AE0F801E08280E091E095
:103A00000E9434408883998381E0F80181838FE4A8
:103A10009DE18093382390933923C0932E24D09333
:103A20002F24DF91CF911F910F91EF900895CF93A5
:103A3000DF93EC014A835B834C835D8388819981AA
:103A40000E94614180E180938606888199814A8144
:103A50005B819A01215031092A833B83FC01E20FEB
:103A6000F31F80818093C30ADF91CF910895FC01F9
:103A700082819381892B79F0408151812281338128
:103A8000C901019782839383FA01E80FF91F8081AE
:103A90008093C30A089580E18093850608950E946B
:103AA000371D089524E931E2FC0120833183089514
:103AB000089528EB31E2FC012083318308950895B5
:103AC00026ED31E2FC0120833183089508951F9291
:103AD0000F920FB60F9211240BB60F922F933F93B4
:103AE0004F935F936F937F938F939F93AF93BF9306
:103AF000EF93FF93E091C822F091C922309729F00B
:103B00008091BE239091BF231995FF91EF91BF91B2
:103B1000AF919F918F917F916F915F914F913F9165
:103B20002F910F900BBE0F900FBE0F901F90189506
:103B30001F920F920FB60F9211240BB60F922F9374
:103B40003F934F935F936F937F938F939F93AF9325
:103B5000BF93EF93FF93E091CA22F091CB2230976D
:103B600029F08091C0239091C1231995FF91EF9185
:103B7000BF91AF919F918F917F916F915F914F9185
:103B80003F912F910F900BBE0F900FBE0F901F9083
:103B900018951F920F920FB60F9211240BB60F9229
:103BA0002F933F934F935F936F937F938F939F9345
:103BB000AF93BF93EF93FF93E091CC22F091CD228E
:103BC000309729F08091C2239091C3231995FF91DA
:103BD000EF91BF91AF919F918F917F916F915F9185
:103BE0004F913F912F910F900BBE0F900FBE0F90F2
:103BF0001F9018951F920F920FB60F9211240BB6BB
:103C00000F922F933F934F935F936F937F938F9375
:103C10009F93AF93BF93EF93FF93E091CE22F091E8
:103C2000CF22309729F08091C4239091C523199514
:103C3000FF91EF91BF91AF919F918F917F916F9184
:103C40005F914F913F912F910F900BBE0F900FBE40
:103C50000F901F9018951F920F920FB60F9211247C
:103C60000BB60F922F933F934F935F936F937F9376
:103C70008F939F93AF93BF93EF93FF93E091D022E5
:103C8000F091D122309729F08091C6239091C723DB
:103C90001995FF91EF91BF91AF919F918F917F9176
:103CA0006F915F914F913F912F910F900BBE0F90AD
:103CB0000FBE0F901F9018951F920F920FB60F9284
:103CC00011240BB60F922F933F934F935F936F93F3
:103CD0007F938F939F93AF93BF93EF93FF93E09165
:103CE000D222F091D322309729F08091C82390916D
:103CF000C9231995FF91EF91BF91AF919F918F913A
:103D00007F916F915F914F913F912F910F900BBEDB
:103D10000F900FBE0F901F9018951F920F920FB625
:103D20000F9211240BB60F922F933F934F935F93F3
:103D30006F937F938F939F93AF93BF93EF93FF9373
:103D4000E091D422F091D522309729F08091CA23B6
:103D50009091CB231995FF91EF91BF91AF919F91D6
:103D60008F917F916F915F914F913F912F910F9024
:103D70000BBE0F900FBE0F901F9018951F920F92C1
:103D80000FB60F9211240BB60F922F933F934F93C0
:103D90005F936F937F938F939F93AF93BF93EF93B3
:103DA000FF93E091D622F091D722309729F08091AD
:103DB000CC239091CD231995FF91EF91BF91AF91B5
:103DC0009F918F917F916F915F914F913F912F9133
:103DD0000F900BBE0F900FBE0F901F9018951F9263
:103DE0000F920FB60F9211240BB60F922F933F93A1
:103DF0004F935F936F937F938F939F93AF93BF93F3
:103E0000EF93FF93E091D822F091D922309729F0D7
:103E10008091CE239091CF231995FF91EF91BF917F
:103E2000AF919F918F917F916F915F914F913F9152
:103E30002F910F900BBE0F900FBE0F901F901895F3
:103E40001F920F920FB60F9211240BB60F922F9361
:103E50003F934F935F936F937F938F939F93AF9312
:103E6000BF93EF93FF93E091DA22F091DB2230973A
:103E700029F08091D0239091D1231995FF91EF9152
:103E8000BF91AF919F918F917F916F915F914F9172
:103E90003F912F910F900BBE0F900FBE0F901F9070
:103EA00018951F920F920FB60F9211240BB60F9216
:103EB0002F933F934F935F936F937F938F939F9332
:103EC000AF93BF93EF93FF93E091DC22F091DD225B
:103ED000309729F08091D2239091D3231995FF91A7
:103EE000EF91BF91AF919F918F917F916F915F9172
:103EF0004F913F912F910F900BBE0F900FBE0F90DF
:103F00001F9018951F920F920FB60F9211240BB6A7
:103F10000F922F933F934F935F936F937F938F9362
:103F20009F93AF93BF93EF93FF93E091DE22F091C5
:103F3000DF22309729F08091D4239091D5231995D1
:103F4000FF91EF91BF91AF919F918F917F916F9171
:103F50005F914F913F912F910F900BBE0F900FBE2D
:103F60000F901F9018951F920F920FB60F92112469
:103F70000BB60F922F933F934F935F936F937F9363
:103F80008F939F93AF93BF93EF93FF93E091E022C2
:103F9000F091E122309729F08091D6239091D72398
:103FA0001995FF91EF91BF91AF919F918F917F9163
:103FB0006F915F914F913F912F910F900BBE0F909A
:103FC0000FBE0F901F9018951F920F920FB60F9271
:103FD00011240BB60F922F933F934F935F936F93E0
:103FE0007F938F939F93AF93BF93EF93FF93E09152
:103FF000E222F091E322309729F08091D82390912A
:10400000D9231995FF91EF91BF91AF919F918F9116
:104010007F916F915F914F913F912F910F900BBEC8
:104020000F900FBE0F901F9018951F920F920FB612
:104030000F9211240BB60F922F933F934F935F93E0
:104040006F937F938F939F93AF93BF93EF93FF9360
:10405000E091E422F091E522309729F08091DA2373
:104060009091DB231995FF91EF91BF91AF919F91B3
:104070008F917F916F915F914F913F912F910F9011
:104080000BBE0F900FBE0F901F9018951F920F92AE
:104090000FB60F9211240BB60F922F933F934F93AD
:1040A0005F936F937F938F939F93AF93BF93EF93A0
:1040B000FF93E091E622F091E722309729F080917A
:1040C000DC239091DD231995FF91EF91BF91AF9182
:1040D0009F918F917F916F915F914F913F912F9120
:1040E0000F900BBE0F900FBE0F901F9018951F9250
:1040F0000F920FB60F9211240BB60F922F933F938E
:104100004F935F936F937F938F939F93AF93BF93DF
:10411000EF93FF93E091E822F091E922309729F0A4
:104120008091DE239091DF231995FF91EF91BF914C
:10413000AF919F918F917F916F915F914F913F913F
:104140002F910F900BBE0F900FBE0F901F901895E0
:104150001F920F920FB60F9211240BB60F922F934E
:104160003F934F935F936F937F938F939F93AF93FF
:10417000BF93EF93FF93E091EA22F091EB22309707
:1041800029F08091E0239091E1231995FF91EF911F
:10419000BF91AF919F918F917F916F915F914F915F
:1041A0003F912F910F900BBE0F900FBE0F901F905D
:1041B00018951F920F920FB60F9211240BB60F9203
:1041C0002F933F934F935F936F937F938F939F931F
:1041D000AF93BF93EF93FF93E091EC22F091ED2228
:1041E000309729F08091E2239091E3231995FF9174
:1041F000EF91BF91AF919F918F917F916F915F915F
:104200004F913F912F910F900BBE0F900FBE0F90CB
:104210001F9018951F920F920FB60F9211240BB694
:104220000F922F933F934F935F936F937F938F934F
:104230009F93AF93BF93EF93FF93E091EE22F091A2
:10424000EF22309729F08091E4239091E52319958E
:10425000FF91EF91BF91AF919F918F917F916F915E
:104260005F914F913F912F910F900BBE0F900FBE1A
:104270000F901F9018951F920F920FB60F92112456
:104280000BB60F922F933F934F935F936F937F9350
:104290008F939F93AF93BF93EF93FF93E091F0229F
:1042A000F091F122309729F08091E6239091E72355
:1042B0001995FF91EF91BF91AF919F918F917F9150
:1042C0006F915F914F913F912F910F900BBE0F9087
:1042D0000FBE0F901F9018951F920F920FB60F925E
:1042E00011240BB60F922F933F934F935F936F93CD
:1042F0007F938F939F93AF93BF93EF93FF93E0913F
:10430000F222F091F322309729F08091E8239091E6
:10431000E9231995FF91EF91BF91AF919F918F91F3
:104320007F916F915F914F913F912F910F900BBEB5
:104330000F900FBE0F901F9018951F920F920FB6FF
:104340000F9211240BB60F922F933F934F935F93CD
:104350006F937F938F939F93AF93BF93EF93FF934D
:10436000E091F422F091F522309729F08091EA2330
:104370009091EB231995FF91EF91BF91AF919F9190
:104380008F917F916F915F914F913F912F910F90FE
:104390000BBE0F900FBE0F901F9018951F920F929B
:1043A0000FB60F9211240BB60F922F933F934F939A
:1043B0005F936F937F938F939F93AF93BF93EF938D
:1043C000FF93E091F622F091F722309729F0809147
:1043D000EC239091ED231995FF91EF91BF91AF914F
:1043E0009F918F917F916F915F914F913F912F910D
:1043F0000F900BBE0F900FBE0F901F9018951F923D
:104400000F920FB60F9211240BB60F922F933F937A
:104410004F935F936F937F938F939F93AF93BF93CC
:10442000EF93FF93E091F822F091F922309729F071
:104430008091EE239091EF231995FF91EF91BF9119
:10444000AF919F918F917F916F915F914F913F912C
:104450002F910F900BBE0F900FBE0F901F901895CD
:104460001F920F920FB60F9211240BB60F922F933B
:104470003F934F935F936F937F938F939F93AF93EC
:10448000BF93EF93FF93E091FA22F091FB223097D4
:1044900029F08091F0239091F1231995FF91EF91EC
:1044A000BF91AF919F918F917F916F915F914F914C
:1044B0003F912F910F900BBE0F900FBE0F901F904A
:1044C00018951F920F920FB60F9211240BB60F92F0
:1044D0002F933F934F935F936F937F938F939F930C
:1044E000AF93BF93EF93FF93E091FC22F091FD22F5
:1044F000309729F08091F2239091F3231995FF9141
:10450000EF91BF91AF919F918F917F916F915F914B
:104510004F913F912F910F900BBE0F900FBE0F90B8
:104520001F9018951F920F920FB60F9211240BB681
:104530000F922F933F934F935F936F937F938F933C
:104540009F93AF93BF93EF93FF93E091FE22F0917F
:10455000FF22309729F08091F4239091F52319954B
:10456000FF91EF91BF91AF919F918F917F916F914B
:104570005F914F913F912F910F900BBE0F900FBE07
:104580000F901F9018951F920F920FB60F92112443
:104590000BB60F922F933F934F935F936F937F933D
:1045A0008F939F93AF93BF93EF93FF93E09100237B
:1045B000F0910123309729F08091F6239091F72311
:1045C0001995FF91EF91BF91AF919F918F917F913D
:1045D0006F915F914F913F912F910F900BBE0F9074
:1045E0000FBE0F901F9018951F920F920FB60F924B
:1045F00011240BB60F922F933F934F935F936F93BA
:104600007F938F939F93AF93BF93EF93FF93E0912B
:104610000223F0910323309729F08091F8239091A1
:10462000F9231995FF91EF91BF91AF919F918F91D0
:104630007F916F915F914F913F912F910F900BBEA2
:104640000F900FBE0F901F9018951F920F920FB6EC
:104650000F9211240BB60F922F933F934F935F93BA
:104660006F937F938F939F93AF93BF93EF93FF933A
:10467000E0910423F0910523309729F08091FA23EB
:104680009091FB231995FF91EF91BF91AF919F916D
:104690008F917F916F915F914F913F912F910F90EB
:1046A0000BBE0F900FBE0F901F9018951F920F9288
:1046B0000FB60F9211240BB60F922F933F934F9387
:1046C0005F936F937F938F939F93AF93BF93EF937A
:1046D000FF93E0910623F0910723309729F0809112
:1046E000FC239091FD231995FF91EF91BF91AF911C
:1046F0009F918F917F916F915F914F913F912F91FA
:104700000F900BBE0F900FBE0F901F9018951F9229
:104710000F920FB60F9211240BB60F922F933F9367
:104720004F935F936F937F938F939F93AF93BF93B9
:10473000EF93FF93E0910823F0910923309729F03C
:104740008091FE239091FF231995FF91EF91BF91E6
:10475000AF919F918F917F916F915F914F913F9119
:104760002F910F900BBE0F900FBE0F901F901895BA
:104770001F920F920FB60F9211240BB60F922F9328
:104780003F934F935F936F937F938F939F93AF93D9
:10479000BF93EF93FF93E0910A23F0910B2330979F
:1047A00029F080910024909101241995FF91EF91B7
:1047B000BF91AF919F918F917F916F915F914F9139
:1047C0003F912F910F900BBE0F900FBE0F901F9037
:1047D00018951F920F920FB60F9211240BB60F92DD
:1047E0002F933F934F935F936F937F938F939F93F9
:1047F000AF93BF93EF93FF93E0910C23F0910D23C0
:10480000309729F080910224909103241995FF910B
:10481000EF91BF91AF919F918F917F916F915F9138
:104820004F913F912F910F900BBE0F900FBE0F90A5
:104830001F9018951F920F920FB60F9211240BB66E
:104840000F922F933F934F935F936F937F938F9329
:104850009F93AF93BF93EF93FF93E0910E23F0915B
:104860000F23309729F08091042490910524199505
:10487000FF91EF91BF91AF919F918F917F916F9138
:104880005F914F913F912F910F900BBE0F900FBEF4
:104890000F901F9018951F920F920FB60F92112430
:1048A0000BB60F922F933F934F935F936F937F932A
:1048B0008F939F93AF93BF93EF93FF93E091102358
:1048C000F0911123309729F08091062490910724CC
:1048D0001995FF91EF91BF91AF919F918F917F912A
:1048E0006F915F914F913F912F910F900BBE0F9061
:1048F0000FBE0F901F9018951F920F920FB60F9238
:1049000011240BB60F922F933F934F935F936F93A6
:104910007F938F939F93AF93BF93EF93FF93E09118
:104920001223F0911323309729F08091082490915D
:1049300009241995FF91EF91BF91AF919F918F91AC
:104940007F916F915F914F913F912F910F900BBE8F
:104950000F900FBE0F901F9018951F920F920FB6D9
:104960000F9211240BB60F922F933F934F935F93A7
:104970006F937F938F939F93AF93BF93EF93FF9327
:10498000E0911423F0911523309729F080910A24A7
:1049900090910B241995FF91EF91BF91AF919F9149
:1049A0008F917F916F915F914F913F912F910F90D8
:1049B0000BBE0F900FBE0F901F9018951F920F9275
:1049C0000FB60F9211240BB60F922F933F934F9374
:1049D0005F936F937F938F939F93AF93BF93EF9367
:1049E000FF93E0911623F0911723309729F08091DF
:1049F0000C2490910D241995FF91EF91BF91AF91E7
:104A00009F918F917F916F915F914F913F912F91E6
:104A10000F900BBE0F900FBE0F901F9018951F9216
:104A20000F920FB60F9211240BB60F922F933F9354
:104A30004F935F936F937F938F939F93AF93BF93A6
:104A4000EF93FF93E0911823F0911923309729F009
:104A500080910E2490910F241995FF91EF91BF91B1
:104A6000AF919F918F917F916F915F914F913F9106
:104A70002F910F900BBE0F900FBE0F901F901895A7
:104A80001F920F920FB60F9211240BB60F922F9315
:104A90003F934F935F936F937F938F939F93AF93C6
:104AA000BF93EF93FF93E0911A23F0911B2330976C
:104AB00029F080911024909111241995FF91EF9184
:104AC000BF91AF919F918F917F916F915F914F9126
:104AD0003F912F910F900BBE0F900FBE0F901F9024
:104AE00018951F920F920FB60F9211240BB60F92CA
:104AF0002F933F934F935F936F937F938F939F93E6
:104B0000AF93BF93EF93FF93E0911C23F0911D238C
:104B1000309729F080911224909113241995FF91D8
:104B2000EF91BF91AF919F918F917F916F915F9125
:104B30004F913F912F910F900BBE0F900FBE0F9092
:104B40001F9018951F920F920FB60F9211240BB65B
:104B50000F922F933F934F935F936F937F938F9316
:104B60009F93AF93BF93EF93FF93E0911E23F09138
:104B70001F23309729F080911424909115241995C2
:104B8000FF91EF91BF91AF919F918F917F916F9125
:104B90005F914F913F912F910F900BBE0F900FBEE1
:104BA0000F901F9018951F920F920FB60F9211241D
:104BB0000BB60F922F933F934F935F936F937F9317
:104BC0008F939F93AF93BF93EF93FF93E091202335
:104BD000F0912123309729F0809116249091172489
:104BE0001995FF91EF91BF91AF919F918F917F9117
:104BF0006F915F914F913F912F910F900BBE0F904E
:104C00000FBE0F901F9018951F920F920FB60F9224
:104C100011240BB60F922F933F934F935F936F9393
:104C20007F938F939F93AF93BF93EF93FF93E09105
:104C30002223F0912323309729F08091182490911A
:104C400019241995FF91EF91BF91AF919F918F9189
:104C50007F916F915F914F913F912F910F900BBE7C
:104C60000F900FBE0F901F9018951F920F920FB6C6
:104C70000F9211240BB60F922F933F934F935F9394
:104C80006F937F938F939F93AF93BF93EF93FF9314
:104C9000E0912423F0912523309729F080911A2464
:104CA00090911B241995FF91EF91BF91AF919F9126
:104CB0008F917F916F915F914F913F912F910F90C5
:104CC0000BBE0F900FBE0F901F9018951F920F9262
:104CD0000FB60F9211240BB60F922F933F934F9361
:104CE0005F936F937F938F939F93AF93BF93EF9354
:104CF000FF93E0912623F0912723309729F08091AC
:104D00001C2490911D241995FF91EF91BF91AF91B3
:104D10009F918F917F916F915F914F913F912F91D3
:104D20000F900BBE0F900FBE0F901F9018951F9203
:104D30000F920FB60F9211240BB60F922F933F9341
:104D40004F935F936F937F938F939F93AF93BF9393
:104D5000EF93FF93E0912823F0912923309729F0D6
:104D600080911E2490911F241995FF91EF91BF917E
:104D7000AF919F918F917F916F915F914F913F91F3
:104D80002F910F900BBE0F900FBE0F901F90189594
:104D90001F920F920FB60F9211240BB60F922F9302
:104DA0003F934F935F936F937F938F939F93AF93B3
:104DB000BF93EF93FF93E0912A23F0912B23309739
:104DC00029F080912024909121241995FF91EF9151
:104DD000BF91AF919F918F917F916F915F914F9113
:104DE0003F912F910F900BBE0F900FBE0F901F9011
:104DF00018951F920F920FB60F9211240BB60F92B7
:104E00002F933F934F935F936F937F938F939F93D2
:104E1000AF93BF93EF93FF93E0912C23F0912D2359
:104E2000309729F080912224909123241995FF91A5
:104E3000EF91BF91AF919F918F917F916F915F9112
:104E40004F913F912F910F900BBE0F900FBE0F907F
:104E50001F9018951F920F920FB60F9211240BB648
:104E60000F922F933F934F935F936F937F938F9303
:104E70009F93AF93BF93EF93FF93E0912E23F09115
:104E80002F23309729F0809124249091252419957F
:104E9000FF91EF91BF91AF919F918F917F916F9112
:104EA0005F914F913F912F910F900BBE0F900FBECE
:104EB0000F901F9018951F920F920FB60F9211240A
:104EC0000BB60F922F933F934F935F936F937F9304
:104ED0008F939F93AF93BF93EF93FF93E091302312
:104EE000F0913123309729F0809126249091272446
:104EF0001995FF91EF91BF91AF919F918F917F9104
:104F00006F915F914F913F912F910F900BBE0F903A
:104F10000FBE0F901F9018951F920F920FB60F9211
:104F200011240BB60F922F933F934F935F936F9380
:104F30007F938F939F93AF93BF93EF93FF93E091F2
:104F40003223F0913323309729F0809128249091D7
:104F500029241995FF91EF91BF91AF919F918F9166
:104F60007F916F915F914F913F912F910F900BBE69
:104F70000F900FBE0F901F9018951F920F920FB6B3
:104F80000F9211240BB60F922F933F934F935F9381
:104F90006F937F938F939F93AF93BF93EF93FF9301
:104FA000E0913423F0913523309729F080912A2421
:104FB00090912B241995FF91EF91BF91AF919F9103
:104FC0008F917F916F915F914F913F912F910F90B2
:104FD0000BBE0F900FBE0F901F9018951F920F924F
:104FE0000FB60F9211240BB60F922F933F934F934E
:104FF0005F936F937F938F939F93AF93BF93EF9341
:10500000FF93E0913623F0913723309729F0809178
:105010002C2490912D241995FF91EF91BF91AF9180
:105020009F918F917F916F915F914F913F912F91C0
:105030000F900BBE0F900FBE0F901F9018951F92F0
:105040000F920FB60F9211240BB60F922F933F932E
:105050004F935F936F937F938F939F93AF93BF9380
:10506000EF93FF93E0913823F0913923309729F0A3
:1050700080912E2490912F241995FF91EF91BF914B
:10508000AF919F918F917F916F915F914F913F91E0
:105090002F910F900BBE0F900FBE0F901F90189581
:1050A0001F920F920FB60F9211240BB60F922F93EF
:1050B0003F934F935F936F937F938F939F93AF93A0
:1050C000BF93EF93FF93E0913A23F0913B23309706
:1050D00029F080913024909131241995FF91EF911E
:1050E000BF91AF919F918F917F916F915F914F9100
:1050F0003F912F910F900BBE0F900FBE0F901F90FE
:1051000018951F920F920FB60F9211240BB60F92A3
:105110002F933F934F935F936F937F938F939F93BF
:10512000AF93BF93EF93FF93E0913C23F0913D2326
:10513000309729F080913224909133241995FF9172
:10514000EF91BF91AF919F918F917F916F915F91FF
:105150004F913F912F910F900BBE0F900FBE0F906C
:105160001F9018951F920F920FB60F9211240BB635
:105170000F922F933F934F935F936F937F938F93F0
:105180009F93AF93BF93EF93FF93E0913E23F091F2
:105190003F23309729F0809134249091352419953C
:1051A000FF91EF91BF91AF919F918F917F916F91FF
:1051B0005F914F913F912F910F900BBE0F900FBEBB
:1051C0000F901F9018951F920F920FB60F921124F7
:1051D0000BB60F922F933F934F935F936F937F93F1
:1051E0008F939F93AF93BF93EF93FF93E0914023EF
:1051F000F0914123309729F0809136249091372403
:105200001995FF91EF91BF91AF919F918F917F91F0
:105210006F915F914F913F912F910F900BBE0F9027
:105220000FBE0F901F9018951F920F920FB60F92FE
:1052300011240BB60F922F933F934F935F936F936D
:105240007F938F939F93AF93BF93EF93FF93E091DF
:105250004223F0914323309729F080913824909194
:1052600039241995FF91EF91BF91AF919F918F9143
:105270007F916F915F914F913F912F910F900BBE56
:105280000F900FBE0F901F9018951F920F920FB6A0
:105290000F9211240BB60F922F933F934F935F936E
:1052A0006F937F938F939F93AF93BF93EF93FF93EE
:1052B000E0914423F0914523309729F080913A24DE
:1052C00090913B241995FF91EF91BF91AF919F91E0
:1052D0008F917F916F915F914F913F912F910F909F
:1052E0000BBE0F900FBE0F901F9018951F920F923C
:1052F0000FB60F9211240BB60F922F933F934F933B
:105300005F936F937F938F939F93AF93BF93EF932D
:10531000FF93E0914623F0914723309729F0809145
:105320003C2490913D241995FF91EF91BF91AF914D
:105330009F918F917F916F915F914F913F912F91AD
:105340000F900BBE0F900FBE0F901F9018951F92DD
:105350000F920FB60F9211240BB60F922F933F931B
:105360004F935F936F937F938F939F93AF93BF936D
:10537000EF93FF93E0914823F0914923309729F070
:1053800080913E2490913F241995FF91EF91BF9118
:10539000AF919F918F917F916F915F914F913F91CD
:1053A0002F910F900BBE0F900FBE0F901F9018956E
:1053B0001F920F920FB60F9211240BB60F922F93DC
:1053C0003F934F935F936F937F938F939F93AF938D
:1053D000BF93EF93FF93E0914A23F0914B233097D3
:1053E00029F080914024909141241995FF91EF91EB
:1053F000BF91AF919F918F917F916F915F914F91ED
:105400003F912F910F900BBE0F900FBE0F901F90EA
:1054100018951F920F920FB60F9211240BB60F9290
:105420002F933F934F935F936F937F938F939F93AC
:10543000AF93BF93EF93FF93E0914C23F0914D23F3
:10544000309729F080914224909143241995FF913F
:10545000EF91BF91AF919F918F917F916F915F91EC
:105460004F913F912F910F900BBE0F900FBE0F9059
:105470001F9018951F920F920FB60F9211240BB622
:105480000F922F933F934F935F936F937F938F93DD
:105490009F93AF93BF93EF93FF93E0914E23F091CF
:1054A0004F23309729F080914424909145241995F9
:1054B000FF91EF91BF91AF919F918F917F916F91EC
:1054C0005F914F913F912F910F900BBE0F900FBEA8
:1054D0000F901F9018951F920F920FB60F921124E4
:1054E0000BB60F922F933F934F935F936F937F93DE
:1054F0008F939F93AF93BF93EF93FF93E0915023CC
:10550000F0915123309729F08091462490914724BF
:105510001995FF91EF91BF91AF919F918F917F91DD
:105520006F915F914F913F912F910F900BBE0F9014
:105530000FBE0F901F9018951F920F920FB60F92EB
:1055400011240BB60F922F933F934F935F936F935A
:105550007F938F939F93AF93BF93EF93FF93E091CC
:105560005223F0915323309729F080914824909151
:1055700049241995FF91EF91BF91AF919F918F9120
:105580007F916F915F914F913F912F910F900BBE43
:105590000F900FBE0F901F9018951F920F920FB68D
:1055A0000F9211240BB60F922F933F934F935F935B
:1055B0006F937F938F939F93AF93BF93EF93FF93DB
:1055C000E0915423F0915523309729F080914A249B
:1055D00090914B241995FF91EF91BF91AF919F91BD
:1055E0008F917F916F915F914F913F912F910F908C
:1055F0000BBE0F900FBE0F901F9018951F920F9229
:105600000FB60F9211240BB60F922F933F934F9327
:105610005F936F937F938F939F93AF93BF93EF931A
:10562000FF93E0915623F0915723309729F0809112
:105630004C2490914D241995FF91EF91BF91AF911A
:105640009F918F917F916F915F914F913F912F919A
:105650000F900BBE0F900FBE0F901F9018951F92CA
:105660000F920FB60F9211240BB60F922F933F9308
:105670004F935F936F937F938F939F93AF93BF935A
:10568000EF93FF93E0915823F0915923309729F03D
:1056900080914E2490914F241995FF91EF91BF91E5
:1056A000AF919F918F917F916F915F914F913F91BA
:1056B0002F910F900BBE0F900FBE0F901F9018955B
:1056C0001F920F920FB60F9211240BB60F922F93C9
:1056D0003F934F935F936F937F938F939F93AF937A
:1056E000BF93EF93FF93E0915A23F0915B233097A0
:1056F00029F080915024909151241995FF91EF91B8
:10570000BF91AF919F918F917F916F915F914F91D9
:105710003F912F910F900BBE0F900FBE0F901F90D7
:1057200018951F920F920FB60F9211240BB60F927D
:105730002F933F934F935F936F937F938F939F9399
:10574000AF93BF93EF93FF93E0916023F0916123B8
:10575000309729F080915624909157241995FF9104
:10576000EF91BF91AF919F918F917F916F915F91D9
:105770004F913F912F910F900BBE0F900FBE0F9046
:105780001F9018951F920F920FB60F9211240BB60F
:105790000F922F933F934F935F936F937F938F93CA
:1057A0009F93AF93BF93EF93FF93E0916223F091A8
:1057B0006323309729F080915824909159241995AA
:1057C000FF91EF91BF91AF919F918F917F916F91D9
:1057D0005F914F913F912F910F900BBE0F900FBE95
:1057E0000F901F9018951F920F920FB60F921124D1
:1057F0000BB60F922F933F934F935F936F937F93CB
:105800008F939F93AF93BF93EF93FF93E0916423A4
:10581000F0916523309729F080915A2490915B2470
:105820001995FF91EF91BF91AF919F918F917F91CA
:105830006F915F914F913F912F910F900BBE0F9001
:105840000FBE0F901F9018951F920F920FB60F92D8
:1058500011240BB60F922F933F934F935F936F9347
:105860007F938F939F93AF93BF93EF93FF93E091B9
:105870006623F0916723309729F080915C24909102
:105880005D241995FF91EF91BF91AF919F918F91F9
:105890007F916F915F914F913F912F910F900BBE30
:1058A0000F900FBE0F901F9018951F920F920FB67A
:1058B0000F9211240BB60F922F933F934F935F9348
:1058C0006F937F938F939F93AF93BF93EF93FF93C8
:1058D000E0916823F0916923309729F080915E244C
:1058E00090915F241995FF91EF91BF91AF919F9196
:1058F0008F917F916F915F914F913F912F910F9079
:105900000BBE0F900FBE0F901F9018951F920F9215
:105910000FB60F9211240BB60F922F933F934F9314
:105920005F936F937F938F939F93AF93BF93EF9307
:10593000FF93E0916A23F0916B23309729F08091D7
:105940006024909161241995FF91EF91BF91AF91DF
:105950009F918F917F916F915F914F913F912F9187
:105960000F900BBE0F900FBE0F901F9018951F92B7
:105970000F920FB60F9211240BB60F922F933F93F5
:105980004F935F936F937F938F939F93AF93BF9347
:10599000EF93FF93E0916C23F0916D23309729F002
:1059A00080916224909163241995FF91EF91BF91AA
:1059B000AF919F918F917F916F915F914F913F91A7
:1059C0002F910F900BBE0F900FBE0F901F90189548
:1059D0001F920F920FB60F9211240BB60F922F93B6
:1059E0003F934F935F936F937F938F939F93AF9367
:1059F000BF93EF93FF93E0916E23F0916F23309765
:105A000029F080916424909165241995FF91EF917C
:105A1000BF91AF919F918F917F916F915F914F91C6
:105A20003F912F910F900BBE0F900FBE0F901F90C4
:105A300018951F920F920FB60F9211240BB60F926A
:105A40002F933F934F935F936F937F938F939F9386
:105A5000AF93BF93EF93FF93E0917023F091712385
:105A6000309729F080916624909167241995FF91D1
:105A7000EF91BF91AF919F918F917F916F915F91C6
:105A80004F913F912F910F900BBE0F900FBE0F9033
:105A90001F9018951F920F920FB60F9211240BB6FC
:105AA0000F922F933F934F935F936F937F938F93B7
:105AB0009F93AF93BF93EF93FF93E0917223F09185
:105AC0007323309729F08091682490916924199567
:105AD000FF91EF91BF91AF919F918F917F916F91C6
