S01900004154786D6567614C6173657244696F64652E7372656388
S11300000C9400020C94F30A0C94240B0C94550BDE
S11300100C94860B0C94B70B0C94E80B0C94190CF1
S11300200C944A0C0C947B0C0C94AC0C0C94DD0CCE
S11300300C940E0D0C943F0D0C94700D0C94A10DAA
S11300400C94D20D0C94030E0C94340E0C94650E87
S11300500C94960E0C94C70E0C94F80E0C94290F65
S11300600C945A0F0C948B0F0C94BC0F0C94ED0F42
S11300700C941E100C944F100C9480100C94B1101E
S11300800C94E2100C9413110C9444110C947511FB
S11300900C94A6110C94D7110C9408120C943912D8
S11300A00C946A120C949B120C94CC120C94FD12B6
S11300B00C942E130C945F130C9490130C94C11392
S11300C00C94F2130C9423140C9454140C9485146F
S11300D00C94B6140C94E7140C9418150C9449154C
S11300E00C947A150C94AB150C94DC150C940D1629
S11300F00C943E160C946F160C94A0160C94D11606
S11301000C9402170C9433170C9464170C949517E1
S11301100C94C6170C94F7170C9428180C945918BF
S11301200C948A180C94BB180C94EC180C9431029F
S11301300C9431020C941D190C944E190C947F19D3
S11301400C94B0190C94E1190C94121A0C94431ADF
S11301500C94741A0C94A51A0C94D61A0C94071BBC
S11301600C94381B0C94691B0C949A1B0C94CB1B99
S11301700C94FC1B0C942D1C0C9431020C94310235
S11301800C9431020C9431020C9431020C9431021F
S11301900C9431020C9431020C9431020C9431020F
S11301A00C945E1C0C948F1C0C9431020C94310240
S11301B00C94C01C0C94F11C0C94221D0C94531D23
S11301C00C94841D0C94B51D0C9431020C943102D2
S11301D00C9431020C9431020C9431020C94E61DFF
S11301E00C94171E0C94481E9B039E03AF03C0037C
S11301F0FC03D103D503D903DD03E103FC03E503C9
S1130200E903ED03F103F503F903D004D404D8049E
S1130210DC04E004E404E804EC04F004F404F8046A
S1130220FC04000504050805E520E520ED20F52083
S1130230FC204B2152217E217E217D217D2105A898
S11302404CCDB2D44EB93836A9020C50B991868837
S1130250083CA6AAAA2ABE000000803F0C9468208D
S11302600C94DD030C94F6090C9452210C94F404C0
S11302700C94FE080C9483030C94F1030C94D9039E
S11302800C941F090C94E9030C94D0040C94E20A16
S11302900C94ED030C94D0090C94C4090C94030938
S11302A00C9484030C94FC030C9408090C94D1085A
S11302B00C948D090C949D020C942F200C942C0A00
S11302C00C94EC040C948B020C94CB090C94BD0993
S11302D00C9433020C949B030C94F9030C94E503E3
S11302E00C94F5200C94C21F0C94E5200C94B608D1
S11302F00C9459200C9455090C9408050C944A202C
S11303000C94AF030C9431090C940B200C94E40965
S11303100C94951E0C9400050C9443090C949402BF
S11303200C94791E0C946E020C944B210C947D2138
S11303300C94DE080C94F4080C947C1E0C94760641
S11303400C9474020C949E030C94E6210C9467099B
S11303500C94FC200C94721F0C94DA090C94E6089B
S11303600C94A31F0C94D4040C94A8090C94FD03BE
S11303700C948B220C94A6020C94E1030C947C0242
S11303800C94ED080C9481210C94FC040C94040549
S11303900C94F8040C94C0030C94E0040C9415041D
S11303A00C94F5030C94D1030C941A0A0C94DF09F1
S11303B00C94F9080C94B5090C943E0A0C94ED20A5
S11303C00C94F0040C94D5090C94E4040C94080ADD
S11303D00C947F060C9483020C94DC040C940D0999
S11303E00C94D8040C9473060C9471020C94E804D5
S11303F00C94D5030C947E2176067C1E7F06951EF4
S113040011241FBECFEFCDBFDFE3DEBF00E00CBF82
S113041011E2A0E0B0E2EAEAFCE400E00BBF02C0B3
S113042007900D92AE30B107D9F723E2AEE0B1E206
S113043001C01D92AF35B207E1F711E0CEEFD1E074
S113044000E006C021970109802FFE010E94D424F8
S1130450CC3FD10780E00807A9F70E94E91E0C945D
S113046043260C9400000F93E0E6F6E088E08183D5
S113047084E08283128A138AE0EAF9E084E18383C8
S113048088E1848384818483413019F0423019F0F7
S113049004C080E203C080E301C080E0222319F09D
S11304A0213019F003C0877F01C08860011102C0A8
S11304B093E401C093E0892BE0EAF9E0858370E0DE
S11304C0DB01AA5DBF4D8C918683DB01AA5FBF4D22
S11304D08C918295807F87830F9108958091A009E4
S11304E008956093A00908958091A10986FB882747
S11304F080F991E0892708958091A1098095881F4A
S11305008827881F08958091A10985FB882780F991
S113051091E0892708956093DE227093DF2240934F
S1130520E8215093E92108956093E2227093E32235
S11305304093EC215093ED210895FB018BE68383D6
S113054080EA808789E0818712860895FB018CE622
S1130550838380EA848789E0858716860895CF930C
S1130560DF93EC010E94EC0A8AE490E28883998389
S1130570DF91CF9108952AE430E2FC012083318396
S11305800E94F20A089508950895E0E4F6E09FEFCA
S1130590918388EA808B818B828B838B848B858B80
S11305A0868B878B1482A0E8B6E088E011968C9342
S11305B0119753961C92539714961C921497E0EA41
S11305C0F6E080EC808B818B828B838B848B858B94
S11305D0868B878B14829183E0E6F6E091E1918328
S11305E0808B848B148283E011968C93119780E81E
S11305F050968C93509751968C93519714961C92C5
S1130600E0EAF0E082818160828382818260828379
S11306108281846082830895E0E5F0E08BEC82833C
S1130620808188608083818183FFFDCFE0E5F0E0F5
S1130630858198ED94BF84EC85838081806180837B
S1130640E0E4F0E0818194BF1182E0E5F0E0818193
S113065084FFFDCFE0E4F0E08081887F846098ED42
S113066094BF8083A0E5B0E08C91887F8C938281D5
S113067094BF81E08283E0EBF0E084818C7F84830B
S11306800895F89484E690E0E0E8F6E028E0258315
S1130690AFE9BFE01197F1F700C000002683AFE98E
S11306A0BFE01197F1F700C00000019781F778943B
S11306B00895F89445E050E064E630E0E0E8F6E0C0
S11306C028E01CC02583AFE9BFE01197F1F700C013
S11306D000002683AFE9BFE01197F1F700C00000E6
S11306E0019781F7BFEF73EC89E0B150704080400F
S11306F0E1F700C000004150510919F0862F932FF3
S1130700E1CF789408950895DC01633029F4FA0167
S113071081811E968C931E971E964C911E9750E0D5
S11307204131510508F068C0FA018827EC50FF4FA9
S11307308F4F0C94D4241C961C92089581E01C962F
S11307408C931C971D968C911D97882309F454C093
S11307501D961C921D9781E01F968C93089582E04C
S11307601C968C931C971D968C911D97813009F4CF
S113077043C081E01D968C931D971F968C9308951A
S113078083E01C968C931C971D968C911D97823048
S113079099F182E01D968C931D9781E01F968C93AE
S11307A0089586E01C968C93089584E01C968C939F
S11307B0089587E01C968C93089585E01C968C938D
S11307C0089588E01C968C93089589E01C968C9378
S11307D008958AE01C968C9308958BE01C968C9364
S11307E008958CE01C968C9308958DE01C968C9350
S11307F008958EE01C968C93089508955695479518
S11308004115510589F0FB01A82FB92F440F551F3D
S1130810640F751F819191919827892798278D934B
S11308209D93E617F707B1F708956130710519F53F
S1130830BA01FC0185858130A1F018F0823049F0BD
S113084018C0A9015695479586E291E20E94FE03DD
S11308500895A901569547958EE091E20E94FE0302
S11308600895A901569547958AE191E20E94FE03F5
S113087008950E944103089522E630E2FC0120839A
S11308803183089522E630E2FC01208331830E9403
S1130890582008950F931F93CF93DF931F921F92B5
S11308A0CDB7DEB78C0180E091E089839A8322E0A2
S11308B0AE014F5F5F4F63E0F801808991890E9428
S11308C00022F801808991890E943D222CE030E0C9
S11308D046E251E261E070E0F801808991890E946A
S11308E00F22F801808991890E943D2281E0F8015C
S11308F084870F900F90DF91CF911F910F910895EE
S11309000F931F93CF93DF93CDB7DEB72C97CDBF53
S1130910DEBF8C0142E063E0FC01808991890E9482
S11309204E22F801808991890E943D22F801808934
S113093091890E94E921FFEF21EE84E0F1502040EB
S11309408040E1F700C00000F801878581111AC0DA
S11309504CE061E070E0808991890E945422F801A2
S1130960808991890E943D22F801808991890E94A1
S1130970E921FFEF21EE84E0F15020408040E1F7CF
S113098000C00000F801848590E08F30910508F0E4
S113099042C0FC018827EB5FFE4F8F4F0C94D42498
S11309A081E0F801848737C081E0F801848733C08F
S11309B081E0F80184872FC081E0F80184872BC08F
S11309C081E0F801848727C081E0F801848723C08F
S11309D081E0F80184871FC081E0F80184871BC08F
S11309E081E0F801848717C081E0F801848713C08F
S11309F081E0F80184870FC081E0F80184870BC08F
S1130A0081E0F801848707C081E0F801848703C08E
S1130A1081E0F8018487F8018785882391F1858531
S1130A208130E1F018F0823069F023C02CE030E02E
S1130A3046E251E261E070E0F801808991890E9408
S1130A400F2217C02CE030E04EE051E261E070E08C
S1130A50F801808991890E940F220BC02CE030E0BC
S1130A604AE151E261E070E0F801808991890E94D5
S1130A700F22F801808991890E943D22F80117868E
S1130A801CC1F8018585813009F4B9C020F0823099
S1130A9009F45BC00DC1E6E2F1E2828193814081F9
S1130AA05181489F9001499F300D589F300D11246A
S1130AB0ADECBCEC0E94DC249695879596958795C1
S1130AC0969587958B879C878481958142855385EC
S1130AD0489F9001499F300D589F300D1124369541
S1130AE0279536952795ABE7B4E10E94DC249695CB
S1130AF087958F8398878481958142815381489F0C
S1130B009001499F300D589F300D1124369527953B
S1130B103695279536952795A5ECB0E20E94DC24FE
S1130B20929582958F7089279F70892789879A87E4
S1130B3026E030E0AE01495F5F4F64E070E0F80109
S1130B40808991890E940F22B3C0EEE0F1E2828194
S1130B50938140815181489F9001499F300D589F56
S1130B60300D1124ADECBCEC0E94DC2496958795E5
S1130B7096958795969587958B879C878481958193
S1130B8042855385489F9001499F300D589F300DF1
S1130B9011243695279536952795ABE7B4E10E9445
S1130BA0DC24969587958F839887848195814281EB
S1130BB05381489F9001499F300D589F300D112457
S1130BC0369527953695279536952795A5ECB0E269
S1130BD00E94DC24929582958F7089279F708927C3
S1130BE089879A8726E030E0AE01495F5F4F64E071
S1130BF070E0F801808991890E940F2259C0EAE1CE
S1130C00F1E28281938140815181489F9001499F03
S1130C10300D589F300D1124ADECBCEC0E94DC2447
S1130C209695879596958795969587958B879C87B6
S1130C308481958142855385489F9001499F300D59
S1130C40589F300D11243695279536952795ABE797
S1130C50B4E10E94DC24969587958F8398878481DC
S1130C60958142815381489F9001499F300D589F3F
S1130C70300D112436952795369527953695279569
S1130C80A5ECB0E20E94DC24929582958F708927AE
S1130C909F70892789879A8726E030E0AE01495FF3
S1130CA05F4F64E070E0F801808991890E940F220F
S1130CB0F801808991890E943D222C96CDBFDEBF28
S1130CC0DF91CF911F910F91089520E045E050E00E
S1130CD068EE73E088E393E20E94070888E393E2F6
S1130CE00E943B0808950E946506089585E391E2F9
S1130CF00E94790982E391E20E94500A089582E3F6
S1130D0091E20E945C0A85E391E20E9485090895BC
S1130D108F929F92AF92BF92CF92DF92EF92FF9207
S1130D200F931F93CF93DF93EC01688B798B46E08D
S1130D3060E085E391E20E94B60868EA71E685E323
S1130D4091E20E94F40821E0AE016DEF73E085E3C7
S1130D5091E20E940D0947E063E082E391E20E9480
S1130D608D0964ED70E382E391E20E94CB0965E3AF
S1130D707CE082E391E20E94D00921E0AE0163E7C6
S1130D8076E082E391E20E94E40960E182E391E289
S1130D900E94BD091E861F86E6E2F1E20F2EFAE0EC
S1130DA0AF2EB12CF02DA082B1820F2EF2E3CF2E04
S1130DB0D12CF02DC286D386608171810285138582
S1130DC00F2EF8EEEF2EF3E0FF2EF02DC7010E9458
S1130DD0A124609F9001619F300D709F300D1124FC
S1130DE03695279536952795ABE7B4E10E94DC2428
S1130DF0969587958283938308EC10E0048315838A
S1130E008481958142855385489F9001499F300D87
S1130E10589F300D112436952795369527950E94B5
S1130E20DC24969587958683978384819581428176
S1130E305381489F9001499F300D589F300D1124D4
S1130E40369527953695279536952795A5ECB0E2E6
S1130E500E94DC24929582958F7089279F70892740
S1130E6080879187EEE0F1E2A082B182C286D386C8
S1130E706081718182849384C7010E94A124689D4A
S1130E809001699D300D789D300D1124369527957C
S1130E9036952795ABE7B4E10E94DC2496958795B7
S1130EA0828393830483158384819581428553854A
S1130EB0489F9001499F300D589F300D112436955D
S1130EC02795369527950E94DC24969587958683E9
S1130ED097838481958142815381489F9001499FE2
S1130EE0300D589F300D112436952795369527954A
S1130EF036952795A5ECB0E20E94DC249295829564
S1130F008F7089279F70892780879187EAE1F1E2B2
S1130F10A082B182C286D38660817181C284D38467
S1130F20C7010E94A1246C9D90016D9D300D7C9D94
S1130F30300D11243695279536952795ABE7B4E106
S1130F400E94DC249695879582839383048315837A
S1130F508481958142855385489F9001499F300D36
S1130F60589F300D112436952795369527950E9464
S1130F70DC24969587958683978384819581428125
S1130F805381489F9001499F300D589F300D112483
S1130F90369527953695279536952795A5ECB0E295
S1130FA00E94DC24929582958F7089279F708927EF
S1130FB0808791871D86DF91CF911F910F91FF90BC
S1130FC0EF90DF90CF90BF90AF909F908F90089557
S1130FD008950895E0E0FAE0108287E8818313829F
S1130FE084E294EF86A397A382E19AE786A797A762
S1130FF0168217820895E0E4FAE0108211821382C7
S113100084E294EF86A397A31682178208950F9320
S11310101F93CF938A01C22F9B0140E050E064E20A
S113102074EF80E090E00E94B524B801769567954E
S1131030EEE3E09FC001E19F900D1124860F971FFE
S1131040CF5FB90102C076956795CA95E2F7E0E0F3
S1131050FAE066A777A726A337A3A0E4BAE096969A
S11310608D939C93979786E0808387E08C93CF91B0
S11310701F910F910895E0E4FAE0848580FFFDCF8D
S1131080E0E4FAE0848581708487A0E0BAE01C92F1
S1131090108210A211A290961D921C9291972FEF8C
S11310A083EF91E0215080409040E1F700C00000C0
S11310B00895CF93DF93EC0123E00E940708CE014B
S11310C00E943B08DF91CF910895CF93DF93EC0109
S11310D00E94EA07CE010E94FB07DF91CF91089599
S11310E0CF93DF93EC01F89444EF51E068EB71E0A7
S11310F00E94590844EF51E068EB71E0CE010E9470
S1131100590844EF51E068EB71E0CE010E945908A0
S11311104EE551E06DE571E0CE010E94590846E9C3
S113112050E06BE072E0CE010E94590844EF51E0B8
S113113068EB71E0CE010E9459084EE551E06DE57F
S113114071E0CE010E94590846E950E06BE072E07C
S1131150CE010E9459084AE852E068EB71E0CE01E2
S11311600E9459087894DF91CF910895FC0142833D
S1131170E0E0F8E08081807F8083138210A211A2D6
S113118010A611A612A613A614A615A616A617A68F
S113119016A217A28181887F682B61831682178229
S11311A00895E0E0F8E066A377A32081207FDC01C6
S11311B012969C91822F892B80830895E0E0F8E0B9
S11311C08081807F808310A211A20895E0E0F8E07E
S11311D081818F70682B61830895E0E0F8E081815C
S11311E060956823618308956093260870932708A7
S11311F008956093280870932908089560932A0835
S113120070932B08089560932C0870932D0808950B
S113121060932E0870932F0808956115710531F0BD
S1131220E0E0F8E086818370282B268360935421C4
S11312307093552140934A2250934B22089561158F
S1131240710531F0E0E0F8E086818C70282B26836C
S1131250609356217093572140934C2250934D2212
S113126008956115710531F0E0E0F8E0878183703D
S1131270282B2783609358217093592140934E2241
S113128050934F2208956115710531F0E0E0F8E0C4
S113129087818C70282B278360935A2170935B215C
S11312A0409350225093512208956115710531F0F5
S11312B0E0E0F8E087818073282B278360935C212A
S11312C070935D21409352225093532208956115E7
S11312D0710531F0E0E0F8E08781807C282B2783DA
S11312E060935E2170935F21409354225093552262
S11312F00895CF93DF93EC010E94E50A88E790E21A
S113130088839983DF91CF91089528E730E2FC0127
S1131310208331830E94EB0A0895FC014283E0E0BC
S1131320FBE08081807F8083138210A211A210A62B
S113133011A612A613A614A615A616A617A616A2DB
S113134017A28181887F682B618316821782089592
S1131350E0E0FBE066A377A32081207FDC01129606
S11313609C91822F892B80830895E0E0FBE08081AB
S1131370807F808310A211A20895E0E0FBE08181C8
S11313808F70682B61830895E0E0FBE081816095B4
S11313906823618308956093260B7093270B089547
S11313A06093280B7093290B089560932A0B709314
S11313B02B0B089560932C0B70932D0B0895609361
S11313C02E0B70932F0B08956115710531F0E0E039
S11313D0FBE086818370282B268360931022709310
S11313E01122409306235093072308956115710534
S11313F031F0E0E0FBE086818C70282B268360933B
S113140012227093132240930823509309230895C2
S11314106115710531F0E0E0FBE087818370282BD2
S11314202783609314227093152240930A235093C8
S11314300B2308956115710531F0E0E0FBE087812D
S11314408C70282B27836093162270931722409365
S11314500C2350930D2308956115710531F0E0E0DC
S1131460FBE087818073282B278360931822709375
S1131470192240930E2350930F230895611571058B
S113148031F0E0E0FBE08781807C282B27836093A8
S11314901A2270931B224093102350931123089512
S11314A0CF93DF93EC010E94E50A8CE990E28883F4
S11314B09983DF91CF9108952CE930E2FC012083D8
S11314C031830E94EB0A089508950895EF920F93D3
S11314D01F93CF93DF93EC01E0E8F6E080EB818388
S11314E090E4928390EC948B958B968B978B858369
S11314F0611102C080E401C080E5011102C030E046
S113150001C030E8411102C090E001C090E2220F16
S1131510220FE22AE82AE32AE92A00EC1AE0F80179
S1131520E08280E091E00E940D258883998381E028
S1131530F801818382EE9AE08093AA219093AB21F3
S1131540C093A022D093A122DF91CF911F910F913C
S1131550EF900895CF93DF93EC014A835B834C8330
S11315605D83888199810E943A2680E18093860672
S1131570888199814A815B819A01215031092A83AA
S11315803B83FC01E20FF31F80818093C30ADF9148
S1131590CF910895FC0182819381892B79F0408158
S11315A0518122813381C901019782839383FA0196
S11315B0E80FF91F80818093C30A089580E1809326
S11315C0850608950E94CA0A089520EC30E2FC01C1
S11315D0208331830895089524EE30E2FC012083B2
S11315E03183089508951F920F920FB60F9211241C
S11315F00BB60F922F933F934F935F936F937F9309
S11316008F939F93AF93BF93EF93FF93E0913A210E
S1131610F0913B21309729F0809130229091312232
S11316201995FF91EF91BF91AF919F918F917F9108
S11316306F915F914F913F912F910F900BBE0F903F
S11316400FBE0F901F9018951F920F920FB60F9216
S113165011240BB60F922F933F934F935F936F9385
S11316607F938F939F93AF93BF93EF93FF93E091F7
S11316703C21F0913D21309729F0809132229091C4
S113168033221995FF91EF91BF91AF919F918F9163
S11316907F916F915F914F913F912F910F900BBE6E
S11316A00F900FBE0F901F9018951F920F920FB6B8
S11316B00F9211240BB60F922F933F934F935F9386
S11316C06F937F938F939F93AF93BF93EF93FF9306
S11316D0E0913E21F0913F21309729F0809134220E
S11316E0909135221995FF91EF91BF91AF919F9100
S11316F08F917F916F915F914F913F912F910F90B7
S11317000BBE0F900FBE0F901F9018951F920F9253
S11317100FB60F9211240BB60F922F933F934F9352
S11317205F936F937F938F939F93AF93BF93EF9345
S1131730FF93E0914021F0914121309729F080916D
S11317403622909137221995FF91EF91BF91AF9175
S11317509F918F917F916F915F914F913F912F91C5
S11317600F900BBE0F900FBE0F901F9018951F92F5
S11317700F920FB60F9211240BB60F922F933F9333
S11317804F935F936F937F938F939F93AF93BF9385
S1131790EF93FF93E0914221F0914321309729F098
S11317A080913822909139221995FF91EF91BF9140
S11317B0AF919F918F917F916F915F914F913F91E5
S11317C02F910F900BBE0F900FBE0F901F90189586
S11317D01F920F920FB60F9211240BB60F922F93F4
S11317E03F934F935F936F937F938F939F93AF93A5
S11317F0BF93EF93FF93E0914421F09145213097FB
S113180029F080913A2290913B221995FF91EF9112
S1131810BF91AF919F918F917F916F915F914F9104
S11318203F912F910F900BBE0F900FBE0F901F9002
S113183018951F920F920FB60F9211240BB60F92A8
S11318402F933F934F935F936F937F938F939F93C4
S1131850AF93BF93EF93FF93E0914621F09147211B
S1131860309729F080913C2290913D221995FF9167
S1131870EF91BF91AF919F918F917F916F915F9104
S11318804F913F912F910F900BBE0F900FBE0F9071
S11318901F9018951F920F920FB60F9211240BB63A
S11318A00F922F933F934F935F936F937F938F93F5
S11318B09F93AF93BF93EF93FF93E0914821F091EF
S11318C04921309729F080913E2290913F22199529
S11318D0FF91EF91BF91AF919F918F917F916F9104
S11318E05F914F913F912F910F900BBE0F900FBEC0
S11318F00F901F9018951F920F920FB60F921124FC
S11319000BB60F922F933F934F935F936F937F93F5
S11319108F939F93AF93BF93EF93FF93E0914A21EB
S1131920F0914B21309729F08091402290914122EF
S11319301995FF91EF91BF91AF919F918F917F91F5
S11319406F915F914F913F912F910F900BBE0F902C
S11319500FBE0F901F9018951F920F920FB60F9203
S113196011240BB60F922F933F934F935F936F9372
S11319707F938F939F93AF93BF93EF93FF93E091E4
S11319804C21F0914D21309729F080914222909181
S113199043221995FF91EF91BF91AF919F918F9140
S11319A07F916F915F914F913F912F910F900BBE5B
S11319B00F900FBE0F901F9018951F920F920FB6A5
S11319C00F9211240BB60F922F933F934F935F9373
S11319D06F937F938F939F93AF93BF93EF93FF93F3
S11319E0E0914E21F0914F21309729F080914422CB
S11319F0909145221995FF91EF91BF91AF919F91DD
S1131A008F917F916F915F914F913F912F910F90A3
S1131A100BBE0F900FBE0F901F9018951F920F9240
S1131A200FB60F9211240BB60F922F933F934F933F
S1131A305F936F937F938F939F93AF93BF93EF9332
S1131A40FF93E0915021F0915121309729F080913A
S1131A504622909147221995FF91EF91BF91AF9142
S1131A609F918F917F916F915F914F913F912F91B2
S1131A700F900BBE0F900FBE0F901F9018951F92E2
S1131A800F920FB60F9211240BB60F922F933F9320
S1131A904F935F936F937F938F939F93AF93BF9372
S1131AA0EF93FF93E0915221F0915321309729F065
S1131AB080914822909149221995FF91EF91BF910D
S1131AC0AF919F918F917F916F915F914F913F91D2
S1131AD02F910F900BBE0F900FBE0F901F90189573
S1131AE01F920F920FB60F9211240BB60F922F93E1
S1131AF03F934F935F936F937F938F939F93AF9392
S1131B00BF93EF93FF93E0915421F09155213097C7
S1131B1029F080914A2290914B221995FF91EF91DF
S1131B20BF91AF919F918F917F916F915F914F91F1
S1131B303F912F910F900BBE0F900FBE0F901F90EF
S1131B4018951F920F920FB60F9211240BB60F9295
S1131B502F933F934F935F936F937F938F939F93B1
S1131B60AF93BF93EF93FF93E0915621F0915721E8
S1131B70309729F080914C2290914D221995FF9134
S1131B80EF91BF91AF919F918F917F916F915F91F1
S1131B904F913F912F910F900BBE0F900FBE0F905E
S1131BA01F9018951F920F920FB60F9211240BB627
S1131BB00F922F933F934F935F936F937F938F93E2
S1131BC09F93AF93BF93EF93FF93E0915821F091CC
S1131BD05921309729F080914E2290914F221995E6
S1131BE0FF91EF91BF91AF919F918F917F916F91F1
S1131BF05F914F913F912F910F900BBE0F900FBEAD
S1131C000F901F9018951F920F920FB60F921124E8
S1131C100BB60F922F933F934F935F936F937F93E2
S1131C208F939F93AF93BF93EF93FF93E0915A21C8
S1131C30F0915B21309729F08091502290915122AC
S1131C401995FF91EF91BF91AF919F918F917F91E2
S1131C506F915F914F913F912F910F900BBE0F9019
S1131C600FBE0F901F9018951F920F920FB60F92F0
S1131C7011240BB60F922F933F934F935F936F935F
S1131C807F938F939F93AF93BF93EF93FF93E091D1
S1131C905C21F0915D21309729F08091522290913E
S1131CA053221995FF91EF91BF91AF919F918F911D
S1131CB07F916F915F914F913F912F910F900BBE48
S1131CC00F900FBE0F901F9018951F920F920FB692
S1131CD00F9211240BB60F922F933F934F935F9360
S1131CE06F937F938F939F93AF93BF93EF93FF93E0
S1131CF0E0915E21F0915F21309729F08091542288
S1131D00909155221995FF91EF91BF91AF919F91B9
S1131D108F917F916F915F914F913F912F910F9090
S1131D200BBE0F900FBE0F901F9018951F920F922D
S1131D300FB60F9211240BB60F922F933F934F932C
S1131D405F936F937F938F939F93AF93BF93EF931F
S1131D50FF93E0916021F0916121309729F0809107
S1131D605622909157221995FF91EF91BF91AF910F
S1131D709F918F917F916F915F914F913F912F919F
S1131D800F900BBE0F900FBE0F901F9018951F92CF
S1131D900F920FB60F9211240BB60F922F933F930D
S1131DA04F935F936F937F938F939F93AF93BF935F
S1131DB0EF93FF93E0916221F0916321309729F032
S1131DC080915822909159221995FF91EF91BF91DA
S1131DD0AF919F918F917F916F915F914F913F91BF
S1131DE02F910F900BBE0F900FBE0F901F90189560
S1131DF01F920F920FB60F9211240BB60F922F93CE
S1131E003F934F935F936F937F938F939F93AF937E
S1131E10BF93EF93FF93E0916421F0916521309794
S1131E2029F080915A2290915B221995FF91EF91AC
S1131E30BF91AF919F918F917F916F915F914F91DE
S1131E403F912F910F900BBE0F900FBE0F901F90DC
S1131E5018951F920F920FB60F9211240BB60F9282
S1131E602F933F934F935F936F937F938F939F939E
S1131E70AF93BF93EF93FF93E0916621F0916721B5
S1131E80309729F080915C2290915D221995FF9101
S1131E90EF91BF91AF919F918F917F916F915F91DE
S1131EA04F913F912F910F900BBE0F900FBE0F904B
S1131EB01F9018951F920F920FB60F9211240BB614
S1131EC00F922F933F934F935F936F937F938F93CF
S1131ED09F93AF93BF93EF93FF93E0916821F091A9
S1131EE06921309729F080915E2290915F221995A3
S1131EF0FF91EF91BF91AF919F918F917F916F91DE
S1131F005F914F913F912F910F900BBE0F900FBE99
S1131F100F901F9018951F920F920FB60F921124D5
S1131F200BB60F922F933F934F935F936F937F93CF
S1131F308F939F93AF93BF93EF93FF93E0916A21A5
S1131F40F0916B21309729F0809160229091612269
S1131F501995FF91EF91BF91AF919F918F917F91CF
S1131F606F915F914F913F912F910F900BBE0F9006
S1131F700FBE0F901F9018951F920F920FB60F92DD
S1131F8011240BB60F922F933F934F935F936F934C
S1131F907F938F939F93AF93BF93EF93FF93E091BE
S1131FA06C21F0916D21309729F0809162229091FB
S1131FB063221995FF91EF91BF91AF919F918F91FA
S1131FC07F916F915F914F913F912F910F900BBE35
S1131FD00F900FBE0F901F9018951F920F920FB67F
S1131FE00F9211240BB60F922F933F934F935F934D
S1131FF06F937F938F939F93AF93BF93EF93FF93CD
S1132000E0916E21F0916F21309729F08091642244
S1132010909165221995FF91EF91BF91AF919F9196
S11320208F917F916F915F914F913F912F910F907D
S11320300BBE0F900FBE0F901F9018951F920F921A
S11320400FB60F9211240BB60F922F933F934F9319
S11320505F936F937F938F939F93AF93BF93EF930C
S1132060FF93E0917021F0917121309729F08091D4
S11320706622909167221995FF91EF91BF91AF91DC
S11320809F918F917F916F915F914F913F912F918C
S11320900F900BBE0F900FBE0F901F9018951F92BC
S11320A00F920FB60F9211240BB60F922F933F93FA
S11320B04F935F936F937F938F939F93AF93BF934C
S11320C0EF93FF93E0917221F0917321309729F0FF
S11320D080916822909169221995FF91EF91BF91A7
S11320E0AF919F918F917F916F915F914F913F91AC
S11320F02F910F900BBE0F900FBE0F901F9018954D
S11321001F920F920FB60F9211240BB60F922F93BA
S11321103F934F935F936F937F938F939F93AF936B
S1132120BF93EF93FF93E0917421F0917521309761
S113213029F080916A2290916B221995FF91EF9179
S1132140BF91AF919F918F917F916F915F914F91CB
S11321503F912F910F900BBE0F900FBE0F901F90C9
S113216018951F920F920FB60F9211240BB60F926F
S11321702F933F934F935F936F937F938F939F938B
S1132180AF93BF93EF93FF93E0917621F091772182
S1132190309729F080916C2290916D221995FF91CE
S11321A0EF91BF91AF919F918F917F916F915F91CB
S11321B04F913F912F910F900BBE0F900FBE0F9038
S11321C01F9018951F920F920FB60F9211240BB601
S11321D00F922F933F934F935F936F937F938F93BC
S11321E09F93AF93BF93EF93FF93E0917821F09186
S11321F07921309729F080916E2290916F22199560
S1132200FF91EF91BF91AF919F918F917F916F91CA
S11322105F914F913F912F910F900BBE0F900FBE86
S11322200F901F9018951F920F920FB60F921124C2
S11322300BB60F922F933F934F935F936F937F93BC
S11322408F939F93AF93BF93EF93FF93E0917A2182
S1132250F0917B21309729F0809170229091712226
S11322601995FF91EF91BF91AF919F918F917F91BC
S11322706F915F914F913F912F910F900BBE0F90F3
S11322800FBE0F901F9018951F920F920FB60F92CA
S113229011240BB60F922F933F934F935F936F9339
S11322A07F938F939F93AF93BF93EF93FF93E091AB
S11322B07C21F0917D21309729F0809172229091B8
S11322C073221995FF91EF91BF91AF919F918F91D7
S11322D07F916F915F914F913F912F910F900BBE22
S11322E00F900FBE0F901F9018951F920F920FB66C
S11322F00F9211240BB60F922F933F934F935F933A
S11323006F937F938F939F93AF93BF93EF93FF93B9
S1132310E0917E21F0917F21309729F08091742201
S1132320909175221995FF91EF91BF91AF919F9173
S11323308F917F916F915F914F913F912F910F906A
S11323400BBE0F900FBE0F901F9018951F920F9207
S11323500FB60F9211240BB60F922F933F934F9306
S11323605F936F937F938F939F93AF93BF93EF93F9
S1132370FF93E0918021F0918121309729F08091A1
S11323807622909177221995FF91EF91BF91AF91A9
S11323909F918F917F916F915F914F913F912F9179
S11323A00F900BBE0F900FBE0F901F9018951F92A9
S11323B00F920FB60F9211240BB60F922F933F93E7
S11323C04F935F936F937F938F939F93AF93BF9339
S11323D0EF93FF93E0918221F0918321309729F0CC
S11323E080917822909179221995FF91EF91BF9174
S11323F0AF919F918F917F916F915F914F913F9199
S11324002F910F900BBE0F900FBE0F901F90189539
S11324101F920F920FB60F9211240BB60F922F93A7
S11324203F934F935F936F937F938F939F93AF9358
S1132430BF93EF93FF93E0918421F091852130972E
S113244029F080917A2290917B221995FF91EF9146
S1132450BF91AF919F918F917F916F915F914F91B8
S11324603F912F910F900BBE0F900FBE0F901F90B6
S113247018951F920F920FB60F9211240BB60F925C
S11324802F933F934F935F936F937F938F939F9378
S1132490AF93BF93EF93FF93E0918621F09187214F
S11324A0309729F080917C2290917D221995FF919B
S11324B0EF91BF91AF919F918F917F916F915F91B8
S11324C04F913F912F910F900BBE0F900FBE0F9025
S11324D01F9018951F920F920FB60F9211240BB6EE
S11324E00F922F933F934F935F936F937F938F93A9
S11324F09F93AF93BF93EF93FF93E0918821F09163
S11325008921309729F080917E2290917F2219951C
S1132510FF91EF91BF91AF919F918F917F916F91B7
S11325205F914F913F912F910F900BBE0F900FBE73
S11325300F901F9018951F920F920FB60F921124AF
S11325400BB60F922F933F934F935F936F937F93A9
S11325508F939F93AF93BF93EF93FF93E0918A215F
S1132560F0918B21309729F08091802290918122E3
S11325701995FF91EF91BF91AF919F918F917F91A9
S11325806F915F914F913F912F910F900BBE0F90E0
S11325900FBE0F901F9018951F920F920FB60F92B7
S11325A011240BB60F922F933F934F935F936F9326
S11325B07F938F939F93AF93BF93EF93FF93E09198
S11325C08C21F0918D21309729F080918222909175
S11325D083221995FF91EF91BF91AF919F918F91B4
S11325E07F916F915F914F913F912F910F900BBE0F
S11325F00F900FBE0F901F9018951F920F920FB659
S11326000F9211240BB60F922F933F934F935F9326
S11326106F937F938F939F93AF93BF93EF93FF93A6
S1132620E0918E21F0918F21309729F080918422BE
S1132630909185221995FF91EF91BF91AF919F9150
S11326408F917F916F915F914F913F912F910F9057
S11326500BBE0F900FBE0F901F9018951F920F92F4
S11326600FB60F9211240BB60F922F933F934F93F3
S11326705F936F937F938F939F93AF93BF93EF93E6
S1132680FF93E0919021F0919121309729F080916E
S11326908622909187221995FF91EF91BF91AF9176
S11326A09F918F917F916F915F914F913F912F9166
S11326B00F900BBE0F900FBE0F901F9018951F9296
S11326C00F920FB60F9211240BB60F922F933F93D4
S11326D04F935F936F937F938F939F93AF93BF9326
S11326E0EF93FF93E0919221F0919321309729F099
S11326F080918822909189221995FF91EF91BF9141
S1132700AF919F918F917F916F915F914F913F9185
S11327102F910F900BBE0F900FBE0F901F90189526
S11327201F920F920FB60F9211240BB60F922F9394
S11327303F934F935F936F937F938F939F93AF9345
S1132740BF93EF93FF93E0919421F09195213097FB
S113275029F080918A2290918B221995FF91EF9113
S1132760BF91AF919F918F917F916F915F914F91A5
S11327703F912F910F900BBE0F900FBE0F901F90A3
S113278018951F920F920FB60F9211240BB60F9249
S11327902F933F934F935F936F937F938F939F9365
S11327A0AF93BF93EF93FF93E0919621F09197211C
S11327B0309729F080918C2290918D221995FF9168
S11327C0EF91BF91AF919F918F917F916F915F91A5
S11327D04F913F912F910F900BBE0F900FBE0F9012
S11327E01F9018951F920F920FB60F9211240BB6DB
S11327F00F922F933F934F935F936F937F938F9396
S11328009F93AF93BF93EF93FF93E0919821F0913F
S11328109921309729F080918E2290918F221995D9
S1132820FF91EF91BF91AF919F918F917F916F91A4
S11328305F914F913F912F910F900BBE0F900FBE60
S11328400F901F9018951F920F920FB60F9211249C
S11328500BB60F922F933F934F935F936F937F9396
S11328608F939F93AF93BF93EF93FF93E0919A213C
S1132870F0919B21309729F08091902290919122A0
S11328801995FF91EF91BF91AF919F918F917F9196
S11328906F915F914F913F912F910F900BBE0F90CD
S11328A00FBE0F901F9018951F920F920FB60F92A4
S11328B011240BB60F922F933F934F935F936F9313
S11328C07F938F939F93AF93BF93EF93FF93E09185
S11328D09C21F0919D21309729F080919222909132
S11328E093221995FF91EF91BF91AF919F918F9191
S11328F07F916F915F914F913F912F910F900BBEFC
S11329000F900FBE0F901F9018951F920F920FB645
S11329100F9211240BB60F922F933F934F935F9313
S11329206F937F938F939F93AF93BF93EF93FF9393
S1132930E0919E21F0919F21309729F0809194227B
S1132940909195221995FF91EF91BF91AF919F912D
S11329508F917F916F915F914F913F912F910F9044
S11329600BBE0F900FBE0F901F9018951F920F92E1
S11329700FB60F9211240BB60F922F933F934F93E0
S11329805F936F937F938F939F93AF93BF93EF93D3
S1132990FF93E091A021F091A121309729F080913B
S11329A09622909197221995FF91EF91BF91AF9143
S11329B09F918F917F916F915F914F913F912F9153
S11329C00F900BBE0F900FBE0F901F9018951F9283
S11329D00F920FB60F9211240BB60F922F933F93C1
S11329E04F935F936F937F938F939F93AF93BF9313
S11329F0EF93FF93E091A221F091A321309729F066
S1132A0080919822909199221995FF91EF91BF910D
S1132A10AF919F918F917F916F915F914F913F9172
S1132A202F910F900BBE0F900FBE0F901F90189513
S1132A301F920F920FB60F9211240BB60F922F9381
S1132A403F934F935F936F937F938F939F93AF9332
S1132A50BF93EF93FF93E091A421F091A5213097C8
S1132A6029F080919A2290919B221995FF91EF91E0
S1132A70BF91AF919F918F917F916F915F914F9192
S1132A803F912F910F900BBE0F900FBE0F901F9090
S1132A9018951F920F920FB60F9211240BB60F9236
S1132AA02F933F934F935F936F937F938F939F9352
S1132AB0AF93BF93EF93FF93E091A621F091A721E9
S1132AC0309729F080919C2290919D221995FF9135
S1132AD0EF91BF91AF919F918F917F916F915F9192
S1132AE04F913F912F910F900BBE0F900FBE0F90FF
S1132AF01F9018951F920F920FB60F9211240BB6C8
S1132B000F922F933F934F935F936F937F938F9382
S1132B109F93AF93BF93EF93FF93E091A821F0911C
S1132B20A921309729F080919E2290919F22199596
S1132B30FF91EF91BF91AF919F918F917F916F9191
S1132B405F914F913F912F910F900BBE0F900FBE4D
S1132B500F901F9018951F920F920FB60F92112489
S1132B600BB60F922F933F934F935F936F937F9383
S1132B708F939F93AF93BF93EF93FF93E091AA2119
S1132B80F091AB21309729F08091A0229091A1225D
S1132B901995FF91EF91BF91AF919F918F917F9183
S1132BA06F915F914F913F912F910F900BBE0F90BA
S1132BB00FBE0F901F9018951F920F920FB60F9291
S1132BC011240BB60F922F933F934F935F936F9300
S1132BD07F938F939F93AF93BF93EF93FF93E09172
S1132BE0AC21F091AD21309729F08091A2229091EF
S1132BF0A3221995FF91EF91BF91AF919F918F916E
S1132C007F916F915F914F913F912F910F900BBEE8
S1132C100F900FBE0F901F9018951F920F920FB632
S1132C200F9211240BB60F922F933F934F935F9300
S1132C306F937F938F939F93AF93BF93EF93FF9380
S1132C40E091AE21F091AF21309729F08091A42238
S1132C509091A5221995FF91EF91BF91AF919F910A
S1132C608F917F916F915F914F913F912F910F9031
S1132C700BBE0F900FBE0F901F9018951F920F92CE
S1132C800FB60F9211240BB60F922F933F934F93CD
S1132C905F936F937F938F939F93AF93BF93EF93C0
S1132CA0FF93E091B021F091B121309729F0809108
S1132CB0A6229091A7221995FF91EF91BF91AF9110
S1132CC09F918F917F916F915F914F913F912F9140
S1132CD00F900BBE0F900FBE0F901F9018951F9270
S1132CE00F920FB60F9211240BB60F922F933F93AE
S1132CF04F935F936F937F938F939F93AF93BF9300
S1132D00EF93FF93E091B221F091B321309729F032
S1132D108091A8229091A9221995FF91EF91BF91DA
S1132D20AF919F918F917F916F915F914F913F915F
S1132D302F910F900BBE0F900FBE0F901F90189500
S1132D401F920F920FB60F9211240BB60F922F936E
S1132D503F934F935F936F937F938F939F93AF931F
S1132D60BF93EF93FF93E091B421F091B521309795
S1132D7029F08091AA229091AB221995FF91EF91AD
S1132D80BF91AF919F918F917F916F915F914F917F
S1132D903F912F910F900BBE0F900FBE0F901F907D
S1132DA018951F920F920FB60F9211240BB60F9223
S1132DB02F933F934F935F936F937F938F939F933F
S1132DC0AF93BF93EF93FF93E091B621F091B721B6
S1132DD0309729F08091AC229091AD221995FF9102
S1132DE0EF91BF91AF919F918F917F916F915F917F
S1132DF04F913F912F910F900BBE0F900FBE0F90EC
S1132E001F9018951F920F920FB60F9211240BB6B4
S1132E100F922F933F934F935F936F937F938F936F
S1132E209F93AF93BF93EF93FF93E091B821F091F9
S1132E30B921309729F08091AE229091AF22199553
S1132E40FF91EF91BF91AF919F918F917F916F917E
S1132E505F914F913F912F910F900BBE0F900FBE3A
S1132E600F901F9018951F920F920FB60F92112476
S1132E700BB60F922F933F934F935F936F937F9370
S1132E808F939F93AF93BF93EF93FF93E091BA21F6
S1132E90F091BB21309729F08091B0229091B1221A
S1132EA01995FF91EF91BF91AF919F918F917F9170
S1132EB06F915F914F913F912F910F900BBE0F90A7
S1132EC00FBE0F901F9018951F920F920FB60F927E
S1132ED011240BB60F922F933F934F935F936F93ED
S1132EE07F938F939F93AF93BF93EF93FF93E0915F
S1132EF0BC21F091BD21309729F08091B2229091AC
S1132F00B3221995FF91EF91BF91AF919F918F914A
S1132F107F916F915F914F913F912F910F900BBED5
S1132F200F900FBE0F901F9018951F920F920FB61F
S1132F300F9211240BB60F922F933F934F935F93ED
S1132F406F937F938F939F93AF93BF93EF93FF936D
S1132F50E091BE21F091BF21309729F08091B422F5
S1132F609091B5221995FF91EF91BF91AF919F91E7
S1132F708F917F916F915F914F913F912F910F901E
S1132F800BBE0F900FBE0F901F9018951F920F92BB
S1132F900FB60F9211240BB60F922F933F934F93BA
S1132FA05F936F937F938F939F93AF93BF93EF93AD
S1132FB0FF93E091C021F091C121309729F08091D5
S1132FC0B6229091B7221995FF91EF91BF91AF91DD
S1132FD09F918F917F916F915F914F913F912F912D
S1132FE00F900BBE0F900FBE0F901F9018951F925D
S1132FF00F920FB60F9211240BB60F922F933F939B
S11330004F935F936F937F938F939F93AF93BF93EC
S1133010EF93FF93E091C221F091C321309729F0FF
S11330208091B8229091B9221995FF91EF91BF91A7
S1133030AF919F918F917F916F915F914F913F914C
S11330402F910F900BBE0F900FBE0F901F901895ED
S11330501F920F920FB60F9211240BB60F922F935B
S11330603F934F935F936F937F938F939F93AF930C
S1133070BF93EF93FF93E091C421F091C521309762
S113308029F08091BA229091BB221995FF91EF917A
S1133090BF91AF919F918F917F916F915F914F916C
S11330A03F912F910F900BBE0F900FBE0F901F906A
S11330B018951F920F920FB60F9211240BB60F9210
S11330C02F933F934F935F936F937F938F939F932C
S11330D0AF93BF93EF93FF93E091C621F091C72183
S11330E0309729F08091BC229091BD221995FF91CF
S11330F0EF91BF91AF919F918F917F916F915F916C
S11331004F913F912F910F900BBE0F900FBE0F90D8
S11331101F9018951F920F920FB60F9211240BB6A1
S11331200F922F933F934F935F936F937F938F935C
S11331309F93AF93BF93EF93FF93E091C821F091D6
S1133140C921309729F08091BE229091BF22199510
S1133150FF91EF91BF91AF919F918F917F916F916B
S11331605F914F913F912F910F900BBE0F900FBE27
S11331700F901F9018951F920F920FB60F92112463
S11331800BB60F922F933F934F935F936F937F935D
S11331908F939F93AF93BF93EF93FF93E091CA21D3
S11331A0F091CB21309729F08091C0229091C122D7
S11331B01995FF91EF91BF91AF919F918F917F915D
S11331C06F915F914F913F912F910F900BBE0F9094
S11331D00FBE0F901F9018951F920F920FB60F926B
S11331E011240BB60F922F933F934F935F936F93DA
S11331F07F938F939F93AF93BF93EF93FF93E0914C
S1133200CC21F091CD21309729F08091C222909168
S1133210C3221995FF91EF91BF91AF919F918F9127
S11332207F916F915F914F913F912F910F900BBEC2
S11332300F900FBE0F901F9018951F920F920FB60C
S11332400F9211240BB60F922F933F934F935F93DA
S11332506F937F938F939F93AF93BF93EF93FF935A
S1133260E091D221F091D321309729F08091C822A6
S11332709091C9221995FF91EF91BF91AF919F91C0
S11332808F917F916F915F914F913F912F910F900B
S11332900BBE0F900FBE0F901F9018951F920F92A8
S11332A00FB60F9211240BB60F922F933F934F93A7
S11332B05F936F937F938F939F93AF93BF93EF939A
S11332C0FF93E091D421F091D521309729F080919A
S11332D0CA229091CB221995FF91EF91BF91AF91A2
S11332E09F918F917F916F915F914F913F912F911A
S11332F00F900BBE0F900FBE0F901F9018951F924A
S11333000F920FB60F9211240BB60F922F933F9387
S11333104F935F936F937F938F939F93AF93BF93D9
S1133320EF93FF93E091D621F091D721309729F0C4
S11333308091CC229091CD221995FF91EF91BF916C
S1133340AF919F918F917F916F915F914F913F9139
S11333502F910F900BBE0F900FBE0F901F901895DA
S11333601F920F920FB60F9211240BB60F922F9348
S11333703F934F935F936F937F938F939F93AF93F9
S1133380BF93EF93FF93E091D821F091D921309727
S113339029F08091CE229091CF221995FF91EF913F
S11333A0BF91AF919F918F917F916F915F914F9159
S11333B03F912F910F900BBE0F900FBE0F901F9057
S11333C018951F920F920FB60F9211240BB60F92FD
S11333D02F933F934F935F936F937F938F939F9319
S11333E0AF93BF93EF93FF93E091DA21F091DB2148
S11333F0309729F08091D0229091D1221995FF9194
S1133400EF91BF91AF919F918F917F916F915F9158
S11334104F913F912F910F900BBE0F900FBE0F90C5
S11334201F9018951F920F920FB60F9211240BB68E
S11334300F922F933F934F935F936F937F938F9349
S11334409F93AF93BF93EF93FF93E091DC21F091AF
S1133450DD21309729F08091D2229091D3221995C1
S1133460FF91EF91BF91AF919F918F917F916F9158
S11334705F914F913F912F910F900BBE0F900FBE14
S11334800F901F9018951F920F920FB60F92112450
S11334900BB60F922F933F934F935F936F937F934A
S11334A08F939F93AF93BF93EF93FF93E091DE21AC
S11334B0F091DF21309729F08091D4229091D52288
S11334C01995FF91EF91BF91AF919F918F917F914A
S11334D06F915F914F913F912F910F900BBE0F9081
S11334E00FBE0F901F9018951F920F920FB60F9258
S11334F011240BB60F922F933F934F935F936F93C7
S11335007F938F939F93AF93BF93EF93FF93E09138
S1133510E021F091E121309729F08091D622909119
S1133520D7221995FF91EF91BF91AF919F918F9100
S11335307F916F915F914F913F912F910F900BBEAF
S11335400F900FBE0F901F9018951F920F920FB6F9
S11335500F9211240BB60F922F933F934F935F93C7
S11335606F937F938F939F93AF93BF93EF93FF9347
S1133570E091E221F091E321309729F08091D82263
S11335809091D9221995FF91EF91BF91AF919F919D
S11335908F917F916F915F914F913F912F910F90F8
S11335A00BBE0F900FBE0F901F9018951F920F9295
S11335B00FB60F9211240BB60F922F933F934F9394
S11335C05F936F937F938F939F93AF93BF93EF9387
S11335D0FF93E091E421F091E521309729F0809167
S11335E0DA229091DB221995FF91EF91BF91AF916F
S11335F09F918F917F916F915F914F913F912F9107
S11336000F900BBE0F900FBE0F901F9018951F9236
S11336100F920FB60F9211240BB60F922F933F9374
S11336204F935F936F937F938F939F93AF93BF93C6
S1133630EF93FF93E091E621F091E721309729F091
S11336408091DC229091DD221995FF91EF91BF9139
S1133650AF919F918F917F916F915F914F913F9126
S11336602F910F900BBE0F900FBE0F901F901895C7
S11336701F920F920FB60F9211240BB60F922F9335
S11336803F934F935F936F937F938F939F93AF93E6
S1133690BF93EF93FF93E091E821F091E9213097F4
S11336A029F08091DE229091DF221995FF91EF910C
S11336B0BF91AF919F918F917F916F915F914F9146
S11336C03F912F910F900BBE0F900FBE0F901F9044
S11336D018951F920F920FB60F9211240BB60F92EA
S11336E02F933F934F935F936F937F938F939F9306
S11336F0AF93BF93EF93FF93E091EA21F091EB2115
S1133700309729F08091E0229091E1221995FF9160
S1133710EF91BF91AF919F918F917F916F915F9145
S11337204F913F912F910F900BBE0F900FBE0F90B2
S11337301F9018951F920F920FB60F9211240BB67B
S11337400F922F933F934F935F936F937F938F9336
S11337509F93AF93BF93EF93FF93E091EC21F0918C
S1133760ED21309729F08091E2229091E32219957E
S1133770FF91EF91BF91AF919F918F917F916F9145
S11337805F914F913F912F910F900BBE0F900FBE01
S11337900F901F9018951F920F920FB60F9211243D
S11337A00BB60F922F933F934F935F936F937F9337
S11337B08F939F93AF93BF93EF93FF93E091EE2189
S11337C0F091EF21309729F08091E4229091E52245
S11337D01995FF91EF91BF91AF919F918F917F9137
S11337E06F915F914F913F912F910F900BBE0F906E
S11337F00FBE0F901F9018951F920F920FB60F9245
S113380011240BB60F922F933F934F935F936F93B3
S11338107F938F939F93AF93BF93EF93FF93E09125
S1133820F021F091F121309729F08091E6229091D6
S1133830E7221995FF91EF91BF91AF919F918F91DD
S11338407F916F915F914F913F912F910F900BBE9C
S11338500F900FBE0F901F9018951F920F920FB6E6
S11338600F9211240BB60F922F933F934F935F93B4
S11338706F937F938F939F93AF93BF93EF93FF9334
S1133880E091F221F091F321309729F08091E82220
S11338909091E9221995FF91EF91BF91AF919F917A
S11338A08F917F916F915F914F913F912F910F90E5
S11338B00BBE0F900FBE0F901F9018951F920F9282
S11338C00FB60F9211240BB60F922F933F934F9381
S11338D05F936F937F938F939F93AF93BF93EF9374
S11338E0FF93E0910822F0910922309729F080910A
S11338F0FE229091FF221995FF91EF91BF91AF9114
S11339009F918F917F916F915F914F913F912F91F3
S11339100F900BBE0F900FBE0F901F9018951F9223
S11339200F920FB60F9211240BB60F922F933F9361
S11339304F935F936F937F938F939F93AF93BF93B3
S1133940EF93FF93E0910A22F0910B22309729F034
S113395080910023909101231995FF91EF91BF91DC
S1133960AF919F918F917F916F915F914F913F9113
S11339702F910F900BBE0F900FBE0F901F901895B4
S11339801F920F920FB60F9211240BB60F922F9322
S11339903F934F935F936F937F938F939F93AF93D3
S11339A0BF93EF93FF93E0911022F091112230978F
S11339B029F080910623909107231995FF91EF91A7
S11339C0BF91AF919F918F917F916F915F914F9133
S11339D03F912F910F900BBE0F900FBE0F901F9031
S11339E018951F920F920FB60F9211240BB60F92D7
S11339F02F933F934F935F936F937F938F939F93F3
S1133A00AF93BF93EF93FF93E0911222F0911322AF
S1133A10309729F080910823909109231995FF91FB
S1133A20EF91BF91AF919F918F917F916F915F9132
S1133A304F913F912F910F900BBE0F900FBE0F909F
S1133A401F9018951F920F920FB60F9211240BB668
S1133A500F922F933F934F935F936F937F938F9323
S1133A609F93AF93BF93EF93FF93E0911422F09150
S1133A701522309729F080910A2390910B231995F0
S1133A80FF91EF91BF91AF919F918F917F916F9132
S1133A905F914F913F912F910F900BBE0F900FBEEE
S1133AA00F901F9018951F920F920FB60F9211242A
S1133AB00BB60F922F933F934F935F936F937F9324
S1133AC08F939F93AF93BF93EF93FF93E09116224D
S1133AD0F0911722309729F080910C2390910D23B7
S1133AE01995FF91EF91BF91AF919F918F917F9124
S1133AF06F915F914F913F912F910F900BBE0F905B
S1133B000FBE0F901F9018951F920F920FB60F9231
S1133B1011240BB60F922F933F934F935F936F93A0
S1133B207F938F939F93AF93BF93EF93FF93E09112
S1133B301822F0911922309729F080910E23909148
S1133B400F231995FF91EF91BF91AF919F918F91A1
S1133B507F916F915F914F913F912F910F900BBE89
S1133B600F900FBE0F901F9018951F920F920FB6D3
S1133B700F9211240BB60F922F933F934F935F93A1
S1133B806F937F938F939F93AF93BF93EF93FF9321
S1133B90E0911A22F0911B22309729F08091102392
S1133BA0909111231995FF91EF91BF91AF919F913E
S1133BB08F917F916F915F914F913F912F910F90D2
S1133BC00BBE0F900FBE0F901F9018951F920F926F
S1133BD00FB60F9211240BB60F922F933F934F936E
S1133BE05F936F937F938F939F93AF93BF93EF9361
S1133BF0FF93E0912622F0912722309729F08091BB
S1133C001C2390911D231995FF91EF91BF91AF91C2
S1133C109F918F917F916F915F914F913F912F91E0
S1133C200F900BBE0F900FBE0F901F9018951F9210
S1133C300F920FB60F9211240BB60F922F933F934E
S1133C404F935F936F937F938F939F93AF93BF93A0
S1133C50EF93FF93E0912822F0912922309729F0E5
S1133C6080911E2390911F231995FF91EF91BF918D
S1133C70AF919F918F917F916F915F914F913F9100
S1133C802F910F900BBE0F900FBE0F901F901895A1
S1133C901F920F920FB60F9211240BB60F922F930F
S1133CA03F934F935F936F937F938F939F93AF93C0
S1133CB0BF93EF93FF93E0912A22F0912B22309748
S1133CC029F080912023909121231995FF91EF9160
S1133CD0BF91AF919F918F917F916F915F914F9120
S1133CE03F912F910F900BBE0F900FBE0F901F901E
S1133CF018950E945903FDCF85E593E20E94640A5A
S1133D0083E593E20E94AF028AE393E20E94772064
S1133D1089E393E20E94C30288E393E20E94E807E6
S1133D2086E293E20E943C04089586E293E20E94B4
S1133D30420488E393E20E94E90789E393E20E9444
S1133D40C4028AE393E20E94CC2083E593E20E94BA
S1133D50BB0285E593E20E94650A0895EF920F93F2
S1133D601F93F89489E393E20E94C50288E393E2E7
S1133D700E9465080F2EF3E0EF2EF02D00E023E003
S1133D8040E061E085E593E20E94660A01E020E0FC
S1133D9040E06DE083E593E20E94330200E011E02D
S1133DA020E031E046E253E263E573E28AE393E222
S1133DB00E947D206AE373E286E293E20E94880611
S1133DC089E393E20E940C0378941F910F91EF9082
S1133DD00895CF93DF931F921F92CDB7DEB70E9451
S1133DE0AE1E88E393E20E94700886E293E20E948A
S1133DF04A04E12CF12C00E010E00F2EF8ECDF2E49
S1133E00F02DA12CB12CC12C912C8FE39FE10197B3
S1133E10F1F700C000004091242350912523CA01EA
S1133E20019680932423909325239A013695279510
S1133E303695279536952795ABE7B4E10E94DC24A7
S1133E4096958795D89E9001D99E300D11244217DE
S1133E50530721F486E293E20E9480042DEC3CECAB
S1133E604CEC5DE36E2D7F2D802F912F0E948F22CD
S1133E70E62EF72E082F192F2BED3FE049EC50E4E6
S1133E800E947B23181624F4EA2CFB2C0C2D192DEC
S1133E906E2D7F2D802F912F0E94ED2320E030E0A6
S1133EA040E85FE30E948F2220E030EC4FE754E4C7
S1133EB00E94802320E030E040E05FE30E94802302
S1133EC00E94FB22660F771F660F771F69837A8330
S1133ED042E050E0BE016F5F7F4F85E593E20E94B0
S1133EE0AA0A93CFCF93DF93EC01EC81FD818AEA98
S1133EF08083EC81FD818CEC8183EC81FD8182E007
S1133F00820F8283EC81FD8180E88383EC81FD81D3
S1133F10648385E0820F898730E02115310581F0C3
S1133F20DA01420F531F65E070E09D91EC81FD8141
S1133F30E60FF71F90836F5F7F4FA417B507A9F7AC
S1133F40DF91CF910895FC01A481B5818AEA8C9315
S1133F50A481B5818CEC11968C93A481B58183E006
S1133F6012968C93A481B58181E813968C93A481D5
S1133F70B58114966C93A481B58115964C9386E013
S1133F80818708950F931F93CF93DF93DC011496D9
S1133F90ED91FC911597AAEAA083EC01EC81FD81D7
S1133FA0ACECA183AC81BD81E22FEE0FED5F1296E4
S1133FB0EC93EC81FD81A2E8A383EC81FD81748301
S1133FC0EC81FD816583B9016D5F7F4FE62FEE0FB4
S1133FD0E987232BD9F0E42FF52FAB01440F551FAC
S1133FE026E030E0EC01AC81BD81A20FB31F6181FA
S1133FF06C93AC81BD81A20FB31F60813296119680
S11340006C932E5F3F4F2417350761F7DF91CF91F3
S11340101F910F910895FC01A481B5818AEA8C93C4
S1134020A481B5818CEC11968C93A481B58184E034
S113403012968C93A481B58183E813968C93A48102
S1134040B58114967C93A481B58115966C93A48153
S1134050B581440F16964C9387E0818708950F939A
S11340601F93CF93DF93EC01CB018A016F83788791
S11340704A875B870E940D258A839B83C8010E941F
S11340800D258C839D8319861E82DF91CF911F910C
S11340900F910895CF93DF93EC018A819B810E9455
S11340A0A2258C819D810E94A225DF91CF91089544
S11340B00895DC0157968D919C915897009739F09B
S11340C0DC01ED91FC910280F381E02D19950895B6
S11340D0DC0157968D919C915897009739F0DC013B
S11340E0ED91FC910480F581E02D199508952CEF54
S11340F030E2FC01208331830895CF92DF92EF9266
S1134100FF920F931F93CF93DF93EC017B016A011E
S1134110C9012F8338870A871B870E940D258A834C
S11341209B83C8010E940D258C839D831D8A19865B
S11341301F861E82188A198A1A8A1B8A87E08E872C
S113414082E08C8B1E8AEC86FD86D701ED91FC9172
S11341500484F585E02D41E851E2BE01C7011995BB
S1134160D701ED91FC910684F785E02D46EE51E2EE
S1134170BE01C7011995C114D10419F0CF8AD88E94
S113418002C0CF8BD88FDF91CF911F910F91FF90F9
S1134190EF90DF90CF9008952CEF30E2FC01208364
S11341A031830E9458200895CF93DF93EC01962F1A
S11341B04E8550E04B30510508F0A0C0FA01882725
S11341C0EC5EFE4F8F4F0C94D4249A3A19F482E09B
S11341D08E8794C081E08E8791C09C3C19F483E063
S11341E08E878CC081E08E8789C09E831F861A8A41
S11341F01B8A84E08E8782C08F85EA81FB81E80F69
S1134200F11D90832F8530E04F8158854217530765
S113421018F489E08E8772C02A893B892927922F56
S113422092959227092E969596959025092E969506
S113423090259770022E232F969507949795302DED
S1134240292706949795302529272A8B3B8B8F8520
S11342508F5F8F874F858E81481350C088E08E878B
S1134260E881F98150E06A817B810190F081E02D41
S1134270CE0119958F89988D009709F43FC0DC0110
S1134280ED91FC914E8150E06A817B810190F08137
S1134290E02D199533C0692F70E0688B798B86E027
S11342A08E872CC028893989A901592B488B598BB1
S11342B02A893B8942175307E9F488E08E87E8810D
S11342C0F9814E8150E06A817B810190F081E02D7B
S11342D0CE0119958F89988D009781F0DC01ED91BD
S11342E0FC914E8150E06A817B810190F081E02D48
S11342F0199504C089E08E8701C01E8ADF91CF9191
S11343000895CF93DF93EC018C859D85DC01ED91BD
S1134310FC910280F381E02D1995682FCE010E9453
S1134320D420DF91CF910895FC0117861682108A5C
S1134330118A128A138A16860895CF93DF93EC01AB
S11343408C89843038F48230B8F5882331F0813098
S1134350D1F039C0853081F136C081E08C8B1D8A63
S11343608C859D852D89DC01ED91FC91AC81BD810D
S1134370A20FB11D0480F581E02D6C9119958D89F2
S11343808F5F8D8B20C08C859D852D89DC01ED91FF
S1134390FC91AC81BD81A20FB11D0480F581E02D9B
S11343A06C9119958D898F5F8D8B9D898985981363
S11343B00AC083E08C8B07C08E89882319F0CE0154
S11343C00E9494211E8ADF91CF9108950E949D211D
S11343D00895FC0106C08685893041F086858A30BF
S11343E039F086858830B9F781E0089582E0089530
S11343F083E00895FC01158A148A0E949D21089582
S1134400CF93DF93EC01E881F9810284F385E02DF9
S11344101995CE010E94FA21DF91CF910895CF938F
S1134420DF93EC01E881F9810684F785E02D199585
S1134430CE010E94FA21DF91CF910895CF93DF93AB
S1134440EC01E881F9810484F585E02D1995CE010C
S11344500E94FA21DF91CF910895CF93DF93EC016D
S1134460E881F98150E00088F189E02D1995CE01A9
S11344700E94FA21DF91CF910895FC0106C084893E
S1134480843041F08489853039F084898330B9F7E8
S113449081E0089582E0089583E0089521E0FC011D
S11344A0268B0E941E22089521E0FC01268B0E9487
S11344B02D2208950F931F93CF93DF938C01EB016B
S11344C09881913869F4D801ED91FC910480F581CB
S11344D0E02D2A81AB014D5F5F4F6981C8011995B9
S11344E09881933899F4D801ED91FC912B8130E0B7
S11344F0AE014C5F5F4F698170E0762F66278A8139
S1134500682B0280F381E02DC8011995DF91CF91CA
S11345101F910F9108950E945A2208955058BB2765
S1134520AA270E94A6220C9441230E94332338F028
S11345300E943A2320F039F49F3F19F426F40C9496
S113454030230EF4E095E7FB0C942A23E92F0E9414
S1134550522358F3BA17620773078407950720F0AC
S113456079F4A6F50C9474230EF4E0950B2EBA2F6F
S1134570A02D0B01B90190010C01CA01A001112465
S1134580FF27591B99F0593F50F4503E68F11A1611
S1134590F040A22F232F342F4427585FF3CF4695A2
S11345A037952795A795F0405395C9F77EF41F16C4
S11345B0BA0B620B730B840BBAF09150A1F0FF0F8E
S11345C0BB1F661F771F881FC2F70EC0BA0F621F7A
S11345D0731F841F48F4879577956795B795F7956A
S11345E09E3F08F0B0CF9395880F08F09927EE0FFF
S11345F09795879508950E945A2388F09F5798F0BD
S1134600B92F9927B751B0F0E1F0660F771F881FD3
S1134610991F1AF0BA95C9F714C0B13091F00E94ED
S11346207423B1E008950C947423672F782F88279E
S1134630B85F39F0B93FCCF3869577956795B39514
S1134640D9F73EF490958095709561957F4F8F4F83
S11346509F4F089597F99F6780E870E060E00895A0
S11346609FEF80EC089500240A9416161706180686
S11346700906089500240A94121613061406050662
S11346800895092E0394000C11F4882352F0BB0FF3
S113469040F4BF2B11F460FF04C06F5F7F4F8F4F56
S11346A09F4F089557FD9058440F551F59F05F3F91
S11346B071F04795880F97FB991F61F09F3F79F040
S11346C087950895121613061406551FF2CF4695C2
S11346D0F1DF08C0161617061806991FF1CF869544
S11346E07105610508940895E894BB276627772728
S11346F0CB0197F908950E94F52308F48FEF0895EC
S11347000E9493230C9441230E94332338F00E9487
S11347103A2320F0952311F00C942A230C9430238F
S113472011240C9475230E94522370F3959FC1F3B6
S1134730950F50E0551F629FF001729FBB27F00D4B
S1134740B11D639FAA27F00DB11DAA1F649F6627A0
S1134750B00DA11D661F829F2227B00DA11D621FEF
S1134760739FB00DA11D621F839FA00D611D221FA9
S1134770749F3327A00D611D231F849F600D211D8D
S1134780822F762F6A2F11249F5750409AF0F1F010
S113479088234AF0EE0FFF1FBB1F661F771F881F79
S11347A091505040A9F79E3F510580F00C942A2364
S11347B00C9475235F3FE4F3983ED4F38695779584
S11347C06795B795F795E7959F5FC1F7FE2B880F1F
S11347D0911D9695879597F908959F930E941B24A0
S11347E00F9007FCEE5F0C944424990F0008550FBA
S11347F0AA0BE0E8FEEF16161706E807F907C0F063
S113480012161306E407F50798F0621B730B840B6A
S1134810950B39F40A2661F0232B242B252B21F444
S113482008950A2609F4A140A6958FEF811D811DE4
S113483008950C9430230E945A23D8F3E894E0E0BE
S1134840BB279F57F0F02AED3FE049EC06C0EE0F7E
S1134850BB0F661F771F881F28F0B23A62077307E1
S1134860840728F0B25A620B730B840BE3959A9574
S113487072F7803830F49A95BB0F661F771F881F34
S1134880D2F790480C945A24EF93E0FF07C0A2EAB1
S11348902AED3FE049EC5FEB0E94A6220E944123EF
S11348A00F90039401FC9058EEE3F2E00C9466241C
S11348B09F3F31F0915020F4879577956795B79590
S11348C0880F911D9695879597F908959F938F93D7
S11348D07F936F93FF93EF939B01AC010E9480231E
S11348E0EF91FF910E947A242F913F914F915F9114
S11348F00C948023DF93CF931F930F93FF92EF9237
S1134900DF927B018C01689406C0DA2EEF010E94CD
S11349109323FE01E894A5912591359145915591F4
S1134920A6F3EF010E94A622FE019701A801DA94E2
S113493069F7DF90EF90FF900F911F91CF91DF9176
S11349400895AA1BBB1B51E107C0AA1FBB1FA617D2
S1134950B70710F0A61BB70B881F991F5A95A9F724
S113496080959095BC01CD010895052E97FB1EF40A
S113497000940E94CC2457FD07D00E94EB2407FC2E
S113498003D04EF40C94CC24509540953095219549
S11349903F4F4F4F5F4F0895909580957095619567
S11349A07F4F8F4F9F4F0895EE0FFF1F881F8BBFC0
S11349B00790F691E02D1994A29FB001B39FC00116
S11349C0A39F700D811D1124911DB29F700D811D37
S11349D01124911D0895A1E21A2EAA1BBB1BFD01EF
S11349E00DC0AA1FBB1FEE1FFF1FA217B307E407CA
S11349F0F50720F0A21BB30BE40BF50B661F771F22
S1134A00881F991F1A9469F7609570958095909501
S1134A109B01AC01BD01CF010895CF93DF93823098
S1134A20910510F482E090E0E0915D23F0915E2323
S1134A3020E030E0C0E0D0E0309711F140815181B6
S1134A4048175907C0F04817590761F482819381C8
S1134A50209719F08A839B832BC080935D239093C6
S1134A605E2326C02115310519F04217530718F4A7
S1134A709A01BE01DF01EF010280F381E02DDCCF5A
S1134A802115310509F1281B390B2430310590F427
S1134A9012968D919C9113976115710521F0FB017C
S1134AA08283938304C080935D2390935E23FD01EE
S1134AB0329644C0FD01E20FF31F8193919322507B
S1134AC031092D933C933AC020915B2330915C23B0
S1134AD0232B41F4209102203091032020935B2367
S1134AE030935C2320910020309101202115310561
S1134AF041F42DB73EB74091042050910520241B6A
S1134B00350BE0915B23F0915C23E217F307A0F4EB
S1134B102E1B3F0B2817390778F0AC014E5F5F4F0F
S1134B202417350748F04E0F5F1F40935B235093C3
S1134B305C238193919302C0E0E0F0E0CF01DF9128
S1134B40CF9108950F931F93CF93DF93009709F4A8
S1134B508CC0FC0132971282138200915D23109164
S1134B605E230115110581F420813181820F931F89
S1134B7020915B2330915C232817390779F5E09362
S1134B805B23F0935C2371C0D80140E050E0AE1782
S1134B90BF0750F412962D913C911397AD01211546
S1134BA0310509F1D901F3CF9D01DA012283338361
S1134BB060817181860F971F8217930769F4EC0156
S1134BC028813981260F371F2E5F3F4F2083318381
S1134BD08A819B8182839383452B29F4E0935D230F
S1134BE0F0935E2342C01296ED93FC931397ED016C
S1134BF0499159919E01240F351FE217F30771F46F
S1134C0080819181840F951F02968D939C931197B7
S1134C108281938112968D939C931397E0E0F0E048
S1134C20D80112968D919C911397009719F0F80171
S1134C308C01F6CF8D919C9198012E5F3F4F820F8E
S1134C40931F20915B2330915C232817390769F463
S1134C50309729F410925D2310925E2302C01282D1
S1134C60138200935B2310935C23DF91CF911F91F8
S1134C700F910895FB01DC0102C001900D92415097
S1134C805040D8F7089512E0CEEFD1E000E006C01E
S1134C90802FFE010E94D4242196011DC030D1072B
S10D4CA080E00807A9F7F894FFCF9D
S1134CAA00005F2320000706050301040200030134
S1134CBAFF0200FEFFFDFEFCFDFBFDFAFCFA00FE0E
S1134CCAFAFCF9FBF9000C0C0C228A0C228A0C223D
S1134CDA890C228721831F7B1B6B0F79134B0103DA
S1134CEA2F134D0B2B000000000033026E027102D9
S1134CFA74027C0283028B0294029D02A6020000C3
S1134D0A00008303150484032F204A20721FA31F63
S1134D1AC21F0B2000000000B608D108DE08E6080E
S1134D2AED08F408F908FE08030908090D091F0922
S1134D3A3109430955096709000000008D09A809CA
S1134D4AB509BD09C409CB09D009D509DA09DF09AE
S1134D5AE409F609080A1A0A2C0A3E0A00000000A5
S1134D6A791E791E791E791E791E791E791E791E7D
S1134D7A791E791E791E791E791E791E791E791E6D
S1134D8A00000000791E791E791E791E791E791E8B
S1134D9A791E791E791E791E000000008B22592083
S1114DAA68202F204A20721FA31FC21F0B2057
S9030000FC
