:100000000C9419020C94CF100C9400110C94311123
:100010000C9462110C9493110C94C4110C94F5116E
:100020000C9426120C9457120C9488120C94B9124A
:100030000C94EA120C941B130C944C130C947D1327
:100040000C94AE130C94DF130C9410140C94411404
:100050000C9472140C94A3140C94D4140C940515E1
:100060000C9436150C9467150C9498150C94C915BE
:100070000C94FA150C942B160C945C160C948D169B
:100080000C94BE160C94EF160C9420170C94511778
:100090000C9482170C94B3170C94E4170C94151855
:1000A0000C9446180C9477180C94A8180C94D91832
:1000B0000C940A190C943B190C946C190C949D190E
:1000C0000C94CE190C94FF190C94301A0C94611AEC
:1000D0000C94921A0C94C31A0C94F41A0C94251BC9
:1000E0000C94561B0C94871B0C94B81B0C94E91BA6
:1000F0000C941A1C0C944B1C0C947C1C0C94AD1C82
:100100000C94DE1C0C940F1D0C94401D0C94711D5E
:100110000C94A21D0C94D31D0C94041E0C94351E3B
:100120000C94661E0C94971E0C94C81E0C944A02E4
:100130000C944A020C94F91E0C942A1F0C945B1F19
:100140000C948C1F0C94BD1F0C94EE1F0C941F205C
:100150000C9450200C9481200C94B2200C94E32039
:100160000C9414210C9445210C9476210C94A72115
:100170000C94D8210C9409220C944A020C944A0243
:100180000C944A020C944A020C944A020C944A02BF
:100190000C944A020C944A020C944A020C944A02AF
:1001A0000C943A220C946B220C944A020C944A024E
:1001B0000C949C220C94CD220C94FE220C942F23A0
:1001C0000C9460230C9491230C944A020C944A02E0
:1001D0000C944A020C944A020C944A020C94C223D6
:1001E0000C94F3230C94242419041C042D043E04C1
:1001F0008004800480045004540458045C046004A7
:100200006404800468046C047004740478047C043E
:100210007907950B950B950B950B9207C107E20794
:100220002F08950B950B950B950B950B950B950B37
:10023000A3088908D009DF09EE09FD090C0A1B0A89
:100240002A0A390A480A570A660A750A840A930A6A
:10025000912691269926A126AC2604270B2737271D
:100260003727362736270C94DB250C94660A0C9426
:10027000E2070C9450040C940F0F0C9444280C9437
:10028000210F0C94960F0C949D0E0C9455240C94F5
:10029000750A0C94FD090C9458040C9470250C9468
:1002A000C00E0C94F6250C9420250C94D20F0C94BF
:1002B000EE090C941C040C9460040C9470040C94CF
:1002C000A1260C9499040C94590F0C94C00F0C9413
:1002D000AA0E0C94B20E0C9401040C942F080C94EA
:1002E000BB0F0C9474040C9489080C946C040C944B
:1002F000B6020C94AC0F0C94A4020C9468040C94F9
:1003000064040C944C020C94BE100C94EB0E0C94F0
:1003100080040C94570A0C9478040C947C040C947C
:10032000C6040C940B270C94CF0E0C941B0A0C944F
:10033000C50E0C942D040C94E40F0C943E040C9404
:100340008F0F0C9499260C94D0090C94CA0E0C941F
:10035000AD020C9487020C9492070C9471240C94B7
:1003600058240C9454050C948D020C9437270C944B
:100370005C040C94480A0C94D40E0C9491260C94B2
:10038000840A0C943A270C94D90E0C94810F0C9487
:10039000FD0E0C94330F0C9451250C949F270C9454
:1003A00019040C9405260C9402040C9414260C9445
:1003B000BF020C9495020C94AC260C94A3080C94E8
:1003C000F60F0C94DF090C94950B0C94C1070C9458
:1003D00054040C9436270C941A100C94A70F0C9408
:1003E000930A0C94890F0C94390A0C94820E0C9485
:1003F000B10F0C9408100C94740F0C9479070C94A2
:10040000B8250C949E0F0C94B60F0C9404270C94F2
:100410005D050C949C020C94B90E0C942A0A0C9461
:1004200051050C948A020C940C0A540558245D055D
:10043000712411241FBECFEFCDBFDFE3DEBF00E08C
:100440000CBF11E2A0E0B0E2E6EFF3E500E00BBF85
:1004500002C007900D92A435B107D9F723E2A4E5B5
:10046000B1E201C01D92A53CB207E1F712E0C7E17D
:10047000D2E000E006C021970109802FFE010E9412
:100480007A28C531D10780E00807A9F70E94C52462
:100490000C94E9290C9400000F93E0E6F6E088E064
:1004A000818384E08283128A138AE0EAF9E084E19E
:1004B000838388E1848384818483413019F04230CE
:1004C00019F004C080E203C080E301C080E0222371
:1004D00019F0213019F003C0877F01C08860011135
:1004E00002C093E401C093E0892BE0EAF9E0858340
:1004F00070E0DB01AA5DBF4D8C918683DB01AA5FB2
:10050000BF4D8C918295807F87830F910895809154
:10051000A00908956093A00908958091A10986FB20
:10052000882780F991E0892708958091A109809515
:10053000881F8827881F08958091A10985FB882737
:1005400080F991E08927089560932F2370933023D9
:100550004093392250933A22089560933323709345
:10056000342340933D2250933E220895FB018BE6B5
:10057000838380EA808789E0818712860895FB0162
:100580008CE6838380EA848789E0858716860895D0
:10059000CF93DF93EC010E94C8108AE490E2888335
:1005A0009983DF91CF9108952AE430E2FC01208302
:1005B00031830E94CE10089508950895CF93DF935C
:1005C000EC01E0E4F6E02FEF218398EA908B918B29
:1005D000928B938B948B958B968B978B2483A0E82F
:1005E000B6E088E011968C93119753961C9253971E
:1005F00014961C921497E0EAF6E090EC908B80E859
:10060000818B928B938B948B958B968B978B14828B
:100610002183E0E6F6E021E12183908B948B148224
:1006200093E011969C93119750968C935097519606
:100630008C93519714961C92E0EAF0E082818160DD
:100640008283828182608283828184608283FE01D0
:100650009E01285F3F4F91E09193E217F307E1F786
:100660008AE08887DF91CF910895E0E5F0E08BEC98
:100670008283808188608083818183FFFDCFE0E574
:10068000F0E0858198ED94BF84EC85838081806162
:100690008083E0E4F0E0818194BF1182E0E5F0E046
:1006A000818184FFFDCFE0E4F0E08081887F846079
:1006B00098ED94BF8083A0E5B0E08C91887F8C9307
:1006C000828194BF81E08283E0EBF0E084818C7FC3
:1006D0008483089581E080936206089580E1809389
:1006E0006206089581E080936106089580E1809319
:1006F0006106089582E080938506089582E08093E4
:1007000086060895F89484E690E0E0E8F6E028E0B4
:100710002583AFE9BFE01197F1F700C00000268301
:10072000AFE9BFE01197F1F700C00000019781F732
:1007300078940895F89445E050E064E630E0E0E80D
:10074000F6E028E01CC02583AFE9BFE01197F1F780
:1007500000C000002683AFE9BFE01197F1F700C0A9
:100760000000019781F7BFEF73EC89E0B150704052
:100770008040E1F700C000004150510919F0862F78
:10078000932FE1CF78940895CF93DC0160914806D0
:1007900018963C911897FC01AC01485F5F4F91E0BF
:1007A000C1E070E8892F862341F080818F5F813816
:1007B00010F4808308C0708306C08081815011F0DE
:1007C000808301C0C0838191381740F419968C91C1
:1007D0001997892B19968C93199709C019968C91A2
:1007E0001997292F2095282319962C931997990F3B
:1007F000E417F507B9F6CF910895FC018185817062
:1008000008950895DC01633029F4FA0181811E9670
:100810008C931E971E964C911E9750E044315105C3
:1008200008F06EC0FA018827EC50FF4F8F4F0C94F0
:100830007A281C961C92089581E01C968C931C9734
:100840001D968C911D97882309F472C01D961C92E9
:100850001D9781E01F968C93089582E01C968C93DF
:100860001C971D968C911D97813009F461C081E021
:100870001D968C931D971F968C93089583E01C966C
:100880008C931C971D968C911D97823009F450C053
:1008900082E01D968C931D9781E01F968C9308959E
:1008A00086E01C968C93089587E01C968C9308959F
:1008B00088E01C968C93089584E01C968C93089590
:1008C00085E01C968C93089589E01C968C9308957E
:1008D0008AE01C968C9308958BE01C968C93089567
:1008E0008CE01C968C9308958DE01C968C93089553
:1008F0008EE01C968C9308958FE01C968C9308953F
:100900001E968C911E97883128F01E968C911E970A
:10091000893248F01E968C911E97893249F481E104
:100920001C968C93089580E11C968C931C97F2CFB3
:1009300008950895CF92DF92EF92FF920F931F9345
:10094000CF93DF937C018A0141155105B1F06B0112
:10095000C40ED51EEB01261B370BC9018C0F9D1F42
:10096000B8010E944728FC0141E0E427EE0DFF1D7D
:1009700089918083CC15DD0581F7DF91CF911F919F
:100980000F91FF90EF90DF90CF9008956730710541
:1009900051F4FA0120813181322723273227FC01CB
:1009A000208F318F08956130710529F5F901BA0161
:1009B000DC011D968C918130A1F018F0823049F055
:1009C00018C020E030E0AF0185E791E20E949A0470
:1009D000089520E030E0AF0189E591E20E949A0499
:1009E000089520E030E0AF0187E691E20E949A048A
:1009F00008950E948203089524EA30E2FC012083D6
:100A00003183089524EA30E2FC01208331830E947F
:100A1000042608950F931F93CF93DF931F921F9285
:100A2000CDB7DEB78C0180E094E189839A8322E020
:100A3000AE014F5F5F4F63E0F801828D938D0E949E
:100A4000B927F801828D938D0E94F6272EE030E0C1
:100A500045E751E261E070E0F801828D938D0E94DC
:100A6000C827F801828D938D0E94F62781E0F80156
:100A700084870F900F90DF91CF911F910F91089570
:100A8000FC01448955895695479520E068EE73E04E
:100A900083E993E20E94CA0D83E993E20E94FE0D6E
:100AA00008950E944005089586E891E20E94450F4E
:100AB00083E891E20E942C10089583E891E20E945D
:100AC000381086E891E20E94510F08958F929F920C
:100AD000AF92BF92CF92DF92EF92FF920F931F934C
:100AE000CF93DF938C01DC015A966D937C935B97D7
:100AF00046E060E086E891E20E94820E68EA71E6D4
:100B000086E891E20E94C00E21E0A80169E974E044
:100B100086E891E20E94D90EF80116861786E5E76D
:100B2000F1E28AE090E0808391830F2EF2E3AF2E12
:100B3000B12CF02DA286B38660817181C285D385E8
:100B40000F2EF8EECF2EF3E0DF2EF02DC6010E941F
:100B500047286C9F90016D9F300D7C9F300D1124B4
:100B60003695279536952795ABE7B4E10E94822804
:100B700096958795828393830F2EF8ECEF2EF12CB8
:100B8000F02DE482F5828481958142855385489FCA
:100B90009001499F300D589F300D112436952795AF
:100BA000369527950E948228969587958683978308
:100BB0008481958142815381489F9001499F300DE6
:100BC000589F300D112436952795369527953695E3
:100BD0002795A5ECB0E20E948228929582958F70AD
:100BE00089279F70892780879187C9E5D1E281E0B5
:100BF00090E088839983AA86BB86688179818A84FC
:100C00009B84C6010E944728689D9001699D300D14
:100C1000789D300D11243695279536952795ABE7AD
:100C2000B4E10E948228969587958A839B83EC8203
:100C3000FD828C819D814A855B85489F9001499FFB
:100C4000300D589F300D11243695279536952795F0
:100C50000E948228969587958E839F838C819D81A3
:100C60004A815B81489F9001499F300D589F300D0C
:100C70001124369527953695279536952795A5EC19
:100C8000B0E20E948228929582958F7089279F708A
:100C9000892788879987C7E6D1E285E090E0888335
:100CA0009983AA86BB8668817981AA84BB84C601A0
:100CB0000E9447286A9D90016B9D300D7A9D300DF2
:100CC00011243695279536952795ABE7B4E10E9418
:100CD0008228969587958A839B83EC82FD828C81FE
:100CE0009D814A855B85489F9001499F300D589FA3
:100CF000300D112436952795369527950E94822828
:100D0000969587958E839F838C819D814A815B8197
:100D1000489F9001499F300D589F300D1124369502
:100D200027953695279536952795A5ECB0E20E9434
:100D30008228929582958F7089279F70892788874E
:100D40009987608171818AE698E10E944728AB010A
:100D5000440F551F660F771F660F771F660F771FAB
:100D6000460F571FD80150964D935C9351970284BC
:100D7000F385E02D9A013695279536952795ABE7B3
:100D8000B4E10E948228969587958E9F90018F9F4F
:100D9000300D9E9F300D1124421B530BF801428BE6
:100DA000538B47E063E083E891E20E94590FD8013A
:100DB00050966D917C91519783E891E20E94A70F24
:100DC000F8016289738983E891E20E94AC0FD8012F
:100DD00052966D917C91539783E891E20E94B10FF6
:100DE00021E0A80161E575E083E891E20E94C00F6F
:100DF00060E183E891E20E94890F60E283E891E27A
:100E00000E94890F60E183E891E20E94960F60E200
:100E100083E891E20E94960FF8011586DF91CF9149
:100E20001F910F91FF90EF90DF90CF90BF90AF9008
:100E30009F908F900895EF92FF920F931F93CF93FF
:100E4000DF93CDB7DEB7C25CD340CDBFDEBF8C0130
:100E500042E063E0DC015A968D919C915B970E9481
:100E60000728F801828D938D0E94F627D8015A96A3
:100E70008D919C915B970E94A227BFEFE1EEF4E079
:100E8000B150E040F040E1F700C00000D8011F96EB
:100E90008C911F9781111EC04EE061E070E05A9660
:100EA0008D919C915B970E940D28F801828D938D06
:100EB0000E94F627D8015A968D919C915B970E94CB
:100EC000A227BFEFE1EEF4E0B150E040F040E1F7DF
:100ED00000C00000D8011C968C9190E082319105F1
:100EE00008F023C4FC018827E85FFE4F8F4F0C9465
:100EF0007A2880E094E189839A8322E0AE014F5FF3
:100F00005F4F63E0F801828D938D0E94B927D8016D
:100F10005A968D919C915B970E94F62781E0F8018B
:100F2000848703C484E993E20E94FD0381111AC0FF
:100F3000D80152966D917C91539783E891E20E947B
:100F4000AC0FF8016289738983E891E20E94B10FC6
:100F5000D80150966D917C91519783E891E20E945F
:100F6000740FE3C383E891E20E94810F60E183E89C
:100F700091E20E94960F60E283E891E20E94960F50
:100F8000D4C384E993E20E946E0384E993E20E9451
:100F90007A0380E09AE089839A8322E0AE014F5F72
:100FA0005F4F63E0F801828D938D0E94B927D801CD
:100FB0005A968D919C915B970E94F62784E0F801E8
:100FC0008487B3C3D80156964D915C9157970024FE
:100FD000569547950794569547950794542F402D5D
:100FE0009A01A1E1B4E00E948228481B590B569552
:100FF0004795840F951F96958795929582958F704A
:1010000089279F708927880F991F880F991FCF51B3
:10101000DF4F88839983C15ED04042E050E0BE013B
:101020006F517F4F89EB93E20E94861080E09BE036
:1010300089839A8322E0AE014F5F5F4F63E0F8013E
:10104000828D938D0E94B927D8015A968D919C91DB
:101050005B970E94F62785E0F801848766C3CF512D
:10106000DF4F18821982C15ED04042E050E0BE01DD
:101070006F517F4F89EB93E20E94861083E891E2E3
:101080000E94810F60E183E891E20E94960F60E286
:1010900083E891E20E94960F84E993E20E947E0326
:1010A00084E993E20E94760319821A82D8011D9680
:1010B0008C918130A9F018F0823049F018C080E09E
:1010C00091E089839A8381E0F801848710C080E0F1
:1010D00093E089839A8383E0D8011C968C9307C0A0
:1010E00080E092E089839A8382E0F801848722E09D
:1010F000AE014F5F5F4F63E0D8015A968D919C918E
:101100005B970E94B927F801828D938D0E94F62784
:101110000CC380E096E289839A8322E0AE014F5FA0
:101120005F4F63E0D8015A968D919C915B970E9426
:10113000B927F801828D938D0E94F62780E1D801AE
:101140001C968C93F2C242E067E070E0F801828D59
:10115000938D0E940D28D8015A968D919C915B9792
:101160000E94F627F801828D938D0E94A227FFEF3F
:1011700021EE84E0F15020408040E1F700C0000003
:10118000FE01EF55FD4F80EEDF01282F1D922A95BD
:10119000E9F7E05EF109DF01282F1D922A95E9F7B2
:1011A000E05EF109DF01282F1D922A95E9F7E05E44
:1011B000F109DF011D928A95E9F781E2EEE5F0E29F
:1011C000DE01AE55BC4F01900D928A95E1F781E2A8
:1011D000EFE7F0E2DE01AF57BC4F01900D928A9528
:1011E000E1F7809157219091582101968032910525
:1011F0002CF4809357219093582104C010925721CA
:1012000010925821F801808D918D209155213091B7
:1012100056218217930721F01092572110925821DE
:10122000809355219093562120E030E040E250E039
:10123000BE016E557C4FCE018F559D4F0E949A0482
:1012400020E030E040E250E0BE016E557C4F81EA84
:1012500092E08C0F9D1F80960E949A0420E030E05F
:1012600040E250E0BE016E557C4FCE018F519D4F44
:101270000E949A0420E030E040E250E0BE016E554A
:101280007C4FCE018F5F9C4F0E949A0420E030E09B
:1012900040E250E0BE016E557C4FCE018F5D9C4F09
:1012A0000E949A0420E030E040E250E0BE016E551A
:1012B0007C4FCE018F5B9C4F0E949A0420E030E06F
:1012C00040E250E0BE016E557C4FCE018F599C4FDD
:1012D0000E949A0420E030E040E250E0BE016E55EA
:1012E0007C4FCE018F539E4F0E949A0420E030E045
:1012F00040E250E0BE016E557C4F81EC91E08C0FD6
:101300009D1F80960E949A0420E030E040E250E069
:10131000BE016E557C4FCE018F5F9D4F0E949A0497
:1013200020E030E040E250E0BE016E557C4FCE013F
:101330008F5D9D4F0E949A0420E030E040E250E033
:10134000BE016E557C4FCE018F5B9D4F0E949A046B
:1013500020E030E040E250E0BE016E557C4FCE010F
:101360008F599D4F0E949A0420E030E040E250E007
:10137000BE016E557C4FCE018F579D4F0E949A043F
:10138000D8015896ED91FC9159973197EE30F105BF
:1013900008F0D7C08827E65EFE4F8F4F0C947A285E
:1013A000209157213091582140E250E0BE016E5506
:1013B0007C4FCE018F559D4F0E949A04C2C0209150
:1013C00057213091582140E250E0BE016E557C4FCC
:1013D000CE018F539D4F0E949A04B3C02091572194
:1013E0003091582140E250E0BE016E557C4FCE0155
:1013F0008F519D4F0E949A04A4C020915721309193
:10140000582140E250E0BE016E557C4FCE018F5F07
:101410009C4F0E949A0495C02091572130915821E9
:1014200040E250E0BE016E557C4FCE018F5D9C4F77
:101430000E949A0486C0209157213091582140E2A1
:1014400050E0BE016E557C4FCE018F5B9C4F0E94D9
:101450009A0477C0209157213091582140E250E002
:10146000BE016E557C4FCE018F599C4F0E949A044D
:1014700068C0209157213091582140E250E0BE01D0
:101480006E557C4FCE018F539E4F0E949A0459C0D7
:10149000209157213091582140E250E0BE016E5515
:1014A0007C4FCE018F519E4F0E949A044AC02091DA
:1014B00057213091582140E250E0BE016E557C4FDB
:1014C000CE018F5F9D4F0E949A043BC0209157210F
:1014D0003091582140E250E0BE016E557C4FCE0164
:1014E0008F5D9D4F0E949A042CC02091572130910E
:1014F000582140E250E0BE016E557C4FCE018F5B1B
:101500009D4F0E949A041DC020915721309158216F
:1015100040E250E0BE016E557C4FCE018F599D4F89
:101520000E949A040EC0209157213091582140E228
:1015300050E0BE016E557C4FCE018F579D4F0E94EB
:101540009A0420E030E040E250E0BE016F577C4F4B
:10155000CE018F519F4F0E949A0420E030E040E27C
:1015600050E0BE016F577C4F81EE90E08C0F9D1FC5
:1015700080960E949A0420E030E040E250E0BE01F4
:101580006F577C4FCE018F5D9E4F0E949A0420E0E2
:1015900030E040E250E0BE016F577C4FCE018F5BE0
:1015A0009E4F0E949A0420E030E040E250E0BE01ED
:1015B0006F577C4FCE018F599E4F0E949A0420E0B6
:1015C00030E040E250E0BE016F577C4FCE018F57B4
:1015D0009E4F0E949A0420E030E040E250E0BE01BD
:1015E0006F577C4FCE018F559E4F0E949A0420E08A
:1015F00030E040E250E0BE016F577C4FCE010196D3
:101600000E949A0420E030E040E250E0BE016F57B3
:101610007C4FCE0181960E949A0420E030E040E2A7
:1016200050E0BE016F577C4FCE018F5B9F4F0E94F1
:101630009A0420E030E040E250E0BE016F577C4F5A
:10164000CE018F599F4F0E949A0420E030E040E283
:1016500050E0BE016F577C4FCE018F579F4F0E94C5
:101660009A0420E030E040E250E0BE016F577C4F2A
:10167000CE018F559F4F0E949A0420E030E040E257
:1016800050E0BE016F577C4FCE018F539F4F0E9499
:101690009A0420EE30E0AE014F555D4F60E170E0FE
:1016A000F801828D938D0E94C827D8015A968D919A
:1016B0009C915B970E94F62720EE30E0AE014F53DD
:1016C0005E4F60E870E0F801828D938D0E94C8271C
:1016D000D8015A968D919C915B970E94F62720EE37
:1016E00030E0AE014F515F4F60E173E0F801828D51
:1016F000938D0E94C827D8015A968D919C915B9733
:101700000E94F62720EE30E0AE014F5F5F4F60E8A9
:1017100073E0F801828D938D0E94C827D8015A96F4
:101720008D919C915B970E94F627F801878588230D
:1017300089F185858130D9F018F0823061F021C0BF
:101740002EE030E045E751E261E070E0828D938D5C
:101750000E94C82716C02EE030E049E551E261E062
:1017600070E0F801828D938D0E94C8270AC02EE098
:1017700030E047E651E261E070E0828D938D0E9497
:10178000C827F801828D938D0E94F627D8011F96F5
:101790001C92D6C1F8018585813009F435C120F04D
:1017A000823009F499C0C7C1E5E7F1E282819381F3
:1017B00040815181489F9001499F300D589F300DC5
:1017C0001124ADECBCEC0E9482287C01F694E794D5
:1017D000F694E794F694E794EB86FC8684819581F1
:1017E00042855385489F9001499F300D589F300D89
:1017F00011243695279536952795ABE7B4E10E94DD
:101800008228969587958F839887848195814281D8
:101810005381489F9001499F300D589F300D1124EE
:10182000369527953695279536952795A5ECB0E200
:101830000E948228929582958F7089279F708927B0
:1018400089879A87608171818AE698E10E9447289A
:10185000AB01440F551F660F771F660F771F660F8A
:10186000771F460F571FD80150964D935C935197A1
:101870009A013695279536952795ABE7B4E10E94F6
:101880008228969587958E9D90018F9D300D9E9D07
:10189000300D1124421B530BD80152964D935C938B
:1018A00053975496ED92FC92559784819581569664
:1018B0008D939C9357978D858093542126E030E03B
:1018C000AE01495F5F4F64E070E05A968D919C9144
:1018D0005B970E94C8272FC1E9E5F1E282819381DD
:1018E00040815181489F9001499F300D589F300D94
:1018F0001124ADECBCEC0E9482287C01F694E794A4
:10190000F694E794F694E794EB86FC8684819581BF
:1019100042855385489F9001499F300D589F300D57
:1019200011243695279536952795ABE7B4E10E94AB
:101930008228969587958F839887848195814281A7
:101940005381489F9001499F300D589F300D1124BD
:10195000369527953695279536952795A5ECB0E2CF
:101960000E948228929582958F7089279F7089277F
:1019700089879A87608171818AE698E10E94472869
:10198000AB01440F551F660F771F660F771F660F59
:10199000771F460F571FD80150964D935C93519770
:1019A0009A013695279536952795ABE7B4E10E94C5
:1019B0008228969587958E9D90018F9D300D9E9DD6
:1019C000300D1124421B530BD80152964D935C935A
:1019D00053975496ED92FC92559784819581569633
:1019E0008D939C9357978D858093542126E030E00A
:1019F000AE01495F5F4F64E070E05A968D919C9113
:101A00005B970E94C82797C0E7E6F1E28281938145
:101A100040815181489F9001499F300D589F300D62
:101A20001124ADECBCEC0E9482287C01F694E79472
:101A3000F694E794F694E794EB86FC86848195818E
:101A400042855385489F9001499F300D589F300D26
:101A500011243695279536952795ABE7B4E10E947A
:101A60008228969587958F83988784819581428176
:101A70005381489F9001499F300D589F300D11248C
:101A8000369527953695279536952795A5ECB0E29E
:101A90000E948228929582958F7089279F7089274E
:101AA00089879A87608171818AE698E10E94472838
:101AB000AB01440F551F660F771F660F771F660F28
:101AC000771F460F571FD80150964D935C9351973F
:101AD0009A013695279536952795ABE7B4E10E9494
:101AE0008228969587958E9D90018F9D300D9E9DA5
:101AF000300D1124421B530BD80152964D935C9329
:101B000053975496ED92FC92559784819581569601
:101B10008D939C9357978D858093542126E030E0D8
:101B2000AE01495F5F4F64E070E05A968D919C91E1
:101B30005B970E94C827F801828D938D0E94F6273B
:101B4000CE53DC4FCDBFDEBFDF91CF911F910F9100
:101B5000FF90EF90089508950895E0E0FAE0108274
:101B600087E88183138284E294EF86A397A382E1BE
:101B70009AE786A797A7168217820895E0E4FAE00D
:101B800010821182138284E294EF86A397A31682B7
:101B9000178208950F931F93CF938A01C22F9B0141
:101BA00040E050E064E274EF80E090E00E945B2847
:101BB000B80176956795EEE3E09FC001E19F900D37
:101BC0001124860F971FCF5FB90102C076956795E4
:101BD000CA95E2F7E0E0FAE066A777A726A337A365
:101BE000A0E4BAE096968D939C93979786E08083C5
:101BF00087E08C93CF911F910F910895E0E4FAE074
:101C0000848580FFFDCFE0E4FAE0848581708487DD
:101C1000A0E0BAE01C92108210A211A290961D9230
:101C20001C9291972FEF83EF91E0215080409040DC
:101C3000E1F700C000000895CF93DF93EC0123E0AB
:101C40000E94CA0DCE010E94FE0DDF91CF91089532
:101C5000CF93DF93EC010E94AD0DCE010E94BE0D2B
:101C6000DF91CF910895CF93DF93EC01F89444EF87
:101C700051E068EB71E00E941C0E44EF51E068EB0C
:101C800071E0CE010E941C0E44EF51E068EB71E060
:101C9000CE010E941C0E4EE551E06DE571E0CE01D3
:101CA0000E941C0E46E950E06BE072E0CE010E94FB
:101CB0001C0E44EF51E068EB71E0CE010E941C0E57
:101CC0004EE551E06DE571E0CE010E941C0E46E943
:101CD00050E06BE072E0CE010E941C0E4AE852E038
:101CE00068EB71E0CE010E941C0E2FEF85EA9EE0AA
:101CF000215080409040E1F700C000007894DF91CF
:101D0000CF910895FC014283E0E0F8E08081807F7C
:101D10008083138210A211A210A611A612A613A6E8
:101D200014A615A616A617A616A217A28181887F4B
:101D3000682B6183168217820895E0E0F8E066A3BD
:101D400077A32081207FDC0112969C91822F892B22
:101D500080830895E0E0F8E08081807F808310A296
:101D600011A20895E0E0F8E081818F70682B618313
:101D70000895E0E0F8E0818160956823618308952B
:101D8000609326087093270808956093280870933D
:101D90002908089560932A0870932B08089560938A
:101DA0002C0870932D08089560932E0870932F08C7
:101DB00008956115710531F0E0E0F8E086818370E7
:101DC000282B26836093A5217093A62140939B2204
:101DD00050939C2208956115710531F0E0E0F8E020
:101DE00086818C70282B26836093A7217093A8216D
:101DF00040939D2250939E2208956115710531F004
:101E0000E0E0F8E087818370282B27836093A92185
:101E10007093AA2140939F225093A02208956115A8
:101E2000710531F0E0E0F8E087818C70282B278382
:101E30006093AB217093AC214093A1225093A222D6
:101E400008956115710531F0E0E0F8E08781807355
:101E5000282B27836093AD217093AE214093A3225A
:101E60005093A42208956115710531F0E0E0F8E087
:101E70008781807C282B27836093AF217093B021CA
:101E80004093A5225093A6220895CF93DF93EC01AF
:101E90000E94C1108AEB90E288839983DF91CF91F1
:101EA00008952AEB30E2FC01208331830E94C710A1
:101EB0000895FC014283E0E0FBE08081807F808325
:101EC000138210A211A210A611A612A613A614A680
:101ED00015A616A617A616A217A28181887F682BC1
:101EE0006183168217820895E0E0FBE066A377A382
:101EF0002081207FDC0112969C91822F892B808388
:101F00000895E0E0FBE08081807F808310A211A231
:101F10000895E0E0FBE08181682B61830895E0E0B3
:101F2000FBE081816095682361830895E0E0FBE038
:101F3000828162956F70682B62830895E0E0FBE018
:101F4000828162956F7060956823628308956093C3
:101F5000260B7093270B08956093280B7093290B21
:101F6000089560932A0B70932B0B089560932C0BAC
:101F700070932D0B089560932E0B70932F0B089583
:101F80006115710531F0E0E0FBE086818370282B5C
:101F9000268360936122709362224093572350936B
:101FA000582308956115710531F0E0E0FBE086816A
:101FB0008C70282B26836093632270936422409355
:101FC000592350935A2308956115710531F0E0E0CB
:101FD000FBE087818370282B2783609365227093B1
:101FE000662240935B2350935C230895611571052D
:101FF00031F0E0E0FBE087818C70282B2783609331
:1020000067227093682240935D2350935E23089566
:102010006115710531F0E0E0FBE087818073282BCA
:1020200027836093692270936A2240935F235093C1
:10203000602308956115710531F0E0E0FBE08781D0
:10204000807C282B278360936B2270936C224093B3
:102050006123509362230895CF93DF93EC010E9494
:10206000C1108EED90E288839983DF91CF9108951E
:102070002EED30E2FC01208331830E94C7100895C9
:1020800008950895EF920F931F93CF93DF93EC0180
:10209000E0E8F6E080EB818390E4928390EC948B0F
:1020A000958B968B978B8583611102C080E401C06C
:1020B00080E5011102C030E001C030E8411102C0EA
:1020C00090E001C090E2220F220FE22AE82AE32AE0
:1020D000E92A00EC1AE0F801E08280E091E00E9439
:1020E000B3288883998381E0F80181838EEB90E1A6
:1020F0008093FB219093FC21C093F122D093F22294
:10210000DF91CF911F910F91EF900895CF93DF93BF
:10211000EC014A835B834C835D83888199810E94B3
:10212000E02980E180938606888199814A815B81DC
:102130009A01215031092A833B83FC01E20FF31FEE
:1021400080818093C30ADF91CF910895FC01828141
:102150009381892B79F04081518122813381C9019A
:10216000019782839383FA01E80FF91F808180939E
:10217000C30A089580E18093850608950E94A61001
:10218000089526E031E2FC0120833183089508950B
:102190002AE231E2FC0120833183089508951F92E1
:1021A0000F920FB60F9211240BB60F922F933F93FD
:1021B0004F935F936F937F938F939F93AF93BF934F
:1021C000EF93FF93E0918B21F0918C21309729F0D0
:1021D00080918122909182221995FF91EF91BF9178
:1021E000AF919F918F917F916F915F914F913F91AF
:1021F0002F910F900BBE0F900FBE0F901F90189550
:102200001F920F920FB60F9211240BB60F922F93BD
:102210003F934F935F936F937F938F939F93AF936E
:10222000BF93EF93FF93E0918D21F0918E21309732
:1022300029F080918322909184221995FF91EF914A
:10224000BF91AF919F918F917F916F915F914F91CE
:102250003F912F910F900BBE0F900FBE0F901F90CC
:1022600018951F920F920FB60F9211240BB60F9272
:102270002F933F934F935F936F937F938F939F938E
:10228000AF93BF93EF93FF93E0918F21F091902153
:10229000309729F080918522909186221995FF919F
:1022A000EF91BF91AF919F918F917F916F915F91CE
:1022B0004F913F912F910F900BBE0F900FBE0F903B
:1022C0001F9018951F920F920FB60F9211240BB604
:1022D0000F922F933F934F935F936F937F938F93BF
:1022E0009F93AF93BF93EF93FF93E0919121F09170
:1022F0009221309729F08091872290918822199518
:10230000FF91EF91BF91AF919F918F917F916F91CD
:102310005F914F913F912F910F900BBE0F900FBE89
:102320000F901F9018951F920F920FB60F921124C5
:102330000BB60F922F933F934F935F936F937F93BF
:102340008F939F93AF93BF93EF93FF93E09193216C
:10235000F0919421309729F08091892290918A22DE
:102360001995FF91EF91BF91AF919F918F917F91BF
:102370006F915F914F913F912F910F900BBE0F90F6
:102380000FBE0F901F9018951F920F920FB60F92CD
:1023900011240BB60F922F933F934F935F936F933C
:1023A0007F938F939F93AF93BF93EF93FF93E091AE
:1023B0009521F0919621309729F080918B22909170
:1023C0008C221995FF91EF91BF91AF919F918F91C1
:1023D0007F916F915F914F913F912F910F900BBE25
:1023E0000F900FBE0F901F9018951F920F920FB66F
:1023F0000F9211240BB60F922F933F934F935F933D
:102400006F937F938F939F93AF93BF93EF93FF93BC
:10241000E0919721F0919821309729F080918D22B9
:1024200090918E221995FF91EF91BF91AF919F915D
:102430008F917F916F915F914F913F912F910F906D
:102440000BBE0F900FBE0F901F9018951F920F920A
:102450000FB60F9211240BB60F922F933F934F9309
:102460005F936F937F938F939F93AF93BF93EF93FC
:10247000FF93E0919921F0919A21309729F0809172
:102480008F22909190221995FF91EF91BF91AF917A
:102490009F918F917F916F915F914F913F912F917C
:1024A0000F900BBE0F900FBE0F901F9018951F92AC
:1024B0000F920FB60F9211240BB60F922F933F93EA
:1024C0004F935F936F937F938F939F93AF93BF933C
:1024D000EF93FF93E0919B21F0919C21309729F09D
:1024E00080919122909192221995FF91EF91BF9145
:1024F000AF919F918F917F916F915F914F913F919C
:102500002F910F900BBE0F900FBE0F901F9018953C
:102510001F920F920FB60F9211240BB60F922F93AA
:102520003F934F935F936F937F938F939F93AF935B
:10253000BF93EF93FF93E0919D21F0919E213097FF
:1025400029F080919322909194221995FF91EF9117
:10255000BF91AF919F918F917F916F915F914F91BB
:102560003F912F910F900BBE0F900FBE0F901F90B9
:1025700018951F920F920FB60F9211240BB60F925F
:102580002F933F934F935F936F937F938F939F937B
:10259000AF93BF93EF93FF93E0919F21F091A02120
:1025A000309729F080919522909196221995FF916C
:1025B000EF91BF91AF919F918F917F916F915F91BB
:1025C0004F913F912F910F900BBE0F900FBE0F9028
:1025D0001F9018951F920F920FB60F9211240BB6F1
:1025E0000F922F933F934F935F936F937F938F93AC
:1025F0009F93AF93BF93EF93FF93E091A121F0914D
:10260000A221309729F080919722909198221995D4
:10261000FF91EF91BF91AF919F918F917F916F91BA
:102620005F914F913F912F910F900BBE0F900FBE76
:102630000F901F9018951F920F920FB60F921124B2
:102640000BB60F922F933F934F935F936F937F93AC
:102650008F939F93AF93BF93EF93FF93E091A32149
:10266000F091A421309729F08091992290919A229B
:102670001995FF91EF91BF91AF919F918F917F91AC
:102680006F915F914F913F912F910F900BBE0F90E3
:102690000FBE0F901F9018951F920F920FB60F92BA
:1026A00011240BB60F922F933F934F935F936F9329
:1026B0007F938F939F93AF93BF93EF93FF93E0919B
:1026C000A521F091A621309729F080919B2290912D
:1026D0009C221995FF91EF91BF91AF919F918F919E
:1026E0007F916F915F914F913F912F910F900BBE12
:1026F0000F900FBE0F901F9018951F920F920FB65C
:102700000F9211240BB60F922F933F934F935F9329
:102710006F937F938F939F93AF93BF93EF93FF93A9
:10272000E091A721F091A821309729F080919D2276
:1027300090919E221995FF91EF91BF91AF919F913A
:102740008F917F916F915F914F913F912F910F905A
:102750000BBE0F900FBE0F901F9018951F920F92F7
:102760000FB60F9211240BB60F922F933F934F93F6
:102770005F936F937F938F939F93AF93BF93EF93E9
:10278000FF93E091A921F091AA21309729F080913F
:102790009F229091A0221995FF91EF91BF91AF9147
:1027A0009F918F917F916F915F914F913F912F9169
:1027B0000F900BBE0F900FBE0F901F9018951F9299
:1027C0000F920FB60F9211240BB60F922F933F93D7
:1027D0004F935F936F937F938F939F93AF93BF9329
:1027E000EF93FF93E091AB21F091AC21309729F06A
:1027F0008091A1229091A2221995FF91EF91BF9112
:10280000AF919F918F917F916F915F914F913F9188
:102810002F910F900BBE0F900FBE0F901F90189529
:102820001F920F920FB60F9211240BB60F922F9397
:102830003F934F935F936F937F938F939F93AF9348
:10284000BF93EF93FF93E091AD21F091AE213097CC
:1028500029F08091A3229091A4221995FF91EF91E4
:10286000BF91AF919F918F917F916F915F914F91A8
:102870003F912F910F900BBE0F900FBE0F901F90A6
:1028800018951F920F920FB60F9211240BB60F924C
:102890002F933F934F935F936F937F938F939F9368
:1028A000AF93BF93EF93FF93E091AF21F091B021ED
:1028B000309729F08091A5229091A6221995FF9139
:1028C000EF91BF91AF919F918F917F916F915F91A8
:1028D0004F913F912F910F900BBE0F900FBE0F9015
:1028E0001F9018951F920F920FB60F9211240BB6DE
:1028F0000F922F933F934F935F936F937F938F9399
:102900009F93AF93BF93EF93FF93E091B121F09129
:10291000B221309729F08091A7229091A822199591
:10292000FF91EF91BF91AF919F918F917F916F91A7
:102930005F914F913F912F910F900BBE0F900FBE63
:102940000F901F9018951F920F920FB60F9211249F
:102950000BB60F922F933F934F935F936F937F9399
:102960008F939F93AF93BF93EF93FF93E091B32126
:10297000F091B421309729F08091A9229091AA2258
:102980001995FF91EF91BF91AF919F918F917F9199
:102990006F915F914F913F912F910F900BBE0F90D0
:1029A0000FBE0F901F9018951F920F920FB60F92A7
:1029B00011240BB60F922F933F934F935F936F9316
:1029C0007F938F939F93AF93BF93EF93FF93E09188
:1029D000B521F091B621309729F08091AB229091EA
:1029E000AC221995FF91EF91BF91AF919F918F917B
:1029F0007F916F915F914F913F912F910F900BBEFF
:102A00000F900FBE0F901F9018951F920F920FB648
:102A10000F9211240BB60F922F933F934F935F9316
:102A20006F937F938F939F93AF93BF93EF93FF9396
:102A3000E091B721F091B821309729F08091AD2233
:102A40009091AE221995FF91EF91BF91AF919F9117
:102A50008F917F916F915F914F913F912F910F9047
:102A60000BBE0F900FBE0F901F9018951F920F92E4
:102A70000FB60F9211240BB60F922F933F934F93E3
:102A80005F936F937F938F939F93AF93BF93EF93D6
:102A9000FF93E091B921F091BA21309729F080910C
:102AA000AF229091B0221995FF91EF91BF91AF9114
:102AB0009F918F917F916F915F914F913F912F9156
:102AC0000F900BBE0F900FBE0F901F9018951F9286
:102AD0000F920FB60F9211240BB60F922F933F93C4
:102AE0004F935F936F937F938F939F93AF93BF9316
:102AF000EF93FF93E091BB21F091BC21309729F037
:102B00008091B1229091B2221995FF91EF91BF91DE
:102B1000AF919F918F917F916F915F914F913F9175
:102B20002F910F900BBE0F900FBE0F901F90189516
:102B30001F920F920FB60F9211240BB60F922F9384
:102B40003F934F935F936F937F938F939F93AF9335
:102B5000BF93EF93FF93E091BD21F091BE21309799
:102B600029F08091B3229091B4221995FF91EF91B1
:102B7000BF91AF919F918F917F916F915F914F9195
:102B80003F912F910F900BBE0F900FBE0F901F9093
:102B900018951F920F920FB60F9211240BB60F9239
:102BA0002F933F934F935F936F937F938F939F9355
:102BB000AF93BF93EF93FF93E091BF21F091C021BA
:102BC000309729F08091B5229091B6221995FF9106
:102BD000EF91BF91AF919F918F917F916F915F9195
:102BE0004F913F912F910F900BBE0F900FBE0F9002
:102BF0001F9018951F920F920FB60F9211240BB6CB
:102C00000F922F933F934F935F936F937F938F9385
:102C10009F93AF93BF93EF93FF93E091C121F09106
:102C2000C221309729F08091B7229091B82219954E
:102C3000FF91EF91BF91AF919F918F917F916F9194
:102C40005F914F913F912F910F900BBE0F900FBE50
:102C50000F901F9018951F920F920FB60F9211248C
:102C60000BB60F922F933F934F935F936F937F9386
:102C70008F939F93AF93BF93EF93FF93E091C32103
:102C8000F091C421309729F08091B9229091BA2215
:102C90001995FF91EF91BF91AF919F918F917F9186
:102CA0006F915F914F913F912F910F900BBE0F90BD
:102CB0000FBE0F901F9018951F920F920FB60F9294
:102CC00011240BB60F922F933F934F935F936F9303
:102CD0007F938F939F93AF93BF93EF93FF93E09175
:102CE000C521F091C621309729F08091BB229091A7
:102CF000BC221995FF91EF91BF91AF919F918F9158
:102D00007F916F915F914F913F912F910F900BBEEB
:102D10000F900FBE0F901F9018951F920F920FB635
:102D20000F9211240BB60F922F933F934F935F9303
:102D30006F937F938F939F93AF93BF93EF93FF9383
:102D4000E091C721F091C821309729F08091BD22F0
:102D50009091BE221995FF91EF91BF91AF919F91F4
:102D60008F917F916F915F914F913F912F910F9034
:102D70000BBE0F900FBE0F901F9018951F920F92D1
:102D80000FB60F9211240BB60F922F933F934F93D0
:102D90005F936F937F938F939F93AF93BF93EF93C3
:102DA000FF93E091C921F091CA21309729F08091D9
:102DB000BF229091C0221995FF91EF91BF91AF91E1
:102DC0009F918F917F916F915F914F913F912F9143
:102DD0000F900BBE0F900FBE0F901F9018951F9273
:102DE0000F920FB60F9211240BB60F922F933F93B1
:102DF0004F935F936F937F938F939F93AF93BF9303
:102E0000EF93FF93E091CB21F091CC21309729F003
:102E10008091C1229091C2221995FF91EF91BF91AB
:102E2000AF919F918F917F916F915F914F913F9162
:102E30002F910F900BBE0F900FBE0F901F90189503
:102E40001F920F920FB60F9211240BB60F922F9371
:102E50003F934F935F936F937F938F939F93AF9322
:102E6000BF93EF93FF93E091CD21F091CE21309766
:102E700029F08091C3229091C4221995FF91EF917E
:102E8000BF91AF919F918F917F916F915F914F9182
:102E90003F912F910F900BBE0F900FBE0F901F9080
:102EA00018951F920F920FB60F9211240BB60F9226
:102EB0002F933F934F935F936F937F938F939F9342
:102EC000AF93BF93EF93FF93E091CF21F091D02187
:102ED000309729F08091C5229091C6221995FF91D3
:102EE000EF91BF91AF919F918F917F916F915F9182
:102EF0004F913F912F910F900BBE0F900FBE0F90EF
:102F00001F9018951F920F920FB60F9211240BB6B7
:102F10000F922F933F934F935F936F937F938F9372
:102F20009F93AF93BF93EF93FF93E091D121F091E3
:102F3000D221309729F08091C7229091C82219950B
:102F4000FF91EF91BF91AF919F918F917F916F9181
:102F50005F914F913F912F910F900BBE0F900FBE3D
:102F60000F901F9018951F920F920FB60F92112479
:102F70000BB60F922F933F934F935F936F937F9373
:102F80008F939F93AF93BF93EF93FF93E091D321E0
:102F9000F091D421309729F08091C9229091CA22D2
:102FA0001995FF91EF91BF91AF919F918F917F9173
:102FB0006F915F914F913F912F910F900BBE0F90AA
:102FC0000FBE0F901F9018951F920F920FB60F9281
:102FD00011240BB60F922F933F934F935F936F93F0
:102FE0007F938F939F93AF93BF93EF93FF93E09162
:102FF000D521F091D621309729F08091CB22909164
:10300000CC221995FF91EF91BF91AF919F918F9134
:103010007F916F915F914F913F912F910F900BBED8
:103020000F900FBE0F901F9018951F920F920FB622
:103030000F9211240BB60F922F933F934F935F93F0
:103040006F937F938F939F93AF93BF93EF93FF9370
:10305000E091D721F091D821309729F08091CD22AD
:103060009091CE221995FF91EF91BF91AF919F91D1
:103070008F917F916F915F914F913F912F910F9021
:103080000BBE0F900FBE0F901F9018951F920F92BE
:103090000FB60F9211240BB60F922F933F934F93BD
:1030A0005F936F937F938F939F93AF93BF93EF93B0
:1030B000FF93E091D921F091DA21309729F08091A6
:1030C000CF229091D0221995FF91EF91BF91AF91AE
:1030D0009F918F917F916F915F914F913F912F9130
:1030E0000F900BBE0F900FBE0F901F9018951F9260
:1030F0000F920FB60F9211240BB60F922F933F939E
:103100004F935F936F937F938F939F93AF93BF93EF
:10311000EF93FF93E091DB21F091DC21309729F0D0
:103120008091D1229091D2221995FF91EF91BF9178
:10313000AF919F918F917F916F915F914F913F914F
:103140002F910F900BBE0F900FBE0F901F901895F0
:103150001F920F920FB60F9211240BB60F922F935E
:103160003F934F935F936F937F938F939F93AF930F
:10317000BF93EF93FF93E091DD21F091DE21309733
:1031800029F08091D3229091D4221995FF91EF914B
:10319000BF91AF919F918F917F916F915F914F916F
:1031A0003F912F910F900BBE0F900FBE0F901F906D
:1031B00018951F920F920FB60F9211240BB60F9213
:1031C0002F933F934F935F936F937F938F939F932F
:1031D000AF93BF93EF93FF93E091DF21F091E02154
:1031E000309729F08091D5229091D6221995FF91A0
:1031F000EF91BF91AF919F918F917F916F915F916F
:103200004F913F912F910F900BBE0F900FBE0F90DB
:103210001F9018951F920F920FB60F9211240BB6A4
:103220000F922F933F934F935F936F937F938F935F
:103230009F93AF93BF93EF93FF93E091E121F091C0
:10324000E221309729F08091D7229091D8221995C8
:10325000FF91EF91BF91AF919F918F917F916F916E
:103260005F914F913F912F910F900BBE0F900FBE2A
:103270000F901F9018951F920F920FB60F92112466
:103280000BB60F922F933F934F935F936F937F9360
:103290008F939F93AF93BF93EF93FF93E091E321BD
:1032A000F091E421309729F08091D9229091DA228F
:1032B0001995FF91EF91BF91AF919F918F917F9160
:1032C0006F915F914F913F912F910F900BBE0F9097
:1032D0000FBE0F901F9018951F920F920FB60F926E
:1032E00011240BB60F922F933F934F935F936F93DD
:1032F0007F938F939F93AF93BF93EF93FF93E0914F
:10330000E521F091E621309729F08091DB22909120
:10331000DC221995FF91EF91BF91AF919F918F9111
:103320007F916F915F914F913F912F910F900BBEC5
:103330000F900FBE0F901F9018951F920F920FB60F
:103340000F9211240BB60F922F933F934F935F93DD
:103350006F937F938F939F93AF93BF93EF93FF935D
:10336000E091E721F091E821309729F08091DD226A
:103370009091DE221995FF91EF91BF91AF919F91AE
:103380008F917F916F915F914F913F912F910F900E
:103390000BBE0F900FBE0F901F9018951F920F92AB
:1033A0000FB60F9211240BB60F922F933F934F93AA
:1033B0005F936F937F938F939F93AF93BF93EF939D
:1033C000FF93E091E921F091EA21309729F0809173
:1033D000DF229091E0221995FF91EF91BF91AF917B
:1033E0009F918F917F916F915F914F913F912F911D
:1033F0000F900BBE0F900FBE0F901F9018951F924D
:103400000F920FB60F9211240BB60F922F933F938A
:103410004F935F936F937F938F939F93AF93BF93DC
:10342000EF93FF93E091EB21F091EC21309729F09D
:103430008091E1229091E2221995FF91EF91BF9145
:10344000AF919F918F917F916F915F914F913F913C
:103450002F910F900BBE0F900FBE0F901F901895DD
:103460001F920F920FB60F9211240BB60F922F934B
:103470003F934F935F936F937F938F939F93AF93FC
:10348000BF93EF93FF93E091ED21F091EE21309700
:1034900029F08091E3229091E4221995FF91EF9118
:1034A000BF91AF919F918F917F916F915F914F915C
:1034B0003F912F910F900BBE0F900FBE0F901F905A
:1034C00018951F920F920FB60F9211240BB60F9200
:1034D0002F933F934F935F936F937F938F939F931C
:1034E000AF93BF93EF93FF93E091EF21F091F02121
:1034F000309729F08091E5229091E6221995FF916D
:10350000EF91BF91AF919F918F917F916F915F915B
:103510004F913F912F910F900BBE0F900FBE0F90C8
:103520001F9018951F920F920FB60F9211240BB691
:103530000F922F933F934F935F936F937F938F934C
:103540009F93AF93BF93EF93FF93E091F121F0919D
:10355000F221309729F08091E7229091E822199585
:10356000FF91EF91BF91AF919F918F917F916F915B
:103570005F914F913F912F910F900BBE0F900FBE17
:103580000F901F9018951F920F920FB60F92112453
:103590000BB60F922F933F934F935F936F937F934D
:1035A0008F939F93AF93BF93EF93FF93E091F3219A
:1035B000F091F421309729F08091E9229091EA224C
:1035C0001995FF91EF91BF91AF919F918F917F914D
:1035D0006F915F914F913F912F910F900BBE0F9084
:1035E0000FBE0F901F9018951F920F920FB60F925B
:1035F00011240BB60F922F933F934F935F936F93CA
:103600007F938F939F93AF93BF93EF93FF93E0913B
:10361000F521F091F621309729F08091EB229091DD
:10362000EC221995FF91EF91BF91AF919F918F91EE
:103630007F916F915F914F913F912F910F900BBEB2
:103640000F900FBE0F901F9018951F920F920FB6FC
:103650000F9211240BB60F922F933F934F935F93CA
:103660006F937F938F939F93AF93BF93EF93FF934A
:10367000E091F721F091F821309729F08091ED2227
:103680009091EE221995FF91EF91BF91AF919F918B
:103690008F917F916F915F914F913F912F910F90FB
:1036A0000BBE0F900FBE0F901F9018951F920F9298
:1036B0000FB60F9211240BB60F922F933F934F9397
:1036C0005F936F937F938F939F93AF93BF93EF938A
:1036D000FF93E091F921F091FA21309729F0809140
:1036E000EF229091F0221995FF91EF91BF91AF9148
:1036F0009F918F917F916F915F914F913F912F910A
:103700000F900BBE0F900FBE0F901F9018951F9239
:103710000F920FB60F9211240BB60F922F933F9377
:103720004F935F936F937F938F939F93AF93BF93C9
:10373000EF93FF93E091FB21F091FC21309729F06A
:103740008091F1229091F2221995FF91EF91BF9112
:10375000AF919F918F917F916F915F914F913F9129
:103760002F910F900BBE0F900FBE0F901F901895CA
:103770001F920F920FB60F9211240BB60F922F9338
:103780003F934F935F936F937F938F939F93AF93E9
:10379000BF93EF93FF93E091FD21F091FE213097CD
:1037A00029F08091F3229091F4221995FF91EF91E5
:1037B000BF91AF919F918F917F916F915F914F9149
:1037C0003F912F910F900BBE0F900FBE0F901F9047
:1037D00018951F920F920FB60F9211240BB60F92ED
:1037E0002F933F934F935F936F937F938F939F9309
:1037F000AF93BF93EF93FF93E091FF21F0910022ED
:10380000309729F08091F5229091F6221995FF9139
:10381000EF91BF91AF919F918F917F916F915F9148
:103820004F913F912F910F900BBE0F900FBE0F90B5
:103830001F9018951F920F920FB60F9211240BB67E
:103840000F922F933F934F935F936F937F938F9339
:103850009F93AF93BF93EF93FF93E0910122F09179
:103860000222309729F08091F7229091F822199541
:10387000FF91EF91BF91AF919F918F917F916F9148
:103880005F914F913F912F910F900BBE0F900FBE04
:103890000F901F9018951F920F920FB60F92112440
:1038A0000BB60F922F933F934F935F936F937F933A
:1038B0008F939F93AF93BF93EF93FF93E091032276
:1038C000F0910422309729F08091F9229091FA2208
:1038D0001995FF91EF91BF91AF919F918F917F913A
:1038E0006F915F914F913F912F910F900BBE0F9071
:1038F0000FBE0F901F9018951F920F920FB60F9248
:1039000011240BB60F922F933F934F935F936F93B6
:103910007F938F939F93AF93BF93EF93FF93E09128
:103920000522F0910622309729F08091FB22909198
:10393000FC221995FF91EF91BF91AF919F918F91CB
:103940007F916F915F914F913F912F910F900BBE9F
:103950000F900FBE0F901F9018951F920F920FB6E9
:103960000F9211240BB60F922F933F934F935F93B7
:103970006F937F938F939F93AF93BF93EF93FF9337
:10398000E0910722F0910822309729F08091FD22E2
:103990009091FE221995FF91EF91BF91AF919F9168
:1039A0008F917F916F915F914F913F912F910F90E8
:1039B0000BBE0F900FBE0F901F9018951F920F9285
:1039C0000FB60F9211240BB60F922F933F934F9384
:1039D0005F936F937F938F939F93AF93BF93EF9377
:1039E000FF93E0910922F0910A22309729F080910B
:1039F000FF22909100231995FF91EF91BF91AF9114
:103A00009F918F917F916F915F914F913F912F91F6
:103A10000F900BBE0F900FBE0F901F9018951F9226
:103A20000F920FB60F9211240BB60F922F933F9364
:103A30004F935F936F937F938F939F93AF93BF93B6
:103A4000EF93FF93E0910B22F0910C22309729F035
:103A500080910123909102231995FF91EF91BF91DD
:103A6000AF919F918F917F916F915F914F913F9116
:103A70002F910F900BBE0F900FBE0F901F901895B7
:103A80001F920F920FB60F9211240BB60F922F9325
:103A90003F934F935F936F937F938F939F93AF93D6
:103AA000BF93EF93FF93E0910D22F0910E22309798
:103AB00029F080910323909104231995FF91EF91B0
:103AC000BF91AF919F918F917F916F915F914F9136
:103AD0003F912F910F900BBE0F900FBE0F901F9034
:103AE00018951F920F920FB60F9211240BB60F92DA
:103AF0002F933F934F935F936F937F938F939F93F6
:103B0000AF93BF93EF93FF93E0910F22F0911022B8
:103B1000309729F080910523909106231995FF9104
:103B2000EF91BF91AF919F918F917F916F915F9135
:103B30004F913F912F910F900BBE0F900FBE0F90A2
:103B40001F9018951F920F920FB60F9211240BB66B
:103B50000F922F933F934F935F936F937F938F9326
:103B60009F93AF93BF93EF93FF93E0911122F09156
:103B70001222309729F080910723909108231995FC
:103B8000FF91EF91BF91AF919F918F917F916F9135
:103B90005F914F913F912F910F900BBE0F900FBEF1
:103BA0000F901F9018951F920F920FB60F9211242D
:103BB0000BB60F922F933F934F935F936F937F9327
:103BC0008F939F93AF93BF93EF93FF93E091132253
:103BD000F0911422309729F08091092390910A23C3
:103BE0001995FF91EF91BF91AF919F918F917F9127
:103BF0006F915F914F913F912F910F900BBE0F905E
:103C00000FBE0F901F9018951F920F920FB60F9234
:103C100011240BB60F922F933F934F935F936F93A3
:103C20007F938F939F93AF93BF93EF93FF93E09115
:103C30001522F0911622309729F080910B23909154
:103C40000C231995FF91EF91BF91AF919F918F91A7
:103C50007F916F915F914F913F912F910F900BBE8C
:103C60000F900FBE0F901F9018951F920F920FB6D6
:103C70000F9211240BB60F922F933F934F935F93A4
:103C80006F937F938F939F93AF93BF93EF93FF9324
:103C9000E0911722F0911822309729F080910D239E
:103CA00090910E231995FF91EF91BF91AF919F9144
:103CB0008F917F916F915F914F913F912F910F90D5
:103CC0000BBE0F900FBE0F901F9018951F920F9272
:103CD0000FB60F9211240BB60F922F933F934F9371
:103CE0005F936F937F938F939F93AF93BF93EF9364
:103CF000FF93E0911922F0911A22309729F08091D8
:103D00000F23909110231995FF91EF91BF91AF91DF
:103D10009F918F917F916F915F914F913F912F91E3
:103D20000F900BBE0F900FBE0F901F9018951F9213
:103D30000F920FB60F9211240BB60F922F933F9351
:103D40004F935F936F937F938F939F93AF93BF93A3
:103D5000EF93FF93E0911B22F0911C22309729F002
:103D600080911123909112231995FF91EF91BF91AA
:103D7000AF919F918F917F916F915F914F913F9103
:103D80002F910F900BBE0F900FBE0F901F901895A4
:103D90001F920F920FB60F9211240BB60F922F9312
:103DA0003F934F935F936F937F938F939F93AF93C3
:103DB000BF93EF93FF93E0911D22F0911E22309765
:103DC00029F080911323909114231995FF91EF917D
:103DD000BF91AF919F918F917F916F915F914F9123
:103DE0003F912F910F900BBE0F900FBE0F901F9021
:103DF00018951F920F920FB60F9211240BB60F92C7
:103E00002F933F934F935F936F937F938F939F93E2
:103E1000AF93BF93EF93FF93E0912322F09124227D
:103E2000309729F08091192390911A231995FF91C9
:103E3000EF91BF91AF919F918F917F916F915F9122
:103E40004F913F912F910F900BBE0F900FBE0F908F
:103E50001F9018951F920F920FB60F9211240BB658
:103E60000F922F933F934F935F936F937F938F9313
:103E70009F93AF93BF93EF93FF93E0912522F0912F
:103E80002622309729F080911B2390911C231995AD
:103E9000FF91EF91BF91AF919F918F917F916F9122
:103EA0005F914F913F912F910F900BBE0F900FBEDE
:103EB0000F901F9018951F920F920FB60F9211241A
:103EC0000BB60F922F933F934F935F936F937F9314
:103ED0008F939F93AF93BF93EF93FF93E09127222C
:103EE000F0912822309729F080911D2390911E2374
:103EF0001995FF91EF91BF91AF919F918F917F9114
:103F00006F915F914F913F912F910F900BBE0F904A
:103F10000FBE0F901F9018951F920F920FB60F9221
:103F200011240BB60F922F933F934F935F936F9390
:103F30007F938F939F93AF93BF93EF93FF93E09102
:103F40002922F0912A22309729F080911F23909105
:103F500020231995FF91EF91BF91AF919F918F9180
:103F60007F916F915F914F913F912F910F900BBE79
:103F70000F900FBE0F901F9018951F920F920FB6C3
:103F80000F9211240BB60F922F933F934F935F9391
:103F90006F937F938F939F93AF93BF93EF93FF9311
:103FA000E0912B22F0912C22309729F0809121234F
:103FB000909122231995FF91EF91BF91AF919F911D
:103FC0008F917F916F915F914F913F912F910F90C2
:103FD0000BBE0F900FBE0F901F9018951F920F925F
:103FE0000FB60F9211240BB60F922F933F934F935E
:103FF0005F936F937F938F939F93AF93BF93EF9351
:10400000FF93E0912D22F0912E22309729F080919C
:104010002323909124231995FF91EF91BF91AF91A4
:104020009F918F917F916F915F914F913F912F91D0
:104030000F900BBE0F900FBE0F901F9018951F9200
:104040000F920FB60F9211240BB60F922F933F933E
:104050004F935F936F937F938F939F93AF93BF9390
:10406000EF93FF93E0912F22F0913022309729F0C7
:1040700080912523909126231995FF91EF91BF916F
:10408000AF919F918F917F916F915F914F913F91F0
:104090002F910F900BBE0F900FBE0F901F90189591
:1040A0001F920F920FB60F9211240BB60F922F93FF
:1040B0003F934F935F936F937F938F939F93AF93B0
:1040C000BF93EF93FF93E0913122F091322230972A
:1040D00029F080912723909128231995FF91EF9142
:1040E000BF91AF919F918F917F916F915F914F9110
:1040F0003F912F910F900BBE0F900FBE0F901F900E
:1041000018951F920F920FB60F9211240BB60F92B3
:104110002F933F934F935F936F937F938F939F93CF
:10412000AF93BF93EF93FF93E0913322F09134224A
:10413000309729F08091292390912A231995FF9196
:10414000EF91BF91AF919F918F917F916F915F910F
:104150004F913F912F910F900BBE0F900FBE0F907C
:104160001F9018951F920F920FB60F9211240BB645
:104170000F922F933F934F935F936F937F938F9300
:104180009F93AF93BF93EF93FF93E0913522F0910C
:104190003622309729F080912B2390912C2319956A
:1041A000FF91EF91BF91AF919F918F917F916F910F
:1041B0005F914F913F912F910F900BBE0F900FBECB
:1041C0000F901F9018951F920F920FB60F92112407
:1041D0000BB60F922F933F934F935F936F937F9301
:1041E0008F939F93AF93BF93EF93FF93E091372209
:1041F000F0913822309729F080912D2390912E2331
:104200001995FF91EF91BF91AF919F918F917F9100
:104210006F915F914F913F912F910F900BBE0F9037
:104220000FBE0F901F9018951F920F920FB60F920E
:1042300011240BB60F922F933F934F935F936F937D
:104240007F938F939F93AF93BF93EF93FF93E091EF
:104250003922F0913A22309729F080912F239091C2
:1042600030231995FF91EF91BF91AF919F918F915D
:104270007F916F915F914F913F912F910F900BBE66
:104280000F900FBE0F901F9018951F920F920FB6B0
:104290000F9211240BB60F922F933F934F935F937E
:1042A0006F937F938F939F93AF93BF93EF93FF93FE
:1042B000E0913B22F0913C22309729F0809131230C
:1042C000909132231995FF91EF91BF91AF919F91FA
:1042D0008F917F916F915F914F913F912F910F90AF
:1042E0000BBE0F900FBE0F901F9018951F920F924C
:1042F0000FB60F9211240BB60F922F933F934F934B
:104300005F936F937F938F939F93AF93BF93EF933D
:10431000FF93E0913D22F0913E22309729F0809169
:104320003323909134231995FF91EF91BF91AF9171
:104330009F918F917F916F915F914F913F912F91BD
:104340000F900BBE0F900FBE0F901F9018951F92ED
:104350000F920FB60F9211240BB60F922F933F932B
:104360004F935F936F937F938F939F93AF93BF937D
:10437000EF93FF93E0913F22F0914022309729F094
:1043800080913523909136231995FF91EF91BF913C
:10439000AF919F918F917F916F915F914F913F91DD
:1043A0002F910F900BBE0F900FBE0F901F9018957E
:1043B0001F920F920FB60F9211240BB60F922F93EC
:1043C0003F934F935F936F937F938F939F93AF939D
:1043D000BF93EF93FF93E0914122F09142223097F7
:1043E00029F080913723909138231995FF91EF910F
:1043F000BF91AF919F918F917F916F915F914F91FD
:104400003F912F910F900BBE0F900FBE0F901F90FA
:1044100018951F920F920FB60F9211240BB60F92A0
:104420002F933F934F935F936F937F938F939F93BC
:10443000AF93BF93EF93FF93E0914322F091442217
:10444000309729F08091392390913A231995FF9163
:10445000EF91BF91AF919F918F917F916F915F91FC
:104460004F913F912F910F900BBE0F900FBE0F9069
:104470001F9018951F920F920FB60F9211240BB632
:104480000F922F933F934F935F936F937F938F93ED
:104490009F93AF93BF93EF93FF93E0915922F091D5
:1044A0005A22309729F080914F23909150231995EB
:1044B000FF91EF91BF91AF919F918F917F916F91FC
:1044C0005F914F913F912F910F900BBE0F900FBEB8
:1044D0000F901F9018951F920F920FB60F921124F4
:1044E0000BB60F922F933F934F935F936F937F93EE
:1044F0008F939F93AF93BF93EF93FF93E0915B22D2
:10450000F0915C22309729F08091512390915223B1
:104510001995FF91EF91BF91AF919F918F917F91ED
:104520006F915F914F913F912F910F900BBE0F9024
:104530000FBE0F901F9018951F920F920FB60F92FB
:1045400011240BB60F922F933F934F935F936F936A
:104550007F938F939F93AF93BF93EF93FF93E091DC
:104560006122F0916222309729F080915723909137
:1045700058231995FF91EF91BF91AF919F918F9122
:104580007F916F915F914F913F912F910F900BBE53
:104590000F900FBE0F901F9018951F920F920FB69D
:1045A0000F9211240BB60F922F933F934F935F936B
:1045B0006F937F938F939F93AF93BF93EF93FF93EB
:1045C000E0916322F0916422309729F08091592381
:1045D00090915A231995FF91EF91BF91AF919F91BF
:1045E0008F917F916F915F914F913F912F910F909C
:1045F0000BBE0F900FBE0F901F9018951F920F9239
:104600000FB60F9211240BB60F922F933F934F9337
:104610005F936F937F938F939F93AF93BF93EF932A
:10462000FF93E0916522F0916622309729F0809106
:104630005B2390915C231995FF91EF91BF91AF910E
:104640009F918F917F916F915F914F913F912F91AA
:104650000F900BBE0F900FBE0F901F9018951F92DA
:104660000F920FB60F9211240BB60F922F933F9318
:104670004F935F936F937F938F939F93AF93BF936A
:10468000EF93FF93E0916722F0916822309729F031
:1046900080915D2390915E231995FF91EF91BF91D9
:1046A000AF919F918F917F916F915F914F913F91CA
:1046B0002F910F900BBE0F900FBE0F901F9018956B
:1046C0001F920F920FB60F9211240BB60F922F93D9
:1046D0003F934F935F936F937F938F939F93AF938A
:1046E000BF93EF93FF93E0916922F0916A22309794
:1046F00029F080915F23909160231995FF91EF91AC
:10470000BF91AF919F918F917F916F915F914F91E9
:104710003F912F910F900BBE0F900FBE0F901F90E7
:1047200018951F920F920FB60F9211240BB60F928D
:104730002F933F934F935F936F937F938F939F93A9
:10474000AF93BF93EF93FF93E0916B22F0916C22B4
:10475000309729F080916123909162231995FF9100
:10476000EF91BF91AF919F918F917F916F915F91E9
:104770004F913F912F910F900BBE0F900FBE0F9056
:104780001F9018951F920F920FB60F9211240BB61F
:104790000F922F933F934F935F936F937F938F93DA
:1047A0009F93AF93BF93EF93FF93E0917722F091A4
:1047B0007822309729F080916D2390916E2319957E
:1047C000FF91EF91BF91AF919F918F917F916F91E9
:1047D0005F914F913F912F910F900BBE0F900FBEA5
:1047E0000F901F9018951F920F920FB60F921124E1
:1047F0000BB60F922F933F934F935F936F937F93DB
:104800008F939F93AF93BF93EF93FF93E0917922A0
:10481000F0917A22309729F080916F239091702344
:104820001995FF91EF91BF91AF919F918F917F91DA
:104830006F915F914F913F912F910F900BBE0F9011
:104840000FBE0F901F9018951F920F920FB60F92E8
:1048500011240BB60F922F933F934F935F936F9357
:104860007F938F939F93AF93BF93EF93FF93E091C9
:104870007B22F0917C22309729F0809171239091D6
:1048800072231995FF91EF91BF91AF919F918F91F5
:104890007F916F915F914F913F912F910F900BBE40
:1048A0000F900FBE0F901F9018950E949A03FDCF96
:1048B00089EB93E20E94401087EB93E20E94C802CA
:1048C0008EE993E20E94232684E993E20E94DC02AF
:1048D00083E993E20E94AB0D87E793E20E94FC0418
:1048E000089587E793E20E94020583E993E20E941C
:1048F000AC0D84E993E20E94DD028EE993E20E940E
:10490000782687EB93E20E94D40289EB93E20E941F
:1049100041100895EF920F931F93F89484E993E266
:104920000E94DE0283E993E20E94280E0F2EF3E03C
:10493000EF2EF02D00E023E040E061E089EB93E210
:104940000E94421001E020E040E06DE087EB93E23E
:104950000E944C0200E011E020E031E047E753E222
:1049600067EB73E28EE993E20E9429266EE973E217
:1049700087E793E20E94660584E993E20E9435038B
:1049800078941F910F91EF900895CF93DF931F922A
:104990001F92CDB7DEB70E948A2483E993E20E947A
:1049A000330E84E993E20E946A032FEF83EC99E0CF
:1049B000215080409040E1F700C0000084E993E27C
:1049C0000E94720319821A8242E050E0BE016F5FBA
:1049D0007F4F89EB93E20E94861087E793E20E9463
:1049E0000A0518EC8FE39FE10197F1F700C0000082
:1049F0004091752350917623CA01019680937523C7
:104A0000909376239A013695279536952795369576
:104A10002795ABE7B4E10E94822896958795189F69
:104A20009001199F300D11244217530721F487E795
:104A300093E20E941B0784E993E20E94C403D2CF51
:104A4000CF93DF93EC01EC81FD818AEA8083EC81D6
:104A5000FD818CEC8183EC81FD8182E0820F828379
:104A6000EC81FD8180E88383EC81FD81648385E0B6
:104A7000820F898730E02115310581F0DA01420F7C
:104A8000531F65E070E09D91EC81FD81E60FF71FFB
:104A900090836F5F7F4FA417B507A9F7DF91CF9180
:104AA0000895FC01A481B5818AEA8C93A481B58123
:104AB0008CEC11968C93A481B58183E012968C9333
:104AC000A481B58181E813968C93A481B581149655
:104AD0006C93A481B58115964C9386E081870895E7
:104AE0000F931F93CF93DF93DC011496ED91FC910C
:104AF0001597AAEAA083EC01EC81FD81ACECA183BF
:104B0000EC81FD81A3E0A20FA283EC81FD81A2E8EC
:104B1000A383EC81FD817483EC81FD81658366E074
:104B2000620F69873695279521153105E1F0E42F4D
:104B3000F52F2D5F3F4F220F331F46E050E0EC0171
:104B4000AC81BD81A40FB51F61816C93AC81BD8127
:104B5000A40FB51F6081329611966C934E5F5F4F24
:104B60004217530761F7DF91CF911F910F9108957D
:104B7000FC01A481B5818AEA8C93A481B5818CEC77
:104B800011968C93A481B58184E012968C93A481B4
:104B9000B58183E813968C93A481B58114967C9398
:104BA000A481B58115966C93A481B58116964C931A
:104BB00087E0818708950F931F93CF93DF93EC01D4
:104BC000CB018A016F8378874A875B870E94B3286D
:104BD0008A839B83C8010E94B3288C839D83198696
:104BE0001E82DF91CF911F910F910895CF93DF9394
:104BF000EC018A819B810E9448298C819D810E94C1
:104C00004829DF91CF9108950895DC0157968D9141
:104C10009C915897009739F0DC01ED91FC9102804E
:104C2000F381E02D19950895DC0157968D919C91A3
:104C30005897009739F0DC01ED91FC910480F581E3
:104C4000E02D1995089522E431E2FC01208331839F
:104C50000895CF92DF92EF92FF920F931F93CF931D
:104C6000DF93EC017B016A01C9012F8338870A8732
:104C70001B870E94B3288A839B83C8010E94B328A4
:104C80008C839D831D8A19861F861E82188A198A25
:104C90001A8A1B8A87E08E8782E08C8B1E8AEC86BC
:104CA000FD86D701ED91FC910484F585E02D4AE362
:104CB00057E2BE01C7011995D701ED91FC91068419
:104CC000F785E02D4FE957E2BE01C7011995C114E0
:104CD000D10419F0CF8AD88E02C0CF8BD88FDF9144
:104CE000CF911F910F91FF90EF90DF90CF9008959B
:104CF00022E431E2FC01208331830E9404260895DE
:104D0000CF93DF93EC01962F4E8550E04B30510549
:104D100008F0ADC0FA018827E85DFE4F8F4F0C9474
:104D20007A289A3A19F482E08E87A1C081E08E87B2
:104D30009EC09C3C19F483E08E8799C081E08E87E9
:104D400096C09E831F861A8A1B8A1092BF231092D8
:104D5000C02384E08E878BC08F85EA81FB81E80FBA
:104D6000F11D90832F8530E04F81588542175307FE
:104D700018F489E08E877BC02A893B892927922FE6
:104D800092959227092E969596959025092E96959F
:104D900090259770022E232F969507949795302D86
:104DA000292706949795302529272A8B3B8B8F85B9
:104DB0008F5F8F878091BF239091C023019680934E
:104DC000BF239093C0234F858E81481350C088E045
:104DD0008E87E881F98150E06A817B810190F081C2
:104DE000E02DCE0119958F89988D009709F43FC069
:104DF000DC01ED91FC914E8150E06A817B81019054
:104E0000F081E02D199533C0692F70E0688B798BA4
:104E100086E08E872CC028893989A901592B488BB7
:104E2000598B2A893B8942175307E9F488E08E871A
:104E3000E881F9814E8150E06A817B810190F081A7
:104E4000E02DCE0119958F89988D009781F0DC01B6
:104E5000ED91FC914E8150E06A817B810190F0815F
:104E6000E02D199504C089E08E8701C01E8ADF916C
:104E7000CF910895CF93DF93EC018C859D85DC0164
:104E8000ED91FC910280F381E02D1995682FCE0100
:104E90000E948026DF91CF910895FC01178616822B
:104EA000108A118A128A138A16860895CF93DF9387
:104EB000EC018C89843038F48230B8F5882331F0E5
:104EC0008130D1F039C0853081F136C081E08C8BE2
:104ED0001D8A8C859D852D89DC01ED91FC91AC812D
:104EE000BD81A20FB11D0480F581E02D6C91199553
:104EF0008D898F5F8D8B20C08C859D852D89DC01F0
:104F0000ED91FC91AC81BD81A20FB11D0480F581B2
:104F1000E02D6C9119958D898F5F8D8B9D89898589
:104F200098130AC083E08C8B07C08E89882319F000
:104F3000CE010E944D271E8ADF91CF9108950E94D5
:104F400056270895FC0106C08685893041F0868584
:104F50008A3039F086858830B9F781E0089582E09B
:104F6000089583E00895FC01158A148A0E9456274B
:104F70000895CF93DF93EC01E881F9810284F385F2
:104F8000E02D1995CE010E94B327DF91CF910895AE
:104F9000CF93DF93EC01E881F9810684F785E02D5A
:104FA0001995CE010E94B327DF91CF910895CF9339
:104FB000DF93EC01E881F9810484F585E02D1995F2
:104FC000CE010E94B327DF91CF910895CF93DF9355
:104FD000EC01E881F98150E00088F189E02D199514
:104FE000CE010E94B327DF91CF910895FC0106C046
:104FF0008489843041F08489853039F08489833014
:10500000B9F781E0089582E0089583E0089521E0F2
:10501000FC01268B0E94D727089521E0FC01268BF6
:105020000E94E62708950F931F93CF93DF938C017F
:10503000EB019881913869F4D801ED91FC910480DD
:10504000F581E02D2A81AB014D5F5F4F6981C80179
:1050500019959881933899F4D801ED91FC912B81A1
:1050600030E0AE014C5F5F4F698170E0762F6627BC
:105070008A81682B0280F381E02DC8011995DF91A8
:10508000CF911F910F9108950E9413280895AA1B94
:10509000BB1B51E107C0AA1FBB1FA617B70710F023
:1050A000A61BB70B881F991F5A95A9F78095909555
:1050B000BC01CD010895052E97FB1EF400940E94BB
:1050C000722857FD07D00E94912807FC03D04EF4A8
:1050D0000C94722850954095309521953F4F4F4F35
:1050E0005F4F089590958095709561957F4F8F4F94
:1050F0009F4F0895EE0FFF1F881F8BBF0790F691FB
:10510000E02D1994A29FB001B39FC001A39F700D21
:10511000811D1124911DB29F700D811D1124911DBF
:105120000895A1E21A2EAA1BBB1BFD010DC0AA1FE8
:10513000BB1FEE1FFF1FA217B307E407F50720F000
:10514000A21BB30BE40BF50B661F771F881F991F7B
:105150001A9469F760957095809590959B01AC01C4
:10516000BD01CF010895CF93DF938230910510F4F4
:1051700082E090E0E091C323F091C42320E030E08E
:10518000C0E0D0E0309711F14081518148175907B4
:10519000C0F04817590761F482819381209719F074
:1051A0008A839B832BC08093C3239093C42326C000
:1051B0002115310519F04217530718F49A01BE0161
:1051C000DF01EF010280F381E02DDCCF21153105F5
:1051D00009F1281B390B2430310590F412968D917A
:1051E0009C9113976115710521F0FB0182839383D4
:1051F00004C08093C3239093C423FD01329644C01E
:10520000FD01E20FF31F81939193225031092D93F9
:105210003C933AC02091C1233091C223232B41F407
:1052200020910220309103202093C1233093C22388
:1052300020910020309101202115310541F42DB736
:105240003EB74091042050910520241B350BE0917E
:10525000C123F091C223E217F307A0F42E1B3F0BEA
:105260002817390778F0AC014E5F5F4F24173507D8
:1052700048F04E0F5F1F4093C1235093C223819388
:10528000919302C0E0E0F0E0CF01DF91CF9108956B
:105290000F931F93CF93DF93009709F48CC0FC0109
:1052A0003297128213820091C3231091C4230115F7
:1052B000110581F420813181820F931F2091C12338
:1052C0003091C2232817390779F5E093C123F09371
:1052D000C22371C0D80140E050E0AE17BF0750F4C0
:1052E00012962D913C911397AD012115310509F1CD
:1052F000D901F3CF9D01DA0122833383608171816B
:10530000860F971F8217930769F4EC012881398172
:10531000260F371F2E5F3F4F208331838A819B8169
:1053200082839383452B29F4E093C323F093C42312
:1053300042C01296ED93FC931397ED014991599158
:105340009E01240F351FE217F30771F480819181CC
:10535000840F951F02968D939C9311978281938160
:1053600012968D939C931397E0E0F0E0D80112968B
:105370008D919C911397009719F0F8018C01F6CF4D
:105380008D919C9198012E5F3F4F820F931F20912A
:10539000C1233091C2232817390769F4309729F4C3
:1053A0001092C3231092C42302C01282138200936E
:1053B000C1231093C223DF91CF911F910F910895C4
:1053C000FB01DC0102C001900D9241505040D8F722
:1053D000089512E0C7E1D2E000E006C0802FFE0190
:1053E0000E947A282196011DC931D10780E0080763
:0653F000A9F7F894FFCFBD
:1053F6000000C5232000070605030104020003017F
:10540600FF0200FEFFFDFEFCFDFBFDFAFCFA00FEBE
:10541600FAFCF9FBF9000C0C0C228A0C228A0C22ED
:10542600890C228721831F7B1B6B0F79134B01038A
:105436002F134D0B2B00000000004C0287028A023E
:105446008D0295029C02A402AD02B602BF02486517
:105456006C6C6F20776F726C6421202020202020D6
:105466002020202020202020202020202020002056
:105476002034333231202020203132333420202092
:1054860020313233342020202031323334202000A2
:10549600000000000104C6040204DB25F6252025D1
:1054A60051257025B82500000000820E9D0EAA0E1B
:1054B600B20EB90EC00EC50ECA0ECF0ED40ED90E40
:1054C600EB0EFD0E0F0F210F330F00000000590FDA
:1054D600740F810F890F8F0FA70FAC0FB10FB60F87
:1054E600BB0FC00FD20FE40FF60F08101A10960F5D
:1054F6009E0F00000000552455245524552455249C
:1055060055245524552455245524552455245524CD
:1055160055245524552400000000552455245524AF
:105526005524552455245524552455245524000026
:105536000000442805261426DB25F62520255125BE
:045546007025B825EF
:00000001FF
