:100000001FC0A4C0D0C0FCC028C154C180C1ACC1B5
:10001000D8C104C230C25CC288C2B4C2E0C20CC340
:1000200038C364C390C334C633C63AC641C647C654
:1000300094C69AC6C5C6C4C6C2C6C1C612041F04A9
:1000400011241FBECFE5D4E0DEBFCDBF10E0A0E697
:10005000B0E0E6E5F3E102C005900D92A23BB107E6
:10006000D9F721E0A2EBB0E001C01D92A533B207A1
:10007000E1F710E0CFE1D0E003C02197FE012CD8DA
:10008000CE31D107D1F70AD45AC90F93899A8898EB
:1000900082B382BB82E08BB9413019F0423019F053
:1000A00004C080E203C080E301C080E0213009F495
:1000B000886098ED9AB9011102C090E401C090E007
:1000C0008660892B80BDE62FF0E0EE0FFF1FEA5916
:1000D000FF4F9081818199B980BD0F9108958CB1B6
:1000E00008955D9BFECF6CB908957093EF00609307
:1000F000EE005093C9004093C80008957093F30038
:100100006093F2005093CD004093CC000895CF93BC
:10011000DF93EC0114D086E890E099838883DF9127
:10012000CF91089526E830E0FC01318320830DD083
:100130000895089580E0089508950895089524E9A4
:1001400030E0FC0131832083089508951F920F92BF
:100150000FB60F9211242F933F934F935F936F939A
:100160007F938F939F93AF93BF93EF93FF93E09110
:10017000B400F091B500309729F08091DA009091A9
:10018000DB000995FF91EF91BF91AF919F918F9106
:100190007F916F915F914F913F912F910F900FBE83
:1001A0000F901F9018951F920F920FB60F92112467
:1001B0002F933F934F935F936F937F938F939F936F
:1001C000AF93BF93EF93FF93E091B600F091B70028
:1001D000309729F08091DC009091DD000995FF9126
:1001E000EF91BF91AF919F918F917F916F915F91AF
:1001F0004F913F912F910F900FBE0F901F90189528
:100200001F920F920FB60F9211242F933F934F938B
:100210005F936F937F938F939F93AF93BF93EF936E
:10022000FF93E091B800F091B900309729F08091E8
:10023000DE009091DF000995FF91EF91BF91AF91A2
:100240009F918F917F916F915F914F913F912F91EE
:100250000F900FBE0F901F9018951F920F920FB620
:100260000F9211242F933F934F935F936F937F933C
:100270008F939F93AF93BF93EF93FF93E091BA0057
:10028000F091BB00309729F08091E0009091E1005F
:100290000995FF91EF91BF91AF919F918F917F91C0
:1002A0006F915F914F913F912F910F900FBE0F90E3
:1002B0001F9018951F920F920FB60F9211242F9333
:1002C0003F934F935F936F937F938F939F93AF93DE
:1002D000BF93EF93FF93E091BC00F091BD00309786
:1002E00029F08091E2009091E3000995FF91EF9150
:1002F000BF91AF919F918F917F916F915F914F913E
:100300003F912F910F900FBE0F901F9018951F9245
:100310000F920FB60F9211242F933F934F935F9339
:100320006F937F938F939F93AF93BF93EF93FF93BD
:10033000E091BE00F091BF00309729F08091E40079
:100340009091E5000995FF91EF91BF91AF919F9139
:100350008F917F916F915F914F913F912F910F906E
:100360000FBE0F901F9018951F920F920FB60F920D
:1003700011242F933F934F935F936F937F938F93AA
:100380009F93AF93BF93EF93FF93E091C000F091E1
:10039000C100309729F08091E6009091E70009951F
:1003A000FF91EF91BF91AF919F918F917F916F914D
:1003B0005F914F913F912F910F900FBE0F901F9023
:1003C00018951F920F920FB60F9211242F933F93FF
:1003D0004F935F936F937F938F939F93AF93BF934D
:1003E000EF93FF93E091C200F091C300309729F0A2
:1003F0008091E8009091E9000995FF91EF91BF91FC
:10040000AF919F918F917F916F915F914F913F91AC
:100410002F910F900FBE0F901F9018951F920F9263
:100420000FB60F9211242F933F934F935F936F93C7
:100430007F938F939F93AF93BF93EF93FF93E0913D
:10044000C400F091C500309729F08091EA009091A6
:10045000EB000995FF91EF91BF91AF919F918F9123
:100460007F916F915F914F913F912F910F900FBEB0
:100470000F901F9018951F920F920FB60F92112494
:100480002F933F934F935F936F937F938F939F939C
:10049000AF93BF93EF93FF93E091C600F091C70035
:1004A000309729F08091EC009091ED000995FF9133
:1004B000EF91BF91AF919F918F917F916F915F91DC
:1004C0004F913F912F910F900FBE0F901F90189555
:1004D0001F920F920FB60F9211242F933F934F93B9
:1004E0005F936F937F938F939F93AF93BF93EF939C
:1004F000FF93E091C800F091C900309729F08091F6
:10050000EE009091EF000995FF91EF91BF91AF91AF
:100510009F918F917F916F915F914F913F912F911B
:100520000F900FBE0F901F9018951F920F920FB64D
:100530000F9211242F933F934F935F936F937F9369
:100540008F939F93AF93BF93EF93FF93E091CA0074
:10055000F091CB00309729F08091F0009091F1005C
:100560000995FF91EF91BF91AF919F918F917F91ED
:100570006F915F914F913F912F910F900FBE0F9010
:100580001F9018951F920F920FB60F9211242F9360
:100590003F934F935F936F937F938F939F93AF930B
:1005A000BF93EF93FF93E091CC00F091CD00309793
:1005B00029F08091F2009091F3000995FF91EF915D
:1005C000BF91AF919F918F917F916F915F914F916B
:1005D0003F912F910F900FBE0F901F9018951F9273
:1005E0000F920FB60F9211242F933F934F935F9367
:1005F0006F937F938F939F93AF93BF93EF93FF93EB
:10060000E091CE00F091CF00309729F08091F40076
:100610009091F5000995FF91EF91BF91AF919F9156
:100620008F917F916F915F914F913F912F910F909B
:100630000FBE0F901F9018951F920F920FB60F923A
:1006400011242F933F934F935F936F937F938F93D7
:100650009F93AF93BF93EF93FF93E091D000F091FE
:10066000D100309729F08091F6009091F70009951C
:10067000FF91EF91BF91AF919F918F917F916F917A
:100680005F914F913F912F910F900FBE0F901F9050
:1006900018951F920F920FB60F9211242F933F932C
:1006A0004F935F936F937F938F939F93AF93BF937A
:1006B000EF93FF93E091D200F091D300309729F0AF
:1006C0008091F8009091F9000995FF91EF91BF9109
:1006D000AF919F918F917F916F915F914F913F91DA
:1006E0002F910F900FBE0F901F9018951F920F9291
:1006F0000FB60F9211242F933F934F935F936F93F5
:100700007F938F939F93AF93BF93EF93FF93E0916A
:10071000D400F091D500309729F08091FA009091A3
:10072000FB000995FF91EF91BF91AF919F918F9140
:100730007F916F915F914F913F912F910F900FBEDD
:100740000F901F9018951F920F920FB60F921124C1
:100750002F933F934F935F936F937F938F939F93C9
:10076000AF93BF93EF93FF93E091D600F091D70042
:10077000309729F08091FC009091FD000995FF9140
:10078000EF91BF91AF919F918F917F916F915F9109
:100790004F913F912F910F900FBE0F901F90189582
:1007A0000895633021F4FA012181FC01238B08951F
:1007B000FC01DA018D919C91982789279827603157
:1007C000710519F4978786870CC06032710519F49A
:1007D000918B808B0CC06033710519F497838683ED
:1007E0000CC06034710519F4918780870AC06035A8
:1007F000710519F49387828704C0672B11F49587DC
:100800008487868597859383828380899189958360
:100810008483089515BA82E084BB0895A99A089547
:10082000A998089582EA90E090931C0180931B019F
:1008300089E191E06CDC80E091E0B6D1089580E040
:1008400091E005D289E191E06DDC82EA90E090933D
:100850001C0180931B018BE191E087D108950F93D8
:100860001F93D8DF01E020E040E069E089E191E0FA
:100870000CDC00E210E020E230E04BE151E069E105
:1008800071E080E091E096D180E091E090933001BA
:1008900080932F0178941F910F910895CF93DF9348
:1008A00000D0CDB7DEB7DBDFBBDF2FEF83ED90E30A
:1008B000215080409040E1F700C000000BE111E0C2
:1008C00081E090E0F801978786878EE190E0918B38
:1008D000808B1A82198222E0AE014F5F5F4F63E086
:1008E00084899589E7D2F80184899589A7D3F8018D
:1008F000868597859383828321E030E04DE151E046
:1009000060E070E18489958908D3F801848995892C
:1009100095D3F801808991899583848321E030E023
:100920004FE151E060E070E284899589F6D2F801E8
:100930008489958983D3F8011186108621E030E0FF
:1009400043E251E060E070E484899589E6D2F801E1
:100950008489958973D3F801128A0F2EFCE3CF2E78
:10096000D12CF02DBB24B3940F2EF4E6EF2EF12CF6
:10097000F02D8FE39CE90197F1F700C0000042E001
:1009800063E0F801848995896AD3F801848995899F
:1009900055D3F8018489958977D2F801838981112B
:1009A00064C08289882321F1868597859383828319
:1009B00021E030E04DE151E060E070E1848995890B
:1009C000ACD2F8018489958939D3F801808991895D
:1009D0009583848321E030E04FE151E060E070E2F4
:1009E000848995899AD2F8018489958927D339C059
:1009F000FFEF29EF80E0F15020408040E1F700C098
:100A0000000042E060E070E1F801848995892CD310
:100A1000F8018489958912D3F8018489958934D2A3
:100A2000FFEF29EF80E0F15020408040E1F700C067
:100A3000000042E060E070E2F8018489958914D3F7
:100A4000F80184899589FAD2F801848995891CD2A4
:100A5000FFEF29EF80E0F15020408040E1F700C037
:100A60000000DEDEF801128A84CFF801838982302B
:100A700009F079C086819781892B11F4F782E6828B
:100A8000F8018681978101979783868321E030E082
:100A900041E251E060E070E3848995893ED2F8013B
:100AA00084899589CBD2F801828981115AC08091BD
:100AB000FE009091FF008436910519F0892B09F012
:100AC00047C01092FF001092FE00F80184819581CA
:100AD000892BE9F4D582C48282819381892B89F4A0
:100AE0001A82198222E0AE014F5F5F4F63E0848972
:100AF0009589E0D1F80184899589A0D2F801B28A5C
:100B000006C0F80182819381019793838283F80163
:100B10008481958101979583848321E030E04DE1C4
:100B200051E060E070E184899589F7D1F80184890A
:100B3000958984D221E030E04FE151E060E070E23D
:100B4000F80184899589E9D1F8018489958976D25B
:100B50008091FE009091FF0001969093FF0080939A
:100B6000FE005CDE06CF5ADE04CF0895DC01579606
:100B70008D919C915897009739F0DC01ED91FC9193
:100B80000280F381E02D09950895DC0157968D913F
:100B90009C915897009739F0DC01ED91FC9104800D
:100BA000F581E02D099508952CEA30E0FC013183B0
:100BB00020830895CF92DF92EF92FF920F931F93BD
:100BC000CF93DF93EC017B016A01C9013D832C8344
:100BD0001F830E8387D299878887C80183D29B871A
:100BE0008A871C8A1D8A1D861E86188A1F861A8A75
:100BF000198A87E08C8782E08B8B1E8AFB82EA82CF
:100C0000D701ED91FC910680F781E02D43EE56E08F
:100C1000BE01C7010995D701ED91FC910084F185D2
:100C2000E02D42E457E0BE01C7010995C114D1048B
:100C300019F0D88ECF8A02C0D88FCF8BDF91CF9199
:100C40001F910F91FF90EF90DF90CF900895CF9379
:100C5000DF93EC018CEA90E09983888388859985FD
:100C6000D6D28A859B85D3D2CE017FDFDF91CF910B
:100C70000895CF93DF93EC01962FEC854E2F50E033
:100C80004B30510508F09CC0FA01ED5EFF4F09940E
:100C90009A3A19F482E08C8793C081E08C8790C0E7
:100CA0009C3C19F483E08C878BC081E08C8788C0E2
:100CB0009E871D861A8A198A84E08C8781C08D855B
:100CC000E885F985E80FF11D90834D85642F70E06C
:100CD0002C813D812617370718F489E08C8770C076
:100CE00029893A892927922F92959227092E96953C
:100CF00096959025092E969590259770022E232F74
:100D0000969507949795302D292706949795302529
:100D100029273A8B298B4F5F4D878E85481350C00A
:100D200088E08C87E881F98150E0688579850190B9
:100D3000F081E02DCE0109958F89988D009709F4F7
:100D40003FC0DC01ED91FC914E8550E068857985CE
:100D50000190F081E02D099533C0692F70E0788B08
:100D60006F8786E08C872CC02F853889A901592B85
:100D7000588B4F8729893A8942175307E9F488E04D
:100D80008C87E881F9814E8550E0688579850190EE
:100D9000F081E02DCE0109958F89988D009781F023
:100DA000DC01ED91FC914E8550E0688579850190DC
:100DB000F081E02D099504C089E08C8701C01E8A6E
:100DC000DF91CF910895CF93DF93EC018A819B81CE
:100DD000DC01ED91FC910280F381E02D0995682FF3
:100DE000CE0147DFDF91CF910895FC01158616866D
:100DF000108A1786128A118A14860895CF93DF937A
:100E0000EC018B89843038F4823098F5882331F0F6
:100E10008130B9F034C0853061F131C081E08B8B15
:100E20001C8A8A819B81DC01ED91FC91AA85BB859E
:100E30000480F581E02D6C9109958C898F5F8C8BF6
:100E40001EC08A819B81DC01ED91FC912C89AA85D1
:100E5000BB85A20FB11D0480F581E02D6C91099531
:100E60008C898F5F8C8B9D89891309C083E08B8B64
:100E700006C08E89882311F0CE01B7DF1E8ADF916C
:100E8000CF910895BBDF0895FC0106C084858930A9
:100E900041F084858A3039F084858830B9F781E063
:100EA000089582E0089583E00895FC01148A138A6E
:100EB000A5DF0895CF93DF93EC01EA85FB858AEAED
:100EC0008083EA85FB858CEC8183EA85FB8582E063
:100ED000820F8283EA85FB8580E88383EA85FB8530
:100EE000648385E0820F8D8B30E02115310581F020
:100EF000DA01420F531F65E070E09D91EA85FB85A2
:100F0000E60FF71F90836F5F7F4FA417B507A9F710
:100F1000CE01CBDFDF91CF9108950F931F93CF9335
:100F2000DF93DC011A96ED91FC911B97AAEAA0834E
:100F3000EC01EA85FB85ACECA183AA85BB85E22F99
:100F4000EE0FED5F1296EC93EA85FB85A2E8A38392
:100F5000EA85FB857483EA85FB856583B9016D5F4E
:100F60007F4FE62FEE0FED8B232BD9F0E42FF52FDB
:100F7000AB01440F551F26E030E0EC01AA85BB858C
:100F8000A20FB31F61816C93AA85BB85A20FB31F0B
:100F90006081329611966C932E5F3F4F2417350770
:100FA00061F783DFDF91CF911F910F910895FC01CD
:100FB000A285B3858AEA8C93A285B3858CEC1196C1
:100FC0008C93A285B38583E012968C93A285B3851A
:100FD00081E813968C93A285B38514966C93A285B1
:100FE000B38515964C9386E0858BCF015EDF08951F
:100FF000FC01A285B3858AEA8C93A285B3858CEC2B
:1010000011968C93A285B38584E012968C93A28569
:10101000B38583E813968C93A285B38514967C934D
:10102000A285B38515966C93A285B385440F169659
:101030004C9387E0858BCF0138DF0895FC0106C013
:101040008389843041F08389853039F08389833006
:10105000B9F781E0089582E0089583E0089521E0E2
:10106000FC01268BA4DF089521E0FC01268BC0DF64
:1010700008950F931F93CF93DF938C01EB01988119
:10108000913869F4D801ED91FC910480F581E02D4F
:101090002A81AB014D5F5F4F6981C8010995988135
:1010A000933899F4D801ED91FC912A8130E0322FE8
:1010B00022278B81282BAE014C5F5F4F698170E046
:1010C0000280F381E02DC8010995DF91CF911F9136
:1010D0000F910895CEDF0895EE0FFF1F0590F49154
:1010E000E02D0994CF93DF938230910510F482E0D4
:1010F00090E0E0913301F091340120E030E0C0E075
:10110000D0E0309711F14081518148175907C0F064
:101110004817590761F482819381209719F09B83C6
:101120008A832BC0909334018093330126C021150C
:10113000310519F04217530718F49A01BE01DF0177
:10114000EF010280F381E02DDCCF2115310509F19B
:10115000281B390B2430310590F412968D919C9107
:1011600013976115710521F0FB019383828304C0FD
:101170009093340180933301FD01329644C0FD0108
:10118000E20FF31F81939193225031092D933C93E9
:101190003AC02091310130913201232B41F420914A
:1011A000620030916300309332012093310120912D
:1011B0006000309161002115310541F42DB73EB733
:1011C0004091640050916500241B350BE091310182
:1011D000F0913201E217F307A0F42E1B3F0B281702
:1011E000390778F0AC014E5F5F4F2417350748F0A0
:1011F0004E0F5F1F509332014093310181939193C1
:1012000002C0E0E0F0E0CF01DF91CF9108950F93AD
:101210001F93CF93DF93009709F48CC0FC013297A2
:1012200013821282009133011091340101151105CE
:1012300081F420813181820F931F209131013091FF
:1012400032012817390779F5F0933201E093310123
:1012500071C0D80140E050E0AE17BF0750F41296BD
:101260002D913C911397AD012115310509F1D9015B
:10127000F3CF9D01DA013383228360817181860F70
:10128000971F8217930769F4EC0128813981260F93
:10129000371F2E5F3F4F318320838A819B81938349
:1012A0008283452B29F4F0933401E093330142C04B
:1012B0001396FC93EE931297ED01499159919E017B
:1012C000240F351FE217F30771F480819181840F99
:1012D000951F029611969C938E938281938113960B
:1012E0009C938E931297E0E0F0E0D80112968D91D6
:1012F0009C911397009719F0F8018C01F6CF8D910E
:101300009C9198012E5F3F4F820F931F20913101D6
:10131000309132012817390769F4309729F4109277
:1013200034011092330102C01382128210933201F1
:1013300000933101DF91CF911F910F91089510E03B
:10134000CFE1D0E003C0FE01C7DE2196C032D10755
:10135000D1F7F894FFCF0000350120004003A00131
:10136000CF008A00670044003300220019001000FB
:1013700008000700030001000000000045006F00A6
:10138000710075007E000000000099009A009C002A
:101390009D009E0000000000D003D803D103000090
:1013A00000006A08B605C505FFFFFFFFFFFFFFFF4E
:1013B000FFFFFFFFFFFFFFFFFFFFFFFFFFFFFFFF3D
:1013C000FFFFFFFFFFFFFFFFFFFFFFFFFFFFFFFF2D
:1013D000FFFFFFFFFFFFFFFFFFFFFFFFFFFFFFFF1D
:1013E000FFFFFFFFFFFFFFFFFFFFFFFFFFFFFFFF0D
:00000001FF
