:100000004DC070C79CC7C8C7F4C720C84CC878C8C3
:10001000A4C8D0C8FCC828C954C980C9ACC9D8C9AB
:1000200004CA30CA5CCA48C16AC169C168C167C133
:1000300062C165C15CC163C162C161C15AC15FC1B6
:100040005EC15DC15CC15BC15AC159C158C157C1D4
:1000500056C155C135C153C135C134C150C13BC171
:1000600042C13BC13CC13DC134C13FC1B6C22FC634
:10007000C0C3EEC3DFC416C592C52EC5AAC5D6C57A
:1000800013C668CC67CC6ACC6FCC78CCB5CCB9CC75
:10009000E6CCE5CCE3CCE2CC9D0AAF0A11241FBE2E
:1000A000CFE5D4E0DEBFCDBF11E0A0E6B0E0EAE1ED
:1000B000FFE102C005900D92AE32B107D9F721E001
:1000C000AEE2B1E001C01D92A93CB207E1F710E039
:1000D000CDE4D0E003C02197FE01E0DDCC34D107B0
:1000E000D1F7A7DA0ECF0F93899A889882B382BB93
:1000F00082E08BB9413021F0423021F480E303C02B
:1001000080E201C080E0213009F4886098ED9AB95E
:10011000011102C090E401C090E08660892B80BD8F
:10012000E62FF0E0EE0FFF1FEA59FF4F908181812B
:1001300099B980BD0F9108958CB108956CB9089557
:100140007093700160936F0150934A01409349018D
:100150000895709374016093730150934E0140931E
:100160004D0108958BB186FB882780F991E089279E
:1001700008958BB18095881F8827881F08958BB1BB
:1001800085FB882780F991E089270895CF93DF9335
:10019000EC01A1D68BE890E099838883DF91CF9121
:1001A00008952BE830E0FC01318320839AC608953E
:1001B0000895A99A0895979A0895A99808959798E7
:1001C00008958EE287BB18BA1EB88BE58DB90895E5
:1001D00015BA12BA22E024BB20E821BBF2DFC19895
:1001E000B99A83E88FBD89E08EBD89B7846089BFE5
:1001F0008FEF90E09BBD8ABD99BD88BD08956FB912
:10020000779BFECF08950F931F93CF938C01C62F3A
:10021000C29A672F6095F3DF6C2F6095C801EFDFFE
:10022000C298CF911F910F9108958CE085BF80E80F
:100230008BBF709338016093370150935E014093F8
:100240005D010895709344016093430150936A01E6
:100250004093690108950895FC01DA012D913C91C4
:100260003227232732276130710551F020F06330A7
:10027000710559F00895368B258B308B27870895AB
:10028000308F278B328B218B0895328F218F0895E9
:10029000DC01633029F4FA0181811E968C931E974C
:1002A0001E96EC911E974E2F50E04332510538F5C3
:1002B000FA01ED5EFF4F09941D961C921D971FC019
:1002C00081E001C083E01D968C931D971C961C92C3
:1002D000089585E011C084E00FC086E00DC088E07D
:1002E0000BC087E009C089E007C08AE005C08CE048
:1002F00003C08BE001C08DE01D968C931D9781E0BB
:100300001C968C9308952FE930E0FC013183208303
:1003100008952FE930E0FC013183208391CAFC016C
:10032000768F658F168681E090E0968B858B8EE1C7
:1003300090E0908F878B148A138A85899689908B99
:1003400087878789908D928B818B128E118E08956D
:100350000F931F93CF93DF93CDB7DEB72897DEBF00
:10036000CDBF8C0180E091E098878F8322E0AE01C1
:10037000495F5F4F63E0F801858D968DECDBF801F6
:10038000858D968D1DDCA8014B5E5F4F22E030E02D
:1003900060E070E0F801858D968DEADBF801858DCF
:1003A000968D0EDCA801495E5F4F22E030E061E0EF
:1003B00070E0F801858D968DDBDBF801858D968DDB
:1003C000FFDBA8014D5E5F4F22E030E062E070E0AD
:1003D000F801858D968DCCDBF801858D968DF0DB4F
:1003E000F801128E118EA801475E5F4F22E030E0C7
:1003F00063E070E0858D968DBBDBF801858D968D71
:10040000DFDB1E821D828BE090E09C838B8387E183
:1004100090E09A83898322E030E0AE014B5F5F4F2A
:1004200064E070E0F801858D968DA2DBF801858D82
:10043000968DC6DB22E030E0AE014D5F5F4F65E098
:1004400070E0F801858D968D93DBF801858D968D92
:10045000B7DB22E030E0AE014F5F5F4F66E070E057
:10046000F801858D968D84DBF801858D968DA8DB4E
:1004700060E070E080EA91E0C6DE81E0F801858707
:10048000148E138E2896DEBFCDBFDF91CF911F91C2
:100490000F910895FC01869B04C0838D948D019675
:1004A00003C0838D948D0197948F838F0895FC01F1
:1004B000809130018F5F8093300188B7847088BF4E
:1004C0008485882339F18091300164E1C7DB911183
:1004D00042C020912E0130912F012F3F83E0380739
:1004E00019F48FEF9FEF05C01216130634F081E068
:1004F00090E090938300809382008091820090919D
:100500008300820F931F90932F0180932E019BBD38
:100510008ABD0895218D328D838D948D919581951D
:1005200091092817390754F0838D948D280F391FAE
:100530002536310528F024E630E002C020E030E026
:100540004FEF429FC001439F900D112469E170E07D
:1005500091DB7BBD6ABD0895AACF9CCF0F931F93FB
:10056000CF93DF93CDB7DEB72A97DEBFCDBF8C0127
:1005700042E063E0DC015D968D919C915E9730DBFB
:10058000F801858D968D1CDBD8015D968D919C912F
:100590005E97CDDABFEFE0E7F2E0B150E040F04027
:1005A000E1F700C0000018861F821E821D821C8297
:1005B0001B82D8011D96EC911D97E13089F05C9665
:1005C0001C921E925B978E2F90E08B30910508F065
:1005D0007EC3FC01EA5CFF4F0994C801B9DE77C312
:1005E00042E060E070E0F801858D968DFDDAD8017B
:1005F0005D968D919C915E97E3DAF801858D968DDD
:1006000096DA8FE39CE90197F1F700C0000042E021
:1006100061E070E0D8015D968D919C915E97E4DA7F
:10062000F801858D968DCCDAD8015D968D919C91DF
:100630005E977DDAEFE3FCE93197F1F700C0000047
:1006400042E063E070E0D8015D968D919C915E97E9
:10065000CBDAF801858D968DB3DAD8015D968D9150
:100660009C915E9764DAEFE3FCE93197F1F700C003
:100670000000D80159962D913C915A9747E0429F2E
:10068000C001439F900D11246AE070E0F3DA70938B
:100690003201609331016731710518F097E180E014
:1006A00002C0962F872F9F8388876631710568F077
:1006B000CB0146978931910510F089E190E09E8346
:1006C0008D836E32710520F40DC01E821D820AC01A
:1006D0006E5271096631710510F066E170E07C833D
:1006E0006B8302C01C821B8222E030E0AE01495FB6
:1006F0005F4F64E070E0F801858D968D39DAD8019E
:100700005D968D919C915E975BDA22E030E0AE01C0
:100710004B5F5F4F65E070E0F801858D968D28DABC
:10072000D8015D968D919C915E974ADA22E030E087
:10073000AE014D5F5F4F66E070E0F801858D968DEC
:1007400017DAD8015D968D919C915E9739DAF801A0
:10075000418D528D20E832E0429FC001439F900DB1
:10076000529F900D112462E370E084DA7D5F80EA8D
:1007700091E049DDD8015B968D919C915C97892B26
:1007800009F4A5C259962D913C915A975B968D918B
:100790009C915C97919581959109281739072CF4C4
:1007A0005A961C921E92599712C0F801238D348DCF
:1007B000818D928D820F931F928F818F818D928D6B
:1007C0008536910520F084E690E0928F818FD801E4
:1007D0005C961C921E925B97A801475E5F4F22E0D9
:1007E00030E063E070E05D968D919C915E97C0D99A
:1007F0006AC2809185009091860001968A309105A9
:1008000028F490938600809385000AC089E090E0E8
:10081000909386008093850083E0D8011D968C9389
:1008200080918500909186009827892798279A873C
:10083000898722E0AE01475F5F4F63E0F801858D55
:10084000968D89D9D8015D968D919C915E973EC217
:1008500022E030E0A801415F5F4F60E070E0F80106
:10086000858D968D85D9D8015D968D919C915E97E9
:10087000A7D922E030E0A8014F5E5F4F61E070E051
:10088000F801858D968D74D9D8015D968D919C91D6
:100890005E9796D9F801838994896AE070E0EAD975
:1008A0007A83698322E030E0AE014F5F5F4F62E000
:1008B00070E0858D968D5CD9D8015D968D919C9167
:1008C0005E977ED981EA91E0D6D223E2FC012E9F89
:1008D000C0012F9F900D1124892F99278695909301
:1008E0003201809331018731910518F037E120E022
:1008F00002C0382F292F3F8328878631910570F059
:100900009C01265131092931310510F029E130E0EF
:100910003E832D838E32910520F40CC01E821D82F1
:1009200009C08E978631910510F086E190E09C8396
:100930008B8302C01C821B8222E030E0AE01495F43
:100940005F4F64E070E0D8015D968D919C915E9759
:100950000FD9F801858D968D33D922E030E0AE01B4
:100960004B5F5F4F65E070E0D8015D968D919C9183
:100970005E97FED8F801858D968D22D922E030E071
:10098000AE014D5F5F4F66E070E0D8015D968D91DE
:100990009C915E97EDD8F801858D968D11D9D8017F
:1009A0005B968D919C915C97892BD1F159962D91F5
:1009B0003C915A975B968D919C915C97919581950E
:1009C0009109281739072CF45A961C921E925997B0
:1009D00012C0F801238D348D818D928D820F931F6B
:1009E000928F818F818D928D8536910520F084E6DE
:1009F00090E0928F818FD8015C961C921E925B973B
:100A0000A801475E5F4F22E030E063E070E05D9652
:100A10008D919C915E97ACD8F801858D968DD0D83C
:100A2000FFEF21EE44E0F15020404040E1F700C0EC
:100A300000004DC185E090E0909386008093850092
:100A400080E099E19A87898722E0AE01475F5F4F96
:100A500063E0D8015D968D919C915E977CD8F801FA
:100A6000858D968DADD8D80155968D919C915697D0
:100A700050969C938E931F9757968D919C91589763
:100A800052969C938E93519754961C921E92539714
:100A90006DE785EA91E098D180EA91E08ADB83E016
:100AA000F8017BC085E090E09093860080938500FC
:100AB00080E099E19A87898722E0AE01475F5F4F26
:100AC00063E0D8015D968D919C915E9744D8F801C2
:100AD000858D968D75D89EC080E097E19A8789872D
:100AE00022E0AE01475F5F4F63E0F801858D968D90
:100AF00032D8D8015D968D919C915E9761D885EA38
:100B000091E040D180EA91E058DBA8014B5E5F4F55
:100B100022E030E060E070E0F801858D968D28D805
:100B2000D8015D968D919C915E974AD8A801495E47
:100B30005F4F22E030E061E070E0F801858D968D36
:100B400017D8D8015D968D919C915E9739D8F801A0
:100B5000838994896AE070E08DD87A83698322E082
:100B600030E0AE014F5F5F4F62E070E0858D968DA3
:100B7000FFD7D8015D968D919C915E9721D8F801A1
:100B800085899689908B87878789908D928B818BB9
:100B9000148A138A128E118E81E0858798C080E0B6
:100BA0009AE19A87898722E0AE01475F5F4F63E051
:100BB000D8015D968D919C915E97CDD7F801858D7A
:100BC000968DFED785EA91E0DDD080EA91E0F5DAF6
:100BD00028C080E099E19A87898722E0AE01475FCB
:100BE0005F4F63E0F801858D968DB5D7D8015D968E
:100BF0008D919C915E97E4D785EA91E0C3D0F8018E
:100C000085899689908B87878789908D928B818B38
:100C1000148A138A6DE785EA91E0D6D080EA91E0E4
:100C2000C8DA83E0D8011D968C9351C080E097E12B
:100C30009A87898722E0AE01475F5F4F63E0F80142
:100C4000858D968D88D7D8015D968D919C915E9704
:100C5000B7D71A82198280918400882341F081E0FD
:100C600090E09A83898380EA91E0A5DA03C080EA64
:100C700091E0A5DA22E030E0AE014F5F5F4F67E020
:100C800070E0F801858D968D73D7D8015D968D91B2
:100C90009C915E9795D78091840091E089278093FD
:100CA0008400F801958713C080E097E19A878987CF
:100CB00022E0AE01475F5F4F63E0D8015D968D9102
:100CC0009C915E9748D7F801858D968D79D72A96A5
:100CD000DEBFCDBFDF91CF911F910F91089585EABF
:100CE00091E050D080EA91E068CAFC018389948940
:100CF000892BE1F481899289892B79F48785908900
:100D0000892B11F4CF01EBCF8CE390E0928B818B98
:100D1000878590890197908B878788EE93E0948BE5
:100D2000838B818992890197928B818B83899489A6
:100D30000897948B838B0895D8CF0F9361FBAA27D4
:100D4000A0F9B0E033E0AA0FBB1F3A95E1F7E62F18
:100D5000E170F0E056E0EE0FFF1F5A95E1F7EA2B45
:100D6000E22B20E1429FA00111244E2B011102C071
:100D7000E0E001C0E0E84E2B45BDFC0112820F917E
:100D80000895089529B72F7729BFFC01128208958D
:100D900008950895089563BD089508950895709382
:100DA0003C0160933B0150936201409361010895BF
:100DB000089570933A016093390150936001409314
:100DC0005F01089508950895FC018281811106C094
:100DD00064BD99B7906899BF81E082830895CF93ED
:100DE000DF93EC016FD085EB90E099838883DF91EE
:100DF000CF91089525EB30E0FC013183208368C05A
:100E000082B5662311F0886001C0877F82BD089596
:100E1000EF920F93FC0187B190E4699FB001112418
:100E2000482B011102C030E001C030E2642B632B7B
:100E300067B936B1E11002C090E001C090E23868B5
:100E4000232B922B96B98FE397E0909350018093D8
:100E50004F01F0937601E09375010F91EF900895A3
:100E6000369A08957093500160934F015093760124
:100E7000409375010895FC01828193810895DC01FE
:100E8000ED91FC910084F185E02D099424B135B1F8
:100E9000FC0133832283089527ED30E0FC01318388
:100EA0002083089508950895089508950895089554
:100EB000089508950895089508950895089508954A
:100EC0000895089525EE30E0FC01318320830895D4
:100ED00008950895089527E031E0FC0131832083CF
:100EE000089508951F920F920FB60F9211242F9319
:100EF0003F934F935F936F937F938F939F93AF93A2
:100F0000BF93EF93FF93E0913501F0913601309755
:100F100029F080915B0190915C010995FF91EF911F
:100F2000BF91AF919F918F917F916F915F914F9101
:100F30003F912F910F900FBE0F901F9018951F9209
:100F40000F920FB60F9211242F933F934F935F93FD
:100F50006F937F938F939F93AF93BF93EF93FF9381
:100F6000E0913701F0913801309729F080915D01CF
:100F700090915E010995FF91EF91BF91AF919F9183
:100F80008F917F916F915F914F913F912F910F9032
:100F90000FBE0F901F9018951F920F920FB60F92D1
:100FA00011242F933F934F935F936F937F938F936E
:100FB0009F93AF93BF93EF93FF93E0913901F0912B
:100FC0003A01309729F080915F0190916001099575
:100FD000FF91EF91BF91AF919F918F917F916F9111
:100FE0005F914F913F912F910F900FBE0F901F90E7
:100FF00018951F920F920FB60F9211242F933F93C3
:101000004F935F936F937F938F939F93AF93BF9310
:10101000EF93FF93E0913B01F0913C01309729F071
:1010200080916101909162010995FF91EF91BF91CB
:10103000AF919F918F917F916F915F914F913F9170
:101040002F910F900FBE0F901F9018951F920F9227
:101050000FB60F9211242F933F934F935F936F938B
:101060007F938F939F93AF93BF93EF93FF93E09101
:101070003D01F0913E01309729F0809163019091FC
:1010800064010995FF91EF91BF91AF919F918F916D
:101090007F916F915F914F913F912F910F900FBE74
:1010A0000F901F9018951F920F920FB60F92112458
:1010B0002F933F934F935F936F937F938F939F9360
:1010C000AF93BF93EF93FF93E0913F01F091400105
:1010D000309729F080916501909166010995FF9103
:1010E000EF91BF91AF919F918F917F916F915F91A0
:1010F0004F913F912F910F900FBE0F901F90189519
:101100001F920F920FB60F9211242F933F934F937C
:101110005F936F937F938F939F93AF93BF93EF935F
:10112000FF93E0914101F0914201309729F08091C5
:101130006701909168010995FF91EF91BF91AF917F
:101140009F918F917F916F915F914F913F912F91DF
:101150000F900FBE0F901F9018951F920F920FB611
:101160000F9211242F933F934F935F936F937F932D
:101170008F939F93AF93BF93EF93FF93E0914301BE
:10118000F0914401309729F08091690190916A01B2
:101190000995FF91EF91BF91AF919F918F917F91B1
:1011A0006F915F914F913F912F910F900FBE0F90D4
:1011B0001F9018951F920F920FB60F9211242F9324
:1011C0003F934F935F936F937F938F939F93AF93CF
:1011D000BF93EF93FF93E0914501F0914601309763
:1011E00029F080916B0190916C010995FF91EF912D
:1011F000BF91AF919F918F917F916F915F914F912F
:101200003F912F910F900FBE0F901F9018951F9236
:101210000F920FB60F9211242F933F934F935F932A
:101220006F937F938F939F93AF93BF93EF93FF93AE
:10123000E0914701F0914801309729F080916D01CC
:1012400090916E010995FF91EF91BF91AF919F91A0
:101250008F917F916F915F914F913F912F910F905F
:101260000FBE0F901F9018951F920F920FB60F92FE
:1012700011242F933F934F935F936F937F938F939B
:101280009F93AF93BF93EF93FF93E0914901F09148
:101290004A01309729F080916F0190917001099572
:1012A000FF91EF91BF91AF919F918F917F916F913E
:1012B0005F914F913F912F910F900FBE0F901F9014
:1012C00018951F920F920FB60F9211242F933F93F0
:1012D0004F935F936F937F938F939F93AF93BF933E
:1012E000EF93FF93E0914B01F0914C01309729F07F
:1012F00080917101909172010995FF91EF91BF91D9
:10130000AF919F918F917F916F915F914F913F919D
:101310002F910F900FBE0F901F9018951F920F9254
:101320000FB60F9211242F933F934F935F936F93B8
:101330007F938F939F93AF93BF93EF93FF93E0912E
:101340004D01F0914E01309729F0809173019091F9
:1013500074010995FF91EF91BF91AF919F918F918A
:101360007F916F915F914F913F912F910F900FBEA1
:101370000F901F9018951F920F920FB60F92112485
:101380002F933F934F935F936F937F938F939F938D
:10139000AF93BF93EF93FF93E0914F01F091500112
:1013A000309729F080917501909176010995FF9110
:1013B000EF91BF91AF919F918F917F916F915F91CD
:1013C0004F913F912F910F900FBE0F901F90189546
:1013D0001F920F920FB60F9211242F933F934F93AA
:1013E0005F936F937F938F939F93AF93BF93EF938D
:1013F000FF93E0915101F0915201309729F08091D3
:101400007701909178010995FF91EF91BF91AF918C
:101410009F918F917F916F915F914F913F912F910C
:101420000F900FBE0F901F9018951F920F920FB63E
:101430000F9211242F933F934F935F936F937F935A
:101440008F939F93AF93BF93EF93FF93E0915301DB
:10145000F0915401309729F08091790190917A01AF
:101460000995FF91EF91BF91AF919F918F917F91DE
:101470006F915F914F913F912F910F900FBE0F9001
:101480001F9018951F920F920FB60F9211242F9351
:101490003F934F935F936F937F938F939F93AF93FC
:1014A000BF93EF93FF93E0915501F0915601309770
:1014B00029F080917B0190917C010995FF91EF913A
:1014C000BF91AF919F918F917F916F915F914F915C
:1014D0003F912F910F900FBE0F901F9018951F9264
:1014E0000F920FB60F9211242F933F934F935F9358
:1014F0006F937F938F939F93AF93BF93EF93FF93DC
:10150000E0915701F0915801309729F080917D01C9
:1015100090917E010995FF91EF91BF91AF919F91BD
:101520008F917F916F915F914F913F912F910F908C
:101530000FBE0F901F901895FFCF81EC91E026D63B
:1015400088EA91E09CD185EA91E049DC81EA91E06A
:10155000A3DC80EA91E02BD681E891E0D4C681E853
:1015600091E0D7D680EA91E023D681EA91E09ADC37
:1015700085EA91E03FDC88EA91E0D4D181EC91E00A
:1015800010C6EF920F931F93F89480EA91E020D653
:1015900080EA91E012D680EA91E011D641E851E06C
:1015A0006DEA72E080EA91E040D641E851E06CEAF1
:1015B00072E080EA91E046D601E020E040E069E098
:1015C00081EC91E090D500E027E042E062E085EA1E
:1015D00091E0B3DB60E085EA91E012DC41E851E0A4
:1015E0006CE976E085EA91E0E4DB6DE785EA91E07D
:1015F000D2DBEE24E39427E040E061E081EA91E071
:1016000007DC81EA91E02CDC00E011E020E031E031
:1016100041E851E061EC71E088EA91E036D168EA96
:1016200071E081E891E07BD678941F910F91EF9063
:101630000895A7DF2FEF87EA91E621508040904080
:10164000E1F700C0000081E891E082D6C2E3D0E07B
:101650008FE99FE00197F1F700C0000080917F01C2
:10166000909180019C012F5F3F4F30938001209328
:101670007F01BE01FFD2892B59F781E891E06ED737
:10168000E7CFCF93DF93FC01A481B5818AEA8C93E5
:10169000A481B5818CEC11968C93A481B58182E0F4
:1016A000820F12968C93A481B58180E813968C9357
:1016B000A481B58114966C9385E0820F8187DA014D
:1016C00080E090E030E08217930740F44D91C481B0
:1016D000D581C80FD91F4D830196F5CFDF91CF91EA
:1016E0000895FC01A481B5818AEA8C93A481B58117
:1016F0008CEC11968C93A481B58183E012968C9327
:10170000A481B58181E813968C93A481B581149648
:101710006C93A481B58115964C9386E081870895DA
:101720000F931F93CF93DF93FC01A481B5818AEAC5
:101730008C93A481B5818CEC11968C93A481B58196
:1017400083E0820F12968C93A481B58182E8139670
:101750008C93A481B58114967C93A481B581159650
:101760006C9386E0820F818736952795DA0186E0B3
:1017700090E040E050E042175307B1F0C481D581BA
:10178000C80FD91F11961C9111971883C481D58158
:101790008E01080F191FED0168811296E801698317
:1017A0004F5F5F4F0296E7CFDF91CF911F910F916F
:1017B0000895FC01A481B5818AEA8C93A481B58146
:1017C0008CEC11968C93A481B58184E012968C9355
:1017D000A481B58183E813968C93A481B581149676
:1017E0007C93A481B58115966C93A481B5811696DE
:1017F0004C9387E0818708950F931F93CF93DF93D6
:10180000EC01CB018A0178876F835B874A874CD2D2
:101810009B838A83C80148D29D838C8319861E824C
:10182000DF91CF911F910F910895CF93DF93EC013A
:101830008A819B81CED28C819D81DF91CF91C9C25B
:101840000895DC0157968D919C915897009739F037
:10185000DC01ED91FC910280F381E02D0994089563
:10186000DC0157968D919C915897009739F0DC01D7
:10187000ED91FC910480F581E02D099408952BE110
:1018800031E0FC01318320830895CF92DF92EF9203
:10189000FF920F931F93CF93DF93EC017B016A01BB
:1018A000C90138872F831B870A87FED19B838A83D0
:1018B000C801FAD19D838C831D8A19861F861E82DA
:1018C000198A188A1B8A1A8A87E08E8782E08C8B95
:1018D0001E8AFD86EC86D701ED91FC910484F58586
:1018E000E02D44E35DE0BE01C7010995D701ED910C
:1018F000FC910684F785E02D46E95DE0BE01C70155
:101900000995C114D10419F0D88ECF8A02C0D88F9E
:10191000CF8BDF91CF911F910F91FF90EF90DF90D0
:10192000CF9008952BE131E0FC013183208388CFF3
:101930000F931F93CF93DF93DC011E96EC910E2F34
:1019400010E00B30110508F08AC0EC01F801EF5BE4
:10195000FF4F09946A3A31F482E07EC06C3C11F486
:1019600083E07AC081E078C06E831F861B8A1A8A62
:101970001092C4011092C30184E06EC08F85EA8189
:10198000FB81E80FF11D60838F8590E02F81388502
:101990002817390708F45FC08A899B898627682F32
:1019A00062956827062E669566956025062E6695D3
:1019B00060256770082E892F669507946795902D8E
:1019C000862706946795902586279B8B8A8B8F8523
:1019D0008F5F8F878091C3019091C401019690938E
:1019E000C4018093C3014F858E81481338C088E0BD
:1019F0008E87E881F98114C070E0798B688B86E06E
:101A00002BC088899989962B998B888B2A893B8949
:101A10002817390701F588E08E87E881F9814E8122
:101A200050E06A817B810190F081E02DCE01099523
:101A30008F89988D009799F0DC01ED91FC914E8192
:101A400050E06A817B810190F081E02DDF91CF91A0
:101A50001F910F91099489E08E8701C01E8ADF9142
:101A6000CF911F910F910895CF93DF93EC018C8557
:101A70009D85DC01ED91FC910280F381E02D0995BB
:101A8000682FCE01DF91CF9153CFFC0117861682CC
:101A9000118A108A138A128A16860895CF93DF93CB
:101AA000EC018C89843038F48230B8F5882331F029
:101AB0008130D1F038C0853081F135C081E08C8B28
:101AC0001D8A8C859D852D89DC01ED91FC91AC8171
:101AD000BD81A20FB11D0480F581E02D6C910995A7
:101AE0008D898F5F8D8B1FC08C859D852D89DC0135
:101AF000ED91FC91AC81BD81A20FB11D0480F581F7
:101B0000E02D6C9109958D898F5F8D8B9D898985DD
:101B1000981309C083E08C8B06C08E89882311F04E
:101B2000CE01B3DF1E8ADF91CF910895B7CFFC01BC
:101B30008685883041F08685893039F086858A30FF
:101B4000B9F783E0089581E0089582E00895FC01EB
:101B5000158A148AA3CFCF93DF93EC01E881F98132
:101B60000284F385E02D0995CE01DF91CF91EFCF6F
:101B7000CF93DF93EC01E881F9810684F785E02DAE
:101B80000995CE01DF91CF91E2CFCF93DF93EC01A6
:101B9000E881F9810484F585E02D0995CE01DF9176
:101BA000CF91D5CFCF93DF93EC01E881F98150E05D
:101BB0000088F189E02D0995CE01DF91CF91C7CF43
:101BC000FC018489833041F08489843039F0848930
:101BD0008530B9F783E0089581E0089582E00895A3
:101BE00021E0FC01268BD1CF21E0FC01268BDACF4E
:101BF0000F931F93CF93DF938C01EB018881813882
:101C000069F4D801ED91FC910480F581E02D2A81E1
:101C1000AB014D5F5F4F6981C801099588818338A9
:101C2000B9F4D801ED91FC912B8130E0AE014C5F0D
:101C30005F4F698170E0762F66278A81682B02806A
:101C4000F381E02DC801DF91CF911F910F9109948D
:101C5000DF91CF911F910F910895CACF991B79E021
:101C600004C0991F961708F0961B881F7A95C9F72C
:101C700080950895AA1BBB1B51E107C0AA1FBB1F7B
:101C8000A617B70710F0A61BB70B881F991F5A9508
:101C9000A9F780959095BC01CD010895EE0FFF1F27
:101CA0000590F491E02D0994CF93DF938230910554
:101CB00010F482E090E0E091C701F091C80120E0CB
:101CC00030E0C0E0D0E0309711F1408151814817F9
:101CD0005907C0F04817590761F482819381209712
:101CE00019F09B838A832BC09093C8018093C7010E
:101CF00026C02115310519F04217530718F49A012F
:101D0000BE01DF01EF010280F381E02DDCCF211560
:101D1000310509F1281B390B2430310590F4129656
:101D20008D919C9113976115710521F0FB019383AF
:101D3000828304C09093C8018093C701FD0132964D
:101D400044C0FD01E20FF31F8193919322503109AA
:101D50002D933C933AC02091C5013091C601232BAD
:101D600041F420916200309163003093C6012093CA
:101D7000C50120916000309161002115310541F4C9
:101D80002DB73EB74091640050916500241B350B80
:101D9000E091C501F091C601E217F307A0F42E1BF4
:101DA0003F0B2817390778F0AC014E5F5F4F2417BF
:101DB000350748F04E0F5F1F5093C6014093C50191
:101DC0008193919302C0E0E0F0E0CF01DF91CF91E9
:101DD00008950F931F93CF93DF93009709F48CC05E
:101DE000FC013297138212820091C7011091C80141
:101DF0000115110581F420813181820F931F2091FB
:101E0000C5013091C6012817390779F5F093C6014D
:101E1000E093C50171C0D80140E050E0AE17BF07A4
:101E200050F412962D913C911397AD012115310577
:101E300009F1D901F3CF9D01DA0133832283608157
:101E40007181860F971F8217930769F4EC0128812F
:101E50003981260F371F2E5F3F4F318320838A81C0
:101E60009B8193838283452B29F4F093C801E093EF
:101E7000C70142C01396FC93EE931297ED0149916E
:101E800059919E01240F351FE217F30771F48081E9
:101E90009181840F951F029611969C938E93828157
:101EA000938113969C938E931297E0E0F0E0D80113
:101EB00012968D919C911397009719F0F8018C015F
:101EC000F6CF8D919C9198012E5F3F4F820F931F0B
:101ED0002091C5013091C6012817390769F4309760
:101EE00029F41092C8011092C70102C01382128215
:101EF0001093C6010093C501DF91CF911F910F91FF
:101F0000089510E0CDE4D0E003C0FE01C7DE2196C5
:0A1F1000CE34D107D1F7F894FFCFCB
:101F1A000000C90120004003A001CF008A00670029
:101F2A0044003300220019001000080007000300D3
:101F3A00010001000105000000000073009C009EE2
:101F4A0000B200B900BF00A000A900000000002BE9
:101F5A00012C014801FC0B150C410B710B900BD99C
:101F6A000B000000009D06E406C106C206C806C9A9
:101F7A0006CA06CB06CD06CE06CF06D806D906E295
:101F8A0006E306000000000807300732073B074651
:101F9A00070000000053075407550756075707580C
:101FAA000759075A075B075C075D075E075F07600B
:101FBA00076107000000009C0A9C0A9C0A9C0A9C74
:101FCA000A9C0A69076A07000000002D0E210C30DE
:0E1FDA000CFC0B150C410B710B900BD90B007E
:00000001FF
