S0170000456C656374726F706F726174696F6E2E73726563D3
S11300004DC050C77CC7A8C7D4C700C82CC858C89F
S113001084C8B0C8DCC808C934C960C98CC9B8C9A7
S1130020E4C910CA3CCA30C155C154C153C152C1FC
S113003051C150C14FC14EC14DC14CC14BC14AC148
S113004049C148C147C146C145C144C143C142C178
S113005041C140C11CC13EC11EC13CC13BC123C101
S113006032C125C128C12BC11AC131C1B5C2B7C221
S1130070CAC3F9C3B1C4E9C476C50CC592C5BEC52B
S1130080E4C559CC58CC5FCC66CC70CCC7CCCDCCB5
S1130090F8CCF7CCF5CCF4CC7D0A930A11241FBE1E
S11300A0CFE5D4E0DEBFCDBF11E0A0E6B0E0E2E2F0
S11300B0FFE102C005900D92AC32B107D9F721E0FF
S11300C0ACE2B1E001C01D92AC3CB207E1F710E034
S11300D0CDE4D0E003C02197FE01E4DDCC34D107A8
S11300E0D1F78FDA12CF089508950F93899A8898DB
S11300F082B382BB82E08BB9413019F0423019F0EF
S113010004C080E203C080E301C080E0213009F430
S1130110886098ED9AB9011102C090E401C090E0A2
S11301208660892B80BDE62FF0E0EE0FFF1FEA59B1
S1130130FF4F9081818199B980BD0F9108958CB151
S113014008956CB9089570936C0160936B0150939A
S113015046014093450108957093700160936F01C7
S113016050934A014093490108958BB186FB882737
S113017080F991E0892708958BB18095881F88279D
S1130180881F08958BB185FB882780F991E0892722
S11301900895CF93DF93EC017ED689E890E09983AC
S11301A08883DF91CF91089529E830E0FC01318301
S11301B0208377D6089508950895A99A0895979A63
S11301C00895A9980895979808958EE287BB18BA60
S11301D01EB88BE58DB9089515BA12BA22E024BB76
S11301E020E821BBF2DFC198B99A83E88FBD89E08A
S11301F08EBD89B7846089BF8FEF90E09BBD8ABDB7
S113020099BD88BD08956FB9779BFECF08950F936C
S11302101F93CF938C01C62FC29A672F6095F3DF8B
S11302206C2F6095C801EFDFC298CF911F910F9199
S113023008958CE085BF80E88BBF70933401609390
S1130240330150935A01409359010895709340012A
S113025060933F01509366014093650108950895AA
S1130260DC01633029F4FA0181811D968C931D977A
S11302701D96EC911D974E2F50E04332510550F5D9
S1130280FA01ED5EFF4F09941C961C92089581E0DB
S11302901C968C93089583E01C968C93089585E0B6
S11302A01C968C93089584E01C968C93089586E0A4
S11302B01C968C93089588E01C968C93089587E08F
S11302C01C968C93089589E01C968C9308958AE07B
S11302D01C968C930895FA012081318132272327BB
S11302E032276130710559F020F06330710569F0EF
S11302F00895FC01358B248B378726870895FC01EC
S1130300378B268B318B208B0895FC01318F208F06
S113031008952DE930E0FC013183208308952DE90F
S113032030E0FC01318320837EDA0895FC01758F6F
S1130330648F158681E090E0958B848B8EE190E04C
S1130340978B868B138A128A8489958997878687E7
S113035086899789918B808B118E108E08950F93C7
S11303601F93CF93DF93CDB7DEB728970FB6F894DA
S1130370DEBF0FBECDBF8C0180E091E098878F83F4
S113038022E0AE01495F5F4F63E0F801848D958DF3
S1130390F6DBF801848D958D2BDCA8014C5E5F4F54
S11303A022E030E060E070E0F801848D958DF5DBAB
S11303B0F801848D958D1CDCA8014A5E5F4F22E014
S11303C030E061E070E0F801848D958DE6DBF801A2
S11303D0848D958D0DDCA8014E5E5F4F22E030E0E8
S11303E062E070E0F801848D958DD7DBF801848D8F
S11303F0958DFEDBF801118E108EA801485E5F4FCB
S113040022E030E063E070E0848D958DC6DBF80176
S1130410848D958DEDDB1E821D828BE090E09C83A4
S11304208B8387E190E09A83898322E030E0AE01F8
S11304304B5F5F4F64E070E0F801848D958DADDB18
S1130440F801848D958DD4DB22E030E0AE014D5F60
S11304505F4F65E070E0F801848D958D9EDBF801B7
S1130460848D958DC5DB22E030E0AE014F5F5F4F98
S113047066E070E0F801848D958D8FDBF801848D42
S1130480958DB6DB60E070E083EA91E0C0DE81E048
S1130490F8018487138E128E28960FB6F894DEBF67
S11304A00FBECDBFDF91CF911F910F910895869B11
S11304B008C0FC01228D338D2F5F3F4F338F228F75
S11304C00895FC01228D338D21503109338F228F01
S11304D00895FC0190912C019F5F90932C0198B793
S11304E0947098BF8485813011F0833071F5808DCC
S11304F0918D228D338D3195219531098217930782
S113050054F0228D338D820F931F8536910528F088
S113051084E690E002C080E090E02FEF289FA001E5
S1130520299F500D11249A01AFEAB7E4AFDB481BB1
S1130530590B56954795840F951F929582958F7008
S113054089279F7089279BBD8ABD0895C2DF0895BE
S1130550AEDF08950F931F93CF93DF93CDB7DEB72C
S11305602A970FB6F894DEBF0FBECDBF8C0142E0D0
S113057063E0DC015C968D919C915D974ADBF80108
S1130580848D958D35DBD8015C968D919C915D971A
S1130590E0DABFEFE0E7F2E0B150E040F040E1F72D
S11305A000C000001E821D821C821B821A821982D6
S11305B0D8011C96EC911C97E13089F05B961C9253
S11305C01E925A978E2F90E08B30910508F050C3FD
S11305D0FC01EA5CFF4F0994C801C1DE49C342E053
S11305E060E070E0F801848D958D18DBD8015C968D
S11305F08D919C915D97FCDAF801848D958DA9DA33
S11306008FE39CE90197F1F700C0000042E061E04C
S113061070E0D8015C968D919C915D97FFDAF801AA
S1130620848D958DE5DAD8015C968D919C915D97CA
S113063090DAEFE3FCE93197F1F700C0000042E003
S113064063E070E0D8015C968D919C915D97E6DA49
S1130650F801848D958DCCDAD8015C968D919C91AE
S11306605D9777DAEFE3FCE93197F1F700C000001A
S1130670D80158968D919C91599742E2489F9001D8
S1130680499F300D11243695279536952795ABE76C
S1130690B4E1FCDA9695879590932E0180932D0111
S11306A08C30910518F03CE020E002C0382F292F4F
S11306B03D832E839C018B30910510F42BE030E0B8
S11306C02831310510F028E130E03C832B83873159
S11306D0910510F487E190E08232910510F082E2F6
S11306E090E09A83898322E030E0AE014B5F5F4F54
S11306F064E070E0F801848D958D4FDAD8015C9642
S11307008D919C915D9774DA22E030E0AE014D5FEB
S11307105F4F65E070E0F801848D958D3EDAD80175
S11307205C968D919C915D9763DA22E030E0AE0196
S11307304F5F5F4F66E070E0F801848D958D2DDA90
S1130740D8015C968D919C915D9752DAF801408DA9
S1130750518D542F4427550F9A01AFEAB7E496DA26
S1130760481B590B56954795BC01640F751F72952C
S113077062956F7067277F70672783EA91E047DD92
S1130780D8015A968D919C915B97892B09F470C27C
S113079058962D913C9159975A968D919C915B97BF
S11307A0919581959109281739072CF459961C9233
S11307B01E92589712C0F801228D338D808D918D31
S11307C0820F931F918F808F808D918D8536910537
S11307D020F084E690E0918F808FD8015B961C9284
S11307E01E925A97A801485E5F4F22E030E063E012
S11307F070E05C968D919C915D97CFD9F801848DC2
S1130800958DF6D935C2809183009091840001962C
S11308108A30910528F490938400809383000AC061
S113082089E090E0909384008093830083E0D80172
S11308301C968C938091830090918400982789273B
S113084098279A87898722E0AE01475F5F4F63E06C
S1130850F801848D958D93D9D8015C968D919C91E6
S11308605D97C6D905C222E030E0A801425F5F4F20
S113087060E070E0F801848D958D8FD9D8015C9685
S11308808D919C915D97B4D922E030E0A801405F3E
S11308905F4F61E070E0F801848D958D7ED9D801B9
S11308A05C968D919C915D97A3D9F8012289338937
S11308B0ADECBCECEBD99695879596958795969576
S11308C0879598878F8322E030E0AE01495F5F4FC0
S11308D062E070E0848D958D60D9D8015C968D912D
S11308E09C915D9785D922E030E0A801485E5F4F76
S11308F063E070E0F801848D958D4FD9D8015C9642
S11309008D919C915D9774D9F801808D918D42E20F
S1130910489F9001499F300D1124369527953695AF
S11309202795ABE7B4E1B2D99695879590932E01BC
S113093080932D018C30910518F03CE020E002C03A
S1130940382F292F3D832E839C018B30910510F481
S11309502BE030E02831310510F028E130E03C8311
S11309602B838731910510F487E190E09A83898382
S113097022E030E0AE014B5F5F4F64E070E0D801ED
S11309805C968D919C915D9708D9F801848D958D25
S11309902FD922E030E0AE014D5F5F4F65E070E09B
S11309A0D8015C968D919C915D97F7D8F801848D60
S11309B0958D1ED922E030E0AE014F5F5F4F66E0B7
S11309C070E0D8015C968D919C915D97E6D8F80112
S11309D0848D958D0DD94CC185E090E09093840071
S11309E08093830080E099E19A87898722E0AE01B1
S11309F0475F5F4F63E0D8015C968D919C915D9752
S1130A00BED8F801848D958DF3D8D80154968D9174
S1130A109C9155971F969C938E931E9756968D91F5
S1130A209C91579751969C938E93509753961C92F2
S1130A301E9252976DE788EA91E07FD183EA91E0B4
S1130A40BCDB83E0F801848713C185E090E09093D8
S1130A5084008093830080E099E19A87898722E06B
S1130A60AE01475F5F4F63E0D8015C968D919C9126
S1130A705D9785D8F801848D958DBAD86DE788EA9D
S1130A8091E05BD183EA91E098DB83E0D8011C9686
S1130A908C93EEC080E097E19A87898722E0AE01CB
S1130AA0475F5F4F63E0F801848D958D68D8D80166
S1130AB05C968D919C915D979BD888EA91E049D191
S1130AC083EA91E07EDBA8014C5E5F4F22E030E0D8
S1130AD060E070E0F801848D958D5FD8D8015C9654
S1130AE08D919C915D9784D8A8014A5E5F4F22E066
S1130AF030E061E070E0F801848D958D4ED8D80126
S1130B005C968D919C915D9773D8F8012289338905
S1130B10ADECBCECBBD89695879596958795969544
S1130B20879598878F8322E030E0AE01495F5F4F5D
S1130B3062E070E0848D958D30D8D8015C968D91FB
S1130B409C915D9755D8F801848995899787868704
S1130B5086899789918B808B138A128A118E108EC5
S1130B6081E0848785C080E09AE19A87898722E0C2
S1130B70AE01475F5F4F63E0D8015C968D919C9115
S1130B805D97FDD7F801848D958D32D888EA91E080
S1130B90E0D083EA91E015DB83E0D8011C968C93C6
S1130BA067C080E099E19A87898722E0AE01475FB8
S1130BB05F4F63E0F801848D958DE1D7D8015C9691
S1130BC08D919C915D9714D888EA91E0C2D0F80188
S1130BD0848995899787868786899789918B808B65
S1130BE0138A128A6DE788EA91E0A7D083EA91E03C
S1130BF0E4DA83E0D8011C968C933AC080E097E154
S1130C009A87898722E0AE01475F5F4F63E0F8016E
S1130C10848D958DB4D7D8015C968D919C915D9708
S1130C20E7D780918200882321F083EA91E0C7DA34
S1130C3003C083EA91E0C7DA8091820091E08927BA
S1130C4080938200F801948713C080E097E19A872B
S1130C50898722E0AE01475F5F4F63E0D8015C966D
S1130C608D919C915D978BD7F801848D958DC0D71C
S1130C702A960FB6F894DEBF0FBECDBFDF91CF9199
S1130C801F910F91089588EA91E063D083EA91E07F
S1130C9098DA0895FC0182899389892BE9F4808983
S1130CA09189892B81F486859785892B19F4CF0145
S1130CB0EADF08958CE390E0918B808B868597859D
S1130CC001979787868788EE93E0938B828B808940
S1130CD091890197918B808B828993890897938B53
S1130CE0828B0895D7DF08950F9361FBAA27A0F99B
S1130CF0B0E0AA0FBB1FAA0FBB1FAA0FBB1FE62F92
S1130D00E170F0E00024F695E7950794F695E795F1
S1130D100794FE2FE02DEA2BE22B20E1429FA00155
S1130D2011244E2B011102C0E0E001C0E0E84E2B7B
S1130D3045BDFC0112820F910895FC01228121110D
S1130D4006C064BD29B7206829BF21E02283089525
S1130D50089529B72F7729BFFC01128208950895B9
S1130D600895089563BD0895089508957093380112
S1130D706093370150935E0140935D010895089597
S1130D80709336016093350150935C0140935B018D
S1130D90089508950895CF93DF93EC0173D083EB06
S1130DA090E099838883DF91CF91089523EB30E01D
S1130DB0FC01318320836CD00895662321F082B531
S1130DC0886082BD089582B5877F82BD0895EF92C1
S1130DD00F93FC0187B190E4699FB0011124482B63
S1130DE0011102C090E001C090E2642B692B67B945
S1130DF036B1E11002C090E001C090E23868232BC4
S1130E00292B26B98EE197E090934C0180934B01F6
S1130E10F0937201E09371010F91EF900895369A67
S1130E20089570934C0160934B0150937201409369
S1130E3071010895FC01828193810895DC01ED9193
S1130E40FC910084F185E02D0995089524B135B114
S1130E50FC0133832283089525ED30E0FC013183C6
S1130E602083089508950895089508950895089590
S1130E700895089508950895089508950895089586
S1130E800895089523EE30E0FC0131832083089512
S1130E9008950895089525E031E0FC01318320830D
S1130EA0089508951F920F920FB60F9211242F9355
S1130EB03F934F935F936F937F938F939F93AF93DE
S1130EC0BF93EF93FF93E0913101F091320130979A
S1130ED029F080915701909158010995FF91EF9164
S1130EE0BF91AF919F918F917F916F915F914F913E
S1130EF03F912F910F900FBE0F901F9018951F9246
S1130F000F920FB60F9211242F933F934F935F9339
S1130F106F937F938F939F93AF93BF93EF93FF93BD
S1130F20E0913301F0913401309729F08091590117
S1130F3090915A010995FF91EF91BF91AF919F91C3
S1130F408F917F916F915F914F913F912F910F906E
S1130F500FBE0F901F9018951F920F920FB60F920D
S1130F6011242F933F934F935F936F937F938F93AA
S1130F709F93AF93BF93EF93FF93E0913501F0916B
S1130F803601309729F080915B0190915C010995BD
S1130F90FF91EF91BF91AF919F918F917F916F914D
S1130FA05F914F913F912F910F900FBE0F901F9023
S1130FB018951F920F920FB60F9211242F933F93FF
S1130FC04F935F936F937F938F939F93AF93BF934D
S1130FD0EF93FF93E0913701F0913801309729F0B6
S1130FE080915D0190915E010995FF91EF91BF9110
S1130FF0AF919F918F917F916F915F914F913F91AD
S11310002F910F900FBE0F901F9018951F920F9263
S11310100FB60F9211242F933F934F935F936F93C7
S11310207F938F939F93AF93BF93EF93FF93E0913D
S11310303901F0913A01309729F080915F01909144
S113104060010995FF91EF91BF91AF919F918F91AD
S11310507F916F915F914F913F912F910F900FBEB0
S11310600F901F9018951F920F920FB60F92112494
S11310702F933F934F935F936F937F938F939F939C
S1131080AF93BF93EF93FF93E0913B01F0913C0149
S1131090309729F080916101909162010995FF9147
S11310A0EF91BF91AF919F918F917F916F915F91DC
S11310B04F913F912F910F900FBE0F901F90189555
S11310C01F920F920FB60F9211242F933F934F93B9
S11310D05F936F937F938F939F93AF93BF93EF939C
S11310E0FF93E0913D01F0913E01309729F080910A
S11310F06301909164010995FF91EF91BF91AF91C4
S11311009F918F917F916F915F914F913F912F911B
S11311100F900FBE0F901F9018951F920F920FB64D
S11311200F9211242F933F934F935F936F937F9369
S11311308F939F93AF93BF93EF93FF93E0913F01FE
S1131140F0914001309729F08091650190916601FA
S11311500995FF91EF91BF91AF919F918F917F91ED
S11311606F915F914F913F912F910F900FBE0F9010
S11311701F9018951F920F920FB60F9211242F9360
S11311803F934F935F936F937F938F939F93AF930B
S1131190BF93EF93FF93E0914101F09142013097A7
S11311A029F080916701909168010995FF91EF9171
S11311B0BF91AF919F918F917F916F915F914F916B
S11311C03F912F910F900FBE0F901F9018951F9273
S11311D00F920FB60F9211242F933F934F935F9367
S11311E06F937F938F939F93AF93BF93EF93FF93EB
S11311F0E0914301F0914401309729F08091690115
S113120090916A010995FF91EF91BF91AF919F91E0
S11312108F917F916F915F914F913F912F910F909B
S11312200FBE0F901F9018951F920F920FB60F923A
S113123011242F933F934F935F936F937F938F93D7
S11312409F93AF93BF93EF93FF93E0914501F09188
S11312504601309729F080916B0190916C010995BA
S1131260FF91EF91BF91AF919F918F917F916F917A
S11312705F914F913F912F910F900FBE0F901F9050
S113128018951F920F920FB60F9211242F933F932C
S11312904F935F936F937F938F939F93AF93BF937A
S11312A0EF93FF93E0914701F0914801309729F0C3
S11312B080916D0190916E010995FF91EF91BF911D
S11312C0AF919F918F917F916F915F914F913F91DA
S11312D02F910F900FBE0F901F9018951F920F9291
S11312E00FB60F9211242F933F934F935F936F93F5
S11312F07F938F939F93AF93BF93EF93FF93E0916B
S11313004901F0914A01309729F080916F01909141
S113131070010995FF91EF91BF91AF919F918F91CA
S11313207F916F915F914F913F912F910F900FBEDD
S11313300F901F9018951F920F920FB60F921124C1
S11313402F933F934F935F936F937F938F939F93C9
S1131350AF93BF93EF93FF93E0914B01F0914C0156
S1131360309729F080917101909172010995FF9154
S1131370EF91BF91AF919F918F917F916F915F9109
S11313804F913F912F910F900FBE0F901F90189582
S11313901F920F920FB60F9211242F933F934F93E6
S11313A05F936F937F938F939F93AF93BF93EF93C9
S11313B0FF93E0914D01F0914E01309729F0809117
S11313C07301909174010995FF91EF91BF91AF91D1
S11313D09F918F917F916F915F914F913F912F9149
S11313E00F900FBE0F901F9018951F920F920FB67B
S11313F00F9211242F933F934F935F936F937F9397
S11314008F939F93AF93BF93EF93FF93E0914F011B
S1131410F0915001309729F08091750190917601F7
S11314200995FF91EF91BF91AF919F918F917F911A
S11314306F915F914F913F912F910F900FBE0F903D
S11314401F9018951F920F920FB60F9211242F938D
S11314503F934F935F936F937F938F939F93AF9338
S1131460BF93EF93FF93E0915101F09152013097B4
S113147029F080917701909178010995FF91EF917E
S1131480BF91AF919F918F917F916F915F914F9198
S11314903F912F910F900FBE0F901F9018951F92A0
S11314A00F920FB60F9211242F933F934F935F9394
S11314B06F937F938F939F93AF93BF93EF93FF9318
S11314C0E0915301F0915401309729F08091790112
S11314D090917A010995FF91EF91BF91AF919F91FE
S11314E08F917F916F915F914F913F912F910F90C9
S11314F00FBE0F901F901895FFCF84EC91E049D652
S11315008BEA91E0AFD188EA91E045DC84EA91E08E
S1131510A3DC83EA91E04FD685E891E0FAD68DE723
S113152091E0E1D508958DE791E0DED585E891E07D
S1131530F6D683EA91E040D684EA91E093DC88EA27
S113154091E034DC8BEA91E0E0D184EC91E02CD69C
S11315500895EF920F931F93F89483EA91E03CD699
S113156083EA91E02ED683EA91E02DD645E851E056
S113157068EA72E083EA91E05CD645E851E066EA05
S113158072E083EA91E062D601E020E040E069E0A5
S113159084EC91E0AAD500E027E042E062E088EA2A
S11315A091E0A2DB60E088EA91E007DC45E851E0E5
S11315B062E776E088EA91E0E3DB6DE788EA91E0B0
S11315C0D1DBEE24E39427E040E061E084EA91E09B
S11315D0FEDB84EA91E023DC00E011E020E031E06E
S11315E045E851E064EC71E08BEA91E041D16BEAAB
S11315F071E085E891E09AD678941F910F91EF906D
S11316000895A7DF2FEF87EA91E6215080409040AC
S1131610E1F700C0000085E891E0A1D6C2E38FE9BC
S11316209FE00197F1F700C0000040917B015091C9
S11316307C01CA01019690937C0180937B019A01FD
S113164036952795ABE7B4E121D396958795C89F46
S11316509001C99F300D11244217530701F785E803
S113166091E078D7DCCFCF93DF93EC01EC81FD815F
S11316708AEA8083EC81FD818CEC8183EC81FD819D
S113168082E0820F8283EC81FD8180E88383EC8198
S1131690FD81648385E0820F898730E0211531055F
S11316A081F0DA01420F531F65E070E09D91EC81F7
S11316B0FD81E60FF71F90836F5F7F4FA417B50777
S11316C0A9F7DF91CF910895FC01A481B5818AEA3D
S11316D08C93A481B5818CEC11968C93A481B581F3
S11316E083E012968C93A481B58181E813968C9340
S11316F0A481B58114966C93A481B58115964C93FD
S113170086E0818708950F931F93CF93DF93DC01C5
S11317101496ED91FC911597AAEAA083EC01EC8153
S1131720FD81ACECA183EC81FD81A3E0A20FA28337
S1131730EC81FD81A2E8A383EC81FD817483EC81BB
S1131740FD81658366E0620F6987369527952115CB
S11317503105E1F0E42FF52F2D5F3F4F220F331FAA
S113176046E050E0EC01AC81BD81A40FB51F61815E
S11317706C93AC81BD81A40FB51F60813296119624
S11317806C934E5F5F4F4217530761F7DF91CF9120
S11317901F910F910895FC01A481B5818AEA8C936D
S11317A0A481B5818CEC11968C93A481B58184E0DD
S11317B012968C93A481B58183E813968C93A481AB
S11317C0B58114967C93A481B58115966C93A481FC
S11317D0B58116964C9387E0818708950F931F93E4
S11317E0CF93DF93EC01CB018A0178876F835B870A
S11317F04A875ED29B838A83C8015AD29D838C8395
S113180019861E82DF91CF911F910F910895CF9376
S1131810DF93EC018A819B81E0D28C819D81DDD2B2
S1131820DF91CF9108950895DC0157968D919C9195
S11318305897009739F0DC01ED91FC910280F38117
S1131840E02D09950895DC0157968D919C91589748
S1131850009739F0DC01ED91FC910480F581E02DD5
S11318600995089529E131E0FC013183208308952D
S1131870CF92DF92EF92FF920F931F93CF93DF9358
S1131880EC017B016A01C90138872F831B870A8712
S11318900FD29B838A83C8010BD29D838C831D8ABC
S11318A019861F861E82198A188A1B8A1A8A87E05B
S11318B08E8782E08C8B1E8AFD86EC86D701ED91A3
S11318C0FC910484F585E02D44E45DE0BE01C7018C
S11318D00995D701ED91FC910684F785E02D47EA3F
S11318E05DE0BE01C7010995C114D10419F0D88E79
S11318F0CF8A02C0D88FCF8BDF91CF911F910F91E8
S1131900FF90EF90DF90CF90089529E131E0FC0142
S11319103183208388DF0895CF93DF93EC01962FE2
S1131920EE854E2F50E04B30510508F0AAC0FA0165
S1131930EF5BFF4F09949A3A19F482E08E87A1C0B5
S113194081E08E879EC09C3C19F483E08E8799C009
S113195081E08E8796C09E831F861B8A1A8A109206
S1131960C7011092C60184E08E878BC08F85EA81FF
S1131970FB81E80FF11D90832F8530E04F8158855E
S11319804217530718F489E08E877BC02A893B8964
S11319902927922F92959227092E96959695902510
S11319A0092E969590259770022E232F96950794CD
S11319B09795302D292706949795302529273B8B19
S11319C02A8B8F858F5F8F878091C6019091C70185
S11319D001969093C7018093C6014F858E81481369
S11319E050C088E08E87E881F98150E06A817B816C
S11319F00190F081E02DCE0109958F89988D009793
S1131A0009F43FC0DC01ED91FC914E8150E06A8104
S1131A107B810190F081E02D099533C0692F70E03E
S1131A20798B688B86E08E872CC028893989A90137
S1131A30592B598B488B2A893B8942175307E9F460
S1131A4088E08E87E881F9814E8150E06A817B814C
S1131A500190F081E02DCE0109958F89988D009732
S1131A6081F0DC01ED91FC914E8150E06A817B8133
S1131A700190F081E02D099504C089E08E8701C0B2
S1131A801E8ADF91CF910895CF93DF93EC018C856B
S1131A909D85DC01ED91FC910280F381E02D099597
S1131AA0682FCE0139DFDF91CF910895FC011786AD
S1131AB01682118A108A138A128A16860895CF9381
S1131AC0DF93EC018C89843038F48230B8F58823B4
S1131AD031F08130D1F038C0853081F135C081E0FA
S1131AE08C8B1D8A8C859D852D89DC01ED91FC9163
S1131AF0AC81BD81A20FB11D0480F581E02D6C91F4
S1131B0009958D898F5F8D8B1FC08C859D852D894F
S1131B10DC01ED91FC91AC81BD81A20FB11D04806B
S1131B20F581E02D6C9109958D898F5F8D8B9D8951
S1131B308985981309C083E08C8B06C08E8988231D
S1131B4011F0CE01B3DF1E8ADF91CF910895B7DF84
S1131B500895FC0106C08685893041F086858A3067
S1131B6039F086858830B9F781E0089582E00895D8
S1131B7083E00895FC01158A148AA1DF0895CF93A8
S1131B80DF93EC01E881F9810284F385E02D099566
S1131B90CE01F0DFDF91CF910895CF93DF93EC0175
S1131BA0E881F9810684F785E02D0995CE01E2DF0D
S1131BB0DF91CF910895CF93DF93EC01E881F98110
S1131BC00484F585E02D0995CE01D4DFDF91CF9112
S1131BD00895CF93DF93EC01E881F98150E0008808
S1131BE0F189E02D0995CE01C5DFDF91CF910895EC
S1131BF0FC0106C08489843041F08489853039F041
S1131C0084898330B9F781E0089582E0089583E000
S1131C10089521E0FC01268BCEDF089521E0FC012C
S1131C20268BD7DF08950F931F93CF93DF938C01F7
S1131C30EB019881913869F4D801ED91FC9104800D
S1131C40F581E02D2A81AB014D5F5F4F6981C801A9
S1131C5009959881933899F4D801ED91FC912B81E1
S1131C6030E0AE014C5F5F4F698170E0762F6627EC
S1131C708A81682B0280F381E02DC8010995DF91E8
S1131C80CF911F910F910895CEDF0895A29FB001C7
S1131C90B39FC001A39F01D0B29F700D811D112479
S1131CA0911D0895EE0FFF1F0590F491E02D099406
S1131CB0CF93DF938230910510F482E090E0E091BD
S1131CC0CA01F091CB0120E030E0C0E0D0E03097D1
S1131CD011F14081518148175907C0F0481759073D
S1131CE061F482819381209719F09B838A832BC0AE
S1131CF09093CB018093CA0126C02115310519F0B8
S1131D004217530718F49A01BE01DF01EF01028064
S1131D10F381E02DDCCF2115310509F1281B390BA6
S1131D202430310590F412968D919C91139761158E
S1131D30710521F0FB019383828304C09093CB014E
S1131D408093CA01FD01329644C0FD01E20FF31FE6
S1131D5081939193225031092D933C933AC0209161
S1131D60C8013091C901232B41F4209162003091C4
S1131D7063003093C9012093C80120916000309121
S1131D8061002115310541F42DB73EB7409164003F
S1131D9050916500241B350BE091C801F091C901F5
S1131DA0E217F307A0F42E1B3F0B2817390778F02E
S1131DB0AC014E5F5F4F2417350748F04E0F5F1F8D
S1131DC05093C9014093C8018193919302C0E0E00C
S1131DD0F0E0CF01DF91CF9108950F931F93CF933C
S1131DE0DF93009709F48CC0FC01329713821282AE
S1131DF00091CA011091CB010115110581F42081D4
S1131E003181820F931F2091C8013091C901281795
S1131E10390779F5F093C901E093C80171C0D8017D
S1131E2040E050E0AE17BF0750F412962D913C915C
S1131E301397AD012115310509F1D901F3CF9D01A6
S1131E40DA013383228360817181860F971F8217A1
S1131E50930769F4EC0128813981260F371F2E5F1F
S1131E603F4F318320838A819B8193838283452BD7
S1131E7029F4F093CB01E093CA0142C01396FC937A
S1131E80EE931297ED01499159919E01240F351F4C
S1131E90E217F30771F480819181840F951F0296F4
S1131EA011969C938E938281938113969C938E9327
S1131EB01297E0E0F0E0D80112968D919C9113976F
S1131EC0009719F0F8018C01F6CF8D919C9198013F
S1131ED02E5F3F4F820F931F2091C8013091C9019B
S1131EE02817390769F4309729F41092CB0110921E
S1131EF0CA0102C0138212821093C9010093C8015F
S1131F00DF91CF911F910F91089510E0CDE4D0E0BF
S1131F1003C0FE01C7DE2196CE34D107D1F7F89471
S1051F20FFCFED
S1131F220000CC0120004003A001CF008A0067001A
S1131F3244003300220019001000080007000300C7
S1131F4201000105000000000075009F00A100B51A
S1131F5200BC00C200A300AC00000000002F016B13
S1131F62013001EE0B070C330B640B830BCB0B001C
S1131F7200000074069D06A806A906AF06B006B1C5
S1131F8206B206B406B506B606BF06C006C906CA38
S1131F920600000000E7060F0711071A07260700CC
S1131FA20000003307340735073607370738073987
S1131FB2073A073B073C073D073E073F07400741F7
S1131FC207000000007C0A7C0A7C0A7C0A7C0A7CEA
S1131FD20A49074A0700000000440E140C230CEEC1
S10F1FE20B070C330B640B830BCB0B00C0
S9030000FC
